{"contracts/RiseFarming.sol":{"RiseFarming":{"abi":[{"inputs":[],"stateMutability":"nonpayable","type":"constructor"},{"inputs":[],"name":"EnforcedPause","type":"error"},{"inputs":[],"name":"ExpectedPause","type":"error"},{"inputs":[{"internalType":"address","name":"owner","type":"address"}],"name":"OwnableInvalidOwner","type":"error"},{"inputs":[{"internalType":"address","name":"account","type":"address"}],"name":"OwnableUnauthorizedAccount","type":"error"},{"inputs":[],"name":"ReentrancyGuardReentrantCall","type":"error"},{"anonymous":false,"inputs":[{"indexed":true,"internalType":"address","name":"user","type":"address"},{"indexed":false,"internalType":"uint256","name":"bundleId","type":"uint256"},{"indexed":false,"internalType":"uint256[]","name":"itemIds","type":"uint256[]"},{"indexed":false,"internalType":"uint256[]","name":"amounts","type":"uint256[]"},{"indexed":false,"internalType":"uint256","name":"price","type":"uint256"}],"name":"BundlePurchased","type":"event"},{"anonymous":false,"inputs":[{"indexed":true,"internalType":"address","name":"user","type":"address"},{"indexed":false,"internalType":"uint256","name":"day","type":"uint256"},{"indexed":false,"internalType":"uint256","name":"reward","type":"uint256"}],"name":"DailyRewardClaimed","type":"event"},{"anonymous":false,"inputs":[{"indexed":true,"internalType":"address","name":"user","type":"address"},{"indexed":false,"internalType":"uint256","name":"upgradeId","type":"uint256"}],"name":"FarmUpgraded","type":"event"},{"anonymous":false,"inputs":[{"indexed":true,"internalType":"address","name":"user","type":"address"},{"indexed":false,"internalType":"uint256","name":"plotId","type":"uint256"},{"indexed":false,"internalType":"uint256","name":"reward","type":"uint256"}],"name":"Harvested","type":"event"},{"anonymous":false,"inputs":[{"indexed":true,"internalType":"address","name":"user","type":"address"},{"indexed":false,"internalType":"uint256","name":"bundleId","type":"uint256"},{"indexed":false,"internalType":"uint256[]","name":"itemIds","type":"uint256[]"},{"indexed":false,"internalType":"uint256[]","name":"amounts","type":"uint256[]"},{"indexed":false,"internalType":"address","name":"paymentToken","type":"address"},{"indexed":false,"internalType":"uint256","name":"price","type":"uint256"}],"name":"ItemPurchased","type":"event"},{"anonymous":false,"inputs":[{"indexed":true,"internalType":"address","name":"previousOwner","type":"address"},{"indexed":true,"internalType":"address","name":"newOwner","type":"address"}],"name":"OwnershipTransferred","type":"event"},{"anonymous":false,"inputs":[{"indexed":false,"internalType":"address","name":"account","type":"address"}],"name":"Paused","type":"event"},{"anonymous":false,"inputs":[{"indexed":false,"internalType":"address","name":"token","type":"address"}],"name":"PaymentTokenAdded","type":"event"},{"anonymous":false,"inputs":[{"indexed":false,"internalType":"address","name":"token","type":"address"}],"name":"PaymentTokenRemoved","type":"event"},{"anonymous":false,"inputs":[{"indexed":true,"internalType":"address","name":"user","type":"address"},{"indexed":false,"internalType":"uint256","name":"amount","type":"uint256"}],"name":"RiseClaimed","type":"event"},{"anonymous":false,"inputs":[{"indexed":true,"internalType":"address","name":"user","type":"address"},{"indexed":false,"internalType":"uint256","name":"plotId","type":"uint256"},{"indexed":false,"internalType":"uint256","name":"seedId","type":"uint256"}],"name":"SeedPlanted","type":"event"},{"anonymous":false,"inputs":[{"indexed":true,"internalType":"address","name":"user","type":"address"},{"indexed":false,"internalType":"uint256","name":"toolId","type":"uint256"},{"indexed":false,"internalType":"uint256","name":"plotId","type":"uint256"}],"name":"ToolUsed","type":"event"},{"anonymous":false,"inputs":[{"indexed":false,"internalType":"address","name":"account","type":"address"}],"name":"Unpaused","type":"event"},{"inputs":[],"name":"AUTO_WATERING_SYSTEM_ID","outputs":[{"internalType":"uint256","name":"","type":"uint256"}],"stateMutability":"view","type":"function"},{"inputs":[],"name":"BASIC_SEED_SINGLE_ID","outputs":[{"internalType":"uint256","name":"","type":"uint256"}],"stateMutability":"view","type":"function"},{"inputs":[],"name":"ENERGY_BOOSTER_ID","outputs":[{"internalType":"uint256","name":"","type":"uint256"}],"stateMutability":"view","type":"function"},{"inputs":[],"name":"FERTILIZER_SPREADER_ID","outputs":[{"internalType":"uint256","name":"","type":"uint256"}],"stateMutability":"view","type":"function"},{"inputs":[],"name":"HARVESTER_ID","outputs":[{"internalType":"uint256","name":"","type":"uint256"}],"stateMutability":"view","type":"function"},{"inputs":[],"name":"HYBRID_SEED_SINGLE_ID","outputs":[{"internalType":"uint256","name":"","type":"uint256"}],"stateMutability":"view","type":"function"},{"inputs":[],"name":"MAX_BONUS_BP","outputs":[{"internalType":"uint16","name":"","type":"uint16"}],"stateMutability":"view","type":"function"},{"inputs":[],"name":"MIN_BONUS_BP","outputs":[{"internalType":"uint16","name":"","type":"uint16"}],"stateMutability":"view","type":"function"},{"inputs":[],"name":"PREMIUM_SEED_SINGLE_ID","outputs":[{"internalType":"uint256","name":"","type":"uint256"}],"stateMutability":"view","type":"function"},{"inputs":[],"name":"STARTER_BUNDLE_ID","outputs":[{"internalType":"uint256","name":"","type":"uint256"}],"stateMutability":"view","type":"function"},{"inputs":[],"name":"WATERING_CAN_ID","outputs":[{"internalType":"uint256","name":"","type":"uint256"}],"stateMutability":"view","type":"function"},{"inputs":[{"internalType":"address","name":"","type":"address"}],"name":"acceptedPaymentTokens","outputs":[{"internalType":"bool","name":"","type":"bool"}],"stateMutability":"view","type":"function"},{"inputs":[{"components":[{"internalType":"uint256","name":"id","type":"uint256"},{"internalType":"string","name":"name","type":"string"},{"internalType":"uint256[]","name":"itemIds","type":"uint256[]"},{"internalType":"uint256[]","name":"itemAmounts","type":"uint256[]"},{"internalType":"uint256","name":"priceETH","type":"uint256"},{"internalType":"address","name":"paymentToken","type":"address"},{"internalType":"bool","name":"active","type":"bool"},{"internalType":"uint256","name":"maxSupply","type":"uint256"},{"internalType":"uint256","name":"supply","type":"uint256"}],"internalType":"struct RiseFarming.Bundle","name":"bundle","type":"tuple"}],"name":"addBundle","outputs":[],"stateMutability":"nonpayable","type":"function"},{"inputs":[{"components":[{"internalType":"uint256","name":"id","type":"uint256"},{"internalType":"string","name":"name","type":"string"},{"internalType":"uint8","name":"itemType","type":"uint8"},{"internalType":"uint256","name":"priceETH","type":"uint256"},{"internalType":"address","name":"paymentToken","type":"address"},{"internalType":"uint256","name":"baseReward","type":"uint256"},{"internalType":"uint256","name":"baseGrowthTime","type":"uint256"},{"internalType":"uint16","name":"growthBonusBP","type":"uint16"},{"internalType":"uint16","name":"yieldBonusBP","type":"uint16"},{"internalType":"bool","name":"active","type":"bool"},{"internalType":"uint256","name":"maxSupply","type":"uint256"},{"internalType":"uint256","name":"supply","type":"uint256"}],"internalType":"struct RiseFarming.Item","name":"item","type":"tuple"}],"name":"addItem","outputs":[],"stateMutability":"nonpayable","type":"function"},{"inputs":[{"internalType":"address","name":"token","type":"address"}],"name":"addPaymentToken","outputs":[],"stateMutability":"nonpayable","type":"function"},{"inputs":[{"internalType":"uint256","name":"","type":"uint256"}],"name":"bundles","outputs":[{"internalType":"uint256","name":"id","type":"uint256"},{"internalType":"string","name":"name","type":"string"},{"internalType":"uint256","name":"priceETH","type":"uint256"},{"internalType":"address","name":"paymentToken","type":"address"},{"internalType":"bool","name":"active","type":"bool"},{"internalType":"uint256","name":"maxSupply","type":"uint256"},{"internalType":"uint256","name":"supply","type":"uint256"}],"stateMutability":"view","type":"function"},{"inputs":[{"internalType":"uint256","name":"bundleId","type":"uint256"},{"internalType":"uint256","name":"amount","type":"uint256"},{"internalType":"address","name":"paymentToken","type":"address"}],"name":"buyBundle","outputs":[],"stateMutability":"payable","type":"function"},{"inputs":[{"internalType":"uint256","name":"itemId","type":"uint256"},{"internalType":"uint256","name":"amount","type":"uint256"},{"internalType":"address","name":"paymentToken","type":"address"}],"name":"buyItem","outputs":[],"stateMutability":"payable","type":"function"},{"inputs":[],"name":"claimDailyReward","outputs":[],"stateMutability":"nonpayable","type":"function"},{"inputs":[],"name":"claimRiseTokens","outputs":[],"stateMutability":"nonpayable","type":"function"},{"inputs":[{"internalType":"uint256","name":"","type":"uint256"}],"name":"dailyRewards","outputs":[{"internalType":"uint256","name":"","type":"uint256"}],"stateMutability":"view","type":"function"},{"inputs":[{"internalType":"uint256","name":"bundleId","type":"uint256"}],"name":"deactivateBundle","outputs":[],"stateMutability":"nonpayable","type":"function"},{"inputs":[{"internalType":"uint256","name":"itemId","type":"uint256"}],"name":"deactivateItem","outputs":[],"stateMutability":"nonpayable","type":"function"},{"inputs":[{"internalType":"address","name":"","type":"address"}],"name":"farmLevel","outputs":[{"internalType":"uint256","name":"","type":"uint256"}],"stateMutability":"view","type":"function"},{"inputs":[{"internalType":"address","name":"user","type":"address"},{"internalType":"uint256[]","name":"itemIds","type":"uint256[]"}],"name":"getUserInventory","outputs":[{"internalType":"uint256[]","name":"","type":"uint256[]"}],"stateMutability":"view","type":"function"},{"inputs":[{"internalType":"address","name":"user","type":"address"},{"internalType":"uint256[]","name":"plotIds","type":"uint256[]"}],"name":"getUserPlots","outputs":[{"components":[{"internalType":"uint256","name":"seedId","type":"uint256"},{"internalType":"uint256","name":"plantedAt","type":"uint256"},{"internalType":"uint256","name":"readyAt","type":"uint256"},{"internalType":"uint16","name":"growthBonusBP","type":"uint16"},{"internalType":"uint16","name":"yieldBonusBP","type":"uint16"},{"internalType":"bool","name":"growing","type":"bool"}],"internalType":"struct RiseFarming.Plot[]","name":"","type":"tuple[]"}],"stateMutability":"view","type":"function"},{"inputs":[{"internalType":"uint256","name":"plotId","type":"uint256"}],"name":"harvest","outputs":[],"stateMutability":"nonpayable","type":"function"},{"inputs":[{"internalType":"address","name":"","type":"address"}],"name":"hasAutoWatering","outputs":[{"internalType":"bool","name":"","type":"bool"}],"stateMutability":"view","type":"function"},{"inputs":[{"internalType":"uint256","name":"","type":"uint256"}],"name":"items","outputs":[{"internalType":"uint256","name":"id","type":"uint256"},{"internalType":"string","name":"name","type":"string"},{"internalType":"uint8","name":"itemType","type":"uint8"},{"internalType":"uint256","name":"priceETH","type":"uint256"},{"internalType":"address","name":"paymentToken","type":"address"},{"internalType":"uint256","name":"baseReward","type":"uint256"},{"internalType":"uint256","name":"baseGrowthTime","type":"uint256"},{"internalType":"uint16","name":"growthBonusBP","type":"uint16"},{"internalType":"uint16","name":"yieldBonusBP","type":"uint16"},{"internalType":"bool","name":"active","type":"bool"},{"internalType":"uint256","name":"maxSupply","type":"uint256"},{"internalType":"uint256","name":"supply","type":"uint256"}],"stateMutability":"view","type":"function"},{"inputs":[{"internalType":"address","name":"","type":"address"}],"name":"lastClaimedDay","outputs":[{"internalType":"uint256","name":"","type":"uint256"}],"stateMutability":"view","type":"function"},{"inputs":[],"name":"owner","outputs":[{"internalType":"address","name":"","type":"address"}],"stateMutability":"view","type":"function"},{"inputs":[],"name":"pause","outputs":[],"stateMutability":"nonpayable","type":"function"},{"inputs":[],"name":"paused","outputs":[{"internalType":"bool","name":"","type":"bool"}],"stateMutability":"view","type":"function"},{"inputs":[{"internalType":"uint256","name":"plotId","type":"uint256"},{"internalType":"uint256","name":"seedId","type":"uint256"}],"name":"plantSeed","outputs":[],"stateMutability":"nonpayable","type":"function"},{"inputs":[{"internalType":"address","name":"","type":"address"}],"name":"playerLevel","outputs":[{"internalType":"uint256","name":"","type":"uint256"}],"stateMutability":"view","type":"function"},{"inputs":[{"internalType":"address","name":"token","type":"address"}],"name":"removePaymentToken","outputs":[],"stateMutability":"nonpayable","type":"function"},{"inputs":[],"name":"renounceOwnership","outputs":[],"stateMutability":"nonpayable","type":"function"},{"inputs":[{"internalType":"address","name":"","type":"address"}],"name":"riceTokens","outputs":[{"internalType":"uint256","name":"","type":"uint256"}],"stateMutability":"view","type":"function"},{"inputs":[],"name":"riseToken","outputs":[{"internalType":"contract IERC20","name":"","type":"address"}],"stateMutability":"view","type":"function"},{"inputs":[{"internalType":"uint256","name":"itemId","type":"uint256"},{"internalType":"uint256","name":"maxSupply","type":"uint256"}],"name":"setItemMaxSupply","outputs":[],"stateMutability":"nonpayable","type":"function"},{"inputs":[{"internalType":"address","name":"_riseToken","type":"address"}],"name":"setRiseToken","outputs":[],"stateMutability":"nonpayable","type":"function"},{"inputs":[{"internalType":"address","name":"","type":"address"}],"name":"totalHarvests","outputs":[{"internalType":"uint256","name":"","type":"uint256"}],"stateMutability":"view","type":"function"},{"inputs":[{"internalType":"address","name":"","type":"address"}],"name":"totalXP","outputs":[{"internalType":"uint256","name":"","type":"uint256"}],"stateMutability":"view","type":"function"},{"inputs":[{"internalType":"address","name":"newOwner","type":"address"}],"name":"transferOwnership","outputs":[],"stateMutability":"nonpayable","type":"function"},{"inputs":[],"name":"unpause","outputs":[],"stateMutability":"nonpayable","type":"function"},{"inputs":[{"components":[{"internalType":"uint256","name":"id","type":"uint256"},{"internalType":"string","name":"name","type":"string"},{"internalType":"uint256[]","name":"itemIds","type":"uint256[]"},{"internalType":"uint256[]","name":"itemAmounts","type":"uint256[]"},{"internalType":"uint256","name":"priceETH","type":"uint256"},{"internalType":"address","name":"paymentToken","type":"address"},{"internalType":"bool","name":"active","type":"bool"},{"internalType":"uint256","name":"maxSupply","type":"uint256"},{"internalType":"uint256","name":"supply","type":"uint256"}],"internalType":"struct RiseFarming.Bundle","name":"bundle","type":"tuple"}],"name":"updateBundle","outputs":[],"stateMutability":"nonpayable","type":"function"},{"inputs":[{"components":[{"internalType":"uint256","name":"id","type":"uint256"},{"internalType":"string","name":"name","type":"string"},{"internalType":"uint8","name":"itemType","type":"uint8"},{"internalType":"uint256","name":"priceETH","type":"uint256"},{"internalType":"address","name":"paymentToken","type":"address"},{"internalType":"uint256","name":"baseReward","type":"uint256"},{"internalType":"uint256","name":"baseGrowthTime","type":"uint256"},{"internalType":"uint16","name":"growthBonusBP","type":"uint16"},{"internalType":"uint16","name":"yieldBonusBP","type":"uint16"},{"internalType":"bool","name":"active","type":"bool"},{"internalType":"uint256","name":"maxSupply","type":"uint256"},{"internalType":"uint256","name":"supply","type":"uint256"}],"internalType":"struct RiseFarming.Item","name":"item","type":"tuple"}],"name":"updateItem","outputs":[],"stateMutability":"nonpayable","type":"function"},{"inputs":[{"internalType":"uint256","name":"upgradeId","type":"uint256"}],"name":"upgradeFarm","outputs":[],"stateMutability":"nonpayable","type":"function"},{"inputs":[{"internalType":"uint256","name":"toolId","type":"uint256"},{"internalType":"uint256","name":"plotId","type":"uint256"}],"name":"useTool","outputs":[],"stateMutability":"nonpayable","type":"function"},{"inputs":[{"internalType":"address","name":"","type":"address"},{"internalType":"uint256","name":"","type":"uint256"}],"name":"userBundleSeeds","outputs":[{"internalType":"uint256","name":"","type":"uint256"}],"stateMutability":"view","type":"function"},{"inputs":[{"internalType":"address","name":"","type":"address"},{"internalType":"uint256","name":"","type":"uint256"}],"name":"userItemBalances","outputs":[{"internalType":"uint256","name":"","type":"uint256"}],"stateMutability":"view","type":"function"},{"inputs":[{"internalType":"address","name":"","type":"address"},{"internalType":"uint256","name":"","type":"uint256"}],"name":"userPlots","outputs":[{"internalType":"uint256","name":"seedId","type":"uint256"},{"internalType":"uint256","name":"plantedAt","type":"uint256"},{"internalType":"uint256","name":"readyAt","type":"uint256"},{"internalType":"uint16","name":"growthBonusBP","type":"uint16"},{"internalType":"uint16","name":"yieldBonusBP","type":"uint16"},{"internalType":"bool","name":"growing","type":"bool"}],"stateMutability":"view","type":"function"},{"inputs":[{"internalType":"address","name":"","type":"address"},{"internalType":"uint256","name":"","type":"uint256"}],"name":"userSingleSeeds","outputs":[{"internalType":"uint256","name":"","type":"uint256"}],"stateMutability":"view","type":"function"},{"inputs":[{"internalType":"address","name":"","type":"address"}],"name":"userStreaks","outputs":[{"internalType":"uint256","name":"","type":"uint256"}],"stateMutability":"view","type":"function"},{"inputs":[{"internalType":"uint256","name":"plotId","type":"uint256"}],"name":"waterCrop","outputs":[],"stateMutability":"nonpayable","type":"function"},{"inputs":[],"name":"withdrawETH","outputs":[],"stateMutability":"nonpayable","type":"function"},{"inputs":[{"internalType":"address","name":"token","type":"address"}],"name":"withdrawToken","outputs":[],"stateMutability":"nonpayable","type":"function"},{"stateMutability":"payable","type":"receive"}],"evm":{"bytecode":{"linkReferences":{},"object":"60806040523480156200001157600080fd5b5033806200003957604051631e4fbdf760e01b81526000600482015260240160405180910390fd5b620000448162001aa0565b50600180805560008052600e60209081527fe710864318d4a32f37d6ce54cb3fadbef648dd12d8dbdf53973564d56b7f881c805460ff19169092179091556040805160e081018252670de0b6b3a76400008152671bc16d674ec80000928101929092526729a2241af62c000090820152673782dace9d9000006060820152674563918244f4000060808201526753444835ec58000060a0820152676124fee993bc000060c0820152620000fc90600f90600762001af0565b506040805161018081018252600980825282518084018452601881527f426173696320526963652053656564202853696e676c6529000000000000000060208281019190915280840191825260009484018590526602d6afaf2cf000606085015260808401859052606460a085015261708060c0850152600f60e0850181905261010085015260016101208501526127106101408501819052610160850152919093526002905280517ff85cc6ffc513dc6cf7d199ef87b7a63cf9defe62251c1c247cd12f1eec7bff2990815591519091907ff85cc6ffc513dc6cf7d199ef87b7a63cf9defe62251c1c247cd12f1eec7bff2a90620001fc908262001c3a565b506040828101516002838101805460ff191660ff9093169290921790915560608085015160038501556080808601516004860180546001600160a01b0319166001600160a01b0390921691909117905560a080870151600587015560c080880151600688015560e080890151600789018054610100808d0151610120808f015161ffff96871663ffffffff19909516949094176201000096909216959095021760ff60201b19166401000000009215159290920291909117909155610140808c015160088c01556101609b8c01516009909b019a909a55885161018081018a52600a8082528a51808c018c52601a81527f5072656d69756d20526963652053656564202853696e676c652900000000000060208281019190915280840191825260009c84018d905266198972aaa540009a84019a909a529782018b905260c89682019690965261546094810194909452601e928401839052830191909152600190820152610fa09681018790529687019590955293909252905281517fd3604db978f6137b0d18816b77b2ce810487a3af08a922e0b184963be5f3adfc90815590517fd3604db978f6137b0d18816b77b2ce810487a3af08a922e0b184963be5f3adfd90620003cc908262001c3a565b506040828101516002838101805460ff191660ff9093169290921790915560608085015160038501556080808601516004860180546001600160a01b0319166001600160a01b0390921691909117905560a080870151600587015560c080880151600688015560e080890151600789018054610100808d0151610120808f015161ffff96871663ffffffff19909516949094176201000096909216959095021760ff60201b19166401000000009215159290920291909117909155610140808c015160088c01556101609b8c01516009909b019a909a55885161018081018a52600b8082528a51808c018c52601981527f48796272696420526963652053656564202853696e676c65290000000000000060208281019190915280840191825260009c84018d90526635ea7dd91c80009a84019a909a529782018b9052610190968201969096526138409481019490945260469284018390528301919091526001908201526103e89681018790529687019590955293909252905281517fab9952baf6478d8cfb7253ce86a6c53a7b7549582c76210b1581ae682b7e556f90815590517fab9952baf6478d8cfb7253ce86a6c53a7b7549582c76210b1581ae682b7e5570906200059d908262001c3a565b506040828101516002838101805460ff191660ff9093169290921790915560608085015160038501556080808601516004860180546001600160a01b0319166001600160a01b0390921691909117905560a080870151600587015560c080880151600688015560e080890151600789018054610100808d0151610120808f015161ffff96871663ffffffff19909516949094176201000096909216959095021760ff60201b19166401000000009215159290920291909117909155610140808c015160088c01556101609b8c01516009909b019a909a55885161018081018a52600c8082528a51808c018c52601381527f46657274696c697a65722053707265616465720000000000000000000000000060208281019190915280840191825260019c84018d905260009a84018b90529883018a9052968201899052948101889052601993810193909352600f908301528101969096526127109686018790529685019590955294905290925281517fbd814762a7e35d5c162a7570d14baa68bd622cabb1ad83d40dd70f8a88aa67c090815590517fbd814762a7e35d5c162a7570d14baa68bd622cabb1ad83d40dd70f8a88aa67c19062000760908262001c3a565b5060408201518160020160006101000a81548160ff021916908360ff1602179055506060820151816003015560808201518160040160006101000a8154816001600160a01b0302191690836001600160a01b0316021790555060a0820151816005015560c0820151816006015560e08201518160070160006101000a81548161ffff021916908361ffff1602179055506101008201518160070160026101000a81548161ffff021916908361ffff1602179055506101208201518160070160046101000a81548160ff02191690831515021790555061014082015181600801556101608201518160090155905050604051806101800160405280600481526020016040518060400160405280600e81526020016d537461727465722042756e646c6560901b8152508152602001600060ff1681526020016000815260200160006001600160a01b031681526020016000815260200160008152602001600061ffff168152602001600061ffff1681526020016001151581526020016103e881526020016103e881525060026000600481526020019081526020016000206000820151816000015560208201518160010190816200091e919062001c3a565b5060408201518160020160006101000a81548160ff021916908360ff1602179055506060820151816003015560808201518160040160006101000a8154816001600160a01b0302191690836001600160a01b0316021790555060a0820151816005015560c0820151816006015560e08201518160070160006101000a81548161ffff021916908361ffff1602179055506101008201518160070160026101000a81548161ffff021916908361ffff1602179055506101208201518160070160046101000a81548160ff02191690831515021790555061014082015181600801556101608201518160090155905050604051806101800160405280600681526020016040518060400160405280601481526020017f4175746f2d5761746572696e672053797374656d0000000000000000000000008152508152602001600160ff1681526020016000815260200160006001600160a01b031681526020016000815260200160008152602001600061ffff168152602001600061ffff1681526020016001151581526020016000198152602001600019815250600260006006815260200190815260200160002060008201518160000155602082015181600101908162000aeb919062001c3a565b5060408201518160020160006101000a81548160ff021916908360ff1602179055506060820151816003015560808201518160040160006101000a8154816001600160a01b0302191690836001600160a01b0316021790555060a0820151816005015560c0820151816006015560e08201518160070160006101000a81548161ffff021916908361ffff1602179055506101008201518160070160026101000a81548161ffff021916908361ffff1602179055506101208201518160070160046101000a81548160ff02191690831515021790555061014082015181600801556101608201518160090155905050604051806101800160405280600581526020016040518060400160405280600c81526020016b2bb0ba32b934b7339021b0b760a11b8152508152602001600160ff16815260200166016911c3f9d000815260200160006001600160a01b031681526020016000815260200160008152602001600061ffff168152602001600061ffff16815260200160011515815260200161c350815260200161c350815250600260006005815260200190815260200160002060008201518160000155602082015181600101908162000cad919062001c3a565b5060408281015160028301805460ff191660ff9092169190911790556060830151600383015560808301516004830180546001600160a01b0319166001600160a01b0390921691909117905560a0830151600583015560c0830151600683015560e08301516007830180546101008601516101208088015161ffff95861663ffffffff19909416939093176201000095909216949094021760ff60201b19166401000000009115159190910217905561014084015160088401556101609093015160099092019190915580519182018152600d825280518082018252601881527f426173696320526963652053656564202842756e646c65290000000000000000602082810191909152808401919091528151600180825281840184529284019290918281019080368337505050815260408051600180825281830190925260209283019290919080830190803683375050508152660b488e1fce8000602080830191909152600060408301819052600160608401526103e86080840181905260a090930192909252600d9091526003815281517fa8f2d96126c6d0ad63adabaef7bf5cf47f163fb0c218a473d28f62312d197bcf908155908201517fa8f2d96126c6d0ad63adabaef7bf5cf47f163fb0c218a473d28f62312d197bd09062000e97908262001c3a565b506040820151805162000eb591600284019160209091019062001b3e565b506060820151805162000ed391600384019160209091019062001b3e565b506080820151600482015560a082015160058201805460c08501511515600160a01b026001600160a81b03199091166001600160a01b039093169290921791909117905560e0820151600682015561010090910151600790910155600d600090815260036020527fa8f2d96126c6d0ad63adabaef7bf5cf47f163fb0c218a473d28f62312d197bd180546009929062000f705762000f7062001d06565b6000918252602080832090910192909255600d815260039091527fa8f2d96126c6d0ad63adabaef7bf5cf47f163fb0c218a473d28f62312d197bd280546005929062000fc05762000fc062001d06565b9060005260206000200181905550604051806101200160405280600e81526020016040518060400160405280601a81526020017f5072656d69756d20526963652053656564202842756e646c6529000000000000815250815260200160016001600160401b0381111562001038576200103862001b93565b60405190808252806020026020018201604052801562001062578160200160208202803683370190505b508152604080516001808252818301909252602090920191908160200160208202803683375050508152662d4699b9048000602080830191909152600060408301819052600160608401526103e86080840181905260a090930192909252600e9091526003815281517fd6ebcc64c739277b117ce359e436534b234b76e914c80ad276abf5b562078939908155908201517fd6ebcc64c739277b117ce359e436534b234b76e914c80ad276abf5b56207893a9062001121908262001c3a565b50604082015180516200113f91600284019160209091019062001b3e565b50606082015180516200115d91600384019160209091019062001b3e565b506080820151600482015560a082015160058201805460c08501511515600160a01b026001600160a81b03199091166001600160a01b039093169290921791909117905560e0820151600682015561010090910151600790910155600e600090815260036020527fd6ebcc64c739277b117ce359e436534b234b76e914c80ad276abf5b56207893b8054600a9290620011fa57620011fa62001d06565b6000918252602080832090910192909255600e815260039091527fd6ebcc64c739277b117ce359e436534b234b76e914c80ad276abf5b56207893c8054600292906200124a576200124a62001d06565b9060005260206000200181905550604051806101200160405280600f81526020016040518060400160405280601981526020017f48796272696420526963652053656564202842756e646c652900000000000000815250815260200160016001600160401b03811115620012c257620012c262001b93565b604051908082528060200260200182016040528015620012ec578160200160208202803683370190505b508152604080516001808252818301909252602090920191908160200160208202803683375050508152665ffcba548aa000602080830191909152600060408301819052600160608401526101f46080840181905260a090930192909252600f9091526003815281517ff60b7f6a315ec68a6ac240e69dca53652b38627f709a2caa217d9e18af4d7a60908155908201517ff60b7f6a315ec68a6ac240e69dca53652b38627f709a2caa217d9e18af4d7a6190620013ab908262001c3a565b5060408201518051620013c991600284019160209091019062001b3e565b5060608201518051620013e791600384019160209091019062001b3e565b506080820151600482015560a082015160058201805460c08501511515600160a01b026001600160a81b03199091166001600160a01b039093169290921791909117905560e0820151600682015561010090910151600790910155600f600090815260036020527ff60b7f6a315ec68a6ac240e69dca53652b38627f709a2caa217d9e18af4d7a628054600b929062001484576200148462001d06565b6000918252602080832090910192909255600f815260039091527ff60b7f6a315ec68a6ac240e69dca53652b38627f709a2caa217d9e18af4d7a63805460029290620014d457620014d462001d06565b60009182526020808320909101929092556040805161018081018252600780825282518084018452601081526f23b7b63232b7102430b93b32b9ba32b960811b818701528286019081529282018490526646f0ca4ae0000060608301526080820184905260a0820184905260c0820184905260e0820184905261010082018490526001610120830152610ea66101408301819052610160830152909252600290925280517facd8ef244210bb6898e73c48bf820ed8ecc857a3bab8d79c10e4fa92b1e9ca6590815591519091907facd8ef244210bb6898e73c48bf820ed8ecc857a3bab8d79c10e4fa92b1e9ca6690620015cf908262001c3a565b5060408281015160028301805460ff191660ff9092169190911790556060830151600383015560808301516004830180546001600160a01b0319166001600160a01b0390921691909117905560a0830151600583015560c0830151600683015560e08301516007830180546101008601516101208088015161ffff95861663ffffffff19909416939093176201000095909216949094021760ff60201b191664010000000091151591909102179055610140840151600884015561016090930151600990920191909155805191820181526010825280518082018252601981527f476f6c64656e20486172766573746572202842756e646c652900000000000000602082810191909152808401919091528151600180825281840184529284019290918281019080368337505050815260408051600180825281830190925260209283019290919080830190803683375050508152667efc11b234f000602080830191909152600060408301819052600160608401526107536080840181905260a09093019290925260109091526003815281517f47d4745e02b343689a5e7ac121d2a352b7a15c10328a8759fd7d4cf0999002bb908155908201517f47d4745e02b343689a5e7ac121d2a352b7a15c10328a8759fd7d4cf0999002bc90620017b9908262001c3a565b5060408201518051620017d791600284019160209091019062001b3e565b5060608201518051620017f591600384019160209091019062001b3e565b506080820151600482015560a082015160058201805460c08501511515600160a01b026001600160a81b03199091166001600160a01b039093169290921791909117905560e08201516006820155610100909101516007918201556010600090815260036020527f47d4745e02b343689a5e7ac121d2a352b7a15c10328a8759fd7d4cf0999002bd805490919062001891576200189162001d06565b60009182526020808320909101929092556010815260039091527f47d4745e02b343689a5e7ac121d2a352b7a15c10328a8759fd7d4cf0999002be805460029290620018e157620018e162001d06565b60009182526020808320909101929092556040805161018081018252600880825282518084018452600e81526d22b732b933bc902137b7b9ba32b960911b818701528286019081526002938301849052606083018590526080830185905260a0830185905260c0830185905260e0830185905261010083018590526001610120840152611f4061014084018190526101608401529352925281517f3a5ea591190eeb3f8fcdced843c78df04ec0dfd42f5510375207515664fa0a7590815590517f3a5ea591190eeb3f8fcdced843c78df04ec0dfd42f5510375207515664fa0a7690620019cf908262001c3a565b50604082015160028201805460ff90921660ff199092169190911790556060820151600382015560808201516004820180546001600160a01b039092166001600160a01b031990921691909117905560a0820151600582015560c0820151600682015560e082015160078201805461010085015161012086015115156401000000000260ff60201b1961ffff928316620100000263ffffffff199094169290951691909117919091179290921691909117905561014082015160088201556101609091015160099091015562001d1c565b600080546001600160a01b038381166001600160a01b0319831681178455604051919092169283917f8be0079c531659141344cd1fd0a4f28419497f9722a3daafe3b4186f6b6457e09190a35050565b826007810192821562001b2c579160200282015b8281111562001b2c57825182906001600160401b031690559160200191906001019062001b04565b5062001b3a92915062001b7c565b5090565b82805482825590600052602060002090810192821562001b2c579160200282015b8281111562001b2c57825182559160200191906001019062001b5f565b5b8082111562001b3a576000815560010162001b7d565b634e487b7160e01b600052604160045260246000fd5b600181811c9082168062001bbe57607f821691505b60208210810362001bdf57634e487b7160e01b600052602260045260246000fd5b50919050565b601f82111562001c35576000816000526020600020601f850160051c8101602086101562001c105750805b601f850160051c820191505b8181101562001c315782815560010162001c1c565b5050505b505050565b81516001600160401b0381111562001c565762001c5662001b93565b62001c6e8162001c67845462001ba9565b8462001be5565b602080601f83116001811462001ca6576000841562001c8d5750858301515b600019600386901b1c1916600185901b17855562001c31565b600085815260208120601f198616915b8281101562001cd75788860151825594840194600190910190840162001cb6565b508582101562001cf65787850151600019600388901b60f8161c191681555b5050505050600190811b01905550565b634e487b7160e01b600052603260045260246000fd5b6136738062001d2c6000396000f3fe60806040526004361061037a5760003560e01c8063851044ec116101d1578063d13e335311610102578063e68b02cc116100a0578063f2fde38b1161006f578063f2fde38b14610b1e578063f3274a1f14610b3e578063f9e38f9c14610b53578063fee99c7214610b7357600080fd5b8063e68b02cc14610ab6578063e9da722f14610acb578063edc0c03814610aeb578063edf2fe7314610b0b57600080fd5b8063ddc63262116100dc578063ddc6326214610a3c578063e086e5ec14610a5c578063e1f7d38a14610a71578063e630d24114610aa157600080fd5b8063d13e3353146109c2578063d291d1f2146109d7578063d7a8ac0b14610a0457600080fd5b8063a8ad45131161016f578063bfb231d211610149578063bfb231d214610922578063c7f703461461095a578063ce882f361461097a578063cf19384b1461098f57600080fd5b8063a8ad4513146108d8578063b07e9a8b146108ed578063b203dc601461090257600080fd5b80638da5cb5b116101ab5780638da5cb5b146108465780639d633e7714610878578063a4d3f55714610898578063a5125421146108b857600080fd5b8063851044ec146107e45780638719c20a14610811578063894760691461082657600080fd5b80634bf8b2c6116102ab57806366c3b5fa1161024957806377f8c8371161022357806377f8c8371461076257806379e072421461079a57806383f8b7e2146107ba5780638456cb59146107cf57600080fd5b806366c3b5fa14610700578063715018a61461072057806375651e771461073557600080fd5b806354cb53991161028557806354cb5399146106745780635a48d79d146106945780635c975abb146106c157806360e3ab0b146106e057600080fd5b80634bf8b2c6146105a15780634c321a89146105b65780634f87e8641461065457600080fd5b80632a1bbd1f116103185780633f4ba83a116102f25780633f4ba83a1461050c578063451420cb14610521578063484bb244146105415780634a7dc8e01461058157600080fd5b80632a1bbd1f1461049757806335a23e7b146104b75780633603f8d1146104e457600080fd5b806314c84f3a1161035457806314c84f3a1461041357806314d3a9c0146104405780631f36c9071461045557806329e6d6811461046a57600080fd5b806307bd03ba146103865780630da0d7a5146103d157806313c066f8146103fe57600080fd5b3661038157005b600080fd5b34801561039257600080fd5b506103be6103a1366004612c22565b600460209081526000928352604080842090915290825290205481565b6040519081526020015b60405180910390f35b3480156103dd57600080fd5b506103be6103ec366004612c4c565b600c6020526000908152604090205481565b61041161040c366004612c6e565b610ba0565b005b34801561041f57600080fd5b506103be61042e366004612c4c565b60086020526000908152604090205481565b34801561044c57600080fd5b506103be600681565b34801561046157600080fd5b506103be600881565b34801561047657600080fd5b506103be610485366004612c4c565b60076020526000908152604090205481565b3480156104a357600080fd5b506104116104b2366004612ca3565b610efe565b3480156104c357600080fd5b506103be6104d2366004612c4c565b600a6020526000908152604090205481565b3480156104f057600080fd5b506104f9600081565b60405161ffff90911681526020016103c8565b34801561051857600080fd5b50610411611043565b34801561052d57600080fd5b5061041161053c366004612e06565b611055565b34801561054d57600080fd5b5061057161055c366004612c4c565b600e6020526000908152604090205460ff1681565b60405190151581526020016103c8565b34801561058d57600080fd5b5061041161059c366004612c4c565b6111ad565b3480156105ad57600080fd5b506104f9604681565b3480156105c257600080fd5b5061061e6105d1366004612c22565b600560209081526000928352604080842090915290825290208054600182015460028301546003909301549192909161ffff8082169162010000810490911690600160201b900460ff1686565b6040805196875260208701959095529385019290925261ffff9081166060850152166080830152151560a082015260c0016103c8565b34801561066057600080fd5b5061041161066f366004612ca3565b611210565b34801561068057600080fd5b5061041161068f366004612f91565b6115e2565b3480156106a057600080fd5b506103be6106af366004612c4c565b600b6020526000908152604090205481565b3480156106cd57600080fd5b50600054600160a01b900460ff16610571565b3480156106ec57600080fd5b506104116106fb366004612e06565b611704565b34801561070c57600080fd5b5061041161071b366004613094565b61170c565b34801561072c57600080fd5b50610411611732565b34801561074157600080fd5b506107556107503660046130ad565b611744565b6040516103c89190613133565b34801561076e57600080fd5b506103be61077d366004612c22565b601760209081526000928352604080842090915290825290205481565b3480156107a657600080fd5b506104116107b5366004613094565b611896565b3480156107c657600080fd5b506104116119fe565b3480156107db57600080fd5b50610411611b55565b3480156107f057600080fd5b506108046107ff3660046130ad565b611b65565b6040516103c891906131f5565b34801561081d57600080fd5b506103be600b81565b34801561083257600080fd5b50610411610841366004612c4c565b611c1f565b34801561085257600080fd5b506000546001600160a01b03165b6040516001600160a01b0390911681526020016103c8565b34801561088457600080fd5b50601654610860906001600160a01b031681565b3480156108a457600080fd5b506104116108b3366004612c4c565b611d42565b3480156108c457600080fd5b506104116108d3366004612c4c565b611d6c565b3480156108e457600080fd5b506103be600581565b3480156108f957600080fd5b506103be600a81565b34801561090e57600080fd5b506103be61091d366004613094565b611dc5565b34801561092e57600080fd5b5061094261093d366004613094565b611ddc565b6040516103c89c9b9a9998979695949392919061324e565b34801561096657600080fd5b50610411610975366004612ca3565b611edd565b34801561098657600080fd5b50610411611f54565b34801561099b57600080fd5b506109af6109aa366004613094565b6120ca565b6040516103c897969594939291906132cb565b3480156109ce57600080fd5b506103be600c81565b3480156109e357600080fd5b506103be6109f2366004612c4c565b60066020526000908152604090205481565b348015610a1057600080fd5b506103be610a1f366004612c22565b601860209081526000928352604080842090915290825290205481565b348015610a4857600080fd5b50610411610a57366004613094565b61219e565b348015610a6857600080fd5b5061041161243e565b348015610a7d57600080fd5b50610571610a8c366004612c4c565b600d6020526000908152604090205460ff1681565b348015610aad57600080fd5b506103be600981565b348015610ac257600080fd5b506103be600781565b348015610ad757600080fd5b50610411610ae6366004613094565b6124d0565b348015610af757600080fd5b50610411610b06366004612f91565b6125b0565b610411610b19366004612c6e565b6125b8565b348015610b2a57600080fd5b50610411610b39366004612c4c565b6129b0565b348015610b4a57600080fd5b506103be600481565b348015610b5f57600080fd5b50610411610b6e366004613094565b6129eb565b348015610b7f57600080fd5b506103be610b8e366004612c4c565b60096020526000908152604090205481565b610ba8612a12565b610bb0612a3d565b60008381526002602052604090206007810154600160201b900460ff16610c0e5760405162461bcd60e51b815260206004820152600d60248201526c4974656d20696e61637469766560981b60448201526064015b60405180910390fd5b8281600901541015610c585760405162461bcd60e51b8152602060048201526013602482015272496e73756666696369656e7420737570706c7960681b6044820152606401610c05565b60008311610c9d5760405162461bcd60e51b81526020600482015260126024820152710416d6f756e74206d757374206265203e20360741b6044820152606401610c05565b60006001600160a01b03831615610cb5576000610cc5565b838260030154610cc5919061332d565b90506001600160a01b038316610d1d5780341015610d185760405162461bcd60e51b815260206004820152601060248201526f092dce6eaccccd2c6d2cadce8408aa8960831b6044820152606401610c05565b610d96565b6040516323b872dd60e01b8152336004820152306024820152604481018290526001600160a01b038416906323b872dd906064016020604051808303816000875af1158015610d70573d6000803e3d6000fd5b505050506040513d601f19601f82011682018060405250810190610d94919061334a565b505b83826009016000828254610daa9190613367565b909155505033600090815260046020908152604080832088845290915281208054869290610dd990849061337a565b9091555050600282015460ff16600003610e1d5733600090815260176020908152604080832088845290915281208054869290610e1790849061337a565b90915550505b6040805160018082528183019092526000916020808301908036833750506040805160018082528183019092529293506000929150602080830190803683370190505090508682600081518110610e7657610e7661338d565b6020026020010181815250508581600081518110610e9657610e9661338d565b602002602001018181525050336001600160a01b03167f0faa30265942b056f8379458c99d8bce44d758b6c4e762355961a2ec3de64d41600084848988604051610ee49594939291906133a3565b60405180910390a250505050610ef960018055565b505050565b610f06612a12565b610f0e612a3d565b336000908152600460209081526040808320858452909152902054610f5f5760405162461bcd60e51b8152602060048201526007602482015266139bc81d1bdbdb60ca1b6044820152606401610c05565b60008281526002602052604090206007810154600160201b900460ff168015610f8f5750600281015460ff166001145b610fca5760405162461bcd60e51b815260206004820152600c60248201526b125b9d985b1a59081d1bdbdb60a21b6044820152606401610c05565b3360009081526004602090815260408083208684529091528120805460019290610ff5908490613367565b9091555050604080518481526020810184905233917fd29993d7389aafeb1ae0eebfcc0e2b777c314426c46ed802d5116187380125d5910160405180910390a25061103f60018055565b5050565b61104b612a67565b611053612a94565b565b61105d612a67565b805160009081526002602052604081205490036110b25760405162461bcd60e51b8152602060048201526013602482015272125d195b48191bd95cc81b9bdd08195e1a5cdd606a1b6044820152606401610c05565b80516000908152600260209081526040909120825181559082015182919060018201906110df9082613476565b50604082015160028201805460ff90921660ff199092169190911790556060820151600382015560808201516004820180546001600160a01b039092166001600160a01b031990921691909117905560a0820151600582015560c0820151600682015560e08201516007820180546101008501516101208601511515600160201b0264ff000000001961ffff928316620100000263ffffffff199094169290951691909117919091179290921691909117905561014082015160088201556101609091015160099091015550565b6111b5612a67565b6001600160a01b0381166000818152600e6020908152604091829020805460ff1916600117905590519182527fa317c10673baf4f03b3c1041bd5ddbb537d0333a86fec3607c75f9dbb630f48f91015b60405180910390a150565b611218612a12565b611220612a3d565b3360009081526004602090815260408083208484529091529020546112725760405162461bcd60e51b81526020600482015260086024820152674e6f20736565647360c01b6044820152606401610c05565b60008181526002602052604090206007810154600160201b900460ff1680156112a05750600281015460ff16155b6112db5760405162461bcd60e51b815260206004820152600c60248201526b125b9d985b1a59081cd9595960a21b6044820152606401610c05565b6007810154604661ffff90911611156113325760405162461bcd60e51b815260206004820152601960248201527847726f77746820626f6e7573206f7574206f662072616e676560381b6044820152606401610c05565b600781015460466201000090910461ffff16111561138d5760405162461bcd60e51b81526020600482015260186024820152775969656c6420626f6e7573206f7574206f662072616e676560401b6044820152606401610c05565b33600090815260046020908152604080832085845290915281208054600192906113b8908490613367565b909155505033600090815260186020908152604080832085845290915290205415611413573360009081526018602090815260408083208584529091528120805460019290611408908490613367565b9091555061149b9050565b3360009081526017602090815260408083208584529091529020541561145e573360009081526017602090815260408083208584529091528120805460019290611408908490613367565b60405162461bcd60e51b81526020600482015260126024820152714e6f20736565647320617661696c61626c6560701b6044820152606401610c05565b60078101546000906103e8906114b59061ffff1682613536565b61ffff1683600601546114c8919061332d565b6114d2919061356e565b90506040518060c0016040528084815260200142815260200182426114f7919061337a565b8152600784015461ffff8082166020808501919091526201000092839004821660408086019190915260016060958601819052336000818152600585528381208d825285528390208851815588850151928101929092558783015160028301559587015160039091018054608089015160a09099015192861663ffffffff1990911617979094169094029590951764ff000000001916600160201b93151593909302929092179055825187815290810186905290917fbff838f2fb339f78375289b45e530f7c7785d3d2a337193ebc7901faea10ef3a910160405180910390a2505061103f60018055565b6115ea612a67565b805160009081526003602052604081205490036116415760405162461bcd60e51b8152602060048201526015602482015274109d5b991b1948191bd95cc81b9bdd08195e1a5cdd605a1b6044820152606401610c05565b805160009081526003602090815260409091208251815590820151829190600182019061166e9082613476565b506040820151805161168a916002840191602090910190612ba6565b50606082015180516116a6916003840191602090910190612ba6565b506080820151600482015560a082015160058201805460c08501511515600160a01b026001600160a81b03199091166001600160a01b039093169290921791909117905560e082015160068201556101009091015160079091015550565b6110b2612a67565b611714612a67565b6000908152600360205260409020600501805460ff60a01b19169055565b61173a612a67565b6110536000612ae9565b606060008267ffffffffffffffff81111561176157611761612cc5565b6040519080825280602002602001820160405280156117c157816020015b6040805160c08101825260008082526020808301829052928201819052606082018190526080820181905260a0820152825260001990920191018161177f5790505b50905060005b8381101561188d576001600160a01b0386166000908152600560205260408120908686848181106117fa576117fa61338d565b60209081029290920135835250818101929092526040908101600020815160c081018352815481526001820154938101939093526002810154918301919091526003015461ffff8082166060840152620100008204166080830152600160201b900460ff16151560a0820152825183908390811061187a5761187a61338d565b60209081029190910101526001016117c7565b50949350505050565b61189e612a12565b6118a6612a3d565b3360009081526004602090815260408083208484529091529020546118fa5760405162461bcd60e51b815260206004820152600a6024820152694e6f207570677261646560b01b6044820152606401610c05565b60008181526002602052604090206007810154600160201b900460ff168015611929575060028082015460ff16145b6119675760405162461bcd60e51b815260206004820152600f60248201526e496e76616c6964207570677261646560881b6044820152606401610c05565b3360009081526004602090815260408083208584529091528120805460019290611992908490613367565b9091555050336000908152600a602052604081208054600192906119b790849061337a565b909155505060405182815233907f64df0f68d7580b0900ece6245824a2cc4c50b47a830e4b867313abc3f3b516c89060200160405180910390a2506119fb60018055565b50565b611a06612a12565b611a0e612a3d565b33600090815260066020526040812054611a2a90600790613582565b33600090815260076020526040902054909150611a4a906201518061337a565b4211611a905760405162461bcd60e51b8152602060048201526015602482015274416c726561647920636c61696d656420746f64617960581b6044820152606401610c05565b6000600f8260078110611aa557611aa561338d565b0154336000908152600c6020526040812080549293508392909190611acb90849061337a565b9091555050336000908152600660205260408120805460019290611af090849061337a565b90915550503360008181526007602052604090204290557f564485e821cf8ba18a499f35679b99b9fba6f9886a625dd2a70b79da8cb5ba06611b3384600161337a565b60408051918252602082018590520160405180910390a2505061105360018055565b611b5d612a67565b611053612b39565b606060008267ffffffffffffffff811115611b8257611b82612cc5565b604051908082528060200260200182016040528015611bab578160200160208202803683370190505b50905060005b8381101561188d576001600160a01b038616600090815260046020526040812090868684818110611be457611be461338d565b90506020020135815260200190815260200160002054828281518110611c0c57611c0c61338d565b6020908102919091010152600101611bb1565b611c27612a67565b6040516370a0823160e01b81523060048201526000906001600160a01b038316906370a0823190602401602060405180830381865afa158015611c6e573d6000803e3d6000fd5b505050506040513d601f19601f82011682018060405250810190611c929190613596565b905060008111611cd15760405162461bcd60e51b815260206004820152600a6024820152694e6f2062616c616e636560b01b6044820152606401610c05565b60405163a9059cbb60e01b8152336004820152602481018290526001600160a01b0383169063a9059cbb906044016020604051808303816000875af1158015611d1e573d6000803e3d6000fd5b505050506040513d601f19601f82011682018060405250810190610ef9919061334a565b611d4a612a67565b601680546001600160a01b0319166001600160a01b0392909216919091179055565b611d74612a67565b6001600160a01b0381166000818152600e6020908152604091829020805460ff1916905590519182527f85a3e72f8dd6db3794f93109c3c5f5b79d6112f6979431c45f98b26134b42af29101611205565b600f8160078110611dd557600080fd5b0154905081565b60026020526000908152604090208054600182018054919291611dfe906133ec565b80601f0160208091040260200160405190810160405280929190818152602001828054611e2a906133ec565b8015611e775780601f10611e4c57610100808354040283529160200191611e77565b820191906000526020600020905b815481529060010190602001808311611e5a57829003601f168201915b505050506002830154600384015460048501546005860154600687015460078801546008890154600990990154979860ff968716989597506001600160a01b03909416959294919361ffff8083169462010000840490911693600160201b90930416918c565b611ee5612a67565b6000828152600260205260408120549003611f385760405162461bcd60e51b8152602060048201526013602482015272125d195b48191bd95cc81b9bdd08195e1a5cdd606a1b6044820152606401610c05565b6000918252600260205260409091206008810182905560090155565b611f5c612a3d565b336000908152600c60205260409020546801158e460913d00000811015611fc55760405162461bcd60e51b815260206004820152601b60248201527f4d75737420636c61696d206174206c65617374203230205249534500000000006044820152606401610c05565b336000818152600c602052604080822091909155601654905163a9059cbb60e01b81526004810192909252602482018390526001600160a01b03169063a9059cbb906044016020604051808303816000875af1158015612029573d6000803e3d6000fd5b505050506040513d601f19601f8201168201806040525081019061204d919061334a565b61208b5760405162461bcd60e51b815260206004820152600f60248201526e151c985b9cd9995c8819985a5b1959608a1b6044820152606401610c05565b60405181815233907f2988752f8fcb52b8c982219deefd82a981754ed258f421467a7133874ba9f2909060200160405180910390a25061105360018055565b600360205260009081526040902080546001820180549192916120ec906133ec565b80601f0160208091040260200160405190810160405280929190818152602001828054612118906133ec565b80156121655780601f1061213a57610100808354040283529160200191612165565b820191906000526020600020905b81548152906001019060200180831161214857829003601f168201915b50505050600483015460058401546006850154600790950154939491936001600160a01b0382169350600160a01b90910460ff16919087565b6121a6612a12565b6121ae612a3d565b33600090815260056020908152604080832084845290915290206003810154600160201b900460ff166122155760405162461bcd60e51b815260206004820152600f60248201526e4e6f7468696e672067726f77696e6760881b6044820152606401610c05565b80600201544210156122555760405162461bcd60e51b81526020600482015260096024820152684e6f7420726561647960b81b6044820152606401610c05565b805460009081526002602081905260409091209081015460ff16156122a95760405162461bcd60e51b815260206004820152600a602482015269139bdd0818481cd9595960b21b6044820152606401610c05565b6003820154604661ffff90911611156123005760405162461bcd60e51b815260206004820152601960248201527847726f77746820626f6e7573206f7574206f662072616e676560381b6044820152606401610c05565b600382015460466201000090910461ffff16111561235b5760405162461bcd60e51b81526020600482015260186024820152775969656c6420626f6e7573206f7574206f662072616e676560401b6044820152606401610c05565b60038201546000906103e89061237b9062010000900461ffff16826135af565b61ffff16836005015461238e919061332d565b612398919061356e565b336000908152600c60205260408120805492935083929091906123bc90849061337a565b909155505060038301805464ff0000000019169055604080518581526020810183905233917f81ca9b2c230070eaa84787556b1aaf18bf1e2f07ea5d3dae4819db77a1a5b224910160405180910390a2336000908152600b6020526040812080546001929061242c90849061337a565b909155505060018055506119fb915050565b612446612a67565b604051600090339047908381818185875af1925050503d8060008114612488576040519150601f19603f3d011682016040523d82523d6000602084013e61248d565b606091505b50509050806119fb5760405162461bcd60e51b815260206004820152600f60248201526e15da5d1a191c985dc819985a5b1959608a1b6044820152606401610c05565b6124d8612a12565b6124e0612a3d565b3360009081526004602090815260408083206005845290915290205461253a5760405162461bcd60e51b815260206004820152600f60248201526e2737903bb0ba32b934b7339031b0b760891b6044820152606401610c05565b336000908152600460209081526040808320600584529091528120805460019290612566908490613367565b909155505060408051600581526020810183905233917fd29993d7389aafeb1ae0eebfcc0e2b777c314426c46ed802d5116187380125d5910160405180910390a26119fb60018055565b611641612a67565b6125c0612a12565b6125c8612a3d565b60008381526003602052604090206005810154600160a01b900460ff166126235760405162461bcd60e51b815260206004820152600f60248201526e42756e646c6520696e61637469766560881b6044820152606401610c05565b82816007015410156126775760405162461bcd60e51b815260206004820152601a60248201527f496e73756666696369656e742062756e646c6520737570706c790000000000006044820152606401610c05565b60006001600160a01b0383161561268f57600061269f565b83826004015461269f919061332d565b90506001600160a01b0383166126f757803410156126f25760405162461bcd60e51b815260206004820152601060248201526f092dce6eaccccd2c6d2cadce8408aa8960831b6044820152606401610c05565b612770565b6040516323b872dd60e01b8152336004820152306024820152604481018290526001600160a01b038416906323b872dd906064016020604051808303816000875af115801561274a573d6000803e3d6000fd5b505050506040513d601f19601f8201168201806040525081019061276e919061334a565b505b60005b60028301548110156128a55760008360020182815481106127965761279661338d565b906000526020600020015490506000868560030184815481106127bb576127bb61338d565b90600052602060002001546127d0919061332d565b60008381526002602052604090206009015490915081111561282a5760405162461bcd60e51b8152602060048201526013602482015272496e73756666696369656e7420737570706c7960681b6044820152606401610c05565b6000828152600260205260408120600901805483929061284b908490613367565b909155505060008281526002602081905260408220015460ff16900361289b573360009081526018602090815260408083208584529091528120805483929061289590849061337a565b90915550505b5050600101612773565b50838260070160008282546128ba9190613367565b90915550600090505b600283015481101561295757848360030182815481106128e5576128e561338d565b90600052602060002001546128fa919061332d565b336000908152600460205260408120600286018054919291859081106129225761292261338d565b90600052602060002001548152602001908152602001600020600082825461294a919061337a565b90915550506001016128c3565b50336001600160a01b03167f854931d3a8461ab9d0412c3e03f884c9911fbec9854941d26b4c14d88c6b05508684600201856003018560405161299d9493929190613600565b60405180910390a25050610ef960018055565b6129b8612a67565b6001600160a01b0381166129e257604051631e4fbdf760e01b815260006004820152602401610c05565b6119fb81612ae9565b6129f3612a67565b6000908152600260205260409020600701805464ff0000000019169055565b600054600160a01b900460ff16156110535760405163d93c066560e01b815260040160405180910390fd5b600260015403612a6057604051633ee5aeb560e01b815260040160405180910390fd5b6002600155565b6000546001600160a01b031633146110535760405163118cdaa760e01b8152336004820152602401610c05565b612a9c612b7c565b6000805460ff60a01b191690557f5db9ee0a495bf2e6ff9c91a7834c1ba4fdd244a5e8aa4e537bd38aeae4b073aa335b6040516001600160a01b03909116815260200160405180910390a1565b600080546001600160a01b038381166001600160a01b0319831681178455604051919092169283917f8be0079c531659141344cd1fd0a4f28419497f9722a3daafe3b4186f6b6457e09190a35050565b612b41612a12565b6000805460ff60a01b1916600160a01b1790557f62e78cea01bee320cd4e420270b5ea74000d11b0c9f74754ebdbfc544b05a258612acc3390565b600054600160a01b900460ff1661105357604051638dfc202b60e01b815260040160405180910390fd5b828054828255906000526020600020908101928215612be1579160200282015b82811115612be1578251825591602001919060010190612bc6565b50612bed929150612bf1565b5090565b5b80821115612bed5760008155600101612bf2565b80356001600160a01b0381168114612c1d57600080fd5b919050565b60008060408385031215612c3557600080fd5b612c3e83612c06565b946020939093013593505050565b600060208284031215612c5e57600080fd5b612c6782612c06565b9392505050565b600080600060608486031215612c8357600080fd5b8335925060208401359150612c9a60408501612c06565b90509250925092565b60008060408385031215612cb657600080fd5b50508035926020909101359150565b634e487b7160e01b600052604160045260246000fd5b604051610180810167ffffffffffffffff81118282101715612cff57612cff612cc5565b60405290565b604051610120810167ffffffffffffffff81118282101715612cff57612cff612cc5565b604051601f8201601f1916810167ffffffffffffffff81118282101715612d5257612d52612cc5565b604052919050565b600082601f830112612d6b57600080fd5b813567ffffffffffffffff811115612d8557612d85612cc5565b612d98601f8201601f1916602001612d29565b818152846020838601011115612dad57600080fd5b816020850160208301376000918101602001919091529392505050565b803560ff81168114612c1d57600080fd5b803561ffff81168114612c1d57600080fd5b80151581146119fb57600080fd5b8035612c1d81612ded565b600060208284031215612e1857600080fd5b813567ffffffffffffffff80821115612e3057600080fd5b908301906101808286031215612e4557600080fd5b612e4d612cdb565b82358152602083013582811115612e6357600080fd5b612e6f87828601612d5a565b602083015250612e8160408401612dca565b604082015260608301356060820152612e9c60808401612c06565b608082015260a083013560a082015260c083013560c0820152612ec160e08401612ddb565b60e08201526101009150612ed6828401612ddb565b828201526101209150612eea828401612dfb565b91810191909152610140828101359082015261016091820135918101919091529392505050565b600082601f830112612f2257600080fd5b8135602067ffffffffffffffff821115612f3e57612f3e612cc5565b8160051b612f4d828201612d29565b9283528481018201928281019087851115612f6757600080fd5b83870192505b84831015612f8657823582529183019190830190612f6d565b979650505050505050565b600060208284031215612fa357600080fd5b813567ffffffffffffffff80821115612fbb57600080fd5b908301906101208286031215612fd057600080fd5b612fd8612d05565b82358152602083013582811115612fee57600080fd5b612ffa87828601612d5a565b60208301525060408301358281111561301257600080fd5b61301e87828601612f11565b60408301525060608301358281111561303657600080fd5b61304287828601612f11565b6060830152506080830135608082015261305e60a08401612c06565b60a082015261306f60c08401612dfb565b60c082015260e083810135908201526101009283013592810192909252509392505050565b6000602082840312156130a657600080fd5b5035919050565b6000806000604084860312156130c257600080fd5b6130cb84612c06565b9250602084013567ffffffffffffffff808211156130e857600080fd5b818601915086601f8301126130fc57600080fd5b81358181111561310b57600080fd5b8760208260051b850101111561312057600080fd5b6020830194508093505050509250925092565b602080825282518282018190526000919060409081850190868401855b828110156131ac578151805185528681015187860152858101518686015260608082015161ffff908116918701919091526080808301519091169086015260a09081015115159085015260c09093019290850190600101613150565b5091979650505050505050565b60008151808452602080850194506020840160005b838110156131ea578151875295820195908201906001016131ce565b509495945050505050565b602081526000612c6760208301846131b9565b6000815180845260005b8181101561322e57602081850181015186830182015201613212565b506000602082860101526020601f19601f83011685010191505092915050565b60006101808e83528060208401526132688184018f613208565b60ff9d909d166040840152505060608101999099526001600160a01b0397909716608089015260a088019590955260c087019390935261ffff91821660e08701521661010085015215156101208401526101408301526101609091015292915050565b87815260e0602082015260006132e460e0830189613208565b6040830197909752506001600160a01b03949094166060850152911515608084015260a083015260c09091015292915050565b634e487b7160e01b600052601160045260246000fd5b808202811582820484141761334457613344613317565b92915050565b60006020828403121561335c57600080fd5b8151612c6781612ded565b8181038181111561334457613344613317565b8082018082111561334457613344613317565b634e487b7160e01b600052603260045260246000fd5b85815260a0602082015260006133bc60a08301876131b9565b82810360408401526133ce81876131b9565b6001600160a01b039590951660608401525050608001529392505050565b600181811c9082168061340057607f821691505b60208210810361342057634e487b7160e01b600052602260045260246000fd5b50919050565b601f821115610ef9576000816000526020600020601f850160051c8101602086101561344f5750805b601f850160051c820191505b8181101561346e5782815560010161345b565b505050505050565b815167ffffffffffffffff81111561349057613490612cc5565b6134a48161349e84546133ec565b84613426565b602080601f8311600181146134d957600084156134c15750858301515b600019600386901b1c1916600185901b17855561346e565b600085815260208120601f198616915b82811015613508578886015182559484019460019091019084016134e9565b50858210156135265787850151600019600388901b60f8161c191681555b5050505050600190811b01905550565b61ffff82811682821603908082111561355157613551613317565b5092915050565b634e487b7160e01b600052601260045260246000fd5b60008261357d5761357d613558565b500490565b60008261359157613591613558565b500690565b6000602082840312156135a857600080fd5b5051919050565b61ffff81811683821601908082111561355157613551613317565b600081548084526020808501945083600052602060002060005b838110156131ea578154875295820195600191820191016135e4565b84815260806020820152600061361960808301866135ca565b828103604084015261362b81866135ca565b9150508260608301529594505050505056fea2646970667358221220913420db1f5f0e476ff6da5300446e84b2b7f8d7ab98b681dc810a56d368e00264736f6c63430008180033","opcodes":"PUSH1 0x80 PUSH1 0x40 MSTORE CALLVALUE DUP1 ISZERO PUSH3 0x11 JUMPI PUSH1 0x0 DUP1 REVERT JUMPDEST POP CALLER DUP1 PUSH3 0x39 JUMPI PUSH1 0x40 MLOAD PUSH4 0x1E4FBDF7 PUSH1 0xE0 SHL DUP2 MSTORE PUSH1 0x0 PUSH1 0x4 DUP3 ADD MSTORE PUSH1 0x24 ADD PUSH1 0x40 MLOAD DUP1 SWAP2 SUB SWAP1 REVERT JUMPDEST PUSH3 0x44 DUP2 PUSH3 0x1AA0 JUMP JUMPDEST POP PUSH1 0x1 DUP1 DUP1 SSTORE PUSH1 0x0 DUP1 MSTORE PUSH1 0xE PUSH1 0x20 SWAP1 DUP2 MSTORE PUSH32 0xE710864318D4A32F37D6CE54CB3FADBEF648DD12D8DBDF53973564D56B7F881C DUP1 SLOAD PUSH1 0xFF NOT AND SWAP1 SWAP3 OR SWAP1 SWAP2 SSTORE PUSH1 0x40 DUP1 MLOAD PUSH1 0xE0 DUP2 ADD DUP3 MSTORE PUSH8 0xDE0B6B3A7640000 DUP2 MSTORE PUSH8 0x1BC16D674EC80000 SWAP3 DUP2 ADD SWAP3 SWAP1 SWAP3 MSTORE PUSH8 0x29A2241AF62C0000 SWAP1 DUP3 ADD MSTORE PUSH8 0x3782DACE9D900000 PUSH1 0x60 DUP3 ADD MSTORE PUSH8 0x4563918244F40000 PUSH1 0x80 DUP3 ADD MSTORE PUSH8 0x53444835EC580000 PUSH1 0xA0 DUP3 ADD MSTORE PUSH8 0x6124FEE993BC0000 PUSH1 0xC0 DUP3 ADD MSTORE PUSH3 0xFC SWAP1 PUSH1 0xF SWAP1 PUSH1 0x7 PUSH3 0x1AF0 JUMP JUMPDEST POP PUSH1 0x40 DUP1 MLOAD PUSH2 0x180 DUP2 ADD DUP3 MSTORE PUSH1 0x9 DUP1 DUP3 MSTORE DUP3 MLOAD DUP1 DUP5 ADD DUP5 MSTORE PUSH1 0x18 DUP2 MSTORE PUSH32 0x426173696320526963652053656564202853696E676C65290000000000000000 PUSH1 0x20 DUP3 DUP2 ADD SWAP2 SWAP1 SWAP2 MSTORE DUP1 DUP5 ADD SWAP2 DUP3 MSTORE PUSH1 0x0 SWAP5 DUP5 ADD DUP6 SWAP1 MSTORE PUSH7 0x2D6AFAF2CF000 PUSH1 0x60 DUP6 ADD MSTORE PUSH1 0x80 DUP5 ADD DUP6 SWAP1 MSTORE PUSH1 0x64 PUSH1 0xA0 DUP6 ADD MSTORE PUSH2 0x7080 PUSH1 0xC0 DUP6 ADD MSTORE PUSH1 0xF PUSH1 0xE0 DUP6 ADD DUP2 SWAP1 MSTORE PUSH2 0x100 DUP6 ADD MSTORE PUSH1 0x1 PUSH2 0x120 DUP6 ADD MSTORE PUSH2 0x2710 PUSH2 0x140 DUP6 ADD DUP2 SWAP1 MSTORE PUSH2 0x160 DUP6 ADD MSTORE SWAP2 SWAP1 SWAP4 MSTORE PUSH1 0x2 SWAP1 MSTORE DUP1 MLOAD PUSH32 0xF85CC6FFC513DC6CF7D199EF87B7A63CF9DEFE62251C1C247CD12F1EEC7BFF29 SWAP1 DUP2 SSTORE SWAP2 MLOAD SWAP1 SWAP2 SWAP1 PUSH32 0xF85CC6FFC513DC6CF7D199EF87B7A63CF9DEFE62251C1C247CD12F1EEC7BFF2A SWAP1 PUSH3 0x1FC SWAP1 DUP3 PUSH3 0x1C3A JUMP JUMPDEST POP PUSH1 0x40 DUP3 DUP2 ADD MLOAD PUSH1 0x2 DUP4 DUP2 ADD DUP1 SLOAD PUSH1 0xFF NOT AND PUSH1 0xFF SWAP1 SWAP4 AND SWAP3 SWAP1 SWAP3 OR SWAP1 SWAP2 SSTORE PUSH1 0x60 DUP1 DUP6 ADD MLOAD PUSH1 0x3 DUP6 ADD SSTORE PUSH1 0x80 DUP1 DUP7 ADD MLOAD PUSH1 0x4 DUP7 ADD DUP1 SLOAD PUSH1 0x1 PUSH1 0x1 PUSH1 0xA0 SHL SUB NOT AND PUSH1 0x1 PUSH1 0x1 PUSH1 0xA0 SHL SUB SWAP1 SWAP3 AND SWAP2 SWAP1 SWAP2 OR SWAP1 SSTORE PUSH1 0xA0 DUP1 DUP8 ADD MLOAD PUSH1 0x5 DUP8 ADD SSTORE PUSH1 0xC0 DUP1 DUP9 ADD MLOAD PUSH1 0x6 DUP9 ADD SSTORE PUSH1 0xE0 DUP1 DUP10 ADD MLOAD PUSH1 0x7 DUP10 ADD DUP1 SLOAD PUSH2 0x100 DUP1 DUP14 ADD MLOAD PUSH2 0x120 DUP1 DUP16 ADD MLOAD PUSH2 0xFFFF SWAP7 DUP8 AND PUSH4 0xFFFFFFFF NOT SWAP1 SWAP6 AND SWAP5 SWAP1 SWAP5 OR PUSH3 0x10000 SWAP7 SWAP1 SWAP3 AND SWAP6 SWAP1 SWAP6 MUL OR PUSH1 0xFF PUSH1 0x20 SHL NOT AND PUSH5 0x100000000 SWAP3 ISZERO ISZERO SWAP3 SWAP1 SWAP3 MUL SWAP2 SWAP1 SWAP2 OR SWAP1 SWAP2 SSTORE PUSH2 0x140 DUP1 DUP13 ADD MLOAD PUSH1 0x8 DUP13 ADD SSTORE PUSH2 0x160 SWAP12 DUP13 ADD MLOAD PUSH1 0x9 SWAP1 SWAP12 ADD SWAP11 SWAP1 SWAP11 SSTORE DUP9 MLOAD PUSH2 0x180 DUP2 ADD DUP11 MSTORE PUSH1 0xA DUP1 DUP3 MSTORE DUP11 MLOAD DUP1 DUP13 ADD DUP13 MSTORE PUSH1 0x1A DUP2 MSTORE PUSH32 0x5072656D69756D20526963652053656564202853696E676C6529000000000000 PUSH1 0x20 DUP3 DUP2 ADD SWAP2 SWAP1 SWAP2 MSTORE DUP1 DUP5 ADD SWAP2 DUP3 MSTORE PUSH1 0x0 SWAP13 DUP5 ADD DUP14 SWAP1 MSTORE PUSH7 0x198972AAA54000 SWAP11 DUP5 ADD SWAP11 SWAP1 SWAP11 MSTORE SWAP8 DUP3 ADD DUP12 SWAP1 MSTORE PUSH1 0xC8 SWAP7 DUP3 ADD SWAP7 SWAP1 SWAP7 MSTORE PUSH2 0x5460 SWAP5 DUP2 ADD SWAP5 SWAP1 SWAP5 MSTORE PUSH1 0x1E SWAP3 DUP5 ADD DUP4 SWAP1 MSTORE DUP4 ADD SWAP2 SWAP1 SWAP2 MSTORE PUSH1 0x1 SWAP1 DUP3 ADD MSTORE PUSH2 0xFA0 SWAP7 DUP2 ADD DUP8 SWAP1 MSTORE SWAP7 DUP8 ADD SWAP6 SWAP1 SWAP6 MSTORE SWAP4 SWAP1 SWAP3 MSTORE SWAP1 MSTORE DUP2 MLOAD PUSH32 0xD3604DB978F6137B0D18816B77B2CE810487A3AF08A922E0B184963BE5F3ADFC SWAP1 DUP2 SSTORE SWAP1 MLOAD PUSH32 0xD3604DB978F6137B0D18816B77B2CE810487A3AF08A922E0B184963BE5F3ADFD SWAP1 PUSH3 0x3CC SWAP1 DUP3 PUSH3 0x1C3A JUMP JUMPDEST POP PUSH1 0x40 DUP3 DUP2 ADD MLOAD PUSH1 0x2 DUP4 DUP2 ADD DUP1 SLOAD PUSH1 0xFF NOT AND PUSH1 0xFF SWAP1 SWAP4 AND SWAP3 SWAP1 SWAP3 OR SWAP1 SWAP2 SSTORE PUSH1 0x60 DUP1 DUP6 ADD MLOAD PUSH1 0x3 DUP6 ADD SSTORE PUSH1 0x80 DUP1 DUP7 ADD MLOAD PUSH1 0x4 DUP7 ADD DUP1 SLOAD PUSH1 0x1 PUSH1 0x1 PUSH1 0xA0 SHL SUB NOT AND PUSH1 0x1 PUSH1 0x1 PUSH1 0xA0 SHL SUB SWAP1 SWAP3 AND SWAP2 SWAP1 SWAP2 OR SWAP1 SSTORE PUSH1 0xA0 DUP1 DUP8 ADD MLOAD PUSH1 0x5 DUP8 ADD SSTORE PUSH1 0xC0 DUP1 DUP9 ADD MLOAD PUSH1 0x6 DUP9 ADD SSTORE PUSH1 0xE0 DUP1 DUP10 ADD MLOAD PUSH1 0x7 DUP10 ADD DUP1 SLOAD PUSH2 0x100 DUP1 DUP14 ADD MLOAD PUSH2 0x120 DUP1 DUP16 ADD MLOAD PUSH2 0xFFFF SWAP7 DUP8 AND PUSH4 0xFFFFFFFF NOT SWAP1 SWAP6 AND SWAP5 SWAP1 SWAP5 OR PUSH3 0x10000 SWAP7 SWAP1 SWAP3 AND SWAP6 SWAP1 SWAP6 MUL OR PUSH1 0xFF PUSH1 0x20 SHL NOT AND PUSH5 0x100000000 SWAP3 ISZERO ISZERO SWAP3 SWAP1 SWAP3 MUL SWAP2 SWAP1 SWAP2 OR SWAP1 SWAP2 SSTORE PUSH2 0x140 DUP1 DUP13 ADD MLOAD PUSH1 0x8 DUP13 ADD SSTORE PUSH2 0x160 SWAP12 DUP13 ADD MLOAD PUSH1 0x9 SWAP1 SWAP12 ADD SWAP11 SWAP1 SWAP11 SSTORE DUP9 MLOAD PUSH2 0x180 DUP2 ADD DUP11 MSTORE PUSH1 0xB DUP1 DUP3 MSTORE DUP11 MLOAD DUP1 DUP13 ADD DUP13 MSTORE PUSH1 0x19 DUP2 MSTORE PUSH32 0x48796272696420526963652053656564202853696E676C652900000000000000 PUSH1 0x20 DUP3 DUP2 ADD SWAP2 SWAP1 SWAP2 MSTORE DUP1 DUP5 ADD SWAP2 DUP3 MSTORE PUSH1 0x0 SWAP13 DUP5 ADD DUP14 SWAP1 MSTORE PUSH7 0x35EA7DD91C8000 SWAP11 DUP5 ADD SWAP11 SWAP1 SWAP11 MSTORE SWAP8 DUP3 ADD DUP12 SWAP1 MSTORE PUSH2 0x190 SWAP7 DUP3 ADD SWAP7 SWAP1 SWAP7 MSTORE PUSH2 0x3840 SWAP5 DUP2 ADD SWAP5 SWAP1 SWAP5 MSTORE PUSH1 0x46 SWAP3 DUP5 ADD DUP4 SWAP1 MSTORE DUP4 ADD SWAP2 SWAP1 SWAP2 MSTORE PUSH1 0x1 SWAP1 DUP3 ADD MSTORE PUSH2 0x3E8 SWAP7 DUP2 ADD DUP8 SWAP1 MSTORE SWAP7 DUP8 ADD SWAP6 SWAP1 SWAP6 MSTORE SWAP4 SWAP1 SWAP3 MSTORE SWAP1 MSTORE DUP2 MLOAD PUSH32 0xAB9952BAF6478D8CFB7253CE86A6C53A7B7549582C76210B1581AE682B7E556F SWAP1 DUP2 SSTORE SWAP1 MLOAD PUSH32 0xAB9952BAF6478D8CFB7253CE86A6C53A7B7549582C76210B1581AE682B7E5570 SWAP1 PUSH3 0x59D SWAP1 DUP3 PUSH3 0x1C3A JUMP JUMPDEST POP PUSH1 0x40 DUP3 DUP2 ADD MLOAD PUSH1 0x2 DUP4 DUP2 ADD DUP1 SLOAD PUSH1 0xFF NOT AND PUSH1 0xFF SWAP1 SWAP4 AND SWAP3 SWAP1 SWAP3 OR SWAP1 SWAP2 SSTORE PUSH1 0x60 DUP1 DUP6 ADD MLOAD PUSH1 0x3 DUP6 ADD SSTORE PUSH1 0x80 DUP1 DUP7 ADD MLOAD PUSH1 0x4 DUP7 ADD DUP1 SLOAD PUSH1 0x1 PUSH1 0x1 PUSH1 0xA0 SHL SUB NOT AND PUSH1 0x1 PUSH1 0x1 PUSH1 0xA0 SHL SUB SWAP1 SWAP3 AND SWAP2 SWAP1 SWAP2 OR SWAP1 SSTORE PUSH1 0xA0 DUP1 DUP8 ADD MLOAD PUSH1 0x5 DUP8 ADD SSTORE PUSH1 0xC0 DUP1 DUP9 ADD MLOAD PUSH1 0x6 DUP9 ADD SSTORE PUSH1 0xE0 DUP1 DUP10 ADD MLOAD PUSH1 0x7 DUP10 ADD DUP1 SLOAD PUSH2 0x100 DUP1 DUP14 ADD MLOAD PUSH2 0x120 DUP1 DUP16 ADD MLOAD PUSH2 0xFFFF SWAP7 DUP8 AND PUSH4 0xFFFFFFFF NOT SWAP1 SWAP6 AND SWAP5 SWAP1 SWAP5 OR PUSH3 0x10000 SWAP7 SWAP1 SWAP3 AND SWAP6 SWAP1 SWAP6 MUL OR PUSH1 0xFF PUSH1 0x20 SHL NOT AND PUSH5 0x100000000 SWAP3 ISZERO ISZERO SWAP3 SWAP1 SWAP3 MUL SWAP2 SWAP1 SWAP2 OR SWAP1 SWAP2 SSTORE PUSH2 0x140 DUP1 DUP13 ADD MLOAD PUSH1 0x8 DUP13 ADD SSTORE PUSH2 0x160 SWAP12 DUP13 ADD MLOAD PUSH1 0x9 SWAP1 SWAP12 ADD SWAP11 SWAP1 SWAP11 SSTORE DUP9 MLOAD PUSH2 0x180 DUP2 ADD DUP11 MSTORE PUSH1 0xC DUP1 DUP3 MSTORE DUP11 MLOAD DUP1 DUP13 ADD DUP13 MSTORE PUSH1 0x13 DUP2 MSTORE PUSH32 0x46657274696C697A657220537072656164657200000000000000000000000000 PUSH1 0x20 DUP3 DUP2 ADD SWAP2 SWAP1 SWAP2 MSTORE DUP1 DUP5 ADD SWAP2 DUP3 MSTORE PUSH1 0x1 SWAP13 DUP5 ADD DUP14 SWAP1 MSTORE PUSH1 0x0 SWAP11 DUP5 ADD DUP12 SWAP1 MSTORE SWAP9 DUP4 ADD DUP11 SWAP1 MSTORE SWAP7 DUP3 ADD DUP10 SWAP1 MSTORE SWAP5 DUP2 ADD DUP9 SWAP1 MSTORE PUSH1 0x19 SWAP4 DUP2 ADD SWAP4 SWAP1 SWAP4 MSTORE PUSH1 0xF SWAP1 DUP4 ADD MSTORE DUP2 ADD SWAP7 SWAP1 SWAP7 MSTORE PUSH2 0x2710 SWAP7 DUP7 ADD DUP8 SWAP1 MSTORE SWAP7 DUP6 ADD SWAP6 SWAP1 SWAP6 MSTORE SWAP5 SWAP1 MSTORE SWAP1 SWAP3 MSTORE DUP2 MLOAD PUSH32 0xBD814762A7E35D5C162A7570D14BAA68BD622CABB1AD83D40DD70F8A88AA67C0 SWAP1 DUP2 SSTORE SWAP1 MLOAD PUSH32 0xBD814762A7E35D5C162A7570D14BAA68BD622CABB1AD83D40DD70F8A88AA67C1 SWAP1 PUSH3 0x760 SWAP1 DUP3 PUSH3 0x1C3A JUMP JUMPDEST POP PUSH1 0x40 DUP3 ADD MLOAD DUP2 PUSH1 0x2 ADD PUSH1 0x0 PUSH2 0x100 EXP DUP2 SLOAD DUP2 PUSH1 0xFF MUL NOT AND SWAP1 DUP4 PUSH1 0xFF AND MUL OR SWAP1 SSTORE POP PUSH1 0x60 DUP3 ADD MLOAD DUP2 PUSH1 0x3 ADD SSTORE PUSH1 0x80 DUP3 ADD MLOAD DUP2 PUSH1 0x4 ADD PUSH1 0x0 PUSH2 0x100 EXP DUP2 SLOAD DUP2 PUSH1 0x1 PUSH1 0x1 PUSH1 0xA0 SHL SUB MUL NOT AND SWAP1 DUP4 PUSH1 0x1 PUSH1 0x1 PUSH1 0xA0 SHL SUB AND MUL OR SWAP1 SSTORE POP PUSH1 0xA0 DUP3 ADD MLOAD DUP2 PUSH1 0x5 ADD SSTORE PUSH1 0xC0 DUP3 ADD MLOAD DUP2 PUSH1 0x6 ADD SSTORE PUSH1 0xE0 DUP3 ADD MLOAD DUP2 PUSH1 0x7 ADD PUSH1 0x0 PUSH2 0x100 EXP DUP2 SLOAD DUP2 PUSH2 0xFFFF MUL NOT AND SWAP1 DUP4 PUSH2 0xFFFF AND MUL OR SWAP1 SSTORE POP PUSH2 0x100 DUP3 ADD MLOAD DUP2 PUSH1 0x7 ADD PUSH1 0x2 PUSH2 0x100 EXP DUP2 SLOAD DUP2 PUSH2 0xFFFF MUL NOT AND SWAP1 DUP4 PUSH2 0xFFFF AND MUL OR SWAP1 SSTORE POP PUSH2 0x120 DUP3 ADD MLOAD DUP2 PUSH1 0x7 ADD PUSH1 0x4 PUSH2 0x100 EXP DUP2 SLOAD DUP2 PUSH1 0xFF MUL NOT AND SWAP1 DUP4 ISZERO ISZERO MUL OR SWAP1 SSTORE POP PUSH2 0x140 DUP3 ADD MLOAD DUP2 PUSH1 0x8 ADD SSTORE PUSH2 0x160 DUP3 ADD MLOAD DUP2 PUSH1 0x9 ADD SSTORE SWAP1 POP POP PUSH1 0x40 MLOAD DUP1 PUSH2 0x180 ADD PUSH1 0x40 MSTORE DUP1 PUSH1 0x4 DUP2 MSTORE PUSH1 0x20 ADD PUSH1 0x40 MLOAD DUP1 PUSH1 0x40 ADD PUSH1 0x40 MSTORE DUP1 PUSH1 0xE DUP2 MSTORE PUSH1 0x20 ADD PUSH14 0x537461727465722042756E646C65 PUSH1 0x90 SHL DUP2 MSTORE POP DUP2 MSTORE PUSH1 0x20 ADD PUSH1 0x0 PUSH1 0xFF AND DUP2 MSTORE PUSH1 0x20 ADD PUSH1 0x0 DUP2 MSTORE PUSH1 0x20 ADD PUSH1 0x0 PUSH1 0x1 PUSH1 0x1 PUSH1 0xA0 SHL SUB AND DUP2 MSTORE PUSH1 0x20 ADD PUSH1 0x0 DUP2 MSTORE PUSH1 0x20 ADD PUSH1 0x0 DUP2 MSTORE PUSH1 0x20 ADD PUSH1 0x0 PUSH2 0xFFFF AND DUP2 MSTORE PUSH1 0x20 ADD PUSH1 0x0 PUSH2 0xFFFF AND DUP2 MSTORE PUSH1 0x20 ADD PUSH1 0x1 ISZERO ISZERO DUP2 MSTORE PUSH1 0x20 ADD PUSH2 0x3E8 DUP2 MSTORE PUSH1 0x20 ADD PUSH2 0x3E8 DUP2 MSTORE POP PUSH1 0x2 PUSH1 0x0 PUSH1 0x4 DUP2 MSTORE PUSH1 0x20 ADD SWAP1 DUP2 MSTORE PUSH1 0x20 ADD PUSH1 0x0 KECCAK256 PUSH1 0x0 DUP3 ADD MLOAD DUP2 PUSH1 0x0 ADD SSTORE PUSH1 0x20 DUP3 ADD MLOAD DUP2 PUSH1 0x1 ADD SWAP1 DUP2 PUSH3 0x91E SWAP2 SWAP1 PUSH3 0x1C3A JUMP JUMPDEST POP PUSH1 0x40 DUP3 ADD MLOAD DUP2 PUSH1 0x2 ADD PUSH1 0x0 PUSH2 0x100 EXP DUP2 SLOAD DUP2 PUSH1 0xFF MUL NOT AND SWAP1 DUP4 PUSH1 0xFF AND MUL OR SWAP1 SSTORE POP PUSH1 0x60 DUP3 ADD MLOAD DUP2 PUSH1 0x3 ADD SSTORE PUSH1 0x80 DUP3 ADD MLOAD DUP2 PUSH1 0x4 ADD PUSH1 0x0 PUSH2 0x100 EXP DUP2 SLOAD DUP2 PUSH1 0x1 PUSH1 0x1 PUSH1 0xA0 SHL SUB MUL NOT AND SWAP1 DUP4 PUSH1 0x1 PUSH1 0x1 PUSH1 0xA0 SHL SUB AND MUL OR SWAP1 SSTORE POP PUSH1 0xA0 DUP3 ADD MLOAD DUP2 PUSH1 0x5 ADD SSTORE PUSH1 0xC0 DUP3 ADD MLOAD DUP2 PUSH1 0x6 ADD SSTORE PUSH1 0xE0 DUP3 ADD MLOAD DUP2 PUSH1 0x7 ADD PUSH1 0x0 PUSH2 0x100 EXP DUP2 SLOAD DUP2 PUSH2 0xFFFF MUL NOT AND SWAP1 DUP4 PUSH2 0xFFFF AND MUL OR SWAP1 SSTORE POP PUSH2 0x100 DUP3 ADD MLOAD DUP2 PUSH1 0x7 ADD PUSH1 0x2 PUSH2 0x100 EXP DUP2 SLOAD DUP2 PUSH2 0xFFFF MUL NOT AND SWAP1 DUP4 PUSH2 0xFFFF AND MUL OR SWAP1 SSTORE POP PUSH2 0x120 DUP3 ADD MLOAD DUP2 PUSH1 0x7 ADD PUSH1 0x4 PUSH2 0x100 EXP DUP2 SLOAD DUP2 PUSH1 0xFF MUL NOT AND SWAP1 DUP4 ISZERO ISZERO MUL OR SWAP1 SSTORE POP PUSH2 0x140 DUP3 ADD MLOAD DUP2 PUSH1 0x8 ADD SSTORE PUSH2 0x160 DUP3 ADD MLOAD DUP2 PUSH1 0x9 ADD SSTORE SWAP1 POP POP PUSH1 0x40 MLOAD DUP1 PUSH2 0x180 ADD PUSH1 0x40 MSTORE DUP1 PUSH1 0x6 DUP2 MSTORE PUSH1 0x20 ADD PUSH1 0x40 MLOAD DUP1 PUSH1 0x40 ADD PUSH1 0x40 MSTORE DUP1 PUSH1 0x14 DUP2 MSTORE PUSH1 0x20 ADD PUSH32 0x4175746F2D5761746572696E672053797374656D000000000000000000000000 DUP2 MSTORE POP DUP2 MSTORE PUSH1 0x20 ADD PUSH1 0x1 PUSH1 0xFF AND DUP2 MSTORE PUSH1 0x20 ADD PUSH1 0x0 DUP2 MSTORE PUSH1 0x20 ADD PUSH1 0x0 PUSH1 0x1 PUSH1 0x1 PUSH1 0xA0 SHL SUB AND DUP2 MSTORE PUSH1 0x20 ADD PUSH1 0x0 DUP2 MSTORE PUSH1 0x20 ADD PUSH1 0x0 DUP2 MSTORE PUSH1 0x20 ADD PUSH1 0x0 PUSH2 0xFFFF AND DUP2 MSTORE PUSH1 0x20 ADD PUSH1 0x0 PUSH2 0xFFFF AND DUP2 MSTORE PUSH1 0x20 ADD PUSH1 0x1 ISZERO ISZERO DUP2 MSTORE PUSH1 0x20 ADD PUSH1 0x0 NOT DUP2 MSTORE PUSH1 0x20 ADD PUSH1 0x0 NOT DUP2 MSTORE POP PUSH1 0x2 PUSH1 0x0 PUSH1 0x6 DUP2 MSTORE PUSH1 0x20 ADD SWAP1 DUP2 MSTORE PUSH1 0x20 ADD PUSH1 0x0 KECCAK256 PUSH1 0x0 DUP3 ADD MLOAD DUP2 PUSH1 0x0 ADD SSTORE PUSH1 0x20 DUP3 ADD MLOAD DUP2 PUSH1 0x1 ADD SWAP1 DUP2 PUSH3 0xAEB SWAP2 SWAP1 PUSH3 0x1C3A JUMP JUMPDEST POP PUSH1 0x40 DUP3 ADD MLOAD DUP2 PUSH1 0x2 ADD PUSH1 0x0 PUSH2 0x100 EXP DUP2 SLOAD DUP2 PUSH1 0xFF MUL NOT AND SWAP1 DUP4 PUSH1 0xFF AND MUL OR SWAP1 SSTORE POP PUSH1 0x60 DUP3 ADD MLOAD DUP2 PUSH1 0x3 ADD SSTORE PUSH1 0x80 DUP3 ADD MLOAD DUP2 PUSH1 0x4 ADD PUSH1 0x0 PUSH2 0x100 EXP DUP2 SLOAD DUP2 PUSH1 0x1 PUSH1 0x1 PUSH1 0xA0 SHL SUB MUL NOT AND SWAP1 DUP4 PUSH1 0x1 PUSH1 0x1 PUSH1 0xA0 SHL SUB AND MUL OR SWAP1 SSTORE POP PUSH1 0xA0 DUP3 ADD MLOAD DUP2 PUSH1 0x5 ADD SSTORE PUSH1 0xC0 DUP3 ADD MLOAD DUP2 PUSH1 0x6 ADD SSTORE PUSH1 0xE0 DUP3 ADD MLOAD DUP2 PUSH1 0x7 ADD PUSH1 0x0 PUSH2 0x100 EXP DUP2 SLOAD DUP2 PUSH2 0xFFFF MUL NOT AND SWAP1 DUP4 PUSH2 0xFFFF AND MUL OR SWAP1 SSTORE POP PUSH2 0x100 DUP3 ADD MLOAD DUP2 PUSH1 0x7 ADD PUSH1 0x2 PUSH2 0x100 EXP DUP2 SLOAD DUP2 PUSH2 0xFFFF MUL NOT AND SWAP1 DUP4 PUSH2 0xFFFF AND MUL OR SWAP1 SSTORE POP PUSH2 0x120 DUP3 ADD MLOAD DUP2 PUSH1 0x7 ADD PUSH1 0x4 PUSH2 0x100 EXP DUP2 SLOAD DUP2 PUSH1 0xFF MUL NOT AND SWAP1 DUP4 ISZERO ISZERO MUL OR SWAP1 SSTORE POP PUSH2 0x140 DUP3 ADD MLOAD DUP2 PUSH1 0x8 ADD SSTORE PUSH2 0x160 DUP3 ADD MLOAD DUP2 PUSH1 0x9 ADD SSTORE SWAP1 POP POP PUSH1 0x40 MLOAD DUP1 PUSH2 0x180 ADD PUSH1 0x40 MSTORE DUP1 PUSH1 0x5 DUP2 MSTORE PUSH1 0x20 ADD PUSH1 0x40 MLOAD DUP1 PUSH1 0x40 ADD PUSH1 0x40 MSTORE DUP1 PUSH1 0xC DUP2 MSTORE PUSH1 0x20 ADD PUSH12 0x2BB0BA32B934B7339021B0B7 PUSH1 0xA1 SHL DUP2 MSTORE POP DUP2 MSTORE PUSH1 0x20 ADD PUSH1 0x1 PUSH1 0xFF AND DUP2 MSTORE PUSH1 0x20 ADD PUSH7 0x16911C3F9D000 DUP2 MSTORE PUSH1 0x20 ADD PUSH1 0x0 PUSH1 0x1 PUSH1 0x1 PUSH1 0xA0 SHL SUB AND DUP2 MSTORE PUSH1 0x20 ADD PUSH1 0x0 DUP2 MSTORE PUSH1 0x20 ADD PUSH1 0x0 DUP2 MSTORE PUSH1 0x20 ADD PUSH1 0x0 PUSH2 0xFFFF AND DUP2 MSTORE PUSH1 0x20 ADD PUSH1 0x0 PUSH2 0xFFFF AND DUP2 MSTORE PUSH1 0x20 ADD PUSH1 0x1 ISZERO ISZERO DUP2 MSTORE PUSH1 0x20 ADD PUSH2 0xC350 DUP2 MSTORE PUSH1 0x20 ADD PUSH2 0xC350 DUP2 MSTORE POP PUSH1 0x2 PUSH1 0x0 PUSH1 0x5 DUP2 MSTORE PUSH1 0x20 ADD SWAP1 DUP2 MSTORE PUSH1 0x20 ADD PUSH1 0x0 KECCAK256 PUSH1 0x0 DUP3 ADD MLOAD DUP2 PUSH1 0x0 ADD SSTORE PUSH1 0x20 DUP3 ADD MLOAD DUP2 PUSH1 0x1 ADD SWAP1 DUP2 PUSH3 0xCAD SWAP2 SWAP1 PUSH3 0x1C3A JUMP JUMPDEST POP PUSH1 0x40 DUP3 DUP2 ADD MLOAD PUSH1 0x2 DUP4 ADD DUP1 SLOAD PUSH1 0xFF NOT AND PUSH1 0xFF SWAP1 SWAP3 AND SWAP2 SWAP1 SWAP2 OR SWAP1 SSTORE PUSH1 0x60 DUP4 ADD MLOAD PUSH1 0x3 DUP4 ADD SSTORE PUSH1 0x80 DUP4 ADD MLOAD PUSH1 0x4 DUP4 ADD DUP1 SLOAD PUSH1 0x1 PUSH1 0x1 PUSH1 0xA0 SHL SUB NOT AND PUSH1 0x1 PUSH1 0x1 PUSH1 0xA0 SHL SUB SWAP1 SWAP3 AND SWAP2 SWAP1 SWAP2 OR SWAP1 SSTORE PUSH1 0xA0 DUP4 ADD MLOAD PUSH1 0x5 DUP4 ADD SSTORE PUSH1 0xC0 DUP4 ADD MLOAD PUSH1 0x6 DUP4 ADD SSTORE PUSH1 0xE0 DUP4 ADD MLOAD PUSH1 0x7 DUP4 ADD DUP1 SLOAD PUSH2 0x100 DUP7 ADD MLOAD PUSH2 0x120 DUP1 DUP9 ADD MLOAD PUSH2 0xFFFF SWAP6 DUP7 AND PUSH4 0xFFFFFFFF NOT SWAP1 SWAP5 AND SWAP4 SWAP1 SWAP4 OR PUSH3 0x10000 SWAP6 SWAP1 SWAP3 AND SWAP5 SWAP1 SWAP5 MUL OR PUSH1 0xFF PUSH1 0x20 SHL NOT AND PUSH5 0x100000000 SWAP2 ISZERO ISZERO SWAP2 SWAP1 SWAP2 MUL OR SWAP1 SSTORE PUSH2 0x140 DUP5 ADD MLOAD PUSH1 0x8 DUP5 ADD SSTORE PUSH2 0x160 SWAP1 SWAP4 ADD MLOAD PUSH1 0x9 SWAP1 SWAP3 ADD SWAP2 SWAP1 SWAP2 SSTORE DUP1 MLOAD SWAP2 DUP3 ADD DUP2 MSTORE PUSH1 0xD DUP3 MSTORE DUP1 MLOAD DUP1 DUP3 ADD DUP3 MSTORE PUSH1 0x18 DUP2 MSTORE PUSH32 0x426173696320526963652053656564202842756E646C65290000000000000000 PUSH1 0x20 DUP3 DUP2 ADD SWAP2 SWAP1 SWAP2 MSTORE DUP1 DUP5 ADD SWAP2 SWAP1 SWAP2 MSTORE DUP2 MLOAD PUSH1 0x1 DUP1 DUP3 MSTORE DUP2 DUP5 ADD DUP5 MSTORE SWAP3 DUP5 ADD SWAP3 SWAP1 SWAP2 DUP3 DUP2 ADD SWAP1 DUP1 CALLDATASIZE DUP4 CALLDATACOPY POP POP POP DUP2 MSTORE PUSH1 0x40 DUP1 MLOAD PUSH1 0x1 DUP1 DUP3 MSTORE DUP2 DUP4 ADD SWAP1 SWAP3 MSTORE PUSH1 0x20 SWAP3 DUP4 ADD SWAP3 SWAP1 SWAP2 SWAP1 DUP1 DUP4 ADD SWAP1 DUP1 CALLDATASIZE DUP4 CALLDATACOPY POP POP POP DUP2 MSTORE PUSH7 0xB488E1FCE8000 PUSH1 0x20 DUP1 DUP4 ADD SWAP2 SWAP1 SWAP2 MSTORE PUSH1 0x0 PUSH1 0x40 DUP4 ADD DUP2 SWAP1 MSTORE PUSH1 0x1 PUSH1 0x60 DUP5 ADD MSTORE PUSH2 0x3E8 PUSH1 0x80 DUP5 ADD DUP2 SWAP1 MSTORE PUSH1 0xA0 SWAP1 SWAP4 ADD SWAP3 SWAP1 SWAP3 MSTORE PUSH1 0xD SWAP1 SWAP2 MSTORE PUSH1 0x3 DUP2 MSTORE DUP2 MLOAD PUSH32 0xA8F2D96126C6D0AD63ADABAEF7BF5CF47F163FB0C218A473D28F62312D197BCF SWAP1 DUP2 SSTORE SWAP1 DUP3 ADD MLOAD PUSH32 0xA8F2D96126C6D0AD63ADABAEF7BF5CF47F163FB0C218A473D28F62312D197BD0 SWAP1 PUSH3 0xE97 SWAP1 DUP3 PUSH3 0x1C3A JUMP JUMPDEST POP PUSH1 0x40 DUP3 ADD MLOAD DUP1 MLOAD PUSH3 0xEB5 SWAP2 PUSH1 0x2 DUP5 ADD SWAP2 PUSH1 0x20 SWAP1 SWAP2 ADD SWAP1 PUSH3 0x1B3E JUMP JUMPDEST POP PUSH1 0x60 DUP3 ADD MLOAD DUP1 MLOAD PUSH3 0xED3 SWAP2 PUSH1 0x3 DUP5 ADD SWAP2 PUSH1 0x20 SWAP1 SWAP2 ADD SWAP1 PUSH3 0x1B3E JUMP JUMPDEST POP PUSH1 0x80 DUP3 ADD MLOAD PUSH1 0x4 DUP3 ADD SSTORE PUSH1 0xA0 DUP3 ADD MLOAD PUSH1 0x5 DUP3 ADD DUP1 SLOAD PUSH1 0xC0 DUP6 ADD MLOAD ISZERO ISZERO PUSH1 0x1 PUSH1 0xA0 SHL MUL PUSH1 0x1 PUSH1 0x1 PUSH1 0xA8 SHL SUB NOT SWAP1 SWAP2 AND PUSH1 0x1 PUSH1 0x1 PUSH1 0xA0 SHL SUB SWAP1 SWAP4 AND SWAP3 SWAP1 SWAP3 OR SWAP2 SWAP1 SWAP2 OR SWAP1 SSTORE PUSH1 0xE0 DUP3 ADD MLOAD PUSH1 0x6 DUP3 ADD SSTORE PUSH2 0x100 SWAP1 SWAP2 ADD MLOAD PUSH1 0x7 SWAP1 SWAP2 ADD SSTORE PUSH1 0xD PUSH1 0x0 SWAP1 DUP2 MSTORE PUSH1 0x3 PUSH1 0x20 MSTORE PUSH32 0xA8F2D96126C6D0AD63ADABAEF7BF5CF47F163FB0C218A473D28F62312D197BD1 DUP1 SLOAD PUSH1 0x9 SWAP3 SWAP1 PUSH3 0xF70 JUMPI PUSH3 0xF70 PUSH3 0x1D06 JUMP JUMPDEST PUSH1 0x0 SWAP2 DUP3 MSTORE PUSH1 0x20 DUP1 DUP4 KECCAK256 SWAP1 SWAP2 ADD SWAP3 SWAP1 SWAP3 SSTORE PUSH1 0xD DUP2 MSTORE PUSH1 0x3 SWAP1 SWAP2 MSTORE PUSH32 0xA8F2D96126C6D0AD63ADABAEF7BF5CF47F163FB0C218A473D28F62312D197BD2 DUP1 SLOAD PUSH1 0x5 SWAP3 SWAP1 PUSH3 0xFC0 JUMPI PUSH3 0xFC0 PUSH3 0x1D06 JUMP JUMPDEST SWAP1 PUSH1 0x0 MSTORE PUSH1 0x20 PUSH1 0x0 KECCAK256 ADD DUP2 SWAP1 SSTORE POP PUSH1 0x40 MLOAD DUP1 PUSH2 0x120 ADD PUSH1 0x40 MSTORE DUP1 PUSH1 0xE DUP2 MSTORE PUSH1 0x20 ADD PUSH1 0x40 MLOAD DUP1 PUSH1 0x40 ADD PUSH1 0x40 MSTORE DUP1 PUSH1 0x1A DUP2 MSTORE PUSH1 0x20 ADD PUSH32 0x5072656D69756D20526963652053656564202842756E646C6529000000000000 DUP2 MSTORE POP DUP2 MSTORE PUSH1 0x20 ADD PUSH1 0x1 PUSH1 0x1 PUSH1 0x1 PUSH1 0x40 SHL SUB DUP2 GT ISZERO PUSH3 0x1038 JUMPI PUSH3 0x1038 PUSH3 0x1B93 JUMP JUMPDEST PUSH1 0x40 MLOAD SWAP1 DUP1 DUP3 MSTORE DUP1 PUSH1 0x20 MUL PUSH1 0x20 ADD DUP3 ADD PUSH1 0x40 MSTORE DUP1 ISZERO PUSH3 0x1062 JUMPI DUP2 PUSH1 0x20 ADD PUSH1 0x20 DUP3 MUL DUP1 CALLDATASIZE DUP4 CALLDATACOPY ADD SWAP1 POP JUMPDEST POP DUP2 MSTORE PUSH1 0x40 DUP1 MLOAD PUSH1 0x1 DUP1 DUP3 MSTORE DUP2 DUP4 ADD SWAP1 SWAP3 MSTORE PUSH1 0x20 SWAP1 SWAP3 ADD SWAP2 SWAP1 DUP2 PUSH1 0x20 ADD PUSH1 0x20 DUP3 MUL DUP1 CALLDATASIZE DUP4 CALLDATACOPY POP POP POP DUP2 MSTORE PUSH7 0x2D4699B9048000 PUSH1 0x20 DUP1 DUP4 ADD SWAP2 SWAP1 SWAP2 MSTORE PUSH1 0x0 PUSH1 0x40 DUP4 ADD DUP2 SWAP1 MSTORE PUSH1 0x1 PUSH1 0x60 DUP5 ADD MSTORE PUSH2 0x3E8 PUSH1 0x80 DUP5 ADD DUP2 SWAP1 MSTORE PUSH1 0xA0 SWAP1 SWAP4 ADD SWAP3 SWAP1 SWAP3 MSTORE PUSH1 0xE SWAP1 SWAP2 MSTORE PUSH1 0x3 DUP2 MSTORE DUP2 MLOAD PUSH32 0xD6EBCC64C739277B117CE359E436534B234B76E914C80AD276ABF5B562078939 SWAP1 DUP2 SSTORE SWAP1 DUP3 ADD MLOAD PUSH32 0xD6EBCC64C739277B117CE359E436534B234B76E914C80AD276ABF5B56207893A SWAP1 PUSH3 0x1121 SWAP1 DUP3 PUSH3 0x1C3A JUMP JUMPDEST POP PUSH1 0x40 DUP3 ADD MLOAD DUP1 MLOAD PUSH3 0x113F SWAP2 PUSH1 0x2 DUP5 ADD SWAP2 PUSH1 0x20 SWAP1 SWAP2 ADD SWAP1 PUSH3 0x1B3E JUMP JUMPDEST POP PUSH1 0x60 DUP3 ADD MLOAD DUP1 MLOAD PUSH3 0x115D SWAP2 PUSH1 0x3 DUP5 ADD SWAP2 PUSH1 0x20 SWAP1 SWAP2 ADD SWAP1 PUSH3 0x1B3E JUMP JUMPDEST POP PUSH1 0x80 DUP3 ADD MLOAD PUSH1 0x4 DUP3 ADD SSTORE PUSH1 0xA0 DUP3 ADD MLOAD PUSH1 0x5 DUP3 ADD DUP1 SLOAD PUSH1 0xC0 DUP6 ADD MLOAD ISZERO ISZERO PUSH1 0x1 PUSH1 0xA0 SHL MUL PUSH1 0x1 PUSH1 0x1 PUSH1 0xA8 SHL SUB NOT SWAP1 SWAP2 AND PUSH1 0x1 PUSH1 0x1 PUSH1 0xA0 SHL SUB SWAP1 SWAP4 AND SWAP3 SWAP1 SWAP3 OR SWAP2 SWAP1 SWAP2 OR SWAP1 SSTORE PUSH1 0xE0 DUP3 ADD MLOAD PUSH1 0x6 DUP3 ADD SSTORE PUSH2 0x100 SWAP1 SWAP2 ADD MLOAD PUSH1 0x7 SWAP1 SWAP2 ADD SSTORE PUSH1 0xE PUSH1 0x0 SWAP1 DUP2 MSTORE PUSH1 0x3 PUSH1 0x20 MSTORE PUSH32 0xD6EBCC64C739277B117CE359E436534B234B76E914C80AD276ABF5B56207893B DUP1 SLOAD PUSH1 0xA SWAP3 SWAP1 PUSH3 0x11FA JUMPI PUSH3 0x11FA PUSH3 0x1D06 JUMP JUMPDEST PUSH1 0x0 SWAP2 DUP3 MSTORE PUSH1 0x20 DUP1 DUP4 KECCAK256 SWAP1 SWAP2 ADD SWAP3 SWAP1 SWAP3 SSTORE PUSH1 0xE DUP2 MSTORE PUSH1 0x3 SWAP1 SWAP2 MSTORE PUSH32 0xD6EBCC64C739277B117CE359E436534B234B76E914C80AD276ABF5B56207893C DUP1 SLOAD PUSH1 0x2 SWAP3 SWAP1 PUSH3 0x124A JUMPI PUSH3 0x124A PUSH3 0x1D06 JUMP JUMPDEST SWAP1 PUSH1 0x0 MSTORE PUSH1 0x20 PUSH1 0x0 KECCAK256 ADD DUP2 SWAP1 SSTORE POP PUSH1 0x40 MLOAD DUP1 PUSH2 0x120 ADD PUSH1 0x40 MSTORE DUP1 PUSH1 0xF DUP2 MSTORE PUSH1 0x20 ADD PUSH1 0x40 MLOAD DUP1 PUSH1 0x40 ADD PUSH1 0x40 MSTORE DUP1 PUSH1 0x19 DUP2 MSTORE PUSH1 0x20 ADD PUSH32 0x48796272696420526963652053656564202842756E646C652900000000000000 DUP2 MSTORE POP DUP2 MSTORE PUSH1 0x20 ADD PUSH1 0x1 PUSH1 0x1 PUSH1 0x1 PUSH1 0x40 SHL SUB DUP2 GT ISZERO PUSH3 0x12C2 JUMPI PUSH3 0x12C2 PUSH3 0x1B93 JUMP JUMPDEST PUSH1 0x40 MLOAD SWAP1 DUP1 DUP3 MSTORE DUP1 PUSH1 0x20 MUL PUSH1 0x20 ADD DUP3 ADD PUSH1 0x40 MSTORE DUP1 ISZERO PUSH3 0x12EC JUMPI DUP2 PUSH1 0x20 ADD PUSH1 0x20 DUP3 MUL DUP1 CALLDATASIZE DUP4 CALLDATACOPY ADD SWAP1 POP JUMPDEST POP DUP2 MSTORE PUSH1 0x40 DUP1 MLOAD PUSH1 0x1 DUP1 DUP3 MSTORE DUP2 DUP4 ADD SWAP1 SWAP3 MSTORE PUSH1 0x20 SWAP1 SWAP3 ADD SWAP2 SWAP1 DUP2 PUSH1 0x20 ADD PUSH1 0x20 DUP3 MUL DUP1 CALLDATASIZE DUP4 CALLDATACOPY POP POP POP DUP2 MSTORE PUSH7 0x5FFCBA548AA000 PUSH1 0x20 DUP1 DUP4 ADD SWAP2 SWAP1 SWAP2 MSTORE PUSH1 0x0 PUSH1 0x40 DUP4 ADD DUP2 SWAP1 MSTORE PUSH1 0x1 PUSH1 0x60 DUP5 ADD MSTORE PUSH2 0x1F4 PUSH1 0x80 DUP5 ADD DUP2 SWAP1 MSTORE PUSH1 0xA0 SWAP1 SWAP4 ADD SWAP3 SWAP1 SWAP3 MSTORE PUSH1 0xF SWAP1 SWAP2 MSTORE PUSH1 0x3 DUP2 MSTORE DUP2 MLOAD PUSH32 0xF60B7F6A315EC68A6AC240E69DCA53652B38627F709A2CAA217D9E18AF4D7A60 SWAP1 DUP2 SSTORE SWAP1 DUP3 ADD MLOAD PUSH32 0xF60B7F6A315EC68A6AC240E69DCA53652B38627F709A2CAA217D9E18AF4D7A61 SWAP1 PUSH3 0x13AB SWAP1 DUP3 PUSH3 0x1C3A JUMP JUMPDEST POP PUSH1 0x40 DUP3 ADD MLOAD DUP1 MLOAD PUSH3 0x13C9 SWAP2 PUSH1 0x2 DUP5 ADD SWAP2 PUSH1 0x20 SWAP1 SWAP2 ADD SWAP1 PUSH3 0x1B3E JUMP JUMPDEST POP PUSH1 0x60 DUP3 ADD MLOAD DUP1 MLOAD PUSH3 0x13E7 SWAP2 PUSH1 0x3 DUP5 ADD SWAP2 PUSH1 0x20 SWAP1 SWAP2 ADD SWAP1 PUSH3 0x1B3E JUMP JUMPDEST POP PUSH1 0x80 DUP3 ADD MLOAD PUSH1 0x4 DUP3 ADD SSTORE PUSH1 0xA0 DUP3 ADD MLOAD PUSH1 0x5 DUP3 ADD DUP1 SLOAD PUSH1 0xC0 DUP6 ADD MLOAD ISZERO ISZERO PUSH1 0x1 PUSH1 0xA0 SHL MUL PUSH1 0x1 PUSH1 0x1 PUSH1 0xA8 SHL SUB NOT SWAP1 SWAP2 AND PUSH1 0x1 PUSH1 0x1 PUSH1 0xA0 SHL SUB SWAP1 SWAP4 AND SWAP3 SWAP1 SWAP3 OR SWAP2 SWAP1 SWAP2 OR SWAP1 SSTORE PUSH1 0xE0 DUP3 ADD MLOAD PUSH1 0x6 DUP3 ADD SSTORE PUSH2 0x100 SWAP1 SWAP2 ADD MLOAD PUSH1 0x7 SWAP1 SWAP2 ADD SSTORE PUSH1 0xF PUSH1 0x0 SWAP1 DUP2 MSTORE PUSH1 0x3 PUSH1 0x20 MSTORE PUSH32 0xF60B7F6A315EC68A6AC240E69DCA53652B38627F709A2CAA217D9E18AF4D7A62 DUP1 SLOAD PUSH1 0xB SWAP3 SWAP1 PUSH3 0x1484 JUMPI PUSH3 0x1484 PUSH3 0x1D06 JUMP JUMPDEST PUSH1 0x0 SWAP2 DUP3 MSTORE PUSH1 0x20 DUP1 DUP4 KECCAK256 SWAP1 SWAP2 ADD SWAP3 SWAP1 SWAP3 SSTORE PUSH1 0xF DUP2 MSTORE PUSH1 0x3 SWAP1 SWAP2 MSTORE PUSH32 0xF60B7F6A315EC68A6AC240E69DCA53652B38627F709A2CAA217D9E18AF4D7A63 DUP1 SLOAD PUSH1 0x2 SWAP3 SWAP1 PUSH3 0x14D4 JUMPI PUSH3 0x14D4 PUSH3 0x1D06 JUMP JUMPDEST PUSH1 0x0 SWAP2 DUP3 MSTORE PUSH1 0x20 DUP1 DUP4 KECCAK256 SWAP1 SWAP2 ADD SWAP3 SWAP1 SWAP3 SSTORE PUSH1 0x40 DUP1 MLOAD PUSH2 0x180 DUP2 ADD DUP3 MSTORE PUSH1 0x7 DUP1 DUP3 MSTORE DUP3 MLOAD DUP1 DUP5 ADD DUP5 MSTORE PUSH1 0x10 DUP2 MSTORE PUSH16 0x23B7B63232B7102430B93B32B9BA32B9 PUSH1 0x81 SHL DUP2 DUP8 ADD MSTORE DUP3 DUP7 ADD SWAP1 DUP2 MSTORE SWAP3 DUP3 ADD DUP5 SWAP1 MSTORE PUSH7 0x46F0CA4AE00000 PUSH1 0x60 DUP4 ADD MSTORE PUSH1 0x80 DUP3 ADD DUP5 SWAP1 MSTORE PUSH1 0xA0 DUP3 ADD DUP5 SWAP1 MSTORE PUSH1 0xC0 DUP3 ADD DUP5 SWAP1 MSTORE PUSH1 0xE0 DUP3 ADD DUP5 SWAP1 MSTORE PUSH2 0x100 DUP3 ADD DUP5 SWAP1 MSTORE PUSH1 0x1 PUSH2 0x120 DUP4 ADD MSTORE PUSH2 0xEA6 PUSH2 0x140 DUP4 ADD DUP2 SWAP1 MSTORE PUSH2 0x160 DUP4 ADD MSTORE SWAP1 SWAP3 MSTORE PUSH1 0x2 SWAP1 SWAP3 MSTORE DUP1 MLOAD PUSH32 0xACD8EF244210BB6898E73C48BF820ED8ECC857A3BAB8D79C10E4FA92B1E9CA65 SWAP1 DUP2 SSTORE SWAP2 MLOAD SWAP1 SWAP2 SWAP1 PUSH32 0xACD8EF244210BB6898E73C48BF820ED8ECC857A3BAB8D79C10E4FA92B1E9CA66 SWAP1 PUSH3 0x15CF SWAP1 DUP3 PUSH3 0x1C3A JUMP JUMPDEST POP PUSH1 0x40 DUP3 DUP2 ADD MLOAD PUSH1 0x2 DUP4 ADD DUP1 SLOAD PUSH1 0xFF NOT AND PUSH1 0xFF SWAP1 SWAP3 AND SWAP2 SWAP1 SWAP2 OR SWAP1 SSTORE PUSH1 0x60 DUP4 ADD MLOAD PUSH1 0x3 DUP4 ADD SSTORE PUSH1 0x80 DUP4 ADD MLOAD PUSH1 0x4 DUP4 ADD DUP1 SLOAD PUSH1 0x1 PUSH1 0x1 PUSH1 0xA0 SHL SUB NOT AND PUSH1 0x1 PUSH1 0x1 PUSH1 0xA0 SHL SUB SWAP1 SWAP3 AND SWAP2 SWAP1 SWAP2 OR SWAP1 SSTORE PUSH1 0xA0 DUP4 ADD MLOAD PUSH1 0x5 DUP4 ADD SSTORE PUSH1 0xC0 DUP4 ADD MLOAD PUSH1 0x6 DUP4 ADD SSTORE PUSH1 0xE0 DUP4 ADD MLOAD PUSH1 0x7 DUP4 ADD DUP1 SLOAD PUSH2 0x100 DUP7 ADD MLOAD PUSH2 0x120 DUP1 DUP9 ADD MLOAD PUSH2 0xFFFF SWAP6 DUP7 AND PUSH4 0xFFFFFFFF NOT SWAP1 SWAP5 AND SWAP4 SWAP1 SWAP4 OR PUSH3 0x10000 SWAP6 SWAP1 SWAP3 AND SWAP5 SWAP1 SWAP5 MUL OR PUSH1 0xFF PUSH1 0x20 SHL NOT AND PUSH5 0x100000000 SWAP2 ISZERO ISZERO SWAP2 SWAP1 SWAP2 MUL OR SWAP1 SSTORE PUSH2 0x140 DUP5 ADD MLOAD PUSH1 0x8 DUP5 ADD SSTORE PUSH2 0x160 SWAP1 SWAP4 ADD MLOAD PUSH1 0x9 SWAP1 SWAP3 ADD SWAP2 SWAP1 SWAP2 SSTORE DUP1 MLOAD SWAP2 DUP3 ADD DUP2 MSTORE PUSH1 0x10 DUP3 MSTORE DUP1 MLOAD DUP1 DUP3 ADD DUP3 MSTORE PUSH1 0x19 DUP2 MSTORE PUSH32 0x476F6C64656E20486172766573746572202842756E646C652900000000000000 PUSH1 0x20 DUP3 DUP2 ADD SWAP2 SWAP1 SWAP2 MSTORE DUP1 DUP5 ADD SWAP2 SWAP1 SWAP2 MSTORE DUP2 MLOAD PUSH1 0x1 DUP1 DUP3 MSTORE DUP2 DUP5 ADD DUP5 MSTORE SWAP3 DUP5 ADD SWAP3 SWAP1 SWAP2 DUP3 DUP2 ADD SWAP1 DUP1 CALLDATASIZE DUP4 CALLDATACOPY POP POP POP DUP2 MSTORE PUSH1 0x40 DUP1 MLOAD PUSH1 0x1 DUP1 DUP3 MSTORE DUP2 DUP4 ADD SWAP1 SWAP3 MSTORE PUSH1 0x20 SWAP3 DUP4 ADD SWAP3 SWAP1 SWAP2 SWAP1 DUP1 DUP4 ADD SWAP1 DUP1 CALLDATASIZE DUP4 CALLDATACOPY POP POP POP DUP2 MSTORE PUSH7 0x7EFC11B234F000 PUSH1 0x20 DUP1 DUP4 ADD SWAP2 SWAP1 SWAP2 MSTORE PUSH1 0x0 PUSH1 0x40 DUP4 ADD DUP2 SWAP1 MSTORE PUSH1 0x1 PUSH1 0x60 DUP5 ADD MSTORE PUSH2 0x753 PUSH1 0x80 DUP5 ADD DUP2 SWAP1 MSTORE PUSH1 0xA0 SWAP1 SWAP4 ADD SWAP3 SWAP1 SWAP3 MSTORE PUSH1 0x10 SWAP1 SWAP2 MSTORE PUSH1 0x3 DUP2 MSTORE DUP2 MLOAD PUSH32 0x47D4745E02B343689A5E7AC121D2A352B7A15C10328A8759FD7D4CF0999002BB SWAP1 DUP2 SSTORE SWAP1 DUP3 ADD MLOAD PUSH32 0x47D4745E02B343689A5E7AC121D2A352B7A15C10328A8759FD7D4CF0999002BC SWAP1 PUSH3 0x17B9 SWAP1 DUP3 PUSH3 0x1C3A JUMP JUMPDEST POP PUSH1 0x40 DUP3 ADD MLOAD DUP1 MLOAD PUSH3 0x17D7 SWAP2 PUSH1 0x2 DUP5 ADD SWAP2 PUSH1 0x20 SWAP1 SWAP2 ADD SWAP1 PUSH3 0x1B3E JUMP JUMPDEST POP PUSH1 0x60 DUP3 ADD MLOAD DUP1 MLOAD PUSH3 0x17F5 SWAP2 PUSH1 0x3 DUP5 ADD SWAP2 PUSH1 0x20 SWAP1 SWAP2 ADD SWAP1 PUSH3 0x1B3E JUMP JUMPDEST POP PUSH1 0x80 DUP3 ADD MLOAD PUSH1 0x4 DUP3 ADD SSTORE PUSH1 0xA0 DUP3 ADD MLOAD PUSH1 0x5 DUP3 ADD DUP1 SLOAD PUSH1 0xC0 DUP6 ADD MLOAD ISZERO ISZERO PUSH1 0x1 PUSH1 0xA0 SHL MUL PUSH1 0x1 PUSH1 0x1 PUSH1 0xA8 SHL SUB NOT SWAP1 SWAP2 AND PUSH1 0x1 PUSH1 0x1 PUSH1 0xA0 SHL SUB SWAP1 SWAP4 AND SWAP3 SWAP1 SWAP3 OR SWAP2 SWAP1 SWAP2 OR SWAP1 SSTORE PUSH1 0xE0 DUP3 ADD MLOAD PUSH1 0x6 DUP3 ADD SSTORE PUSH2 0x100 SWAP1 SWAP2 ADD MLOAD PUSH1 0x7 SWAP2 DUP3 ADD SSTORE PUSH1 0x10 PUSH1 0x0 SWAP1 DUP2 MSTORE PUSH1 0x3 PUSH1 0x20 MSTORE PUSH32 0x47D4745E02B343689A5E7AC121D2A352B7A15C10328A8759FD7D4CF0999002BD DUP1 SLOAD SWAP1 SWAP2 SWAP1 PUSH3 0x1891 JUMPI PUSH3 0x1891 PUSH3 0x1D06 JUMP JUMPDEST PUSH1 0x0 SWAP2 DUP3 MSTORE PUSH1 0x20 DUP1 DUP4 KECCAK256 SWAP1 SWAP2 ADD SWAP3 SWAP1 SWAP3 SSTORE PUSH1 0x10 DUP2 MSTORE PUSH1 0x3 SWAP1 SWAP2 MSTORE PUSH32 0x47D4745E02B343689A5E7AC121D2A352B7A15C10328A8759FD7D4CF0999002BE DUP1 SLOAD PUSH1 0x2 SWAP3 SWAP1 PUSH3 0x18E1 JUMPI PUSH3 0x18E1 PUSH3 0x1D06 JUMP JUMPDEST PUSH1 0x0 SWAP2 DUP3 MSTORE PUSH1 0x20 DUP1 DUP4 KECCAK256 SWAP1 SWAP2 ADD SWAP3 SWAP1 SWAP3 SSTORE PUSH1 0x40 DUP1 MLOAD PUSH2 0x180 DUP2 ADD DUP3 MSTORE PUSH1 0x8 DUP1 DUP3 MSTORE DUP3 MLOAD DUP1 DUP5 ADD DUP5 MSTORE PUSH1 0xE DUP2 MSTORE PUSH14 0x22B732B933BC902137B7B9BA32B9 PUSH1 0x91 SHL DUP2 DUP8 ADD MSTORE DUP3 DUP7 ADD SWAP1 DUP2 MSTORE PUSH1 0x2 SWAP4 DUP4 ADD DUP5 SWAP1 MSTORE PUSH1 0x60 DUP4 ADD DUP6 SWAP1 MSTORE PUSH1 0x80 DUP4 ADD DUP6 SWAP1 MSTORE PUSH1 0xA0 DUP4 ADD DUP6 SWAP1 MSTORE PUSH1 0xC0 DUP4 ADD DUP6 SWAP1 MSTORE PUSH1 0xE0 DUP4 ADD DUP6 SWAP1 MSTORE PUSH2 0x100 DUP4 ADD DUP6 SWAP1 MSTORE PUSH1 0x1 PUSH2 0x120 DUP5 ADD MSTORE PUSH2 0x1F40 PUSH2 0x140 DUP5 ADD DUP2 SWAP1 MSTORE PUSH2 0x160 DUP5 ADD MSTORE SWAP4 MSTORE SWAP3 MSTORE DUP2 MLOAD PUSH32 0x3A5EA591190EEB3F8FCDCED843C78DF04EC0DFD42F5510375207515664FA0A75 SWAP1 DUP2 SSTORE SWAP1 MLOAD PUSH32 0x3A5EA591190EEB3F8FCDCED843C78DF04EC0DFD42F5510375207515664FA0A76 SWAP1 PUSH3 0x19CF SWAP1 DUP3 PUSH3 0x1C3A JUMP JUMPDEST POP PUSH1 0x40 DUP3 ADD MLOAD PUSH1 0x2 DUP3 ADD DUP1 SLOAD PUSH1 0xFF SWAP1 SWAP3 AND PUSH1 0xFF NOT SWAP1 SWAP3 AND SWAP2 SWAP1 SWAP2 OR SWAP1 SSTORE PUSH1 0x60 DUP3 ADD MLOAD PUSH1 0x3 DUP3 ADD SSTORE PUSH1 0x80 DUP3 ADD MLOAD PUSH1 0x4 DUP3 ADD DUP1 SLOAD PUSH1 0x1 PUSH1 0x1 PUSH1 0xA0 SHL SUB SWAP1 SWAP3 AND PUSH1 0x1 PUSH1 0x1 PUSH1 0xA0 SHL SUB NOT SWAP1 SWAP3 AND SWAP2 SWAP1 SWAP2 OR SWAP1 SSTORE PUSH1 0xA0 DUP3 ADD MLOAD PUSH1 0x5 DUP3 ADD SSTORE PUSH1 0xC0 DUP3 ADD MLOAD PUSH1 0x6 DUP3 ADD SSTORE PUSH1 0xE0 DUP3 ADD MLOAD PUSH1 0x7 DUP3 ADD DUP1 SLOAD PUSH2 0x100 DUP6 ADD MLOAD PUSH2 0x120 DUP7 ADD MLOAD ISZERO ISZERO PUSH5 0x100000000 MUL PUSH1 0xFF PUSH1 0x20 SHL NOT PUSH2 0xFFFF SWAP3 DUP4 AND PUSH3 0x10000 MUL PUSH4 0xFFFFFFFF NOT SWAP1 SWAP5 AND SWAP3 SWAP1 SWAP6 AND SWAP2 SWAP1 SWAP2 OR SWAP2 SWAP1 SWAP2 OR SWAP3 SWAP1 SWAP3 AND SWAP2 SWAP1 SWAP2 OR SWAP1 SSTORE PUSH2 0x140 DUP3 ADD MLOAD PUSH1 0x8 DUP3 ADD SSTORE PUSH2 0x160 SWAP1 SWAP2 ADD MLOAD PUSH1 0x9 SWAP1 SWAP2 ADD SSTORE PUSH3 0x1D1C JUMP JUMPDEST PUSH1 0x0 DUP1 SLOAD PUSH1 0x1 PUSH1 0x1 PUSH1 0xA0 SHL SUB DUP4 DUP2 AND PUSH1 0x1 PUSH1 0x1 PUSH1 0xA0 SHL SUB NOT DUP4 AND DUP2 OR DUP5 SSTORE PUSH1 0x40 MLOAD SWAP2 SWAP1 SWAP3 AND SWAP3 DUP4 SWAP2 PUSH32 0x8BE0079C531659141344CD1FD0A4F28419497F9722A3DAAFE3B4186F6B6457E0 SWAP2 SWAP1 LOG3 POP POP JUMP JUMPDEST DUP3 PUSH1 0x7 DUP2 ADD SWAP3 DUP3 ISZERO PUSH3 0x1B2C JUMPI SWAP2 PUSH1 0x20 MUL DUP3 ADD JUMPDEST DUP3 DUP2 GT ISZERO PUSH3 0x1B2C JUMPI DUP3 MLOAD DUP3 SWAP1 PUSH1 0x1 PUSH1 0x1 PUSH1 0x40 SHL SUB AND SWAP1 SSTORE SWAP2 PUSH1 0x20 ADD SWAP2 SWAP1 PUSH1 0x1 ADD SWAP1 PUSH3 0x1B04 JUMP JUMPDEST POP PUSH3 0x1B3A SWAP3 SWAP2 POP PUSH3 0x1B7C JUMP JUMPDEST POP SWAP1 JUMP JUMPDEST DUP3 DUP1 SLOAD DUP3 DUP3 SSTORE SWAP1 PUSH1 0x0 MSTORE PUSH1 0x20 PUSH1 0x0 KECCAK256 SWAP1 DUP2 ADD SWAP3 DUP3 ISZERO PUSH3 0x1B2C JUMPI SWAP2 PUSH1 0x20 MUL DUP3 ADD JUMPDEST DUP3 DUP2 GT ISZERO PUSH3 0x1B2C JUMPI DUP3 MLOAD DUP3 SSTORE SWAP2 PUSH1 0x20 ADD SWAP2 SWAP1 PUSH1 0x1 ADD SWAP1 PUSH3 0x1B5F JUMP JUMPDEST JUMPDEST DUP1 DUP3 GT ISZERO PUSH3 0x1B3A JUMPI PUSH1 0x0 DUP2 SSTORE PUSH1 0x1 ADD PUSH3 0x1B7D JUMP JUMPDEST PUSH4 0x4E487B71 PUSH1 0xE0 SHL PUSH1 0x0 MSTORE PUSH1 0x41 PUSH1 0x4 MSTORE PUSH1 0x24 PUSH1 0x0 REVERT JUMPDEST PUSH1 0x1 DUP2 DUP2 SHR SWAP1 DUP3 AND DUP1 PUSH3 0x1BBE JUMPI PUSH1 0x7F DUP3 AND SWAP2 POP JUMPDEST PUSH1 0x20 DUP3 LT DUP2 SUB PUSH3 0x1BDF JUMPI PUSH4 0x4E487B71 PUSH1 0xE0 SHL PUSH1 0x0 MSTORE PUSH1 0x22 PUSH1 0x4 MSTORE PUSH1 0x24 PUSH1 0x0 REVERT JUMPDEST POP SWAP2 SWAP1 POP JUMP JUMPDEST PUSH1 0x1F DUP3 GT ISZERO PUSH3 0x1C35 JUMPI PUSH1 0x0 DUP2 PUSH1 0x0 MSTORE PUSH1 0x20 PUSH1 0x0 KECCAK256 PUSH1 0x1F DUP6 ADD PUSH1 0x5 SHR DUP2 ADD PUSH1 0x20 DUP7 LT ISZERO PUSH3 0x1C10 JUMPI POP DUP1 JUMPDEST PUSH1 0x1F DUP6 ADD PUSH1 0x5 SHR DUP3 ADD SWAP2 POP JUMPDEST DUP2 DUP2 LT ISZERO PUSH3 0x1C31 JUMPI DUP3 DUP2 SSTORE PUSH1 0x1 ADD PUSH3 0x1C1C JUMP JUMPDEST POP POP POP JUMPDEST POP POP POP JUMP JUMPDEST DUP2 MLOAD PUSH1 0x1 PUSH1 0x1 PUSH1 0x40 SHL SUB DUP2 GT ISZERO PUSH3 0x1C56 JUMPI PUSH3 0x1C56 PUSH3 0x1B93 JUMP JUMPDEST PUSH3 0x1C6E DUP2 PUSH3 0x1C67 DUP5 SLOAD PUSH3 0x1BA9 JUMP JUMPDEST DUP5 PUSH3 0x1BE5 JUMP JUMPDEST PUSH1 0x20 DUP1 PUSH1 0x1F DUP4 GT PUSH1 0x1 DUP2 EQ PUSH3 0x1CA6 JUMPI PUSH1 0x0 DUP5 ISZERO PUSH3 0x1C8D JUMPI POP DUP6 DUP4 ADD MLOAD JUMPDEST PUSH1 0x0 NOT PUSH1 0x3 DUP7 SWAP1 SHL SHR NOT AND PUSH1 0x1 DUP6 SWAP1 SHL OR DUP6 SSTORE PUSH3 0x1C31 JUMP JUMPDEST PUSH1 0x0 DUP6 DUP2 MSTORE PUSH1 0x20 DUP2 KECCAK256 PUSH1 0x1F NOT DUP7 AND SWAP2 JUMPDEST DUP3 DUP2 LT ISZERO PUSH3 0x1CD7 JUMPI DUP9 DUP7 ADD MLOAD DUP3 SSTORE SWAP5 DUP5 ADD SWAP5 PUSH1 0x1 SWAP1 SWAP2 ADD SWAP1 DUP5 ADD PUSH3 0x1CB6 JUMP JUMPDEST POP DUP6 DUP3 LT ISZERO PUSH3 0x1CF6 JUMPI DUP8 DUP6 ADD MLOAD PUSH1 0x0 NOT PUSH1 0x3 DUP9 SWAP1 SHL PUSH1 0xF8 AND SHR NOT AND DUP2 SSTORE JUMPDEST POP POP POP POP POP PUSH1 0x1 SWAP1 DUP2 SHL ADD SWAP1 SSTORE POP JUMP JUMPDEST PUSH4 0x4E487B71 PUSH1 0xE0 SHL PUSH1 0x0 MSTORE PUSH1 0x32 PUSH1 0x4 MSTORE PUSH1 0x24 PUSH1 0x0 REVERT JUMPDEST PUSH2 0x3673 DUP1 PUSH3 0x1D2C PUSH1 0x0 CODECOPY PUSH1 0x0 RETURN INVALID PUSH1 0x80 PUSH1 0x40 MSTORE PUSH1 0x4 CALLDATASIZE LT PUSH2 0x37A JUMPI PUSH1 0x0 CALLDATALOAD PUSH1 0xE0 SHR DUP1 PUSH4 0x851044EC GT PUSH2 0x1D1 JUMPI DUP1 PUSH4 0xD13E3353 GT PUSH2 0x102 JUMPI DUP1 PUSH4 0xE68B02CC GT PUSH2 0xA0 JUMPI DUP1 PUSH4 0xF2FDE38B GT PUSH2 0x6F JUMPI DUP1 PUSH4 0xF2FDE38B EQ PUSH2 0xB1E JUMPI DUP1 PUSH4 0xF3274A1F EQ PUSH2 0xB3E JUMPI DUP1 PUSH4 0xF9E38F9C EQ PUSH2 0xB53 JUMPI DUP1 PUSH4 0xFEE99C72 EQ PUSH2 0xB73 JUMPI PUSH1 0x0 DUP1 REVERT JUMPDEST DUP1 PUSH4 0xE68B02CC EQ PUSH2 0xAB6 JUMPI DUP1 PUSH4 0xE9DA722F EQ PUSH2 0xACB JUMPI DUP1 PUSH4 0xEDC0C038 EQ PUSH2 0xAEB JUMPI DUP1 PUSH4 0xEDF2FE73 EQ PUSH2 0xB0B JUMPI PUSH1 0x0 DUP1 REVERT JUMPDEST DUP1 PUSH4 0xDDC63262 GT PUSH2 0xDC JUMPI DUP1 PUSH4 0xDDC63262 EQ PUSH2 0xA3C JUMPI DUP1 PUSH4 0xE086E5EC EQ PUSH2 0xA5C JUMPI DUP1 PUSH4 0xE1F7D38A EQ PUSH2 0xA71 JUMPI DUP1 PUSH4 0xE630D241 EQ PUSH2 0xAA1 JUMPI PUSH1 0x0 DUP1 REVERT JUMPDEST DUP1 PUSH4 0xD13E3353 EQ PUSH2 0x9C2 JUMPI DUP1 PUSH4 0xD291D1F2 EQ PUSH2 0x9D7 JUMPI DUP1 PUSH4 0xD7A8AC0B EQ PUSH2 0xA04 JUMPI PUSH1 0x0 DUP1 REVERT JUMPDEST DUP1 PUSH4 0xA8AD4513 GT PUSH2 0x16F JUMPI DUP1 PUSH4 0xBFB231D2 GT PUSH2 0x149 JUMPI DUP1 PUSH4 0xBFB231D2 EQ PUSH2 0x922 JUMPI DUP1 PUSH4 0xC7F70346 EQ PUSH2 0x95A JUMPI DUP1 PUSH4 0xCE882F36 EQ PUSH2 0x97A JUMPI DUP1 PUSH4 0xCF19384B EQ PUSH2 0x98F JUMPI PUSH1 0x0 DUP1 REVERT JUMPDEST DUP1 PUSH4 0xA8AD4513 EQ PUSH2 0x8D8 JUMPI DUP1 PUSH4 0xB07E9A8B EQ PUSH2 0x8ED JUMPI DUP1 PUSH4 0xB203DC60 EQ PUSH2 0x902 JUMPI PUSH1 0x0 DUP1 REVERT JUMPDEST DUP1 PUSH4 0x8DA5CB5B GT PUSH2 0x1AB JUMPI DUP1 PUSH4 0x8DA5CB5B EQ PUSH2 0x846 JUMPI DUP1 PUSH4 0x9D633E77 EQ PUSH2 0x878 JUMPI DUP1 PUSH4 0xA4D3F557 EQ PUSH2 0x898 JUMPI DUP1 PUSH4 0xA5125421 EQ PUSH2 0x8B8 JUMPI PUSH1 0x0 DUP1 REVERT JUMPDEST DUP1 PUSH4 0x851044EC EQ PUSH2 0x7E4 JUMPI DUP1 PUSH4 0x8719C20A EQ PUSH2 0x811 JUMPI DUP1 PUSH4 0x89476069 EQ PUSH2 0x826 JUMPI PUSH1 0x0 DUP1 REVERT JUMPDEST DUP1 PUSH4 0x4BF8B2C6 GT PUSH2 0x2AB JUMPI DUP1 PUSH4 0x66C3B5FA GT PUSH2 0x249 JUMPI DUP1 PUSH4 0x77F8C837 GT PUSH2 0x223 JUMPI DUP1 PUSH4 0x77F8C837 EQ PUSH2 0x762 JUMPI DUP1 PUSH4 0x79E07242 EQ PUSH2 0x79A JUMPI DUP1 PUSH4 0x83F8B7E2 EQ PUSH2 0x7BA JUMPI DUP1 PUSH4 0x8456CB59 EQ PUSH2 0x7CF JUMPI PUSH1 0x0 DUP1 REVERT JUMPDEST DUP1 PUSH4 0x66C3B5FA EQ PUSH2 0x700 JUMPI DUP1 PUSH4 0x715018A6 EQ PUSH2 0x720 JUMPI DUP1 PUSH4 0x75651E77 EQ PUSH2 0x735 JUMPI PUSH1 0x0 DUP1 REVERT JUMPDEST DUP1 PUSH4 0x54CB5399 GT PUSH2 0x285 JUMPI DUP1 PUSH4 0x54CB5399 EQ PUSH2 0x674 JUMPI DUP1 PUSH4 0x5A48D79D EQ PUSH2 0x694 JUMPI DUP1 PUSH4 0x5C975ABB EQ PUSH2 0x6C1 JUMPI DUP1 PUSH4 0x60E3AB0B EQ PUSH2 0x6E0 JUMPI PUSH1 0x0 DUP1 REVERT JUMPDEST DUP1 PUSH4 0x4BF8B2C6 EQ PUSH2 0x5A1 JUMPI DUP1 PUSH4 0x4C321A89 EQ PUSH2 0x5B6 JUMPI DUP1 PUSH4 0x4F87E864 EQ PUSH2 0x654 JUMPI PUSH1 0x0 DUP1 REVERT JUMPDEST DUP1 PUSH4 0x2A1BBD1F GT PUSH2 0x318 JUMPI DUP1 PUSH4 0x3F4BA83A GT PUSH2 0x2F2 JUMPI DUP1 PUSH4 0x3F4BA83A EQ PUSH2 0x50C JUMPI DUP1 PUSH4 0x451420CB EQ PUSH2 0x521 JUMPI DUP1 PUSH4 0x484BB244 EQ PUSH2 0x541 JUMPI DUP1 PUSH4 0x4A7DC8E0 EQ PUSH2 0x581 JUMPI PUSH1 0x0 DUP1 REVERT JUMPDEST DUP1 PUSH4 0x2A1BBD1F EQ PUSH2 0x497 JUMPI DUP1 PUSH4 0x35A23E7B EQ PUSH2 0x4B7 JUMPI DUP1 PUSH4 0x3603F8D1 EQ PUSH2 0x4E4 JUMPI PUSH1 0x0 DUP1 REVERT JUMPDEST DUP1 PUSH4 0x14C84F3A GT PUSH2 0x354 JUMPI DUP1 PUSH4 0x14C84F3A EQ PUSH2 0x413 JUMPI DUP1 PUSH4 0x14D3A9C0 EQ PUSH2 0x440 JUMPI DUP1 PUSH4 0x1F36C907 EQ PUSH2 0x455 JUMPI DUP1 PUSH4 0x29E6D681 EQ PUSH2 0x46A JUMPI PUSH1 0x0 DUP1 REVERT JUMPDEST DUP1 PUSH4 0x7BD03BA EQ PUSH2 0x386 JUMPI DUP1 PUSH4 0xDA0D7A5 EQ PUSH2 0x3D1 JUMPI DUP1 PUSH4 0x13C066F8 EQ PUSH2 0x3FE JUMPI PUSH1 0x0 DUP1 REVERT JUMPDEST CALLDATASIZE PUSH2 0x381 JUMPI STOP JUMPDEST PUSH1 0x0 DUP1 REVERT JUMPDEST CALLVALUE DUP1 ISZERO PUSH2 0x392 JUMPI PUSH1 0x0 DUP1 REVERT JUMPDEST POP PUSH2 0x3BE PUSH2 0x3A1 CALLDATASIZE PUSH1 0x4 PUSH2 0x2C22 JUMP JUMPDEST PUSH1 0x4 PUSH1 0x20 SWAP1 DUP2 MSTORE PUSH1 0x0 SWAP3 DUP4 MSTORE PUSH1 0x40 DUP1 DUP5 KECCAK256 SWAP1 SWAP2 MSTORE SWAP1 DUP3 MSTORE SWAP1 KECCAK256 SLOAD DUP2 JUMP JUMPDEST PUSH1 0x40 MLOAD SWAP1 DUP2 MSTORE PUSH1 0x20 ADD JUMPDEST PUSH1 0x40 MLOAD DUP1 SWAP2 SUB SWAP1 RETURN JUMPDEST CALLVALUE DUP1 ISZERO PUSH2 0x3DD JUMPI PUSH1 0x0 DUP1 REVERT JUMPDEST POP PUSH2 0x3BE PUSH2 0x3EC CALLDATASIZE PUSH1 0x4 PUSH2 0x2C4C JUMP JUMPDEST PUSH1 0xC PUSH1 0x20 MSTORE PUSH1 0x0 SWAP1 DUP2 MSTORE PUSH1 0x40 SWAP1 KECCAK256 SLOAD DUP2 JUMP JUMPDEST PUSH2 0x411 PUSH2 0x40C CALLDATASIZE PUSH1 0x4 PUSH2 0x2C6E JUMP JUMPDEST PUSH2 0xBA0 JUMP JUMPDEST STOP JUMPDEST CALLVALUE DUP1 ISZERO PUSH2 0x41F JUMPI PUSH1 0x0 DUP1 REVERT JUMPDEST POP PUSH2 0x3BE PUSH2 0x42E CALLDATASIZE PUSH1 0x4 PUSH2 0x2C4C JUMP JUMPDEST PUSH1 0x8 PUSH1 0x20 MSTORE PUSH1 0x0 SWAP1 DUP2 MSTORE PUSH1 0x40 SWAP1 KECCAK256 SLOAD DUP2 JUMP JUMPDEST CALLVALUE DUP1 ISZERO PUSH2 0x44C JUMPI PUSH1 0x0 DUP1 REVERT JUMPDEST POP PUSH2 0x3BE PUSH1 0x6 DUP2 JUMP JUMPDEST CALLVALUE DUP1 ISZERO PUSH2 0x461 JUMPI PUSH1 0x0 DUP1 REVERT JUMPDEST POP PUSH2 0x3BE PUSH1 0x8 DUP2 JUMP JUMPDEST CALLVALUE DUP1 ISZERO PUSH2 0x476 JUMPI PUSH1 0x0 DUP1 REVERT JUMPDEST POP PUSH2 0x3BE PUSH2 0x485 CALLDATASIZE PUSH1 0x4 PUSH2 0x2C4C JUMP JUMPDEST PUSH1 0x7 PUSH1 0x20 MSTORE PUSH1 0x0 SWAP1 DUP2 MSTORE PUSH1 0x40 SWAP1 KECCAK256 SLOAD DUP2 JUMP JUMPDEST CALLVALUE DUP1 ISZERO PUSH2 0x4A3 JUMPI PUSH1 0x0 DUP1 REVERT JUMPDEST POP PUSH2 0x411 PUSH2 0x4B2 CALLDATASIZE PUSH1 0x4 PUSH2 0x2CA3 JUMP JUMPDEST PUSH2 0xEFE JUMP JUMPDEST CALLVALUE DUP1 ISZERO PUSH2 0x4C3 JUMPI PUSH1 0x0 DUP1 REVERT JUMPDEST POP PUSH2 0x3BE PUSH2 0x4D2 CALLDATASIZE PUSH1 0x4 PUSH2 0x2C4C JUMP JUMPDEST PUSH1 0xA PUSH1 0x20 MSTORE PUSH1 0x0 SWAP1 DUP2 MSTORE PUSH1 0x40 SWAP1 KECCAK256 SLOAD DUP2 JUMP JUMPDEST CALLVALUE DUP1 ISZERO PUSH2 0x4F0 JUMPI PUSH1 0x0 DUP1 REVERT JUMPDEST POP PUSH2 0x4F9 PUSH1 0x0 DUP2 JUMP JUMPDEST PUSH1 0x40 MLOAD PUSH2 0xFFFF SWAP1 SWAP2 AND DUP2 MSTORE PUSH1 0x20 ADD PUSH2 0x3C8 JUMP JUMPDEST CALLVALUE DUP1 ISZERO PUSH2 0x518 JUMPI PUSH1 0x0 DUP1 REVERT JUMPDEST POP PUSH2 0x411 PUSH2 0x1043 JUMP JUMPDEST CALLVALUE DUP1 ISZERO PUSH2 0x52D JUMPI PUSH1 0x0 DUP1 REVERT JUMPDEST POP PUSH2 0x411 PUSH2 0x53C CALLDATASIZE PUSH1 0x4 PUSH2 0x2E06 JUMP JUMPDEST PUSH2 0x1055 JUMP JUMPDEST CALLVALUE DUP1 ISZERO PUSH2 0x54D JUMPI PUSH1 0x0 DUP1 REVERT JUMPDEST POP PUSH2 0x571 PUSH2 0x55C CALLDATASIZE PUSH1 0x4 PUSH2 0x2C4C JUMP JUMPDEST PUSH1 0xE PUSH1 0x20 MSTORE PUSH1 0x0 SWAP1 DUP2 MSTORE PUSH1 0x40 SWAP1 KECCAK256 SLOAD PUSH1 0xFF AND DUP2 JUMP JUMPDEST PUSH1 0x40 MLOAD SWAP1 ISZERO ISZERO DUP2 MSTORE PUSH1 0x20 ADD PUSH2 0x3C8 JUMP JUMPDEST CALLVALUE DUP1 ISZERO PUSH2 0x58D JUMPI PUSH1 0x0 DUP1 REVERT JUMPDEST POP PUSH2 0x411 PUSH2 0x59C CALLDATASIZE PUSH1 0x4 PUSH2 0x2C4C JUMP JUMPDEST PUSH2 0x11AD JUMP JUMPDEST CALLVALUE DUP1 ISZERO PUSH2 0x5AD JUMPI PUSH1 0x0 DUP1 REVERT JUMPDEST POP PUSH2 0x4F9 PUSH1 0x46 DUP2 JUMP JUMPDEST CALLVALUE DUP1 ISZERO PUSH2 0x5C2 JUMPI PUSH1 0x0 DUP1 REVERT JUMPDEST POP PUSH2 0x61E PUSH2 0x5D1 CALLDATASIZE PUSH1 0x4 PUSH2 0x2C22 JUMP JUMPDEST PUSH1 0x5 PUSH1 0x20 SWAP1 DUP2 MSTORE PUSH1 0x0 SWAP3 DUP4 MSTORE PUSH1 0x40 DUP1 DUP5 KECCAK256 SWAP1 SWAP2 MSTORE SWAP1 DUP3 MSTORE SWAP1 KECCAK256 DUP1 SLOAD PUSH1 0x1 DUP3 ADD SLOAD PUSH1 0x2 DUP4 ADD SLOAD PUSH1 0x3 SWAP1 SWAP4 ADD SLOAD SWAP2 SWAP3 SWAP1 SWAP2 PUSH2 0xFFFF DUP1 DUP3 AND SWAP2 PUSH3 0x10000 DUP2 DIV SWAP1 SWAP2 AND SWAP1 PUSH1 0x1 PUSH1 0x20 SHL SWAP1 DIV PUSH1 0xFF AND DUP7 JUMP JUMPDEST PUSH1 0x40 DUP1 MLOAD SWAP7 DUP8 MSTORE PUSH1 0x20 DUP8 ADD SWAP6 SWAP1 SWAP6 MSTORE SWAP4 DUP6 ADD SWAP3 SWAP1 SWAP3 MSTORE PUSH2 0xFFFF SWAP1 DUP2 AND PUSH1 0x60 DUP6 ADD MSTORE AND PUSH1 0x80 DUP4 ADD MSTORE ISZERO ISZERO PUSH1 0xA0 DUP3 ADD MSTORE PUSH1 0xC0 ADD PUSH2 0x3C8 JUMP JUMPDEST CALLVALUE DUP1 ISZERO PUSH2 0x660 JUMPI PUSH1 0x0 DUP1 REVERT JUMPDEST POP PUSH2 0x411 PUSH2 0x66F CALLDATASIZE PUSH1 0x4 PUSH2 0x2CA3 JUMP JUMPDEST PUSH2 0x1210 JUMP JUMPDEST CALLVALUE DUP1 ISZERO PUSH2 0x680 JUMPI PUSH1 0x0 DUP1 REVERT JUMPDEST POP PUSH2 0x411 PUSH2 0x68F CALLDATASIZE PUSH1 0x4 PUSH2 0x2F91 JUMP JUMPDEST PUSH2 0x15E2 JUMP JUMPDEST CALLVALUE DUP1 ISZERO PUSH2 0x6A0 JUMPI PUSH1 0x0 DUP1 REVERT JUMPDEST POP PUSH2 0x3BE PUSH2 0x6AF CALLDATASIZE PUSH1 0x4 PUSH2 0x2C4C JUMP JUMPDEST PUSH1 0xB PUSH1 0x20 MSTORE PUSH1 0x0 SWAP1 DUP2 MSTORE PUSH1 0x40 SWAP1 KECCAK256 SLOAD DUP2 JUMP JUMPDEST CALLVALUE DUP1 ISZERO PUSH2 0x6CD JUMPI PUSH1 0x0 DUP1 REVERT JUMPDEST POP PUSH1 0x0 SLOAD PUSH1 0x1 PUSH1 0xA0 SHL SWAP1 DIV PUSH1 0xFF AND PUSH2 0x571 JUMP JUMPDEST CALLVALUE DUP1 ISZERO PUSH2 0x6EC JUMPI PUSH1 0x0 DUP1 REVERT JUMPDEST POP PUSH2 0x411 PUSH2 0x6FB CALLDATASIZE PUSH1 0x4 PUSH2 0x2E06 JUMP JUMPDEST PUSH2 0x1704 JUMP JUMPDEST CALLVALUE DUP1 ISZERO PUSH2 0x70C JUMPI PUSH1 0x0 DUP1 REVERT JUMPDEST POP PUSH2 0x411 PUSH2 0x71B CALLDATASIZE PUSH1 0x4 PUSH2 0x3094 JUMP JUMPDEST PUSH2 0x170C JUMP JUMPDEST CALLVALUE DUP1 ISZERO PUSH2 0x72C JUMPI PUSH1 0x0 DUP1 REVERT JUMPDEST POP PUSH2 0x411 PUSH2 0x1732 JUMP JUMPDEST CALLVALUE DUP1 ISZERO PUSH2 0x741 JUMPI PUSH1 0x0 DUP1 REVERT JUMPDEST POP PUSH2 0x755 PUSH2 0x750 CALLDATASIZE PUSH1 0x4 PUSH2 0x30AD JUMP JUMPDEST PUSH2 0x1744 JUMP JUMPDEST PUSH1 0x40 MLOAD PUSH2 0x3C8 SWAP2 SWAP1 PUSH2 0x3133 JUMP JUMPDEST CALLVALUE DUP1 ISZERO PUSH2 0x76E JUMPI PUSH1 0x0 DUP1 REVERT JUMPDEST POP PUSH2 0x3BE PUSH2 0x77D CALLDATASIZE PUSH1 0x4 PUSH2 0x2C22 JUMP JUMPDEST PUSH1 0x17 PUSH1 0x20 SWAP1 DUP2 MSTORE PUSH1 0x0 SWAP3 DUP4 MSTORE PUSH1 0x40 DUP1 DUP5 KECCAK256 SWAP1 SWAP2 MSTORE SWAP1 DUP3 MSTORE SWAP1 KECCAK256 SLOAD DUP2 JUMP JUMPDEST CALLVALUE DUP1 ISZERO PUSH2 0x7A6 JUMPI PUSH1 0x0 DUP1 REVERT JUMPDEST POP PUSH2 0x411 PUSH2 0x7B5 CALLDATASIZE PUSH1 0x4 PUSH2 0x3094 JUMP JUMPDEST PUSH2 0x1896 JUMP JUMPDEST CALLVALUE DUP1 ISZERO PUSH2 0x7C6 JUMPI PUSH1 0x0 DUP1 REVERT JUMPDEST POP PUSH2 0x411 PUSH2 0x19FE JUMP JUMPDEST CALLVALUE DUP1 ISZERO PUSH2 0x7DB JUMPI PUSH1 0x0 DUP1 REVERT JUMPDEST POP PUSH2 0x411 PUSH2 0x1B55 JUMP JUMPDEST CALLVALUE DUP1 ISZERO PUSH2 0x7F0 JUMPI PUSH1 0x0 DUP1 REVERT JUMPDEST POP PUSH2 0x804 PUSH2 0x7FF CALLDATASIZE PUSH1 0x4 PUSH2 0x30AD JUMP JUMPDEST PUSH2 0x1B65 JUMP JUMPDEST PUSH1 0x40 MLOAD PUSH2 0x3C8 SWAP2 SWAP1 PUSH2 0x31F5 JUMP JUMPDEST CALLVALUE DUP1 ISZERO PUSH2 0x81D JUMPI PUSH1 0x0 DUP1 REVERT JUMPDEST POP PUSH2 0x3BE PUSH1 0xB DUP2 JUMP JUMPDEST CALLVALUE DUP1 ISZERO PUSH2 0x832 JUMPI PUSH1 0x0 DUP1 REVERT JUMPDEST POP PUSH2 0x411 PUSH2 0x841 CALLDATASIZE PUSH1 0x4 PUSH2 0x2C4C JUMP JUMPDEST PUSH2 0x1C1F JUMP JUMPDEST CALLVALUE DUP1 ISZERO PUSH2 0x852 JUMPI PUSH1 0x0 DUP1 REVERT JUMPDEST POP PUSH1 0x0 SLOAD PUSH1 0x1 PUSH1 0x1 PUSH1 0xA0 SHL SUB AND JUMPDEST PUSH1 0x40 MLOAD PUSH1 0x1 PUSH1 0x1 PUSH1 0xA0 SHL SUB SWAP1 SWAP2 AND DUP2 MSTORE PUSH1 0x20 ADD PUSH2 0x3C8 JUMP JUMPDEST CALLVALUE DUP1 ISZERO PUSH2 0x884 JUMPI PUSH1 0x0 DUP1 REVERT JUMPDEST POP PUSH1 0x16 SLOAD PUSH2 0x860 SWAP1 PUSH1 0x1 PUSH1 0x1 PUSH1 0xA0 SHL SUB AND DUP2 JUMP JUMPDEST CALLVALUE DUP1 ISZERO PUSH2 0x8A4 JUMPI PUSH1 0x0 DUP1 REVERT JUMPDEST POP PUSH2 0x411 PUSH2 0x8B3 CALLDATASIZE PUSH1 0x4 PUSH2 0x2C4C JUMP JUMPDEST PUSH2 0x1D42 JUMP JUMPDEST CALLVALUE DUP1 ISZERO PUSH2 0x8C4 JUMPI PUSH1 0x0 DUP1 REVERT JUMPDEST POP PUSH2 0x411 PUSH2 0x8D3 CALLDATASIZE PUSH1 0x4 PUSH2 0x2C4C JUMP JUMPDEST PUSH2 0x1D6C JUMP JUMPDEST CALLVALUE DUP1 ISZERO PUSH2 0x8E4 JUMPI PUSH1 0x0 DUP1 REVERT JUMPDEST POP PUSH2 0x3BE PUSH1 0x5 DUP2 JUMP JUMPDEST CALLVALUE DUP1 ISZERO PUSH2 0x8F9 JUMPI PUSH1 0x0 DUP1 REVERT JUMPDEST POP PUSH2 0x3BE PUSH1 0xA DUP2 JUMP JUMPDEST CALLVALUE DUP1 ISZERO PUSH2 0x90E JUMPI PUSH1 0x0 DUP1 REVERT JUMPDEST POP PUSH2 0x3BE PUSH2 0x91D CALLDATASIZE PUSH1 0x4 PUSH2 0x3094 JUMP JUMPDEST PUSH2 0x1DC5 JUMP JUMPDEST CALLVALUE DUP1 ISZERO PUSH2 0x92E JUMPI PUSH1 0x0 DUP1 REVERT JUMPDEST POP PUSH2 0x942 PUSH2 0x93D CALLDATASIZE PUSH1 0x4 PUSH2 0x3094 JUMP JUMPDEST PUSH2 0x1DDC JUMP JUMPDEST PUSH1 0x40 MLOAD PUSH2 0x3C8 SWAP13 SWAP12 SWAP11 SWAP10 SWAP9 SWAP8 SWAP7 SWAP6 SWAP5 SWAP4 SWAP3 SWAP2 SWAP1 PUSH2 0x324E JUMP JUMPDEST CALLVALUE DUP1 ISZERO PUSH2 0x966 JUMPI PUSH1 0x0 DUP1 REVERT JUMPDEST POP PUSH2 0x411 PUSH2 0x975 CALLDATASIZE PUSH1 0x4 PUSH2 0x2CA3 JUMP JUMPDEST PUSH2 0x1EDD JUMP JUMPDEST CALLVALUE DUP1 ISZERO PUSH2 0x986 JUMPI PUSH1 0x0 DUP1 REVERT JUMPDEST POP PUSH2 0x411 PUSH2 0x1F54 JUMP JUMPDEST CALLVALUE DUP1 ISZERO PUSH2 0x99B JUMPI PUSH1 0x0 DUP1 REVERT JUMPDEST POP PUSH2 0x9AF PUSH2 0x9AA CALLDATASIZE PUSH1 0x4 PUSH2 0x3094 JUMP JUMPDEST PUSH2 0x20CA JUMP JUMPDEST PUSH1 0x40 MLOAD PUSH2 0x3C8 SWAP8 SWAP7 SWAP6 SWAP5 SWAP4 SWAP3 SWAP2 SWAP1 PUSH2 0x32CB JUMP JUMPDEST CALLVALUE DUP1 ISZERO PUSH2 0x9CE JUMPI PUSH1 0x0 DUP1 REVERT JUMPDEST POP PUSH2 0x3BE PUSH1 0xC DUP2 JUMP JUMPDEST CALLVALUE DUP1 ISZERO PUSH2 0x9E3 JUMPI PUSH1 0x0 DUP1 REVERT JUMPDEST POP PUSH2 0x3BE PUSH2 0x9F2 CALLDATASIZE PUSH1 0x4 PUSH2 0x2C4C JUMP JUMPDEST PUSH1 0x6 PUSH1 0x20 MSTORE PUSH1 0x0 SWAP1 DUP2 MSTORE PUSH1 0x40 SWAP1 KECCAK256 SLOAD DUP2 JUMP JUMPDEST CALLVALUE DUP1 ISZERO PUSH2 0xA10 JUMPI PUSH1 0x0 DUP1 REVERT JUMPDEST POP PUSH2 0x3BE PUSH2 0xA1F CALLDATASIZE PUSH1 0x4 PUSH2 0x2C22 JUMP JUMPDEST PUSH1 0x18 PUSH1 0x20 SWAP1 DUP2 MSTORE PUSH1 0x0 SWAP3 DUP4 MSTORE PUSH1 0x40 DUP1 DUP5 KECCAK256 SWAP1 SWAP2 MSTORE SWAP1 DUP3 MSTORE SWAP1 KECCAK256 SLOAD DUP2 JUMP JUMPDEST CALLVALUE DUP1 ISZERO PUSH2 0xA48 JUMPI PUSH1 0x0 DUP1 REVERT JUMPDEST POP PUSH2 0x411 PUSH2 0xA57 CALLDATASIZE PUSH1 0x4 PUSH2 0x3094 JUMP JUMPDEST PUSH2 0x219E JUMP JUMPDEST CALLVALUE DUP1 ISZERO PUSH2 0xA68 JUMPI PUSH1 0x0 DUP1 REVERT JUMPDEST POP PUSH2 0x411 PUSH2 0x243E JUMP JUMPDEST CALLVALUE DUP1 ISZERO PUSH2 0xA7D JUMPI PUSH1 0x0 DUP1 REVERT JUMPDEST POP PUSH2 0x571 PUSH2 0xA8C CALLDATASIZE PUSH1 0x4 PUSH2 0x2C4C JUMP JUMPDEST PUSH1 0xD PUSH1 0x20 MSTORE PUSH1 0x0 SWAP1 DUP2 MSTORE PUSH1 0x40 SWAP1 KECCAK256 SLOAD PUSH1 0xFF AND DUP2 JUMP JUMPDEST CALLVALUE DUP1 ISZERO PUSH2 0xAAD JUMPI PUSH1 0x0 DUP1 REVERT JUMPDEST POP PUSH2 0x3BE PUSH1 0x9 DUP2 JUMP JUMPDEST CALLVALUE DUP1 ISZERO PUSH2 0xAC2 JUMPI PUSH1 0x0 DUP1 REVERT JUMPDEST POP PUSH2 0x3BE PUSH1 0x7 DUP2 JUMP JUMPDEST CALLVALUE DUP1 ISZERO PUSH2 0xAD7 JUMPI PUSH1 0x0 DUP1 REVERT JUMPDEST POP PUSH2 0x411 PUSH2 0xAE6 CALLDATASIZE PUSH1 0x4 PUSH2 0x3094 JUMP JUMPDEST PUSH2 0x24D0 JUMP JUMPDEST CALLVALUE DUP1 ISZERO PUSH2 0xAF7 JUMPI PUSH1 0x0 DUP1 REVERT JUMPDEST POP PUSH2 0x411 PUSH2 0xB06 CALLDATASIZE PUSH1 0x4 PUSH2 0x2F91 JUMP JUMPDEST PUSH2 0x25B0 JUMP JUMPDEST PUSH2 0x411 PUSH2 0xB19 CALLDATASIZE PUSH1 0x4 PUSH2 0x2C6E JUMP JUMPDEST PUSH2 0x25B8 JUMP JUMPDEST CALLVALUE DUP1 ISZERO PUSH2 0xB2A JUMPI PUSH1 0x0 DUP1 REVERT JUMPDEST POP PUSH2 0x411 PUSH2 0xB39 CALLDATASIZE PUSH1 0x4 PUSH2 0x2C4C JUMP JUMPDEST PUSH2 0x29B0 JUMP JUMPDEST CALLVALUE DUP1 ISZERO PUSH2 0xB4A JUMPI PUSH1 0x0 DUP1 REVERT JUMPDEST POP PUSH2 0x3BE PUSH1 0x4 DUP2 JUMP JUMPDEST CALLVALUE DUP1 ISZERO PUSH2 0xB5F JUMPI PUSH1 0x0 DUP1 REVERT JUMPDEST POP PUSH2 0x411 PUSH2 0xB6E CALLDATASIZE PUSH1 0x4 PUSH2 0x3094 JUMP JUMPDEST PUSH2 0x29EB JUMP JUMPDEST CALLVALUE DUP1 ISZERO PUSH2 0xB7F JUMPI PUSH1 0x0 DUP1 REVERT JUMPDEST POP PUSH2 0x3BE PUSH2 0xB8E CALLDATASIZE PUSH1 0x4 PUSH2 0x2C4C JUMP JUMPDEST PUSH1 0x9 PUSH1 0x20 MSTORE PUSH1 0x0 SWAP1 DUP2 MSTORE PUSH1 0x40 SWAP1 KECCAK256 SLOAD DUP2 JUMP JUMPDEST PUSH2 0xBA8 PUSH2 0x2A12 JUMP JUMPDEST PUSH2 0xBB0 PUSH2 0x2A3D JUMP JUMPDEST PUSH1 0x0 DUP4 DUP2 MSTORE PUSH1 0x2 PUSH1 0x20 MSTORE PUSH1 0x40 SWAP1 KECCAK256 PUSH1 0x7 DUP2 ADD SLOAD PUSH1 0x1 PUSH1 0x20 SHL SWAP1 DIV PUSH1 0xFF AND PUSH2 0xC0E JUMPI PUSH1 0x40 MLOAD PUSH3 0x461BCD PUSH1 0xE5 SHL DUP2 MSTORE PUSH1 0x20 PUSH1 0x4 DUP3 ADD MSTORE PUSH1 0xD PUSH1 0x24 DUP3 ADD MSTORE PUSH13 0x4974656D20696E616374697665 PUSH1 0x98 SHL PUSH1 0x44 DUP3 ADD MSTORE PUSH1 0x64 ADD JUMPDEST PUSH1 0x40 MLOAD DUP1 SWAP2 SUB SWAP1 REVERT JUMPDEST DUP3 DUP2 PUSH1 0x9 ADD SLOAD LT ISZERO PUSH2 0xC58 JUMPI PUSH1 0x40 MLOAD PUSH3 0x461BCD PUSH1 0xE5 SHL DUP2 MSTORE PUSH1 0x20 PUSH1 0x4 DUP3 ADD MSTORE PUSH1 0x13 PUSH1 0x24 DUP3 ADD MSTORE PUSH19 0x496E73756666696369656E7420737570706C79 PUSH1 0x68 SHL PUSH1 0x44 DUP3 ADD MSTORE PUSH1 0x64 ADD PUSH2 0xC05 JUMP JUMPDEST PUSH1 0x0 DUP4 GT PUSH2 0xC9D JUMPI PUSH1 0x40 MLOAD PUSH3 0x461BCD PUSH1 0xE5 SHL DUP2 MSTORE PUSH1 0x20 PUSH1 0x4 DUP3 ADD MSTORE PUSH1 0x12 PUSH1 0x24 DUP3 ADD MSTORE PUSH18 0x416D6F756E74206D757374206265203E203 PUSH1 0x74 SHL PUSH1 0x44 DUP3 ADD MSTORE PUSH1 0x64 ADD PUSH2 0xC05 JUMP JUMPDEST PUSH1 0x0 PUSH1 0x1 PUSH1 0x1 PUSH1 0xA0 SHL SUB DUP4 AND ISZERO PUSH2 0xCB5 JUMPI PUSH1 0x0 PUSH2 0xCC5 JUMP JUMPDEST DUP4 DUP3 PUSH1 0x3 ADD SLOAD PUSH2 0xCC5 SWAP2 SWAP1 PUSH2 0x332D JUMP JUMPDEST SWAP1 POP PUSH1 0x1 PUSH1 0x1 PUSH1 0xA0 SHL SUB DUP4 AND PUSH2 0xD1D JUMPI DUP1 CALLVALUE LT ISZERO PUSH2 0xD18 JUMPI PUSH1 0x40 MLOAD PUSH3 0x461BCD PUSH1 0xE5 SHL DUP2 MSTORE PUSH1 0x20 PUSH1 0x4 DUP3 ADD MSTORE PUSH1 0x10 PUSH1 0x24 DUP3 ADD MSTORE PUSH16 0x92DCE6EACCCCD2C6D2CADCE8408AA89 PUSH1 0x83 SHL PUSH1 0x44 DUP3 ADD MSTORE PUSH1 0x64 ADD PUSH2 0xC05 JUMP JUMPDEST PUSH2 0xD96 JUMP JUMPDEST PUSH1 0x40 MLOAD PUSH4 0x23B872DD PUSH1 0xE0 SHL DUP2 MSTORE CALLER PUSH1 0x4 DUP3 ADD MSTORE ADDRESS PUSH1 0x24 DUP3 ADD MSTORE PUSH1 0x44 DUP2 ADD DUP3 SWAP1 MSTORE PUSH1 0x1 PUSH1 0x1 PUSH1 0xA0 SHL SUB DUP5 AND SWAP1 PUSH4 0x23B872DD SWAP1 PUSH1 0x64 ADD PUSH1 0x20 PUSH1 0x40 MLOAD DUP1 DUP4 SUB DUP2 PUSH1 0x0 DUP8 GAS CALL ISZERO DUP1 ISZERO PUSH2 0xD70 JUMPI RETURNDATASIZE PUSH1 0x0 DUP1 RETURNDATACOPY RETURNDATASIZE PUSH1 0x0 REVERT JUMPDEST POP POP POP POP PUSH1 0x40 MLOAD RETURNDATASIZE PUSH1 0x1F NOT PUSH1 0x1F DUP3 ADD AND DUP3 ADD DUP1 PUSH1 0x40 MSTORE POP DUP2 ADD SWAP1 PUSH2 0xD94 SWAP2 SWAP1 PUSH2 0x334A JUMP JUMPDEST POP JUMPDEST DUP4 DUP3 PUSH1 0x9 ADD PUSH1 0x0 DUP3 DUP3 SLOAD PUSH2 0xDAA SWAP2 SWAP1 PUSH2 0x3367 JUMP JUMPDEST SWAP1 SWAP2 SSTORE POP POP CALLER PUSH1 0x0 SWAP1 DUP2 MSTORE PUSH1 0x4 PUSH1 0x20 SWAP1 DUP2 MSTORE PUSH1 0x40 DUP1 DUP4 KECCAK256 DUP9 DUP5 MSTORE SWAP1 SWAP2 MSTORE DUP2 KECCAK256 DUP1 SLOAD DUP7 SWAP3 SWAP1 PUSH2 0xDD9 SWAP1 DUP5 SWAP1 PUSH2 0x337A JUMP JUMPDEST SWAP1 SWAP2 SSTORE POP POP PUSH1 0x2 DUP3 ADD SLOAD PUSH1 0xFF AND PUSH1 0x0 SUB PUSH2 0xE1D JUMPI CALLER PUSH1 0x0 SWAP1 DUP2 MSTORE PUSH1 0x17 PUSH1 0x20 SWAP1 DUP2 MSTORE PUSH1 0x40 DUP1 DUP4 KECCAK256 DUP9 DUP5 MSTORE SWAP1 SWAP2 MSTORE DUP2 KECCAK256 DUP1 SLOAD DUP7 SWAP3 SWAP1 PUSH2 0xE17 SWAP1 DUP5 SWAP1 PUSH2 0x337A JUMP JUMPDEST SWAP1 SWAP2 SSTORE POP POP JUMPDEST PUSH1 0x40 DUP1 MLOAD PUSH1 0x1 DUP1 DUP3 MSTORE DUP2 DUP4 ADD SWAP1 SWAP3 MSTORE PUSH1 0x0 SWAP2 PUSH1 0x20 DUP1 DUP4 ADD SWAP1 DUP1 CALLDATASIZE DUP4 CALLDATACOPY POP POP PUSH1 0x40 DUP1 MLOAD PUSH1 0x1 DUP1 DUP3 MSTORE DUP2 DUP4 ADD SWAP1 SWAP3 MSTORE SWAP3 SWAP4 POP PUSH1 0x0 SWAP3 SWAP2 POP PUSH1 0x20 DUP1 DUP4 ADD SWAP1 DUP1 CALLDATASIZE DUP4 CALLDATACOPY ADD SWAP1 POP POP SWAP1 POP DUP7 DUP3 PUSH1 0x0 DUP2 MLOAD DUP2 LT PUSH2 0xE76 JUMPI PUSH2 0xE76 PUSH2 0x338D JUMP JUMPDEST PUSH1 0x20 MUL PUSH1 0x20 ADD ADD DUP2 DUP2 MSTORE POP POP DUP6 DUP2 PUSH1 0x0 DUP2 MLOAD DUP2 LT PUSH2 0xE96 JUMPI PUSH2 0xE96 PUSH2 0x338D JUMP JUMPDEST PUSH1 0x20 MUL PUSH1 0x20 ADD ADD DUP2 DUP2 MSTORE POP POP CALLER PUSH1 0x1 PUSH1 0x1 PUSH1 0xA0 SHL SUB AND PUSH32 0xFAA30265942B056F8379458C99D8BCE44D758B6C4E762355961A2EC3DE64D41 PUSH1 0x0 DUP5 DUP5 DUP10 DUP9 PUSH1 0x40 MLOAD PUSH2 0xEE4 SWAP6 SWAP5 SWAP4 SWAP3 SWAP2 SWAP1 PUSH2 0x33A3 JUMP JUMPDEST PUSH1 0x40 MLOAD DUP1 SWAP2 SUB SWAP1 LOG2 POP POP POP POP PUSH2 0xEF9 PUSH1 0x1 DUP1 SSTORE JUMP JUMPDEST POP POP POP JUMP JUMPDEST PUSH2 0xF06 PUSH2 0x2A12 JUMP JUMPDEST PUSH2 0xF0E PUSH2 0x2A3D JUMP JUMPDEST CALLER PUSH1 0x0 SWAP1 DUP2 MSTORE PUSH1 0x4 PUSH1 0x20 SWAP1 DUP2 MSTORE PUSH1 0x40 DUP1 DUP4 KECCAK256 DUP6 DUP5 MSTORE SWAP1 SWAP2 MSTORE SWAP1 KECCAK256 SLOAD PUSH2 0xF5F JUMPI PUSH1 0x40 MLOAD PUSH3 0x461BCD PUSH1 0xE5 SHL DUP2 MSTORE PUSH1 0x20 PUSH1 0x4 DUP3 ADD MSTORE PUSH1 0x7 PUSH1 0x24 DUP3 ADD MSTORE PUSH7 0x139BC81D1BDBDB PUSH1 0xCA SHL PUSH1 0x44 DUP3 ADD MSTORE PUSH1 0x64 ADD PUSH2 0xC05 JUMP JUMPDEST PUSH1 0x0 DUP3 DUP2 MSTORE PUSH1 0x2 PUSH1 0x20 MSTORE PUSH1 0x40 SWAP1 KECCAK256 PUSH1 0x7 DUP2 ADD SLOAD PUSH1 0x1 PUSH1 0x20 SHL SWAP1 DIV PUSH1 0xFF AND DUP1 ISZERO PUSH2 0xF8F JUMPI POP PUSH1 0x2 DUP2 ADD SLOAD PUSH1 0xFF AND PUSH1 0x1 EQ JUMPDEST PUSH2 0xFCA JUMPI PUSH1 0x40 MLOAD PUSH3 0x461BCD PUSH1 0xE5 SHL DUP2 MSTORE PUSH1 0x20 PUSH1 0x4 DUP3 ADD MSTORE PUSH1 0xC PUSH1 0x24 DUP3 ADD MSTORE PUSH12 0x125B9D985B1A59081D1BDBDB PUSH1 0xA2 SHL PUSH1 0x44 DUP3 ADD MSTORE PUSH1 0x64 ADD PUSH2 0xC05 JUMP JUMPDEST CALLER PUSH1 0x0 SWAP1 DUP2 MSTORE PUSH1 0x4 PUSH1 0x20 SWAP1 DUP2 MSTORE PUSH1 0x40 DUP1 DUP4 KECCAK256 DUP7 DUP5 MSTORE SWAP1 SWAP2 MSTORE DUP2 KECCAK256 DUP1 SLOAD PUSH1 0x1 SWAP3 SWAP1 PUSH2 0xFF5 SWAP1 DUP5 SWAP1 PUSH2 0x3367 JUMP JUMPDEST SWAP1 SWAP2 SSTORE POP POP PUSH1 0x40 DUP1 MLOAD DUP5 DUP2 MSTORE PUSH1 0x20 DUP2 ADD DUP5 SWAP1 MSTORE CALLER SWAP2 PUSH32 0xD29993D7389AAFEB1AE0EEBFCC0E2B777C314426C46ED802D5116187380125D5 SWAP2 ADD PUSH1 0x40 MLOAD DUP1 SWAP2 SUB SWAP1 LOG2 POP PUSH2 0x103F PUSH1 0x1 DUP1 SSTORE JUMP JUMPDEST POP POP JUMP JUMPDEST PUSH2 0x104B PUSH2 0x2A67 JUMP JUMPDEST PUSH2 0x1053 PUSH2 0x2A94 JUMP JUMPDEST JUMP JUMPDEST PUSH2 0x105D PUSH2 0x2A67 JUMP JUMPDEST DUP1 MLOAD PUSH1 0x0 SWAP1 DUP2 MSTORE PUSH1 0x2 PUSH1 0x20 MSTORE PUSH1 0x40 DUP2 KECCAK256 SLOAD SWAP1 SUB PUSH2 0x10B2 JUMPI PUSH1 0x40 MLOAD PUSH3 0x461BCD PUSH1 0xE5 SHL DUP2 MSTORE PUSH1 0x20 PUSH1 0x4 DUP3 ADD MSTORE PUSH1 0x13 PUSH1 0x24 DUP3 ADD MSTORE PUSH19 0x125D195B48191BD95CC81B9BDD08195E1A5CDD PUSH1 0x6A SHL PUSH1 0x44 DUP3 ADD MSTORE PUSH1 0x64 ADD PUSH2 0xC05 JUMP JUMPDEST DUP1 MLOAD PUSH1 0x0 SWAP1 DUP2 MSTORE PUSH1 0x2 PUSH1 0x20 SWAP1 DUP2 MSTORE PUSH1 0x40 SWAP1 SWAP2 KECCAK256 DUP3 MLOAD DUP2 SSTORE SWAP1 DUP3 ADD MLOAD DUP3 SWAP2 SWAP1 PUSH1 0x1 DUP3 ADD SWAP1 PUSH2 0x10DF SWAP1 DUP3 PUSH2 0x3476 JUMP JUMPDEST POP PUSH1 0x40 DUP3 ADD MLOAD PUSH1 0x2 DUP3 ADD DUP1 SLOAD PUSH1 0xFF SWAP1 SWAP3 AND PUSH1 0xFF NOT SWAP1 SWAP3 AND SWAP2 SWAP1 SWAP2 OR SWAP1 SSTORE PUSH1 0x60 DUP3 ADD MLOAD PUSH1 0x3 DUP3 ADD SSTORE PUSH1 0x80 DUP3 ADD MLOAD PUSH1 0x4 DUP3 ADD DUP1 SLOAD PUSH1 0x1 PUSH1 0x1 PUSH1 0xA0 SHL SUB SWAP1 SWAP3 AND PUSH1 0x1 PUSH1 0x1 PUSH1 0xA0 SHL SUB NOT SWAP1 SWAP3 AND SWAP2 SWAP1 SWAP2 OR SWAP1 SSTORE PUSH1 0xA0 DUP3 ADD MLOAD PUSH1 0x5 DUP3 ADD SSTORE PUSH1 0xC0 DUP3 ADD MLOAD PUSH1 0x6 DUP3 ADD SSTORE PUSH1 0xE0 DUP3 ADD MLOAD PUSH1 0x7 DUP3 ADD DUP1 SLOAD PUSH2 0x100 DUP6 ADD MLOAD PUSH2 0x120 DUP7 ADD MLOAD ISZERO ISZERO PUSH1 0x1 PUSH1 0x20 SHL MUL PUSH5 0xFF00000000 NOT PUSH2 0xFFFF SWAP3 DUP4 AND PUSH3 0x10000 MUL PUSH4 0xFFFFFFFF NOT SWAP1 SWAP5 AND SWAP3 SWAP1 SWAP6 AND SWAP2 SWAP1 SWAP2 OR SWAP2 SWAP1 SWAP2 OR SWAP3 SWAP1 SWAP3 AND SWAP2 SWAP1 SWAP2 OR SWAP1 SSTORE PUSH2 0x140 DUP3 ADD MLOAD PUSH1 0x8 DUP3 ADD SSTORE PUSH2 0x160 SWAP1 SWAP2 ADD MLOAD PUSH1 0x9 SWAP1 SWAP2 ADD SSTORE POP JUMP JUMPDEST PUSH2 0x11B5 PUSH2 0x2A67 JUMP JUMPDEST PUSH1 0x1 PUSH1 0x1 PUSH1 0xA0 SHL SUB DUP2 AND PUSH1 0x0 DUP2 DUP2 MSTORE PUSH1 0xE PUSH1 0x20 SWAP1 DUP2 MSTORE PUSH1 0x40 SWAP2 DUP3 SWAP1 KECCAK256 DUP1 SLOAD PUSH1 0xFF NOT AND PUSH1 0x1 OR SWAP1 SSTORE SWAP1 MLOAD SWAP2 DUP3 MSTORE PUSH32 0xA317C10673BAF4F03B3C1041BD5DDBB537D0333A86FEC3607C75F9DBB630F48F SWAP2 ADD JUMPDEST PUSH1 0x40 MLOAD DUP1 SWAP2 SUB SWAP1 LOG1 POP JUMP JUMPDEST PUSH2 0x1218 PUSH2 0x2A12 JUMP JUMPDEST PUSH2 0x1220 PUSH2 0x2A3D JUMP JUMPDEST CALLER PUSH1 0x0 SWAP1 DUP2 MSTORE PUSH1 0x4 PUSH1 0x20 SWAP1 DUP2 MSTORE PUSH1 0x40 DUP1 DUP4 KECCAK256 DUP5 DUP5 MSTORE SWAP1 SWAP2 MSTORE SWAP1 KECCAK256 SLOAD PUSH2 0x1272 JUMPI PUSH1 0x40 MLOAD PUSH3 0x461BCD PUSH1 0xE5 SHL DUP2 MSTORE PUSH1 0x20 PUSH1 0x4 DUP3 ADD MSTORE PUSH1 0x8 PUSH1 0x24 DUP3 ADD MSTORE PUSH8 0x4E6F207365656473 PUSH1 0xC0 SHL PUSH1 0x44 DUP3 ADD MSTORE PUSH1 0x64 ADD PUSH2 0xC05 JUMP JUMPDEST PUSH1 0x0 DUP2 DUP2 MSTORE PUSH1 0x2 PUSH1 0x20 MSTORE PUSH1 0x40 SWAP1 KECCAK256 PUSH1 0x7 DUP2 ADD SLOAD PUSH1 0x1 PUSH1 0x20 SHL SWAP1 DIV PUSH1 0xFF AND DUP1 ISZERO PUSH2 0x12A0 JUMPI POP PUSH1 0x2 DUP2 ADD SLOAD PUSH1 0xFF AND ISZERO JUMPDEST PUSH2 0x12DB JUMPI PUSH1 0x40 MLOAD PUSH3 0x461BCD PUSH1 0xE5 SHL DUP2 MSTORE PUSH1 0x20 PUSH1 0x4 DUP3 ADD MSTORE PUSH1 0xC PUSH1 0x24 DUP3 ADD MSTORE PUSH12 0x125B9D985B1A59081CD95959 PUSH1 0xA2 SHL PUSH1 0x44 DUP3 ADD MSTORE PUSH1 0x64 ADD PUSH2 0xC05 JUMP JUMPDEST PUSH1 0x7 DUP2 ADD SLOAD PUSH1 0x46 PUSH2 0xFFFF SWAP1 SWAP2 AND GT ISZERO PUSH2 0x1332 JUMPI PUSH1 0x40 MLOAD PUSH3 0x461BCD PUSH1 0xE5 SHL DUP2 MSTORE PUSH1 0x20 PUSH1 0x4 DUP3 ADD MSTORE PUSH1 0x19 PUSH1 0x24 DUP3 ADD MSTORE PUSH25 0x47726F77746820626F6E7573206F7574206F662072616E6765 PUSH1 0x38 SHL PUSH1 0x44 DUP3 ADD MSTORE PUSH1 0x64 ADD PUSH2 0xC05 JUMP JUMPDEST PUSH1 0x7 DUP2 ADD SLOAD PUSH1 0x46 PUSH3 0x10000 SWAP1 SWAP2 DIV PUSH2 0xFFFF AND GT ISZERO PUSH2 0x138D JUMPI PUSH1 0x40 MLOAD PUSH3 0x461BCD PUSH1 0xE5 SHL DUP2 MSTORE PUSH1 0x20 PUSH1 0x4 DUP3 ADD MSTORE PUSH1 0x18 PUSH1 0x24 DUP3 ADD MSTORE PUSH24 0x5969656C6420626F6E7573206F7574206F662072616E6765 PUSH1 0x40 SHL PUSH1 0x44 DUP3 ADD MSTORE PUSH1 0x64 ADD PUSH2 0xC05 JUMP JUMPDEST CALLER PUSH1 0x0 SWAP1 DUP2 MSTORE PUSH1 0x4 PUSH1 0x20 SWAP1 DUP2 MSTORE PUSH1 0x40 DUP1 DUP4 KECCAK256 DUP6 DUP5 MSTORE SWAP1 SWAP2 MSTORE DUP2 KECCAK256 DUP1 SLOAD PUSH1 0x1 SWAP3 SWAP1 PUSH2 0x13B8 SWAP1 DUP5 SWAP1 PUSH2 0x3367 JUMP JUMPDEST SWAP1 SWAP2 SSTORE POP POP CALLER PUSH1 0x0 SWAP1 DUP2 MSTORE PUSH1 0x18 PUSH1 0x20 SWAP1 DUP2 MSTORE PUSH1 0x40 DUP1 DUP4 KECCAK256 DUP6 DUP5 MSTORE SWAP1 SWAP2 MSTORE SWAP1 KECCAK256 SLOAD ISZERO PUSH2 0x1413 JUMPI CALLER PUSH1 0x0 SWAP1 DUP2 MSTORE PUSH1 0x18 PUSH1 0x20 SWAP1 DUP2 MSTORE PUSH1 0x40 DUP1 DUP4 KECCAK256 DUP6 DUP5 MSTORE SWAP1 SWAP2 MSTORE DUP2 KECCAK256 DUP1 SLOAD PUSH1 0x1 SWAP3 SWAP1 PUSH2 0x1408 SWAP1 DUP5 SWAP1 PUSH2 0x3367 JUMP JUMPDEST SWAP1 SWAP2 SSTORE POP PUSH2 0x149B SWAP1 POP JUMP JUMPDEST CALLER PUSH1 0x0 SWAP1 DUP2 MSTORE PUSH1 0x17 PUSH1 0x20 SWAP1 DUP2 MSTORE PUSH1 0x40 DUP1 DUP4 KECCAK256 DUP6 DUP5 MSTORE SWAP1 SWAP2 MSTORE SWAP1 KECCAK256 SLOAD ISZERO PUSH2 0x145E JUMPI CALLER PUSH1 0x0 SWAP1 DUP2 MSTORE PUSH1 0x17 PUSH1 0x20 SWAP1 DUP2 MSTORE PUSH1 0x40 DUP1 DUP4 KECCAK256 DUP6 DUP5 MSTORE SWAP1 SWAP2 MSTORE DUP2 KECCAK256 DUP1 SLOAD PUSH1 0x1 SWAP3 SWAP1 PUSH2 0x1408 SWAP1 DUP5 SWAP1 PUSH2 0x3367 JUMP JUMPDEST PUSH1 0x40 MLOAD PUSH3 0x461BCD PUSH1 0xE5 SHL DUP2 MSTORE PUSH1 0x20 PUSH1 0x4 DUP3 ADD MSTORE PUSH1 0x12 PUSH1 0x24 DUP3 ADD MSTORE PUSH18 0x4E6F20736565647320617661696C61626C65 PUSH1 0x70 SHL PUSH1 0x44 DUP3 ADD MSTORE PUSH1 0x64 ADD PUSH2 0xC05 JUMP JUMPDEST PUSH1 0x7 DUP2 ADD SLOAD PUSH1 0x0 SWAP1 PUSH2 0x3E8 SWAP1 PUSH2 0x14B5 SWAP1 PUSH2 0xFFFF AND DUP3 PUSH2 0x3536 JUMP JUMPDEST PUSH2 0xFFFF AND DUP4 PUSH1 0x6 ADD SLOAD PUSH2 0x14C8 SWAP2 SWAP1 PUSH2 0x332D JUMP JUMPDEST PUSH2 0x14D2 SWAP2 SWAP1 PUSH2 0x356E JUMP JUMPDEST SWAP1 POP PUSH1 0x40 MLOAD DUP1 PUSH1 0xC0 ADD PUSH1 0x40 MSTORE DUP1 DUP5 DUP2 MSTORE PUSH1 0x20 ADD TIMESTAMP DUP2 MSTORE PUSH1 0x20 ADD DUP3 TIMESTAMP PUSH2 0x14F7 SWAP2 SWAP1 PUSH2 0x337A JUMP JUMPDEST DUP2 MSTORE PUSH1 0x7 DUP5 ADD SLOAD PUSH2 0xFFFF DUP1 DUP3 AND PUSH1 0x20 DUP1 DUP6 ADD SWAP2 SWAP1 SWAP2 MSTORE PUSH3 0x10000 SWAP3 DUP4 SWAP1 DIV DUP3 AND PUSH1 0x40 DUP1 DUP7 ADD SWAP2 SWAP1 SWAP2 MSTORE PUSH1 0x1 PUSH1 0x60 SWAP6 DUP7 ADD DUP2 SWAP1 MSTORE CALLER PUSH1 0x0 DUP2 DUP2 MSTORE PUSH1 0x5 DUP6 MSTORE DUP4 DUP2 KECCAK256 DUP14 DUP3 MSTORE DUP6 MSTORE DUP4 SWAP1 KECCAK256 DUP9 MLOAD DUP2 SSTORE DUP9 DUP6 ADD MLOAD SWAP3 DUP2 ADD SWAP3 SWAP1 SWAP3 SSTORE DUP8 DUP4 ADD MLOAD PUSH1 0x2 DUP4 ADD SSTORE SWAP6 DUP8 ADD MLOAD PUSH1 0x3 SWAP1 SWAP2 ADD DUP1 SLOAD PUSH1 0x80 DUP10 ADD MLOAD PUSH1 0xA0 SWAP1 SWAP10 ADD MLOAD SWAP3 DUP7 AND PUSH4 0xFFFFFFFF NOT SWAP1 SWAP2 AND OR SWAP8 SWAP1 SWAP5 AND SWAP1 SWAP5 MUL SWAP6 SWAP1 SWAP6 OR PUSH5 0xFF00000000 NOT AND PUSH1 0x1 PUSH1 0x20 SHL SWAP4 ISZERO ISZERO SWAP4 SWAP1 SWAP4 MUL SWAP3 SWAP1 SWAP3 OR SWAP1 SSTORE DUP3 MLOAD DUP8 DUP2 MSTORE SWAP1 DUP2 ADD DUP7 SWAP1 MSTORE SWAP1 SWAP2 PUSH32 0xBFF838F2FB339F78375289B45E530F7C7785D3D2A337193EBC7901FAEA10EF3A SWAP2 ADD PUSH1 0x40 MLOAD DUP1 SWAP2 SUB SWAP1 LOG2 POP POP PUSH2 0x103F PUSH1 0x1 DUP1 SSTORE JUMP JUMPDEST PUSH2 0x15EA PUSH2 0x2A67 JUMP JUMPDEST DUP1 MLOAD PUSH1 0x0 SWAP1 DUP2 MSTORE PUSH1 0x3 PUSH1 0x20 MSTORE PUSH1 0x40 DUP2 KECCAK256 SLOAD SWAP1 SUB PUSH2 0x1641 JUMPI PUSH1 0x40 MLOAD PUSH3 0x461BCD PUSH1 0xE5 SHL DUP2 MSTORE PUSH1 0x20 PUSH1 0x4 DUP3 ADD MSTORE PUSH1 0x15 PUSH1 0x24 DUP3 ADD MSTORE PUSH21 0x109D5B991B1948191BD95CC81B9BDD08195E1A5CDD PUSH1 0x5A SHL PUSH1 0x44 DUP3 ADD MSTORE PUSH1 0x64 ADD PUSH2 0xC05 JUMP JUMPDEST DUP1 MLOAD PUSH1 0x0 SWAP1 DUP2 MSTORE PUSH1 0x3 PUSH1 0x20 SWAP1 DUP2 MSTORE PUSH1 0x40 SWAP1 SWAP2 KECCAK256 DUP3 MLOAD DUP2 SSTORE SWAP1 DUP3 ADD MLOAD DUP3 SWAP2 SWAP1 PUSH1 0x1 DUP3 ADD SWAP1 PUSH2 0x166E SWAP1 DUP3 PUSH2 0x3476 JUMP JUMPDEST POP PUSH1 0x40 DUP3 ADD MLOAD DUP1 MLOAD PUSH2 0x168A SWAP2 PUSH1 0x2 DUP5 ADD SWAP2 PUSH1 0x20 SWAP1 SWAP2 ADD SWAP1 PUSH2 0x2BA6 JUMP JUMPDEST POP PUSH1 0x60 DUP3 ADD MLOAD DUP1 MLOAD PUSH2 0x16A6 SWAP2 PUSH1 0x3 DUP5 ADD SWAP2 PUSH1 0x20 SWAP1 SWAP2 ADD SWAP1 PUSH2 0x2BA6 JUMP JUMPDEST POP PUSH1 0x80 DUP3 ADD MLOAD PUSH1 0x4 DUP3 ADD SSTORE PUSH1 0xA0 DUP3 ADD MLOAD PUSH1 0x5 DUP3 ADD DUP1 SLOAD PUSH1 0xC0 DUP6 ADD MLOAD ISZERO ISZERO PUSH1 0x1 PUSH1 0xA0 SHL MUL PUSH1 0x1 PUSH1 0x1 PUSH1 0xA8 SHL SUB NOT SWAP1 SWAP2 AND PUSH1 0x1 PUSH1 0x1 PUSH1 0xA0 SHL SUB SWAP1 SWAP4 AND SWAP3 SWAP1 SWAP3 OR SWAP2 SWAP1 SWAP2 OR SWAP1 SSTORE PUSH1 0xE0 DUP3 ADD MLOAD PUSH1 0x6 DUP3 ADD SSTORE PUSH2 0x100 SWAP1 SWAP2 ADD MLOAD PUSH1 0x7 SWAP1 SWAP2 ADD SSTORE POP JUMP JUMPDEST PUSH2 0x10B2 PUSH2 0x2A67 JUMP JUMPDEST PUSH2 0x1714 PUSH2 0x2A67 JUMP JUMPDEST PUSH1 0x0 SWAP1 DUP2 MSTORE PUSH1 0x3 PUSH1 0x20 MSTORE PUSH1 0x40 SWAP1 KECCAK256 PUSH1 0x5 ADD DUP1 SLOAD PUSH1 0xFF PUSH1 0xA0 SHL NOT AND SWAP1 SSTORE JUMP JUMPDEST PUSH2 0x173A PUSH2 0x2A67 JUMP JUMPDEST PUSH2 0x1053 PUSH1 0x0 PUSH2 0x2AE9 JUMP JUMPDEST PUSH1 0x60 PUSH1 0x0 DUP3 PUSH8 0xFFFFFFFFFFFFFFFF DUP2 GT ISZERO PUSH2 0x1761 JUMPI PUSH2 0x1761 PUSH2 0x2CC5 JUMP JUMPDEST PUSH1 0x40 MLOAD SWAP1 DUP1 DUP3 MSTORE DUP1 PUSH1 0x20 MUL PUSH1 0x20 ADD DUP3 ADD PUSH1 0x40 MSTORE DUP1 ISZERO PUSH2 0x17C1 JUMPI DUP2 PUSH1 0x20 ADD JUMPDEST PUSH1 0x40 DUP1 MLOAD PUSH1 0xC0 DUP2 ADD DUP3 MSTORE PUSH1 0x0 DUP1 DUP3 MSTORE PUSH1 0x20 DUP1 DUP4 ADD DUP3 SWAP1 MSTORE SWAP3 DUP3 ADD DUP2 SWAP1 MSTORE PUSH1 0x60 DUP3 ADD DUP2 SWAP1 MSTORE PUSH1 0x80 DUP3 ADD DUP2 SWAP1 MSTORE PUSH1 0xA0 DUP3 ADD MSTORE DUP3 MSTORE PUSH1 0x0 NOT SWAP1 SWAP3 ADD SWAP2 ADD DUP2 PUSH2 0x177F JUMPI SWAP1 POP JUMPDEST POP SWAP1 POP PUSH1 0x0 JUMPDEST DUP4 DUP2 LT ISZERO PUSH2 0x188D JUMPI PUSH1 0x1 PUSH1 0x1 PUSH1 0xA0 SHL SUB DUP7 AND PUSH1 0x0 SWAP1 DUP2 MSTORE PUSH1 0x5 PUSH1 0x20 MSTORE PUSH1 0x40 DUP2 KECCAK256 SWAP1 DUP7 DUP7 DUP5 DUP2 DUP2 LT PUSH2 0x17FA JUMPI PUSH2 0x17FA PUSH2 0x338D JUMP JUMPDEST PUSH1 0x20 SWAP1 DUP2 MUL SWAP3 SWAP1 SWAP3 ADD CALLDATALOAD DUP4 MSTORE POP DUP2 DUP2 ADD SWAP3 SWAP1 SWAP3 MSTORE PUSH1 0x40 SWAP1 DUP2 ADD PUSH1 0x0 KECCAK256 DUP2 MLOAD PUSH1 0xC0 DUP2 ADD DUP4 MSTORE DUP2 SLOAD DUP2 MSTORE PUSH1 0x1 DUP3 ADD SLOAD SWAP4 DUP2 ADD SWAP4 SWAP1 SWAP4 MSTORE PUSH1 0x2 DUP2 ADD SLOAD SWAP2 DUP4 ADD SWAP2 SWAP1 SWAP2 MSTORE PUSH1 0x3 ADD SLOAD PUSH2 0xFFFF DUP1 DUP3 AND PUSH1 0x60 DUP5 ADD MSTORE PUSH3 0x10000 DUP3 DIV AND PUSH1 0x80 DUP4 ADD MSTORE PUSH1 0x1 PUSH1 0x20 SHL SWAP1 DIV PUSH1 0xFF AND ISZERO ISZERO PUSH1 0xA0 DUP3 ADD MSTORE DUP3 MLOAD DUP4 SWAP1 DUP4 SWAP1 DUP2 LT PUSH2 0x187A JUMPI PUSH2 0x187A PUSH2 0x338D JUMP JUMPDEST PUSH1 0x20 SWAP1 DUP2 MUL SWAP2 SWAP1 SWAP2 ADD ADD MSTORE PUSH1 0x1 ADD PUSH2 0x17C7 JUMP JUMPDEST POP SWAP5 SWAP4 POP POP POP POP JUMP JUMPDEST PUSH2 0x189E PUSH2 0x2A12 JUMP JUMPDEST PUSH2 0x18A6 PUSH2 0x2A3D JUMP JUMPDEST CALLER PUSH1 0x0 SWAP1 DUP2 MSTORE PUSH1 0x4 PUSH1 0x20 SWAP1 DUP2 MSTORE PUSH1 0x40 DUP1 DUP4 KECCAK256 DUP5 DUP5 MSTORE SWAP1 SWAP2 MSTORE SWAP1 KECCAK256 SLOAD PUSH2 0x18FA JUMPI PUSH1 0x40 MLOAD PUSH3 0x461BCD PUSH1 0xE5 SHL DUP2 MSTORE PUSH1 0x20 PUSH1 0x4 DUP3 ADD MSTORE PUSH1 0xA PUSH1 0x24 DUP3 ADD MSTORE PUSH10 0x4E6F2075706772616465 PUSH1 0xB0 SHL PUSH1 0x44 DUP3 ADD MSTORE PUSH1 0x64 ADD PUSH2 0xC05 JUMP JUMPDEST PUSH1 0x0 DUP2 DUP2 MSTORE PUSH1 0x2 PUSH1 0x20 MSTORE PUSH1 0x40 SWAP1 KECCAK256 PUSH1 0x7 DUP2 ADD SLOAD PUSH1 0x1 PUSH1 0x20 SHL SWAP1 DIV PUSH1 0xFF AND DUP1 ISZERO PUSH2 0x1929 JUMPI POP PUSH1 0x2 DUP1 DUP3 ADD SLOAD PUSH1 0xFF AND EQ JUMPDEST PUSH2 0x1967 JUMPI PUSH1 0x40 MLOAD PUSH3 0x461BCD PUSH1 0xE5 SHL DUP2 MSTORE PUSH1 0x20 PUSH1 0x4 DUP3 ADD MSTORE PUSH1 0xF PUSH1 0x24 DUP3 ADD MSTORE PUSH15 0x496E76616C69642075706772616465 PUSH1 0x88 SHL PUSH1 0x44 DUP3 ADD MSTORE PUSH1 0x64 ADD PUSH2 0xC05 JUMP JUMPDEST CALLER PUSH1 0x0 SWAP1 DUP2 MSTORE PUSH1 0x4 PUSH1 0x20 SWAP1 DUP2 MSTORE PUSH1 0x40 DUP1 DUP4 KECCAK256 DUP6 DUP5 MSTORE SWAP1 SWAP2 MSTORE DUP2 KECCAK256 DUP1 SLOAD PUSH1 0x1 SWAP3 SWAP1 PUSH2 0x1992 SWAP1 DUP5 SWAP1 PUSH2 0x3367 JUMP JUMPDEST SWAP1 SWAP2 SSTORE POP POP CALLER PUSH1 0x0 SWAP1 DUP2 MSTORE PUSH1 0xA PUSH1 0x20 MSTORE PUSH1 0x40 DUP2 KECCAK256 DUP1 SLOAD PUSH1 0x1 SWAP3 SWAP1 PUSH2 0x19B7 SWAP1 DUP5 SWAP1 PUSH2 0x337A JUMP JUMPDEST SWAP1 SWAP2 SSTORE POP POP PUSH1 0x40 MLOAD DUP3 DUP2 MSTORE CALLER SWAP1 PUSH32 0x64DF0F68D7580B0900ECE6245824A2CC4C50B47A830E4B867313ABC3F3B516C8 SWAP1 PUSH1 0x20 ADD PUSH1 0x40 MLOAD DUP1 SWAP2 SUB SWAP1 LOG2 POP PUSH2 0x19FB PUSH1 0x1 DUP1 SSTORE JUMP JUMPDEST POP JUMP JUMPDEST PUSH2 0x1A06 PUSH2 0x2A12 JUMP JUMPDEST PUSH2 0x1A0E PUSH2 0x2A3D JUMP JUMPDEST CALLER PUSH1 0x0 SWAP1 DUP2 MSTORE PUSH1 0x6 PUSH1 0x20 MSTORE PUSH1 0x40 DUP2 KECCAK256 SLOAD PUSH2 0x1A2A SWAP1 PUSH1 0x7 SWAP1 PUSH2 0x3582 JUMP JUMPDEST CALLER PUSH1 0x0 SWAP1 DUP2 MSTORE PUSH1 0x7 PUSH1 0x20 MSTORE PUSH1 0x40 SWAP1 KECCAK256 SLOAD SWAP1 SWAP2 POP PUSH2 0x1A4A SWAP1 PUSH3 0x15180 PUSH2 0x337A JUMP JUMPDEST TIMESTAMP GT PUSH2 0x1A90 JUMPI PUSH1 0x40 MLOAD PUSH3 0x461BCD PUSH1 0xE5 SHL DUP2 MSTORE PUSH1 0x20 PUSH1 0x4 DUP3 ADD MSTORE PUSH1 0x15 PUSH1 0x24 DUP3 ADD MSTORE PUSH21 0x416C726561647920636C61696D656420746F646179 PUSH1 0x58 SHL PUSH1 0x44 DUP3 ADD MSTORE PUSH1 0x64 ADD PUSH2 0xC05 JUMP JUMPDEST PUSH1 0x0 PUSH1 0xF DUP3 PUSH1 0x7 DUP2 LT PUSH2 0x1AA5 JUMPI PUSH2 0x1AA5 PUSH2 0x338D JUMP JUMPDEST ADD SLOAD CALLER PUSH1 0x0 SWAP1 DUP2 MSTORE PUSH1 0xC PUSH1 0x20 MSTORE PUSH1 0x40 DUP2 KECCAK256 DUP1 SLOAD SWAP3 SWAP4 POP DUP4 SWAP3 SWAP1 SWAP2 SWAP1 PUSH2 0x1ACB SWAP1 DUP5 SWAP1 PUSH2 0x337A JUMP JUMPDEST SWAP1 SWAP2 SSTORE POP POP CALLER PUSH1 0x0 SWAP1 DUP2 MSTORE PUSH1 0x6 PUSH1 0x20 MSTORE PUSH1 0x40 DUP2 KECCAK256 DUP1 SLOAD PUSH1 0x1 SWAP3 SWAP1 PUSH2 0x1AF0 SWAP1 DUP5 SWAP1 PUSH2 0x337A JUMP JUMPDEST SWAP1 SWAP2 SSTORE POP POP CALLER PUSH1 0x0 DUP2 DUP2 MSTORE PUSH1 0x7 PUSH1 0x20 MSTORE PUSH1 0x40 SWAP1 KECCAK256 TIMESTAMP SWAP1 SSTORE PUSH32 0x564485E821CF8BA18A499F35679B99B9FBA6F9886A625DD2A70B79DA8CB5BA06 PUSH2 0x1B33 DUP5 PUSH1 0x1 PUSH2 0x337A JUMP JUMPDEST PUSH1 0x40 DUP1 MLOAD SWAP2 DUP3 MSTORE PUSH1 0x20 DUP3 ADD DUP6 SWAP1 MSTORE ADD PUSH1 0x40 MLOAD DUP1 SWAP2 SUB SWAP1 LOG2 POP POP PUSH2 0x1053 PUSH1 0x1 DUP1 SSTORE JUMP JUMPDEST PUSH2 0x1B5D PUSH2 0x2A67 JUMP JUMPDEST PUSH2 0x1053 PUSH2 0x2B39 JUMP JUMPDEST PUSH1 0x60 PUSH1 0x0 DUP3 PUSH8 0xFFFFFFFFFFFFFFFF DUP2 GT ISZERO PUSH2 0x1B82 JUMPI PUSH2 0x1B82 PUSH2 0x2CC5 JUMP JUMPDEST PUSH1 0x40 MLOAD SWAP1 DUP1 DUP3 MSTORE DUP1 PUSH1 0x20 MUL PUSH1 0x20 ADD DUP3 ADD PUSH1 0x40 MSTORE DUP1 ISZERO PUSH2 0x1BAB JUMPI DUP2 PUSH1 0x20 ADD PUSH1 0x20 DUP3 MUL DUP1 CALLDATASIZE DUP4 CALLDATACOPY ADD SWAP1 POP JUMPDEST POP SWAP1 POP PUSH1 0x0 JUMPDEST DUP4 DUP2 LT ISZERO PUSH2 0x188D JUMPI PUSH1 0x1 PUSH1 0x1 PUSH1 0xA0 SHL SUB DUP7 AND PUSH1 0x0 SWAP1 DUP2 MSTORE PUSH1 0x4 PUSH1 0x20 MSTORE PUSH1 0x40 DUP2 KECCAK256 SWAP1 DUP7 DUP7 DUP5 DUP2 DUP2 LT PUSH2 0x1BE4 JUMPI PUSH2 0x1BE4 PUSH2 0x338D JUMP JUMPDEST SWAP1 POP PUSH1 0x20 MUL ADD CALLDATALOAD DUP2 MSTORE PUSH1 0x20 ADD SWAP1 DUP2 MSTORE PUSH1 0x20 ADD PUSH1 0x0 KECCAK256 SLOAD DUP3 DUP3 DUP2 MLOAD DUP2 LT PUSH2 0x1C0C JUMPI PUSH2 0x1C0C PUSH2 0x338D JUMP JUMPDEST PUSH1 0x20 SWAP1 DUP2 MUL SWAP2 SWAP1 SWAP2 ADD ADD MSTORE PUSH1 0x1 ADD PUSH2 0x1BB1 JUMP JUMPDEST PUSH2 0x1C27 PUSH2 0x2A67 JUMP JUMPDEST PUSH1 0x40 MLOAD PUSH4 0x70A08231 PUSH1 0xE0 SHL DUP2 MSTORE ADDRESS PUSH1 0x4 DUP3 ADD MSTORE PUSH1 0x0 SWAP1 PUSH1 0x1 PUSH1 0x1 PUSH1 0xA0 SHL SUB DUP4 AND SWAP1 PUSH4 0x70A08231 SWAP1 PUSH1 0x24 ADD PUSH1 0x20 PUSH1 0x40 MLOAD DUP1 DUP4 SUB DUP2 DUP7 GAS STATICCALL ISZERO DUP1 ISZERO PUSH2 0x1C6E JUMPI RETURNDATASIZE PUSH1 0x0 DUP1 RETURNDATACOPY RETURNDATASIZE PUSH1 0x0 REVERT JUMPDEST POP POP POP POP PUSH1 0x40 MLOAD RETURNDATASIZE PUSH1 0x1F NOT PUSH1 0x1F DUP3 ADD AND DUP3 ADD DUP1 PUSH1 0x40 MSTORE POP DUP2 ADD SWAP1 PUSH2 0x1C92 SWAP2 SWAP1 PUSH2 0x3596 JUMP JUMPDEST SWAP1 POP PUSH1 0x0 DUP2 GT PUSH2 0x1CD1 JUMPI PUSH1 0x40 MLOAD PUSH3 0x461BCD PUSH1 0xE5 SHL DUP2 MSTORE PUSH1 0x20 PUSH1 0x4 DUP3 ADD MSTORE PUSH1 0xA PUSH1 0x24 DUP3 ADD MSTORE PUSH10 0x4E6F2062616C616E6365 PUSH1 0xB0 SHL PUSH1 0x44 DUP3 ADD MSTORE PUSH1 0x64 ADD PUSH2 0xC05 JUMP JUMPDEST PUSH1 0x40 MLOAD PUSH4 0xA9059CBB PUSH1 0xE0 SHL DUP2 MSTORE CALLER PUSH1 0x4 DUP3 ADD MSTORE PUSH1 0x24 DUP2 ADD DUP3 SWAP1 MSTORE PUSH1 0x1 PUSH1 0x1 PUSH1 0xA0 SHL SUB DUP4 AND SWAP1 PUSH4 0xA9059CBB SWAP1 PUSH1 0x44 ADD PUSH1 0x20 PUSH1 0x40 MLOAD DUP1 DUP4 SUB DUP2 PUSH1 0x0 DUP8 GAS CALL ISZERO DUP1 ISZERO PUSH2 0x1D1E JUMPI RETURNDATASIZE PUSH1 0x0 DUP1 RETURNDATACOPY RETURNDATASIZE PUSH1 0x0 REVERT JUMPDEST POP POP POP POP PUSH1 0x40 MLOAD RETURNDATASIZE PUSH1 0x1F NOT PUSH1 0x1F DUP3 ADD AND DUP3 ADD DUP1 PUSH1 0x40 MSTORE POP DUP2 ADD SWAP1 PUSH2 0xEF9 SWAP2 SWAP1 PUSH2 0x334A JUMP JUMPDEST PUSH2 0x1D4A PUSH2 0x2A67 JUMP JUMPDEST PUSH1 0x16 DUP1 SLOAD PUSH1 0x1 PUSH1 0x1 PUSH1 0xA0 SHL SUB NOT AND PUSH1 0x1 PUSH1 0x1 PUSH1 0xA0 SHL SUB SWAP3 SWAP1 SWAP3 AND SWAP2 SWAP1 SWAP2 OR SWAP1 SSTORE JUMP JUMPDEST PUSH2 0x1D74 PUSH2 0x2A67 JUMP JUMPDEST PUSH1 0x1 PUSH1 0x1 PUSH1 0xA0 SHL SUB DUP2 AND PUSH1 0x0 DUP2 DUP2 MSTORE PUSH1 0xE PUSH1 0x20 SWAP1 DUP2 MSTORE PUSH1 0x40 SWAP2 DUP3 SWAP1 KECCAK256 DUP1 SLOAD PUSH1 0xFF NOT AND SWAP1 SSTORE SWAP1 MLOAD SWAP2 DUP3 MSTORE PUSH32 0x85A3E72F8DD6DB3794F93109C3C5F5B79D6112F6979431C45F98B26134B42AF2 SWAP2 ADD PUSH2 0x1205 JUMP JUMPDEST PUSH1 0xF DUP2 PUSH1 0x7 DUP2 LT PUSH2 0x1DD5 JUMPI PUSH1 0x0 DUP1 REVERT JUMPDEST ADD SLOAD SWAP1 POP DUP2 JUMP JUMPDEST PUSH1 0x2 PUSH1 0x20 MSTORE PUSH1 0x0 SWAP1 DUP2 MSTORE PUSH1 0x40 SWAP1 KECCAK256 DUP1 SLOAD PUSH1 0x1 DUP3 ADD DUP1 SLOAD SWAP2 SWAP3 SWAP2 PUSH2 0x1DFE SWAP1 PUSH2 0x33EC JUMP JUMPDEST DUP1 PUSH1 0x1F ADD PUSH1 0x20 DUP1 SWAP2 DIV MUL PUSH1 0x20 ADD PUSH1 0x40 MLOAD SWAP1 DUP2 ADD PUSH1 0x40 MSTORE DUP1 SWAP3 SWAP2 SWAP1 DUP2 DUP2 MSTORE PUSH1 0x20 ADD DUP3 DUP1 SLOAD PUSH2 0x1E2A SWAP1 PUSH2 0x33EC JUMP JUMPDEST DUP1 ISZERO PUSH2 0x1E77 JUMPI DUP1 PUSH1 0x1F LT PUSH2 0x1E4C JUMPI PUSH2 0x100 DUP1 DUP4 SLOAD DIV MUL DUP4 MSTORE SWAP2 PUSH1 0x20 ADD SWAP2 PUSH2 0x1E77 JUMP JUMPDEST DUP3 ADD SWAP2 SWAP1 PUSH1 0x0 MSTORE PUSH1 0x20 PUSH1 0x0 KECCAK256 SWAP1 JUMPDEST DUP2 SLOAD DUP2 MSTORE SWAP1 PUSH1 0x1 ADD SWAP1 PUSH1 0x20 ADD DUP1 DUP4 GT PUSH2 0x1E5A JUMPI DUP3 SWAP1 SUB PUSH1 0x1F AND DUP3 ADD SWAP2 JUMPDEST POP POP POP POP PUSH1 0x2 DUP4 ADD SLOAD PUSH1 0x3 DUP5 ADD SLOAD PUSH1 0x4 DUP6 ADD SLOAD PUSH1 0x5 DUP7 ADD SLOAD PUSH1 0x6 DUP8 ADD SLOAD PUSH1 0x7 DUP9 ADD SLOAD PUSH1 0x8 DUP10 ADD SLOAD PUSH1 0x9 SWAP1 SWAP10 ADD SLOAD SWAP8 SWAP9 PUSH1 0xFF SWAP7 DUP8 AND SWAP9 SWAP6 SWAP8 POP PUSH1 0x1 PUSH1 0x1 PUSH1 0xA0 SHL SUB SWAP1 SWAP5 AND SWAP6 SWAP3 SWAP5 SWAP2 SWAP4 PUSH2 0xFFFF DUP1 DUP4 AND SWAP5 PUSH3 0x10000 DUP5 DIV SWAP1 SWAP2 AND SWAP4 PUSH1 0x1 PUSH1 0x20 SHL SWAP1 SWAP4 DIV AND SWAP2 DUP13 JUMP JUMPDEST PUSH2 0x1EE5 PUSH2 0x2A67 JUMP JUMPDEST PUSH1 0x0 DUP3 DUP2 MSTORE PUSH1 0x2 PUSH1 0x20 MSTORE PUSH1 0x40 DUP2 KECCAK256 SLOAD SWAP1 SUB PUSH2 0x1F38 JUMPI PUSH1 0x40 MLOAD PUSH3 0x461BCD PUSH1 0xE5 SHL DUP2 MSTORE PUSH1 0x20 PUSH1 0x4 DUP3 ADD MSTORE PUSH1 0x13 PUSH1 0x24 DUP3 ADD MSTORE PUSH19 0x125D195B48191BD95CC81B9BDD08195E1A5CDD PUSH1 0x6A SHL PUSH1 0x44 DUP3 ADD MSTORE PUSH1 0x64 ADD PUSH2 0xC05 JUMP JUMPDEST PUSH1 0x0 SWAP2 DUP3 MSTORE PUSH1 0x2 PUSH1 0x20 MSTORE PUSH1 0x40 SWAP1 SWAP2 KECCAK256 PUSH1 0x8 DUP2 ADD DUP3 SWAP1 SSTORE PUSH1 0x9 ADD SSTORE JUMP JUMPDEST PUSH2 0x1F5C PUSH2 0x2A3D JUMP JUMPDEST CALLER PUSH1 0x0 SWAP1 DUP2 MSTORE PUSH1 0xC PUSH1 0x20 MSTORE PUSH1 0x40 SWAP1 KECCAK256 SLOAD PUSH9 0x1158E460913D00000 DUP2 LT ISZERO PUSH2 0x1FC5 JUMPI PUSH1 0x40 MLOAD PUSH3 0x461BCD PUSH1 0xE5 SHL DUP2 MSTORE PUSH1 0x20 PUSH1 0x4 DUP3 ADD MSTORE PUSH1 0x1B PUSH1 0x24 DUP3 ADD MSTORE PUSH32 0x4D75737420636C61696D206174206C6561737420323020524953450000000000 PUSH1 0x44 DUP3 ADD MSTORE PUSH1 0x64 ADD PUSH2 0xC05 JUMP JUMPDEST CALLER PUSH1 0x0 DUP2 DUP2 MSTORE PUSH1 0xC PUSH1 0x20 MSTORE PUSH1 0x40 DUP1 DUP3 KECCAK256 SWAP2 SWAP1 SWAP2 SSTORE PUSH1 0x16 SLOAD SWAP1 MLOAD PUSH4 0xA9059CBB PUSH1 0xE0 SHL DUP2 MSTORE PUSH1 0x4 DUP2 ADD SWAP3 SWAP1 SWAP3 MSTORE PUSH1 0x24 DUP3 ADD DUP4 SWAP1 MSTORE PUSH1 0x1 PUSH1 0x1 PUSH1 0xA0 SHL SUB AND SWAP1 PUSH4 0xA9059CBB SWAP1 PUSH1 0x44 ADD PUSH1 0x20 PUSH1 0x40 MLOAD DUP1 DUP4 SUB DUP2 PUSH1 0x0 DUP8 GAS CALL ISZERO DUP1 ISZERO PUSH2 0x2029 JUMPI RETURNDATASIZE PUSH1 0x0 DUP1 RETURNDATACOPY RETURNDATASIZE PUSH1 0x0 REVERT JUMPDEST POP POP POP POP PUSH1 0x40 MLOAD RETURNDATASIZE PUSH1 0x1F NOT PUSH1 0x1F DUP3 ADD AND DUP3 ADD DUP1 PUSH1 0x40 MSTORE POP DUP2 ADD SWAP1 PUSH2 0x204D SWAP2 SWAP1 PUSH2 0x334A JUMP JUMPDEST PUSH2 0x208B JUMPI PUSH1 0x40 MLOAD PUSH3 0x461BCD PUSH1 0xE5 SHL DUP2 MSTORE PUSH1 0x20 PUSH1 0x4 DUP3 ADD MSTORE PUSH1 0xF PUSH1 0x24 DUP3 ADD MSTORE PUSH15 0x151C985B9CD9995C8819985A5B1959 PUSH1 0x8A SHL PUSH1 0x44 DUP3 ADD MSTORE PUSH1 0x64 ADD PUSH2 0xC05 JUMP JUMPDEST PUSH1 0x40 MLOAD DUP2 DUP2 MSTORE CALLER SWAP1 PUSH32 0x2988752F8FCB52B8C982219DEEFD82A981754ED258F421467A7133874BA9F290 SWAP1 PUSH1 0x20 ADD PUSH1 0x40 MLOAD DUP1 SWAP2 SUB SWAP1 LOG2 POP PUSH2 0x1053 PUSH1 0x1 DUP1 SSTORE JUMP JUMPDEST PUSH1 0x3 PUSH1 0x20 MSTORE PUSH1 0x0 SWAP1 DUP2 MSTORE PUSH1 0x40 SWAP1 KECCAK256 DUP1 SLOAD PUSH1 0x1 DUP3 ADD DUP1 SLOAD SWAP2 SWAP3 SWAP2 PUSH2 0x20EC SWAP1 PUSH2 0x33EC JUMP JUMPDEST DUP1 PUSH1 0x1F ADD PUSH1 0x20 DUP1 SWAP2 DIV MUL PUSH1 0x20 ADD PUSH1 0x40 MLOAD SWAP1 DUP2 ADD PUSH1 0x40 MSTORE DUP1 SWAP3 SWAP2 SWAP1 DUP2 DUP2 MSTORE PUSH1 0x20 ADD DUP3 DUP1 SLOAD PUSH2 0x2118 SWAP1 PUSH2 0x33EC JUMP JUMPDEST DUP1 ISZERO PUSH2 0x2165 JUMPI DUP1 PUSH1 0x1F LT PUSH2 0x213A JUMPI PUSH2 0x100 DUP1 DUP4 SLOAD DIV MUL DUP4 MSTORE SWAP2 PUSH1 0x20 ADD SWAP2 PUSH2 0x2165 JUMP JUMPDEST DUP3 ADD SWAP2 SWAP1 PUSH1 0x0 MSTORE PUSH1 0x20 PUSH1 0x0 KECCAK256 SWAP1 JUMPDEST DUP2 SLOAD DUP2 MSTORE SWAP1 PUSH1 0x1 ADD SWAP1 PUSH1 0x20 ADD DUP1 DUP4 GT PUSH2 0x2148 JUMPI DUP3 SWAP1 SUB PUSH1 0x1F AND DUP3 ADD SWAP2 JUMPDEST POP POP POP POP PUSH1 0x4 DUP4 ADD SLOAD PUSH1 0x5 DUP5 ADD SLOAD PUSH1 0x6 DUP6 ADD SLOAD PUSH1 0x7 SWAP1 SWAP6 ADD SLOAD SWAP4 SWAP5 SWAP2 SWAP4 PUSH1 0x1 PUSH1 0x1 PUSH1 0xA0 SHL SUB DUP3 AND SWAP4 POP PUSH1 0x1 PUSH1 0xA0 SHL SWAP1 SWAP2 DIV PUSH1 0xFF AND SWAP2 SWAP1 DUP8 JUMP JUMPDEST PUSH2 0x21A6 PUSH2 0x2A12 JUMP JUMPDEST PUSH2 0x21AE PUSH2 0x2A3D JUMP JUMPDEST CALLER PUSH1 0x0 SWAP1 DUP2 MSTORE PUSH1 0x5 PUSH1 0x20 SWAP1 DUP2 MSTORE PUSH1 0x40 DUP1 DUP4 KECCAK256 DUP5 DUP5 MSTORE SWAP1 SWAP2 MSTORE SWAP1 KECCAK256 PUSH1 0x3 DUP2 ADD SLOAD PUSH1 0x1 PUSH1 0x20 SHL SWAP1 DIV PUSH1 0xFF AND PUSH2 0x2215 JUMPI PUSH1 0x40 MLOAD PUSH3 0x461BCD PUSH1 0xE5 SHL DUP2 MSTORE PUSH1 0x20 PUSH1 0x4 DUP3 ADD MSTORE PUSH1 0xF PUSH1 0x24 DUP3 ADD MSTORE PUSH15 0x4E6F7468696E672067726F77696E67 PUSH1 0x88 SHL PUSH1 0x44 DUP3 ADD MSTORE PUSH1 0x64 ADD PUSH2 0xC05 JUMP JUMPDEST DUP1 PUSH1 0x2 ADD SLOAD TIMESTAMP LT ISZERO PUSH2 0x2255 JUMPI PUSH1 0x40 MLOAD PUSH3 0x461BCD PUSH1 0xE5 SHL DUP2 MSTORE PUSH1 0x20 PUSH1 0x4 DUP3 ADD MSTORE PUSH1 0x9 PUSH1 0x24 DUP3 ADD MSTORE PUSH9 0x4E6F74207265616479 PUSH1 0xB8 SHL PUSH1 0x44 DUP3 ADD MSTORE PUSH1 0x64 ADD PUSH2 0xC05 JUMP JUMPDEST DUP1 SLOAD PUSH1 0x0 SWAP1 DUP2 MSTORE PUSH1 0x2 PUSH1 0x20 DUP2 SWAP1 MSTORE PUSH1 0x40 SWAP1 SWAP2 KECCAK256 SWAP1 DUP2 ADD SLOAD PUSH1 0xFF AND ISZERO PUSH2 0x22A9 JUMPI PUSH1 0x40 MLOAD PUSH3 0x461BCD PUSH1 0xE5 SHL DUP2 MSTORE PUSH1 0x20 PUSH1 0x4 DUP3 ADD MSTORE PUSH1 0xA PUSH1 0x24 DUP3 ADD MSTORE PUSH10 0x139BDD0818481CD95959 PUSH1 0xB2 SHL PUSH1 0x44 DUP3 ADD MSTORE PUSH1 0x64 ADD PUSH2 0xC05 JUMP JUMPDEST PUSH1 0x3 DUP3 ADD SLOAD PUSH1 0x46 PUSH2 0xFFFF SWAP1 SWAP2 AND GT ISZERO PUSH2 0x2300 JUMPI PUSH1 0x40 MLOAD PUSH3 0x461BCD PUSH1 0xE5 SHL DUP2 MSTORE PUSH1 0x20 PUSH1 0x4 DUP3 ADD MSTORE PUSH1 0x19 PUSH1 0x24 DUP3 ADD MSTORE PUSH25 0x47726F77746820626F6E7573206F7574206F662072616E6765 PUSH1 0x38 SHL PUSH1 0x44 DUP3 ADD MSTORE PUSH1 0x64 ADD PUSH2 0xC05 JUMP JUMPDEST PUSH1 0x3 DUP3 ADD SLOAD PUSH1 0x46 PUSH3 0x10000 SWAP1 SWAP2 DIV PUSH2 0xFFFF AND GT ISZERO PUSH2 0x235B JUMPI PUSH1 0x40 MLOAD PUSH3 0x461BCD PUSH1 0xE5 SHL DUP2 MSTORE PUSH1 0x20 PUSH1 0x4 DUP3 ADD MSTORE PUSH1 0x18 PUSH1 0x24 DUP3 ADD MSTORE PUSH24 0x5969656C6420626F6E7573206F7574206F662072616E6765 PUSH1 0x40 SHL PUSH1 0x44 DUP3 ADD MSTORE PUSH1 0x64 ADD PUSH2 0xC05 JUMP JUMPDEST PUSH1 0x3 DUP3 ADD SLOAD PUSH1 0x0 SWAP1 PUSH2 0x3E8 SWAP1 PUSH2 0x237B SWAP1 PUSH3 0x10000 SWAP1 DIV PUSH2 0xFFFF AND DUP3 PUSH2 0x35AF JUMP JUMPDEST PUSH2 0xFFFF AND DUP4 PUSH1 0x5 ADD SLOAD PUSH2 0x238E SWAP2 SWAP1 PUSH2 0x332D JUMP JUMPDEST PUSH2 0x2398 SWAP2 SWAP1 PUSH2 0x356E JUMP JUMPDEST CALLER PUSH1 0x0 SWAP1 DUP2 MSTORE PUSH1 0xC PUSH1 0x20 MSTORE PUSH1 0x40 DUP2 KECCAK256 DUP1 SLOAD SWAP3 SWAP4 POP DUP4 SWAP3 SWAP1 SWAP2 SWAP1 PUSH2 0x23BC SWAP1 DUP5 SWAP1 PUSH2 0x337A JUMP JUMPDEST SWAP1 SWAP2 SSTORE POP POP PUSH1 0x3 DUP4 ADD DUP1 SLOAD PUSH5 0xFF00000000 NOT AND SWAP1 SSTORE PUSH1 0x40 DUP1 MLOAD DUP6 DUP2 MSTORE PUSH1 0x20 DUP2 ADD DUP4 SWAP1 MSTORE CALLER SWAP2 PUSH32 0x81CA9B2C230070EAA84787556B1AAF18BF1E2F07EA5D3DAE4819DB77A1A5B224 SWAP2 ADD PUSH1 0x40 MLOAD DUP1 SWAP2 SUB SWAP1 LOG2 CALLER PUSH1 0x0 SWAP1 DUP2 MSTORE PUSH1 0xB PUSH1 0x20 MSTORE PUSH1 0x40 DUP2 KECCAK256 DUP1 SLOAD PUSH1 0x1 SWAP3 SWAP1 PUSH2 0x242C SWAP1 DUP5 SWAP1 PUSH2 0x337A JUMP JUMPDEST SWAP1 SWAP2 SSTORE POP POP PUSH1 0x1 DUP1 SSTORE POP PUSH2 0x19FB SWAP2 POP POP JUMP JUMPDEST PUSH2 0x2446 PUSH2 0x2A67 JUMP JUMPDEST PUSH1 0x40 MLOAD PUSH1 0x0 SWAP1 CALLER SWAP1 SELFBALANCE SWAP1 DUP4 DUP2 DUP2 DUP2 DUP6 DUP8 GAS CALL SWAP3 POP POP POP RETURNDATASIZE DUP1 PUSH1 0x0 DUP2 EQ PUSH2 0x2488 JUMPI PUSH1 0x40 MLOAD SWAP2 POP PUSH1 0x1F NOT PUSH1 0x3F RETURNDATASIZE ADD AND DUP3 ADD PUSH1 0x40 MSTORE RETURNDATASIZE DUP3 MSTORE RETURNDATASIZE PUSH1 0x0 PUSH1 0x20 DUP5 ADD RETURNDATACOPY PUSH2 0x248D JUMP JUMPDEST PUSH1 0x60 SWAP2 POP JUMPDEST POP POP SWAP1 POP DUP1 PUSH2 0x19FB JUMPI PUSH1 0x40 MLOAD PUSH3 0x461BCD PUSH1 0xE5 SHL DUP2 MSTORE PUSH1 0x20 PUSH1 0x4 DUP3 ADD MSTORE PUSH1 0xF PUSH1 0x24 DUP3 ADD MSTORE PUSH15 0x15DA5D1A191C985DC819985A5B1959 PUSH1 0x8A SHL PUSH1 0x44 DUP3 ADD MSTORE PUSH1 0x64 ADD PUSH2 0xC05 JUMP JUMPDEST PUSH2 0x24D8 PUSH2 0x2A12 JUMP JUMPDEST PUSH2 0x24E0 PUSH2 0x2A3D JUMP JUMPDEST CALLER PUSH1 0x0 SWAP1 DUP2 MSTORE PUSH1 0x4 PUSH1 0x20 SWAP1 DUP2 MSTORE PUSH1 0x40 DUP1 DUP4 KECCAK256 PUSH1 0x5 DUP5 MSTORE SWAP1 SWAP2 MSTORE SWAP1 KECCAK256 SLOAD PUSH2 0x253A JUMPI PUSH1 0x40 MLOAD PUSH3 0x461BCD PUSH1 0xE5 SHL DUP2 MSTORE PUSH1 0x20 PUSH1 0x4 DUP3 ADD MSTORE PUSH1 0xF PUSH1 0x24 DUP3 ADD MSTORE PUSH15 0x2737903BB0BA32B934B7339031B0B7 PUSH1 0x89 SHL PUSH1 0x44 DUP3 ADD MSTORE PUSH1 0x64 ADD PUSH2 0xC05 JUMP JUMPDEST CALLER PUSH1 0x0 SWAP1 DUP2 MSTORE PUSH1 0x4 PUSH1 0x20 SWAP1 DUP2 MSTORE PUSH1 0x40 DUP1 DUP4 KECCAK256 PUSH1 0x5 DUP5 MSTORE SWAP1 SWAP2 MSTORE DUP2 KECCAK256 DUP1 SLOAD PUSH1 0x1 SWAP3 SWAP1 PUSH2 0x2566 SWAP1 DUP5 SWAP1 PUSH2 0x3367 JUMP JUMPDEST SWAP1 SWAP2 SSTORE POP POP PUSH1 0x40 DUP1 MLOAD PUSH1 0x5 DUP2 MSTORE PUSH1 0x20 DUP2 ADD DUP4 SWAP1 MSTORE CALLER SWAP2 PUSH32 0xD29993D7389AAFEB1AE0EEBFCC0E2B777C314426C46ED802D5116187380125D5 SWAP2 ADD PUSH1 0x40 MLOAD DUP1 SWAP2 SUB SWAP1 LOG2 PUSH2 0x19FB PUSH1 0x1 DUP1 SSTORE JUMP JUMPDEST PUSH2 0x1641 PUSH2 0x2A67 JUMP JUMPDEST PUSH2 0x25C0 PUSH2 0x2A12 JUMP JUMPDEST PUSH2 0x25C8 PUSH2 0x2A3D JUMP JUMPDEST PUSH1 0x0 DUP4 DUP2 MSTORE PUSH1 0x3 PUSH1 0x20 MSTORE PUSH1 0x40 SWAP1 KECCAK256 PUSH1 0x5 DUP2 ADD SLOAD PUSH1 0x1 PUSH1 0xA0 SHL SWAP1 DIV PUSH1 0xFF AND PUSH2 0x2623 JUMPI PUSH1 0x40 MLOAD PUSH3 0x461BCD PUSH1 0xE5 SHL DUP2 MSTORE PUSH1 0x20 PUSH1 0x4 DUP3 ADD MSTORE PUSH1 0xF PUSH1 0x24 DUP3 ADD MSTORE PUSH15 0x42756E646C6520696E616374697665 PUSH1 0x88 SHL PUSH1 0x44 DUP3 ADD MSTORE PUSH1 0x64 ADD PUSH2 0xC05 JUMP JUMPDEST DUP3 DUP2 PUSH1 0x7 ADD SLOAD LT ISZERO PUSH2 0x2677 JUMPI PUSH1 0x40 MLOAD PUSH3 0x461BCD PUSH1 0xE5 SHL DUP2 MSTORE PUSH1 0x20 PUSH1 0x4 DUP3 ADD MSTORE PUSH1 0x1A PUSH1 0x24 DUP3 ADD MSTORE PUSH32 0x496E73756666696369656E742062756E646C6520737570706C79000000000000 PUSH1 0x44 DUP3 ADD MSTORE PUSH1 0x64 ADD PUSH2 0xC05 JUMP JUMPDEST PUSH1 0x0 PUSH1 0x1 PUSH1 0x1 PUSH1 0xA0 SHL SUB DUP4 AND ISZERO PUSH2 0x268F JUMPI PUSH1 0x0 PUSH2 0x269F JUMP JUMPDEST DUP4 DUP3 PUSH1 0x4 ADD SLOAD PUSH2 0x269F SWAP2 SWAP1 PUSH2 0x332D JUMP JUMPDEST SWAP1 POP PUSH1 0x1 PUSH1 0x1 PUSH1 0xA0 SHL SUB DUP4 AND PUSH2 0x26F7 JUMPI DUP1 CALLVALUE LT ISZERO PUSH2 0x26F2 JUMPI PUSH1 0x40 MLOAD PUSH3 0x461BCD PUSH1 0xE5 SHL DUP2 MSTORE PUSH1 0x20 PUSH1 0x4 DUP3 ADD MSTORE PUSH1 0x10 PUSH1 0x24 DUP3 ADD MSTORE PUSH16 0x92DCE6EACCCCD2C6D2CADCE8408AA89 PUSH1 0x83 SHL PUSH1 0x44 DUP3 ADD MSTORE PUSH1 0x64 ADD PUSH2 0xC05 JUMP JUMPDEST PUSH2 0x2770 JUMP JUMPDEST PUSH1 0x40 MLOAD PUSH4 0x23B872DD PUSH1 0xE0 SHL DUP2 MSTORE CALLER PUSH1 0x4 DUP3 ADD MSTORE ADDRESS PUSH1 0x24 DUP3 ADD MSTORE PUSH1 0x44 DUP2 ADD DUP3 SWAP1 MSTORE PUSH1 0x1 PUSH1 0x1 PUSH1 0xA0 SHL SUB DUP5 AND SWAP1 PUSH4 0x23B872DD SWAP1 PUSH1 0x64 ADD PUSH1 0x20 PUSH1 0x40 MLOAD DUP1 DUP4 SUB DUP2 PUSH1 0x0 DUP8 GAS CALL ISZERO DUP1 ISZERO PUSH2 0x274A JUMPI RETURNDATASIZE PUSH1 0x0 DUP1 RETURNDATACOPY RETURNDATASIZE PUSH1 0x0 REVERT JUMPDEST POP POP POP POP PUSH1 0x40 MLOAD RETURNDATASIZE PUSH1 0x1F NOT PUSH1 0x1F DUP3 ADD AND DUP3 ADD DUP1 PUSH1 0x40 MSTORE POP DUP2 ADD SWAP1 PUSH2 0x276E SWAP2 SWAP1 PUSH2 0x334A JUMP JUMPDEST POP JUMPDEST PUSH1 0x0 JUMPDEST PUSH1 0x2 DUP4 ADD SLOAD DUP2 LT ISZERO PUSH2 0x28A5 JUMPI PUSH1 0x0 DUP4 PUSH1 0x2 ADD DUP3 DUP2 SLOAD DUP2 LT PUSH2 0x2796 JUMPI PUSH2 0x2796 PUSH2 0x338D JUMP JUMPDEST SWAP1 PUSH1 0x0 MSTORE PUSH1 0x20 PUSH1 0x0 KECCAK256 ADD SLOAD SWAP1 POP PUSH1 0x0 DUP7 DUP6 PUSH1 0x3 ADD DUP5 DUP2 SLOAD DUP2 LT PUSH2 0x27BB JUMPI PUSH2 0x27BB PUSH2 0x338D JUMP JUMPDEST SWAP1 PUSH1 0x0 MSTORE PUSH1 0x20 PUSH1 0x0 KECCAK256 ADD SLOAD PUSH2 0x27D0 SWAP2 SWAP1 PUSH2 0x332D JUMP JUMPDEST PUSH1 0x0 DUP4 DUP2 MSTORE PUSH1 0x2 PUSH1 0x20 MSTORE PUSH1 0x40 SWAP1 KECCAK256 PUSH1 0x9 ADD SLOAD SWAP1 SWAP2 POP DUP2 GT ISZERO PUSH2 0x282A JUMPI PUSH1 0x40 MLOAD PUSH3 0x461BCD PUSH1 0xE5 SHL DUP2 MSTORE PUSH1 0x20 PUSH1 0x4 DUP3 ADD MSTORE PUSH1 0x13 PUSH1 0x24 DUP3 ADD MSTORE PUSH19 0x496E73756666696369656E7420737570706C79 PUSH1 0x68 SHL PUSH1 0x44 DUP3 ADD MSTORE PUSH1 0x64 ADD PUSH2 0xC05 JUMP JUMPDEST PUSH1 0x0 DUP3 DUP2 MSTORE PUSH1 0x2 PUSH1 0x20 MSTORE PUSH1 0x40 DUP2 KECCAK256 PUSH1 0x9 ADD DUP1 SLOAD DUP4 SWAP3 SWAP1 PUSH2 0x284B SWAP1 DUP5 SWAP1 PUSH2 0x3367 JUMP JUMPDEST SWAP1 SWAP2 SSTORE POP POP PUSH1 0x0 DUP3 DUP2 MSTORE PUSH1 0x2 PUSH1 0x20 DUP2 SWAP1 MSTORE PUSH1 0x40 DUP3 KECCAK256 ADD SLOAD PUSH1 0xFF AND SWAP1 SUB PUSH2 0x289B JUMPI CALLER PUSH1 0x0 SWAP1 DUP2 MSTORE PUSH1 0x18 PUSH1 0x20 SWAP1 DUP2 MSTORE PUSH1 0x40 DUP1 DUP4 KECCAK256 DUP6 DUP5 MSTORE SWAP1 SWAP2 MSTORE DUP2 KECCAK256 DUP1 SLOAD DUP4 SWAP3 SWAP1 PUSH2 0x2895 SWAP1 DUP5 SWAP1 PUSH2 0x337A JUMP JUMPDEST SWAP1 SWAP2 SSTORE POP POP JUMPDEST POP POP PUSH1 0x1 ADD PUSH2 0x2773 JUMP JUMPDEST POP DUP4 DUP3 PUSH1 0x7 ADD PUSH1 0x0 DUP3 DUP3 SLOAD PUSH2 0x28BA SWAP2 SWAP1 PUSH2 0x3367 JUMP JUMPDEST SWAP1 SWAP2 SSTORE POP PUSH1 0x0 SWAP1 POP JUMPDEST PUSH1 0x2 DUP4 ADD SLOAD DUP2 LT ISZERO PUSH2 0x2957 JUMPI DUP5 DUP4 PUSH1 0x3 ADD DUP3 DUP2 SLOAD DUP2 LT PUSH2 0x28E5 JUMPI PUSH2 0x28E5 PUSH2 0x338D JUMP JUMPDEST SWAP1 PUSH1 0x0 MSTORE PUSH1 0x20 PUSH1 0x0 KECCAK256 ADD SLOAD PUSH2 0x28FA SWAP2 SWAP1 PUSH2 0x332D JUMP JUMPDEST CALLER PUSH1 0x0 SWAP1 DUP2 MSTORE PUSH1 0x4 PUSH1 0x20 MSTORE PUSH1 0x40 DUP2 KECCAK256 PUSH1 0x2 DUP7 ADD DUP1 SLOAD SWAP2 SWAP3 SWAP2 DUP6 SWAP1 DUP2 LT PUSH2 0x2922 JUMPI PUSH2 0x2922 PUSH2 0x338D JUMP JUMPDEST SWAP1 PUSH1 0x0 MSTORE PUSH1 0x20 PUSH1 0x0 KECCAK256 ADD SLOAD DUP2 MSTORE PUSH1 0x20 ADD SWAP1 DUP2 MSTORE PUSH1 0x20 ADD PUSH1 0x0 KECCAK256 PUSH1 0x0 DUP3 DUP3 SLOAD PUSH2 0x294A SWAP2 SWAP1 PUSH2 0x337A JUMP JUMPDEST SWAP1 SWAP2 SSTORE POP POP PUSH1 0x1 ADD PUSH2 0x28C3 JUMP JUMPDEST POP CALLER PUSH1 0x1 PUSH1 0x1 PUSH1 0xA0 SHL SUB AND PUSH32 0x854931D3A8461AB9D0412C3E03F884C9911FBEC9854941D26B4C14D88C6B0550 DUP7 DUP5 PUSH1 0x2 ADD DUP6 PUSH1 0x3 ADD DUP6 PUSH1 0x40 MLOAD PUSH2 0x299D SWAP5 SWAP4 SWAP3 SWAP2 SWAP1 PUSH2 0x3600 JUMP JUMPDEST PUSH1 0x40 MLOAD DUP1 SWAP2 SUB SWAP1 LOG2 POP POP PUSH2 0xEF9 PUSH1 0x1 DUP1 SSTORE JUMP JUMPDEST PUSH2 0x29B8 PUSH2 0x2A67 JUMP JUMPDEST PUSH1 0x1 PUSH1 0x1 PUSH1 0xA0 SHL SUB DUP2 AND PUSH2 0x29E2 JUMPI PUSH1 0x40 MLOAD PUSH4 0x1E4FBDF7 PUSH1 0xE0 SHL DUP2 MSTORE PUSH1 0x0 PUSH1 0x4 DUP3 ADD MSTORE PUSH1 0x24 ADD PUSH2 0xC05 JUMP JUMPDEST PUSH2 0x19FB DUP2 PUSH2 0x2AE9 JUMP JUMPDEST PUSH2 0x29F3 PUSH2 0x2A67 JUMP JUMPDEST PUSH1 0x0 SWAP1 DUP2 MSTORE PUSH1 0x2 PUSH1 0x20 MSTORE PUSH1 0x40 SWAP1 KECCAK256 PUSH1 0x7 ADD DUP1 SLOAD PUSH5 0xFF00000000 NOT AND SWAP1 SSTORE JUMP JUMPDEST PUSH1 0x0 SLOAD PUSH1 0x1 PUSH1 0xA0 SHL SWAP1 DIV PUSH1 0xFF AND ISZERO PUSH2 0x1053 JUMPI PUSH1 0x40 MLOAD PUSH4 0xD93C0665 PUSH1 0xE0 SHL DUP2 MSTORE PUSH1 0x4 ADD PUSH1 0x40 MLOAD DUP1 SWAP2 SUB SWAP1 REVERT JUMPDEST PUSH1 0x2 PUSH1 0x1 SLOAD SUB PUSH2 0x2A60 JUMPI PUSH1 0x40 MLOAD PUSH4 0x3EE5AEB5 PUSH1 0xE0 SHL DUP2 MSTORE PUSH1 0x4 ADD PUSH1 0x40 MLOAD DUP1 SWAP2 SUB SWAP1 REVERT JUMPDEST PUSH1 0x2 PUSH1 0x1 SSTORE JUMP JUMPDEST PUSH1 0x0 SLOAD PUSH1 0x1 PUSH1 0x1 PUSH1 0xA0 SHL SUB AND CALLER EQ PUSH2 0x1053 JUMPI PUSH1 0x40 MLOAD PUSH4 0x118CDAA7 PUSH1 0xE0 SHL DUP2 MSTORE CALLER PUSH1 0x4 DUP3 ADD MSTORE PUSH1 0x24 ADD PUSH2 0xC05 JUMP JUMPDEST PUSH2 0x2A9C PUSH2 0x2B7C JUMP JUMPDEST PUSH1 0x0 DUP1 SLOAD PUSH1 0xFF PUSH1 0xA0 SHL NOT AND SWAP1 SSTORE PUSH32 0x5DB9EE0A495BF2E6FF9C91A7834C1BA4FDD244A5E8AA4E537BD38AEAE4B073AA CALLER JUMPDEST PUSH1 0x40 MLOAD PUSH1 0x1 PUSH1 0x1 PUSH1 0xA0 SHL SUB SWAP1 SWAP2 AND DUP2 MSTORE PUSH1 0x20 ADD PUSH1 0x40 MLOAD DUP1 SWAP2 SUB SWAP1 LOG1 JUMP JUMPDEST PUSH1 0x0 DUP1 SLOAD PUSH1 0x1 PUSH1 0x1 PUSH1 0xA0 SHL SUB DUP4 DUP2 AND PUSH1 0x1 PUSH1 0x1 PUSH1 0xA0 SHL SUB NOT DUP4 AND DUP2 OR DUP5 SSTORE PUSH1 0x40 MLOAD SWAP2 SWAP1 SWAP3 AND SWAP3 DUP4 SWAP2 PUSH32 0x8BE0079C531659141344CD1FD0A4F28419497F9722A3DAAFE3B4186F6B6457E0 SWAP2 SWAP1 LOG3 POP POP JUMP JUMPDEST PUSH2 0x2B41 PUSH2 0x2A12 JUMP JUMPDEST PUSH1 0x0 DUP1 SLOAD PUSH1 0xFF PUSH1 0xA0 SHL NOT AND PUSH1 0x1 PUSH1 0xA0 SHL OR SWAP1 SSTORE PUSH32 0x62E78CEA01BEE320CD4E420270B5EA74000D11B0C9F74754EBDBFC544B05A258 PUSH2 0x2ACC CALLER SWAP1 JUMP JUMPDEST PUSH1 0x0 SLOAD PUSH1 0x1 PUSH1 0xA0 SHL SWAP1 DIV PUSH1 0xFF AND PUSH2 0x1053 JUMPI PUSH1 0x40 MLOAD PUSH4 0x8DFC202B PUSH1 0xE0 SHL DUP2 MSTORE PUSH1 0x4 ADD PUSH1 0x40 MLOAD DUP1 SWAP2 SUB SWAP1 REVERT JUMPDEST DUP3 DUP1 SLOAD DUP3 DUP3 SSTORE SWAP1 PUSH1 0x0 MSTORE PUSH1 0x20 PUSH1 0x0 KECCAK256 SWAP1 DUP2 ADD SWAP3 DUP3 ISZERO PUSH2 0x2BE1 JUMPI SWAP2 PUSH1 0x20 MUL DUP3 ADD JUMPDEST DUP3 DUP2 GT ISZERO PUSH2 0x2BE1 JUMPI DUP3 MLOAD DUP3 SSTORE SWAP2 PUSH1 0x20 ADD SWAP2 SWAP1 PUSH1 0x1 ADD SWAP1 PUSH2 0x2BC6 JUMP JUMPDEST POP PUSH2 0x2BED SWAP3 SWAP2 POP PUSH2 0x2BF1 JUMP JUMPDEST POP SWAP1 JUMP JUMPDEST JUMPDEST DUP1 DUP3 GT ISZERO PUSH2 0x2BED JUMPI PUSH1 0x0 DUP2 SSTORE PUSH1 0x1 ADD PUSH2 0x2BF2 JUMP JUMPDEST DUP1 CALLDATALOAD PUSH1 0x1 PUSH1 0x1 PUSH1 0xA0 SHL SUB DUP2 AND DUP2 EQ PUSH2 0x2C1D JUMPI PUSH1 0x0 DUP1 REVERT JUMPDEST SWAP2 SWAP1 POP JUMP JUMPDEST PUSH1 0x0 DUP1 PUSH1 0x40 DUP4 DUP6 SUB SLT ISZERO PUSH2 0x2C35 JUMPI PUSH1 0x0 DUP1 REVERT JUMPDEST PUSH2 0x2C3E DUP4 PUSH2 0x2C06 JUMP JUMPDEST SWAP5 PUSH1 0x20 SWAP4 SWAP1 SWAP4 ADD CALLDATALOAD SWAP4 POP POP POP JUMP JUMPDEST PUSH1 0x0 PUSH1 0x20 DUP3 DUP5 SUB SLT ISZERO PUSH2 0x2C5E JUMPI PUSH1 0x0 DUP1 REVERT JUMPDEST PUSH2 0x2C67 DUP3 PUSH2 0x2C06 JUMP JUMPDEST SWAP4 SWAP3 POP POP POP JUMP JUMPDEST PUSH1 0x0 DUP1 PUSH1 0x0 PUSH1 0x60 DUP5 DUP7 SUB SLT ISZERO PUSH2 0x2C83 JUMPI PUSH1 0x0 DUP1 REVERT JUMPDEST DUP4 CALLDATALOAD SWAP3 POP PUSH1 0x20 DUP5 ADD CALLDATALOAD SWAP2 POP PUSH2 0x2C9A PUSH1 0x40 DUP6 ADD PUSH2 0x2C06 JUMP JUMPDEST SWAP1 POP SWAP3 POP SWAP3 POP SWAP3 JUMP JUMPDEST PUSH1 0x0 DUP1 PUSH1 0x40 DUP4 DUP6 SUB SLT ISZERO PUSH2 0x2CB6 JUMPI PUSH1 0x0 DUP1 REVERT JUMPDEST POP POP DUP1 CALLDATALOAD SWAP3 PUSH1 0x20 SWAP1 SWAP2 ADD CALLDATALOAD SWAP2 POP JUMP JUMPDEST PUSH4 0x4E487B71 PUSH1 0xE0 SHL PUSH1 0x0 MSTORE PUSH1 0x41 PUSH1 0x4 MSTORE PUSH1 0x24 PUSH1 0x0 REVERT JUMPDEST PUSH1 0x40 MLOAD PUSH2 0x180 DUP2 ADD PUSH8 0xFFFFFFFFFFFFFFFF DUP2 GT DUP3 DUP3 LT OR ISZERO PUSH2 0x2CFF JUMPI PUSH2 0x2CFF PUSH2 0x2CC5 JUMP JUMPDEST PUSH1 0x40 MSTORE SWAP1 JUMP JUMPDEST PUSH1 0x40 MLOAD PUSH2 0x120 DUP2 ADD PUSH8 0xFFFFFFFFFFFFFFFF DUP2 GT DUP3 DUP3 LT OR ISZERO PUSH2 0x2CFF JUMPI PUSH2 0x2CFF PUSH2 0x2CC5 JUMP JUMPDEST PUSH1 0x40 MLOAD PUSH1 0x1F DUP3 ADD PUSH1 0x1F NOT AND DUP2 ADD PUSH8 0xFFFFFFFFFFFFFFFF DUP2 GT DUP3 DUP3 LT OR ISZERO PUSH2 0x2D52 JUMPI PUSH2 0x2D52 PUSH2 0x2CC5 JUMP JUMPDEST PUSH1 0x40 MSTORE SWAP2 SWAP1 POP JUMP JUMPDEST PUSH1 0x0 DUP3 PUSH1 0x1F DUP4 ADD SLT PUSH2 0x2D6B JUMPI PUSH1 0x0 DUP1 REVERT JUMPDEST DUP2 CALLDATALOAD PUSH8 0xFFFFFFFFFFFFFFFF DUP2 GT ISZERO PUSH2 0x2D85 JUMPI PUSH2 0x2D85 PUSH2 0x2CC5 JUMP JUMPDEST PUSH2 0x2D98 PUSH1 0x1F DUP3 ADD PUSH1 0x1F NOT AND PUSH1 0x20 ADD PUSH2 0x2D29 JUMP JUMPDEST DUP2 DUP2 MSTORE DUP5 PUSH1 0x20 DUP4 DUP7 ADD ADD GT ISZERO PUSH2 0x2DAD JUMPI PUSH1 0x0 DUP1 REVERT JUMPDEST DUP2 PUSH1 0x20 DUP6 ADD PUSH1 0x20 DUP4 ADD CALLDATACOPY PUSH1 0x0 SWAP2 DUP2 ADD PUSH1 0x20 ADD SWAP2 SWAP1 SWAP2 MSTORE SWAP4 SWAP3 POP POP POP JUMP JUMPDEST DUP1 CALLDATALOAD PUSH1 0xFF DUP2 AND DUP2 EQ PUSH2 0x2C1D JUMPI PUSH1 0x0 DUP1 REVERT JUMPDEST DUP1 CALLDATALOAD PUSH2 0xFFFF DUP2 AND DUP2 EQ PUSH2 0x2C1D JUMPI PUSH1 0x0 DUP1 REVERT JUMPDEST DUP1 ISZERO ISZERO DUP2 EQ PUSH2 0x19FB JUMPI PUSH1 0x0 DUP1 REVERT JUMPDEST DUP1 CALLDATALOAD PUSH2 0x2C1D DUP2 PUSH2 0x2DED JUMP JUMPDEST PUSH1 0x0 PUSH1 0x20 DUP3 DUP5 SUB SLT ISZERO PUSH2 0x2E18 JUMPI PUSH1 0x0 DUP1 REVERT JUMPDEST DUP2 CALLDATALOAD PUSH8 0xFFFFFFFFFFFFFFFF DUP1 DUP3 GT ISZERO PUSH2 0x2E30 JUMPI PUSH1 0x0 DUP1 REVERT JUMPDEST SWAP1 DUP4 ADD SWAP1 PUSH2 0x180 DUP3 DUP7 SUB SLT ISZERO PUSH2 0x2E45 JUMPI PUSH1 0x0 DUP1 REVERT JUMPDEST PUSH2 0x2E4D PUSH2 0x2CDB JUMP JUMPDEST DUP3 CALLDATALOAD DUP2 MSTORE PUSH1 0x20 DUP4 ADD CALLDATALOAD DUP3 DUP2 GT ISZERO PUSH2 0x2E63 JUMPI PUSH1 0x0 DUP1 REVERT JUMPDEST PUSH2 0x2E6F DUP8 DUP3 DUP7 ADD PUSH2 0x2D5A JUMP JUMPDEST PUSH1 0x20 DUP4 ADD MSTORE POP PUSH2 0x2E81 PUSH1 0x40 DUP5 ADD PUSH2 0x2DCA JUMP JUMPDEST PUSH1 0x40 DUP3 ADD MSTORE PUSH1 0x60 DUP4 ADD CALLDATALOAD PUSH1 0x60 DUP3 ADD MSTORE PUSH2 0x2E9C PUSH1 0x80 DUP5 ADD PUSH2 0x2C06 JUMP JUMPDEST PUSH1 0x80 DUP3 ADD MSTORE PUSH1 0xA0 DUP4 ADD CALLDATALOAD PUSH1 0xA0 DUP3 ADD MSTORE PUSH1 0xC0 DUP4 ADD CALLDATALOAD PUSH1 0xC0 DUP3 ADD MSTORE PUSH2 0x2EC1 PUSH1 0xE0 DUP5 ADD PUSH2 0x2DDB JUMP JUMPDEST PUSH1 0xE0 DUP3 ADD MSTORE PUSH2 0x100 SWAP2 POP PUSH2 0x2ED6 DUP3 DUP5 ADD PUSH2 0x2DDB JUMP JUMPDEST DUP3 DUP3 ADD MSTORE PUSH2 0x120 SWAP2 POP PUSH2 0x2EEA DUP3 DUP5 ADD PUSH2 0x2DFB JUMP JUMPDEST SWAP2 DUP2 ADD SWAP2 SWAP1 SWAP2 MSTORE PUSH2 0x140 DUP3 DUP2 ADD CALLDATALOAD SWAP1 DUP3 ADD MSTORE PUSH2 0x160 SWAP2 DUP3 ADD CALLDATALOAD SWAP2 DUP2 ADD SWAP2 SWAP1 SWAP2 MSTORE SWAP4 SWAP3 POP POP POP JUMP JUMPDEST PUSH1 0x0 DUP3 PUSH1 0x1F DUP4 ADD SLT PUSH2 0x2F22 JUMPI PUSH1 0x0 DUP1 REVERT JUMPDEST DUP2 CALLDATALOAD PUSH1 0x20 PUSH8 0xFFFFFFFFFFFFFFFF DUP3 GT ISZERO PUSH2 0x2F3E JUMPI PUSH2 0x2F3E PUSH2 0x2CC5 JUMP JUMPDEST DUP2 PUSH1 0x5 SHL PUSH2 0x2F4D DUP3 DUP3 ADD PUSH2 0x2D29 JUMP JUMPDEST SWAP3 DUP4 MSTORE DUP5 DUP2 ADD DUP3 ADD SWAP3 DUP3 DUP2 ADD SWAP1 DUP8 DUP6 GT ISZERO PUSH2 0x2F67 JUMPI PUSH1 0x0 DUP1 REVERT JUMPDEST DUP4 DUP8 ADD SWAP3 POP JUMPDEST DUP5 DUP4 LT ISZERO PUSH2 0x2F86 JUMPI DUP3 CALLDATALOAD DUP3 MSTORE SWAP2 DUP4 ADD SWAP2 SWAP1 DUP4 ADD SWAP1 PUSH2 0x2F6D JUMP JUMPDEST SWAP8 SWAP7 POP POP POP POP POP POP POP JUMP JUMPDEST PUSH1 0x0 PUSH1 0x20 DUP3 DUP5 SUB SLT ISZERO PUSH2 0x2FA3 JUMPI PUSH1 0x0 DUP1 REVERT JUMPDEST DUP2 CALLDATALOAD PUSH8 0xFFFFFFFFFFFFFFFF DUP1 DUP3 GT ISZERO PUSH2 0x2FBB JUMPI PUSH1 0x0 DUP1 REVERT JUMPDEST SWAP1 DUP4 ADD SWAP1 PUSH2 0x120 DUP3 DUP7 SUB SLT ISZERO PUSH2 0x2FD0 JUMPI PUSH1 0x0 DUP1 REVERT JUMPDEST PUSH2 0x2FD8 PUSH2 0x2D05 JUMP JUMPDEST DUP3 CALLDATALOAD DUP2 MSTORE PUSH1 0x20 DUP4 ADD CALLDATALOAD DUP3 DUP2 GT ISZERO PUSH2 0x2FEE JUMPI PUSH1 0x0 DUP1 REVERT JUMPDEST PUSH2 0x2FFA DUP8 DUP3 DUP7 ADD PUSH2 0x2D5A JUMP JUMPDEST PUSH1 0x20 DUP4 ADD MSTORE POP PUSH1 0x40 DUP4 ADD CALLDATALOAD DUP3 DUP2 GT ISZERO PUSH2 0x3012 JUMPI PUSH1 0x0 DUP1 REVERT JUMPDEST PUSH2 0x301E DUP8 DUP3 DUP7 ADD PUSH2 0x2F11 JUMP JUMPDEST PUSH1 0x40 DUP4 ADD MSTORE POP PUSH1 0x60 DUP4 ADD CALLDATALOAD DUP3 DUP2 GT ISZERO PUSH2 0x3036 JUMPI PUSH1 0x0 DUP1 REVERT JUMPDEST PUSH2 0x3042 DUP8 DUP3 DUP7 ADD PUSH2 0x2F11 JUMP JUMPDEST PUSH1 0x60 DUP4 ADD MSTORE POP PUSH1 0x80 DUP4 ADD CALLDATALOAD PUSH1 0x80 DUP3 ADD MSTORE PUSH2 0x305E PUSH1 0xA0 DUP5 ADD PUSH2 0x2C06 JUMP JUMPDEST PUSH1 0xA0 DUP3 ADD MSTORE PUSH2 0x306F PUSH1 0xC0 DUP5 ADD PUSH2 0x2DFB JUMP JUMPDEST PUSH1 0xC0 DUP3 ADD MSTORE PUSH1 0xE0 DUP4 DUP2 ADD CALLDATALOAD SWAP1 DUP3 ADD MSTORE PUSH2 0x100 SWAP3 DUP4 ADD CALLDATALOAD SWAP3 DUP2 ADD SWAP3 SWAP1 SWAP3 MSTORE POP SWAP4 SWAP3 POP POP POP JUMP JUMPDEST PUSH1 0x0 PUSH1 0x20 DUP3 DUP5 SUB SLT ISZERO PUSH2 0x30A6 JUMPI PUSH1 0x0 DUP1 REVERT JUMPDEST POP CALLDATALOAD SWAP2 SWAP1 POP JUMP JUMPDEST PUSH1 0x0 DUP1 PUSH1 0x0 PUSH1 0x40 DUP5 DUP7 SUB SLT ISZERO PUSH2 0x30C2 JUMPI PUSH1 0x0 DUP1 REVERT JUMPDEST PUSH2 0x30CB DUP5 PUSH2 0x2C06 JUMP JUMPDEST SWAP3 POP PUSH1 0x20 DUP5 ADD CALLDATALOAD PUSH8 0xFFFFFFFFFFFFFFFF DUP1 DUP3 GT ISZERO PUSH2 0x30E8 JUMPI PUSH1 0x0 DUP1 REVERT JUMPDEST DUP2 DUP7 ADD SWAP2 POP DUP7 PUSH1 0x1F DUP4 ADD SLT PUSH2 0x30FC JUMPI PUSH1 0x0 DUP1 REVERT JUMPDEST DUP2 CALLDATALOAD DUP2 DUP2 GT ISZERO PUSH2 0x310B JUMPI PUSH1 0x0 DUP1 REVERT JUMPDEST DUP8 PUSH1 0x20 DUP3 PUSH1 0x5 SHL DUP6 ADD ADD GT ISZERO PUSH2 0x3120 JUMPI PUSH1 0x0 DUP1 REVERT JUMPDEST PUSH1 0x20 DUP4 ADD SWAP5 POP DUP1 SWAP4 POP POP POP POP SWAP3 POP SWAP3 POP SWAP3 JUMP JUMPDEST PUSH1 0x20 DUP1 DUP3 MSTORE DUP3 MLOAD DUP3 DUP3 ADD DUP2 SWAP1 MSTORE PUSH1 0x0 SWAP2 SWAP1 PUSH1 0x40 SWAP1 DUP2 DUP6 ADD SWAP1 DUP7 DUP5 ADD DUP6 JUMPDEST DUP3 DUP2 LT ISZERO PUSH2 0x31AC JUMPI DUP2 MLOAD DUP1 MLOAD DUP6 MSTORE DUP7 DUP2 ADD MLOAD DUP8 DUP7 ADD MSTORE DUP6 DUP2 ADD MLOAD DUP7 DUP7 ADD MSTORE PUSH1 0x60 DUP1 DUP3 ADD MLOAD PUSH2 0xFFFF SWAP1 DUP2 AND SWAP2 DUP8 ADD SWAP2 SWAP1 SWAP2 MSTORE PUSH1 0x80 DUP1 DUP4 ADD MLOAD SWAP1 SWAP2 AND SWAP1 DUP7 ADD MSTORE PUSH1 0xA0 SWAP1 DUP2 ADD MLOAD ISZERO ISZERO SWAP1 DUP6 ADD MSTORE PUSH1 0xC0 SWAP1 SWAP4 ADD SWAP3 SWAP1 DUP6 ADD SWAP1 PUSH1 0x1 ADD PUSH2 0x3150 JUMP JUMPDEST POP SWAP2 SWAP8 SWAP7 POP POP POP POP POP POP POP JUMP JUMPDEST PUSH1 0x0 DUP2 MLOAD DUP1 DUP5 MSTORE PUSH1 0x20 DUP1 DUP6 ADD SWAP5 POP PUSH1 0x20 DUP5 ADD PUSH1 0x0 JUMPDEST DUP4 DUP2 LT ISZERO PUSH2 0x31EA JUMPI DUP2 MLOAD DUP8 MSTORE SWAP6 DUP3 ADD SWAP6 SWAP1 DUP3 ADD SWAP1 PUSH1 0x1 ADD PUSH2 0x31CE JUMP JUMPDEST POP SWAP5 SWAP6 SWAP5 POP POP POP POP POP JUMP JUMPDEST PUSH1 0x20 DUP2 MSTORE PUSH1 0x0 PUSH2 0x2C67 PUSH1 0x20 DUP4 ADD DUP5 PUSH2 0x31B9 JUMP JUMPDEST PUSH1 0x0 DUP2 MLOAD DUP1 DUP5 MSTORE PUSH1 0x0 JUMPDEST DUP2 DUP2 LT ISZERO PUSH2 0x322E JUMPI PUSH1 0x20 DUP2 DUP6 ADD DUP2 ADD MLOAD DUP7 DUP4 ADD DUP3 ADD MSTORE ADD PUSH2 0x3212 JUMP JUMPDEST POP PUSH1 0x0 PUSH1 0x20 DUP3 DUP7 ADD ADD MSTORE PUSH1 0x20 PUSH1 0x1F NOT PUSH1 0x1F DUP4 ADD AND DUP6 ADD ADD SWAP2 POP POP SWAP3 SWAP2 POP POP JUMP JUMPDEST PUSH1 0x0 PUSH2 0x180 DUP15 DUP4 MSTORE DUP1 PUSH1 0x20 DUP5 ADD MSTORE PUSH2 0x3268 DUP2 DUP5 ADD DUP16 PUSH2 0x3208 JUMP JUMPDEST PUSH1 0xFF SWAP14 SWAP1 SWAP14 AND PUSH1 0x40 DUP5 ADD MSTORE POP POP PUSH1 0x60 DUP2 ADD SWAP10 SWAP1 SWAP10 MSTORE PUSH1 0x1 PUSH1 0x1 PUSH1 0xA0 SHL SUB SWAP8 SWAP1 SWAP8 AND PUSH1 0x80 DUP10 ADD MSTORE PUSH1 0xA0 DUP9 ADD SWAP6 SWAP1 SWAP6 MSTORE PUSH1 0xC0 DUP8 ADD SWAP4 SWAP1 SWAP4 MSTORE PUSH2 0xFFFF SWAP2 DUP3 AND PUSH1 0xE0 DUP8 ADD MSTORE AND PUSH2 0x100 DUP6 ADD MSTORE ISZERO ISZERO PUSH2 0x120 DUP5 ADD MSTORE PUSH2 0x140 DUP4 ADD MSTORE PUSH2 0x160 SWAP1 SWAP2 ADD MSTORE SWAP3 SWAP2 POP POP JUMP JUMPDEST DUP8 DUP2 MSTORE PUSH1 0xE0 PUSH1 0x20 DUP3 ADD MSTORE PUSH1 0x0 PUSH2 0x32E4 PUSH1 0xE0 DUP4 ADD DUP10 PUSH2 0x3208 JUMP JUMPDEST PUSH1 0x40 DUP4 ADD SWAP8 SWAP1 SWAP8 MSTORE POP PUSH1 0x1 PUSH1 0x1 PUSH1 0xA0 SHL SUB SWAP5 SWAP1 SWAP5 AND PUSH1 0x60 DUP6 ADD MSTORE SWAP2 ISZERO ISZERO PUSH1 0x80 DUP5 ADD MSTORE PUSH1 0xA0 DUP4 ADD MSTORE PUSH1 0xC0 SWAP1 SWAP2 ADD MSTORE SWAP3 SWAP2 POP POP JUMP JUMPDEST PUSH4 0x4E487B71 PUSH1 0xE0 SHL PUSH1 0x0 MSTORE PUSH1 0x11 PUSH1 0x4 MSTORE PUSH1 0x24 PUSH1 0x0 REVERT JUMPDEST DUP1 DUP3 MUL DUP2 ISZERO DUP3 DUP3 DIV DUP5 EQ OR PUSH2 0x3344 JUMPI PUSH2 0x3344 PUSH2 0x3317 JUMP JUMPDEST SWAP3 SWAP2 POP POP JUMP JUMPDEST PUSH1 0x0 PUSH1 0x20 DUP3 DUP5 SUB SLT ISZERO PUSH2 0x335C JUMPI PUSH1 0x0 DUP1 REVERT JUMPDEST DUP2 MLOAD PUSH2 0x2C67 DUP2 PUSH2 0x2DED JUMP JUMPDEST DUP2 DUP2 SUB DUP2 DUP2 GT ISZERO PUSH2 0x3344 JUMPI PUSH2 0x3344 PUSH2 0x3317 JUMP JUMPDEST DUP1 DUP3 ADD DUP1 DUP3 GT ISZERO PUSH2 0x3344 JUMPI PUSH2 0x3344 PUSH2 0x3317 JUMP JUMPDEST PUSH4 0x4E487B71 PUSH1 0xE0 SHL PUSH1 0x0 MSTORE PUSH1 0x32 PUSH1 0x4 MSTORE PUSH1 0x24 PUSH1 0x0 REVERT JUMPDEST DUP6 DUP2 MSTORE PUSH1 0xA0 PUSH1 0x20 DUP3 ADD MSTORE PUSH1 0x0 PUSH2 0x33BC PUSH1 0xA0 DUP4 ADD DUP8 PUSH2 0x31B9 JUMP JUMPDEST DUP3 DUP2 SUB PUSH1 0x40 DUP5 ADD MSTORE PUSH2 0x33CE DUP2 DUP8 PUSH2 0x31B9 JUMP JUMPDEST PUSH1 0x1 PUSH1 0x1 PUSH1 0xA0 SHL SUB SWAP6 SWAP1 SWAP6 AND PUSH1 0x60 DUP5 ADD MSTORE POP POP PUSH1 0x80 ADD MSTORE SWAP4 SWAP3 POP POP POP JUMP JUMPDEST PUSH1 0x1 DUP2 DUP2 SHR SWAP1 DUP3 AND DUP1 PUSH2 0x3400 JUMPI PUSH1 0x7F DUP3 AND SWAP2 POP JUMPDEST PUSH1 0x20 DUP3 LT DUP2 SUB PUSH2 0x3420 JUMPI PUSH4 0x4E487B71 PUSH1 0xE0 SHL PUSH1 0x0 MSTORE PUSH1 0x22 PUSH1 0x4 MSTORE PUSH1 0x24 PUSH1 0x0 REVERT JUMPDEST POP SWAP2 SWAP1 POP JUMP JUMPDEST PUSH1 0x1F DUP3 GT ISZERO PUSH2 0xEF9 JUMPI PUSH1 0x0 DUP2 PUSH1 0x0 MSTORE PUSH1 0x20 PUSH1 0x0 KECCAK256 PUSH1 0x1F DUP6 ADD PUSH1 0x5 SHR DUP2 ADD PUSH1 0x20 DUP7 LT ISZERO PUSH2 0x344F JUMPI POP DUP1 JUMPDEST PUSH1 0x1F DUP6 ADD PUSH1 0x5 SHR DUP3 ADD SWAP2 POP JUMPDEST DUP2 DUP2 LT ISZERO PUSH2 0x346E JUMPI DUP3 DUP2 SSTORE PUSH1 0x1 ADD PUSH2 0x345B JUMP JUMPDEST POP POP POP POP POP POP JUMP JUMPDEST DUP2 MLOAD PUSH8 0xFFFFFFFFFFFFFFFF DUP2 GT ISZERO PUSH2 0x3490 JUMPI PUSH2 0x3490 PUSH2 0x2CC5 JUMP JUMPDEST PUSH2 0x34A4 DUP2 PUSH2 0x349E DUP5 SLOAD PUSH2 0x33EC JUMP JUMPDEST DUP5 PUSH2 0x3426 JUMP JUMPDEST PUSH1 0x20 DUP1 PUSH1 0x1F DUP4 GT PUSH1 0x1 DUP2 EQ PUSH2 0x34D9 JUMPI PUSH1 0x0 DUP5 ISZERO PUSH2 0x34C1 JUMPI POP DUP6 DUP4 ADD MLOAD JUMPDEST PUSH1 0x0 NOT PUSH1 0x3 DUP7 SWAP1 SHL SHR NOT AND PUSH1 0x1 DUP6 SWAP1 SHL OR DUP6 SSTORE PUSH2 0x346E JUMP JUMPDEST PUSH1 0x0 DUP6 DUP2 MSTORE PUSH1 0x20 DUP2 KECCAK256 PUSH1 0x1F NOT DUP7 AND SWAP2 JUMPDEST DUP3 DUP2 LT ISZERO PUSH2 0x3508 JUMPI DUP9 DUP7 ADD MLOAD DUP3 SSTORE SWAP5 DUP5 ADD SWAP5 PUSH1 0x1 SWAP1 SWAP2 ADD SWAP1 DUP5 ADD PUSH2 0x34E9 JUMP JUMPDEST POP DUP6 DUP3 LT ISZERO PUSH2 0x3526 JUMPI DUP8 DUP6 ADD MLOAD PUSH1 0x0 NOT PUSH1 0x3 DUP9 SWAP1 SHL PUSH1 0xF8 AND SHR NOT AND DUP2 SSTORE JUMPDEST POP POP POP POP POP PUSH1 0x1 SWAP1 DUP2 SHL ADD SWAP1 SSTORE POP JUMP JUMPDEST PUSH2 0xFFFF DUP3 DUP2 AND DUP3 DUP3 AND SUB SWAP1 DUP1 DUP3 GT ISZERO PUSH2 0x3551 JUMPI PUSH2 0x3551 PUSH2 0x3317 JUMP JUMPDEST POP SWAP3 SWAP2 POP POP JUMP JUMPDEST PUSH4 0x4E487B71 PUSH1 0xE0 SHL PUSH1 0x0 MSTORE PUSH1 0x12 PUSH1 0x4 MSTORE PUSH1 0x24 PUSH1 0x0 REVERT JUMPDEST PUSH1 0x0 DUP3 PUSH2 0x357D JUMPI PUSH2 0x357D PUSH2 0x3558 JUMP JUMPDEST POP DIV SWAP1 JUMP JUMPDEST PUSH1 0x0 DUP3 PUSH2 0x3591 JUMPI PUSH2 0x3591 PUSH2 0x3558 JUMP JUMPDEST POP MOD SWAP1 JUMP JUMPDEST PUSH1 0x0 PUSH1 0x20 DUP3 DUP5 SUB SLT ISZERO PUSH2 0x35A8 JUMPI PUSH1 0x0 DUP1 REVERT JUMPDEST POP MLOAD SWAP2 SWAP1 POP JUMP JUMPDEST PUSH2 0xFFFF DUP2 DUP2 AND DUP4 DUP3 AND ADD SWAP1 DUP1 DUP3 GT ISZERO PUSH2 0x3551 JUMPI PUSH2 0x3551 PUSH2 0x3317 JUMP JUMPDEST PUSH1 0x0 DUP2 SLOAD DUP1 DUP5 MSTORE PUSH1 0x20 DUP1 DUP6 ADD SWAP5 POP DUP4 PUSH1 0x0 MSTORE PUSH1 0x20 PUSH1 0x0 KECCAK256 PUSH1 0x0 JUMPDEST DUP4 DUP2 LT ISZERO PUSH2 0x31EA JUMPI DUP2 SLOAD DUP8 MSTORE SWAP6 DUP3 ADD SWAP6 PUSH1 0x1 SWAP2 DUP3 ADD SWAP2 ADD PUSH2 0x35E4 JUMP JUMPDEST DUP5 DUP2 MSTORE PUSH1 0x80 PUSH1 0x20 DUP3 ADD MSTORE PUSH1 0x0 PUSH2 0x3619 PUSH1 0x80 DUP4 ADD DUP7 PUSH2 0x35CA JUMP JUMPDEST DUP3 DUP2 SUB PUSH1 0x40 DUP5 ADD MSTORE PUSH2 0x362B DUP2 DUP7 PUSH2 0x35CA JUMP JUMPDEST SWAP2 POP POP DUP3 PUSH1 0x60 DUP4 ADD MSTORE SWAP6 SWAP5 POP POP POP POP POP JUMP INVALID LOG2 PUSH5 0x6970667358 0x22 SLT KECCAK256 SWAP2 CALLVALUE KECCAK256 0xDB 0x1F PUSH0 0xE SELFBALANCE PUSH16 0xF6DA5300446E84B2B7F8D7AB98B681DC DUP2 EXP JUMP 0xD3 PUSH9 0xE00264736F6C634300 ADDMOD XOR STOP CALLER "},"methodIdentifiers":{"AUTO_WATERING_SYSTEM_ID()":"14d3a9c0","BASIC_SEED_SINGLE_ID()":"e630d241","ENERGY_BOOSTER_ID()":"1f36c907","FERTILIZER_SPREADER_ID()":"d13e3353","HARVESTER_ID()":"e68b02cc","HYBRID_SEED_SINGLE_ID()":"8719c20a","MAX_BONUS_BP()":"4bf8b2c6","MIN_BONUS_BP()":"3603f8d1","PREMIUM_SEED_SINGLE_ID()":"b07e9a8b","STARTER_BUNDLE_ID()":"f3274a1f","WATERING_CAN_ID()":"a8ad4513","acceptedPaymentTokens(address)":"484bb244","addBundle((uint256,string,uint256[],uint256[],uint256,address,bool,uint256,uint256))":"edc0c038","addItem((uint256,string,uint8,uint256,address,uint256,uint256,uint16,uint16,bool,uint256,uint256))":"60e3ab0b","addPaymentToken(address)":"4a7dc8e0","bundles(uint256)":"cf19384b","buyBundle(uint256,uint256,address)":"edf2fe73","buyItem(uint256,uint256,address)":"13c066f8","claimDailyReward()":"83f8b7e2","claimRiseTokens()":"ce882f36","dailyRewards(uint256)":"b203dc60","deactivateBundle(uint256)":"66c3b5fa","deactivateItem(uint256)":"f9e38f9c","farmLevel(address)":"35a23e7b","getUserInventory(address,uint256[])":"851044ec","getUserPlots(address,uint256[])":"75651e77","harvest(uint256)":"ddc63262","hasAutoWatering(address)":"e1f7d38a","items(uint256)":"bfb231d2","lastClaimedDay(address)":"29e6d681","owner()":"8da5cb5b","pause()":"8456cb59","paused()":"5c975abb","plantSeed(uint256,uint256)":"4f87e864","playerLevel(address)":"14c84f3a","removePaymentToken(address)":"a5125421","renounceOwnership()":"715018a6","riceTokens(address)":"0da0d7a5","riseToken()":"9d633e77","setItemMaxSupply(uint256,uint256)":"c7f70346","setRiseToken(address)":"a4d3f557","totalHarvests(address)":"5a48d79d","totalXP(address)":"fee99c72","transferOwnership(address)":"f2fde38b","unpause()":"3f4ba83a","updateBundle((uint256,string,uint256[],uint256[],uint256,address,bool,uint256,uint256))":"54cb5399","updateItem((uint256,string,uint8,uint256,address,uint256,uint256,uint16,uint16,bool,uint256,uint256))":"451420cb","upgradeFarm(uint256)":"79e07242","useTool(uint256,uint256)":"2a1bbd1f","userBundleSeeds(address,uint256)":"d7a8ac0b","userItemBalances(address,uint256)":"07bd03ba","userPlots(address,uint256)":"4c321a89","userSingleSeeds(address,uint256)":"77f8c837","userStreaks(address)":"d291d1f2","waterCrop(uint256)":"e9da722f","withdrawETH()":"e086e5ec","withdrawToken(address)":"89476069"}}}}}