{"contracts/RiseFarming.sol":{"RiseFarming":{"abi":[{"inputs":[],"stateMutability":"nonpayable","type":"constructor"},{"inputs":[],"name":"EnforcedPause","type":"error"},{"inputs":[],"name":"ExpectedPause","type":"error"},{"inputs":[{"internalType":"address","name":"owner","type":"address"}],"name":"OwnableInvalidOwner","type":"error"},{"inputs":[{"internalType":"address","name":"account","type":"address"}],"name":"OwnableUnauthorizedAccount","type":"error"},{"inputs":[],"name":"ReentrancyGuardReentrantCall","type":"error"},{"anonymous":false,"inputs":[{"indexed":true,"internalType":"address","name":"user","type":"address"},{"indexed":false,"internalType":"uint256","name":"bundleId","type":"uint256"},{"indexed":false,"internalType":"uint256[]","name":"itemIds","type":"uint256[]"},{"indexed":false,"internalType":"uint256[]","name":"amounts","type":"uint256[]"},{"indexed":false,"internalType":"uint256","name":"price","type":"uint256"}],"name":"BundlePurchased","type":"event"},{"anonymous":false,"inputs":[{"indexed":true,"internalType":"address","name":"user","type":"address"},{"indexed":false,"internalType":"uint256","name":"day","type":"uint256"},{"indexed":false,"internalType":"uint256","name":"reward","type":"uint256"}],"name":"DailyRewardClaimed","type":"event"},{"anonymous":false,"inputs":[{"indexed":true,"internalType":"address","name":"user","type":"address"},{"indexed":false,"internalType":"uint256","name":"upgradeId","type":"uint256"}],"name":"FarmUpgraded","type":"event"},{"anonymous":false,"inputs":[{"indexed":true,"internalType":"address","name":"user","type":"address"},{"indexed":false,"internalType":"uint256","name":"plotId","type":"uint256"},{"indexed":false,"internalType":"uint256","name":"reward","type":"uint256"}],"name":"Harvested","type":"event"},{"anonymous":false,"inputs":[{"indexed":true,"internalType":"address","name":"user","type":"address"},{"indexed":false,"internalType":"uint256","name":"bundleId","type":"uint256"},{"indexed":false,"internalType":"uint256[]","name":"itemIds","type":"uint256[]"},{"indexed":false,"internalType":"uint256[]","name":"amounts","type":"uint256[]"},{"indexed":false,"internalType":"address","name":"paymentToken","type":"address"},{"indexed":false,"internalType":"uint256","name":"price","type":"uint256"}],"name":"ItemPurchased","type":"event"},{"anonymous":false,"inputs":[{"indexed":true,"internalType":"address","name":"user","type":"address"},{"indexed":false,"internalType":"uint256","name":"itemId","type":"uint256"},{"indexed":false,"internalType":"uint256","name":"amount","type":"uint256"},{"indexed":false,"internalType":"uint256","name":"totalRT","type":"uint256"}],"name":"ItemPurchasedWithRT","type":"event"},{"anonymous":false,"inputs":[{"indexed":true,"internalType":"address","name":"previousOwner","type":"address"},{"indexed":true,"internalType":"address","name":"newOwner","type":"address"}],"name":"OwnershipTransferred","type":"event"},{"anonymous":false,"inputs":[{"indexed":false,"internalType":"address","name":"account","type":"address"}],"name":"Paused","type":"event"},{"anonymous":false,"inputs":[{"indexed":false,"internalType":"address","name":"token","type":"address"}],"name":"PaymentTokenAdded","type":"event"},{"anonymous":false,"inputs":[{"indexed":false,"internalType":"address","name":"token","type":"address"}],"name":"PaymentTokenRemoved","type":"event"},{"anonymous":false,"inputs":[{"indexed":true,"internalType":"address","name":"user","type":"address"},{"indexed":false,"internalType":"uint256","name":"plotId","type":"uint256"}],"name":"PlotAutoWatered","type":"event"},{"anonymous":false,"inputs":[{"indexed":true,"internalType":"address","name":"user","type":"address"},{"indexed":false,"internalType":"uint256","name":"plotId","type":"uint256"}],"name":"PlotReady","type":"event"},{"anonymous":false,"inputs":[{"indexed":true,"internalType":"address","name":"user","type":"address"},{"indexed":false,"internalType":"uint256","name":"questId","type":"uint256"},{"indexed":false,"internalType":"uint256","name":"reward","type":"uint256"}],"name":"QuestRewardClaimed","type":"event"},{"anonymous":false,"inputs":[{"indexed":true,"internalType":"address","name":"user","type":"address"},{"indexed":false,"internalType":"uint256","name":"amount","type":"uint256"}],"name":"RiseClaimed","type":"event"},{"anonymous":false,"inputs":[{"indexed":true,"internalType":"address","name":"user","type":"address"},{"indexed":false,"internalType":"uint256","name":"plotId","type":"uint256"},{"indexed":false,"internalType":"uint256","name":"seedId","type":"uint256"}],"name":"SeedPlanted","type":"event"},{"anonymous":false,"inputs":[{"indexed":true,"internalType":"address","name":"user","type":"address"},{"indexed":false,"internalType":"uint256","name":"toolId","type":"uint256"},{"indexed":false,"internalType":"uint256","name":"plotId","type":"uint256"}],"name":"ToolUsed","type":"event"},{"anonymous":false,"inputs":[{"indexed":false,"internalType":"address","name":"account","type":"address"}],"name":"Unpaused","type":"event"},{"inputs":[],"name":"AUTO_WATERING_SYSTEM_ID","outputs":[{"internalType":"uint256","name":"","type":"uint256"}],"stateMutability":"view","type":"function"},{"inputs":[],"name":"BASIC_SEED_SINGLE_ID","outputs":[{"internalType":"uint256","name":"","type":"uint256"}],"stateMutability":"view","type":"function"},{"inputs":[],"name":"ENERGY_BOOSTER_ID","outputs":[{"internalType":"uint256","name":"","type":"uint256"}],"stateMutability":"view","type":"function"},{"inputs":[],"name":"FERTILIZER_SPREADER_ID","outputs":[{"internalType":"uint256","name":"","type":"uint256"}],"stateMutability":"view","type":"function"},{"inputs":[],"name":"GOLDEN_HARVESTER_BUNDLE_ID","outputs":[{"internalType":"uint256","name":"","type":"uint256"}],"stateMutability":"view","type":"function"},{"inputs":[],"name":"GOLDEN_HARVESTER_SINGLE_ID","outputs":[{"internalType":"uint256","name":"","type":"uint256"}],"stateMutability":"view","type":"function"},{"inputs":[],"name":"HARVESTER_ID","outputs":[{"internalType":"uint256","name":"","type":"uint256"}],"stateMutability":"view","type":"function"},{"inputs":[],"name":"HYBRID_SEED_SINGLE_ID","outputs":[{"internalType":"uint256","name":"","type":"uint256"}],"stateMutability":"view","type":"function"},{"inputs":[],"name":"MAX_BONUS_BP","outputs":[{"internalType":"uint16","name":"","type":"uint16"}],"stateMutability":"view","type":"function"},{"inputs":[],"name":"MIN_BONUS_BP","outputs":[{"internalType":"uint16","name":"","type":"uint16"}],"stateMutability":"view","type":"function"},{"inputs":[],"name":"PREMIUM_SEED_SINGLE_ID","outputs":[{"internalType":"uint256","name":"","type":"uint256"}],"stateMutability":"view","type":"function"},{"inputs":[],"name":"STARTER_BUNDLE_ID","outputs":[{"internalType":"uint256","name":"","type":"uint256"}],"stateMutability":"view","type":"function"},{"inputs":[],"name":"WATERING_CAN_ID","outputs":[{"internalType":"uint256","name":"","type":"uint256"}],"stateMutability":"view","type":"function"},{"inputs":[{"internalType":"address","name":"","type":"address"}],"name":"acceptedPaymentTokens","outputs":[{"internalType":"bool","name":"","type":"bool"}],"stateMutability":"view","type":"function"},{"inputs":[{"components":[{"internalType":"uint256","name":"id","type":"uint256"},{"internalType":"string","name":"name","type":"string"},{"internalType":"uint256[]","name":"itemIds","type":"uint256[]"},{"internalType":"uint256[]","name":"itemAmounts","type":"uint256[]"},{"internalType":"uint256","name":"priceETH","type":"uint256"},{"internalType":"address","name":"paymentToken","type":"address"},{"internalType":"bool","name":"active","type":"bool"},{"internalType":"uint256","name":"maxSupply","type":"uint256"},{"internalType":"uint256","name":"supply","type":"uint256"}],"internalType":"struct RiseFarming.Bundle","name":"bundle","type":"tuple"}],"name":"addBundle","outputs":[],"stateMutability":"nonpayable","type":"function"},{"inputs":[{"components":[{"internalType":"uint256","name":"id","type":"uint256"},{"internalType":"string","name":"name","type":"string"},{"internalType":"uint8","name":"itemType","type":"uint8"},{"internalType":"uint256","name":"priceETH","type":"uint256"},{"internalType":"address","name":"paymentToken","type":"address"},{"internalType":"uint256","name":"baseReward","type":"uint256"},{"internalType":"uint256","name":"baseGrowthTime","type":"uint256"},{"internalType":"uint16","name":"growthBonusBP","type":"uint16"},{"internalType":"uint16","name":"yieldBonusBP","type":"uint16"},{"internalType":"bool","name":"active","type":"bool"},{"internalType":"uint256","name":"maxSupply","type":"uint256"},{"internalType":"uint256","name":"supply","type":"uint256"}],"internalType":"struct RiseFarming.Item","name":"item","type":"tuple"}],"name":"addItem","outputs":[],"stateMutability":"nonpayable","type":"function"},{"inputs":[{"internalType":"address","name":"token","type":"address"}],"name":"addPaymentToken","outputs":[],"stateMutability":"nonpayable","type":"function"},{"inputs":[{"internalType":"uint256","name":"plotId","type":"uint256"}],"name":"applyFertilizer","outputs":[],"stateMutability":"nonpayable","type":"function"},{"inputs":[],"name":"autoWaterCrops","outputs":[],"stateMutability":"nonpayable","type":"function"},{"inputs":[{"internalType":"address","name":"user","type":"address"}],"name":"autoWaterPlotsForUser","outputs":[],"stateMutability":"nonpayable","type":"function"},{"inputs":[{"internalType":"uint256","name":"","type":"uint256"}],"name":"bundles","outputs":[{"internalType":"uint256","name":"id","type":"uint256"},{"internalType":"string","name":"name","type":"string"},{"internalType":"uint256","name":"priceETH","type":"uint256"},{"internalType":"address","name":"paymentToken","type":"address"},{"internalType":"bool","name":"active","type":"bool"},{"internalType":"uint256","name":"maxSupply","type":"uint256"},{"internalType":"uint256","name":"supply","type":"uint256"}],"stateMutability":"view","type":"function"},{"inputs":[{"internalType":"uint256","name":"bundleId","type":"uint256"},{"internalType":"uint256","name":"amount","type":"uint256"},{"internalType":"address","name":"paymentToken","type":"address"}],"name":"buyBundle","outputs":[],"stateMutability":"payable","type":"function"},{"inputs":[{"internalType":"uint256","name":"itemId","type":"uint256"},{"internalType":"uint256","name":"amount","type":"uint256"},{"internalType":"address","name":"paymentToken","type":"address"}],"name":"buyItem","outputs":[],"stateMutability":"payable","type":"function"},{"inputs":[{"internalType":"uint256","name":"itemId","type":"uint256"},{"internalType":"uint256","name":"amount","type":"uint256"}],"name":"buyItemWithGameRT","outputs":[],"stateMutability":"nonpayable","type":"function"},{"inputs":[],"name":"claimDailyReward","outputs":[],"stateMutability":"nonpayable","type":"function"},{"inputs":[{"internalType":"uint256","name":"questId","type":"uint256"}],"name":"claimQuestReward","outputs":[],"stateMutability":"nonpayable","type":"function"},{"inputs":[],"name":"claimRiseTokens","outputs":[],"stateMutability":"nonpayable","type":"function"},{"inputs":[{"internalType":"address","name":"","type":"address"},{"internalType":"uint256","name":"","type":"uint256"}],"name":"claimedQuests","outputs":[{"internalType":"bool","name":"","type":"bool"}],"stateMutability":"view","type":"function"},{"inputs":[{"internalType":"uint256","name":"","type":"uint256"}],"name":"dailyRewards","outputs":[{"internalType":"uint256","name":"","type":"uint256"}],"stateMutability":"view","type":"function"},{"inputs":[{"internalType":"uint256","name":"bundleId","type":"uint256"}],"name":"deactivateBundle","outputs":[],"stateMutability":"nonpayable","type":"function"},{"inputs":[{"internalType":"uint256","name":"itemId","type":"uint256"}],"name":"deactivateItem","outputs":[],"stateMutability":"nonpayable","type":"function"},{"inputs":[{"internalType":"address","name":"","type":"address"}],"name":"farmLevel","outputs":[{"internalType":"uint256","name":"","type":"uint256"}],"stateMutability":"view","type":"function"},{"inputs":[{"internalType":"address","name":"user","type":"address"},{"internalType":"uint256[]","name":"itemIds","type":"uint256[]"}],"name":"getUserInventory","outputs":[{"internalType":"uint256[]","name":"","type":"uint256[]"}],"stateMutability":"view","type":"function"},{"inputs":[{"internalType":"address","name":"user","type":"address"},{"internalType":"uint256[]","name":"plotIds","type":"uint256[]"}],"name":"getUserPlots","outputs":[{"components":[{"internalType":"uint256","name":"seedId","type":"uint256"},{"internalType":"uint256","name":"plantedAt","type":"uint256"},{"internalType":"uint256","name":"readyAt","type":"uint256"},{"internalType":"uint16","name":"growthBonusBP","type":"uint16"},{"internalType":"uint16","name":"yieldBonusBP","type":"uint16"},{"internalType":"bool","name":"growing","type":"bool"}],"internalType":"struct RiseFarming.Plot[]","name":"","type":"tuple[]"}],"stateMutability":"view","type":"function"},{"inputs":[{"internalType":"uint256","name":"plotId","type":"uint256"}],"name":"harvest","outputs":[],"stateMutability":"nonpayable","type":"function"},{"inputs":[{"internalType":"uint256","name":"plotId","type":"uint256"}],"name":"harvestWithGoldenHarvester","outputs":[],"stateMutability":"nonpayable","type":"function"},{"inputs":[{"internalType":"address","name":"","type":"address"}],"name":"hasAutoWatering","outputs":[{"internalType":"bool","name":"","type":"bool"}],"stateMutability":"view","type":"function"},{"inputs":[{"internalType":"uint256","name":"","type":"uint256"}],"name":"items","outputs":[{"internalType":"uint256","name":"id","type":"uint256"},{"internalType":"string","name":"name","type":"string"},{"internalType":"uint8","name":"itemType","type":"uint8"},{"internalType":"uint256","name":"priceETH","type":"uint256"},{"internalType":"address","name":"paymentToken","type":"address"},{"internalType":"uint256","name":"baseReward","type":"uint256"},{"internalType":"uint256","name":"baseGrowthTime","type":"uint256"},{"internalType":"uint16","name":"growthBonusBP","type":"uint16"},{"internalType":"uint16","name":"yieldBonusBP","type":"uint16"},{"internalType":"bool","name":"active","type":"bool"},{"internalType":"uint256","name":"maxSupply","type":"uint256"},{"internalType":"uint256","name":"supply","type":"uint256"}],"stateMutability":"view","type":"function"},{"inputs":[{"internalType":"address","name":"","type":"address"}],"name":"lastClaimedDay","outputs":[{"internalType":"uint256","name":"","type":"uint256"}],"stateMutability":"view","type":"function"},{"inputs":[],"name":"multiHarvestWithGoldenHarvester","outputs":[],"stateMutability":"nonpayable","type":"function"},{"inputs":[],"name":"owner","outputs":[{"internalType":"address","name":"","type":"address"}],"stateMutability":"view","type":"function"},{"inputs":[],"name":"pause","outputs":[],"stateMutability":"nonpayable","type":"function"},{"inputs":[],"name":"paused","outputs":[{"internalType":"bool","name":"","type":"bool"}],"stateMutability":"view","type":"function"},{"inputs":[{"internalType":"uint256","name":"plotId","type":"uint256"},{"internalType":"uint256","name":"seedId","type":"uint256"}],"name":"plantSeed","outputs":[],"stateMutability":"nonpayable","type":"function"},{"inputs":[{"internalType":"address","name":"","type":"address"}],"name":"playerLevel","outputs":[{"internalType":"uint256","name":"","type":"uint256"}],"stateMutability":"view","type":"function"},{"inputs":[{"internalType":"uint256","name":"","type":"uint256"}],"name":"questRewards","outputs":[{"internalType":"uint256","name":"","type":"uint256"}],"stateMutability":"view","type":"function"},{"inputs":[{"internalType":"address","name":"token","type":"address"}],"name":"removePaymentToken","outputs":[],"stateMutability":"nonpayable","type":"function"},{"inputs":[],"name":"renounceOwnership","outputs":[],"stateMutability":"nonpayable","type":"function"},{"inputs":[{"internalType":"address","name":"","type":"address"}],"name":"riceTokens","outputs":[{"internalType":"uint256","name":"","type":"uint256"}],"stateMutability":"view","type":"function"},{"inputs":[],"name":"riseToken","outputs":[{"internalType":"contract IERC20","name":"","type":"address"}],"stateMutability":"view","type":"function"},{"inputs":[{"internalType":"uint256","name":"itemId","type":"uint256"},{"internalType":"uint256","name":"maxSupply","type":"uint256"}],"name":"setItemMaxSupply","outputs":[],"stateMutability":"nonpayable","type":"function"},{"inputs":[{"internalType":"uint256","name":"questId","type":"uint256"},{"internalType":"uint256","name":"reward","type":"uint256"}],"name":"setQuestReward","outputs":[],"stateMutability":"nonpayable","type":"function"},{"inputs":[{"internalType":"address","name":"_riseToken","type":"address"}],"name":"setRiseToken","outputs":[],"stateMutability":"nonpayable","type":"function"},{"inputs":[{"internalType":"address","name":"","type":"address"}],"name":"totalHarvests","outputs":[{"internalType":"uint256","name":"","type":"uint256"}],"stateMutability":"view","type":"function"},{"inputs":[{"internalType":"address","name":"","type":"address"}],"name":"totalXP","outputs":[{"internalType":"uint256","name":"","type":"uint256"}],"stateMutability":"view","type":"function"},{"inputs":[{"internalType":"address","name":"newOwner","type":"address"}],"name":"transferOwnership","outputs":[],"stateMutability":"nonpayable","type":"function"},{"inputs":[],"name":"unpause","outputs":[],"stateMutability":"nonpayable","type":"function"},{"inputs":[{"components":[{"internalType":"uint256","name":"id","type":"uint256"},{"internalType":"string","name":"name","type":"string"},{"internalType":"uint256[]","name":"itemIds","type":"uint256[]"},{"internalType":"uint256[]","name":"itemAmounts","type":"uint256[]"},{"internalType":"uint256","name":"priceETH","type":"uint256"},{"internalType":"address","name":"paymentToken","type":"address"},{"internalType":"bool","name":"active","type":"bool"},{"internalType":"uint256","name":"maxSupply","type":"uint256"},{"internalType":"uint256","name":"supply","type":"uint256"}],"internalType":"struct RiseFarming.Bundle","name":"bundle","type":"tuple"}],"name":"updateBundle","outputs":[],"stateMutability":"nonpayable","type":"function"},{"inputs":[{"components":[{"internalType":"uint256","name":"id","type":"uint256"},{"internalType":"string","name":"name","type":"string"},{"internalType":"uint8","name":"itemType","type":"uint8"},{"internalType":"uint256","name":"priceETH","type":"uint256"},{"internalType":"address","name":"paymentToken","type":"address"},{"internalType":"uint256","name":"baseReward","type":"uint256"},{"internalType":"uint256","name":"baseGrowthTime","type":"uint256"},{"internalType":"uint16","name":"growthBonusBP","type":"uint16"},{"internalType":"uint16","name":"yieldBonusBP","type":"uint16"},{"internalType":"bool","name":"active","type":"bool"},{"internalType":"uint256","name":"maxSupply","type":"uint256"},{"internalType":"uint256","name":"supply","type":"uint256"}],"internalType":"struct RiseFarming.Item","name":"item","type":"tuple"}],"name":"updateItem","outputs":[],"stateMutability":"nonpayable","type":"function"},{"inputs":[{"internalType":"address","name":"user","type":"address"}],"name":"updatePlotsForUser","outputs":[],"stateMutability":"nonpayable","type":"function"},{"inputs":[{"internalType":"uint256","name":"upgradeId","type":"uint256"}],"name":"upgradeFarm","outputs":[],"stateMutability":"nonpayable","type":"function"},{"inputs":[{"internalType":"uint256","name":"toolId","type":"uint256"},{"internalType":"uint256","name":"plotId","type":"uint256"}],"name":"useTool","outputs":[],"stateMutability":"nonpayable","type":"function"},{"inputs":[{"internalType":"address","name":"","type":"address"},{"internalType":"uint256","name":"","type":"uint256"}],"name":"userBundleSeeds","outputs":[{"internalType":"uint256","name":"","type":"uint256"}],"stateMutability":"view","type":"function"},{"inputs":[{"internalType":"address","name":"","type":"address"},{"internalType":"uint256","name":"","type":"uint256"}],"name":"userItemBalances","outputs":[{"internalType":"uint256","name":"","type":"uint256"}],"stateMutability":"view","type":"function"},{"inputs":[{"internalType":"address","name":"","type":"address"},{"internalType":"uint256","name":"","type":"uint256"}],"name":"userPlots","outputs":[{"internalType":"uint256","name":"seedId","type":"uint256"},{"internalType":"uint256","name":"plantedAt","type":"uint256"},{"internalType":"uint256","name":"readyAt","type":"uint256"},{"internalType":"uint16","name":"growthBonusBP","type":"uint16"},{"internalType":"uint16","name":"yieldBonusBP","type":"uint16"},{"internalType":"bool","name":"growing","type":"bool"}],"stateMutability":"view","type":"function"},{"inputs":[{"internalType":"address","name":"","type":"address"},{"internalType":"uint256","name":"","type":"uint256"}],"name":"userSingleSeeds","outputs":[{"internalType":"uint256","name":"","type":"uint256"}],"stateMutability":"view","type":"function"},{"inputs":[{"internalType":"address","name":"","type":"address"}],"name":"userStreaks","outputs":[{"internalType":"uint256","name":"","type":"uint256"}],"stateMutability":"view","type":"function"},{"inputs":[{"internalType":"uint256","name":"plotId","type":"uint256"}],"name":"waterCrop","outputs":[],"stateMutability":"nonpayable","type":"function"},{"inputs":[],"name":"withdrawETH","outputs":[],"stateMutability":"nonpayable","type":"function"},{"inputs":[{"internalType":"address","name":"token","type":"address"}],"name":"withdrawToken","outputs":[],"stateMutability":"nonpayable","type":"function"},{"stateMutability":"payable","type":"receive"}],"evm":{"bytecode":{"linkReferences":{},"object":"60806040523480156200001157600080fd5b5033806200003957604051631e4fbdf760e01b81526000600482015260240160405180910390fd5b620000448162002006565b50600180805560008052601060209081527f6e0956cda88cad152e89927e53611735b61a5c762d1428573c6931b0a5efcb01805460ff19169092179091556040805160e081018252670de0b6b3a76400008152671bc16d674ec80000928101929092526729a2241af62c000090820152673782dace9d9000006060820152674563918244f4000060808201526753444835ec58000060a0820152676124fee993bc000060c0820152620000fc90601190600762002056565b506040805161018081018252600980825282518084018452601881527f426173696320526963652053656564202853696e676c65290000000000000000602082810191909152808401918252600094840185905266016bcc41e90000606085015260808401859052606460a08501526101a460c0850152600f60e0850181905261010085015260016101208501526127106101408501819052610160850152919093526002905280517ff85cc6ffc513dc6cf7d199ef87b7a63cf9defe62251c1c247cd12f1eec7bff2990815591519091907ff85cc6ffc513dc6cf7d199ef87b7a63cf9defe62251c1c247cd12f1eec7bff2a90620001fc9082620021a0565b5060408281015160028301805460ff191660ff9092169190911790556060830151600383015560808301516004830180546001600160a01b0319166001600160a01b0390921691909117905560a0830151600583015560c0830151600683015560e08301516007830180546101008601516101208088015161ffff95861663ffffffff19909416939093176201000095909216949094021760ff60201b19166401000000009115159190910217905561014084015160088401556101609093015160099092019190915580519182018152600d825280518082018252601881527f426173696320526963652053656564202842756e646c65290000000000000000602082810191909152808401919091528151600180825281840184529284019290918281019080368337505050815260408051600180825281830190925260209283019290919080830190803683375050508152660221b262dd8000602080830191909152600060408301819052600160608401526103e86080840181905260a090930192909252600d9091526003815281516000805160206200680383398151915290815590820151600080516020620068e383398151915290620003c49082620021a0565b5060408201518051620003e2916002840191602090910190620020a4565b506060820151805162000400916003840191602090910190620020a4565b506080820151600482015560a082015160058201805460c08501511515600160a01b026001600160a81b03199091166001600160a01b039093169290921791909117905560e0820151600682015561010090910151600790910155600d60009081526003602052600080516020620068c38339815191528054600992906200048c576200048c6200226c565b6000918252602080832090910192909255600d8152600390915260008051602062006923833981519152805460059290620004cb57620004cb6200226c565b60009182526020808320909101929092556040805161018081018252600a80825282518084018452601a81527f5072656d69756d20526963652053656564202853696e676c652900000000000081870152828601908152928201849052660221b262dd800060608301526080820184905260c860a083015261016860c0830152601e60e083018190526101008301526001610120830152610fa06101408301819052610160830152909252600290925280517fd3604db978f6137b0d18816b77b2ce810487a3af08a922e0b184963be5f3adfc90815591519091907fd3604db978f6137b0d18816b77b2ce810487a3af08a922e0b184963be5f3adfd90620005d49082620021a0565b5060408281015160028301805460ff191660ff9092169190911790556060830151600383015560808301516004830180546001600160a01b0319166001600160a01b0390921691909117905560a0830151600583015560c0830151600683015560e08301516007830180546101008601516101208088015161ffff95861663ffffffff19909416939093176201000095909216949094021760ff60201b19166401000000009115159190910217905561014084015160088401556101609093015160099092019190915580519182018152600e825280518082018252601a81527f5072656d69756d20526963652053656564202842756e646c652900000000000060208281019190915280840191909152815160018082528184018452928401929091828101908036833750505081526040805160018082528183019092526020928301929091908083019080368337505050815266038d7ea4c68000602080830191909152600060408301819052600160608401526103e86080840181905260a090930192909252600e909152600381528151600080516020620068838339815191529081559082015160008051602062006843833981519152906200079c9082620021a0565b5060408201518051620007ba916002840191602090910190620020a4565b5060608201518051620007d8916003840191602090910190620020a4565b506080820151600482015560a082015160058201805460c08501511515600160a01b026001600160a81b03199091166001600160a01b039093169290921791909117905560e0820151600682015561010090910151600790910155600e60009081526003602052600080516020620068238339815191528054600a92906200086457620008646200226c565b6000918252602080832090910192909255600e81526003909152600080516020620067c3833981519152805460029290620008a357620008a36200226c565b60009182526020808320909101929092556040805161018081018252600b80825282518084018452601981527f48796272696420526963652053656564202853696e676c6529000000000000008187015282860190815292820184905266038d7ea4c6800060608301526080820184905261019060a083015261012c60c0830152604660e0830181905261010083015260016101208301526107d06101408301819052610160830152909252600290925280517fab9952baf6478d8cfb7253ce86a6c53a7b7549582c76210b1581ae682b7e556f90815591519091907fab9952baf6478d8cfb7253ce86a6c53a7b7549582c76210b1581ae682b7e557090620009ad9082620021a0565b5060408281015160028301805460ff191660ff9092169190911790556060830151600383015560808301516004830180546001600160a01b0319166001600160a01b0390921691909117905560a0830151600583015560c0830151600683015560e08301516007830180546101008601516101208088015161ffff95861663ffffffff19909416939093176201000095909216949094021760ff60201b19166401000000009115159190910217905561014084015160088401556101609093015160099092019190915580519182018152600f825280518082018252601981527f48796272696420526963652053656564202842756e646c6529000000000000006020828101919091528084019190915281516001808252818401845292840192909182810190803683375050508152604080516001808252818301909252602092830192909190808301908036833750505081526604f94ae6af8000602080830191909152600060408301819052600160608401526101f46080840181905260a090930192909252600f9091526003815281516000805160206200690383398151915290815590820151600080516020620068a38339815191529062000b759082620021a0565b506040820151805162000b93916002840191602090910190620020a4565b506060820151805162000bb1916003840191602090910190620020a4565b506080820151600482015560a082015160058201805460c08501511515600160a01b026001600160a81b03199091166001600160a01b039093169290921791909117905560e0820151600682015561010090910151600790910155600f60009081526003602052600080516020620067e38339815191528054600b929062000c3d5762000c3d6200226c565b6000918252602080832090910192909255600f815260039091526000805160206200686383398151915280546002929062000c7c5762000c7c6200226c565b60009182526020808320909101929092556040805161018081018252601180825282518084018452601981527f476f6c64656e20486172766573746572202853696e676c6529000000000000008187015282860190815260019383018490526602d79883d2000060608401526080830185905260a0830185905260c0830185905260e083018590526101008301859052610120830193909352610ea66101408301819052610160830152909252600290925280517fa4e0f4432e44d027a7b3f953940f096bca7a9bd910297cad2ba7c703c2b799d390815591519091907fa4e0f4432e44d027a7b3f953940f096bca7a9bd910297cad2ba7c703c2b799d49062000d879082620021a0565b5060408281015160028301805460ff191660ff9092169190911790556060830151600383015560808301516004830180546001600160a01b0319166001600160a01b0390921691909117905560a0830151600583015560c0830151600683015560e08301516007830180546101008601516101208088015161ffff95861663ffffffff19909416939093176201000095909216949094021760ff60201b191664010000000091151591909102179055610140840151600884015561016090930151600990920191909155805191820181526010825280518082018252601981527f476f6c64656e20486172766573746572202842756e646c6529000000000000006020828101919091528084019190915281516001808252818401845292840192909182810190803683375050508152604080516001808252818301909252602092830192909190808301908036833750505081526605af3107a40000602080830191909152600060408301819052600160608401526107536080840181905260a09093019290925260109091526003815281517f47d4745e02b343689a5e7ac121d2a352b7a15c10328a8759fd7d4cf0999002bb908155908201517f47d4745e02b343689a5e7ac121d2a352b7a15c10328a8759fd7d4cf0999002bc9062000f719082620021a0565b506040820151805162000f8f916002840191602090910190620020a4565b506060820151805162000fad916003840191602090910190620020a4565b506080820151600482015560a082015160058201805460c08501511515600160a01b026001600160a81b03199091166001600160a01b039093169290921791909117905560e08201516006820155610100909101516007909101556010600090815260036020527f47d4745e02b343689a5e7ac121d2a352b7a15c10328a8759fd7d4cf0999002bd8054601192906200104a576200104a6200226c565b60009182526020808320909101929092556010815260039091527f47d4745e02b343689a5e7ac121d2a352b7a15c10328a8759fd7d4cf0999002be8054600292906200109a576200109a6200226c565b60009182526020808320909101929092556040805161018081018252600c80825282518084018452601381527f46657274696c697a657220537072656164657200000000000000000000000000818701528286019081526001938301849052606083018590526080830185905260a0830185905260c08301859052601960e0840152600f6101008401526101208301939093526127106101408301819052610160830152909252600290925280517fbd814762a7e35d5c162a7570d14baa68bd622cabb1ad83d40dd70f8a88aa67c090815591519091907fbd814762a7e35d5c162a7570d14baa68bd622cabb1ad83d40dd70f8a88aa67c1906200119f9082620021a0565b5060408201518160020160006101000a81548160ff021916908360ff1602179055506060820151816003015560808201518160040160006101000a8154816001600160a01b0302191690836001600160a01b0316021790555060a0820151816005015560c0820151816006015560e08201518160070160006101000a81548161ffff021916908361ffff1602179055506101008201518160070160026101000a81548161ffff021916908361ffff1602179055506101208201518160070160046101000a81548160ff02191690831515021790555061014082015181600801556101608201518160090155905050604051806101800160405280600481526020016040518060400160405280600e81526020016d537461727465722042756e646c6560901b8152508152602001600060ff1681526020016000815260200160006001600160a01b031681526020016000815260200160008152602001600061ffff168152602001600061ffff1681526020016001151581526020016103e881526020016103e881525060026000600481526020019081526020016000206000820151816000015560208201518160010190816200135d9190620021a0565b5060408201518160020160006101000a81548160ff021916908360ff1602179055506060820151816003015560808201518160040160006101000a8154816001600160a01b0302191690836001600160a01b0316021790555060a0820151816005015560c0820151816006015560e08201518160070160006101000a81548161ffff021916908361ffff1602179055506101008201518160070160026101000a81548161ffff021916908361ffff1602179055506101208201518160070160046101000a81548160ff02191690831515021790555061014082015181600801556101608201518160090155905050604051806101800160405280600681526020016040518060400160405280601481526020017f4175746f2d5761746572696e672053797374656d0000000000000000000000008152508152602001600160ff1681526020016000815260200160006001600160a01b031681526020016000815260200160008152602001600061ffff168152602001600061ffff1681526020016001151581526020016161a881526020016161a881525060026000600681526020019081526020016000206000820151816000015560208201518160010190816200152a9190620021a0565b5060408201518160020160006101000a81548160ff021916908360ff1602179055506060820151816003015560808201518160040160006101000a8154816001600160a01b0302191690836001600160a01b0316021790555060a0820151816005015560c0820151816006015560e08201518160070160006101000a81548161ffff021916908361ffff1602179055506101008201518160070160026101000a81548161ffff021916908361ffff1602179055506101208201518160070160046101000a81548160ff02191690831515021790555061014082015181600801556101608201518160090155905050604051806101800160405280600581526020016040518060400160405280600c81526020016b2bb0ba32b934b7339021b0b760a11b8152508152602001600160ff16815260200166016911c3f9d000815260200160006001600160a01b031681526020016000815260200160008152602001600061ffff168152602001600061ffff16815260200160011515815260200161c350815260200161c3508152506002600060058152602001908152602001600020600082015181600001556020820151816001019081620016ec9190620021a0565b5060408281015160028301805460ff191660ff9092169190911790556060830151600383015560808301516004830180546001600160a01b0319166001600160a01b0390921691909117905560a0830151600583015560c0830151600683015560e08301516007830180546101008601516101208088015161ffff95861663ffffffff19909416939093176201000095909216949094021760ff60201b19166401000000009115159190910217905561014084015160088401556101609093015160099092019190915580519182018152600d825280518082018252601881527f426173696320526963652053656564202842756e646c65290000000000000000602082810191909152808401919091528151600180825281840184529284019290918281019080368337505050815260408051600180825281830190925260209283019290919080830190803683375050508152660221b262dd8000602080830191909152600060408301819052600160608401526103e86080840181905260a090930192909252600d9091526003815281516000805160206200680383398151915290815590820151600080516020620068e383398151915290620018b49082620021a0565b5060408201518051620018d2916002840191602090910190620020a4565b5060608201518051620018f0916003840191602090910190620020a4565b506080820151600482015560a082015160058201805460c08501511515600160a01b026001600160a81b03199091166001600160a01b039093169290921791909117905560e0820151600682015561010090910151600790910155600d60009081526003602052600080516020620068c38339815191528054600992906200197c576200197c6200226c565b6000918252602080832090910192909255600d8152600390915260008051602062006923833981519152805460059290620019bb57620019bb6200226c565b9060005260206000200181905550604051806101200160405280600e81526020016040518060400160405280601a81526020017f5072656d69756d20526963652053656564202842756e646c6529000000000000815250815260200160016001600160401b0381111562001a335762001a33620020f9565b60405190808252806020026020018201604052801562001a5d578160200160208202803683370190505b50815260408051600180825281830190925260209092019190816020016020820280368337505050815266038d7ea4c68000602080830191909152600060408301819052600160608401526103e86080840181905260a090930192909252600e9091526003815281516000805160206200688383398151915290815590820151600080516020620068438339815191529062001afa9082620021a0565b506040820151805162001b18916002840191602090910190620020a4565b506060820151805162001b36916003840191602090910190620020a4565b506080820151600482015560a082015160058201805460c08501511515600160a01b026001600160a81b03199091166001600160a01b039093169290921791909117905560e0820151600682015561010090910151600790910155600e60009081526003602052600080516020620068238339815191528054600a929062001bc25762001bc26200226c565b6000918252602080832090910192909255600e81526003909152600080516020620067c383398151915280546002929062001c015762001c016200226c565b9060005260206000200181905550604051806101200160405280600f81526020016040518060400160405280601981526020017f48796272696420526963652053656564202842756e646c652900000000000000815250815260200160016001600160401b0381111562001c795762001c79620020f9565b60405190808252806020026020018201604052801562001ca3578160200160208202803683370190505b5081526040805160018082528183019092526020909201919081602001602082028036833750505081526604f94ae6af8000602080830191909152600060408301819052600160608401526101f46080840181905260a090930192909252600f9091526003815281516000805160206200690383398151915290815590820151600080516020620068a38339815191529062001d409082620021a0565b506040820151805162001d5e916002840191602090910190620020a4565b506060820151805162001d7c916003840191602090910190620020a4565b506080820151600482015560a082015160058201805460c08501511515600160a01b026001600160a81b03199091166001600160a01b039093169290921791909117905560e0820151600682015561010090910151600790910155600f60009081526003602052600080516020620067e38339815191528054600b929062001e085762001e086200226c565b6000918252602080832090910192909255600f815260039091526000805160206200686383398151915280546002929062001e475762001e476200226c565b60009182526020808320909101929092556040805161018081018252600880825282518084018452600e81526d22b732b933bc902137b7b9ba32b960911b818701528286019081526002938301849052606083018590526080830185905260a0830185905260c0830185905260e0830185905261010083018590526001610120840152611f4061014084018190526101608401529352925281517f3a5ea591190eeb3f8fcdced843c78df04ec0dfd42f5510375207515664fa0a7590815590517f3a5ea591190eeb3f8fcdced843c78df04ec0dfd42f5510375207515664fa0a769062001f359082620021a0565b50604082015160028201805460ff90921660ff199092169190911790556060820151600382015560808201516004820180546001600160a01b039092166001600160a01b031990921691909117905560a0820151600582015560c0820151600682015560e082015160078201805461010085015161012086015115156401000000000260ff60201b1961ffff928316620100000263ffffffff199094169290951691909117919091179290921691909117905561014082015160088201556101609091015160099091015562002282565b600080546001600160a01b038381166001600160a01b0319831681178455604051919092169283917f8be0079c531659141344cd1fd0a4f28419497f9722a3daafe3b4186f6b6457e09190a35050565b826007810192821562002092579160200282015b828111156200209257825182906001600160401b03169055916020019190600101906200206a565b50620020a0929150620020e2565b5090565b82805482825590600052602060002090810192821562002092579160200282015b8281111562002092578251825591602001919060010190620020c5565b5b80821115620020a05760008155600101620020e3565b634e487b7160e01b600052604160045260246000fd5b600181811c908216806200212457607f821691505b6020821081036200214557634e487b7160e01b600052602260045260246000fd5b50919050565b601f8211156200219b576000816000526020600020601f850160051c81016020861015620021765750805b601f850160051c820191505b81811015620021975782815560010162002182565b5050505b505050565b81516001600160401b03811115620021bc57620021bc620020f9565b620021d481620021cd84546200210f565b846200214b565b602080601f8311600181146200220c5760008415620021f35750858301515b600019600386901b1c1916600185901b17855562002197565b600085815260208120601f198616915b828110156200223d578886015182559484019460019091019084016200221c565b50858210156200225c5787850151600019600388901b60f8161c191681555b5050505050600190811b01905550565b634e487b7160e01b600052603260045260246000fd5b61453180620022926000396000f3fe6080604052600436106104095760003560e01c80638673fb8b11610213578063d13e335311610123578063e68b02cc116100ab578063edf2fe731161007a578063edf2fe7314610d36578063f2fde38b14610d49578063f3274a1f14610d69578063f9e38f9c14610d7e578063fee99c7214610d9e57600080fd5b8063e68b02cc14610cc1578063e6f26df214610cd6578063e9da722f14610cf6578063edc0c03814610d1657600080fd5b8063ddc63262116100f2578063ddc6326214610c0c578063e086e5ec14610c2c578063e1f7d38a14610c41578063e203fffc14610c71578063e630d24114610cac57600080fd5b8063d13e335314610b7d578063d291d1f214610b92578063d6eacb6514610bbf578063d7a8ac0b14610bd457600080fd5b8063a8ad4513116101a6578063bfb231d211610175578063bfb231d214610ac8578063c7f7034614610b00578063ce882f3614610b20578063ced031d614610b35578063cf19384b14610b4a57600080fd5b8063a8ad451314610a69578063b07e9a8b14610a7e578063b0a79a9914610a93578063b203dc6014610aa857600080fd5b80639b7eb3d0116101e25780639b7eb3d0146109e95780639d633e7714610a09578063a4d3f55714610a29578063a512542114610a4957600080fd5b80638673fb8b1461096d5780638719c20a1461098257806389476069146109975780638da5cb5b146109b757600080fd5b80634bf8b2c611610319578063715018a6116102a157806379e072421161027057806379e07242146108d657806383f8b7e2146108f65780638456cb591461090b578063851044ec14610920578063860ecd8c1461094d57600080fd5b8063715018a61461083c57806375651e771461085157806375b9ea1d1461087e57806377f8c8371461089e57600080fd5b806354cb5399116102e857806354cb5399146107905780635a48d79d146107b05780635c975abb146107dd57806360e3ab0b146107fc57806366c3b5fa1461081c57600080fd5b80634bf8b2c61461069d5780634c321a89146106b25780634f87e8641461075057806353abfc851461077057600080fd5b806329e6d6811161039c57806338ee59b91161036b57806338ee59b9146105e85780633f4ba83a14610608578063451420cb1461061d578063484bb2441461063d5780634a7dc8e01461067d57600080fd5b806329e6d681146105465780632a1bbd1f1461057357806335a23e7b146105935780633603f8d1146105c057600080fd5b806313c066f8116103d857806313c066f8146104dc57806314c84f3a146104ef57806314d3a9c01461051c5780631f36c9071461053157600080fd5b8063073e57d21461041557806307bd03ba146104375780630da0d7a5146104825780630f13dda4146104af57600080fd5b3661041057005b600080fd5b34801561042157600080fd5b50610435610430366004613a35565b610dcb565b005b34801561044357600080fd5b5061046f610452366004613a6a565b600460209081526000928352604080842090915290825290205481565b6040519081526020015b60405180910390f35b34801561048e57600080fd5b5061046f61049d366004613a94565b600c6020526000908152604090205481565b3480156104bb57600080fd5b5061046f6104ca366004613a35565b600f6020526000908152604090205481565b6104356104ea366004613ab6565b61101f565b3480156104fb57600080fd5b5061046f61050a366004613a94565b60086020526000908152604090205481565b34801561052857600080fd5b5061046f600681565b34801561053d57600080fd5b5061046f600881565b34801561055257600080fd5b5061046f610561366004613a94565b60076020526000908152604090205481565b34801561057f57600080fd5b5061043561058e366004613aeb565b611352565b34801561059f57600080fd5b5061046f6105ae366004613a94565b600a6020526000908152604090205481565b3480156105cc57600080fd5b506105d5600081565b60405161ffff9091168152602001610479565b3480156105f457600080fd5b50610435610603366004613aeb565b611485565b34801561061457600080fd5b50610435611680565b34801561062957600080fd5b50610435610638366004613c4e565b611692565b34801561064957600080fd5b5061066d610658366004613a94565b60106020526000908152604090205460ff1681565b6040519015158152602001610479565b34801561068957600080fd5b50610435610698366004613a94565b6117ea565b3480156106a957600080fd5b506105d5604681565b3480156106be57600080fd5b5061071a6106cd366004613a6a565b600560209081526000928352604080842090915290825290208054600182015460028301546003909301549192909161ffff8082169162010000810490911690600160201b900460ff1686565b6040805196875260208701959095529385019290925261ffff9081166060850152166080830152151560a082015260c001610479565b34801561075c57600080fd5b5061043561076b366004613aeb565b61184d565b34801561077c57600080fd5b5061043561078b366004613aeb565b611c11565b34801561079c57600080fd5b506104356107ab366004613dd9565b611c2b565b3480156107bc57600080fd5b5061046f6107cb366004613a94565b600b6020526000908152604090205481565b3480156107e957600080fd5b50600054600160a01b900460ff1661066d565b34801561080857600080fd5b50610435610817366004613c4e565b611d4d565b34801561082857600080fd5b50610435610837366004613a35565b611d55565b34801561084857600080fd5b50610435611d7b565b34801561085d57600080fd5b5061087161086c366004613edc565b611d8d565b6040516104799190613f62565b34801561088a57600080fd5b50610435610899366004613a35565b611edf565b3480156108aa57600080fd5b5061046f6108b9366004613a6a565b601960209081526000928352604080842090915290825290205481565b3480156108e257600080fd5b506104356108f1366004613a35565b612039565b34801561090257600080fd5b50610435612191565b34801561091757600080fd5b506104356122e8565b34801561092c57600080fd5b5061094061093b366004613edc565b6122f8565b6040516104799190614024565b34801561095957600080fd5b50610435610968366004613a35565b6123b2565b34801561097957600080fd5b506104356125c3565b34801561098e57600080fd5b5061046f600b81565b3480156109a357600080fd5b506104356109b2366004613a94565b6126f1565b3480156109c357600080fd5b506000546001600160a01b03165b6040516001600160a01b039091168152602001610479565b3480156109f557600080fd5b50610435610a04366004613a94565b612814565b348015610a1557600080fd5b506018546109d1906001600160a01b031681565b348015610a3557600080fd5b50610435610a44366004613a94565b6128b4565b348015610a5557600080fd5b50610435610a64366004613a94565b6128de565b348015610a7557600080fd5b5061046f600581565b348015610a8a57600080fd5b5061046f600a81565b348015610a9f57600080fd5b5061046f601281565b348015610ab457600080fd5b5061046f610ac3366004613a35565b612937565b348015610ad457600080fd5b50610ae8610ae3366004613a35565b61294e565b6040516104799c9b9a9998979695949392919061407d565b348015610b0c57600080fd5b50610435610b1b366004613aeb565b612a4f565b348015610b2c57600080fd5b50610435612ac6565b348015610b4157600080fd5b50610435612c3c565b348015610b5657600080fd5b50610b6a610b65366004613a35565b612eb4565b60405161047997969594939291906140fa565b348015610b8957600080fd5b5061046f600c81565b348015610b9e57600080fd5b5061046f610bad366004613a94565b60066020526000908152604090205481565b348015610bcb57600080fd5b5061046f601181565b348015610be057600080fd5b5061046f610bef366004613a6a565b601a60209081526000928352604080842090915290825290205481565b348015610c1857600080fd5b50610435610c27366004613a35565b612f88565b348015610c3857600080fd5b50610435613206565b348015610c4d57600080fd5b5061066d610c5c366004613a94565b600d6020526000908152604090205460ff1681565b348015610c7d57600080fd5b5061066d610c8c366004613a6a565b600e60209081526000928352604080842090915290825290205460ff1681565b348015610cb857600080fd5b5061046f600981565b348015610ccd57600080fd5b5061046f600781565b348015610ce257600080fd5b50610435610cf1366004613a94565b613298565b348015610d0257600080fd5b50610435610d11366004613a35565b613337565b348015610d2257600080fd5b50610435610d31366004613dd9565b613405565b610435610d44366004613ab6565b61340d565b348015610d5557600080fd5b50610435610d64366004613a94565b6137df565b348015610d7557600080fd5b5061046f600481565b348015610d8a57600080fd5b50610435610d99366004613a35565b61381a565b348015610daa57600080fd5b5061046f610db9366004613a94565b60096020526000908152604090205481565b610dd3613841565b610ddb61386c565b33600090815260046020908152604080832060118452909152902054610e485760405162461bcd60e51b815260206004820152601e60248201527f4e65656420476f6c64656e20486172766573746572202853696e676c6529000060448201526064015b60405180910390fd5b33600090815260056020908152604080832084845290915290206003810154600160201b900460ff16610e8d5760405162461bcd60e51b8152600401610e3f90614146565b8060020154421015610ecd5760405162461bcd60e51b81526020600482015260096024820152684e6f7420726561647960b81b6044820152606401610e3f565b336000908152600460209081526040808320601184529091528120805460019290610ef9908490614185565b90915550508054600090815260026020526040812060038301549091906103e890610f2e9062010000900461ffff168261419e565b61ffff168360050154610f4191906141c0565b610f4b91906141ed565b905060006064610f5c8360146141c0565b610f6691906141ed565b90506000610f748284614201565b336000908152600c6020526040812080549293508392909190610f98908490614201565b909155505060038501805464ff0000000019169055604080518781526020810183905233917f81ca9b2c230070eaa84787556b1aaf18bf1e2f07ea5d3dae4819db77a1a5b224910160405180910390a2336000908152600b60205260408120805460019290611008908490614201565b9091555050600180555061101c9350505050565b50565b611027613841565b61102f61386c565b60008381526002602052604090206007810154600160201b900460ff166110885760405162461bcd60e51b815260206004820152600d60248201526c4974656d20696e61637469766560981b6044820152606401610e3f565b82816009015410156110ac5760405162461bcd60e51b8152600401610e3f90614214565b600083116110f15760405162461bcd60e51b81526020600482015260126024820152710416d6f756e74206d757374206265203e20360741b6044820152606401610e3f565b60006001600160a01b03831615611109576000611119565b83826003015461111991906141c0565b90506001600160a01b038316611171578034101561116c5760405162461bcd60e51b815260206004820152601060248201526f092dce6eaccccd2c6d2cadce8408aa8960831b6044820152606401610e3f565b6111ea565b6040516323b872dd60e01b8152336004820152306024820152604481018290526001600160a01b038416906323b872dd906064016020604051808303816000875af11580156111c4573d6000803e3d6000fd5b505050506040513d601f19601f820116820180604052508101906111e89190614241565b505b838260090160008282546111fe9190614185565b90915550503360009081526004602090815260408083208884529091528120805486929061122d908490614201565b9091555050600282015460ff16600003611271573360009081526019602090815260408083208884529091528120805486929061126b908490614201565b90915550505b60408051600180825281830190925260009160208083019080368337505060408051600180825281830190925292935060009291506020808301908036833701905050905086826000815181106112ca576112ca61425e565b60200260200101818152505085816000815181106112ea576112ea61425e565b602002602001018181525050336001600160a01b03167f0faa30265942b056f8379458c99d8bce44d758b6c4e762355961a2ec3de64d41600084848988604051611338959493929190614274565b60405180910390a25050505061134d60018055565b505050565b61135a613841565b61136261386c565b3360009081526004602090815260408083208584529091529020546113b35760405162461bcd60e51b8152602060048201526007602482015266139bc81d1bdbdb60ca1b6044820152606401610e3f565b60008281526002602052604090206007810154600160201b900460ff1680156113e35750600281015460ff166001145b61141e5760405162461bcd60e51b815260206004820152600c60248201526b125b9d985b1a59081d1bdbdb60a21b6044820152606401610e3f565b3360009081526004602090815260408083208684529091528120805460019290611449908490614185565b9091555050604080518481526020810184905233916000805160206144dc833981519152910160405180910390a25061148160018055565b5050565b61148d613841565b61149561386c565b60008281526002602052604090206007810154600160201b900460ff166114ee5760405162461bcd60e51b815260206004820152600d60248201526c4974656d20696e61637469766560981b6044820152606401610e3f565b81816009015410156115125760405162461bcd60e51b8152600401610e3f90614214565b60038101541561155c5760405162461bcd60e51b81526020600482015260156024820152744e6f7420616e2052542d707269636564206974656d60581b6044820152606401610e3f565b6000611571836802b5e3af16b18800006141c0565b336000908152600c60205260409020549091508111156115c35760405162461bcd60e51b815260206004820152600d60248201526c139bdd08195b9bdd59da081495609a1b6044820152606401610e3f565b336000908152600c6020526040812080548392906115e2908490614185565b92505081905550828260090160008282546115fd9190614185565b90915550503360009081526004602090815260408083208784529091528120805485929061162c908490614201565b9091555050604080518581526020810185905290810182905233907f0d60605d69a1fe7571d54b1ffc1cf6018cc3d4ef8398467410ae50018331d316906060015b60405180910390a2505061148160018055565b611688613896565b6116906138c3565b565b61169a613896565b805160009081526002602052604081205490036116ef5760405162461bcd60e51b8152602060048201526013602482015272125d195b48191bd95cc81b9bdd08195e1a5cdd606a1b6044820152606401610e3f565b805160009081526002602090815260409091208251815590820151829190600182019061171c9082614347565b50604082015160028201805460ff90921660ff199092169190911790556060820151600382015560808201516004820180546001600160a01b039092166001600160a01b031990921691909117905560a0820151600582015560c0820151600682015560e08201516007820180546101008501516101208601511515600160201b0264ff000000001961ffff928316620100000263ffffffff199094169290951691909117919091179290921691909117905561014082015160088201556101609091015160099091015550565b6117f2613896565b6001600160a01b038116600081815260106020908152604091829020805460ff1916600117905590519182527fa317c10673baf4f03b3c1041bd5ddbb537d0333a86fec3607c75f9dbb630f48f91015b60405180910390a150565b611855613841565b61185d61386c565b3360009081526004602090815260408083208484529091529020546118af5760405162461bcd60e51b81526020600482015260086024820152674e6f20736565647360c01b6044820152606401610e3f565b60008181526002602052604090206007810154600160201b900460ff1680156118dd5750600281015460ff16155b6119185760405162461bcd60e51b815260206004820152600c60248201526b125b9d985b1a59081cd9595960a21b6044820152606401610e3f565b6007810154604661ffff909116111561196f5760405162461bcd60e51b815260206004820152601960248201527847726f77746820626f6e7573206f7574206f662072616e676560381b6044820152606401610e3f565b600781015460466201000090910461ffff1611156119ca5760405162461bcd60e51b81526020600482015260186024820152775969656c6420626f6e7573206f7574206f662072616e676560401b6044820152606401610e3f565b33600090815260046020908152604080832085845290915281208054600192906119f5908490614185565b9091555050336000908152601a6020908152604080832085845290915290205415611a5057336000908152601a602090815260408083208584529091528120805460019290611a45908490614185565b90915550611ad89050565b33600090815260196020908152604080832085845290915290205415611a9b573360009081526019602090815260408083208584529091528120805460019290611a45908490614185565b60405162461bcd60e51b81526020600482015260126024820152714e6f20736565647320617661696c61626c6560701b6044820152606401610e3f565b60078101546000906103e890611af29061ffff1682614407565b61ffff168360060154611b0591906141c0565b611b0f91906141ed565b90506040518060c001604052808481526020014281526020018242611b349190614201565b8152600784015461ffff8082166020808501919091526201000092839004821660408086019190915260016060958601819052336000818152600585528381208d825285528390208851815588850151928101929092558783015160028301559587015160039091018054608089015160a09099015192861663ffffffff1990911617979094169094029590951764ff000000001916600160201b93151593909302929092179055825187815290810186905290917fbff838f2fb339f78375289b45e530f7c7785d3d2a337193ebc7901faea10ef3a910161166d565b611c19613896565b6000918252600f602052604090912055565b611c33613896565b80516000908152600360205260408120549003611c8a5760405162461bcd60e51b8152602060048201526015602482015274109d5b991b1948191bd95cc81b9bdd08195e1a5cdd605a1b6044820152606401610e3f565b8051600090815260036020908152604090912082518155908201518291906001820190611cb79082614347565b5060408201518051611cd39160028401916020909101906139d5565b5060608201518051611cef9160038401916020909101906139d5565b506080820151600482015560a082015160058201805460c08501511515600160a01b026001600160a81b03199091166001600160a01b039093169290921791909117905560e082015160068201556101009091015160079091015550565b6116ef613896565b611d5d613896565b6000908152600360205260409020600501805460ff60a01b19169055565b611d83613896565b6116906000613918565b606060008267ffffffffffffffff811115611daa57611daa613b0d565b604051908082528060200260200182016040528015611e0a57816020015b6040805160c08101825260008082526020808301829052928201819052606082018190526080820181905260a08201528252600019909201910181611dc85790505b50905060005b83811015611ed6576001600160a01b038616600090815260056020526040812090868684818110611e4357611e4361425e565b60209081029290920135835250818101929092526040908101600020815160c081018352815481526001820154938101939093526002810154918301919091526003015461ffff8082166060840152620100008204166080830152600160201b900460ff16151560a08201528251839083908110611ec357611ec361425e565b6020908102919091010152600101611e10565b50949350505050565b611ee7613841565b611eef61386c565b336000908152600e6020908152604080832084845290915290205460ff1615611f525760405162461bcd60e51b8152602060048201526015602482015274145d595cdd08185b1c9958591e4818db185a5b5959605a1b6044820152606401610e3f565b6000818152600f602052604090205480611fae5760405162461bcd60e51b815260206004820152601a60248201527f496e76616c6964207175657374206f72206e6f207265776172640000000000006044820152606401610e3f565b336000908152600c602052604081208054839290611fcd908490614201565b9091555050336000818152600e60209081526040808320868452825291829020805460ff1916600117905581518581529081018490527f89ddf70f60dee0505eb22a143daf80046698f56a9e1c9421cbd95c486199306f91015b60405180910390a25061101c60018055565b612041613841565b61204961386c565b33600090815260046020908152604080832084845290915290205461209d5760405162461bcd60e51b815260206004820152600a6024820152694e6f207570677261646560b01b6044820152606401610e3f565b60008181526002602052604090206007810154600160201b900460ff1680156120cc575060028082015460ff16145b61210a5760405162461bcd60e51b815260206004820152600f60248201526e496e76616c6964207570677261646560881b6044820152606401610e3f565b3360009081526004602090815260408083208584529091528120805460019290612135908490614185565b9091555050336000908152600a6020526040812080546001929061215a908490614201565b909155505060405182815233907f64df0f68d7580b0900ece6245824a2cc4c50b47a830e4b867313abc3f3b516c890602001612027565b612199613841565b6121a161386c565b336000908152600660205260408120546121bd90600790614422565b336000908152600760205260409020549091506121dd9062015180614201565b42116122235760405162461bcd60e51b8152602060048201526015602482015274416c726561647920636c61696d656420746f64617960581b6044820152606401610e3f565b6000601182600781106122385761223861425e565b0154336000908152600c602052604081208054929350839290919061225e908490614201565b9091555050336000908152600660205260408120805460019290612283908490614201565b90915550503360008181526007602052604090204290557f564485e821cf8ba18a499f35679b99b9fba6f9886a625dd2a70b79da8cb5ba066122c6846001614201565b60408051918252602082018590520160405180910390a2505061169060018055565b6122f0613896565b611690613968565b606060008267ffffffffffffffff81111561231557612315613b0d565b60405190808252806020026020018201604052801561233e578160200160208202803683370190505b50905060005b83811015611ed6576001600160a01b0386166000908152600460205260408120908686848181106123775761237761425e565b9050602002013581526020019081526020016000205482828151811061239f5761239f61425e565b6020908102919091010152600101612344565b6123ba613841565b6123c261386c565b336000908152600460209081526040808320600c845290915290205461241a5760405162461bcd60e51b815260206004820152600d60248201526c2737902332b93a34b634bd32b960991b6044820152606401610e3f565b33600090815260056020908152604080832084845290915290206003810154600160201b900460ff1661245f5760405162461bcd60e51b8152600401610e3f90614146565b336000908152600460209081526040808320600c8452909152812080546001929061248b908490614185565b909155505060018101546000906124a29042614185565b6003830180549192506019916000906124c090849061ffff1661419e565b92506101000a81548161ffff021916908361ffff160217905550600f8260030160028282829054906101000a900461ffff166124fc919061419e565b82546101009290920a61ffff81810219909316918316021790915583546000908152600260205260408120600386015490935090916103e891612540911682614407565b61ffff16836006015461255391906141c0565b61255d91906141ed565b905080831015612585576125718382614185565b61257b9042614201565b600285015561258c565b4260028501555b60408051600c81526020810187905233916000805160206144dc833981519152910160405180910390a25050505061101c60018055565b6125cb613841565b6125d361386c565b3360009081526004602090815260408083206006845290915290205461263b5760405162461bcd60e51b815260206004820152601760248201527f4e6f204175746f2d5761746572696e672053797374656d0000000000000000006044820152606401610e3f565b6000805b60108110156126ae5733600090815260056020908152604080832084845290915290206003810154600160201b900460ff16156126a5576040805160068152602081018490526001945033916000805160206144dc833981519152910160405180910390a25b5060010161263f565b5080156126e7573360009081526004602090815260408083206006845290915281208054600192906126e1908490614185565b90915550505b5061169060018055565b6126f9613896565b6040516370a0823160e01b81523060048201526000906001600160a01b038316906370a0823190602401602060405180830381865afa158015612740573d6000803e3d6000fd5b505050506040513d601f19601f820116820180604052508101906127649190614436565b9050600081116127a35760405162461bcd60e51b815260206004820152600a6024820152694e6f2062616c616e636560b01b6044820152606401610e3f565b60405163a9059cbb60e01b8152336004820152602481018290526001600160a01b0383169063a9059cbb906044016020604051808303816000875af11580156127f0573d6000803e3d6000fd5b505050506040513d601f19601f8201168201806040525081019061134d9190614241565b60005b6010811015611481576001600160a01b038216600090815260056020908152604080832084845290915290206003810154600160201b900460ff168015612862575080600201544210155b156128ab57826001600160a01b03167f11c42d52b352031ab932886e32b045f3fc5055ace50a7365cd2b005979ba9505836040516128a291815260200190565b60405180910390a25b50600101612817565b6128bc613896565b601880546001600160a01b0319166001600160a01b0392909216919091179055565b6128e6613896565b6001600160a01b038116600081815260106020908152604091829020805460ff1916905590519182527f85a3e72f8dd6db3794f93109c3c5f5b79d6112f6979431c45f98b26134b42af29101611842565b6011816007811061294757600080fd5b0154905081565b60026020526000908152604090208054600182018054919291612970906142bd565b80601f016020809104026020016040519081016040528092919081815260200182805461299c906142bd565b80156129e95780601f106129be576101008083540402835291602001916129e9565b820191906000526020600020905b8154815290600101906020018083116129cc57829003601f168201915b505050506002830154600384015460048501546005860154600687015460078801546008890154600990990154979860ff968716989597506001600160a01b03909416959294919361ffff8083169462010000840490911693600160201b90930416918c565b612a57613896565b6000828152600260205260408120549003612aaa5760405162461bcd60e51b8152602060048201526013602482015272125d195b48191bd95cc81b9bdd08195e1a5cdd606a1b6044820152606401610e3f565b6000918252600260205260409091206008810182905560090155565b612ace61386c565b336000908152600c60205260409020546801158e460913d00000811015612b375760405162461bcd60e51b815260206004820152601b60248201527f4d75737420636c61696d206174206c65617374203230205249534500000000006044820152606401610e3f565b336000818152600c602052604080822091909155601854905163a9059cbb60e01b81526004810192909252602482018390526001600160a01b03169063a9059cbb906044016020604051808303816000875af1158015612b9b573d6000803e3d6000fd5b505050506040513d601f19601f82011682018060405250810190612bbf9190614241565b612bfd5760405162461bcd60e51b815260206004820152600f60248201526e151c985b9cd9995c8819985a5b1959608a1b6044820152606401610e3f565b60405181815233907f2988752f8fcb52b8c982219deefd82a981754ed258f421467a7133874ba9f2909060200160405180910390a25061169060018055565b612c44613841565b612c4c61386c565b33600090815260046020908152604080832060128452909152902054612cb45760405162461bcd60e51b815260206004820152601e60248201527f4e65656420476f6c64656e20486172766573746572202842756e646c652900006044820152606401610e3f565b60008060005b6010811015612e115733600090815260056020908152604080832084845290915290206003810154600160201b900460ff168015612cfc575080600201544210155b15612e08578054600090815260026020526040812060038301549091906103e890612d319062010000900461ffff168261419e565b61ffff168360050154612d4491906141c0565b612d4e91906141ed565b905060006064612d5f8360146141c0565b612d6991906141ed565b90506000612d778284614201565b9050612d838189614201565b60038601805464ff0000000019169055975086612d9f8161444f565b336000908152600b602052604081208054929a506001935091612dc3908490614201565b9091555050604080518781526020810183905233917f81ca9b2c230070eaa84787556b1aaf18bf1e2f07ea5d3dae4819db77a1a5b224910160405180910390a2505050505b50600101612cba565b5060008111612e535760405162461bcd60e51b815260206004820152600e60248201526d4e6f20706c6f747320726561647960901b6044820152606401610e3f565b336000908152600460209081526040808320601284529091528120805460019290612e7f908490614185565b9091555050336000908152600c602052604081208054849290612ea3908490614201565b909155505060018055506116909050565b60036020526000908152604090208054600182018054919291612ed6906142bd565b80601f0160208091040260200160405190810160405280929190818152602001828054612f02906142bd565b8015612f4f5780601f10612f2457610100808354040283529160200191612f4f565b820191906000526020600020905b815481529060010190602001808311612f3257829003601f168201915b50505050600483015460058401546006850154600790950154939491936001600160a01b0382169350600160a01b90910460ff16919087565b612f90613841565b612f9861386c565b33600090815260056020908152604080832084845290915290206003810154600160201b900460ff16612fdd5760405162461bcd60e51b8152600401610e3f90614146565b806002015442101561301d5760405162461bcd60e51b81526020600482015260096024820152684e6f7420726561647960b81b6044820152606401610e3f565b805460009081526002602081905260409091209081015460ff16156130715760405162461bcd60e51b815260206004820152600a602482015269139bdd0818481cd9595960b21b6044820152606401610e3f565b6003820154604661ffff90911611156130c85760405162461bcd60e51b815260206004820152601960248201527847726f77746820626f6e7573206f7574206f662072616e676560381b6044820152606401610e3f565b600382015460466201000090910461ffff1611156131235760405162461bcd60e51b81526020600482015260186024820152775969656c6420626f6e7573206f7574206f662072616e676560401b6044820152606401610e3f565b60038201546000906103e8906131439062010000900461ffff168261419e565b61ffff16836005015461315691906141c0565b61316091906141ed565b336000908152600c6020526040812080549293508392909190613184908490614201565b909155505060038301805464ff0000000019169055604080518581526020810183905233917f81ca9b2c230070eaa84787556b1aaf18bf1e2f07ea5d3dae4819db77a1a5b224910160405180910390a2336000908152600b602052604081208054600192906131f4908490614201565b9091555050600180555061101c915050565b61320e613896565b604051600090339047908381818185875af1925050503d8060008114613250576040519150601f19603f3d011682016040523d82523d6000602084013e613255565b606091505b505090508061101c5760405162461bcd60e51b815260206004820152600f60248201526e15da5d1a191c985dc819985a5b1959608a1b6044820152606401610e3f565b60005b6010811015611481576001600160a01b038216600090815260056020908152604080832084845290915290206003810154600160201b900460ff1680156132e55750806002015442105b1561332e57826001600160a01b03167f3ad3dd486d6804864bd604a17ff5d932e3bf0493d580c0d7e093073bd3440d288360405161332591815260200190565b60405180910390a25b5060010161329b565b61333f613841565b61334761386c565b336000908152600460209081526040808320600584529091529020546133a15760405162461bcd60e51b815260206004820152600f60248201526e2737903bb0ba32b934b7339031b0b760891b6044820152606401610e3f565b3360009081526004602090815260408083206005845290915281208054600192906133cd908490614185565b909155505060408051600581526020810183905233916000805160206144dc833981519152910160405180910390a261101c60018055565b611c8a613896565b613415613841565b61341d61386c565b60008381526003602052604090206005810154600160a01b900460ff166134785760405162461bcd60e51b815260206004820152600f60248201526e42756e646c6520696e61637469766560881b6044820152606401610e3f565b82816007015410156134cc5760405162461bcd60e51b815260206004820152601a60248201527f496e73756666696369656e742062756e646c6520737570706c790000000000006044820152606401610e3f565b60006001600160a01b038316156134e45760006134f4565b8382600401546134f491906141c0565b90506001600160a01b03831661354c57803410156135475760405162461bcd60e51b815260206004820152601060248201526f092dce6eaccccd2c6d2cadce8408aa8960831b6044820152606401610e3f565b6135c5565b6040516323b872dd60e01b8152336004820152306024820152604481018290526001600160a01b038416906323b872dd906064016020604051808303816000875af115801561359f573d6000803e3d6000fd5b505050506040513d601f19601f820116820180604052508101906135c39190614241565b505b60005b60028301548110156136d45760008360020182815481106135eb576135eb61425e565b906000526020600020015490506000868560030184815481106136105761361061425e565b906000526020600020015461362591906141c0565b6000838152600260205260409020600901549091508111156136595760405162461bcd60e51b8152600401610e3f90614214565b6000828152600260205260408120600901805483929061367a908490614185565b909155505060008281526002602081905260408220015460ff1690036136ca57336000908152601a60209081526040808320858452909152812080548392906136c4908490614201565b90915550505b50506001016135c8565b50838260070160008282546136e99190614185565b90915550600090505b600283015481101561378657848360030182815481106137145761371461425e565b906000526020600020015461372991906141c0565b336000908152600460205260408120600286018054919291859081106137515761375161425e565b9060005260206000200154815260200190815260200160002060008282546137799190614201565b90915550506001016136f2565b50336001600160a01b03167f854931d3a8461ab9d0412c3e03f884c9911fbec9854941d26b4c14d88c6b0550868460020185600301856040516137cc949392919061449e565b60405180910390a2505061134d60018055565b6137e7613896565b6001600160a01b03811661381157604051631e4fbdf760e01b815260006004820152602401610e3f565b61101c81613918565b613822613896565b6000908152600260205260409020600701805464ff0000000019169055565b600054600160a01b900460ff16156116905760405163d93c066560e01b815260040160405180910390fd5b60026001540361388f57604051633ee5aeb560e01b815260040160405180910390fd5b6002600155565b6000546001600160a01b031633146116905760405163118cdaa760e01b8152336004820152602401610e3f565b6138cb6139ab565b6000805460ff60a01b191690557f5db9ee0a495bf2e6ff9c91a7834c1ba4fdd244a5e8aa4e537bd38aeae4b073aa335b6040516001600160a01b03909116815260200160405180910390a1565b600080546001600160a01b038381166001600160a01b0319831681178455604051919092169283917f8be0079c531659141344cd1fd0a4f28419497f9722a3daafe3b4186f6b6457e09190a35050565b613970613841565b6000805460ff60a01b1916600160a01b1790557f62e78cea01bee320cd4e420270b5ea74000d11b0c9f74754ebdbfc544b05a2586138fb3390565b600054600160a01b900460ff1661169057604051638dfc202b60e01b815260040160405180910390fd5b828054828255906000526020600020908101928215613a10579160200282015b82811115613a105782518255916020019190600101906139f5565b50613a1c929150613a20565b5090565b5b80821115613a1c5760008155600101613a21565b600060208284031215613a4757600080fd5b5035919050565b80356001600160a01b0381168114613a6557600080fd5b919050565b60008060408385031215613a7d57600080fd5b613a8683613a4e565b946020939093013593505050565b600060208284031215613aa657600080fd5b613aaf82613a4e565b9392505050565b600080600060608486031215613acb57600080fd5b8335925060208401359150613ae260408501613a4e565b90509250925092565b60008060408385031215613afe57600080fd5b50508035926020909101359150565b634e487b7160e01b600052604160045260246000fd5b604051610180810167ffffffffffffffff81118282101715613b4757613b47613b0d565b60405290565b604051610120810167ffffffffffffffff81118282101715613b4757613b47613b0d565b604051601f8201601f1916810167ffffffffffffffff81118282101715613b9a57613b9a613b0d565b604052919050565b600082601f830112613bb357600080fd5b813567ffffffffffffffff811115613bcd57613bcd613b0d565b613be0601f8201601f1916602001613b71565b818152846020838601011115613bf557600080fd5b816020850160208301376000918101602001919091529392505050565b803560ff81168114613a6557600080fd5b803561ffff81168114613a6557600080fd5b801515811461101c57600080fd5b8035613a6581613c35565b600060208284031215613c6057600080fd5b813567ffffffffffffffff80821115613c7857600080fd5b908301906101808286031215613c8d57600080fd5b613c95613b23565b82358152602083013582811115613cab57600080fd5b613cb787828601613ba2565b602083015250613cc960408401613c12565b604082015260608301356060820152613ce460808401613a4e565b608082015260a083013560a082015260c083013560c0820152613d0960e08401613c23565b60e08201526101009150613d1e828401613c23565b828201526101209150613d32828401613c43565b91810191909152610140828101359082015261016091820135918101919091529392505050565b600082601f830112613d6a57600080fd5b8135602067ffffffffffffffff821115613d8657613d86613b0d565b8160051b613d95828201613b71565b9283528481018201928281019087851115613daf57600080fd5b83870192505b84831015613dce57823582529183019190830190613db5565b979650505050505050565b600060208284031215613deb57600080fd5b813567ffffffffffffffff80821115613e0357600080fd5b908301906101208286031215613e1857600080fd5b613e20613b4d565b82358152602083013582811115613e3657600080fd5b613e4287828601613ba2565b602083015250604083013582811115613e5a57600080fd5b613e6687828601613d59565b604083015250606083013582811115613e7e57600080fd5b613e8a87828601613d59565b60608301525060808301356080820152613ea660a08401613a4e565b60a0820152613eb760c08401613c43565b60c082015260e083810135908201526101009283013592810192909252509392505050565b600080600060408486031215613ef157600080fd5b613efa84613a4e565b9250602084013567ffffffffffffffff80821115613f1757600080fd5b818601915086601f830112613f2b57600080fd5b813581811115613f3a57600080fd5b8760208260051b8501011115613f4f57600080fd5b6020830194508093505050509250925092565b602080825282518282018190526000919060409081850190868401855b82811015613fdb578151805185528681015187860152858101518686015260608082015161ffff908116918701919091526080808301519091169086015260a09081015115159085015260c09093019290850190600101613f7f565b5091979650505050505050565b60008151808452602080850194506020840160005b8381101561401957815187529582019590820190600101613ffd565b509495945050505050565b602081526000613aaf6020830184613fe8565b6000815180845260005b8181101561405d57602081850181015186830182015201614041565b506000602082860101526020601f19601f83011685010191505092915050565b60006101808e83528060208401526140978184018f614037565b60ff9d909d166040840152505060608101999099526001600160a01b0397909716608089015260a088019590955260c087019390935261ffff91821660e08701521661010085015215156101208401526101408301526101609091015292915050565b87815260e06020820152600061411360e0830189614037565b6040830197909752506001600160a01b03949094166060850152911515608084015260a083015260c09091015292915050565b6020808252600f908201526e4e6f7468696e672067726f77696e6760881b604082015260600190565b634e487b7160e01b600052601160045260246000fd5b818103818111156141985761419861416f565b92915050565b61ffff8181168382160190808211156141b9576141b961416f565b5092915050565b80820281158282048414176141985761419861416f565b634e487b7160e01b600052601260045260246000fd5b6000826141fc576141fc6141d7565b500490565b808201808211156141985761419861416f565b602080825260139082015272496e73756666696369656e7420737570706c7960681b604082015260600190565b60006020828403121561425357600080fd5b8151613aaf81613c35565b634e487b7160e01b600052603260045260246000fd5b85815260a06020820152600061428d60a0830187613fe8565b828103604084015261429f8187613fe8565b6001600160a01b039590951660608401525050608001529392505050565b600181811c908216806142d157607f821691505b6020821081036142f157634e487b7160e01b600052602260045260246000fd5b50919050565b601f82111561134d576000816000526020600020601f850160051c810160208610156143205750805b601f850160051c820191505b8181101561433f5782815560010161432c565b505050505050565b815167ffffffffffffffff81111561436157614361613b0d565b6143758161436f84546142bd565b846142f7565b602080601f8311600181146143aa57600084156143925750858301515b600019600386901b1c1916600185901b17855561433f565b600085815260208120601f198616915b828110156143d9578886015182559484019460019091019084016143ba565b50858210156143f75787850151600019600388901b60f8161c191681555b5050505050600190811b01905550565b61ffff8281168282160390808211156141b9576141b961416f565b600082614431576144316141d7565b500690565b60006020828403121561444857600080fd5b5051919050565b6000600182016144615761446161416f565b5060010190565b600081548084526020808501945083600052602060002060005b8381101561401957815487529582019560019182019101614482565b8481526080602082015260006144b76080830186614468565b82810360408401526144c98186614468565b9150508260608301529594505050505056fed29993d7389aafeb1ae0eebfcc0e2b777c314426c46ed802d5116187380125d5a2646970667358221220d9c73f7308fa6ddcafa6bc0f7a06b8c35dde451b10ccf0980a5f309881316d8464736f6c63430008180033d6ebcc64c739277b117ce359e436534b234b76e914c80ad276abf5b56207893cf60b7f6a315ec68a6ac240e69dca53652b38627f709a2caa217d9e18af4d7a62a8f2d96126c6d0ad63adabaef7bf5cf47f163fb0c218a473d28f62312d197bcfd6ebcc64c739277b117ce359e436534b234b76e914c80ad276abf5b56207893bd6ebcc64c739277b117ce359e436534b234b76e914c80ad276abf5b56207893af60b7f6a315ec68a6ac240e69dca53652b38627f709a2caa217d9e18af4d7a63d6ebcc64c739277b117ce359e436534b234b76e914c80ad276abf5b562078939f60b7f6a315ec68a6ac240e69dca53652b38627f709a2caa217d9e18af4d7a61a8f2d96126c6d0ad63adabaef7bf5cf47f163fb0c218a473d28f62312d197bd1a8f2d96126c6d0ad63adabaef7bf5cf47f163fb0c218a473d28f62312d197bd0f60b7f6a315ec68a6ac240e69dca53652b38627f709a2caa217d9e18af4d7a60a8f2d96126c6d0ad63adabaef7bf5cf47f163fb0c218a473d28f62312d197bd2","opcodes":"PUSH1 0x80 PUSH1 0x40 MSTORE CALLVALUE DUP1 ISZERO PUSH3 0x11 JUMPI PUSH1 0x0 DUP1 REVERT JUMPDEST POP CALLER DUP1 PUSH3 0x39 JUMPI PUSH1 0x40 MLOAD PUSH4 0x1E4FBDF7 PUSH1 0xE0 SHL DUP2 MSTORE PUSH1 0x0 PUSH1 0x4 DUP3 ADD MSTORE PUSH1 0x24 ADD PUSH1 0x40 MLOAD DUP1 SWAP2 SUB SWAP1 REVERT JUMPDEST PUSH3 0x44 DUP2 PUSH3 0x2006 JUMP JUMPDEST POP PUSH1 0x1 DUP1 DUP1 SSTORE PUSH1 0x0 DUP1 MSTORE PUSH1 0x10 PUSH1 0x20 SWAP1 DUP2 MSTORE PUSH32 0x6E0956CDA88CAD152E89927E53611735B61A5C762D1428573C6931B0A5EFCB01 DUP1 SLOAD PUSH1 0xFF NOT AND SWAP1 SWAP3 OR SWAP1 SWAP2 SSTORE PUSH1 0x40 DUP1 MLOAD PUSH1 0xE0 DUP2 ADD DUP3 MSTORE PUSH8 0xDE0B6B3A7640000 DUP2 MSTORE PUSH8 0x1BC16D674EC80000 SWAP3 DUP2 ADD SWAP3 SWAP1 SWAP3 MSTORE PUSH8 0x29A2241AF62C0000 SWAP1 DUP3 ADD MSTORE PUSH8 0x3782DACE9D900000 PUSH1 0x60 DUP3 ADD MSTORE PUSH8 0x4563918244F40000 PUSH1 0x80 DUP3 ADD MSTORE PUSH8 0x53444835EC580000 PUSH1 0xA0 DUP3 ADD MSTORE PUSH8 0x6124FEE993BC0000 PUSH1 0xC0 DUP3 ADD MSTORE PUSH3 0xFC SWAP1 PUSH1 0x11 SWAP1 PUSH1 0x7 PUSH3 0x2056 JUMP JUMPDEST POP PUSH1 0x40 DUP1 MLOAD PUSH2 0x180 DUP2 ADD DUP3 MSTORE PUSH1 0x9 DUP1 DUP3 MSTORE DUP3 MLOAD DUP1 DUP5 ADD DUP5 MSTORE PUSH1 0x18 DUP2 MSTORE PUSH32 0x426173696320526963652053656564202853696E676C65290000000000000000 PUSH1 0x20 DUP3 DUP2 ADD SWAP2 SWAP1 SWAP2 MSTORE DUP1 DUP5 ADD SWAP2 DUP3 MSTORE PUSH1 0x0 SWAP5 DUP5 ADD DUP6 SWAP1 MSTORE PUSH7 0x16BCC41E90000 PUSH1 0x60 DUP6 ADD MSTORE PUSH1 0x80 DUP5 ADD DUP6 SWAP1 MSTORE PUSH1 0x64 PUSH1 0xA0 DUP6 ADD MSTORE PUSH2 0x1A4 PUSH1 0xC0 DUP6 ADD MSTORE PUSH1 0xF PUSH1 0xE0 DUP6 ADD DUP2 SWAP1 MSTORE PUSH2 0x100 DUP6 ADD MSTORE PUSH1 0x1 PUSH2 0x120 DUP6 ADD MSTORE PUSH2 0x2710 PUSH2 0x140 DUP6 ADD DUP2 SWAP1 MSTORE PUSH2 0x160 DUP6 ADD MSTORE SWAP2 SWAP1 SWAP4 MSTORE PUSH1 0x2 SWAP1 MSTORE DUP1 MLOAD PUSH32 0xF85CC6FFC513DC6CF7D199EF87B7A63CF9DEFE62251C1C247CD12F1EEC7BFF29 SWAP1 DUP2 SSTORE SWAP2 MLOAD SWAP1 SWAP2 SWAP1 PUSH32 0xF85CC6FFC513DC6CF7D199EF87B7A63CF9DEFE62251C1C247CD12F1EEC7BFF2A SWAP1 PUSH3 0x1FC SWAP1 DUP3 PUSH3 0x21A0 JUMP JUMPDEST POP PUSH1 0x40 DUP3 DUP2 ADD MLOAD PUSH1 0x2 DUP4 ADD DUP1 SLOAD PUSH1 0xFF NOT AND PUSH1 0xFF SWAP1 SWAP3 AND SWAP2 SWAP1 SWAP2 OR SWAP1 SSTORE PUSH1 0x60 DUP4 ADD MLOAD PUSH1 0x3 DUP4 ADD SSTORE PUSH1 0x80 DUP4 ADD MLOAD PUSH1 0x4 DUP4 ADD DUP1 SLOAD PUSH1 0x1 PUSH1 0x1 PUSH1 0xA0 SHL SUB NOT AND PUSH1 0x1 PUSH1 0x1 PUSH1 0xA0 SHL SUB SWAP1 SWAP3 AND SWAP2 SWAP1 SWAP2 OR SWAP1 SSTORE PUSH1 0xA0 DUP4 ADD MLOAD PUSH1 0x5 DUP4 ADD SSTORE PUSH1 0xC0 DUP4 ADD MLOAD PUSH1 0x6 DUP4 ADD SSTORE PUSH1 0xE0 DUP4 ADD MLOAD PUSH1 0x7 DUP4 ADD DUP1 SLOAD PUSH2 0x100 DUP7 ADD MLOAD PUSH2 0x120 DUP1 DUP9 ADD MLOAD PUSH2 0xFFFF SWAP6 DUP7 AND PUSH4 0xFFFFFFFF NOT SWAP1 SWAP5 AND SWAP4 SWAP1 SWAP4 OR PUSH3 0x10000 SWAP6 SWAP1 SWAP3 AND SWAP5 SWAP1 SWAP5 MUL OR PUSH1 0xFF PUSH1 0x20 SHL NOT AND PUSH5 0x100000000 SWAP2 ISZERO ISZERO SWAP2 SWAP1 SWAP2 MUL OR SWAP1 SSTORE PUSH2 0x140 DUP5 ADD MLOAD PUSH1 0x8 DUP5 ADD SSTORE PUSH2 0x160 SWAP1 SWAP4 ADD MLOAD PUSH1 0x9 SWAP1 SWAP3 ADD SWAP2 SWAP1 SWAP2 SSTORE DUP1 MLOAD SWAP2 DUP3 ADD DUP2 MSTORE PUSH1 0xD DUP3 MSTORE DUP1 MLOAD DUP1 DUP3 ADD DUP3 MSTORE PUSH1 0x18 DUP2 MSTORE PUSH32 0x426173696320526963652053656564202842756E646C65290000000000000000 PUSH1 0x20 DUP3 DUP2 ADD SWAP2 SWAP1 SWAP2 MSTORE DUP1 DUP5 ADD SWAP2 SWAP1 SWAP2 MSTORE DUP2 MLOAD PUSH1 0x1 DUP1 DUP3 MSTORE DUP2 DUP5 ADD DUP5 MSTORE SWAP3 DUP5 ADD SWAP3 SWAP1 SWAP2 DUP3 DUP2 ADD SWAP1 DUP1 CALLDATASIZE DUP4 CALLDATACOPY POP POP POP DUP2 MSTORE PUSH1 0x40 DUP1 MLOAD PUSH1 0x1 DUP1 DUP3 MSTORE DUP2 DUP4 ADD SWAP1 SWAP3 MSTORE PUSH1 0x20 SWAP3 DUP4 ADD SWAP3 SWAP1 SWAP2 SWAP1 DUP1 DUP4 ADD SWAP1 DUP1 CALLDATASIZE DUP4 CALLDATACOPY POP POP POP DUP2 MSTORE PUSH7 0x221B262DD8000 PUSH1 0x20 DUP1 DUP4 ADD SWAP2 SWAP1 SWAP2 MSTORE PUSH1 0x0 PUSH1 0x40 DUP4 ADD DUP2 SWAP1 MSTORE PUSH1 0x1 PUSH1 0x60 DUP5 ADD MSTORE PUSH2 0x3E8 PUSH1 0x80 DUP5 ADD DUP2 SWAP1 MSTORE PUSH1 0xA0 SWAP1 SWAP4 ADD SWAP3 SWAP1 SWAP3 MSTORE PUSH1 0xD SWAP1 SWAP2 MSTORE PUSH1 0x3 DUP2 MSTORE DUP2 MLOAD PUSH1 0x0 DUP1 MLOAD PUSH1 0x20 PUSH3 0x6803 DUP4 CODECOPY DUP2 MLOAD SWAP2 MSTORE SWAP1 DUP2 SSTORE SWAP1 DUP3 ADD MLOAD PUSH1 0x0 DUP1 MLOAD PUSH1 0x20 PUSH3 0x68E3 DUP4 CODECOPY DUP2 MLOAD SWAP2 MSTORE SWAP1 PUSH3 0x3C4 SWAP1 DUP3 PUSH3 0x21A0 JUMP JUMPDEST POP PUSH1 0x40 DUP3 ADD MLOAD DUP1 MLOAD PUSH3 0x3E2 SWAP2 PUSH1 0x2 DUP5 ADD SWAP2 PUSH1 0x20 SWAP1 SWAP2 ADD SWAP1 PUSH3 0x20A4 JUMP JUMPDEST POP PUSH1 0x60 DUP3 ADD MLOAD DUP1 MLOAD PUSH3 0x400 SWAP2 PUSH1 0x3 DUP5 ADD SWAP2 PUSH1 0x20 SWAP1 SWAP2 ADD SWAP1 PUSH3 0x20A4 JUMP JUMPDEST POP PUSH1 0x80 DUP3 ADD MLOAD PUSH1 0x4 DUP3 ADD SSTORE PUSH1 0xA0 DUP3 ADD MLOAD PUSH1 0x5 DUP3 ADD DUP1 SLOAD PUSH1 0xC0 DUP6 ADD MLOAD ISZERO ISZERO PUSH1 0x1 PUSH1 0xA0 SHL MUL PUSH1 0x1 PUSH1 0x1 PUSH1 0xA8 SHL SUB NOT SWAP1 SWAP2 AND PUSH1 0x1 PUSH1 0x1 PUSH1 0xA0 SHL SUB SWAP1 SWAP4 AND SWAP3 SWAP1 SWAP3 OR SWAP2 SWAP1 SWAP2 OR SWAP1 SSTORE PUSH1 0xE0 DUP3 ADD MLOAD PUSH1 0x6 DUP3 ADD SSTORE PUSH2 0x100 SWAP1 SWAP2 ADD MLOAD PUSH1 0x7 SWAP1 SWAP2 ADD SSTORE PUSH1 0xD PUSH1 0x0 SWAP1 DUP2 MSTORE PUSH1 0x3 PUSH1 0x20 MSTORE PUSH1 0x0 DUP1 MLOAD PUSH1 0x20 PUSH3 0x68C3 DUP4 CODECOPY DUP2 MLOAD SWAP2 MSTORE DUP1 SLOAD PUSH1 0x9 SWAP3 SWAP1 PUSH3 0x48C JUMPI PUSH3 0x48C PUSH3 0x226C JUMP JUMPDEST PUSH1 0x0 SWAP2 DUP3 MSTORE PUSH1 0x20 DUP1 DUP4 KECCAK256 SWAP1 SWAP2 ADD SWAP3 SWAP1 SWAP3 SSTORE PUSH1 0xD DUP2 MSTORE PUSH1 0x3 SWAP1 SWAP2 MSTORE PUSH1 0x0 DUP1 MLOAD PUSH1 0x20 PUSH3 0x6923 DUP4 CODECOPY DUP2 MLOAD SWAP2 MSTORE DUP1 SLOAD PUSH1 0x5 SWAP3 SWAP1 PUSH3 0x4CB JUMPI PUSH3 0x4CB PUSH3 0x226C JUMP JUMPDEST PUSH1 0x0 SWAP2 DUP3 MSTORE PUSH1 0x20 DUP1 DUP4 KECCAK256 SWAP1 SWAP2 ADD SWAP3 SWAP1 SWAP3 SSTORE PUSH1 0x40 DUP1 MLOAD PUSH2 0x180 DUP2 ADD DUP3 MSTORE PUSH1 0xA DUP1 DUP3 MSTORE DUP3 MLOAD DUP1 DUP5 ADD DUP5 MSTORE PUSH1 0x1A DUP2 MSTORE PUSH32 0x5072656D69756D20526963652053656564202853696E676C6529000000000000 DUP2 DUP8 ADD MSTORE DUP3 DUP7 ADD SWAP1 DUP2 MSTORE SWAP3 DUP3 ADD DUP5 SWAP1 MSTORE PUSH7 0x221B262DD8000 PUSH1 0x60 DUP4 ADD MSTORE PUSH1 0x80 DUP3 ADD DUP5 SWAP1 MSTORE PUSH1 0xC8 PUSH1 0xA0 DUP4 ADD MSTORE PUSH2 0x168 PUSH1 0xC0 DUP4 ADD MSTORE PUSH1 0x1E PUSH1 0xE0 DUP4 ADD DUP2 SWAP1 MSTORE PUSH2 0x100 DUP4 ADD MSTORE PUSH1 0x1 PUSH2 0x120 DUP4 ADD MSTORE PUSH2 0xFA0 PUSH2 0x140 DUP4 ADD DUP2 SWAP1 MSTORE PUSH2 0x160 DUP4 ADD MSTORE SWAP1 SWAP3 MSTORE PUSH1 0x2 SWAP1 SWAP3 MSTORE DUP1 MLOAD PUSH32 0xD3604DB978F6137B0D18816B77B2CE810487A3AF08A922E0B184963BE5F3ADFC SWAP1 DUP2 SSTORE SWAP2 MLOAD SWAP1 SWAP2 SWAP1 PUSH32 0xD3604DB978F6137B0D18816B77B2CE810487A3AF08A922E0B184963BE5F3ADFD SWAP1 PUSH3 0x5D4 SWAP1 DUP3 PUSH3 0x21A0 JUMP JUMPDEST POP PUSH1 0x40 DUP3 DUP2 ADD MLOAD PUSH1 0x2 DUP4 ADD DUP1 SLOAD PUSH1 0xFF NOT AND PUSH1 0xFF SWAP1 SWAP3 AND SWAP2 SWAP1 SWAP2 OR SWAP1 SSTORE PUSH1 0x60 DUP4 ADD MLOAD PUSH1 0x3 DUP4 ADD SSTORE PUSH1 0x80 DUP4 ADD MLOAD PUSH1 0x4 DUP4 ADD DUP1 SLOAD PUSH1 0x1 PUSH1 0x1 PUSH1 0xA0 SHL SUB NOT AND PUSH1 0x1 PUSH1 0x1 PUSH1 0xA0 SHL SUB SWAP1 SWAP3 AND SWAP2 SWAP1 SWAP2 OR SWAP1 SSTORE PUSH1 0xA0 DUP4 ADD MLOAD PUSH1 0x5 DUP4 ADD SSTORE PUSH1 0xC0 DUP4 ADD MLOAD PUSH1 0x6 DUP4 ADD SSTORE PUSH1 0xE0 DUP4 ADD MLOAD PUSH1 0x7 DUP4 ADD DUP1 SLOAD PUSH2 0x100 DUP7 ADD MLOAD PUSH2 0x120 DUP1 DUP9 ADD MLOAD PUSH2 0xFFFF SWAP6 DUP7 AND PUSH4 0xFFFFFFFF NOT SWAP1 SWAP5 AND SWAP4 SWAP1 SWAP4 OR PUSH3 0x10000 SWAP6 SWAP1 SWAP3 AND SWAP5 SWAP1 SWAP5 MUL OR PUSH1 0xFF PUSH1 0x20 SHL NOT AND PUSH5 0x100000000 SWAP2 ISZERO ISZERO SWAP2 SWAP1 SWAP2 MUL OR SWAP1 SSTORE PUSH2 0x140 DUP5 ADD MLOAD PUSH1 0x8 DUP5 ADD SSTORE PUSH2 0x160 SWAP1 SWAP4 ADD MLOAD PUSH1 0x9 SWAP1 SWAP3 ADD SWAP2 SWAP1 SWAP2 SSTORE DUP1 MLOAD SWAP2 DUP3 ADD DUP2 MSTORE PUSH1 0xE DUP3 MSTORE DUP1 MLOAD DUP1 DUP3 ADD DUP3 MSTORE PUSH1 0x1A DUP2 MSTORE PUSH32 0x5072656D69756D20526963652053656564202842756E646C6529000000000000 PUSH1 0x20 DUP3 DUP2 ADD SWAP2 SWAP1 SWAP2 MSTORE DUP1 DUP5 ADD SWAP2 SWAP1 SWAP2 MSTORE DUP2 MLOAD PUSH1 0x1 DUP1 DUP3 MSTORE DUP2 DUP5 ADD DUP5 MSTORE SWAP3 DUP5 ADD SWAP3 SWAP1 SWAP2 DUP3 DUP2 ADD SWAP1 DUP1 CALLDATASIZE DUP4 CALLDATACOPY POP POP POP DUP2 MSTORE PUSH1 0x40 DUP1 MLOAD PUSH1 0x1 DUP1 DUP3 MSTORE DUP2 DUP4 ADD SWAP1 SWAP3 MSTORE PUSH1 0x20 SWAP3 DUP4 ADD SWAP3 SWAP1 SWAP2 SWAP1 DUP1 DUP4 ADD SWAP1 DUP1 CALLDATASIZE DUP4 CALLDATACOPY POP POP POP DUP2 MSTORE PUSH7 0x38D7EA4C68000 PUSH1 0x20 DUP1 DUP4 ADD SWAP2 SWAP1 SWAP2 MSTORE PUSH1 0x0 PUSH1 0x40 DUP4 ADD DUP2 SWAP1 MSTORE PUSH1 0x1 PUSH1 0x60 DUP5 ADD MSTORE PUSH2 0x3E8 PUSH1 0x80 DUP5 ADD DUP2 SWAP1 MSTORE PUSH1 0xA0 SWAP1 SWAP4 ADD SWAP3 SWAP1 SWAP3 MSTORE PUSH1 0xE SWAP1 SWAP2 MSTORE PUSH1 0x3 DUP2 MSTORE DUP2 MLOAD PUSH1 0x0 DUP1 MLOAD PUSH1 0x20 PUSH3 0x6883 DUP4 CODECOPY DUP2 MLOAD SWAP2 MSTORE SWAP1 DUP2 SSTORE SWAP1 DUP3 ADD MLOAD PUSH1 0x0 DUP1 MLOAD PUSH1 0x20 PUSH3 0x6843 DUP4 CODECOPY DUP2 MLOAD SWAP2 MSTORE SWAP1 PUSH3 0x79C SWAP1 DUP3 PUSH3 0x21A0 JUMP JUMPDEST POP PUSH1 0x40 DUP3 ADD MLOAD DUP1 MLOAD PUSH3 0x7BA SWAP2 PUSH1 0x2 DUP5 ADD SWAP2 PUSH1 0x20 SWAP1 SWAP2 ADD SWAP1 PUSH3 0x20A4 JUMP JUMPDEST POP PUSH1 0x60 DUP3 ADD MLOAD DUP1 MLOAD PUSH3 0x7D8 SWAP2 PUSH1 0x3 DUP5 ADD SWAP2 PUSH1 0x20 SWAP1 SWAP2 ADD SWAP1 PUSH3 0x20A4 JUMP JUMPDEST POP PUSH1 0x80 DUP3 ADD MLOAD PUSH1 0x4 DUP3 ADD SSTORE PUSH1 0xA0 DUP3 ADD MLOAD PUSH1 0x5 DUP3 ADD DUP1 SLOAD PUSH1 0xC0 DUP6 ADD MLOAD ISZERO ISZERO PUSH1 0x1 PUSH1 0xA0 SHL MUL PUSH1 0x1 PUSH1 0x1 PUSH1 0xA8 SHL SUB NOT SWAP1 SWAP2 AND PUSH1 0x1 PUSH1 0x1 PUSH1 0xA0 SHL SUB SWAP1 SWAP4 AND SWAP3 SWAP1 SWAP3 OR SWAP2 SWAP1 SWAP2 OR SWAP1 SSTORE PUSH1 0xE0 DUP3 ADD MLOAD PUSH1 0x6 DUP3 ADD SSTORE PUSH2 0x100 SWAP1 SWAP2 ADD MLOAD PUSH1 0x7 SWAP1 SWAP2 ADD SSTORE PUSH1 0xE PUSH1 0x0 SWAP1 DUP2 MSTORE PUSH1 0x3 PUSH1 0x20 MSTORE PUSH1 0x0 DUP1 MLOAD PUSH1 0x20 PUSH3 0x6823 DUP4 CODECOPY DUP2 MLOAD SWAP2 MSTORE DUP1 SLOAD PUSH1 0xA SWAP3 SWAP1 PUSH3 0x864 JUMPI PUSH3 0x864 PUSH3 0x226C JUMP JUMPDEST PUSH1 0x0 SWAP2 DUP3 MSTORE PUSH1 0x20 DUP1 DUP4 KECCAK256 SWAP1 SWAP2 ADD SWAP3 SWAP1 SWAP3 SSTORE PUSH1 0xE DUP2 MSTORE PUSH1 0x3 SWAP1 SWAP2 MSTORE PUSH1 0x0 DUP1 MLOAD PUSH1 0x20 PUSH3 0x67C3 DUP4 CODECOPY DUP2 MLOAD SWAP2 MSTORE DUP1 SLOAD PUSH1 0x2 SWAP3 SWAP1 PUSH3 0x8A3 JUMPI PUSH3 0x8A3 PUSH3 0x226C JUMP JUMPDEST PUSH1 0x0 SWAP2 DUP3 MSTORE PUSH1 0x20 DUP1 DUP4 KECCAK256 SWAP1 SWAP2 ADD SWAP3 SWAP1 SWAP3 SSTORE PUSH1 0x40 DUP1 MLOAD PUSH2 0x180 DUP2 ADD DUP3 MSTORE PUSH1 0xB DUP1 DUP3 MSTORE DUP3 MLOAD DUP1 DUP5 ADD DUP5 MSTORE PUSH1 0x19 DUP2 MSTORE PUSH32 0x48796272696420526963652053656564202853696E676C652900000000000000 DUP2 DUP8 ADD MSTORE DUP3 DUP7 ADD SWAP1 DUP2 MSTORE SWAP3 DUP3 ADD DUP5 SWAP1 MSTORE PUSH7 0x38D7EA4C68000 PUSH1 0x60 DUP4 ADD MSTORE PUSH1 0x80 DUP3 ADD DUP5 SWAP1 MSTORE PUSH2 0x190 PUSH1 0xA0 DUP4 ADD MSTORE PUSH2 0x12C PUSH1 0xC0 DUP4 ADD MSTORE PUSH1 0x46 PUSH1 0xE0 DUP4 ADD DUP2 SWAP1 MSTORE PUSH2 0x100 DUP4 ADD MSTORE PUSH1 0x1 PUSH2 0x120 DUP4 ADD MSTORE PUSH2 0x7D0 PUSH2 0x140 DUP4 ADD DUP2 SWAP1 MSTORE PUSH2 0x160 DUP4 ADD MSTORE SWAP1 SWAP3 MSTORE PUSH1 0x2 SWAP1 SWAP3 MSTORE DUP1 MLOAD PUSH32 0xAB9952BAF6478D8CFB7253CE86A6C53A7B7549582C76210B1581AE682B7E556F SWAP1 DUP2 SSTORE SWAP2 MLOAD SWAP1 SWAP2 SWAP1 PUSH32 0xAB9952BAF6478D8CFB7253CE86A6C53A7B7549582C76210B1581AE682B7E5570 SWAP1 PUSH3 0x9AD SWAP1 DUP3 PUSH3 0x21A0 JUMP JUMPDEST POP PUSH1 0x40 DUP3 DUP2 ADD MLOAD PUSH1 0x2 DUP4 ADD DUP1 SLOAD PUSH1 0xFF NOT AND PUSH1 0xFF SWAP1 SWAP3 AND SWAP2 SWAP1 SWAP2 OR SWAP1 SSTORE PUSH1 0x60 DUP4 ADD MLOAD PUSH1 0x3 DUP4 ADD SSTORE PUSH1 0x80 DUP4 ADD MLOAD PUSH1 0x4 DUP4 ADD DUP1 SLOAD PUSH1 0x1 PUSH1 0x1 PUSH1 0xA0 SHL SUB NOT AND PUSH1 0x1 PUSH1 0x1 PUSH1 0xA0 SHL SUB SWAP1 SWAP3 AND SWAP2 SWAP1 SWAP2 OR SWAP1 SSTORE PUSH1 0xA0 DUP4 ADD MLOAD PUSH1 0x5 DUP4 ADD SSTORE PUSH1 0xC0 DUP4 ADD MLOAD PUSH1 0x6 DUP4 ADD SSTORE PUSH1 0xE0 DUP4 ADD MLOAD PUSH1 0x7 DUP4 ADD DUP1 SLOAD PUSH2 0x100 DUP7 ADD MLOAD PUSH2 0x120 DUP1 DUP9 ADD MLOAD PUSH2 0xFFFF SWAP6 DUP7 AND PUSH4 0xFFFFFFFF NOT SWAP1 SWAP5 AND SWAP4 SWAP1 SWAP4 OR PUSH3 0x10000 SWAP6 SWAP1 SWAP3 AND SWAP5 SWAP1 SWAP5 MUL OR PUSH1 0xFF PUSH1 0x20 SHL NOT AND PUSH5 0x100000000 SWAP2 ISZERO ISZERO SWAP2 SWAP1 SWAP2 MUL OR SWAP1 SSTORE PUSH2 0x140 DUP5 ADD MLOAD PUSH1 0x8 DUP5 ADD SSTORE PUSH2 0x160 SWAP1 SWAP4 ADD MLOAD PUSH1 0x9 SWAP1 SWAP3 ADD SWAP2 SWAP1 SWAP2 SSTORE DUP1 MLOAD SWAP2 DUP3 ADD DUP2 MSTORE PUSH1 0xF DUP3 MSTORE DUP1 MLOAD DUP1 DUP3 ADD DUP3 MSTORE PUSH1 0x19 DUP2 MSTORE PUSH32 0x48796272696420526963652053656564202842756E646C652900000000000000 PUSH1 0x20 DUP3 DUP2 ADD SWAP2 SWAP1 SWAP2 MSTORE DUP1 DUP5 ADD SWAP2 SWAP1 SWAP2 MSTORE DUP2 MLOAD PUSH1 0x1 DUP1 DUP3 MSTORE DUP2 DUP5 ADD DUP5 MSTORE SWAP3 DUP5 ADD SWAP3 SWAP1 SWAP2 DUP3 DUP2 ADD SWAP1 DUP1 CALLDATASIZE DUP4 CALLDATACOPY POP POP POP DUP2 MSTORE PUSH1 0x40 DUP1 MLOAD PUSH1 0x1 DUP1 DUP3 MSTORE DUP2 DUP4 ADD SWAP1 SWAP3 MSTORE PUSH1 0x20 SWAP3 DUP4 ADD SWAP3 SWAP1 SWAP2 SWAP1 DUP1 DUP4 ADD SWAP1 DUP1 CALLDATASIZE DUP4 CALLDATACOPY POP POP POP DUP2 MSTORE PUSH7 0x4F94AE6AF8000 PUSH1 0x20 DUP1 DUP4 ADD SWAP2 SWAP1 SWAP2 MSTORE PUSH1 0x0 PUSH1 0x40 DUP4 ADD DUP2 SWAP1 MSTORE PUSH1 0x1 PUSH1 0x60 DUP5 ADD MSTORE PUSH2 0x1F4 PUSH1 0x80 DUP5 ADD DUP2 SWAP1 MSTORE PUSH1 0xA0 SWAP1 SWAP4 ADD SWAP3 SWAP1 SWAP3 MSTORE PUSH1 0xF SWAP1 SWAP2 MSTORE PUSH1 0x3 DUP2 MSTORE DUP2 MLOAD PUSH1 0x0 DUP1 MLOAD PUSH1 0x20 PUSH3 0x6903 DUP4 CODECOPY DUP2 MLOAD SWAP2 MSTORE SWAP1 DUP2 SSTORE SWAP1 DUP3 ADD MLOAD PUSH1 0x0 DUP1 MLOAD PUSH1 0x20 PUSH3 0x68A3 DUP4 CODECOPY DUP2 MLOAD SWAP2 MSTORE SWAP1 PUSH3 0xB75 SWAP1 DUP3 PUSH3 0x21A0 JUMP JUMPDEST POP PUSH1 0x40 DUP3 ADD MLOAD DUP1 MLOAD PUSH3 0xB93 SWAP2 PUSH1 0x2 DUP5 ADD SWAP2 PUSH1 0x20 SWAP1 SWAP2 ADD SWAP1 PUSH3 0x20A4 JUMP JUMPDEST POP PUSH1 0x60 DUP3 ADD MLOAD DUP1 MLOAD PUSH3 0xBB1 SWAP2 PUSH1 0x3 DUP5 ADD SWAP2 PUSH1 0x20 SWAP1 SWAP2 ADD SWAP1 PUSH3 0x20A4 JUMP JUMPDEST POP PUSH1 0x80 DUP3 ADD MLOAD PUSH1 0x4 DUP3 ADD SSTORE PUSH1 0xA0 DUP3 ADD MLOAD PUSH1 0x5 DUP3 ADD DUP1 SLOAD PUSH1 0xC0 DUP6 ADD MLOAD ISZERO ISZERO PUSH1 0x1 PUSH1 0xA0 SHL MUL PUSH1 0x1 PUSH1 0x1 PUSH1 0xA8 SHL SUB NOT SWAP1 SWAP2 AND PUSH1 0x1 PUSH1 0x1 PUSH1 0xA0 SHL SUB SWAP1 SWAP4 AND SWAP3 SWAP1 SWAP3 OR SWAP2 SWAP1 SWAP2 OR SWAP1 SSTORE PUSH1 0xE0 DUP3 ADD MLOAD PUSH1 0x6 DUP3 ADD SSTORE PUSH2 0x100 SWAP1 SWAP2 ADD MLOAD PUSH1 0x7 SWAP1 SWAP2 ADD SSTORE PUSH1 0xF PUSH1 0x0 SWAP1 DUP2 MSTORE PUSH1 0x3 PUSH1 0x20 MSTORE PUSH1 0x0 DUP1 MLOAD PUSH1 0x20 PUSH3 0x67E3 DUP4 CODECOPY DUP2 MLOAD SWAP2 MSTORE DUP1 SLOAD PUSH1 0xB SWAP3 SWAP1 PUSH3 0xC3D JUMPI PUSH3 0xC3D PUSH3 0x226C JUMP JUMPDEST PUSH1 0x0 SWAP2 DUP3 MSTORE PUSH1 0x20 DUP1 DUP4 KECCAK256 SWAP1 SWAP2 ADD SWAP3 SWAP1 SWAP3 SSTORE PUSH1 0xF DUP2 MSTORE PUSH1 0x3 SWAP1 SWAP2 MSTORE PUSH1 0x0 DUP1 MLOAD PUSH1 0x20 PUSH3 0x6863 DUP4 CODECOPY DUP2 MLOAD SWAP2 MSTORE DUP1 SLOAD PUSH1 0x2 SWAP3 SWAP1 PUSH3 0xC7C JUMPI PUSH3 0xC7C PUSH3 0x226C JUMP JUMPDEST PUSH1 0x0 SWAP2 DUP3 MSTORE PUSH1 0x20 DUP1 DUP4 KECCAK256 SWAP1 SWAP2 ADD SWAP3 SWAP1 SWAP3 SSTORE PUSH1 0x40 DUP1 MLOAD PUSH2 0x180 DUP2 ADD DUP3 MSTORE PUSH1 0x11 DUP1 DUP3 MSTORE DUP3 MLOAD DUP1 DUP5 ADD DUP5 MSTORE PUSH1 0x19 DUP2 MSTORE PUSH32 0x476F6C64656E20486172766573746572202853696E676C652900000000000000 DUP2 DUP8 ADD MSTORE DUP3 DUP7 ADD SWAP1 DUP2 MSTORE PUSH1 0x1 SWAP4 DUP4 ADD DUP5 SWAP1 MSTORE PUSH7 0x2D79883D20000 PUSH1 0x60 DUP5 ADD MSTORE PUSH1 0x80 DUP4 ADD DUP6 SWAP1 MSTORE PUSH1 0xA0 DUP4 ADD DUP6 SWAP1 MSTORE PUSH1 0xC0 DUP4 ADD DUP6 SWAP1 MSTORE PUSH1 0xE0 DUP4 ADD DUP6 SWAP1 MSTORE PUSH2 0x100 DUP4 ADD DUP6 SWAP1 MSTORE PUSH2 0x120 DUP4 ADD SWAP4 SWAP1 SWAP4 MSTORE PUSH2 0xEA6 PUSH2 0x140 DUP4 ADD DUP2 SWAP1 MSTORE PUSH2 0x160 DUP4 ADD MSTORE SWAP1 SWAP3 MSTORE PUSH1 0x2 SWAP1 SWAP3 MSTORE DUP1 MLOAD PUSH32 0xA4E0F4432E44D027A7B3F953940F096BCA7A9BD910297CAD2BA7C703C2B799D3 SWAP1 DUP2 SSTORE SWAP2 MLOAD SWAP1 SWAP2 SWAP1 PUSH32 0xA4E0F4432E44D027A7B3F953940F096BCA7A9BD910297CAD2BA7C703C2B799D4 SWAP1 PUSH3 0xD87 SWAP1 DUP3 PUSH3 0x21A0 JUMP JUMPDEST POP PUSH1 0x40 DUP3 DUP2 ADD MLOAD PUSH1 0x2 DUP4 ADD DUP1 SLOAD PUSH1 0xFF NOT AND PUSH1 0xFF SWAP1 SWAP3 AND SWAP2 SWAP1 SWAP2 OR SWAP1 SSTORE PUSH1 0x60 DUP4 ADD MLOAD PUSH1 0x3 DUP4 ADD SSTORE PUSH1 0x80 DUP4 ADD MLOAD PUSH1 0x4 DUP4 ADD DUP1 SLOAD PUSH1 0x1 PUSH1 0x1 PUSH1 0xA0 SHL SUB NOT AND PUSH1 0x1 PUSH1 0x1 PUSH1 0xA0 SHL SUB SWAP1 SWAP3 AND SWAP2 SWAP1 SWAP2 OR SWAP1 SSTORE PUSH1 0xA0 DUP4 ADD MLOAD PUSH1 0x5 DUP4 ADD SSTORE PUSH1 0xC0 DUP4 ADD MLOAD PUSH1 0x6 DUP4 ADD SSTORE PUSH1 0xE0 DUP4 ADD MLOAD PUSH1 0x7 DUP4 ADD DUP1 SLOAD PUSH2 0x100 DUP7 ADD MLOAD PUSH2 0x120 DUP1 DUP9 ADD MLOAD PUSH2 0xFFFF SWAP6 DUP7 AND PUSH4 0xFFFFFFFF NOT SWAP1 SWAP5 AND SWAP4 SWAP1 SWAP4 OR PUSH3 0x10000 SWAP6 SWAP1 SWAP3 AND SWAP5 SWAP1 SWAP5 MUL OR PUSH1 0xFF PUSH1 0x20 SHL NOT AND PUSH5 0x100000000 SWAP2 ISZERO ISZERO SWAP2 SWAP1 SWAP2 MUL OR SWAP1 SSTORE PUSH2 0x140 DUP5 ADD MLOAD PUSH1 0x8 DUP5 ADD SSTORE PUSH2 0x160 SWAP1 SWAP4 ADD MLOAD PUSH1 0x9 SWAP1 SWAP3 ADD SWAP2 SWAP1 SWAP2 SSTORE DUP1 MLOAD SWAP2 DUP3 ADD DUP2 MSTORE PUSH1 0x10 DUP3 MSTORE DUP1 MLOAD DUP1 DUP3 ADD DUP3 MSTORE PUSH1 0x19 DUP2 MSTORE PUSH32 0x476F6C64656E20486172766573746572202842756E646C652900000000000000 PUSH1 0x20 DUP3 DUP2 ADD SWAP2 SWAP1 SWAP2 MSTORE DUP1 DUP5 ADD SWAP2 SWAP1 SWAP2 MSTORE DUP2 MLOAD PUSH1 0x1 DUP1 DUP3 MSTORE DUP2 DUP5 ADD DUP5 MSTORE SWAP3 DUP5 ADD SWAP3 SWAP1 SWAP2 DUP3 DUP2 ADD SWAP1 DUP1 CALLDATASIZE DUP4 CALLDATACOPY POP POP POP DUP2 MSTORE PUSH1 0x40 DUP1 MLOAD PUSH1 0x1 DUP1 DUP3 MSTORE DUP2 DUP4 ADD SWAP1 SWAP3 MSTORE PUSH1 0x20 SWAP3 DUP4 ADD SWAP3 SWAP1 SWAP2 SWAP1 DUP1 DUP4 ADD SWAP1 DUP1 CALLDATASIZE DUP4 CALLDATACOPY POP POP POP DUP2 MSTORE PUSH7 0x5AF3107A40000 PUSH1 0x20 DUP1 DUP4 ADD SWAP2 SWAP1 SWAP2 MSTORE PUSH1 0x0 PUSH1 0x40 DUP4 ADD DUP2 SWAP1 MSTORE PUSH1 0x1 PUSH1 0x60 DUP5 ADD MSTORE PUSH2 0x753 PUSH1 0x80 DUP5 ADD DUP2 SWAP1 MSTORE PUSH1 0xA0 SWAP1 SWAP4 ADD SWAP3 SWAP1 SWAP3 MSTORE PUSH1 0x10 SWAP1 SWAP2 MSTORE PUSH1 0x3 DUP2 MSTORE DUP2 MLOAD PUSH32 0x47D4745E02B343689A5E7AC121D2A352B7A15C10328A8759FD7D4CF0999002BB SWAP1 DUP2 SSTORE SWAP1 DUP3 ADD MLOAD PUSH32 0x47D4745E02B343689A5E7AC121D2A352B7A15C10328A8759FD7D4CF0999002BC SWAP1 PUSH3 0xF71 SWAP1 DUP3 PUSH3 0x21A0 JUMP JUMPDEST POP PUSH1 0x40 DUP3 ADD MLOAD DUP1 MLOAD PUSH3 0xF8F SWAP2 PUSH1 0x2 DUP5 ADD SWAP2 PUSH1 0x20 SWAP1 SWAP2 ADD SWAP1 PUSH3 0x20A4 JUMP JUMPDEST POP PUSH1 0x60 DUP3 ADD MLOAD DUP1 MLOAD PUSH3 0xFAD SWAP2 PUSH1 0x3 DUP5 ADD SWAP2 PUSH1 0x20 SWAP1 SWAP2 ADD SWAP1 PUSH3 0x20A4 JUMP JUMPDEST POP PUSH1 0x80 DUP3 ADD MLOAD PUSH1 0x4 DUP3 ADD SSTORE PUSH1 0xA0 DUP3 ADD MLOAD PUSH1 0x5 DUP3 ADD DUP1 SLOAD PUSH1 0xC0 DUP6 ADD MLOAD ISZERO ISZERO PUSH1 0x1 PUSH1 0xA0 SHL MUL PUSH1 0x1 PUSH1 0x1 PUSH1 0xA8 SHL SUB NOT SWAP1 SWAP2 AND PUSH1 0x1 PUSH1 0x1 PUSH1 0xA0 SHL SUB SWAP1 SWAP4 AND SWAP3 SWAP1 SWAP3 OR SWAP2 SWAP1 SWAP2 OR SWAP1 SSTORE PUSH1 0xE0 DUP3 ADD MLOAD PUSH1 0x6 DUP3 ADD SSTORE PUSH2 0x100 SWAP1 SWAP2 ADD MLOAD PUSH1 0x7 SWAP1 SWAP2 ADD SSTORE PUSH1 0x10 PUSH1 0x0 SWAP1 DUP2 MSTORE PUSH1 0x3 PUSH1 0x20 MSTORE PUSH32 0x47D4745E02B343689A5E7AC121D2A352B7A15C10328A8759FD7D4CF0999002BD DUP1 SLOAD PUSH1 0x11 SWAP3 SWAP1 PUSH3 0x104A JUMPI PUSH3 0x104A PUSH3 0x226C JUMP JUMPDEST PUSH1 0x0 SWAP2 DUP3 MSTORE PUSH1 0x20 DUP1 DUP4 KECCAK256 SWAP1 SWAP2 ADD SWAP3 SWAP1 SWAP3 SSTORE PUSH1 0x10 DUP2 MSTORE PUSH1 0x3 SWAP1 SWAP2 MSTORE PUSH32 0x47D4745E02B343689A5E7AC121D2A352B7A15C10328A8759FD7D4CF0999002BE DUP1 SLOAD PUSH1 0x2 SWAP3 SWAP1 PUSH3 0x109A JUMPI PUSH3 0x109A PUSH3 0x226C JUMP JUMPDEST PUSH1 0x0 SWAP2 DUP3 MSTORE PUSH1 0x20 DUP1 DUP4 KECCAK256 SWAP1 SWAP2 ADD SWAP3 SWAP1 SWAP3 SSTORE PUSH1 0x40 DUP1 MLOAD PUSH2 0x180 DUP2 ADD DUP3 MSTORE PUSH1 0xC DUP1 DUP3 MSTORE DUP3 MLOAD DUP1 DUP5 ADD DUP5 MSTORE PUSH1 0x13 DUP2 MSTORE PUSH32 0x46657274696C697A657220537072656164657200000000000000000000000000 DUP2 DUP8 ADD MSTORE DUP3 DUP7 ADD SWAP1 DUP2 MSTORE PUSH1 0x1 SWAP4 DUP4 ADD DUP5 SWAP1 MSTORE PUSH1 0x60 DUP4 ADD DUP6 SWAP1 MSTORE PUSH1 0x80 DUP4 ADD DUP6 SWAP1 MSTORE PUSH1 0xA0 DUP4 ADD DUP6 SWAP1 MSTORE PUSH1 0xC0 DUP4 ADD DUP6 SWAP1 MSTORE PUSH1 0x19 PUSH1 0xE0 DUP5 ADD MSTORE PUSH1 0xF PUSH2 0x100 DUP5 ADD MSTORE PUSH2 0x120 DUP4 ADD SWAP4 SWAP1 SWAP4 MSTORE PUSH2 0x2710 PUSH2 0x140 DUP4 ADD DUP2 SWAP1 MSTORE PUSH2 0x160 DUP4 ADD MSTORE SWAP1 SWAP3 MSTORE PUSH1 0x2 SWAP1 SWAP3 MSTORE DUP1 MLOAD PUSH32 0xBD814762A7E35D5C162A7570D14BAA68BD622CABB1AD83D40DD70F8A88AA67C0 SWAP1 DUP2 SSTORE SWAP2 MLOAD SWAP1 SWAP2 SWAP1 PUSH32 0xBD814762A7E35D5C162A7570D14BAA68BD622CABB1AD83D40DD70F8A88AA67C1 SWAP1 PUSH3 0x119F SWAP1 DUP3 PUSH3 0x21A0 JUMP JUMPDEST POP PUSH1 0x40 DUP3 ADD MLOAD DUP2 PUSH1 0x2 ADD PUSH1 0x0 PUSH2 0x100 EXP DUP2 SLOAD DUP2 PUSH1 0xFF MUL NOT AND SWAP1 DUP4 PUSH1 0xFF AND MUL OR SWAP1 SSTORE POP PUSH1 0x60 DUP3 ADD MLOAD DUP2 PUSH1 0x3 ADD SSTORE PUSH1 0x80 DUP3 ADD MLOAD DUP2 PUSH1 0x4 ADD PUSH1 0x0 PUSH2 0x100 EXP DUP2 SLOAD DUP2 PUSH1 0x1 PUSH1 0x1 PUSH1 0xA0 SHL SUB MUL NOT AND SWAP1 DUP4 PUSH1 0x1 PUSH1 0x1 PUSH1 0xA0 SHL SUB AND MUL OR SWAP1 SSTORE POP PUSH1 0xA0 DUP3 ADD MLOAD DUP2 PUSH1 0x5 ADD SSTORE PUSH1 0xC0 DUP3 ADD MLOAD DUP2 PUSH1 0x6 ADD SSTORE PUSH1 0xE0 DUP3 ADD MLOAD DUP2 PUSH1 0x7 ADD PUSH1 0x0 PUSH2 0x100 EXP DUP2 SLOAD DUP2 PUSH2 0xFFFF MUL NOT AND SWAP1 DUP4 PUSH2 0xFFFF AND MUL OR SWAP1 SSTORE POP PUSH2 0x100 DUP3 ADD MLOAD DUP2 PUSH1 0x7 ADD PUSH1 0x2 PUSH2 0x100 EXP DUP2 SLOAD DUP2 PUSH2 0xFFFF MUL NOT AND SWAP1 DUP4 PUSH2 0xFFFF AND MUL OR SWAP1 SSTORE POP PUSH2 0x120 DUP3 ADD MLOAD DUP2 PUSH1 0x7 ADD PUSH1 0x4 PUSH2 0x100 EXP DUP2 SLOAD DUP2 PUSH1 0xFF MUL NOT AND SWAP1 DUP4 ISZERO ISZERO MUL OR SWAP1 SSTORE POP PUSH2 0x140 DUP3 ADD MLOAD DUP2 PUSH1 0x8 ADD SSTORE PUSH2 0x160 DUP3 ADD MLOAD DUP2 PUSH1 0x9 ADD SSTORE SWAP1 POP POP PUSH1 0x40 MLOAD DUP1 PUSH2 0x180 ADD PUSH1 0x40 MSTORE DUP1 PUSH1 0x4 DUP2 MSTORE PUSH1 0x20 ADD PUSH1 0x40 MLOAD DUP1 PUSH1 0x40 ADD PUSH1 0x40 MSTORE DUP1 PUSH1 0xE DUP2 MSTORE PUSH1 0x20 ADD PUSH14 0x537461727465722042756E646C65 PUSH1 0x90 SHL DUP2 MSTORE POP DUP2 MSTORE PUSH1 0x20 ADD PUSH1 0x0 PUSH1 0xFF AND DUP2 MSTORE PUSH1 0x20 ADD PUSH1 0x0 DUP2 MSTORE PUSH1 0x20 ADD PUSH1 0x0 PUSH1 0x1 PUSH1 0x1 PUSH1 0xA0 SHL SUB AND DUP2 MSTORE PUSH1 0x20 ADD PUSH1 0x0 DUP2 MSTORE PUSH1 0x20 ADD PUSH1 0x0 DUP2 MSTORE PUSH1 0x20 ADD PUSH1 0x0 PUSH2 0xFFFF AND DUP2 MSTORE PUSH1 0x20 ADD PUSH1 0x0 PUSH2 0xFFFF AND DUP2 MSTORE PUSH1 0x20 ADD PUSH1 0x1 ISZERO ISZERO DUP2 MSTORE PUSH1 0x20 ADD PUSH2 0x3E8 DUP2 MSTORE PUSH1 0x20 ADD PUSH2 0x3E8 DUP2 MSTORE POP PUSH1 0x2 PUSH1 0x0 PUSH1 0x4 DUP2 MSTORE PUSH1 0x20 ADD SWAP1 DUP2 MSTORE PUSH1 0x20 ADD PUSH1 0x0 KECCAK256 PUSH1 0x0 DUP3 ADD MLOAD DUP2 PUSH1 0x0 ADD SSTORE PUSH1 0x20 DUP3 ADD MLOAD DUP2 PUSH1 0x1 ADD SWAP1 DUP2 PUSH3 0x135D SWAP2 SWAP1 PUSH3 0x21A0 JUMP JUMPDEST POP PUSH1 0x40 DUP3 ADD MLOAD DUP2 PUSH1 0x2 ADD PUSH1 0x0 PUSH2 0x100 EXP DUP2 SLOAD DUP2 PUSH1 0xFF MUL NOT AND SWAP1 DUP4 PUSH1 0xFF AND MUL OR SWAP1 SSTORE POP PUSH1 0x60 DUP3 ADD MLOAD DUP2 PUSH1 0x3 ADD SSTORE PUSH1 0x80 DUP3 ADD MLOAD DUP2 PUSH1 0x4 ADD PUSH1 0x0 PUSH2 0x100 EXP DUP2 SLOAD DUP2 PUSH1 0x1 PUSH1 0x1 PUSH1 0xA0 SHL SUB MUL NOT AND SWAP1 DUP4 PUSH1 0x1 PUSH1 0x1 PUSH1 0xA0 SHL SUB AND MUL OR SWAP1 SSTORE POP PUSH1 0xA0 DUP3 ADD MLOAD DUP2 PUSH1 0x5 ADD SSTORE PUSH1 0xC0 DUP3 ADD MLOAD DUP2 PUSH1 0x6 ADD SSTORE PUSH1 0xE0 DUP3 ADD MLOAD DUP2 PUSH1 0x7 ADD PUSH1 0x0 PUSH2 0x100 EXP DUP2 SLOAD DUP2 PUSH2 0xFFFF MUL NOT AND SWAP1 DUP4 PUSH2 0xFFFF AND MUL OR SWAP1 SSTORE POP PUSH2 0x100 DUP3 ADD MLOAD DUP2 PUSH1 0x7 ADD PUSH1 0x2 PUSH2 0x100 EXP DUP2 SLOAD DUP2 PUSH2 0xFFFF MUL NOT AND SWAP1 DUP4 PUSH2 0xFFFF AND MUL OR SWAP1 SSTORE POP PUSH2 0x120 DUP3 ADD MLOAD DUP2 PUSH1 0x7 ADD PUSH1 0x4 PUSH2 0x100 EXP DUP2 SLOAD DUP2 PUSH1 0xFF MUL NOT AND SWAP1 DUP4 ISZERO ISZERO MUL OR SWAP1 SSTORE POP PUSH2 0x140 DUP3 ADD MLOAD DUP2 PUSH1 0x8 ADD SSTORE PUSH2 0x160 DUP3 ADD MLOAD DUP2 PUSH1 0x9 ADD SSTORE SWAP1 POP POP PUSH1 0x40 MLOAD DUP1 PUSH2 0x180 ADD PUSH1 0x40 MSTORE DUP1 PUSH1 0x6 DUP2 MSTORE PUSH1 0x20 ADD PUSH1 0x40 MLOAD DUP1 PUSH1 0x40 ADD PUSH1 0x40 MSTORE DUP1 PUSH1 0x14 DUP2 MSTORE PUSH1 0x20 ADD PUSH32 0x4175746F2D5761746572696E672053797374656D000000000000000000000000 DUP2 MSTORE POP DUP2 MSTORE PUSH1 0x20 ADD PUSH1 0x1 PUSH1 0xFF AND DUP2 MSTORE PUSH1 0x20 ADD PUSH1 0x0 DUP2 MSTORE PUSH1 0x20 ADD PUSH1 0x0 PUSH1 0x1 PUSH1 0x1 PUSH1 0xA0 SHL SUB AND DUP2 MSTORE PUSH1 0x20 ADD PUSH1 0x0 DUP2 MSTORE PUSH1 0x20 ADD PUSH1 0x0 DUP2 MSTORE PUSH1 0x20 ADD PUSH1 0x0 PUSH2 0xFFFF AND DUP2 MSTORE PUSH1 0x20 ADD PUSH1 0x0 PUSH2 0xFFFF AND DUP2 MSTORE PUSH1 0x20 ADD PUSH1 0x1 ISZERO ISZERO DUP2 MSTORE PUSH1 0x20 ADD PUSH2 0x61A8 DUP2 MSTORE PUSH1 0x20 ADD PUSH2 0x61A8 DUP2 MSTORE POP PUSH1 0x2 PUSH1 0x0 PUSH1 0x6 DUP2 MSTORE PUSH1 0x20 ADD SWAP1 DUP2 MSTORE PUSH1 0x20 ADD PUSH1 0x0 KECCAK256 PUSH1 0x0 DUP3 ADD MLOAD DUP2 PUSH1 0x0 ADD SSTORE PUSH1 0x20 DUP3 ADD MLOAD DUP2 PUSH1 0x1 ADD SWAP1 DUP2 PUSH3 0x152A SWAP2 SWAP1 PUSH3 0x21A0 JUMP JUMPDEST POP PUSH1 0x40 DUP3 ADD MLOAD DUP2 PUSH1 0x2 ADD PUSH1 0x0 PUSH2 0x100 EXP DUP2 SLOAD DUP2 PUSH1 0xFF MUL NOT AND SWAP1 DUP4 PUSH1 0xFF AND MUL OR SWAP1 SSTORE POP PUSH1 0x60 DUP3 ADD MLOAD DUP2 PUSH1 0x3 ADD SSTORE PUSH1 0x80 DUP3 ADD MLOAD DUP2 PUSH1 0x4 ADD PUSH1 0x0 PUSH2 0x100 EXP DUP2 SLOAD DUP2 PUSH1 0x1 PUSH1 0x1 PUSH1 0xA0 SHL SUB MUL NOT AND SWAP1 DUP4 PUSH1 0x1 PUSH1 0x1 PUSH1 0xA0 SHL SUB AND MUL OR SWAP1 SSTORE POP PUSH1 0xA0 DUP3 ADD MLOAD DUP2 PUSH1 0x5 ADD SSTORE PUSH1 0xC0 DUP3 ADD MLOAD DUP2 PUSH1 0x6 ADD SSTORE PUSH1 0xE0 DUP3 ADD MLOAD DUP2 PUSH1 0x7 ADD PUSH1 0x0 PUSH2 0x100 EXP DUP2 SLOAD DUP2 PUSH2 0xFFFF MUL NOT AND SWAP1 DUP4 PUSH2 0xFFFF AND MUL OR SWAP1 SSTORE POP PUSH2 0x100 DUP3 ADD MLOAD DUP2 PUSH1 0x7 ADD PUSH1 0x2 PUSH2 0x100 EXP DUP2 SLOAD DUP2 PUSH2 0xFFFF MUL NOT AND SWAP1 DUP4 PUSH2 0xFFFF AND MUL OR SWAP1 SSTORE POP PUSH2 0x120 DUP3 ADD MLOAD DUP2 PUSH1 0x7 ADD PUSH1 0x4 PUSH2 0x100 EXP DUP2 SLOAD DUP2 PUSH1 0xFF MUL NOT AND SWAP1 DUP4 ISZERO ISZERO MUL OR SWAP1 SSTORE POP PUSH2 0x140 DUP3 ADD MLOAD DUP2 PUSH1 0x8 ADD SSTORE PUSH2 0x160 DUP3 ADD MLOAD DUP2 PUSH1 0x9 ADD SSTORE SWAP1 POP POP PUSH1 0x40 MLOAD DUP1 PUSH2 0x180 ADD PUSH1 0x40 MSTORE DUP1 PUSH1 0x5 DUP2 MSTORE PUSH1 0x20 ADD PUSH1 0x40 MLOAD DUP1 PUSH1 0x40 ADD PUSH1 0x40 MSTORE DUP1 PUSH1 0xC DUP2 MSTORE PUSH1 0x20 ADD PUSH12 0x2BB0BA32B934B7339021B0B7 PUSH1 0xA1 SHL DUP2 MSTORE POP DUP2 MSTORE PUSH1 0x20 ADD PUSH1 0x1 PUSH1 0xFF AND DUP2 MSTORE PUSH1 0x20 ADD PUSH7 0x16911C3F9D000 DUP2 MSTORE PUSH1 0x20 ADD PUSH1 0x0 PUSH1 0x1 PUSH1 0x1 PUSH1 0xA0 SHL SUB AND DUP2 MSTORE PUSH1 0x20 ADD PUSH1 0x0 DUP2 MSTORE PUSH1 0x20 ADD PUSH1 0x0 DUP2 MSTORE PUSH1 0x20 ADD PUSH1 0x0 PUSH2 0xFFFF AND DUP2 MSTORE PUSH1 0x20 ADD PUSH1 0x0 PUSH2 0xFFFF AND DUP2 MSTORE PUSH1 0x20 ADD PUSH1 0x1 ISZERO ISZERO DUP2 MSTORE PUSH1 0x20 ADD PUSH2 0xC350 DUP2 MSTORE PUSH1 0x20 ADD PUSH2 0xC350 DUP2 MSTORE POP PUSH1 0x2 PUSH1 0x0 PUSH1 0x5 DUP2 MSTORE PUSH1 0x20 ADD SWAP1 DUP2 MSTORE PUSH1 0x20 ADD PUSH1 0x0 KECCAK256 PUSH1 0x0 DUP3 ADD MLOAD DUP2 PUSH1 0x0 ADD SSTORE PUSH1 0x20 DUP3 ADD MLOAD DUP2 PUSH1 0x1 ADD SWAP1 DUP2 PUSH3 0x16EC SWAP2 SWAP1 PUSH3 0x21A0 JUMP JUMPDEST POP PUSH1 0x40 DUP3 DUP2 ADD MLOAD PUSH1 0x2 DUP4 ADD DUP1 SLOAD PUSH1 0xFF NOT AND PUSH1 0xFF SWAP1 SWAP3 AND SWAP2 SWAP1 SWAP2 OR SWAP1 SSTORE PUSH1 0x60 DUP4 ADD MLOAD PUSH1 0x3 DUP4 ADD SSTORE PUSH1 0x80 DUP4 ADD MLOAD PUSH1 0x4 DUP4 ADD DUP1 SLOAD PUSH1 0x1 PUSH1 0x1 PUSH1 0xA0 SHL SUB NOT AND PUSH1 0x1 PUSH1 0x1 PUSH1 0xA0 SHL SUB SWAP1 SWAP3 AND SWAP2 SWAP1 SWAP2 OR SWAP1 SSTORE PUSH1 0xA0 DUP4 ADD MLOAD PUSH1 0x5 DUP4 ADD SSTORE PUSH1 0xC0 DUP4 ADD MLOAD PUSH1 0x6 DUP4 ADD SSTORE PUSH1 0xE0 DUP4 ADD MLOAD PUSH1 0x7 DUP4 ADD DUP1 SLOAD PUSH2 0x100 DUP7 ADD MLOAD PUSH2 0x120 DUP1 DUP9 ADD MLOAD PUSH2 0xFFFF SWAP6 DUP7 AND PUSH4 0xFFFFFFFF NOT SWAP1 SWAP5 AND SWAP4 SWAP1 SWAP4 OR PUSH3 0x10000 SWAP6 SWAP1 SWAP3 AND SWAP5 SWAP1 SWAP5 MUL OR PUSH1 0xFF PUSH1 0x20 SHL NOT AND PUSH5 0x100000000 SWAP2 ISZERO ISZERO SWAP2 SWAP1 SWAP2 MUL OR SWAP1 SSTORE PUSH2 0x140 DUP5 ADD MLOAD PUSH1 0x8 DUP5 ADD SSTORE PUSH2 0x160 SWAP1 SWAP4 ADD MLOAD PUSH1 0x9 SWAP1 SWAP3 ADD SWAP2 SWAP1 SWAP2 SSTORE DUP1 MLOAD SWAP2 DUP3 ADD DUP2 MSTORE PUSH1 0xD DUP3 MSTORE DUP1 MLOAD DUP1 DUP3 ADD DUP3 MSTORE PUSH1 0x18 DUP2 MSTORE PUSH32 0x426173696320526963652053656564202842756E646C65290000000000000000 PUSH1 0x20 DUP3 DUP2 ADD SWAP2 SWAP1 SWAP2 MSTORE DUP1 DUP5 ADD SWAP2 SWAP1 SWAP2 MSTORE DUP2 MLOAD PUSH1 0x1 DUP1 DUP3 MSTORE DUP2 DUP5 ADD DUP5 MSTORE SWAP3 DUP5 ADD SWAP3 SWAP1 SWAP2 DUP3 DUP2 ADD SWAP1 DUP1 CALLDATASIZE DUP4 CALLDATACOPY POP POP POP DUP2 MSTORE PUSH1 0x40 DUP1 MLOAD PUSH1 0x1 DUP1 DUP3 MSTORE DUP2 DUP4 ADD SWAP1 SWAP3 MSTORE PUSH1 0x20 SWAP3 DUP4 ADD SWAP3 SWAP1 SWAP2 SWAP1 DUP1 DUP4 ADD SWAP1 DUP1 CALLDATASIZE DUP4 CALLDATACOPY POP POP POP DUP2 MSTORE PUSH7 0x221B262DD8000 PUSH1 0x20 DUP1 DUP4 ADD SWAP2 SWAP1 SWAP2 MSTORE PUSH1 0x0 PUSH1 0x40 DUP4 ADD DUP2 SWAP1 MSTORE PUSH1 0x1 PUSH1 0x60 DUP5 ADD MSTORE PUSH2 0x3E8 PUSH1 0x80 DUP5 ADD DUP2 SWAP1 MSTORE PUSH1 0xA0 SWAP1 SWAP4 ADD SWAP3 SWAP1 SWAP3 MSTORE PUSH1 0xD SWAP1 SWAP2 MSTORE PUSH1 0x3 DUP2 MSTORE DUP2 MLOAD PUSH1 0x0 DUP1 MLOAD PUSH1 0x20 PUSH3 0x6803 DUP4 CODECOPY DUP2 MLOAD SWAP2 MSTORE SWAP1 DUP2 SSTORE SWAP1 DUP3 ADD MLOAD PUSH1 0x0 DUP1 MLOAD PUSH1 0x20 PUSH3 0x68E3 DUP4 CODECOPY DUP2 MLOAD SWAP2 MSTORE SWAP1 PUSH3 0x18B4 SWAP1 DUP3 PUSH3 0x21A0 JUMP JUMPDEST POP PUSH1 0x40 DUP3 ADD MLOAD DUP1 MLOAD PUSH3 0x18D2 SWAP2 PUSH1 0x2 DUP5 ADD SWAP2 PUSH1 0x20 SWAP1 SWAP2 ADD SWAP1 PUSH3 0x20A4 JUMP JUMPDEST POP PUSH1 0x60 DUP3 ADD MLOAD DUP1 MLOAD PUSH3 0x18F0 SWAP2 PUSH1 0x3 DUP5 ADD SWAP2 PUSH1 0x20 SWAP1 SWAP2 ADD SWAP1 PUSH3 0x20A4 JUMP JUMPDEST POP PUSH1 0x80 DUP3 ADD MLOAD PUSH1 0x4 DUP3 ADD SSTORE PUSH1 0xA0 DUP3 ADD MLOAD PUSH1 0x5 DUP3 ADD DUP1 SLOAD PUSH1 0xC0 DUP6 ADD MLOAD ISZERO ISZERO PUSH1 0x1 PUSH1 0xA0 SHL MUL PUSH1 0x1 PUSH1 0x1 PUSH1 0xA8 SHL SUB NOT SWAP1 SWAP2 AND PUSH1 0x1 PUSH1 0x1 PUSH1 0xA0 SHL SUB SWAP1 SWAP4 AND SWAP3 SWAP1 SWAP3 OR SWAP2 SWAP1 SWAP2 OR SWAP1 SSTORE PUSH1 0xE0 DUP3 ADD MLOAD PUSH1 0x6 DUP3 ADD SSTORE PUSH2 0x100 SWAP1 SWAP2 ADD MLOAD PUSH1 0x7 SWAP1 SWAP2 ADD SSTORE PUSH1 0xD PUSH1 0x0 SWAP1 DUP2 MSTORE PUSH1 0x3 PUSH1 0x20 MSTORE PUSH1 0x0 DUP1 MLOAD PUSH1 0x20 PUSH3 0x68C3 DUP4 CODECOPY DUP2 MLOAD SWAP2 MSTORE DUP1 SLOAD PUSH1 0x9 SWAP3 SWAP1 PUSH3 0x197C JUMPI PUSH3 0x197C PUSH3 0x226C JUMP JUMPDEST PUSH1 0x0 SWAP2 DUP3 MSTORE PUSH1 0x20 DUP1 DUP4 KECCAK256 SWAP1 SWAP2 ADD SWAP3 SWAP1 SWAP3 SSTORE PUSH1 0xD DUP2 MSTORE PUSH1 0x3 SWAP1 SWAP2 MSTORE PUSH1 0x0 DUP1 MLOAD PUSH1 0x20 PUSH3 0x6923 DUP4 CODECOPY DUP2 MLOAD SWAP2 MSTORE DUP1 SLOAD PUSH1 0x5 SWAP3 SWAP1 PUSH3 0x19BB JUMPI PUSH3 0x19BB PUSH3 0x226C JUMP JUMPDEST SWAP1 PUSH1 0x0 MSTORE PUSH1 0x20 PUSH1 0x0 KECCAK256 ADD DUP2 SWAP1 SSTORE POP PUSH1 0x40 MLOAD DUP1 PUSH2 0x120 ADD PUSH1 0x40 MSTORE DUP1 PUSH1 0xE DUP2 MSTORE PUSH1 0x20 ADD PUSH1 0x40 MLOAD DUP1 PUSH1 0x40 ADD PUSH1 0x40 MSTORE DUP1 PUSH1 0x1A DUP2 MSTORE PUSH1 0x20 ADD PUSH32 0x5072656D69756D20526963652053656564202842756E646C6529000000000000 DUP2 MSTORE POP DUP2 MSTORE PUSH1 0x20 ADD PUSH1 0x1 PUSH1 0x1 PUSH1 0x1 PUSH1 0x40 SHL SUB DUP2 GT ISZERO PUSH3 0x1A33 JUMPI PUSH3 0x1A33 PUSH3 0x20F9 JUMP JUMPDEST PUSH1 0x40 MLOAD SWAP1 DUP1 DUP3 MSTORE DUP1 PUSH1 0x20 MUL PUSH1 0x20 ADD DUP3 ADD PUSH1 0x40 MSTORE DUP1 ISZERO PUSH3 0x1A5D JUMPI DUP2 PUSH1 0x20 ADD PUSH1 0x20 DUP3 MUL DUP1 CALLDATASIZE DUP4 CALLDATACOPY ADD SWAP1 POP JUMPDEST POP DUP2 MSTORE PUSH1 0x40 DUP1 MLOAD PUSH1 0x1 DUP1 DUP3 MSTORE DUP2 DUP4 ADD SWAP1 SWAP3 MSTORE PUSH1 0x20 SWAP1 SWAP3 ADD SWAP2 SWAP1 DUP2 PUSH1 0x20 ADD PUSH1 0x20 DUP3 MUL DUP1 CALLDATASIZE DUP4 CALLDATACOPY POP POP POP DUP2 MSTORE PUSH7 0x38D7EA4C68000 PUSH1 0x20 DUP1 DUP4 ADD SWAP2 SWAP1 SWAP2 MSTORE PUSH1 0x0 PUSH1 0x40 DUP4 ADD DUP2 SWAP1 MSTORE PUSH1 0x1 PUSH1 0x60 DUP5 ADD MSTORE PUSH2 0x3E8 PUSH1 0x80 DUP5 ADD DUP2 SWAP1 MSTORE PUSH1 0xA0 SWAP1 SWAP4 ADD SWAP3 SWAP1 SWAP3 MSTORE PUSH1 0xE SWAP1 SWAP2 MSTORE PUSH1 0x3 DUP2 MSTORE DUP2 MLOAD PUSH1 0x0 DUP1 MLOAD PUSH1 0x20 PUSH3 0x6883 DUP4 CODECOPY DUP2 MLOAD SWAP2 MSTORE SWAP1 DUP2 SSTORE SWAP1 DUP3 ADD MLOAD PUSH1 0x0 DUP1 MLOAD PUSH1 0x20 PUSH3 0x6843 DUP4 CODECOPY DUP2 MLOAD SWAP2 MSTORE SWAP1 PUSH3 0x1AFA SWAP1 DUP3 PUSH3 0x21A0 JUMP JUMPDEST POP PUSH1 0x40 DUP3 ADD MLOAD DUP1 MLOAD PUSH3 0x1B18 SWAP2 PUSH1 0x2 DUP5 ADD SWAP2 PUSH1 0x20 SWAP1 SWAP2 ADD SWAP1 PUSH3 0x20A4 JUMP JUMPDEST POP PUSH1 0x60 DUP3 ADD MLOAD DUP1 MLOAD PUSH3 0x1B36 SWAP2 PUSH1 0x3 DUP5 ADD SWAP2 PUSH1 0x20 SWAP1 SWAP2 ADD SWAP1 PUSH3 0x20A4 JUMP JUMPDEST POP PUSH1 0x80 DUP3 ADD MLOAD PUSH1 0x4 DUP3 ADD SSTORE PUSH1 0xA0 DUP3 ADD MLOAD PUSH1 0x5 DUP3 ADD DUP1 SLOAD PUSH1 0xC0 DUP6 ADD MLOAD ISZERO ISZERO PUSH1 0x1 PUSH1 0xA0 SHL MUL PUSH1 0x1 PUSH1 0x1 PUSH1 0xA8 SHL SUB NOT SWAP1 SWAP2 AND PUSH1 0x1 PUSH1 0x1 PUSH1 0xA0 SHL SUB SWAP1 SWAP4 AND SWAP3 SWAP1 SWAP3 OR SWAP2 SWAP1 SWAP2 OR SWAP1 SSTORE PUSH1 0xE0 DUP3 ADD MLOAD PUSH1 0x6 DUP3 ADD SSTORE PUSH2 0x100 SWAP1 SWAP2 ADD MLOAD PUSH1 0x7 SWAP1 SWAP2 ADD SSTORE PUSH1 0xE PUSH1 0x0 SWAP1 DUP2 MSTORE PUSH1 0x3 PUSH1 0x20 MSTORE PUSH1 0x0 DUP1 MLOAD PUSH1 0x20 PUSH3 0x6823 DUP4 CODECOPY DUP2 MLOAD SWAP2 MSTORE DUP1 SLOAD PUSH1 0xA SWAP3 SWAP1 PUSH3 0x1BC2 JUMPI PUSH3 0x1BC2 PUSH3 0x226C JUMP JUMPDEST PUSH1 0x0 SWAP2 DUP3 MSTORE PUSH1 0x20 DUP1 DUP4 KECCAK256 SWAP1 SWAP2 ADD SWAP3 SWAP1 SWAP3 SSTORE PUSH1 0xE DUP2 MSTORE PUSH1 0x3 SWAP1 SWAP2 MSTORE PUSH1 0x0 DUP1 MLOAD PUSH1 0x20 PUSH3 0x67C3 DUP4 CODECOPY DUP2 MLOAD SWAP2 MSTORE DUP1 SLOAD PUSH1 0x2 SWAP3 SWAP1 PUSH3 0x1C01 JUMPI PUSH3 0x1C01 PUSH3 0x226C JUMP JUMPDEST SWAP1 PUSH1 0x0 MSTORE PUSH1 0x20 PUSH1 0x0 KECCAK256 ADD DUP2 SWAP1 SSTORE POP PUSH1 0x40 MLOAD DUP1 PUSH2 0x120 ADD PUSH1 0x40 MSTORE DUP1 PUSH1 0xF DUP2 MSTORE PUSH1 0x20 ADD PUSH1 0x40 MLOAD DUP1 PUSH1 0x40 ADD PUSH1 0x40 MSTORE DUP1 PUSH1 0x19 DUP2 MSTORE PUSH1 0x20 ADD PUSH32 0x48796272696420526963652053656564202842756E646C652900000000000000 DUP2 MSTORE POP DUP2 MSTORE PUSH1 0x20 ADD PUSH1 0x1 PUSH1 0x1 PUSH1 0x1 PUSH1 0x40 SHL SUB DUP2 GT ISZERO PUSH3 0x1C79 JUMPI PUSH3 0x1C79 PUSH3 0x20F9 JUMP JUMPDEST PUSH1 0x40 MLOAD SWAP1 DUP1 DUP3 MSTORE DUP1 PUSH1 0x20 MUL PUSH1 0x20 ADD DUP3 ADD PUSH1 0x40 MSTORE DUP1 ISZERO PUSH3 0x1CA3 JUMPI DUP2 PUSH1 0x20 ADD PUSH1 0x20 DUP3 MUL DUP1 CALLDATASIZE DUP4 CALLDATACOPY ADD SWAP1 POP JUMPDEST POP DUP2 MSTORE PUSH1 0x40 DUP1 MLOAD PUSH1 0x1 DUP1 DUP3 MSTORE DUP2 DUP4 ADD SWAP1 SWAP3 MSTORE PUSH1 0x20 SWAP1 SWAP3 ADD SWAP2 SWAP1 DUP2 PUSH1 0x20 ADD PUSH1 0x20 DUP3 MUL DUP1 CALLDATASIZE DUP4 CALLDATACOPY POP POP POP DUP2 MSTORE PUSH7 0x4F94AE6AF8000 PUSH1 0x20 DUP1 DUP4 ADD SWAP2 SWAP1 SWAP2 MSTORE PUSH1 0x0 PUSH1 0x40 DUP4 ADD DUP2 SWAP1 MSTORE PUSH1 0x1 PUSH1 0x60 DUP5 ADD MSTORE PUSH2 0x1F4 PUSH1 0x80 DUP5 ADD DUP2 SWAP1 MSTORE PUSH1 0xA0 SWAP1 SWAP4 ADD SWAP3 SWAP1 SWAP3 MSTORE PUSH1 0xF SWAP1 SWAP2 MSTORE PUSH1 0x3 DUP2 MSTORE DUP2 MLOAD PUSH1 0x0 DUP1 MLOAD PUSH1 0x20 PUSH3 0x6903 DUP4 CODECOPY DUP2 MLOAD SWAP2 MSTORE SWAP1 DUP2 SSTORE SWAP1 DUP3 ADD MLOAD PUSH1 0x0 DUP1 MLOAD PUSH1 0x20 PUSH3 0x68A3 DUP4 CODECOPY DUP2 MLOAD SWAP2 MSTORE SWAP1 PUSH3 0x1D40 SWAP1 DUP3 PUSH3 0x21A0 JUMP JUMPDEST POP PUSH1 0x40 DUP3 ADD MLOAD DUP1 MLOAD PUSH3 0x1D5E SWAP2 PUSH1 0x2 DUP5 ADD SWAP2 PUSH1 0x20 SWAP1 SWAP2 ADD SWAP1 PUSH3 0x20A4 JUMP JUMPDEST POP PUSH1 0x60 DUP3 ADD MLOAD DUP1 MLOAD PUSH3 0x1D7C SWAP2 PUSH1 0x3 DUP5 ADD SWAP2 PUSH1 0x20 SWAP1 SWAP2 ADD SWAP1 PUSH3 0x20A4 JUMP JUMPDEST POP PUSH1 0x80 DUP3 ADD MLOAD PUSH1 0x4 DUP3 ADD SSTORE PUSH1 0xA0 DUP3 ADD MLOAD PUSH1 0x5 DUP3 ADD DUP1 SLOAD PUSH1 0xC0 DUP6 ADD MLOAD ISZERO ISZERO PUSH1 0x1 PUSH1 0xA0 SHL MUL PUSH1 0x1 PUSH1 0x1 PUSH1 0xA8 SHL SUB NOT SWAP1 SWAP2 AND PUSH1 0x1 PUSH1 0x1 PUSH1 0xA0 SHL SUB SWAP1 SWAP4 AND SWAP3 SWAP1 SWAP3 OR SWAP2 SWAP1 SWAP2 OR SWAP1 SSTORE PUSH1 0xE0 DUP3 ADD MLOAD PUSH1 0x6 DUP3 ADD SSTORE PUSH2 0x100 SWAP1 SWAP2 ADD MLOAD PUSH1 0x7 SWAP1 SWAP2 ADD SSTORE PUSH1 0xF PUSH1 0x0 SWAP1 DUP2 MSTORE PUSH1 0x3 PUSH1 0x20 MSTORE PUSH1 0x0 DUP1 MLOAD PUSH1 0x20 PUSH3 0x67E3 DUP4 CODECOPY DUP2 MLOAD SWAP2 MSTORE DUP1 SLOAD PUSH1 0xB SWAP3 SWAP1 PUSH3 0x1E08 JUMPI PUSH3 0x1E08 PUSH3 0x226C JUMP JUMPDEST PUSH1 0x0 SWAP2 DUP3 MSTORE PUSH1 0x20 DUP1 DUP4 KECCAK256 SWAP1 SWAP2 ADD SWAP3 SWAP1 SWAP3 SSTORE PUSH1 0xF DUP2 MSTORE PUSH1 0x3 SWAP1 SWAP2 MSTORE PUSH1 0x0 DUP1 MLOAD PUSH1 0x20 PUSH3 0x6863 DUP4 CODECOPY DUP2 MLOAD SWAP2 MSTORE DUP1 SLOAD PUSH1 0x2 SWAP3 SWAP1 PUSH3 0x1E47 JUMPI PUSH3 0x1E47 PUSH3 0x226C JUMP JUMPDEST PUSH1 0x0 SWAP2 DUP3 MSTORE PUSH1 0x20 DUP1 DUP4 KECCAK256 SWAP1 SWAP2 ADD SWAP3 SWAP1 SWAP3 SSTORE PUSH1 0x40 DUP1 MLOAD PUSH2 0x180 DUP2 ADD DUP3 MSTORE PUSH1 0x8 DUP1 DUP3 MSTORE DUP3 MLOAD DUP1 DUP5 ADD DUP5 MSTORE PUSH1 0xE DUP2 MSTORE PUSH14 0x22B732B933BC902137B7B9BA32B9 PUSH1 0x91 SHL DUP2 DUP8 ADD MSTORE DUP3 DUP7 ADD SWAP1 DUP2 MSTORE PUSH1 0x2 SWAP4 DUP4 ADD DUP5 SWAP1 MSTORE PUSH1 0x60 DUP4 ADD DUP6 SWAP1 MSTORE PUSH1 0x80 DUP4 ADD DUP6 SWAP1 MSTORE PUSH1 0xA0 DUP4 ADD DUP6 SWAP1 MSTORE PUSH1 0xC0 DUP4 ADD DUP6 SWAP1 MSTORE PUSH1 0xE0 DUP4 ADD DUP6 SWAP1 MSTORE PUSH2 0x100 DUP4 ADD DUP6 SWAP1 MSTORE PUSH1 0x1 PUSH2 0x120 DUP5 ADD MSTORE PUSH2 0x1F40 PUSH2 0x140 DUP5 ADD DUP2 SWAP1 MSTORE PUSH2 0x160 DUP5 ADD MSTORE SWAP4 MSTORE SWAP3 MSTORE DUP2 MLOAD PUSH32 0x3A5EA591190EEB3F8FCDCED843C78DF04EC0DFD42F5510375207515664FA0A75 SWAP1 DUP2 SSTORE SWAP1 MLOAD PUSH32 0x3A5EA591190EEB3F8FCDCED843C78DF04EC0DFD42F5510375207515664FA0A76 SWAP1 PUSH3 0x1F35 SWAP1 DUP3 PUSH3 0x21A0 JUMP JUMPDEST POP PUSH1 0x40 DUP3 ADD MLOAD PUSH1 0x2 DUP3 ADD DUP1 SLOAD PUSH1 0xFF SWAP1 SWAP3 AND PUSH1 0xFF NOT SWAP1 SWAP3 AND SWAP2 SWAP1 SWAP2 OR SWAP1 SSTORE PUSH1 0x60 DUP3 ADD MLOAD PUSH1 0x3 DUP3 ADD SSTORE PUSH1 0x80 DUP3 ADD MLOAD PUSH1 0x4 DUP3 ADD DUP1 SLOAD PUSH1 0x1 PUSH1 0x1 PUSH1 0xA0 SHL SUB SWAP1 SWAP3 AND PUSH1 0x1 PUSH1 0x1 PUSH1 0xA0 SHL SUB NOT SWAP1 SWAP3 AND SWAP2 SWAP1 SWAP2 OR SWAP1 SSTORE PUSH1 0xA0 DUP3 ADD MLOAD PUSH1 0x5 DUP3 ADD SSTORE PUSH1 0xC0 DUP3 ADD MLOAD PUSH1 0x6 DUP3 ADD SSTORE PUSH1 0xE0 DUP3 ADD MLOAD PUSH1 0x7 DUP3 ADD DUP1 SLOAD PUSH2 0x100 DUP6 ADD MLOAD PUSH2 0x120 DUP7 ADD MLOAD ISZERO ISZERO PUSH5 0x100000000 MUL PUSH1 0xFF PUSH1 0x20 SHL NOT PUSH2 0xFFFF SWAP3 DUP4 AND PUSH3 0x10000 MUL PUSH4 0xFFFFFFFF NOT SWAP1 SWAP5 AND SWAP3 SWAP1 SWAP6 AND SWAP2 SWAP1 SWAP2 OR SWAP2 SWAP1 SWAP2 OR SWAP3 SWAP1 SWAP3 AND SWAP2 SWAP1 SWAP2 OR SWAP1 SSTORE PUSH2 0x140 DUP3 ADD MLOAD PUSH1 0x8 DUP3 ADD SSTORE PUSH2 0x160 SWAP1 SWAP2 ADD MLOAD PUSH1 0x9 SWAP1 SWAP2 ADD SSTORE PUSH3 0x2282 JUMP JUMPDEST PUSH1 0x0 DUP1 SLOAD PUSH1 0x1 PUSH1 0x1 PUSH1 0xA0 SHL SUB DUP4 DUP2 AND PUSH1 0x1 PUSH1 0x1 PUSH1 0xA0 SHL SUB NOT DUP4 AND DUP2 OR DUP5 SSTORE PUSH1 0x40 MLOAD SWAP2 SWAP1 SWAP3 AND SWAP3 DUP4 SWAP2 PUSH32 0x8BE0079C531659141344CD1FD0A4F28419497F9722A3DAAFE3B4186F6B6457E0 SWAP2 SWAP1 LOG3 POP POP JUMP JUMPDEST DUP3 PUSH1 0x7 DUP2 ADD SWAP3 DUP3 ISZERO PUSH3 0x2092 JUMPI SWAP2 PUSH1 0x20 MUL DUP3 ADD JUMPDEST DUP3 DUP2 GT ISZERO PUSH3 0x2092 JUMPI DUP3 MLOAD DUP3 SWAP1 PUSH1 0x1 PUSH1 0x1 PUSH1 0x40 SHL SUB AND SWAP1 SSTORE SWAP2 PUSH1 0x20 ADD SWAP2 SWAP1 PUSH1 0x1 ADD SWAP1 PUSH3 0x206A JUMP JUMPDEST POP PUSH3 0x20A0 SWAP3 SWAP2 POP PUSH3 0x20E2 JUMP JUMPDEST POP SWAP1 JUMP JUMPDEST DUP3 DUP1 SLOAD DUP3 DUP3 SSTORE SWAP1 PUSH1 0x0 MSTORE PUSH1 0x20 PUSH1 0x0 KECCAK256 SWAP1 DUP2 ADD SWAP3 DUP3 ISZERO PUSH3 0x2092 JUMPI SWAP2 PUSH1 0x20 MUL DUP3 ADD JUMPDEST DUP3 DUP2 GT ISZERO PUSH3 0x2092 JUMPI DUP3 MLOAD DUP3 SSTORE SWAP2 PUSH1 0x20 ADD SWAP2 SWAP1 PUSH1 0x1 ADD SWAP1 PUSH3 0x20C5 JUMP JUMPDEST JUMPDEST DUP1 DUP3 GT ISZERO PUSH3 0x20A0 JUMPI PUSH1 0x0 DUP2 SSTORE PUSH1 0x1 ADD PUSH3 0x20E3 JUMP JUMPDEST PUSH4 0x4E487B71 PUSH1 0xE0 SHL PUSH1 0x0 MSTORE PUSH1 0x41 PUSH1 0x4 MSTORE PUSH1 0x24 PUSH1 0x0 REVERT JUMPDEST PUSH1 0x1 DUP2 DUP2 SHR SWAP1 DUP3 AND DUP1 PUSH3 0x2124 JUMPI PUSH1 0x7F DUP3 AND SWAP2 POP JUMPDEST PUSH1 0x20 DUP3 LT DUP2 SUB PUSH3 0x2145 JUMPI PUSH4 0x4E487B71 PUSH1 0xE0 SHL PUSH1 0x0 MSTORE PUSH1 0x22 PUSH1 0x4 MSTORE PUSH1 0x24 PUSH1 0x0 REVERT JUMPDEST POP SWAP2 SWAP1 POP JUMP JUMPDEST PUSH1 0x1F DUP3 GT ISZERO PUSH3 0x219B JUMPI PUSH1 0x0 DUP2 PUSH1 0x0 MSTORE PUSH1 0x20 PUSH1 0x0 KECCAK256 PUSH1 0x1F DUP6 ADD PUSH1 0x5 SHR DUP2 ADD PUSH1 0x20 DUP7 LT ISZERO PUSH3 0x2176 JUMPI POP DUP1 JUMPDEST PUSH1 0x1F DUP6 ADD PUSH1 0x5 SHR DUP3 ADD SWAP2 POP JUMPDEST DUP2 DUP2 LT ISZERO PUSH3 0x2197 JUMPI DUP3 DUP2 SSTORE PUSH1 0x1 ADD PUSH3 0x2182 JUMP JUMPDEST POP POP POP JUMPDEST POP POP POP JUMP JUMPDEST DUP2 MLOAD PUSH1 0x1 PUSH1 0x1 PUSH1 0x40 SHL SUB DUP2 GT ISZERO PUSH3 0x21BC JUMPI PUSH3 0x21BC PUSH3 0x20F9 JUMP JUMPDEST PUSH3 0x21D4 DUP2 PUSH3 0x21CD DUP5 SLOAD PUSH3 0x210F JUMP JUMPDEST DUP5 PUSH3 0x214B JUMP JUMPDEST PUSH1 0x20 DUP1 PUSH1 0x1F DUP4 GT PUSH1 0x1 DUP2 EQ PUSH3 0x220C JUMPI PUSH1 0x0 DUP5 ISZERO PUSH3 0x21F3 JUMPI POP DUP6 DUP4 ADD MLOAD JUMPDEST PUSH1 0x0 NOT PUSH1 0x3 DUP7 SWAP1 SHL SHR NOT AND PUSH1 0x1 DUP6 SWAP1 SHL OR DUP6 SSTORE PUSH3 0x2197 JUMP JUMPDEST PUSH1 0x0 DUP6 DUP2 MSTORE PUSH1 0x20 DUP2 KECCAK256 PUSH1 0x1F NOT DUP7 AND SWAP2 JUMPDEST DUP3 DUP2 LT ISZERO PUSH3 0x223D JUMPI DUP9 DUP7 ADD MLOAD DUP3 SSTORE SWAP5 DUP5 ADD SWAP5 PUSH1 0x1 SWAP1 SWAP2 ADD SWAP1 DUP5 ADD PUSH3 0x221C JUMP JUMPDEST POP DUP6 DUP3 LT ISZERO PUSH3 0x225C JUMPI DUP8 DUP6 ADD MLOAD PUSH1 0x0 NOT PUSH1 0x3 DUP9 SWAP1 SHL PUSH1 0xF8 AND SHR NOT AND DUP2 SSTORE JUMPDEST POP POP POP POP POP PUSH1 0x1 SWAP1 DUP2 SHL ADD SWAP1 SSTORE POP JUMP JUMPDEST PUSH4 0x4E487B71 PUSH1 0xE0 SHL PUSH1 0x0 MSTORE PUSH1 0x32 PUSH1 0x4 MSTORE PUSH1 0x24 PUSH1 0x0 REVERT JUMPDEST PUSH2 0x4531 DUP1 PUSH3 0x2292 PUSH1 0x0 CODECOPY PUSH1 0x0 RETURN INVALID PUSH1 0x80 PUSH1 0x40 MSTORE PUSH1 0x4 CALLDATASIZE LT PUSH2 0x409 JUMPI PUSH1 0x0 CALLDATALOAD PUSH1 0xE0 SHR DUP1 PUSH4 0x8673FB8B GT PUSH2 0x213 JUMPI DUP1 PUSH4 0xD13E3353 GT PUSH2 0x123 JUMPI DUP1 PUSH4 0xE68B02CC GT PUSH2 0xAB JUMPI DUP1 PUSH4 0xEDF2FE73 GT PUSH2 0x7A JUMPI DUP1 PUSH4 0xEDF2FE73 EQ PUSH2 0xD36 JUMPI DUP1 PUSH4 0xF2FDE38B EQ PUSH2 0xD49 JUMPI DUP1 PUSH4 0xF3274A1F EQ PUSH2 0xD69 JUMPI DUP1 PUSH4 0xF9E38F9C EQ PUSH2 0xD7E JUMPI DUP1 PUSH4 0xFEE99C72 EQ PUSH2 0xD9E JUMPI PUSH1 0x0 DUP1 REVERT JUMPDEST DUP1 PUSH4 0xE68B02CC EQ PUSH2 0xCC1 JUMPI DUP1 PUSH4 0xE6F26DF2 EQ PUSH2 0xCD6 JUMPI DUP1 PUSH4 0xE9DA722F EQ PUSH2 0xCF6 JUMPI DUP1 PUSH4 0xEDC0C038 EQ PUSH2 0xD16 JUMPI PUSH1 0x0 DUP1 REVERT JUMPDEST DUP1 PUSH4 0xDDC63262 GT PUSH2 0xF2 JUMPI DUP1 PUSH4 0xDDC63262 EQ PUSH2 0xC0C JUMPI DUP1 PUSH4 0xE086E5EC EQ PUSH2 0xC2C JUMPI DUP1 PUSH4 0xE1F7D38A EQ PUSH2 0xC41 JUMPI DUP1 PUSH4 0xE203FFFC EQ PUSH2 0xC71 JUMPI DUP1 PUSH4 0xE630D241 EQ PUSH2 0xCAC JUMPI PUSH1 0x0 DUP1 REVERT JUMPDEST DUP1 PUSH4 0xD13E3353 EQ PUSH2 0xB7D JUMPI DUP1 PUSH4 0xD291D1F2 EQ PUSH2 0xB92 JUMPI DUP1 PUSH4 0xD6EACB65 EQ PUSH2 0xBBF JUMPI DUP1 PUSH4 0xD7A8AC0B EQ PUSH2 0xBD4 JUMPI PUSH1 0x0 DUP1 REVERT JUMPDEST DUP1 PUSH4 0xA8AD4513 GT PUSH2 0x1A6 JUMPI DUP1 PUSH4 0xBFB231D2 GT PUSH2 0x175 JUMPI DUP1 PUSH4 0xBFB231D2 EQ PUSH2 0xAC8 JUMPI DUP1 PUSH4 0xC7F70346 EQ PUSH2 0xB00 JUMPI DUP1 PUSH4 0xCE882F36 EQ PUSH2 0xB20 JUMPI DUP1 PUSH4 0xCED031D6 EQ PUSH2 0xB35 JUMPI DUP1 PUSH4 0xCF19384B EQ PUSH2 0xB4A JUMPI PUSH1 0x0 DUP1 REVERT JUMPDEST DUP1 PUSH4 0xA8AD4513 EQ PUSH2 0xA69 JUMPI DUP1 PUSH4 0xB07E9A8B EQ PUSH2 0xA7E JUMPI DUP1 PUSH4 0xB0A79A99 EQ PUSH2 0xA93 JUMPI DUP1 PUSH4 0xB203DC60 EQ PUSH2 0xAA8 JUMPI PUSH1 0x0 DUP1 REVERT JUMPDEST DUP1 PUSH4 0x9B7EB3D0 GT PUSH2 0x1E2 JUMPI DUP1 PUSH4 0x9B7EB3D0 EQ PUSH2 0x9E9 JUMPI DUP1 PUSH4 0x9D633E77 EQ PUSH2 0xA09 JUMPI DUP1 PUSH4 0xA4D3F557 EQ PUSH2 0xA29 JUMPI DUP1 PUSH4 0xA5125421 EQ PUSH2 0xA49 JUMPI PUSH1 0x0 DUP1 REVERT JUMPDEST DUP1 PUSH4 0x8673FB8B EQ PUSH2 0x96D JUMPI DUP1 PUSH4 0x8719C20A EQ PUSH2 0x982 JUMPI DUP1 PUSH4 0x89476069 EQ PUSH2 0x997 JUMPI DUP1 PUSH4 0x8DA5CB5B EQ PUSH2 0x9B7 JUMPI PUSH1 0x0 DUP1 REVERT JUMPDEST DUP1 PUSH4 0x4BF8B2C6 GT PUSH2 0x319 JUMPI DUP1 PUSH4 0x715018A6 GT PUSH2 0x2A1 JUMPI DUP1 PUSH4 0x79E07242 GT PUSH2 0x270 JUMPI DUP1 PUSH4 0x79E07242 EQ PUSH2 0x8D6 JUMPI DUP1 PUSH4 0x83F8B7E2 EQ PUSH2 0x8F6 JUMPI DUP1 PUSH4 0x8456CB59 EQ PUSH2 0x90B JUMPI DUP1 PUSH4 0x851044EC EQ PUSH2 0x920 JUMPI DUP1 PUSH4 0x860ECD8C EQ PUSH2 0x94D JUMPI PUSH1 0x0 DUP1 REVERT JUMPDEST DUP1 PUSH4 0x715018A6 EQ PUSH2 0x83C JUMPI DUP1 PUSH4 0x75651E77 EQ PUSH2 0x851 JUMPI DUP1 PUSH4 0x75B9EA1D EQ PUSH2 0x87E JUMPI DUP1 PUSH4 0x77F8C837 EQ PUSH2 0x89E JUMPI PUSH1 0x0 DUP1 REVERT JUMPDEST DUP1 PUSH4 0x54CB5399 GT PUSH2 0x2E8 JUMPI DUP1 PUSH4 0x54CB5399 EQ PUSH2 0x790 JUMPI DUP1 PUSH4 0x5A48D79D EQ PUSH2 0x7B0 JUMPI DUP1 PUSH4 0x5C975ABB EQ PUSH2 0x7DD JUMPI DUP1 PUSH4 0x60E3AB0B EQ PUSH2 0x7FC JUMPI DUP1 PUSH4 0x66C3B5FA EQ PUSH2 0x81C JUMPI PUSH1 0x0 DUP1 REVERT JUMPDEST DUP1 PUSH4 0x4BF8B2C6 EQ PUSH2 0x69D JUMPI DUP1 PUSH4 0x4C321A89 EQ PUSH2 0x6B2 JUMPI DUP1 PUSH4 0x4F87E864 EQ PUSH2 0x750 JUMPI DUP1 PUSH4 0x53ABFC85 EQ PUSH2 0x770 JUMPI PUSH1 0x0 DUP1 REVERT JUMPDEST DUP1 PUSH4 0x29E6D681 GT PUSH2 0x39C JUMPI DUP1 PUSH4 0x38EE59B9 GT PUSH2 0x36B JUMPI DUP1 PUSH4 0x38EE59B9 EQ PUSH2 0x5E8 JUMPI DUP1 PUSH4 0x3F4BA83A EQ PUSH2 0x608 JUMPI DUP1 PUSH4 0x451420CB EQ PUSH2 0x61D JUMPI DUP1 PUSH4 0x484BB244 EQ PUSH2 0x63D JUMPI DUP1 PUSH4 0x4A7DC8E0 EQ PUSH2 0x67D JUMPI PUSH1 0x0 DUP1 REVERT JUMPDEST DUP1 PUSH4 0x29E6D681 EQ PUSH2 0x546 JUMPI DUP1 PUSH4 0x2A1BBD1F EQ PUSH2 0x573 JUMPI DUP1 PUSH4 0x35A23E7B EQ PUSH2 0x593 JUMPI DUP1 PUSH4 0x3603F8D1 EQ PUSH2 0x5C0 JUMPI PUSH1 0x0 DUP1 REVERT JUMPDEST DUP1 PUSH4 0x13C066F8 GT PUSH2 0x3D8 JUMPI DUP1 PUSH4 0x13C066F8 EQ PUSH2 0x4DC JUMPI DUP1 PUSH4 0x14C84F3A EQ PUSH2 0x4EF JUMPI DUP1 PUSH4 0x14D3A9C0 EQ PUSH2 0x51C JUMPI DUP1 PUSH4 0x1F36C907 EQ PUSH2 0x531 JUMPI PUSH1 0x0 DUP1 REVERT JUMPDEST DUP1 PUSH4 0x73E57D2 EQ PUSH2 0x415 JUMPI DUP1 PUSH4 0x7BD03BA EQ PUSH2 0x437 JUMPI DUP1 PUSH4 0xDA0D7A5 EQ PUSH2 0x482 JUMPI DUP1 PUSH4 0xF13DDA4 EQ PUSH2 0x4AF JUMPI PUSH1 0x0 DUP1 REVERT JUMPDEST CALLDATASIZE PUSH2 0x410 JUMPI STOP JUMPDEST PUSH1 0x0 DUP1 REVERT JUMPDEST CALLVALUE DUP1 ISZERO PUSH2 0x421 JUMPI PUSH1 0x0 DUP1 REVERT JUMPDEST POP PUSH2 0x435 PUSH2 0x430 CALLDATASIZE PUSH1 0x4 PUSH2 0x3A35 JUMP JUMPDEST PUSH2 0xDCB JUMP JUMPDEST STOP JUMPDEST CALLVALUE DUP1 ISZERO PUSH2 0x443 JUMPI PUSH1 0x0 DUP1 REVERT JUMPDEST POP PUSH2 0x46F PUSH2 0x452 CALLDATASIZE PUSH1 0x4 PUSH2 0x3A6A JUMP JUMPDEST PUSH1 0x4 PUSH1 0x20 SWAP1 DUP2 MSTORE PUSH1 0x0 SWAP3 DUP4 MSTORE PUSH1 0x40 DUP1 DUP5 KECCAK256 SWAP1 SWAP2 MSTORE SWAP1 DUP3 MSTORE SWAP1 KECCAK256 SLOAD DUP2 JUMP JUMPDEST PUSH1 0x40 MLOAD SWAP1 DUP2 MSTORE PUSH1 0x20 ADD JUMPDEST PUSH1 0x40 MLOAD DUP1 SWAP2 SUB SWAP1 RETURN JUMPDEST CALLVALUE DUP1 ISZERO PUSH2 0x48E JUMPI PUSH1 0x0 DUP1 REVERT JUMPDEST POP PUSH2 0x46F PUSH2 0x49D CALLDATASIZE PUSH1 0x4 PUSH2 0x3A94 JUMP JUMPDEST PUSH1 0xC PUSH1 0x20 MSTORE PUSH1 0x0 SWAP1 DUP2 MSTORE PUSH1 0x40 SWAP1 KECCAK256 SLOAD DUP2 JUMP JUMPDEST CALLVALUE DUP1 ISZERO PUSH2 0x4BB JUMPI PUSH1 0x0 DUP1 REVERT JUMPDEST POP PUSH2 0x46F PUSH2 0x4CA CALLDATASIZE PUSH1 0x4 PUSH2 0x3A35 JUMP JUMPDEST PUSH1 0xF PUSH1 0x20 MSTORE PUSH1 0x0 SWAP1 DUP2 MSTORE PUSH1 0x40 SWAP1 KECCAK256 SLOAD DUP2 JUMP JUMPDEST PUSH2 0x435 PUSH2 0x4EA CALLDATASIZE PUSH1 0x4 PUSH2 0x3AB6 JUMP JUMPDEST PUSH2 0x101F JUMP JUMPDEST CALLVALUE DUP1 ISZERO PUSH2 0x4FB JUMPI PUSH1 0x0 DUP1 REVERT JUMPDEST POP PUSH2 0x46F PUSH2 0x50A CALLDATASIZE PUSH1 0x4 PUSH2 0x3A94 JUMP JUMPDEST PUSH1 0x8 PUSH1 0x20 MSTORE PUSH1 0x0 SWAP1 DUP2 MSTORE PUSH1 0x40 SWAP1 KECCAK256 SLOAD DUP2 JUMP JUMPDEST CALLVALUE DUP1 ISZERO PUSH2 0x528 JUMPI PUSH1 0x0 DUP1 REVERT JUMPDEST POP PUSH2 0x46F PUSH1 0x6 DUP2 JUMP JUMPDEST CALLVALUE DUP1 ISZERO PUSH2 0x53D JUMPI PUSH1 0x0 DUP1 REVERT JUMPDEST POP PUSH2 0x46F PUSH1 0x8 DUP2 JUMP JUMPDEST CALLVALUE DUP1 ISZERO PUSH2 0x552 JUMPI PUSH1 0x0 DUP1 REVERT JUMPDEST POP PUSH2 0x46F PUSH2 0x561 CALLDATASIZE PUSH1 0x4 PUSH2 0x3A94 JUMP JUMPDEST PUSH1 0x7 PUSH1 0x20 MSTORE PUSH1 0x0 SWAP1 DUP2 MSTORE PUSH1 0x40 SWAP1 KECCAK256 SLOAD DUP2 JUMP JUMPDEST CALLVALUE DUP1 ISZERO PUSH2 0x57F JUMPI PUSH1 0x0 DUP1 REVERT JUMPDEST POP PUSH2 0x435 PUSH2 0x58E CALLDATASIZE PUSH1 0x4 PUSH2 0x3AEB JUMP JUMPDEST PUSH2 0x1352 JUMP JUMPDEST CALLVALUE DUP1 ISZERO PUSH2 0x59F JUMPI PUSH1 0x0 DUP1 REVERT JUMPDEST POP PUSH2 0x46F PUSH2 0x5AE CALLDATASIZE PUSH1 0x4 PUSH2 0x3A94 JUMP JUMPDEST PUSH1 0xA PUSH1 0x20 MSTORE PUSH1 0x0 SWAP1 DUP2 MSTORE PUSH1 0x40 SWAP1 KECCAK256 SLOAD DUP2 JUMP JUMPDEST CALLVALUE DUP1 ISZERO PUSH2 0x5CC JUMPI PUSH1 0x0 DUP1 REVERT JUMPDEST POP PUSH2 0x5D5 PUSH1 0x0 DUP2 JUMP JUMPDEST PUSH1 0x40 MLOAD PUSH2 0xFFFF SWAP1 SWAP2 AND DUP2 MSTORE PUSH1 0x20 ADD PUSH2 0x479 JUMP JUMPDEST CALLVALUE DUP1 ISZERO PUSH2 0x5F4 JUMPI PUSH1 0x0 DUP1 REVERT JUMPDEST POP PUSH2 0x435 PUSH2 0x603 CALLDATASIZE PUSH1 0x4 PUSH2 0x3AEB JUMP JUMPDEST PUSH2 0x1485 JUMP JUMPDEST CALLVALUE DUP1 ISZERO PUSH2 0x614 JUMPI PUSH1 0x0 DUP1 REVERT JUMPDEST POP PUSH2 0x435 PUSH2 0x1680 JUMP JUMPDEST CALLVALUE DUP1 ISZERO PUSH2 0x629 JUMPI PUSH1 0x0 DUP1 REVERT JUMPDEST POP PUSH2 0x435 PUSH2 0x638 CALLDATASIZE PUSH1 0x4 PUSH2 0x3C4E JUMP JUMPDEST PUSH2 0x1692 JUMP JUMPDEST CALLVALUE DUP1 ISZERO PUSH2 0x649 JUMPI PUSH1 0x0 DUP1 REVERT JUMPDEST POP PUSH2 0x66D PUSH2 0x658 CALLDATASIZE PUSH1 0x4 PUSH2 0x3A94 JUMP JUMPDEST PUSH1 0x10 PUSH1 0x20 MSTORE PUSH1 0x0 SWAP1 DUP2 MSTORE PUSH1 0x40 SWAP1 KECCAK256 SLOAD PUSH1 0xFF AND DUP2 JUMP JUMPDEST PUSH1 0x40 MLOAD SWAP1 ISZERO ISZERO DUP2 MSTORE PUSH1 0x20 ADD PUSH2 0x479 JUMP JUMPDEST CALLVALUE DUP1 ISZERO PUSH2 0x689 JUMPI PUSH1 0x0 DUP1 REVERT JUMPDEST POP PUSH2 0x435 PUSH2 0x698 CALLDATASIZE PUSH1 0x4 PUSH2 0x3A94 JUMP JUMPDEST PUSH2 0x17EA JUMP JUMPDEST CALLVALUE DUP1 ISZERO PUSH2 0x6A9 JUMPI PUSH1 0x0 DUP1 REVERT JUMPDEST POP PUSH2 0x5D5 PUSH1 0x46 DUP2 JUMP JUMPDEST CALLVALUE DUP1 ISZERO PUSH2 0x6BE JUMPI PUSH1 0x0 DUP1 REVERT JUMPDEST POP PUSH2 0x71A PUSH2 0x6CD CALLDATASIZE PUSH1 0x4 PUSH2 0x3A6A JUMP JUMPDEST PUSH1 0x5 PUSH1 0x20 SWAP1 DUP2 MSTORE PUSH1 0x0 SWAP3 DUP4 MSTORE PUSH1 0x40 DUP1 DUP5 KECCAK256 SWAP1 SWAP2 MSTORE SWAP1 DUP3 MSTORE SWAP1 KECCAK256 DUP1 SLOAD PUSH1 0x1 DUP3 ADD SLOAD PUSH1 0x2 DUP4 ADD SLOAD PUSH1 0x3 SWAP1 SWAP4 ADD SLOAD SWAP2 SWAP3 SWAP1 SWAP2 PUSH2 0xFFFF DUP1 DUP3 AND SWAP2 PUSH3 0x10000 DUP2 DIV SWAP1 SWAP2 AND SWAP1 PUSH1 0x1 PUSH1 0x20 SHL SWAP1 DIV PUSH1 0xFF AND DUP7 JUMP JUMPDEST PUSH1 0x40 DUP1 MLOAD SWAP7 DUP8 MSTORE PUSH1 0x20 DUP8 ADD SWAP6 SWAP1 SWAP6 MSTORE SWAP4 DUP6 ADD SWAP3 SWAP1 SWAP3 MSTORE PUSH2 0xFFFF SWAP1 DUP2 AND PUSH1 0x60 DUP6 ADD MSTORE AND PUSH1 0x80 DUP4 ADD MSTORE ISZERO ISZERO PUSH1 0xA0 DUP3 ADD MSTORE PUSH1 0xC0 ADD PUSH2 0x479 JUMP JUMPDEST CALLVALUE DUP1 ISZERO PUSH2 0x75C JUMPI PUSH1 0x0 DUP1 REVERT JUMPDEST POP PUSH2 0x435 PUSH2 0x76B CALLDATASIZE PUSH1 0x4 PUSH2 0x3AEB JUMP JUMPDEST PUSH2 0x184D JUMP JUMPDEST CALLVALUE DUP1 ISZERO PUSH2 0x77C JUMPI PUSH1 0x0 DUP1 REVERT JUMPDEST POP PUSH2 0x435 PUSH2 0x78B CALLDATASIZE PUSH1 0x4 PUSH2 0x3AEB JUMP JUMPDEST PUSH2 0x1C11 JUMP JUMPDEST CALLVALUE DUP1 ISZERO PUSH2 0x79C JUMPI PUSH1 0x0 DUP1 REVERT JUMPDEST POP PUSH2 0x435 PUSH2 0x7AB CALLDATASIZE PUSH1 0x4 PUSH2 0x3DD9 JUMP JUMPDEST PUSH2 0x1C2B JUMP JUMPDEST CALLVALUE DUP1 ISZERO PUSH2 0x7BC JUMPI PUSH1 0x0 DUP1 REVERT JUMPDEST POP PUSH2 0x46F PUSH2 0x7CB CALLDATASIZE PUSH1 0x4 PUSH2 0x3A94 JUMP JUMPDEST PUSH1 0xB PUSH1 0x20 MSTORE PUSH1 0x0 SWAP1 DUP2 MSTORE PUSH1 0x40 SWAP1 KECCAK256 SLOAD DUP2 JUMP JUMPDEST CALLVALUE DUP1 ISZERO PUSH2 0x7E9 JUMPI PUSH1 0x0 DUP1 REVERT JUMPDEST POP PUSH1 0x0 SLOAD PUSH1 0x1 PUSH1 0xA0 SHL SWAP1 DIV PUSH1 0xFF AND PUSH2 0x66D JUMP JUMPDEST CALLVALUE DUP1 ISZERO PUSH2 0x808 JUMPI PUSH1 0x0 DUP1 REVERT JUMPDEST POP PUSH2 0x435 PUSH2 0x817 CALLDATASIZE PUSH1 0x4 PUSH2 0x3C4E JUMP JUMPDEST PUSH2 0x1D4D JUMP JUMPDEST CALLVALUE DUP1 ISZERO PUSH2 0x828 JUMPI PUSH1 0x0 DUP1 REVERT JUMPDEST POP PUSH2 0x435 PUSH2 0x837 CALLDATASIZE PUSH1 0x4 PUSH2 0x3A35 JUMP JUMPDEST PUSH2 0x1D55 JUMP JUMPDEST CALLVALUE DUP1 ISZERO PUSH2 0x848 JUMPI PUSH1 0x0 DUP1 REVERT JUMPDEST POP PUSH2 0x435 PUSH2 0x1D7B JUMP JUMPDEST CALLVALUE DUP1 ISZERO PUSH2 0x85D JUMPI PUSH1 0x0 DUP1 REVERT JUMPDEST POP PUSH2 0x871 PUSH2 0x86C CALLDATASIZE PUSH1 0x4 PUSH2 0x3EDC JUMP JUMPDEST PUSH2 0x1D8D JUMP JUMPDEST PUSH1 0x40 MLOAD PUSH2 0x479 SWAP2 SWAP1 PUSH2 0x3F62 JUMP JUMPDEST CALLVALUE DUP1 ISZERO PUSH2 0x88A JUMPI PUSH1 0x0 DUP1 REVERT JUMPDEST POP PUSH2 0x435 PUSH2 0x899 CALLDATASIZE PUSH1 0x4 PUSH2 0x3A35 JUMP JUMPDEST PUSH2 0x1EDF JUMP JUMPDEST CALLVALUE DUP1 ISZERO PUSH2 0x8AA JUMPI PUSH1 0x0 DUP1 REVERT JUMPDEST POP PUSH2 0x46F PUSH2 0x8B9 CALLDATASIZE PUSH1 0x4 PUSH2 0x3A6A JUMP JUMPDEST PUSH1 0x19 PUSH1 0x20 SWAP1 DUP2 MSTORE PUSH1 0x0 SWAP3 DUP4 MSTORE PUSH1 0x40 DUP1 DUP5 KECCAK256 SWAP1 SWAP2 MSTORE SWAP1 DUP3 MSTORE SWAP1 KECCAK256 SLOAD DUP2 JUMP JUMPDEST CALLVALUE DUP1 ISZERO PUSH2 0x8E2 JUMPI PUSH1 0x0 DUP1 REVERT JUMPDEST POP PUSH2 0x435 PUSH2 0x8F1 CALLDATASIZE PUSH1 0x4 PUSH2 0x3A35 JUMP JUMPDEST PUSH2 0x2039 JUMP JUMPDEST CALLVALUE DUP1 ISZERO PUSH2 0x902 JUMPI PUSH1 0x0 DUP1 REVERT JUMPDEST POP PUSH2 0x435 PUSH2 0x2191 JUMP JUMPDEST CALLVALUE DUP1 ISZERO PUSH2 0x917 JUMPI PUSH1 0x0 DUP1 REVERT JUMPDEST POP PUSH2 0x435 PUSH2 0x22E8 JUMP JUMPDEST CALLVALUE DUP1 ISZERO PUSH2 0x92C JUMPI PUSH1 0x0 DUP1 REVERT JUMPDEST POP PUSH2 0x940 PUSH2 0x93B CALLDATASIZE PUSH1 0x4 PUSH2 0x3EDC JUMP JUMPDEST PUSH2 0x22F8 JUMP JUMPDEST PUSH1 0x40 MLOAD PUSH2 0x479 SWAP2 SWAP1 PUSH2 0x4024 JUMP JUMPDEST CALLVALUE DUP1 ISZERO PUSH2 0x959 JUMPI PUSH1 0x0 DUP1 REVERT JUMPDEST POP PUSH2 0x435 PUSH2 0x968 CALLDATASIZE PUSH1 0x4 PUSH2 0x3A35 JUMP JUMPDEST PUSH2 0x23B2 JUMP JUMPDEST CALLVALUE DUP1 ISZERO PUSH2 0x979 JUMPI PUSH1 0x0 DUP1 REVERT JUMPDEST POP PUSH2 0x435 PUSH2 0x25C3 JUMP JUMPDEST CALLVALUE DUP1 ISZERO PUSH2 0x98E JUMPI PUSH1 0x0 DUP1 REVERT JUMPDEST POP PUSH2 0x46F PUSH1 0xB DUP2 JUMP JUMPDEST CALLVALUE DUP1 ISZERO PUSH2 0x9A3 JUMPI PUSH1 0x0 DUP1 REVERT JUMPDEST POP PUSH2 0x435 PUSH2 0x9B2 CALLDATASIZE PUSH1 0x4 PUSH2 0x3A94 JUMP JUMPDEST PUSH2 0x26F1 JUMP JUMPDEST CALLVALUE DUP1 ISZERO PUSH2 0x9C3 JUMPI PUSH1 0x0 DUP1 REVERT JUMPDEST POP PUSH1 0x0 SLOAD PUSH1 0x1 PUSH1 0x1 PUSH1 0xA0 SHL SUB AND JUMPDEST PUSH1 0x40 MLOAD PUSH1 0x1 PUSH1 0x1 PUSH1 0xA0 SHL SUB SWAP1 SWAP2 AND DUP2 MSTORE PUSH1 0x20 ADD PUSH2 0x479 JUMP JUMPDEST CALLVALUE DUP1 ISZERO PUSH2 0x9F5 JUMPI PUSH1 0x0 DUP1 REVERT JUMPDEST POP PUSH2 0x435 PUSH2 0xA04 CALLDATASIZE PUSH1 0x4 PUSH2 0x3A94 JUMP JUMPDEST PUSH2 0x2814 JUMP JUMPDEST CALLVALUE DUP1 ISZERO PUSH2 0xA15 JUMPI PUSH1 0x0 DUP1 REVERT JUMPDEST POP PUSH1 0x18 SLOAD PUSH2 0x9D1 SWAP1 PUSH1 0x1 PUSH1 0x1 PUSH1 0xA0 SHL SUB AND DUP2 JUMP JUMPDEST CALLVALUE DUP1 ISZERO PUSH2 0xA35 JUMPI PUSH1 0x0 DUP1 REVERT JUMPDEST POP PUSH2 0x435 PUSH2 0xA44 CALLDATASIZE PUSH1 0x4 PUSH2 0x3A94 JUMP JUMPDEST PUSH2 0x28B4 JUMP JUMPDEST CALLVALUE DUP1 ISZERO PUSH2 0xA55 JUMPI PUSH1 0x0 DUP1 REVERT JUMPDEST POP PUSH2 0x435 PUSH2 0xA64 CALLDATASIZE PUSH1 0x4 PUSH2 0x3A94 JUMP JUMPDEST PUSH2 0x28DE JUMP JUMPDEST CALLVALUE DUP1 ISZERO PUSH2 0xA75 JUMPI PUSH1 0x0 DUP1 REVERT JUMPDEST POP PUSH2 0x46F PUSH1 0x5 DUP2 JUMP JUMPDEST CALLVALUE DUP1 ISZERO PUSH2 0xA8A JUMPI PUSH1 0x0 DUP1 REVERT JUMPDEST POP PUSH2 0x46F PUSH1 0xA DUP2 JUMP JUMPDEST CALLVALUE DUP1 ISZERO PUSH2 0xA9F JUMPI PUSH1 0x0 DUP1 REVERT JUMPDEST POP PUSH2 0x46F PUSH1 0x12 DUP2 JUMP JUMPDEST CALLVALUE DUP1 ISZERO PUSH2 0xAB4 JUMPI PUSH1 0x0 DUP1 REVERT JUMPDEST POP PUSH2 0x46F PUSH2 0xAC3 CALLDATASIZE PUSH1 0x4 PUSH2 0x3A35 JUMP JUMPDEST PUSH2 0x2937 JUMP JUMPDEST CALLVALUE DUP1 ISZERO PUSH2 0xAD4 JUMPI PUSH1 0x0 DUP1 REVERT JUMPDEST POP PUSH2 0xAE8 PUSH2 0xAE3 CALLDATASIZE PUSH1 0x4 PUSH2 0x3A35 JUMP JUMPDEST PUSH2 0x294E JUMP JUMPDEST PUSH1 0x40 MLOAD PUSH2 0x479 SWAP13 SWAP12 SWAP11 SWAP10 SWAP9 SWAP8 SWAP7 SWAP6 SWAP5 SWAP4 SWAP3 SWAP2 SWAP1 PUSH2 0x407D JUMP JUMPDEST CALLVALUE DUP1 ISZERO PUSH2 0xB0C JUMPI PUSH1 0x0 DUP1 REVERT JUMPDEST POP PUSH2 0x435 PUSH2 0xB1B CALLDATASIZE PUSH1 0x4 PUSH2 0x3AEB JUMP JUMPDEST PUSH2 0x2A4F JUMP JUMPDEST CALLVALUE DUP1 ISZERO PUSH2 0xB2C JUMPI PUSH1 0x0 DUP1 REVERT JUMPDEST POP PUSH2 0x435 PUSH2 0x2AC6 JUMP JUMPDEST CALLVALUE DUP1 ISZERO PUSH2 0xB41 JUMPI PUSH1 0x0 DUP1 REVERT JUMPDEST POP PUSH2 0x435 PUSH2 0x2C3C JUMP JUMPDEST CALLVALUE DUP1 ISZERO PUSH2 0xB56 JUMPI PUSH1 0x0 DUP1 REVERT JUMPDEST POP PUSH2 0xB6A PUSH2 0xB65 CALLDATASIZE PUSH1 0x4 PUSH2 0x3A35 JUMP JUMPDEST PUSH2 0x2EB4 JUMP JUMPDEST PUSH1 0x40 MLOAD PUSH2 0x479 SWAP8 SWAP7 SWAP6 SWAP5 SWAP4 SWAP3 SWAP2 SWAP1 PUSH2 0x40FA JUMP JUMPDEST CALLVALUE DUP1 ISZERO PUSH2 0xB89 JUMPI PUSH1 0x0 DUP1 REVERT JUMPDEST POP PUSH2 0x46F PUSH1 0xC DUP2 JUMP JUMPDEST CALLVALUE DUP1 ISZERO PUSH2 0xB9E JUMPI PUSH1 0x0 DUP1 REVERT JUMPDEST POP PUSH2 0x46F PUSH2 0xBAD CALLDATASIZE PUSH1 0x4 PUSH2 0x3A94 JUMP JUMPDEST PUSH1 0x6 PUSH1 0x20 MSTORE PUSH1 0x0 SWAP1 DUP2 MSTORE PUSH1 0x40 SWAP1 KECCAK256 SLOAD DUP2 JUMP JUMPDEST CALLVALUE DUP1 ISZERO PUSH2 0xBCB JUMPI PUSH1 0x0 DUP1 REVERT JUMPDEST POP PUSH2 0x46F PUSH1 0x11 DUP2 JUMP JUMPDEST CALLVALUE DUP1 ISZERO PUSH2 0xBE0 JUMPI PUSH1 0x0 DUP1 REVERT JUMPDEST POP PUSH2 0x46F PUSH2 0xBEF CALLDATASIZE PUSH1 0x4 PUSH2 0x3A6A JUMP JUMPDEST PUSH1 0x1A PUSH1 0x20 SWAP1 DUP2 MSTORE PUSH1 0x0 SWAP3 DUP4 MSTORE PUSH1 0x40 DUP1 DUP5 KECCAK256 SWAP1 SWAP2 MSTORE SWAP1 DUP3 MSTORE SWAP1 KECCAK256 SLOAD DUP2 JUMP JUMPDEST CALLVALUE DUP1 ISZERO PUSH2 0xC18 JUMPI PUSH1 0x0 DUP1 REVERT JUMPDEST POP PUSH2 0x435 PUSH2 0xC27 CALLDATASIZE PUSH1 0x4 PUSH2 0x3A35 JUMP JUMPDEST PUSH2 0x2F88 JUMP JUMPDEST CALLVALUE DUP1 ISZERO PUSH2 0xC38 JUMPI PUSH1 0x0 DUP1 REVERT JUMPDEST POP PUSH2 0x435 PUSH2 0x3206 JUMP JUMPDEST CALLVALUE DUP1 ISZERO PUSH2 0xC4D JUMPI PUSH1 0x0 DUP1 REVERT JUMPDEST POP PUSH2 0x66D PUSH2 0xC5C CALLDATASIZE PUSH1 0x4 PUSH2 0x3A94 JUMP JUMPDEST PUSH1 0xD PUSH1 0x20 MSTORE PUSH1 0x0 SWAP1 DUP2 MSTORE PUSH1 0x40 SWAP1 KECCAK256 SLOAD PUSH1 0xFF AND DUP2 JUMP JUMPDEST CALLVALUE DUP1 ISZERO PUSH2 0xC7D JUMPI PUSH1 0x0 DUP1 REVERT JUMPDEST POP PUSH2 0x66D PUSH2 0xC8C CALLDATASIZE PUSH1 0x4 PUSH2 0x3A6A JUMP JUMPDEST PUSH1 0xE PUSH1 0x20 SWAP1 DUP2 MSTORE PUSH1 0x0 SWAP3 DUP4 MSTORE PUSH1 0x40 DUP1 DUP5 KECCAK256 SWAP1 SWAP2 MSTORE SWAP1 DUP3 MSTORE SWAP1 KECCAK256 SLOAD PUSH1 0xFF AND DUP2 JUMP JUMPDEST CALLVALUE DUP1 ISZERO PUSH2 0xCB8 JUMPI PUSH1 0x0 DUP1 REVERT JUMPDEST POP PUSH2 0x46F PUSH1 0x9 DUP2 JUMP JUMPDEST CALLVALUE DUP1 ISZERO PUSH2 0xCCD JUMPI PUSH1 0x0 DUP1 REVERT JUMPDEST POP PUSH2 0x46F PUSH1 0x7 DUP2 JUMP JUMPDEST CALLVALUE DUP1 ISZERO PUSH2 0xCE2 JUMPI PUSH1 0x0 DUP1 REVERT JUMPDEST POP PUSH2 0x435 PUSH2 0xCF1 CALLDATASIZE PUSH1 0x4 PUSH2 0x3A94 JUMP JUMPDEST PUSH2 0x3298 JUMP JUMPDEST CALLVALUE DUP1 ISZERO PUSH2 0xD02 JUMPI PUSH1 0x0 DUP1 REVERT JUMPDEST POP PUSH2 0x435 PUSH2 0xD11 CALLDATASIZE PUSH1 0x4 PUSH2 0x3A35 JUMP JUMPDEST PUSH2 0x3337 JUMP JUMPDEST CALLVALUE DUP1 ISZERO PUSH2 0xD22 JUMPI PUSH1 0x0 DUP1 REVERT JUMPDEST POP PUSH2 0x435 PUSH2 0xD31 CALLDATASIZE PUSH1 0x4 PUSH2 0x3DD9 JUMP JUMPDEST PUSH2 0x3405 JUMP JUMPDEST PUSH2 0x435 PUSH2 0xD44 CALLDATASIZE PUSH1 0x4 PUSH2 0x3AB6 JUMP JUMPDEST PUSH2 0x340D JUMP JUMPDEST CALLVALUE DUP1 ISZERO PUSH2 0xD55 JUMPI PUSH1 0x0 DUP1 REVERT JUMPDEST POP PUSH2 0x435 PUSH2 0xD64 CALLDATASIZE PUSH1 0x4 PUSH2 0x3A94 JUMP JUMPDEST PUSH2 0x37DF JUMP JUMPDEST CALLVALUE DUP1 ISZERO PUSH2 0xD75 JUMPI PUSH1 0x0 DUP1 REVERT JUMPDEST POP PUSH2 0x46F PUSH1 0x4 DUP2 JUMP JUMPDEST CALLVALUE DUP1 ISZERO PUSH2 0xD8A JUMPI PUSH1 0x0 DUP1 REVERT JUMPDEST POP PUSH2 0x435 PUSH2 0xD99 CALLDATASIZE PUSH1 0x4 PUSH2 0x3A35 JUMP JUMPDEST PUSH2 0x381A JUMP JUMPDEST CALLVALUE DUP1 ISZERO PUSH2 0xDAA JUMPI PUSH1 0x0 DUP1 REVERT JUMPDEST POP PUSH2 0x46F PUSH2 0xDB9 CALLDATASIZE PUSH1 0x4 PUSH2 0x3A94 JUMP JUMPDEST PUSH1 0x9 PUSH1 0x20 MSTORE PUSH1 0x0 SWAP1 DUP2 MSTORE PUSH1 0x40 SWAP1 KECCAK256 SLOAD DUP2 JUMP JUMPDEST PUSH2 0xDD3 PUSH2 0x3841 JUMP JUMPDEST PUSH2 0xDDB PUSH2 0x386C JUMP JUMPDEST CALLER PUSH1 0x0 SWAP1 DUP2 MSTORE PUSH1 0x4 PUSH1 0x20 SWAP1 DUP2 MSTORE PUSH1 0x40 DUP1 DUP4 KECCAK256 PUSH1 0x11 DUP5 MSTORE SWAP1 SWAP2 MSTORE SWAP1 KECCAK256 SLOAD PUSH2 0xE48 JUMPI PUSH1 0x40 MLOAD PUSH3 0x461BCD PUSH1 0xE5 SHL DUP2 MSTORE PUSH1 0x20 PUSH1 0x4 DUP3 ADD MSTORE PUSH1 0x1E PUSH1 0x24 DUP3 ADD MSTORE PUSH32 0x4E65656420476F6C64656E20486172766573746572202853696E676C65290000 PUSH1 0x44 DUP3 ADD MSTORE PUSH1 0x64 ADD JUMPDEST PUSH1 0x40 MLOAD DUP1 SWAP2 SUB SWAP1 REVERT JUMPDEST CALLER PUSH1 0x0 SWAP1 DUP2 MSTORE PUSH1 0x5 PUSH1 0x20 SWAP1 DUP2 MSTORE PUSH1 0x40 DUP1 DUP4 KECCAK256 DUP5 DUP5 MSTORE SWAP1 SWAP2 MSTORE SWAP1 KECCAK256 PUSH1 0x3 DUP2 ADD SLOAD PUSH1 0x1 PUSH1 0x20 SHL SWAP1 DIV PUSH1 0xFF AND PUSH2 0xE8D JUMPI PUSH1 0x40 MLOAD PUSH3 0x461BCD PUSH1 0xE5 SHL DUP2 MSTORE PUSH1 0x4 ADD PUSH2 0xE3F SWAP1 PUSH2 0x4146 JUMP JUMPDEST DUP1 PUSH1 0x2 ADD SLOAD TIMESTAMP LT ISZERO PUSH2 0xECD JUMPI PUSH1 0x40 MLOAD PUSH3 0x461BCD PUSH1 0xE5 SHL DUP2 MSTORE PUSH1 0x20 PUSH1 0x4 DUP3 ADD MSTORE PUSH1 0x9 PUSH1 0x24 DUP3 ADD MSTORE PUSH9 0x4E6F74207265616479 PUSH1 0xB8 SHL PUSH1 0x44 DUP3 ADD MSTORE PUSH1 0x64 ADD PUSH2 0xE3F JUMP JUMPDEST CALLER PUSH1 0x0 SWAP1 DUP2 MSTORE PUSH1 0x4 PUSH1 0x20 SWAP1 DUP2 MSTORE PUSH1 0x40 DUP1 DUP4 KECCAK256 PUSH1 0x11 DUP5 MSTORE SWAP1 SWAP2 MSTORE DUP2 KECCAK256 DUP1 SLOAD PUSH1 0x1 SWAP3 SWAP1 PUSH2 0xEF9 SWAP1 DUP5 SWAP1 PUSH2 0x4185 JUMP JUMPDEST SWAP1 SWAP2 SSTORE POP POP DUP1 SLOAD PUSH1 0x0 SWAP1 DUP2 MSTORE PUSH1 0x2 PUSH1 0x20 MSTORE PUSH1 0x40 DUP2 KECCAK256 PUSH1 0x3 DUP4 ADD SLOAD SWAP1 SWAP2 SWAP1 PUSH2 0x3E8 SWAP1 PUSH2 0xF2E SWAP1 PUSH3 0x10000 SWAP1 DIV PUSH2 0xFFFF AND DUP3 PUSH2 0x419E JUMP JUMPDEST PUSH2 0xFFFF AND DUP4 PUSH1 0x5 ADD SLOAD PUSH2 0xF41 SWAP2 SWAP1 PUSH2 0x41C0 JUMP JUMPDEST PUSH2 0xF4B SWAP2 SWAP1 PUSH2 0x41ED JUMP JUMPDEST SWAP1 POP PUSH1 0x0 PUSH1 0x64 PUSH2 0xF5C DUP4 PUSH1 0x14 PUSH2 0x41C0 JUMP JUMPDEST PUSH2 0xF66 SWAP2 SWAP1 PUSH2 0x41ED JUMP JUMPDEST SWAP1 POP PUSH1 0x0 PUSH2 0xF74 DUP3 DUP5 PUSH2 0x4201 JUMP JUMPDEST CALLER PUSH1 0x0 SWAP1 DUP2 MSTORE PUSH1 0xC PUSH1 0x20 MSTORE PUSH1 0x40 DUP2 KECCAK256 DUP1 SLOAD SWAP3 SWAP4 POP DUP4 SWAP3 SWAP1 SWAP2 SWAP1 PUSH2 0xF98 SWAP1 DUP5 SWAP1 PUSH2 0x4201 JUMP JUMPDEST SWAP1 SWAP2 SSTORE POP POP PUSH1 0x3 DUP6 ADD DUP1 SLOAD PUSH5 0xFF00000000 NOT AND SWAP1 SSTORE PUSH1 0x40 DUP1 MLOAD DUP8 DUP2 MSTORE PUSH1 0x20 DUP2 ADD DUP4 SWAP1 MSTORE CALLER SWAP2 PUSH32 0x81CA9B2C230070EAA84787556B1AAF18BF1E2F07EA5D3DAE4819DB77A1A5B224 SWAP2 ADD PUSH1 0x40 MLOAD DUP1 SWAP2 SUB SWAP1 LOG2 CALLER PUSH1 0x0 SWAP1 DUP2 MSTORE PUSH1 0xB PUSH1 0x20 MSTORE PUSH1 0x40 DUP2 KECCAK256 DUP1 SLOAD PUSH1 0x1 SWAP3 SWAP1 PUSH2 0x1008 SWAP1 DUP5 SWAP1 PUSH2 0x4201 JUMP JUMPDEST SWAP1 SWAP2 SSTORE POP POP PUSH1 0x1 DUP1 SSTORE POP PUSH2 0x101C SWAP4 POP POP POP POP JUMP JUMPDEST POP JUMP JUMPDEST PUSH2 0x1027 PUSH2 0x3841 JUMP JUMPDEST PUSH2 0x102F PUSH2 0x386C JUMP JUMPDEST PUSH1 0x0 DUP4 DUP2 MSTORE PUSH1 0x2 PUSH1 0x20 MSTORE PUSH1 0x40 SWAP1 KECCAK256 PUSH1 0x7 DUP2 ADD SLOAD PUSH1 0x1 PUSH1 0x20 SHL SWAP1 DIV PUSH1 0xFF AND PUSH2 0x1088 JUMPI PUSH1 0x40 MLOAD PUSH3 0x461BCD PUSH1 0xE5 SHL DUP2 MSTORE PUSH1 0x20 PUSH1 0x4 DUP3 ADD MSTORE PUSH1 0xD PUSH1 0x24 DUP3 ADD MSTORE PUSH13 0x4974656D20696E616374697665 PUSH1 0x98 SHL PUSH1 0x44 DUP3 ADD MSTORE PUSH1 0x64 ADD PUSH2 0xE3F JUMP JUMPDEST DUP3 DUP2 PUSH1 0x9 ADD SLOAD LT ISZERO PUSH2 0x10AC JUMPI PUSH1 0x40 MLOAD PUSH3 0x461BCD PUSH1 0xE5 SHL DUP2 MSTORE PUSH1 0x4 ADD PUSH2 0xE3F SWAP1 PUSH2 0x4214 JUMP JUMPDEST PUSH1 0x0 DUP4 GT PUSH2 0x10F1 JUMPI PUSH1 0x40 MLOAD PUSH3 0x461BCD PUSH1 0xE5 SHL DUP2 MSTORE PUSH1 0x20 PUSH1 0x4 DUP3 ADD MSTORE PUSH1 0x12 PUSH1 0x24 DUP3 ADD MSTORE PUSH18 0x416D6F756E74206D757374206265203E203 PUSH1 0x74 SHL PUSH1 0x44 DUP3 ADD MSTORE PUSH1 0x64 ADD PUSH2 0xE3F JUMP JUMPDEST PUSH1 0x0 PUSH1 0x1 PUSH1 0x1 PUSH1 0xA0 SHL SUB DUP4 AND ISZERO PUSH2 0x1109 JUMPI PUSH1 0x0 PUSH2 0x1119 JUMP JUMPDEST DUP4 DUP3 PUSH1 0x3 ADD SLOAD PUSH2 0x1119 SWAP2 SWAP1 PUSH2 0x41C0 JUMP JUMPDEST SWAP1 POP PUSH1 0x1 PUSH1 0x1 PUSH1 0xA0 SHL SUB DUP4 AND PUSH2 0x1171 JUMPI DUP1 CALLVALUE LT ISZERO PUSH2 0x116C JUMPI PUSH1 0x40 MLOAD PUSH3 0x461BCD PUSH1 0xE5 SHL DUP2 MSTORE PUSH1 0x20 PUSH1 0x4 DUP3 ADD MSTORE PUSH1 0x10 PUSH1 0x24 DUP3 ADD MSTORE PUSH16 0x92DCE6EACCCCD2C6D2CADCE8408AA89 PUSH1 0x83 SHL PUSH1 0x44 DUP3 ADD MSTORE PUSH1 0x64 ADD PUSH2 0xE3F JUMP JUMPDEST PUSH2 0x11EA JUMP JUMPDEST PUSH1 0x40 MLOAD PUSH4 0x23B872DD PUSH1 0xE0 SHL DUP2 MSTORE CALLER PUSH1 0x4 DUP3 ADD MSTORE ADDRESS PUSH1 0x24 DUP3 ADD MSTORE PUSH1 0x44 DUP2 ADD DUP3 SWAP1 MSTORE PUSH1 0x1 PUSH1 0x1 PUSH1 0xA0 SHL SUB DUP5 AND SWAP1 PUSH4 0x23B872DD SWAP1 PUSH1 0x64 ADD PUSH1 0x20 PUSH1 0x40 MLOAD DUP1 DUP4 SUB DUP2 PUSH1 0x0 DUP8 GAS CALL ISZERO DUP1 ISZERO PUSH2 0x11C4 JUMPI RETURNDATASIZE PUSH1 0x0 DUP1 RETURNDATACOPY RETURNDATASIZE PUSH1 0x0 REVERT JUMPDEST POP POP POP POP PUSH1 0x40 MLOAD RETURNDATASIZE PUSH1 0x1F NOT PUSH1 0x1F DUP3 ADD AND DUP3 ADD DUP1 PUSH1 0x40 MSTORE POP DUP2 ADD SWAP1 PUSH2 0x11E8 SWAP2 SWAP1 PUSH2 0x4241 JUMP JUMPDEST POP JUMPDEST DUP4 DUP3 PUSH1 0x9 ADD PUSH1 0x0 DUP3 DUP3 SLOAD PUSH2 0x11FE SWAP2 SWAP1 PUSH2 0x4185 JUMP JUMPDEST SWAP1 SWAP2 SSTORE POP POP CALLER PUSH1 0x0 SWAP1 DUP2 MSTORE PUSH1 0x4 PUSH1 0x20 SWAP1 DUP2 MSTORE PUSH1 0x40 DUP1 DUP4 KECCAK256 DUP9 DUP5 MSTORE SWAP1 SWAP2 MSTORE DUP2 KECCAK256 DUP1 SLOAD DUP7 SWAP3 SWAP1 PUSH2 0x122D SWAP1 DUP5 SWAP1 PUSH2 0x4201 JUMP JUMPDEST SWAP1 SWAP2 SSTORE POP POP PUSH1 0x2 DUP3 ADD SLOAD PUSH1 0xFF AND PUSH1 0x0 SUB PUSH2 0x1271 JUMPI CALLER PUSH1 0x0 SWAP1 DUP2 MSTORE PUSH1 0x19 PUSH1 0x20 SWAP1 DUP2 MSTORE PUSH1 0x40 DUP1 DUP4 KECCAK256 DUP9 DUP5 MSTORE SWAP1 SWAP2 MSTORE DUP2 KECCAK256 DUP1 SLOAD DUP7 SWAP3 SWAP1 PUSH2 0x126B SWAP1 DUP5 SWAP1 PUSH2 0x4201 JUMP JUMPDEST SWAP1 SWAP2 SSTORE POP POP JUMPDEST PUSH1 0x40 DUP1 MLOAD PUSH1 0x1 DUP1 DUP3 MSTORE DUP2 DUP4 ADD SWAP1 SWAP3 MSTORE PUSH1 0x0 SWAP2 PUSH1 0x20 DUP1 DUP4 ADD SWAP1 DUP1 CALLDATASIZE DUP4 CALLDATACOPY POP POP PUSH1 0x40 DUP1 MLOAD PUSH1 0x1 DUP1 DUP3 MSTORE DUP2 DUP4 ADD SWAP1 SWAP3 MSTORE SWAP3 SWAP4 POP PUSH1 0x0 SWAP3 SWAP2 POP PUSH1 0x20 DUP1 DUP4 ADD SWAP1 DUP1 CALLDATASIZE DUP4 CALLDATACOPY ADD SWAP1 POP POP SWAP1 POP DUP7 DUP3 PUSH1 0x0 DUP2 MLOAD DUP2 LT PUSH2 0x12CA JUMPI PUSH2 0x12CA PUSH2 0x425E JUMP JUMPDEST PUSH1 0x20 MUL PUSH1 0x20 ADD ADD DUP2 DUP2 MSTORE POP POP DUP6 DUP2 PUSH1 0x0 DUP2 MLOAD DUP2 LT PUSH2 0x12EA JUMPI PUSH2 0x12EA PUSH2 0x425E JUMP JUMPDEST PUSH1 0x20 MUL PUSH1 0x20 ADD ADD DUP2 DUP2 MSTORE POP POP CALLER PUSH1 0x1 PUSH1 0x1 PUSH1 0xA0 SHL SUB AND PUSH32 0xFAA30265942B056F8379458C99D8BCE44D758B6C4E762355961A2EC3DE64D41 PUSH1 0x0 DUP5 DUP5 DUP10 DUP9 PUSH1 0x40 MLOAD PUSH2 0x1338 SWAP6 SWAP5 SWAP4 SWAP3 SWAP2 SWAP1 PUSH2 0x4274 JUMP JUMPDEST PUSH1 0x40 MLOAD DUP1 SWAP2 SUB SWAP1 LOG2 POP POP POP POP PUSH2 0x134D PUSH1 0x1 DUP1 SSTORE JUMP JUMPDEST POP POP POP JUMP JUMPDEST PUSH2 0x135A PUSH2 0x3841 JUMP JUMPDEST PUSH2 0x1362 PUSH2 0x386C JUMP JUMPDEST CALLER PUSH1 0x0 SWAP1 DUP2 MSTORE PUSH1 0x4 PUSH1 0x20 SWAP1 DUP2 MSTORE PUSH1 0x40 DUP1 DUP4 KECCAK256 DUP6 DUP5 MSTORE SWAP1 SWAP2 MSTORE SWAP1 KECCAK256 SLOAD PUSH2 0x13B3 JUMPI PUSH1 0x40 MLOAD PUSH3 0x461BCD PUSH1 0xE5 SHL DUP2 MSTORE PUSH1 0x20 PUSH1 0x4 DUP3 ADD MSTORE PUSH1 0x7 PUSH1 0x24 DUP3 ADD MSTORE PUSH7 0x139BC81D1BDBDB PUSH1 0xCA SHL PUSH1 0x44 DUP3 ADD MSTORE PUSH1 0x64 ADD PUSH2 0xE3F JUMP JUMPDEST PUSH1 0x0 DUP3 DUP2 MSTORE PUSH1 0x2 PUSH1 0x20 MSTORE PUSH1 0x40 SWAP1 KECCAK256 PUSH1 0x7 DUP2 ADD SLOAD PUSH1 0x1 PUSH1 0x20 SHL SWAP1 DIV PUSH1 0xFF AND DUP1 ISZERO PUSH2 0x13E3 JUMPI POP PUSH1 0x2 DUP2 ADD SLOAD PUSH1 0xFF AND PUSH1 0x1 EQ JUMPDEST PUSH2 0x141E JUMPI PUSH1 0x40 MLOAD PUSH3 0x461BCD PUSH1 0xE5 SHL DUP2 MSTORE PUSH1 0x20 PUSH1 0x4 DUP3 ADD MSTORE PUSH1 0xC PUSH1 0x24 DUP3 ADD MSTORE PUSH12 0x125B9D985B1A59081D1BDBDB PUSH1 0xA2 SHL PUSH1 0x44 DUP3 ADD MSTORE PUSH1 0x64 ADD PUSH2 0xE3F JUMP JUMPDEST CALLER PUSH1 0x0 SWAP1 DUP2 MSTORE PUSH1 0x4 PUSH1 0x20 SWAP1 DUP2 MSTORE PUSH1 0x40 DUP1 DUP4 KECCAK256 DUP7 DUP5 MSTORE SWAP1 SWAP2 MSTORE DUP2 KECCAK256 DUP1 SLOAD PUSH1 0x1 SWAP3 SWAP1 PUSH2 0x1449 SWAP1 DUP5 SWAP1 PUSH2 0x4185 JUMP JUMPDEST SWAP1 SWAP2 SSTORE POP POP PUSH1 0x40 DUP1 MLOAD DUP5 DUP2 MSTORE PUSH1 0x20 DUP2 ADD DUP5 SWAP1 MSTORE CALLER SWAP2 PUSH1 0x0 DUP1 MLOAD PUSH1 0x20 PUSH2 0x44DC DUP4 CODECOPY DUP2 MLOAD SWAP2 MSTORE SWAP2 ADD PUSH1 0x40 MLOAD DUP1 SWAP2 SUB SWAP1 LOG2 POP PUSH2 0x1481 PUSH1 0x1 DUP1 SSTORE JUMP JUMPDEST POP POP JUMP JUMPDEST PUSH2 0x148D PUSH2 0x3841 JUMP JUMPDEST PUSH2 0x1495 PUSH2 0x386C JUMP JUMPDEST PUSH1 0x0 DUP3 DUP2 MSTORE PUSH1 0x2 PUSH1 0x20 MSTORE PUSH1 0x40 SWAP1 KECCAK256 PUSH1 0x7 DUP2 ADD SLOAD PUSH1 0x1 PUSH1 0x20 SHL SWAP1 DIV PUSH1 0xFF AND PUSH2 0x14EE JUMPI PUSH1 0x40 MLOAD PUSH3 0x461BCD PUSH1 0xE5 SHL DUP2 MSTORE PUSH1 0x20 PUSH1 0x4 DUP3 ADD MSTORE PUSH1 0xD PUSH1 0x24 DUP3 ADD MSTORE PUSH13 0x4974656D20696E616374697665 PUSH1 0x98 SHL PUSH1 0x44 DUP3 ADD MSTORE PUSH1 0x64 ADD PUSH2 0xE3F JUMP JUMPDEST DUP2 DUP2 PUSH1 0x9 ADD SLOAD LT ISZERO PUSH2 0x1512 JUMPI PUSH1 0x40 MLOAD PUSH3 0x461BCD PUSH1 0xE5 SHL DUP2 MSTORE PUSH1 0x4 ADD PUSH2 0xE3F SWAP1 PUSH2 0x4214 JUMP JUMPDEST PUSH1 0x3 DUP2 ADD SLOAD ISZERO PUSH2 0x155C JUMPI PUSH1 0x40 MLOAD PUSH3 0x461BCD PUSH1 0xE5 SHL DUP2 MSTORE PUSH1 0x20 PUSH1 0x4 DUP3 ADD MSTORE PUSH1 0x15 PUSH1 0x24 DUP3 ADD MSTORE PUSH21 0x4E6F7420616E2052542D707269636564206974656D PUSH1 0x58 SHL PUSH1 0x44 DUP3 ADD MSTORE PUSH1 0x64 ADD PUSH2 0xE3F JUMP JUMPDEST PUSH1 0x0 PUSH2 0x1571 DUP4 PUSH9 0x2B5E3AF16B1880000 PUSH2 0x41C0 JUMP JUMPDEST CALLER PUSH1 0x0 SWAP1 DUP2 MSTORE PUSH1 0xC PUSH1 0x20 MSTORE PUSH1 0x40 SWAP1 KECCAK256 SLOAD SWAP1 SWAP2 POP DUP2 GT ISZERO PUSH2 0x15C3 JUMPI PUSH1 0x40 MLOAD PUSH3 0x461BCD PUSH1 0xE5 SHL DUP2 MSTORE PUSH1 0x20 PUSH1 0x4 DUP3 ADD MSTORE PUSH1 0xD PUSH1 0x24 DUP3 ADD MSTORE PUSH13 0x139BDD08195B9BDD59DA081495 PUSH1 0x9A SHL PUSH1 0x44 DUP3 ADD MSTORE PUSH1 0x64 ADD PUSH2 0xE3F JUMP JUMPDEST CALLER PUSH1 0x0 SWAP1 DUP2 MSTORE PUSH1 0xC PUSH1 0x20 MSTORE PUSH1 0x40 DUP2 KECCAK256 DUP1 SLOAD DUP4 SWAP3 SWAP1 PUSH2 0x15E2 SWAP1 DUP5 SWAP1 PUSH2 0x4185 JUMP JUMPDEST SWAP3 POP POP DUP2 SWAP1 SSTORE POP DUP3 DUP3 PUSH1 0x9 ADD PUSH1 0x0 DUP3 DUP3 SLOAD PUSH2 0x15FD SWAP2 SWAP1 PUSH2 0x4185 JUMP JUMPDEST SWAP1 SWAP2 SSTORE POP POP CALLER PUSH1 0x0 SWAP1 DUP2 MSTORE PUSH1 0x4 PUSH1 0x20 SWAP1 DUP2 MSTORE PUSH1 0x40 DUP1 DUP4 KECCAK256 DUP8 DUP5 MSTORE SWAP1 SWAP2 MSTORE DUP2 KECCAK256 DUP1 SLOAD DUP6 SWAP3 SWAP1 PUSH2 0x162C SWAP1 DUP5 SWAP1 PUSH2 0x4201 JUMP JUMPDEST SWAP1 SWAP2 SSTORE POP POP PUSH1 0x40 DUP1 MLOAD DUP6 DUP2 MSTORE PUSH1 0x20 DUP2 ADD DUP6 SWAP1 MSTORE SWAP1 DUP2 ADD DUP3 SWAP1 MSTORE CALLER SWAP1 PUSH32 0xD60605D69A1FE7571D54B1FFC1CF6018CC3D4EF8398467410AE50018331D316 SWAP1 PUSH1 0x60 ADD JUMPDEST PUSH1 0x40 MLOAD DUP1 SWAP2 SUB SWAP1 LOG2 POP POP PUSH2 0x1481 PUSH1 0x1 DUP1 SSTORE JUMP JUMPDEST PUSH2 0x1688 PUSH2 0x3896 JUMP JUMPDEST PUSH2 0x1690 PUSH2 0x38C3 JUMP JUMPDEST JUMP JUMPDEST PUSH2 0x169A PUSH2 0x3896 JUMP JUMPDEST DUP1 MLOAD PUSH1 0x0 SWAP1 DUP2 MSTORE PUSH1 0x2 PUSH1 0x20 MSTORE PUSH1 0x40 DUP2 KECCAK256 SLOAD SWAP1 SUB PUSH2 0x16EF JUMPI PUSH1 0x40 MLOAD PUSH3 0x461BCD PUSH1 0xE5 SHL DUP2 MSTORE PUSH1 0x20 PUSH1 0x4 DUP3 ADD MSTORE PUSH1 0x13 PUSH1 0x24 DUP3 ADD MSTORE PUSH19 0x125D195B48191BD95CC81B9BDD08195E1A5CDD PUSH1 0x6A SHL PUSH1 0x44 DUP3 ADD MSTORE PUSH1 0x64 ADD PUSH2 0xE3F JUMP JUMPDEST DUP1 MLOAD PUSH1 0x0 SWAP1 DUP2 MSTORE PUSH1 0x2 PUSH1 0x20 SWAP1 DUP2 MSTORE PUSH1 0x40 SWAP1 SWAP2 KECCAK256 DUP3 MLOAD DUP2 SSTORE SWAP1 DUP3 ADD MLOAD DUP3 SWAP2 SWAP1 PUSH1 0x1 DUP3 ADD SWAP1 PUSH2 0x171C SWAP1 DUP3 PUSH2 0x4347 JUMP JUMPDEST POP PUSH1 0x40 DUP3 ADD MLOAD PUSH1 0x2 DUP3 ADD DUP1 SLOAD PUSH1 0xFF SWAP1 SWAP3 AND PUSH1 0xFF NOT SWAP1 SWAP3 AND SWAP2 SWAP1 SWAP2 OR SWAP1 SSTORE PUSH1 0x60 DUP3 ADD MLOAD PUSH1 0x3 DUP3 ADD SSTORE PUSH1 0x80 DUP3 ADD MLOAD PUSH1 0x4 DUP3 ADD DUP1 SLOAD PUSH1 0x1 PUSH1 0x1 PUSH1 0xA0 SHL SUB SWAP1 SWAP3 AND PUSH1 0x1 PUSH1 0x1 PUSH1 0xA0 SHL SUB NOT SWAP1 SWAP3 AND SWAP2 SWAP1 SWAP2 OR SWAP1 SSTORE PUSH1 0xA0 DUP3 ADD MLOAD PUSH1 0x5 DUP3 ADD SSTORE PUSH1 0xC0 DUP3 ADD MLOAD PUSH1 0x6 DUP3 ADD SSTORE PUSH1 0xE0 DUP3 ADD MLOAD PUSH1 0x7 DUP3 ADD DUP1 SLOAD PUSH2 0x100 DUP6 ADD MLOAD PUSH2 0x120 DUP7 ADD MLOAD ISZERO ISZERO PUSH1 0x1 PUSH1 0x20 SHL MUL PUSH5 0xFF00000000 NOT PUSH2 0xFFFF SWAP3 DUP4 AND PUSH3 0x10000 MUL PUSH4 0xFFFFFFFF NOT SWAP1 SWAP5 AND SWAP3 SWAP1 SWAP6 AND SWAP2 SWAP1 SWAP2 OR SWAP2 SWAP1 SWAP2 OR SWAP3 SWAP1 SWAP3 AND SWAP2 SWAP1 SWAP2 OR SWAP1 SSTORE PUSH2 0x140 DUP3 ADD MLOAD PUSH1 0x8 DUP3 ADD SSTORE PUSH2 0x160 SWAP1 SWAP2 ADD MLOAD PUSH1 0x9 SWAP1 SWAP2 ADD SSTORE POP JUMP JUMPDEST PUSH2 0x17F2 PUSH2 0x3896 JUMP JUMPDEST PUSH1 0x1 PUSH1 0x1 PUSH1 0xA0 SHL SUB DUP2 AND PUSH1 0x0 DUP2 DUP2 MSTORE PUSH1 0x10 PUSH1 0x20 SWAP1 DUP2 MSTORE PUSH1 0x40 SWAP2 DUP3 SWAP1 KECCAK256 DUP1 SLOAD PUSH1 0xFF NOT AND PUSH1 0x1 OR SWAP1 SSTORE SWAP1 MLOAD SWAP2 DUP3 MSTORE PUSH32 0xA317C10673BAF4F03B3C1041BD5DDBB537D0333A86FEC3607C75F9DBB630F48F SWAP2 ADD JUMPDEST PUSH1 0x40 MLOAD DUP1 SWAP2 SUB SWAP1 LOG1 POP JUMP JUMPDEST PUSH2 0x1855 PUSH2 0x3841 JUMP JUMPDEST PUSH2 0x185D PUSH2 0x386C JUMP JUMPDEST CALLER PUSH1 0x0 SWAP1 DUP2 MSTORE PUSH1 0x4 PUSH1 0x20 SWAP1 DUP2 MSTORE PUSH1 0x40 DUP1 DUP4 KECCAK256 DUP5 DUP5 MSTORE SWAP1 SWAP2 MSTORE SWAP1 KECCAK256 SLOAD PUSH2 0x18AF JUMPI PUSH1 0x40 MLOAD PUSH3 0x461BCD PUSH1 0xE5 SHL DUP2 MSTORE PUSH1 0x20 PUSH1 0x4 DUP3 ADD MSTORE PUSH1 0x8 PUSH1 0x24 DUP3 ADD MSTORE PUSH8 0x4E6F207365656473 PUSH1 0xC0 SHL PUSH1 0x44 DUP3 ADD MSTORE PUSH1 0x64 ADD PUSH2 0xE3F JUMP JUMPDEST PUSH1 0x0 DUP2 DUP2 MSTORE PUSH1 0x2 PUSH1 0x20 MSTORE PUSH1 0x40 SWAP1 KECCAK256 PUSH1 0x7 DUP2 ADD SLOAD PUSH1 0x1 PUSH1 0x20 SHL SWAP1 DIV PUSH1 0xFF AND DUP1 ISZERO PUSH2 0x18DD JUMPI POP PUSH1 0x2 DUP2 ADD SLOAD PUSH1 0xFF AND ISZERO JUMPDEST PUSH2 0x1918 JUMPI PUSH1 0x40 MLOAD PUSH3 0x461BCD PUSH1 0xE5 SHL DUP2 MSTORE PUSH1 0x20 PUSH1 0x4 DUP3 ADD MSTORE PUSH1 0xC PUSH1 0x24 DUP3 ADD MSTORE PUSH12 0x125B9D985B1A59081CD95959 PUSH1 0xA2 SHL PUSH1 0x44 DUP3 ADD MSTORE PUSH1 0x64 ADD PUSH2 0xE3F JUMP JUMPDEST PUSH1 0x7 DUP2 ADD SLOAD PUSH1 0x46 PUSH2 0xFFFF SWAP1 SWAP2 AND GT ISZERO PUSH2 0x196F JUMPI PUSH1 0x40 MLOAD PUSH3 0x461BCD PUSH1 0xE5 SHL DUP2 MSTORE PUSH1 0x20 PUSH1 0x4 DUP3 ADD MSTORE PUSH1 0x19 PUSH1 0x24 DUP3 ADD MSTORE PUSH25 0x47726F77746820626F6E7573206F7574206F662072616E6765 PUSH1 0x38 SHL PUSH1 0x44 DUP3 ADD MSTORE PUSH1 0x64 ADD PUSH2 0xE3F JUMP JUMPDEST PUSH1 0x7 DUP2 ADD SLOAD PUSH1 0x46 PUSH3 0x10000 SWAP1 SWAP2 DIV PUSH2 0xFFFF AND GT ISZERO PUSH2 0x19CA JUMPI PUSH1 0x40 MLOAD PUSH3 0x461BCD PUSH1 0xE5 SHL DUP2 MSTORE PUSH1 0x20 PUSH1 0x4 DUP3 ADD MSTORE PUSH1 0x18 PUSH1 0x24 DUP3 ADD MSTORE PUSH24 0x5969656C6420626F6E7573206F7574206F662072616E6765 PUSH1 0x40 SHL PUSH1 0x44 DUP3 ADD MSTORE PUSH1 0x64 ADD PUSH2 0xE3F JUMP JUMPDEST CALLER PUSH1 0x0 SWAP1 DUP2 MSTORE PUSH1 0x4 PUSH1 0x20 SWAP1 DUP2 MSTORE PUSH1 0x40 DUP1 DUP4 KECCAK256 DUP6 DUP5 MSTORE SWAP1 SWAP2 MSTORE DUP2 KECCAK256 DUP1 SLOAD PUSH1 0x1 SWAP3 SWAP1 PUSH2 0x19F5 SWAP1 DUP5 SWAP1 PUSH2 0x4185 JUMP JUMPDEST SWAP1 SWAP2 SSTORE POP POP CALLER PUSH1 0x0 SWAP1 DUP2 MSTORE PUSH1 0x1A PUSH1 0x20 SWAP1 DUP2 MSTORE PUSH1 0x40 DUP1 DUP4 KECCAK256 DUP6 DUP5 MSTORE SWAP1 SWAP2 MSTORE SWAP1 KECCAK256 SLOAD ISZERO PUSH2 0x1A50 JUMPI CALLER PUSH1 0x0 SWAP1 DUP2 MSTORE PUSH1 0x1A PUSH1 0x20 SWAP1 DUP2 MSTORE PUSH1 0x40 DUP1 DUP4 KECCAK256 DUP6 DUP5 MSTORE SWAP1 SWAP2 MSTORE DUP2 KECCAK256 DUP1 SLOAD PUSH1 0x1 SWAP3 SWAP1 PUSH2 0x1A45 SWAP1 DUP5 SWAP1 PUSH2 0x4185 JUMP JUMPDEST SWAP1 SWAP2 SSTORE POP PUSH2 0x1AD8 SWAP1 POP JUMP JUMPDEST CALLER PUSH1 0x0 SWAP1 DUP2 MSTORE PUSH1 0x19 PUSH1 0x20 SWAP1 DUP2 MSTORE PUSH1 0x40 DUP1 DUP4 KECCAK256 DUP6 DUP5 MSTORE SWAP1 SWAP2 MSTORE SWAP1 KECCAK256 SLOAD ISZERO PUSH2 0x1A9B JUMPI CALLER PUSH1 0x0 SWAP1 DUP2 MSTORE PUSH1 0x19 PUSH1 0x20 SWAP1 DUP2 MSTORE PUSH1 0x40 DUP1 DUP4 KECCAK256 DUP6 DUP5 MSTORE SWAP1 SWAP2 MSTORE DUP2 KECCAK256 DUP1 SLOAD PUSH1 0x1 SWAP3 SWAP1 PUSH2 0x1A45 SWAP1 DUP5 SWAP1 PUSH2 0x4185 JUMP JUMPDEST PUSH1 0x40 MLOAD PUSH3 0x461BCD PUSH1 0xE5 SHL DUP2 MSTORE PUSH1 0x20 PUSH1 0x4 DUP3 ADD MSTORE PUSH1 0x12 PUSH1 0x24 DUP3 ADD MSTORE PUSH18 0x4E6F20736565647320617661696C61626C65 PUSH1 0x70 SHL PUSH1 0x44 DUP3 ADD MSTORE PUSH1 0x64 ADD PUSH2 0xE3F JUMP JUMPDEST PUSH1 0x7 DUP2 ADD SLOAD PUSH1 0x0 SWAP1 PUSH2 0x3E8 SWAP1 PUSH2 0x1AF2 SWAP1 PUSH2 0xFFFF AND DUP3 PUSH2 0x4407 JUMP JUMPDEST PUSH2 0xFFFF AND DUP4 PUSH1 0x6 ADD SLOAD PUSH2 0x1B05 SWAP2 SWAP1 PUSH2 0x41C0 JUMP JUMPDEST PUSH2 0x1B0F SWAP2 SWAP1 PUSH2 0x41ED JUMP JUMPDEST SWAP1 POP PUSH1 0x40 MLOAD DUP1 PUSH1 0xC0 ADD PUSH1 0x40 MSTORE DUP1 DUP5 DUP2 MSTORE PUSH1 0x20 ADD TIMESTAMP DUP2 MSTORE PUSH1 0x20 ADD DUP3 TIMESTAMP PUSH2 0x1B34 SWAP2 SWAP1 PUSH2 0x4201 JUMP JUMPDEST DUP2 MSTORE PUSH1 0x7 DUP5 ADD SLOAD PUSH2 0xFFFF DUP1 DUP3 AND PUSH1 0x20 DUP1 DUP6 ADD SWAP2 SWAP1 SWAP2 MSTORE PUSH3 0x10000 SWAP3 DUP4 SWAP1 DIV DUP3 AND PUSH1 0x40 DUP1 DUP7 ADD SWAP2 SWAP1 SWAP2 MSTORE PUSH1 0x1 PUSH1 0x60 SWAP6 DUP7 ADD DUP2 SWAP1 MSTORE CALLER PUSH1 0x0 DUP2 DUP2 MSTORE PUSH1 0x5 DUP6 MSTORE DUP4 DUP2 KECCAK256 DUP14 DUP3 MSTORE DUP6 MSTORE DUP4 SWAP1 KECCAK256 DUP9 MLOAD DUP2 SSTORE DUP9 DUP6 ADD MLOAD SWAP3 DUP2 ADD SWAP3 SWAP1 SWAP3 SSTORE DUP8 DUP4 ADD MLOAD PUSH1 0x2 DUP4 ADD SSTORE SWAP6 DUP8 ADD MLOAD PUSH1 0x3 SWAP1 SWAP2 ADD DUP1 SLOAD PUSH1 0x80 DUP10 ADD MLOAD PUSH1 0xA0 SWAP1 SWAP10 ADD MLOAD SWAP3 DUP7 AND PUSH4 0xFFFFFFFF NOT SWAP1 SWAP2 AND OR SWAP8 SWAP1 SWAP5 AND SWAP1 SWAP5 MUL SWAP6 SWAP1 SWAP6 OR PUSH5 0xFF00000000 NOT AND PUSH1 0x1 PUSH1 0x20 SHL SWAP4 ISZERO ISZERO SWAP4 SWAP1 SWAP4 MUL SWAP3 SWAP1 SWAP3 OR SWAP1 SSTORE DUP3 MLOAD DUP8 DUP2 MSTORE SWAP1 DUP2 ADD DUP7 SWAP1 MSTORE SWAP1 SWAP2 PUSH32 0xBFF838F2FB339F78375289B45E530F7C7785D3D2A337193EBC7901FAEA10EF3A SWAP2 ADD PUSH2 0x166D JUMP JUMPDEST PUSH2 0x1C19 PUSH2 0x3896 JUMP JUMPDEST PUSH1 0x0 SWAP2 DUP3 MSTORE PUSH1 0xF PUSH1 0x20 MSTORE PUSH1 0x40 SWAP1 SWAP2 KECCAK256 SSTORE JUMP JUMPDEST PUSH2 0x1C33 PUSH2 0x3896 JUMP JUMPDEST DUP1 MLOAD PUSH1 0x0 SWAP1 DUP2 MSTORE PUSH1 0x3 PUSH1 0x20 MSTORE PUSH1 0x40 DUP2 KECCAK256 SLOAD SWAP1 SUB PUSH2 0x1C8A JUMPI PUSH1 0x40 MLOAD PUSH3 0x461BCD PUSH1 0xE5 SHL DUP2 MSTORE PUSH1 0x20 PUSH1 0x4 DUP3 ADD MSTORE PUSH1 0x15 PUSH1 0x24 DUP3 ADD MSTORE PUSH21 0x109D5B991B1948191BD95CC81B9BDD08195E1A5CDD PUSH1 0x5A SHL PUSH1 0x44 DUP3 ADD MSTORE PUSH1 0x64 ADD PUSH2 0xE3F JUMP JUMPDEST DUP1 MLOAD PUSH1 0x0 SWAP1 DUP2 MSTORE PUSH1 0x3 PUSH1 0x20 SWAP1 DUP2 MSTORE PUSH1 0x40 SWAP1 SWAP2 KECCAK256 DUP3 MLOAD DUP2 SSTORE SWAP1 DUP3 ADD MLOAD DUP3 SWAP2 SWAP1 PUSH1 0x1 DUP3 ADD SWAP1 PUSH2 0x1CB7 SWAP1 DUP3 PUSH2 0x4347 JUMP JUMPDEST POP PUSH1 0x40 DUP3 ADD MLOAD DUP1 MLOAD PUSH2 0x1CD3 SWAP2 PUSH1 0x2 DUP5 ADD SWAP2 PUSH1 0x20 SWAP1 SWAP2 ADD SWAP1 PUSH2 0x39D5 JUMP JUMPDEST POP PUSH1 0x60 DUP3 ADD MLOAD DUP1 MLOAD PUSH2 0x1CEF SWAP2 PUSH1 0x3 DUP5 ADD SWAP2 PUSH1 0x20 SWAP1 SWAP2 ADD SWAP1 PUSH2 0x39D5 JUMP JUMPDEST POP PUSH1 0x80 DUP3 ADD MLOAD PUSH1 0x4 DUP3 ADD SSTORE PUSH1 0xA0 DUP3 ADD MLOAD PUSH1 0x5 DUP3 ADD DUP1 SLOAD PUSH1 0xC0 DUP6 ADD MLOAD ISZERO ISZERO PUSH1 0x1 PUSH1 0xA0 SHL MUL PUSH1 0x1 PUSH1 0x1 PUSH1 0xA8 SHL SUB NOT SWAP1 SWAP2 AND PUSH1 0x1 PUSH1 0x1 PUSH1 0xA0 SHL SUB SWAP1 SWAP4 AND SWAP3 SWAP1 SWAP3 OR SWAP2 SWAP1 SWAP2 OR SWAP1 SSTORE PUSH1 0xE0 DUP3 ADD MLOAD PUSH1 0x6 DUP3 ADD SSTORE PUSH2 0x100 SWAP1 SWAP2 ADD MLOAD PUSH1 0x7 SWAP1 SWAP2 ADD SSTORE POP JUMP JUMPDEST PUSH2 0x16EF PUSH2 0x3896 JUMP JUMPDEST PUSH2 0x1D5D PUSH2 0x3896 JUMP JUMPDEST PUSH1 0x0 SWAP1 DUP2 MSTORE PUSH1 0x3 PUSH1 0x20 MSTORE PUSH1 0x40 SWAP1 KECCAK256 PUSH1 0x5 ADD DUP1 SLOAD PUSH1 0xFF PUSH1 0xA0 SHL NOT AND SWAP1 SSTORE JUMP JUMPDEST PUSH2 0x1D83 PUSH2 0x3896 JUMP JUMPDEST PUSH2 0x1690 PUSH1 0x0 PUSH2 0x3918 JUMP JUMPDEST PUSH1 0x60 PUSH1 0x0 DUP3 PUSH8 0xFFFFFFFFFFFFFFFF DUP2 GT ISZERO PUSH2 0x1DAA JUMPI PUSH2 0x1DAA PUSH2 0x3B0D JUMP JUMPDEST PUSH1 0x40 MLOAD SWAP1 DUP1 DUP3 MSTORE DUP1 PUSH1 0x20 MUL PUSH1 0x20 ADD DUP3 ADD PUSH1 0x40 MSTORE DUP1 ISZERO PUSH2 0x1E0A JUMPI DUP2 PUSH1 0x20 ADD JUMPDEST PUSH1 0x40 DUP1 MLOAD PUSH1 0xC0 DUP2 ADD DUP3 MSTORE PUSH1 0x0 DUP1 DUP3 MSTORE PUSH1 0x20 DUP1 DUP4 ADD DUP3 SWAP1 MSTORE SWAP3 DUP3 ADD DUP2 SWAP1 MSTORE PUSH1 0x60 DUP3 ADD DUP2 SWAP1 MSTORE PUSH1 0x80 DUP3 ADD DUP2 SWAP1 MSTORE PUSH1 0xA0 DUP3 ADD MSTORE DUP3 MSTORE PUSH1 0x0 NOT SWAP1 SWAP3 ADD SWAP2 ADD DUP2 PUSH2 0x1DC8 JUMPI SWAP1 POP JUMPDEST POP SWAP1 POP PUSH1 0x0 JUMPDEST DUP4 DUP2 LT ISZERO PUSH2 0x1ED6 JUMPI PUSH1 0x1 PUSH1 0x1 PUSH1 0xA0 SHL SUB DUP7 AND PUSH1 0x0 SWAP1 DUP2 MSTORE PUSH1 0x5 PUSH1 0x20 MSTORE PUSH1 0x40 DUP2 KECCAK256 SWAP1 DUP7 DUP7 DUP5 DUP2 DUP2 LT PUSH2 0x1E43 JUMPI PUSH2 0x1E43 PUSH2 0x425E JUMP JUMPDEST PUSH1 0x20 SWAP1 DUP2 MUL SWAP3 SWAP1 SWAP3 ADD CALLDATALOAD DUP4 MSTORE POP DUP2 DUP2 ADD SWAP3 SWAP1 SWAP3 MSTORE PUSH1 0x40 SWAP1 DUP2 ADD PUSH1 0x0 KECCAK256 DUP2 MLOAD PUSH1 0xC0 DUP2 ADD DUP4 MSTORE DUP2 SLOAD DUP2 MSTORE PUSH1 0x1 DUP3 ADD SLOAD SWAP4 DUP2 ADD SWAP4 SWAP1 SWAP4 MSTORE PUSH1 0x2 DUP2 ADD SLOAD SWAP2 DUP4 ADD SWAP2 SWAP1 SWAP2 MSTORE PUSH1 0x3 ADD SLOAD PUSH2 0xFFFF DUP1 DUP3 AND PUSH1 0x60 DUP5 ADD MSTORE PUSH3 0x10000 DUP3 DIV AND PUSH1 0x80 DUP4 ADD MSTORE PUSH1 0x1 PUSH1 0x20 SHL SWAP1 DIV PUSH1 0xFF AND ISZERO ISZERO PUSH1 0xA0 DUP3 ADD MSTORE DUP3 MLOAD DUP4 SWAP1 DUP4 SWAP1 DUP2 LT PUSH2 0x1EC3 JUMPI PUSH2 0x1EC3 PUSH2 0x425E JUMP JUMPDEST PUSH1 0x20 SWAP1 DUP2 MUL SWAP2 SWAP1 SWAP2 ADD ADD MSTORE PUSH1 0x1 ADD PUSH2 0x1E10 JUMP JUMPDEST POP SWAP5 SWAP4 POP POP POP POP JUMP JUMPDEST PUSH2 0x1EE7 PUSH2 0x3841 JUMP JUMPDEST PUSH2 0x1EEF PUSH2 0x386C JUMP JUMPDEST CALLER PUSH1 0x0 SWAP1 DUP2 MSTORE PUSH1 0xE PUSH1 0x20 SWAP1 DUP2 MSTORE PUSH1 0x40 DUP1 DUP4 KECCAK256 DUP5 DUP5 MSTORE SWAP1 SWAP2 MSTORE SWAP1 KECCAK256 SLOAD PUSH1 0xFF AND ISZERO PUSH2 0x1F52 JUMPI PUSH1 0x40 MLOAD PUSH3 0x461BCD PUSH1 0xE5 SHL DUP2 MSTORE PUSH1 0x20 PUSH1 0x4 DUP3 ADD MSTORE PUSH1 0x15 PUSH1 0x24 DUP3 ADD MSTORE PUSH21 0x145D595CDD08185B1C9958591E4818DB185A5B5959 PUSH1 0x5A SHL PUSH1 0x44 DUP3 ADD MSTORE PUSH1 0x64 ADD PUSH2 0xE3F JUMP JUMPDEST PUSH1 0x0 DUP2 DUP2 MSTORE PUSH1 0xF PUSH1 0x20 MSTORE PUSH1 0x40 SWAP1 KECCAK256 SLOAD DUP1 PUSH2 0x1FAE JUMPI PUSH1 0x40 MLOAD PUSH3 0x461BCD PUSH1 0xE5 SHL DUP2 MSTORE PUSH1 0x20 PUSH1 0x4 DUP3 ADD MSTORE PUSH1 0x1A PUSH1 0x24 DUP3 ADD MSTORE PUSH32 0x496E76616C6964207175657374206F72206E6F20726577617264000000000000 PUSH1 0x44 DUP3 ADD MSTORE PUSH1 0x64 ADD PUSH2 0xE3F JUMP JUMPDEST CALLER PUSH1 0x0 SWAP1 DUP2 MSTORE PUSH1 0xC PUSH1 0x20 MSTORE PUSH1 0x40 DUP2 KECCAK256 DUP1 SLOAD DUP4 SWAP3 SWAP1 PUSH2 0x1FCD SWAP1 DUP5 SWAP1 PUSH2 0x4201 JUMP JUMPDEST SWAP1 SWAP2 SSTORE POP POP CALLER PUSH1 0x0 DUP2 DUP2 MSTORE PUSH1 0xE PUSH1 0x20 SWAP1 DUP2 MSTORE PUSH1 0x40 DUP1 DUP4 KECCAK256 DUP7 DUP5 MSTORE DUP3 MSTORE SWAP2 DUP3 SWAP1 KECCAK256 DUP1 SLOAD PUSH1 0xFF NOT AND PUSH1 0x1 OR SWAP1 SSTORE DUP2 MLOAD DUP6 DUP2 MSTORE SWAP1 DUP2 ADD DUP5 SWAP1 MSTORE PUSH32 0x89DDF70F60DEE0505EB22A143DAF80046698F56A9E1C9421CBD95C486199306F SWAP2 ADD JUMPDEST PUSH1 0x40 MLOAD DUP1 SWAP2 SUB SWAP1 LOG2 POP PUSH2 0x101C PUSH1 0x1 DUP1 SSTORE JUMP JUMPDEST PUSH2 0x2041 PUSH2 0x3841 JUMP JUMPDEST PUSH2 0x2049 PUSH2 0x386C JUMP JUMPDEST CALLER PUSH1 0x0 SWAP1 DUP2 MSTORE PUSH1 0x4 PUSH1 0x20 SWAP1 DUP2 MSTORE PUSH1 0x40 DUP1 DUP4 KECCAK256 DUP5 DUP5 MSTORE SWAP1 SWAP2 MSTORE SWAP1 KECCAK256 SLOAD PUSH2 0x209D JUMPI PUSH1 0x40 MLOAD PUSH3 0x461BCD PUSH1 0xE5 SHL DUP2 MSTORE PUSH1 0x20 PUSH1 0x4 DUP3 ADD MSTORE PUSH1 0xA PUSH1 0x24 DUP3 ADD MSTORE PUSH10 0x4E6F2075706772616465 PUSH1 0xB0 SHL PUSH1 0x44 DUP3 ADD MSTORE PUSH1 0x64 ADD PUSH2 0xE3F JUMP JUMPDEST PUSH1 0x0 DUP2 DUP2 MSTORE PUSH1 0x2 PUSH1 0x20 MSTORE PUSH1 0x40 SWAP1 KECCAK256 PUSH1 0x7 DUP2 ADD SLOAD PUSH1 0x1 PUSH1 0x20 SHL SWAP1 DIV PUSH1 0xFF AND DUP1 ISZERO PUSH2 0x20CC JUMPI POP PUSH1 0x2 DUP1 DUP3 ADD SLOAD PUSH1 0xFF AND EQ JUMPDEST PUSH2 0x210A JUMPI PUSH1 0x40 MLOAD PUSH3 0x461BCD PUSH1 0xE5 SHL DUP2 MSTORE PUSH1 0x20 PUSH1 0x4 DUP3 ADD MSTORE PUSH1 0xF PUSH1 0x24 DUP3 ADD MSTORE PUSH15 0x496E76616C69642075706772616465 PUSH1 0x88 SHL PUSH1 0x44 DUP3 ADD MSTORE PUSH1 0x64 ADD PUSH2 0xE3F JUMP JUMPDEST CALLER PUSH1 0x0 SWAP1 DUP2 MSTORE PUSH1 0x4 PUSH1 0x20 SWAP1 DUP2 MSTORE PUSH1 0x40 DUP1 DUP4 KECCAK256 DUP6 DUP5 MSTORE SWAP1 SWAP2 MSTORE DUP2 KECCAK256 DUP1 SLOAD PUSH1 0x1 SWAP3 SWAP1 PUSH2 0x2135 SWAP1 DUP5 SWAP1 PUSH2 0x4185 JUMP JUMPDEST SWAP1 SWAP2 SSTORE POP POP CALLER PUSH1 0x0 SWAP1 DUP2 MSTORE PUSH1 0xA PUSH1 0x20 MSTORE PUSH1 0x40 DUP2 KECCAK256 DUP1 SLOAD PUSH1 0x1 SWAP3 SWAP1 PUSH2 0x215A SWAP1 DUP5 SWAP1 PUSH2 0x4201 JUMP JUMPDEST SWAP1 SWAP2 SSTORE POP POP PUSH1 0x40 MLOAD DUP3 DUP2 MSTORE CALLER SWAP1 PUSH32 0x64DF0F68D7580B0900ECE6245824A2CC4C50B47A830E4B867313ABC3F3B516C8 SWAP1 PUSH1 0x20 ADD PUSH2 0x2027 JUMP JUMPDEST PUSH2 0x2199 PUSH2 0x3841 JUMP JUMPDEST PUSH2 0x21A1 PUSH2 0x386C JUMP JUMPDEST CALLER PUSH1 0x0 SWAP1 DUP2 MSTORE PUSH1 0x6 PUSH1 0x20 MSTORE PUSH1 0x40 DUP2 KECCAK256 SLOAD PUSH2 0x21BD SWAP1 PUSH1 0x7 SWAP1 PUSH2 0x4422 JUMP JUMPDEST CALLER PUSH1 0x0 SWAP1 DUP2 MSTORE PUSH1 0x7 PUSH1 0x20 MSTORE PUSH1 0x40 SWAP1 KECCAK256 SLOAD SWAP1 SWAP2 POP PUSH2 0x21DD SWAP1 PUSH3 0x15180 PUSH2 0x4201 JUMP JUMPDEST TIMESTAMP GT PUSH2 0x2223 JUMPI PUSH1 0x40 MLOAD PUSH3 0x461BCD PUSH1 0xE5 SHL DUP2 MSTORE PUSH1 0x20 PUSH1 0x4 DUP3 ADD MSTORE PUSH1 0x15 PUSH1 0x24 DUP3 ADD MSTORE PUSH21 0x416C726561647920636C61696D656420746F646179 PUSH1 0x58 SHL PUSH1 0x44 DUP3 ADD MSTORE PUSH1 0x64 ADD PUSH2 0xE3F JUMP JUMPDEST PUSH1 0x0 PUSH1 0x11 DUP3 PUSH1 0x7 DUP2 LT PUSH2 0x2238 JUMPI PUSH2 0x2238 PUSH2 0x425E JUMP JUMPDEST ADD SLOAD CALLER PUSH1 0x0 SWAP1 DUP2 MSTORE PUSH1 0xC PUSH1 0x20 MSTORE PUSH1 0x40 DUP2 KECCAK256 DUP1 SLOAD SWAP3 SWAP4 POP DUP4 SWAP3 SWAP1 SWAP2 SWAP1 PUSH2 0x225E SWAP1 DUP5 SWAP1 PUSH2 0x4201 JUMP JUMPDEST SWAP1 SWAP2 SSTORE POP POP CALLER PUSH1 0x0 SWAP1 DUP2 MSTORE PUSH1 0x6 PUSH1 0x20 MSTORE PUSH1 0x40 DUP2 KECCAK256 DUP1 SLOAD PUSH1 0x1 SWAP3 SWAP1 PUSH2 0x2283 SWAP1 DUP5 SWAP1 PUSH2 0x4201 JUMP JUMPDEST SWAP1 SWAP2 SSTORE POP POP CALLER PUSH1 0x0 DUP2 DUP2 MSTORE PUSH1 0x7 PUSH1 0x20 MSTORE PUSH1 0x40 SWAP1 KECCAK256 TIMESTAMP SWAP1 SSTORE PUSH32 0x564485E821CF8BA18A499F35679B99B9FBA6F9886A625DD2A70B79DA8CB5BA06 PUSH2 0x22C6 DUP5 PUSH1 0x1 PUSH2 0x4201 JUMP JUMPDEST PUSH1 0x40 DUP1 MLOAD SWAP2 DUP3 MSTORE PUSH1 0x20 DUP3 ADD DUP6 SWAP1 MSTORE ADD PUSH1 0x40 MLOAD DUP1 SWAP2 SUB SWAP1 LOG2 POP POP PUSH2 0x1690 PUSH1 0x1 DUP1 SSTORE JUMP JUMPDEST PUSH2 0x22F0 PUSH2 0x3896 JUMP JUMPDEST PUSH2 0x1690 PUSH2 0x3968 JUMP JUMPDEST PUSH1 0x60 PUSH1 0x0 DUP3 PUSH8 0xFFFFFFFFFFFFFFFF DUP2 GT ISZERO PUSH2 0x2315 JUMPI PUSH2 0x2315 PUSH2 0x3B0D JUMP JUMPDEST PUSH1 0x40 MLOAD SWAP1 DUP1 DUP3 MSTORE DUP1 PUSH1 0x20 MUL PUSH1 0x20 ADD DUP3 ADD PUSH1 0x40 MSTORE DUP1 ISZERO PUSH2 0x233E JUMPI DUP2 PUSH1 0x20 ADD PUSH1 0x20 DUP3 MUL DUP1 CALLDATASIZE DUP4 CALLDATACOPY ADD SWAP1 POP JUMPDEST POP SWAP1 POP PUSH1 0x0 JUMPDEST DUP4 DUP2 LT ISZERO PUSH2 0x1ED6 JUMPI PUSH1 0x1 PUSH1 0x1 PUSH1 0xA0 SHL SUB DUP7 AND PUSH1 0x0 SWAP1 DUP2 MSTORE PUSH1 0x4 PUSH1 0x20 MSTORE PUSH1 0x40 DUP2 KECCAK256 SWAP1 DUP7 DUP7 DUP5 DUP2 DUP2 LT PUSH2 0x2377 JUMPI PUSH2 0x2377 PUSH2 0x425E JUMP JUMPDEST SWAP1 POP PUSH1 0x20 MUL ADD CALLDATALOAD DUP2 MSTORE PUSH1 0x20 ADD SWAP1 DUP2 MSTORE PUSH1 0x20 ADD PUSH1 0x0 KECCAK256 SLOAD DUP3 DUP3 DUP2 MLOAD DUP2 LT PUSH2 0x239F JUMPI PUSH2 0x239F PUSH2 0x425E JUMP JUMPDEST PUSH1 0x20 SWAP1 DUP2 MUL SWAP2 SWAP1 SWAP2 ADD ADD MSTORE PUSH1 0x1 ADD PUSH2 0x2344 JUMP JUMPDEST PUSH2 0x23BA PUSH2 0x3841 JUMP JUMPDEST PUSH2 0x23C2 PUSH2 0x386C JUMP JUMPDEST CALLER PUSH1 0x0 SWAP1 DUP2 MSTORE PUSH1 0x4 PUSH1 0x20 SWAP1 DUP2 MSTORE PUSH1 0x40 DUP1 DUP4 KECCAK256 PUSH1 0xC DUP5 MSTORE SWAP1 SWAP2 MSTORE SWAP1 KECCAK256 SLOAD PUSH2 0x241A JUMPI PUSH1 0x40 MLOAD PUSH3 0x461BCD PUSH1 0xE5 SHL DUP2 MSTORE PUSH1 0x20 PUSH1 0x4 DUP3 ADD MSTORE PUSH1 0xD PUSH1 0x24 DUP3 ADD MSTORE PUSH13 0x2737902332B93A34B634BD32B9 PUSH1 0x99 SHL PUSH1 0x44 DUP3 ADD MSTORE PUSH1 0x64 ADD PUSH2 0xE3F JUMP JUMPDEST CALLER PUSH1 0x0 SWAP1 DUP2 MSTORE PUSH1 0x5 PUSH1 0x20 SWAP1 DUP2 MSTORE PUSH1 0x40 DUP1 DUP4 KECCAK256 DUP5 DUP5 MSTORE SWAP1 SWAP2 MSTORE SWAP1 KECCAK256 PUSH1 0x3 DUP2 ADD SLOAD PUSH1 0x1 PUSH1 0x20 SHL SWAP1 DIV PUSH1 0xFF AND PUSH2 0x245F JUMPI PUSH1 0x40 MLOAD PUSH3 0x461BCD PUSH1 0xE5 SHL DUP2 MSTORE PUSH1 0x4 ADD PUSH2 0xE3F SWAP1 PUSH2 0x4146 JUMP JUMPDEST CALLER PUSH1 0x0 SWAP1 DUP2 MSTORE PUSH1 0x4 PUSH1 0x20 SWAP1 DUP2 MSTORE PUSH1 0x40 DUP1 DUP4 KECCAK256 PUSH1 0xC DUP5 MSTORE SWAP1 SWAP2 MSTORE DUP2 KECCAK256 DUP1 SLOAD PUSH1 0x1 SWAP3 SWAP1 PUSH2 0x248B SWAP1 DUP5 SWAP1 PUSH2 0x4185 JUMP JUMPDEST SWAP1 SWAP2 SSTORE POP POP PUSH1 0x1 DUP2 ADD SLOAD PUSH1 0x0 SWAP1 PUSH2 0x24A2 SWAP1 TIMESTAMP PUSH2 0x4185 JUMP JUMPDEST PUSH1 0x3 DUP4 ADD DUP1 SLOAD SWAP2 SWAP3 POP PUSH1 0x19 SWAP2 PUSH1 0x0 SWAP1 PUSH2 0x24C0 SWAP1 DUP5 SWAP1 PUSH2 0xFFFF AND PUSH2 0x419E JUMP JUMPDEST SWAP3 POP PUSH2 0x100 EXP DUP2 SLOAD DUP2 PUSH2 0xFFFF MUL NOT AND SWAP1 DUP4 PUSH2 0xFFFF AND MUL OR SWAP1 SSTORE POP PUSH1 0xF DUP3 PUSH1 0x3 ADD PUSH1 0x2 DUP3 DUP3 DUP3 SWAP1 SLOAD SWAP1 PUSH2 0x100 EXP SWAP1 DIV PUSH2 0xFFFF AND PUSH2 0x24FC SWAP2 SWAP1 PUSH2 0x419E JUMP JUMPDEST DUP3 SLOAD PUSH2 0x100 SWAP3 SWAP1 SWAP3 EXP PUSH2 0xFFFF DUP2 DUP2 MUL NOT SWAP1 SWAP4 AND SWAP2 DUP4 AND MUL OR SWAP1 SWAP2 SSTORE DUP4 SLOAD PUSH1 0x0 SWAP1 DUP2 MSTORE PUSH1 0x2 PUSH1 0x20 MSTORE PUSH1 0x40 DUP2 KECCAK256 PUSH1 0x3 DUP7 ADD SLOAD SWAP1 SWAP4 POP SWAP1 SWAP2 PUSH2 0x3E8 SWAP2 PUSH2 0x2540 SWAP2 AND DUP3 PUSH2 0x4407 JUMP JUMPDEST PUSH2 0xFFFF AND DUP4 PUSH1 0x6 ADD SLOAD PUSH2 0x2553 SWAP2 SWAP1 PUSH2 0x41C0 JUMP JUMPDEST PUSH2 0x255D SWAP2 SWAP1 PUSH2 0x41ED JUMP JUMPDEST SWAP1 POP DUP1 DUP4 LT ISZERO PUSH2 0x2585 JUMPI PUSH2 0x2571 DUP4 DUP3 PUSH2 0x4185 JUMP JUMPDEST PUSH2 0x257B SWAP1 TIMESTAMP PUSH2 0x4201 JUMP JUMPDEST PUSH1 0x2 DUP6 ADD SSTORE PUSH2 0x258C JUMP JUMPDEST TIMESTAMP PUSH1 0x2 DUP6 ADD SSTORE JUMPDEST PUSH1 0x40 DUP1 MLOAD PUSH1 0xC DUP2 MSTORE PUSH1 0x20 DUP2 ADD DUP8 SWAP1 MSTORE CALLER SWAP2 PUSH1 0x0 DUP1 MLOAD PUSH1 0x20 PUSH2 0x44DC DUP4 CODECOPY DUP2 MLOAD SWAP2 MSTORE SWAP2 ADD PUSH1 0x40 MLOAD DUP1 SWAP2 SUB SWAP1 LOG2 POP POP POP POP PUSH2 0x101C PUSH1 0x1 DUP1 SSTORE JUMP JUMPDEST PUSH2 0x25CB PUSH2 0x3841 JUMP JUMPDEST PUSH2 0x25D3 PUSH2 0x386C JUMP JUMPDEST CALLER PUSH1 0x0 SWAP1 DUP2 MSTORE PUSH1 0x4 PUSH1 0x20 SWAP1 DUP2 MSTORE PUSH1 0x40 DUP1 DUP4 KECCAK256 PUSH1 0x6 DUP5 MSTORE SWAP1 SWAP2 MSTORE SWAP1 KECCAK256 SLOAD PUSH2 0x263B JUMPI PUSH1 0x40 MLOAD PUSH3 0x461BCD PUSH1 0xE5 SHL DUP2 MSTORE PUSH1 0x20 PUSH1 0x4 DUP3 ADD MSTORE PUSH1 0x17 PUSH1 0x24 DUP3 ADD MSTORE PUSH32 0x4E6F204175746F2D5761746572696E672053797374656D000000000000000000 PUSH1 0x44 DUP3 ADD MSTORE PUSH1 0x64 ADD PUSH2 0xE3F JUMP JUMPDEST PUSH1 0x0 DUP1 JUMPDEST PUSH1 0x10 DUP2 LT ISZERO PUSH2 0x26AE JUMPI CALLER PUSH1 0x0 SWAP1 DUP2 MSTORE PUSH1 0x5 PUSH1 0x20 SWAP1 DUP2 MSTORE PUSH1 0x40 DUP1 DUP4 KECCAK256 DUP5 DUP5 MSTORE SWAP1 SWAP2 MSTORE SWAP1 KECCAK256 PUSH1 0x3 DUP2 ADD SLOAD PUSH1 0x1 PUSH1 0x20 SHL SWAP1 DIV PUSH1 0xFF AND ISZERO PUSH2 0x26A5 JUMPI PUSH1 0x40 DUP1 MLOAD PUSH1 0x6 DUP2 MSTORE PUSH1 0x20 DUP2 ADD DUP5 SWAP1 MSTORE PUSH1 0x1 SWAP5 POP CALLER SWAP2 PUSH1 0x0 DUP1 MLOAD PUSH1 0x20 PUSH2 0x44DC DUP4 CODECOPY DUP2 MLOAD SWAP2 MSTORE SWAP2 ADD PUSH1 0x40 MLOAD DUP1 SWAP2 SUB SWAP1 LOG2 JUMPDEST POP PUSH1 0x1 ADD PUSH2 0x263F JUMP JUMPDEST POP DUP1 ISZERO PUSH2 0x26E7 JUMPI CALLER PUSH1 0x0 SWAP1 DUP2 MSTORE PUSH1 0x4 PUSH1 0x20 SWAP1 DUP2 MSTORE PUSH1 0x40 DUP1 DUP4 KECCAK256 PUSH1 0x6 DUP5 MSTORE SWAP1 SWAP2 MSTORE DUP2 KECCAK256 DUP1 SLOAD PUSH1 0x1 SWAP3 SWAP1 PUSH2 0x26E1 SWAP1 DUP5 SWAP1 PUSH2 0x4185 JUMP JUMPDEST SWAP1 SWAP2 SSTORE POP POP JUMPDEST POP PUSH2 0x1690 PUSH1 0x1 DUP1 SSTORE JUMP JUMPDEST PUSH2 0x26F9 PUSH2 0x3896 JUMP JUMPDEST PUSH1 0x40 MLOAD PUSH4 0x70A08231 PUSH1 0xE0 SHL DUP2 MSTORE ADDRESS PUSH1 0x4 DUP3 ADD MSTORE PUSH1 0x0 SWAP1 PUSH1 0x1 PUSH1 0x1 PUSH1 0xA0 SHL SUB DUP4 AND SWAP1 PUSH4 0x70A08231 SWAP1 PUSH1 0x24 ADD PUSH1 0x20 PUSH1 0x40 MLOAD DUP1 DUP4 SUB DUP2 DUP7 GAS STATICCALL ISZERO DUP1 ISZERO PUSH2 0x2740 JUMPI RETURNDATASIZE PUSH1 0x0 DUP1 RETURNDATACOPY RETURNDATASIZE PUSH1 0x0 REVERT JUMPDEST POP POP POP POP PUSH1 0x40 MLOAD RETURNDATASIZE PUSH1 0x1F NOT PUSH1 0x1F DUP3 ADD AND DUP3 ADD DUP1 PUSH1 0x40 MSTORE POP DUP2 ADD SWAP1 PUSH2 0x2764 SWAP2 SWAP1 PUSH2 0x4436 JUMP JUMPDEST SWAP1 POP PUSH1 0x0 DUP2 GT PUSH2 0x27A3 JUMPI PUSH1 0x40 MLOAD PUSH3 0x461BCD PUSH1 0xE5 SHL DUP2 MSTORE PUSH1 0x20 PUSH1 0x4 DUP3 ADD MSTORE PUSH1 0xA PUSH1 0x24 DUP3 ADD MSTORE PUSH10 0x4E6F2062616C616E6365 PUSH1 0xB0 SHL PUSH1 0x44 DUP3 ADD MSTORE PUSH1 0x64 ADD PUSH2 0xE3F JUMP JUMPDEST PUSH1 0x40 MLOAD PUSH4 0xA9059CBB PUSH1 0xE0 SHL DUP2 MSTORE CALLER PUSH1 0x4 DUP3 ADD MSTORE PUSH1 0x24 DUP2 ADD DUP3 SWAP1 MSTORE PUSH1 0x1 PUSH1 0x1 PUSH1 0xA0 SHL SUB DUP4 AND SWAP1 PUSH4 0xA9059CBB SWAP1 PUSH1 0x44 ADD PUSH1 0x20 PUSH1 0x40 MLOAD DUP1 DUP4 SUB DUP2 PUSH1 0x0 DUP8 GAS CALL ISZERO DUP1 ISZERO PUSH2 0x27F0 JUMPI RETURNDATASIZE PUSH1 0x0 DUP1 RETURNDATACOPY RETURNDATASIZE PUSH1 0x0 REVERT JUMPDEST POP POP POP POP PUSH1 0x40 MLOAD RETURNDATASIZE PUSH1 0x1F NOT PUSH1 0x1F DUP3 ADD AND DUP3 ADD DUP1 PUSH1 0x40 MSTORE POP DUP2 ADD SWAP1 PUSH2 0x134D SWAP2 SWAP1 PUSH2 0x4241 JUMP JUMPDEST PUSH1 0x0 JUMPDEST PUSH1 0x10 DUP2 LT ISZERO PUSH2 0x1481 JUMPI PUSH1 0x1 PUSH1 0x1 PUSH1 0xA0 SHL SUB DUP3 AND PUSH1 0x0 SWAP1 DUP2 MSTORE PUSH1 0x5 PUSH1 0x20 SWAP1 DUP2 MSTORE PUSH1 0x40 DUP1 DUP4 KECCAK256 DUP5 DUP5 MSTORE SWAP1 SWAP2 MSTORE SWAP1 KECCAK256 PUSH1 0x3 DUP2 ADD SLOAD PUSH1 0x1 PUSH1 0x20 SHL SWAP1 DIV PUSH1 0xFF AND DUP1 ISZERO PUSH2 0x2862 JUMPI POP DUP1 PUSH1 0x2 ADD SLOAD TIMESTAMP LT ISZERO JUMPDEST ISZERO PUSH2 0x28AB JUMPI DUP3 PUSH1 0x1 PUSH1 0x1 PUSH1 0xA0 SHL SUB AND PUSH32 0x11C42D52B352031AB932886E32B045F3FC5055ACE50A7365CD2B005979BA9505 DUP4 PUSH1 0x40 MLOAD PUSH2 0x28A2 SWAP2 DUP2 MSTORE PUSH1 0x20 ADD SWAP1 JUMP JUMPDEST PUSH1 0x40 MLOAD DUP1 SWAP2 SUB SWAP1 LOG2 JUMPDEST POP PUSH1 0x1 ADD PUSH2 0x2817 JUMP JUMPDEST PUSH2 0x28BC PUSH2 0x3896 JUMP JUMPDEST PUSH1 0x18 DUP1 SLOAD PUSH1 0x1 PUSH1 0x1 PUSH1 0xA0 SHL SUB NOT AND PUSH1 0x1 PUSH1 0x1 PUSH1 0xA0 SHL SUB SWAP3 SWAP1 SWAP3 AND SWAP2 SWAP1 SWAP2 OR SWAP1 SSTORE JUMP JUMPDEST PUSH2 0x28E6 PUSH2 0x3896 JUMP JUMPDEST PUSH1 0x1 PUSH1 0x1 PUSH1 0xA0 SHL SUB DUP2 AND PUSH1 0x0 DUP2 DUP2 MSTORE PUSH1 0x10 PUSH1 0x20 SWAP1 DUP2 MSTORE PUSH1 0x40 SWAP2 DUP3 SWAP1 KECCAK256 DUP1 SLOAD PUSH1 0xFF NOT AND SWAP1 SSTORE SWAP1 MLOAD SWAP2 DUP3 MSTORE PUSH32 0x85A3E72F8DD6DB3794F93109C3C5F5B79D6112F6979431C45F98B26134B42AF2 SWAP2 ADD PUSH2 0x1842 JUMP JUMPDEST PUSH1 0x11 DUP2 PUSH1 0x7 DUP2 LT PUSH2 0x2947 JUMPI PUSH1 0x0 DUP1 REVERT JUMPDEST ADD SLOAD SWAP1 POP DUP2 JUMP JUMPDEST PUSH1 0x2 PUSH1 0x20 MSTORE PUSH1 0x0 SWAP1 DUP2 MSTORE PUSH1 0x40 SWAP1 KECCAK256 DUP1 SLOAD PUSH1 0x1 DUP3 ADD DUP1 SLOAD SWAP2 SWAP3 SWAP2 PUSH2 0x2970 SWAP1 PUSH2 0x42BD JUMP JUMPDEST DUP1 PUSH1 0x1F ADD PUSH1 0x20 DUP1 SWAP2 DIV MUL PUSH1 0x20 ADD PUSH1 0x40 MLOAD SWAP1 DUP2 ADD PUSH1 0x40 MSTORE DUP1 SWAP3 SWAP2 SWAP1 DUP2 DUP2 MSTORE PUSH1 0x20 ADD DUP3 DUP1 SLOAD PUSH2 0x299C SWAP1 PUSH2 0x42BD JUMP JUMPDEST DUP1 ISZERO PUSH2 0x29E9 JUMPI DUP1 PUSH1 0x1F LT PUSH2 0x29BE JUMPI PUSH2 0x100 DUP1 DUP4 SLOAD DIV MUL DUP4 MSTORE SWAP2 PUSH1 0x20 ADD SWAP2 PUSH2 0x29E9 JUMP JUMPDEST DUP3 ADD SWAP2 SWAP1 PUSH1 0x0 MSTORE PUSH1 0x20 PUSH1 0x0 KECCAK256 SWAP1 JUMPDEST DUP2 SLOAD DUP2 MSTORE SWAP1 PUSH1 0x1 ADD SWAP1 PUSH1 0x20 ADD DUP1 DUP4 GT PUSH2 0x29CC JUMPI DUP3 SWAP1 SUB PUSH1 0x1F AND DUP3 ADD SWAP2 JUMPDEST POP POP POP POP PUSH1 0x2 DUP4 ADD SLOAD PUSH1 0x3 DUP5 ADD SLOAD PUSH1 0x4 DUP6 ADD SLOAD PUSH1 0x5 DUP7 ADD SLOAD PUSH1 0x6 DUP8 ADD SLOAD PUSH1 0x7 DUP9 ADD SLOAD PUSH1 0x8 DUP10 ADD SLOAD PUSH1 0x9 SWAP1 SWAP10 ADD SLOAD SWAP8 SWAP9 PUSH1 0xFF SWAP7 DUP8 AND SWAP9 SWAP6 SWAP8 POP PUSH1 0x1 PUSH1 0x1 PUSH1 0xA0 SHL SUB SWAP1 SWAP5 AND SWAP6 SWAP3 SWAP5 SWAP2 SWAP4 PUSH2 0xFFFF DUP1 DUP4 AND SWAP5 PUSH3 0x10000 DUP5 DIV SWAP1 SWAP2 AND SWAP4 PUSH1 0x1 PUSH1 0x20 SHL SWAP1 SWAP4 DIV AND SWAP2 DUP13 JUMP JUMPDEST PUSH2 0x2A57 PUSH2 0x3896 JUMP JUMPDEST PUSH1 0x0 DUP3 DUP2 MSTORE PUSH1 0x2 PUSH1 0x20 MSTORE PUSH1 0x40 DUP2 KECCAK256 SLOAD SWAP1 SUB PUSH2 0x2AAA JUMPI PUSH1 0x40 MLOAD PUSH3 0x461BCD PUSH1 0xE5 SHL DUP2 MSTORE PUSH1 0x20 PUSH1 0x4 DUP3 ADD MSTORE PUSH1 0x13 PUSH1 0x24 DUP3 ADD MSTORE PUSH19 0x125D195B48191BD95CC81B9BDD08195E1A5CDD PUSH1 0x6A SHL PUSH1 0x44 DUP3 ADD MSTORE PUSH1 0x64 ADD PUSH2 0xE3F JUMP JUMPDEST PUSH1 0x0 SWAP2 DUP3 MSTORE PUSH1 0x2 PUSH1 0x20 MSTORE PUSH1 0x40 SWAP1 SWAP2 KECCAK256 PUSH1 0x8 DUP2 ADD DUP3 SWAP1 SSTORE PUSH1 0x9 ADD SSTORE JUMP JUMPDEST PUSH2 0x2ACE PUSH2 0x386C JUMP JUMPDEST CALLER PUSH1 0x0 SWAP1 DUP2 MSTORE PUSH1 0xC PUSH1 0x20 MSTORE PUSH1 0x40 SWAP1 KECCAK256 SLOAD PUSH9 0x1158E460913D00000 DUP2 LT ISZERO PUSH2 0x2B37 JUMPI PUSH1 0x40 MLOAD PUSH3 0x461BCD PUSH1 0xE5 SHL DUP2 MSTORE PUSH1 0x20 PUSH1 0x4 DUP3 ADD MSTORE PUSH1 0x1B PUSH1 0x24 DUP3 ADD MSTORE PUSH32 0x4D75737420636C61696D206174206C6561737420323020524953450000000000 PUSH1 0x44 DUP3 ADD MSTORE PUSH1 0x64 ADD PUSH2 0xE3F JUMP JUMPDEST CALLER PUSH1 0x0 DUP2 DUP2 MSTORE PUSH1 0xC PUSH1 0x20 MSTORE PUSH1 0x40 DUP1 DUP3 KECCAK256 SWAP2 SWAP1 SWAP2 SSTORE PUSH1 0x18 SLOAD SWAP1 MLOAD PUSH4 0xA9059CBB PUSH1 0xE0 SHL DUP2 MSTORE PUSH1 0x4 DUP2 ADD SWAP3 SWAP1 SWAP3 MSTORE PUSH1 0x24 DUP3 ADD DUP4 SWAP1 MSTORE PUSH1 0x1 PUSH1 0x1 PUSH1 0xA0 SHL SUB AND SWAP1 PUSH4 0xA9059CBB SWAP1 PUSH1 0x44 ADD PUSH1 0x20 PUSH1 0x40 MLOAD DUP1 DUP4 SUB DUP2 PUSH1 0x0 DUP8 GAS CALL ISZERO DUP1 ISZERO PUSH2 0x2B9B JUMPI RETURNDATASIZE PUSH1 0x0 DUP1 RETURNDATACOPY RETURNDATASIZE PUSH1 0x0 REVERT JUMPDEST POP POP POP POP PUSH1 0x40 MLOAD RETURNDATASIZE PUSH1 0x1F NOT PUSH1 0x1F DUP3 ADD AND DUP3 ADD DUP1 PUSH1 0x40 MSTORE POP DUP2 ADD SWAP1 PUSH2 0x2BBF SWAP2 SWAP1 PUSH2 0x4241 JUMP JUMPDEST PUSH2 0x2BFD JUMPI PUSH1 0x40 MLOAD PUSH3 0x461BCD PUSH1 0xE5 SHL DUP2 MSTORE PUSH1 0x20 PUSH1 0x4 DUP3 ADD MSTORE PUSH1 0xF PUSH1 0x24 DUP3 ADD MSTORE PUSH15 0x151C985B9CD9995C8819985A5B1959 PUSH1 0x8A SHL PUSH1 0x44 DUP3 ADD MSTORE PUSH1 0x64 ADD PUSH2 0xE3F JUMP JUMPDEST PUSH1 0x40 MLOAD DUP2 DUP2 MSTORE CALLER SWAP1 PUSH32 0x2988752F8FCB52B8C982219DEEFD82A981754ED258F421467A7133874BA9F290 SWAP1 PUSH1 0x20 ADD PUSH1 0x40 MLOAD DUP1 SWAP2 SUB SWAP1 LOG2 POP PUSH2 0x1690 PUSH1 0x1 DUP1 SSTORE JUMP JUMPDEST PUSH2 0x2C44 PUSH2 0x3841 JUMP JUMPDEST PUSH2 0x2C4C PUSH2 0x386C JUMP JUMPDEST CALLER PUSH1 0x0 SWAP1 DUP2 MSTORE PUSH1 0x4 PUSH1 0x20 SWAP1 DUP2 MSTORE PUSH1 0x40 DUP1 DUP4 KECCAK256 PUSH1 0x12 DUP5 MSTORE SWAP1 SWAP2 MSTORE SWAP1 KECCAK256 SLOAD PUSH2 0x2CB4 JUMPI PUSH1 0x40 MLOAD PUSH3 0x461BCD PUSH1 0xE5 SHL DUP2 MSTORE PUSH1 0x20 PUSH1 0x4 DUP3 ADD MSTORE PUSH1 0x1E PUSH1 0x24 DUP3 ADD MSTORE PUSH32 0x4E65656420476F6C64656E20486172766573746572202842756E646C65290000 PUSH1 0x44 DUP3 ADD MSTORE PUSH1 0x64 ADD PUSH2 0xE3F JUMP JUMPDEST PUSH1 0x0 DUP1 PUSH1 0x0 JUMPDEST PUSH1 0x10 DUP2 LT ISZERO PUSH2 0x2E11 JUMPI CALLER PUSH1 0x0 SWAP1 DUP2 MSTORE PUSH1 0x5 PUSH1 0x20 SWAP1 DUP2 MSTORE PUSH1 0x40 DUP1 DUP4 KECCAK256 DUP5 DUP5 MSTORE SWAP1 SWAP2 MSTORE SWAP1 KECCAK256 PUSH1 0x3 DUP2 ADD SLOAD PUSH1 0x1 PUSH1 0x20 SHL SWAP1 DIV PUSH1 0xFF AND DUP1 ISZERO PUSH2 0x2CFC JUMPI POP DUP1 PUSH1 0x2 ADD SLOAD TIMESTAMP LT ISZERO JUMPDEST ISZERO PUSH2 0x2E08 JUMPI DUP1 SLOAD PUSH1 0x0 SWAP1 DUP2 MSTORE PUSH1 0x2 PUSH1 0x20 MSTORE PUSH1 0x40 DUP2 KECCAK256 PUSH1 0x3 DUP4 ADD SLOAD SWAP1 SWAP2 SWAP1 PUSH2 0x3E8 SWAP1 PUSH2 0x2D31 SWAP1 PUSH3 0x10000 SWAP1 DIV PUSH2 0xFFFF AND DUP3 PUSH2 0x419E JUMP JUMPDEST PUSH2 0xFFFF AND DUP4 PUSH1 0x5 ADD SLOAD PUSH2 0x2D44 SWAP2 SWAP1 PUSH2 0x41C0 JUMP JUMPDEST PUSH2 0x2D4E SWAP2 SWAP1 PUSH2 0x41ED JUMP JUMPDEST SWAP1 POP PUSH1 0x0 PUSH1 0x64 PUSH2 0x2D5F DUP4 PUSH1 0x14 PUSH2 0x41C0 JUMP JUMPDEST PUSH2 0x2D69 SWAP2 SWAP1 PUSH2 0x41ED JUMP JUMPDEST SWAP1 POP PUSH1 0x0 PUSH2 0x2D77 DUP3 DUP5 PUSH2 0x4201 JUMP JUMPDEST SWAP1 POP PUSH2 0x2D83 DUP2 DUP10 PUSH2 0x4201 JUMP JUMPDEST PUSH1 0x3 DUP7 ADD DUP1 SLOAD PUSH5 0xFF00000000 NOT AND SWAP1 SSTORE SWAP8 POP DUP7 PUSH2 0x2D9F DUP2 PUSH2 0x444F JUMP JUMPDEST CALLER PUSH1 0x0 SWAP1 DUP2 MSTORE PUSH1 0xB PUSH1 0x20 MSTORE PUSH1 0x40 DUP2 KECCAK256 DUP1 SLOAD SWAP3 SWAP11 POP PUSH1 0x1 SWAP4 POP SWAP2 PUSH2 0x2DC3 SWAP1 DUP5 SWAP1 PUSH2 0x4201 JUMP JUMPDEST SWAP1 SWAP2 SSTORE POP POP PUSH1 0x40 DUP1 MLOAD DUP8 DUP2 MSTORE PUSH1 0x20 DUP2 ADD DUP4 SWAP1 MSTORE CALLER SWAP2 PUSH32 0x81CA9B2C230070EAA84787556B1AAF18BF1E2F07EA5D3DAE4819DB77A1A5B224 SWAP2 ADD PUSH1 0x40 MLOAD DUP1 SWAP2 SUB SWAP1 LOG2 POP POP POP POP JUMPDEST POP PUSH1 0x1 ADD PUSH2 0x2CBA JUMP JUMPDEST POP PUSH1 0x0 DUP2 GT PUSH2 0x2E53 JUMPI PUSH1 0x40 MLOAD PUSH3 0x461BCD PUSH1 0xE5 SHL DUP2 MSTORE PUSH1 0x20 PUSH1 0x4 DUP3 ADD MSTORE PUSH1 0xE PUSH1 0x24 DUP3 ADD MSTORE PUSH14 0x4E6F20706C6F7473207265616479 PUSH1 0x90 SHL PUSH1 0x44 DUP3 ADD MSTORE PUSH1 0x64 ADD PUSH2 0xE3F JUMP JUMPDEST CALLER PUSH1 0x0 SWAP1 DUP2 MSTORE PUSH1 0x4 PUSH1 0x20 SWAP1 DUP2 MSTORE PUSH1 0x40 DUP1 DUP4 KECCAK256 PUSH1 0x12 DUP5 MSTORE SWAP1 SWAP2 MSTORE DUP2 KECCAK256 DUP1 SLOAD PUSH1 0x1 SWAP3 SWAP1 PUSH2 0x2E7F SWAP1 DUP5 SWAP1 PUSH2 0x4185 JUMP JUMPDEST SWAP1 SWAP2 SSTORE POP POP CALLER PUSH1 0x0 SWAP1 DUP2 MSTORE PUSH1 0xC PUSH1 0x20 MSTORE PUSH1 0x40 DUP2 KECCAK256 DUP1 SLOAD DUP5 SWAP3 SWAP1 PUSH2 0x2EA3 SWAP1 DUP5 SWAP1 PUSH2 0x4201 JUMP JUMPDEST SWAP1 SWAP2 SSTORE POP POP PUSH1 0x1 DUP1 SSTORE POP PUSH2 0x1690 SWAP1 POP JUMP JUMPDEST PUSH1 0x3 PUSH1 0x20 MSTORE PUSH1 0x0 SWAP1 DUP2 MSTORE PUSH1 0x40 SWAP1 KECCAK256 DUP1 SLOAD PUSH1 0x1 DUP3 ADD DUP1 SLOAD SWAP2 SWAP3 SWAP2 PUSH2 0x2ED6 SWAP1 PUSH2 0x42BD JUMP JUMPDEST DUP1 PUSH1 0x1F ADD PUSH1 0x20 DUP1 SWAP2 DIV MUL PUSH1 0x20 ADD PUSH1 0x40 MLOAD SWAP1 DUP2 ADD PUSH1 0x40 MSTORE DUP1 SWAP3 SWAP2 SWAP1 DUP2 DUP2 MSTORE PUSH1 0x20 ADD DUP3 DUP1 SLOAD PUSH2 0x2F02 SWAP1 PUSH2 0x42BD JUMP JUMPDEST DUP1 ISZERO PUSH2 0x2F4F JUMPI DUP1 PUSH1 0x1F LT PUSH2 0x2F24 JUMPI PUSH2 0x100 DUP1 DUP4 SLOAD DIV MUL DUP4 MSTORE SWAP2 PUSH1 0x20 ADD SWAP2 PUSH2 0x2F4F JUMP JUMPDEST DUP3 ADD SWAP2 SWAP1 PUSH1 0x0 MSTORE PUSH1 0x20 PUSH1 0x0 KECCAK256 SWAP1 JUMPDEST DUP2 SLOAD DUP2 MSTORE SWAP1 PUSH1 0x1 ADD SWAP1 PUSH1 0x20 ADD DUP1 DUP4 GT PUSH2 0x2F32 JUMPI DUP3 SWAP1 SUB PUSH1 0x1F AND DUP3 ADD SWAP2 JUMPDEST POP POP POP POP PUSH1 0x4 DUP4 ADD SLOAD PUSH1 0x5 DUP5 ADD SLOAD PUSH1 0x6 DUP6 ADD SLOAD PUSH1 0x7 SWAP1 SWAP6 ADD SLOAD SWAP4 SWAP5 SWAP2 SWAP4 PUSH1 0x1 PUSH1 0x1 PUSH1 0xA0 SHL SUB DUP3 AND SWAP4 POP PUSH1 0x1 PUSH1 0xA0 SHL SWAP1 SWAP2 DIV PUSH1 0xFF AND SWAP2 SWAP1 DUP8 JUMP JUMPDEST PUSH2 0x2F90 PUSH2 0x3841 JUMP JUMPDEST PUSH2 0x2F98 PUSH2 0x386C JUMP JUMPDEST CALLER PUSH1 0x0 SWAP1 DUP2 MSTORE PUSH1 0x5 PUSH1 0x20 SWAP1 DUP2 MSTORE PUSH1 0x40 DUP1 DUP4 KECCAK256 DUP5 DUP5 MSTORE SWAP1 SWAP2 MSTORE SWAP1 KECCAK256 PUSH1 0x3 DUP2 ADD SLOAD PUSH1 0x1 PUSH1 0x20 SHL SWAP1 DIV PUSH1 0xFF AND PUSH2 0x2FDD JUMPI PUSH1 0x40 MLOAD PUSH3 0x461BCD PUSH1 0xE5 SHL DUP2 MSTORE PUSH1 0x4 ADD PUSH2 0xE3F SWAP1 PUSH2 0x4146 JUMP JUMPDEST DUP1 PUSH1 0x2 ADD SLOAD TIMESTAMP LT ISZERO PUSH2 0x301D JUMPI PUSH1 0x40 MLOAD PUSH3 0x461BCD PUSH1 0xE5 SHL DUP2 MSTORE PUSH1 0x20 PUSH1 0x4 DUP3 ADD MSTORE PUSH1 0x9 PUSH1 0x24 DUP3 ADD MSTORE PUSH9 0x4E6F74207265616479 PUSH1 0xB8 SHL PUSH1 0x44 DUP3 ADD MSTORE PUSH1 0x64 ADD PUSH2 0xE3F JUMP JUMPDEST DUP1 SLOAD PUSH1 0x0 SWAP1 DUP2 MSTORE PUSH1 0x2 PUSH1 0x20 DUP2 SWAP1 MSTORE PUSH1 0x40 SWAP1 SWAP2 KECCAK256 SWAP1 DUP2 ADD SLOAD PUSH1 0xFF AND ISZERO PUSH2 0x3071 JUMPI PUSH1 0x40 MLOAD PUSH3 0x461BCD PUSH1 0xE5 SHL DUP2 MSTORE PUSH1 0x20 PUSH1 0x4 DUP3 ADD MSTORE PUSH1 0xA PUSH1 0x24 DUP3 ADD MSTORE PUSH10 0x139BDD0818481CD95959 PUSH1 0xB2 SHL PUSH1 0x44 DUP3 ADD MSTORE PUSH1 0x64 ADD PUSH2 0xE3F JUMP JUMPDEST PUSH1 0x3 DUP3 ADD SLOAD PUSH1 0x46 PUSH2 0xFFFF SWAP1 SWAP2 AND GT ISZERO PUSH2 0x30C8 JUMPI PUSH1 0x40 MLOAD PUSH3 0x461BCD PUSH1 0xE5 SHL DUP2 MSTORE PUSH1 0x20 PUSH1 0x4 DUP3 ADD MSTORE PUSH1 0x19 PUSH1 0x24 DUP3 ADD MSTORE PUSH25 0x47726F77746820626F6E7573206F7574206F662072616E6765 PUSH1 0x38 SHL PUSH1 0x44 DUP3 ADD MSTORE PUSH1 0x64 ADD PUSH2 0xE3F JUMP JUMPDEST PUSH1 0x3 DUP3 ADD SLOAD PUSH1 0x46 PUSH3 0x10000 SWAP1 SWAP2 DIV PUSH2 0xFFFF AND GT ISZERO PUSH2 0x3123 JUMPI PUSH1 0x40 MLOAD PUSH3 0x461BCD PUSH1 0xE5 SHL DUP2 MSTORE PUSH1 0x20 PUSH1 0x4 DUP3 ADD MSTORE PUSH1 0x18 PUSH1 0x24 DUP3 ADD MSTORE PUSH24 0x5969656C6420626F6E7573206F7574206F662072616E6765 PUSH1 0x40 SHL PUSH1 0x44 DUP3 ADD MSTORE PUSH1 0x64 ADD PUSH2 0xE3F JUMP JUMPDEST PUSH1 0x3 DUP3 ADD SLOAD PUSH1 0x0 SWAP1 PUSH2 0x3E8 SWAP1 PUSH2 0x3143 SWAP1 PUSH3 0x10000 SWAP1 DIV PUSH2 0xFFFF AND DUP3 PUSH2 0x419E JUMP JUMPDEST PUSH2 0xFFFF AND DUP4 PUSH1 0x5 ADD SLOAD PUSH2 0x3156 SWAP2 SWAP1 PUSH2 0x41C0 JUMP JUMPDEST PUSH2 0x3160 SWAP2 SWAP1 PUSH2 0x41ED JUMP JUMPDEST CALLER PUSH1 0x0 SWAP1 DUP2 MSTORE PUSH1 0xC PUSH1 0x20 MSTORE PUSH1 0x40 DUP2 KECCAK256 DUP1 SLOAD SWAP3 SWAP4 POP DUP4 SWAP3 SWAP1 SWAP2 SWAP1 PUSH2 0x3184 SWAP1 DUP5 SWAP1 PUSH2 0x4201 JUMP JUMPDEST SWAP1 SWAP2 SSTORE POP POP PUSH1 0x3 DUP4 ADD DUP1 SLOAD PUSH5 0xFF00000000 NOT AND SWAP1 SSTORE PUSH1 0x40 DUP1 MLOAD DUP6 DUP2 MSTORE PUSH1 0x20 DUP2 ADD DUP4 SWAP1 MSTORE CALLER SWAP2 PUSH32 0x81CA9B2C230070EAA84787556B1AAF18BF1E2F07EA5D3DAE4819DB77A1A5B224 SWAP2 ADD PUSH1 0x40 MLOAD DUP1 SWAP2 SUB SWAP1 LOG2 CALLER PUSH1 0x0 SWAP1 DUP2 MSTORE PUSH1 0xB PUSH1 0x20 MSTORE PUSH1 0x40 DUP2 KECCAK256 DUP1 SLOAD PUSH1 0x1 SWAP3 SWAP1 PUSH2 0x31F4 SWAP1 DUP5 SWAP1 PUSH2 0x4201 JUMP JUMPDEST SWAP1 SWAP2 SSTORE POP POP PUSH1 0x1 DUP1 SSTORE POP PUSH2 0x101C SWAP2 POP POP JUMP JUMPDEST PUSH2 0x320E PUSH2 0x3896 JUMP JUMPDEST PUSH1 0x40 MLOAD PUSH1 0x0 SWAP1 CALLER SWAP1 SELFBALANCE SWAP1 DUP4 DUP2 DUP2 DUP2 DUP6 DUP8 GAS CALL SWAP3 POP POP POP RETURNDATASIZE DUP1 PUSH1 0x0 DUP2 EQ PUSH2 0x3250 JUMPI PUSH1 0x40 MLOAD SWAP2 POP PUSH1 0x1F NOT PUSH1 0x3F RETURNDATASIZE ADD AND DUP3 ADD PUSH1 0x40 MSTORE RETURNDATASIZE DUP3 MSTORE RETURNDATASIZE PUSH1 0x0 PUSH1 0x20 DUP5 ADD RETURNDATACOPY PUSH2 0x3255 JUMP JUMPDEST PUSH1 0x60 SWAP2 POP JUMPDEST POP POP SWAP1 POP DUP1 PUSH2 0x101C JUMPI PUSH1 0x40 MLOAD PUSH3 0x461BCD PUSH1 0xE5 SHL DUP2 MSTORE PUSH1 0x20 PUSH1 0x4 DUP3 ADD MSTORE PUSH1 0xF PUSH1 0x24 DUP3 ADD MSTORE PUSH15 0x15DA5D1A191C985DC819985A5B1959 PUSH1 0x8A SHL PUSH1 0x44 DUP3 ADD MSTORE PUSH1 0x64 ADD PUSH2 0xE3F JUMP JUMPDEST PUSH1 0x0 JUMPDEST PUSH1 0x10 DUP2 LT ISZERO PUSH2 0x1481 JUMPI PUSH1 0x1 PUSH1 0x1 PUSH1 0xA0 SHL SUB DUP3 AND PUSH1 0x0 SWAP1 DUP2 MSTORE PUSH1 0x5 PUSH1 0x20 SWAP1 DUP2 MSTORE PUSH1 0x40 DUP1 DUP4 KECCAK256 DUP5 DUP5 MSTORE SWAP1 SWAP2 MSTORE SWAP1 KECCAK256 PUSH1 0x3 DUP2 ADD SLOAD PUSH1 0x1 PUSH1 0x20 SHL SWAP1 DIV PUSH1 0xFF AND DUP1 ISZERO PUSH2 0x32E5 JUMPI POP DUP1 PUSH1 0x2 ADD SLOAD TIMESTAMP LT JUMPDEST ISZERO PUSH2 0x332E JUMPI DUP3 PUSH1 0x1 PUSH1 0x1 PUSH1 0xA0 SHL SUB AND PUSH32 0x3AD3DD486D6804864BD604A17FF5D932E3BF0493D580C0D7E093073BD3440D28 DUP4 PUSH1 0x40 MLOAD PUSH2 0x3325 SWAP2 DUP2 MSTORE PUSH1 0x20 ADD SWAP1 JUMP JUMPDEST PUSH1 0x40 MLOAD DUP1 SWAP2 SUB SWAP1 LOG2 JUMPDEST POP PUSH1 0x1 ADD PUSH2 0x329B JUMP JUMPDEST PUSH2 0x333F PUSH2 0x3841 JUMP JUMPDEST PUSH2 0x3347 PUSH2 0x386C JUMP JUMPDEST CALLER PUSH1 0x0 SWAP1 DUP2 MSTORE PUSH1 0x4 PUSH1 0x20 SWAP1 DUP2 MSTORE PUSH1 0x40 DUP1 DUP4 KECCAK256 PUSH1 0x5 DUP5 MSTORE SWAP1 SWAP2 MSTORE SWAP1 KECCAK256 SLOAD PUSH2 0x33A1 JUMPI PUSH1 0x40 MLOAD PUSH3 0x461BCD PUSH1 0xE5 SHL DUP2 MSTORE PUSH1 0x20 PUSH1 0x4 DUP3 ADD MSTORE PUSH1 0xF PUSH1 0x24 DUP3 ADD MSTORE PUSH15 0x2737903BB0BA32B934B7339031B0B7 PUSH1 0x89 SHL PUSH1 0x44 DUP3 ADD MSTORE PUSH1 0x64 ADD PUSH2 0xE3F JUMP JUMPDEST CALLER PUSH1 0x0 SWAP1 DUP2 MSTORE PUSH1 0x4 PUSH1 0x20 SWAP1 DUP2 MSTORE PUSH1 0x40 DUP1 DUP4 KECCAK256 PUSH1 0x5 DUP5 MSTORE SWAP1 SWAP2 MSTORE DUP2 KECCAK256 DUP1 SLOAD PUSH1 0x1 SWAP3 SWAP1 PUSH2 0x33CD SWAP1 DUP5 SWAP1 PUSH2 0x4185 JUMP JUMPDEST SWAP1 SWAP2 SSTORE POP POP PUSH1 0x40 DUP1 MLOAD PUSH1 0x5 DUP2 MSTORE PUSH1 0x20 DUP2 ADD DUP4 SWAP1 MSTORE CALLER SWAP2 PUSH1 0x0 DUP1 MLOAD PUSH1 0x20 PUSH2 0x44DC DUP4 CODECOPY DUP2 MLOAD SWAP2 MSTORE SWAP2 ADD PUSH1 0x40 MLOAD DUP1 SWAP2 SUB SWAP1 LOG2 PUSH2 0x101C PUSH1 0x1 DUP1 SSTORE JUMP JUMPDEST PUSH2 0x1C8A PUSH2 0x3896 JUMP JUMPDEST PUSH2 0x3415 PUSH2 0x3841 JUMP JUMPDEST PUSH2 0x341D PUSH2 0x386C JUMP JUMPDEST PUSH1 0x0 DUP4 DUP2 MSTORE PUSH1 0x3 PUSH1 0x20 MSTORE PUSH1 0x40 SWAP1 KECCAK256 PUSH1 0x5 DUP2 ADD SLOAD PUSH1 0x1 PUSH1 0xA0 SHL SWAP1 DIV PUSH1 0xFF AND PUSH2 0x3478 JUMPI PUSH1 0x40 MLOAD PUSH3 0x461BCD PUSH1 0xE5 SHL DUP2 MSTORE PUSH1 0x20 PUSH1 0x4 DUP3 ADD MSTORE PUSH1 0xF PUSH1 0x24 DUP3 ADD MSTORE PUSH15 0x42756E646C6520696E616374697665 PUSH1 0x88 SHL PUSH1 0x44 DUP3 ADD MSTORE PUSH1 0x64 ADD PUSH2 0xE3F JUMP JUMPDEST DUP3 DUP2 PUSH1 0x7 ADD SLOAD LT ISZERO PUSH2 0x34CC JUMPI PUSH1 0x40 MLOAD PUSH3 0x461BCD PUSH1 0xE5 SHL DUP2 MSTORE PUSH1 0x20 PUSH1 0x4 DUP3 ADD MSTORE PUSH1 0x1A PUSH1 0x24 DUP3 ADD MSTORE PUSH32 0x496E73756666696369656E742062756E646C6520737570706C79000000000000 PUSH1 0x44 DUP3 ADD MSTORE PUSH1 0x64 ADD PUSH2 0xE3F JUMP JUMPDEST PUSH1 0x0 PUSH1 0x1 PUSH1 0x1 PUSH1 0xA0 SHL SUB DUP4 AND ISZERO PUSH2 0x34E4 JUMPI PUSH1 0x0 PUSH2 0x34F4 JUMP JUMPDEST DUP4 DUP3 PUSH1 0x4 ADD SLOAD PUSH2 0x34F4 SWAP2 SWAP1 PUSH2 0x41C0 JUMP JUMPDEST SWAP1 POP PUSH1 0x1 PUSH1 0x1 PUSH1 0xA0 SHL SUB DUP4 AND PUSH2 0x354C JUMPI DUP1 CALLVALUE LT ISZERO PUSH2 0x3547 JUMPI PUSH1 0x40 MLOAD PUSH3 0x461BCD PUSH1 0xE5 SHL DUP2 MSTORE PUSH1 0x20 PUSH1 0x4 DUP3 ADD MSTORE PUSH1 0x10 PUSH1 0x24 DUP3 ADD MSTORE PUSH16 0x92DCE6EACCCCD2C6D2CADCE8408AA89 PUSH1 0x83 SHL PUSH1 0x44 DUP3 ADD MSTORE PUSH1 0x64 ADD PUSH2 0xE3F JUMP JUMPDEST PUSH2 0x35C5 JUMP JUMPDEST PUSH1 0x40 MLOAD PUSH4 0x23B872DD PUSH1 0xE0 SHL DUP2 MSTORE CALLER PUSH1 0x4 DUP3 ADD MSTORE ADDRESS PUSH1 0x24 DUP3 ADD MSTORE PUSH1 0x44 DUP2 ADD DUP3 SWAP1 MSTORE PUSH1 0x1 PUSH1 0x1 PUSH1 0xA0 SHL SUB DUP5 AND SWAP1 PUSH4 0x23B872DD SWAP1 PUSH1 0x64 ADD PUSH1 0x20 PUSH1 0x40 MLOAD DUP1 DUP4 SUB DUP2 PUSH1 0x0 DUP8 GAS CALL ISZERO DUP1 ISZERO PUSH2 0x359F JUMPI RETURNDATASIZE PUSH1 0x0 DUP1 RETURNDATACOPY RETURNDATASIZE PUSH1 0x0 REVERT JUMPDEST POP POP POP POP PUSH1 0x40 MLOAD RETURNDATASIZE PUSH1 0x1F NOT PUSH1 0x1F DUP3 ADD AND DUP3 ADD DUP1 PUSH1 0x40 MSTORE POP DUP2 ADD SWAP1 PUSH2 0x35C3 SWAP2 SWAP1 PUSH2 0x4241 JUMP JUMPDEST POP JUMPDEST PUSH1 0x0 JUMPDEST PUSH1 0x2 DUP4 ADD SLOAD DUP2 LT ISZERO PUSH2 0x36D4 JUMPI PUSH1 0x0 DUP4 PUSH1 0x2 ADD DUP3 DUP2 SLOAD DUP2 LT PUSH2 0x35EB JUMPI PUSH2 0x35EB PUSH2 0x425E JUMP JUMPDEST SWAP1 PUSH1 0x0 MSTORE PUSH1 0x20 PUSH1 0x0 KECCAK256 ADD SLOAD SWAP1 POP PUSH1 0x0 DUP7 DUP6 PUSH1 0x3 ADD DUP5 DUP2 SLOAD DUP2 LT PUSH2 0x3610 JUMPI PUSH2 0x3610 PUSH2 0x425E JUMP JUMPDEST SWAP1 PUSH1 0x0 MSTORE PUSH1 0x20 PUSH1 0x0 KECCAK256 ADD SLOAD PUSH2 0x3625 SWAP2 SWAP1 PUSH2 0x41C0 JUMP JUMPDEST PUSH1 0x0 DUP4 DUP2 MSTORE PUSH1 0x2 PUSH1 0x20 MSTORE PUSH1 0x40 SWAP1 KECCAK256 PUSH1 0x9 ADD SLOAD SWAP1 SWAP2 POP DUP2 GT ISZERO PUSH2 0x3659 JUMPI PUSH1 0x40 MLOAD PUSH3 0x461BCD PUSH1 0xE5 SHL DUP2 MSTORE PUSH1 0x4 ADD PUSH2 0xE3F SWAP1 PUSH2 0x4214 JUMP JUMPDEST PUSH1 0x0 DUP3 DUP2 MSTORE PUSH1 0x2 PUSH1 0x20 MSTORE PUSH1 0x40 DUP2 KECCAK256 PUSH1 0x9 ADD DUP1 SLOAD DUP4 SWAP3 SWAP1 PUSH2 0x367A SWAP1 DUP5 SWAP1 PUSH2 0x4185 JUMP JUMPDEST SWAP1 SWAP2 SSTORE POP POP PUSH1 0x0 DUP3 DUP2 MSTORE PUSH1 0x2 PUSH1 0x20 DUP2 SWAP1 MSTORE PUSH1 0x40 DUP3 KECCAK256 ADD SLOAD PUSH1 0xFF AND SWAP1 SUB PUSH2 0x36CA JUMPI CALLER PUSH1 0x0 SWAP1 DUP2 MSTORE PUSH1 0x1A PUSH1 0x20 SWAP1 DUP2 MSTORE PUSH1 0x40 DUP1 DUP4 KECCAK256 DUP6 DUP5 MSTORE SWAP1 SWAP2 MSTORE DUP2 KECCAK256 DUP1 SLOAD DUP4 SWAP3 SWAP1 PUSH2 0x36C4 SWAP1 DUP5 SWAP1 PUSH2 0x4201 JUMP JUMPDEST SWAP1 SWAP2 SSTORE POP POP JUMPDEST POP POP PUSH1 0x1 ADD PUSH2 0x35C8 JUMP JUMPDEST POP DUP4 DUP3 PUSH1 0x7 ADD PUSH1 0x0 DUP3 DUP3 SLOAD PUSH2 0x36E9 SWAP2 SWAP1 PUSH2 0x4185 JUMP JUMPDEST SWAP1 SWAP2 SSTORE POP PUSH1 0x0 SWAP1 POP JUMPDEST PUSH1 0x2 DUP4 ADD SLOAD DUP2 LT ISZERO PUSH2 0x3786 JUMPI DUP5 DUP4 PUSH1 0x3 ADD DUP3 DUP2 SLOAD DUP2 LT PUSH2 0x3714 JUMPI PUSH2 0x3714 PUSH2 0x425E JUMP JUMPDEST SWAP1 PUSH1 0x0 MSTORE PUSH1 0x20 PUSH1 0x0 KECCAK256 ADD SLOAD PUSH2 0x3729 SWAP2 SWAP1 PUSH2 0x41C0 JUMP JUMPDEST CALLER PUSH1 0x0 SWAP1 DUP2 MSTORE PUSH1 0x4 PUSH1 0x20 MSTORE PUSH1 0x40 DUP2 KECCAK256 PUSH1 0x2 DUP7 ADD DUP1 SLOAD SWAP2 SWAP3 SWAP2 DUP6 SWAP1 DUP2 LT PUSH2 0x3751 JUMPI PUSH2 0x3751 PUSH2 0x425E JUMP JUMPDEST SWAP1 PUSH1 0x0 MSTORE PUSH1 0x20 PUSH1 0x0 KECCAK256 ADD SLOAD DUP2 MSTORE PUSH1 0x20 ADD SWAP1 DUP2 MSTORE PUSH1 0x20 ADD PUSH1 0x0 KECCAK256 PUSH1 0x0 DUP3 DUP3 SLOAD PUSH2 0x3779 SWAP2 SWAP1 PUSH2 0x4201 JUMP JUMPDEST SWAP1 SWAP2 SSTORE POP POP PUSH1 0x1 ADD PUSH2 0x36F2 JUMP JUMPDEST POP CALLER PUSH1 0x1 PUSH1 0x1 PUSH1 0xA0 SHL SUB AND PUSH32 0x854931D3A8461AB9D0412C3E03F884C9911FBEC9854941D26B4C14D88C6B0550 DUP7 DUP5 PUSH1 0x2 ADD DUP6 PUSH1 0x3 ADD DUP6 PUSH1 0x40 MLOAD PUSH2 0x37CC SWAP5 SWAP4 SWAP3 SWAP2 SWAP1 PUSH2 0x449E JUMP JUMPDEST PUSH1 0x40 MLOAD DUP1 SWAP2 SUB SWAP1 LOG2 POP POP PUSH2 0x134D PUSH1 0x1 DUP1 SSTORE JUMP JUMPDEST PUSH2 0x37E7 PUSH2 0x3896 JUMP JUMPDEST PUSH1 0x1 PUSH1 0x1 PUSH1 0xA0 SHL SUB DUP2 AND PUSH2 0x3811 JUMPI PUSH1 0x40 MLOAD PUSH4 0x1E4FBDF7 PUSH1 0xE0 SHL DUP2 MSTORE PUSH1 0x0 PUSH1 0x4 DUP3 ADD MSTORE PUSH1 0x24 ADD PUSH2 0xE3F JUMP JUMPDEST PUSH2 0x101C DUP2 PUSH2 0x3918 JUMP JUMPDEST PUSH2 0x3822 PUSH2 0x3896 JUMP JUMPDEST PUSH1 0x0 SWAP1 DUP2 MSTORE PUSH1 0x2 PUSH1 0x20 MSTORE PUSH1 0x40 SWAP1 KECCAK256 PUSH1 0x7 ADD DUP1 SLOAD PUSH5 0xFF00000000 NOT AND SWAP1 SSTORE JUMP JUMPDEST PUSH1 0x0 SLOAD PUSH1 0x1 PUSH1 0xA0 SHL SWAP1 DIV PUSH1 0xFF AND ISZERO PUSH2 0x1690 JUMPI PUSH1 0x40 MLOAD PUSH4 0xD93C0665 PUSH1 0xE0 SHL DUP2 MSTORE PUSH1 0x4 ADD PUSH1 0x40 MLOAD DUP1 SWAP2 SUB SWAP1 REVERT JUMPDEST PUSH1 0x2 PUSH1 0x1 SLOAD SUB PUSH2 0x388F JUMPI PUSH1 0x40 MLOAD PUSH4 0x3EE5AEB5 PUSH1 0xE0 SHL DUP2 MSTORE PUSH1 0x4 ADD PUSH1 0x40 MLOAD DUP1 SWAP2 SUB SWAP1 REVERT JUMPDEST PUSH1 0x2 PUSH1 0x1 SSTORE JUMP JUMPDEST PUSH1 0x0 SLOAD PUSH1 0x1 PUSH1 0x1 PUSH1 0xA0 SHL SUB AND CALLER EQ PUSH2 0x1690 JUMPI PUSH1 0x40 MLOAD PUSH4 0x118CDAA7 PUSH1 0xE0 SHL DUP2 MSTORE CALLER PUSH1 0x4 DUP3 ADD MSTORE PUSH1 0x24 ADD PUSH2 0xE3F JUMP JUMPDEST PUSH2 0x38CB PUSH2 0x39AB JUMP JUMPDEST PUSH1 0x0 DUP1 SLOAD PUSH1 0xFF PUSH1 0xA0 SHL NOT AND SWAP1 SSTORE PUSH32 0x5DB9EE0A495BF2E6FF9C91A7834C1BA4FDD244A5E8AA4E537BD38AEAE4B073AA CALLER JUMPDEST PUSH1 0x40 MLOAD PUSH1 0x1 PUSH1 0x1 PUSH1 0xA0 SHL SUB SWAP1 SWAP2 AND DUP2 MSTORE PUSH1 0x20 ADD PUSH1 0x40 MLOAD DUP1 SWAP2 SUB SWAP1 LOG1 JUMP JUMPDEST PUSH1 0x0 DUP1 SLOAD PUSH1 0x1 PUSH1 0x1 PUSH1 0xA0 SHL SUB DUP4 DUP2 AND PUSH1 0x1 PUSH1 0x1 PUSH1 0xA0 SHL SUB NOT DUP4 AND DUP2 OR DUP5 SSTORE PUSH1 0x40 MLOAD SWAP2 SWAP1 SWAP3 AND SWAP3 DUP4 SWAP2 PUSH32 0x8BE0079C531659141344CD1FD0A4F28419497F9722A3DAAFE3B4186F6B6457E0 SWAP2 SWAP1 LOG3 POP POP JUMP JUMPDEST PUSH2 0x3970 PUSH2 0x3841 JUMP JUMPDEST PUSH1 0x0 DUP1 SLOAD PUSH1 0xFF PUSH1 0xA0 SHL NOT AND PUSH1 0x1 PUSH1 0xA0 SHL OR SWAP1 SSTORE PUSH32 0x62E78CEA01BEE320CD4E420270B5EA74000D11B0C9F74754EBDBFC544B05A258 PUSH2 0x38FB CALLER SWAP1 JUMP JUMPDEST PUSH1 0x0 SLOAD PUSH1 0x1 PUSH1 0xA0 SHL SWAP1 DIV PUSH1 0xFF AND PUSH2 0x1690 JUMPI PUSH1 0x40 MLOAD PUSH4 0x8DFC202B PUSH1 0xE0 SHL DUP2 MSTORE PUSH1 0x4 ADD PUSH1 0x40 MLOAD DUP1 SWAP2 SUB SWAP1 REVERT JUMPDEST DUP3 DUP1 SLOAD DUP3 DUP3 SSTORE SWAP1 PUSH1 0x0 MSTORE PUSH1 0x20 PUSH1 0x0 KECCAK256 SWAP1 DUP2 ADD SWAP3 DUP3 ISZERO PUSH2 0x3A10 JUMPI SWAP2 PUSH1 0x20 MUL DUP3 ADD JUMPDEST DUP3 DUP2 GT ISZERO PUSH2 0x3A10 JUMPI DUP3 MLOAD DUP3 SSTORE SWAP2 PUSH1 0x20 ADD SWAP2 SWAP1 PUSH1 0x1 ADD SWAP1 PUSH2 0x39F5 JUMP JUMPDEST POP PUSH2 0x3A1C SWAP3 SWAP2 POP PUSH2 0x3A20 JUMP JUMPDEST POP SWAP1 JUMP JUMPDEST JUMPDEST DUP1 DUP3 GT ISZERO PUSH2 0x3A1C JUMPI PUSH1 0x0 DUP2 SSTORE PUSH1 0x1 ADD PUSH2 0x3A21 JUMP JUMPDEST PUSH1 0x0 PUSH1 0x20 DUP3 DUP5 SUB SLT ISZERO PUSH2 0x3A47 JUMPI PUSH1 0x0 DUP1 REVERT JUMPDEST POP CALLDATALOAD SWAP2 SWAP1 POP JUMP JUMPDEST DUP1 CALLDATALOAD PUSH1 0x1 PUSH1 0x1 PUSH1 0xA0 SHL SUB DUP2 AND DUP2 EQ PUSH2 0x3A65 JUMPI PUSH1 0x0 DUP1 REVERT JUMPDEST SWAP2 SWAP1 POP JUMP JUMPDEST PUSH1 0x0 DUP1 PUSH1 0x40 DUP4 DUP6 SUB SLT ISZERO PUSH2 0x3A7D JUMPI PUSH1 0x0 DUP1 REVERT JUMPDEST PUSH2 0x3A86 DUP4 PUSH2 0x3A4E JUMP JUMPDEST SWAP5 PUSH1 0x20 SWAP4 SWAP1 SWAP4 ADD CALLDATALOAD SWAP4 POP POP POP JUMP JUMPDEST PUSH1 0x0 PUSH1 0x20 DUP3 DUP5 SUB SLT ISZERO PUSH2 0x3AA6 JUMPI PUSH1 0x0 DUP1 REVERT JUMPDEST PUSH2 0x3AAF DUP3 PUSH2 0x3A4E JUMP JUMPDEST SWAP4 SWAP3 POP POP POP JUMP JUMPDEST PUSH1 0x0 DUP1 PUSH1 0x0 PUSH1 0x60 DUP5 DUP7 SUB SLT ISZERO PUSH2 0x3ACB JUMPI PUSH1 0x0 DUP1 REVERT JUMPDEST DUP4 CALLDATALOAD SWAP3 POP PUSH1 0x20 DUP5 ADD CALLDATALOAD SWAP2 POP PUSH2 0x3AE2 PUSH1 0x40 DUP6 ADD PUSH2 0x3A4E JUMP JUMPDEST SWAP1 POP SWAP3 POP SWAP3 POP SWAP3 JUMP JUMPDEST PUSH1 0x0 DUP1 PUSH1 0x40 DUP4 DUP6 SUB SLT ISZERO PUSH2 0x3AFE JUMPI PUSH1 0x0 DUP1 REVERT JUMPDEST POP POP DUP1 CALLDATALOAD SWAP3 PUSH1 0x20 SWAP1 SWAP2 ADD CALLDATALOAD SWAP2 POP JUMP JUMPDEST PUSH4 0x4E487B71 PUSH1 0xE0 SHL PUSH1 0x0 MSTORE PUSH1 0x41 PUSH1 0x4 MSTORE PUSH1 0x24 PUSH1 0x0 REVERT JUMPDEST PUSH1 0x40 MLOAD PUSH2 0x180 DUP2 ADD PUSH8 0xFFFFFFFFFFFFFFFF DUP2 GT DUP3 DUP3 LT OR ISZERO PUSH2 0x3B47 JUMPI PUSH2 0x3B47 PUSH2 0x3B0D JUMP JUMPDEST PUSH1 0x40 MSTORE SWAP1 JUMP JUMPDEST PUSH1 0x40 MLOAD PUSH2 0x120 DUP2 ADD PUSH8 0xFFFFFFFFFFFFFFFF DUP2 GT DUP3 DUP3 LT OR ISZERO PUSH2 0x3B47 JUMPI PUSH2 0x3B47 PUSH2 0x3B0D JUMP JUMPDEST PUSH1 0x40 MLOAD PUSH1 0x1F DUP3 ADD PUSH1 0x1F NOT AND DUP2 ADD PUSH8 0xFFFFFFFFFFFFFFFF DUP2 GT DUP3 DUP3 LT OR ISZERO PUSH2 0x3B9A JUMPI PUSH2 0x3B9A PUSH2 0x3B0D JUMP JUMPDEST PUSH1 0x40 MSTORE SWAP2 SWAP1 POP JUMP JUMPDEST PUSH1 0x0 DUP3 PUSH1 0x1F DUP4 ADD SLT PUSH2 0x3BB3 JUMPI PUSH1 0x0 DUP1 REVERT JUMPDEST DUP2 CALLDATALOAD PUSH8 0xFFFFFFFFFFFFFFFF DUP2 GT ISZERO PUSH2 0x3BCD JUMPI PUSH2 0x3BCD PUSH2 0x3B0D JUMP JUMPDEST PUSH2 0x3BE0 PUSH1 0x1F DUP3 ADD PUSH1 0x1F NOT AND PUSH1 0x20 ADD PUSH2 0x3B71 JUMP JUMPDEST DUP2 DUP2 MSTORE DUP5 PUSH1 0x20 DUP4 DUP7 ADD ADD GT ISZERO PUSH2 0x3BF5 JUMPI PUSH1 0x0 DUP1 REVERT JUMPDEST DUP2 PUSH1 0x20 DUP6 ADD PUSH1 0x20 DUP4 ADD CALLDATACOPY PUSH1 0x0 SWAP2 DUP2 ADD PUSH1 0x20 ADD SWAP2 SWAP1 SWAP2 MSTORE SWAP4 SWAP3 POP POP POP JUMP JUMPDEST DUP1 CALLDATALOAD PUSH1 0xFF DUP2 AND DUP2 EQ PUSH2 0x3A65 JUMPI PUSH1 0x0 DUP1 REVERT JUMPDEST DUP1 CALLDATALOAD PUSH2 0xFFFF DUP2 AND DUP2 EQ PUSH2 0x3A65 JUMPI PUSH1 0x0 DUP1 REVERT JUMPDEST DUP1 ISZERO ISZERO DUP2 EQ PUSH2 0x101C JUMPI PUSH1 0x0 DUP1 REVERT JUMPDEST DUP1 CALLDATALOAD PUSH2 0x3A65 DUP2 PUSH2 0x3C35 JUMP JUMPDEST PUSH1 0x0 PUSH1 0x20 DUP3 DUP5 SUB SLT ISZERO PUSH2 0x3C60 JUMPI PUSH1 0x0 DUP1 REVERT JUMPDEST DUP2 CALLDATALOAD PUSH8 0xFFFFFFFFFFFFFFFF DUP1 DUP3 GT ISZERO PUSH2 0x3C78 JUMPI PUSH1 0x0 DUP1 REVERT JUMPDEST SWAP1 DUP4 ADD SWAP1 PUSH2 0x180 DUP3 DUP7 SUB SLT ISZERO PUSH2 0x3C8D JUMPI PUSH1 0x0 DUP1 REVERT JUMPDEST PUSH2 0x3C95 PUSH2 0x3B23 JUMP JUMPDEST DUP3 CALLDATALOAD DUP2 MSTORE PUSH1 0x20 DUP4 ADD CALLDATALOAD DUP3 DUP2 GT ISZERO PUSH2 0x3CAB JUMPI PUSH1 0x0 DUP1 REVERT JUMPDEST PUSH2 0x3CB7 DUP8 DUP3 DUP7 ADD PUSH2 0x3BA2 JUMP JUMPDEST PUSH1 0x20 DUP4 ADD MSTORE POP PUSH2 0x3CC9 PUSH1 0x40 DUP5 ADD PUSH2 0x3C12 JUMP JUMPDEST PUSH1 0x40 DUP3 ADD MSTORE PUSH1 0x60 DUP4 ADD CALLDATALOAD PUSH1 0x60 DUP3 ADD MSTORE PUSH2 0x3CE4 PUSH1 0x80 DUP5 ADD PUSH2 0x3A4E JUMP JUMPDEST PUSH1 0x80 DUP3 ADD MSTORE PUSH1 0xA0 DUP4 ADD CALLDATALOAD PUSH1 0xA0 DUP3 ADD MSTORE PUSH1 0xC0 DUP4 ADD CALLDATALOAD PUSH1 0xC0 DUP3 ADD MSTORE PUSH2 0x3D09 PUSH1 0xE0 DUP5 ADD PUSH2 0x3C23 JUMP JUMPDEST PUSH1 0xE0 DUP3 ADD MSTORE PUSH2 0x100 SWAP2 POP PUSH2 0x3D1E DUP3 DUP5 ADD PUSH2 0x3C23 JUMP JUMPDEST DUP3 DUP3 ADD MSTORE PUSH2 0x120 SWAP2 POP PUSH2 0x3D32 DUP3 DUP5 ADD PUSH2 0x3C43 JUMP JUMPDEST SWAP2 DUP2 ADD SWAP2 SWAP1 SWAP2 MSTORE PUSH2 0x140 DUP3 DUP2 ADD CALLDATALOAD SWAP1 DUP3 ADD MSTORE PUSH2 0x160 SWAP2 DUP3 ADD CALLDATALOAD SWAP2 DUP2 ADD SWAP2 SWAP1 SWAP2 MSTORE SWAP4 SWAP3 POP POP POP JUMP JUMPDEST PUSH1 0x0 DUP3 PUSH1 0x1F DUP4 ADD SLT PUSH2 0x3D6A JUMPI PUSH1 0x0 DUP1 REVERT JUMPDEST DUP2 CALLDATALOAD PUSH1 0x20 PUSH8 0xFFFFFFFFFFFFFFFF DUP3 GT ISZERO PUSH2 0x3D86 JUMPI PUSH2 0x3D86 PUSH2 0x3B0D JUMP JUMPDEST DUP2 PUSH1 0x5 SHL PUSH2 0x3D95 DUP3 DUP3 ADD PUSH2 0x3B71 JUMP JUMPDEST SWAP3 DUP4 MSTORE DUP5 DUP2 ADD DUP3 ADD SWAP3 DUP3 DUP2 ADD SWAP1 DUP8 DUP6 GT ISZERO PUSH2 0x3DAF JUMPI PUSH1 0x0 DUP1 REVERT JUMPDEST DUP4 DUP8 ADD SWAP3 POP JUMPDEST DUP5 DUP4 LT ISZERO PUSH2 0x3DCE JUMPI DUP3 CALLDATALOAD DUP3 MSTORE SWAP2 DUP4 ADD SWAP2 SWAP1 DUP4 ADD SWAP1 PUSH2 0x3DB5 JUMP JUMPDEST SWAP8 SWAP7 POP POP POP POP POP POP POP JUMP JUMPDEST PUSH1 0x0 PUSH1 0x20 DUP3 DUP5 SUB SLT ISZERO PUSH2 0x3DEB JUMPI PUSH1 0x0 DUP1 REVERT JUMPDEST DUP2 CALLDATALOAD PUSH8 0xFFFFFFFFFFFFFFFF DUP1 DUP3 GT ISZERO PUSH2 0x3E03 JUMPI PUSH1 0x0 DUP1 REVERT JUMPDEST SWAP1 DUP4 ADD SWAP1 PUSH2 0x120 DUP3 DUP7 SUB SLT ISZERO PUSH2 0x3E18 JUMPI PUSH1 0x0 DUP1 REVERT JUMPDEST PUSH2 0x3E20 PUSH2 0x3B4D JUMP JUMPDEST DUP3 CALLDATALOAD DUP2 MSTORE PUSH1 0x20 DUP4 ADD CALLDATALOAD DUP3 DUP2 GT ISZERO PUSH2 0x3E36 JUMPI PUSH1 0x0 DUP1 REVERT JUMPDEST PUSH2 0x3E42 DUP8 DUP3 DUP7 ADD PUSH2 0x3BA2 JUMP JUMPDEST PUSH1 0x20 DUP4 ADD MSTORE POP PUSH1 0x40 DUP4 ADD CALLDATALOAD DUP3 DUP2 GT ISZERO PUSH2 0x3E5A JUMPI PUSH1 0x0 DUP1 REVERT JUMPDEST PUSH2 0x3E66 DUP8 DUP3 DUP7 ADD PUSH2 0x3D59 JUMP JUMPDEST PUSH1 0x40 DUP4 ADD MSTORE POP PUSH1 0x60 DUP4 ADD CALLDATALOAD DUP3 DUP2 GT ISZERO PUSH2 0x3E7E JUMPI PUSH1 0x0 DUP1 REVERT JUMPDEST PUSH2 0x3E8A DUP8 DUP3 DUP7 ADD PUSH2 0x3D59 JUMP JUMPDEST PUSH1 0x60 DUP4 ADD MSTORE POP PUSH1 0x80 DUP4 ADD CALLDATALOAD PUSH1 0x80 DUP3 ADD MSTORE PUSH2 0x3EA6 PUSH1 0xA0 DUP5 ADD PUSH2 0x3A4E JUMP JUMPDEST PUSH1 0xA0 DUP3 ADD MSTORE PUSH2 0x3EB7 PUSH1 0xC0 DUP5 ADD PUSH2 0x3C43 JUMP JUMPDEST PUSH1 0xC0 DUP3 ADD MSTORE PUSH1 0xE0 DUP4 DUP2 ADD CALLDATALOAD SWAP1 DUP3 ADD MSTORE PUSH2 0x100 SWAP3 DUP4 ADD CALLDATALOAD SWAP3 DUP2 ADD SWAP3 SWAP1 SWAP3 MSTORE POP SWAP4 SWAP3 POP POP POP JUMP JUMPDEST PUSH1 0x0 DUP1 PUSH1 0x0 PUSH1 0x40 DUP5 DUP7 SUB SLT ISZERO PUSH2 0x3EF1 JUMPI PUSH1 0x0 DUP1 REVERT JUMPDEST PUSH2 0x3EFA DUP5 PUSH2 0x3A4E JUMP JUMPDEST SWAP3 POP PUSH1 0x20 DUP5 ADD CALLDATALOAD PUSH8 0xFFFFFFFFFFFFFFFF DUP1 DUP3 GT ISZERO PUSH2 0x3F17 JUMPI PUSH1 0x0 DUP1 REVERT JUMPDEST DUP2 DUP7 ADD SWAP2 POP DUP7 PUSH1 0x1F DUP4 ADD SLT PUSH2 0x3F2B JUMPI PUSH1 0x0 DUP1 REVERT JUMPDEST DUP2 CALLDATALOAD DUP2 DUP2 GT ISZERO PUSH2 0x3F3A JUMPI PUSH1 0x0 DUP1 REVERT JUMPDEST DUP8 PUSH1 0x20 DUP3 PUSH1 0x5 SHL DUP6 ADD ADD GT ISZERO PUSH2 0x3F4F JUMPI PUSH1 0x0 DUP1 REVERT JUMPDEST PUSH1 0x20 DUP4 ADD SWAP5 POP DUP1 SWAP4 POP POP POP POP SWAP3 POP SWAP3 POP SWAP3 JUMP JUMPDEST PUSH1 0x20 DUP1 DUP3 MSTORE DUP3 MLOAD DUP3 DUP3 ADD DUP2 SWAP1 MSTORE PUSH1 0x0 SWAP2 SWAP1 PUSH1 0x40 SWAP1 DUP2 DUP6 ADD SWAP1 DUP7 DUP5 ADD DUP6 JUMPDEST DUP3 DUP2 LT ISZERO PUSH2 0x3FDB JUMPI DUP2 MLOAD DUP1 MLOAD DUP6 MSTORE DUP7 DUP2 ADD MLOAD DUP8 DUP7 ADD MSTORE DUP6 DUP2 ADD MLOAD DUP7 DUP7 ADD MSTORE PUSH1 0x60 DUP1 DUP3 ADD MLOAD PUSH2 0xFFFF SWAP1 DUP2 AND SWAP2 DUP8 ADD SWAP2 SWAP1 SWAP2 MSTORE PUSH1 0x80 DUP1 DUP4 ADD MLOAD SWAP1 SWAP2 AND SWAP1 DUP7 ADD MSTORE PUSH1 0xA0 SWAP1 DUP2 ADD MLOAD ISZERO ISZERO SWAP1 DUP6 ADD MSTORE PUSH1 0xC0 SWAP1 SWAP4 ADD SWAP3 SWAP1 DUP6 ADD SWAP1 PUSH1 0x1 ADD PUSH2 0x3F7F JUMP JUMPDEST POP SWAP2 SWAP8 SWAP7 POP POP POP POP POP POP POP JUMP JUMPDEST PUSH1 0x0 DUP2 MLOAD DUP1 DUP5 MSTORE PUSH1 0x20 DUP1 DUP6 ADD SWAP5 POP PUSH1 0x20 DUP5 ADD PUSH1 0x0 JUMPDEST DUP4 DUP2 LT ISZERO PUSH2 0x4019 JUMPI DUP2 MLOAD DUP8 MSTORE SWAP6 DUP3 ADD SWAP6 SWAP1 DUP3 ADD SWAP1 PUSH1 0x1 ADD PUSH2 0x3FFD JUMP JUMPDEST POP SWAP5 SWAP6 SWAP5 POP POP POP POP POP JUMP JUMPDEST PUSH1 0x20 DUP2 MSTORE PUSH1 0x0 PUSH2 0x3AAF PUSH1 0x20 DUP4 ADD DUP5 PUSH2 0x3FE8 JUMP JUMPDEST PUSH1 0x0 DUP2 MLOAD DUP1 DUP5 MSTORE PUSH1 0x0 JUMPDEST DUP2 DUP2 LT ISZERO PUSH2 0x405D JUMPI PUSH1 0x20 DUP2 DUP6 ADD DUP2 ADD MLOAD DUP7 DUP4 ADD DUP3 ADD MSTORE ADD PUSH2 0x4041 JUMP JUMPDEST POP PUSH1 0x0 PUSH1 0x20 DUP3 DUP7 ADD ADD MSTORE PUSH1 0x20 PUSH1 0x1F NOT PUSH1 0x1F DUP4 ADD AND DUP6 ADD ADD SWAP2 POP POP SWAP3 SWAP2 POP POP JUMP JUMPDEST PUSH1 0x0 PUSH2 0x180 DUP15 DUP4 MSTORE DUP1 PUSH1 0x20 DUP5 ADD MSTORE PUSH2 0x4097 DUP2 DUP5 ADD DUP16 PUSH2 0x4037 JUMP JUMPDEST PUSH1 0xFF SWAP14 SWAP1 SWAP14 AND PUSH1 0x40 DUP5 ADD MSTORE POP POP PUSH1 0x60 DUP2 ADD SWAP10 SWAP1 SWAP10 MSTORE PUSH1 0x1 PUSH1 0x1 PUSH1 0xA0 SHL SUB SWAP8 SWAP1 SWAP8 AND PUSH1 0x80 DUP10 ADD MSTORE PUSH1 0xA0 DUP9 ADD SWAP6 SWAP1 SWAP6 MSTORE PUSH1 0xC0 DUP8 ADD SWAP4 SWAP1 SWAP4 MSTORE PUSH2 0xFFFF SWAP2 DUP3 AND PUSH1 0xE0 DUP8 ADD MSTORE AND PUSH2 0x100 DUP6 ADD MSTORE ISZERO ISZERO PUSH2 0x120 DUP5 ADD MSTORE PUSH2 0x140 DUP4 ADD MSTORE PUSH2 0x160 SWAP1 SWAP2 ADD MSTORE SWAP3 SWAP2 POP POP JUMP JUMPDEST DUP8 DUP2 MSTORE PUSH1 0xE0 PUSH1 0x20 DUP3 ADD MSTORE PUSH1 0x0 PUSH2 0x4113 PUSH1 0xE0 DUP4 ADD DUP10 PUSH2 0x4037 JUMP JUMPDEST PUSH1 0x40 DUP4 ADD SWAP8 SWAP1 SWAP8 MSTORE POP PUSH1 0x1 PUSH1 0x1 PUSH1 0xA0 SHL SUB SWAP5 SWAP1 SWAP5 AND PUSH1 0x60 DUP6 ADD MSTORE SWAP2 ISZERO ISZERO PUSH1 0x80 DUP5 ADD MSTORE PUSH1 0xA0 DUP4 ADD MSTORE PUSH1 0xC0 SWAP1 SWAP2 ADD MSTORE SWAP3 SWAP2 POP POP JUMP JUMPDEST PUSH1 0x20 DUP1 DUP3 MSTORE PUSH1 0xF SWAP1 DUP3 ADD MSTORE PUSH15 0x4E6F7468696E672067726F77696E67 PUSH1 0x88 SHL PUSH1 0x40 DUP3 ADD MSTORE PUSH1 0x60 ADD SWAP1 JUMP JUMPDEST PUSH4 0x4E487B71 PUSH1 0xE0 SHL PUSH1 0x0 MSTORE PUSH1 0x11 PUSH1 0x4 MSTORE PUSH1 0x24 PUSH1 0x0 REVERT JUMPDEST DUP2 DUP2 SUB DUP2 DUP2 GT ISZERO PUSH2 0x4198 JUMPI PUSH2 0x4198 PUSH2 0x416F JUMP JUMPDEST SWAP3 SWAP2 POP POP JUMP JUMPDEST PUSH2 0xFFFF DUP2 DUP2 AND DUP4 DUP3 AND ADD SWAP1 DUP1 DUP3 GT ISZERO PUSH2 0x41B9 JUMPI PUSH2 0x41B9 PUSH2 0x416F JUMP JUMPDEST POP SWAP3 SWAP2 POP POP JUMP JUMPDEST DUP1 DUP3 MUL DUP2 ISZERO DUP3 DUP3 DIV DUP5 EQ OR PUSH2 0x4198 JUMPI PUSH2 0x4198 PUSH2 0x416F JUMP JUMPDEST PUSH4 0x4E487B71 PUSH1 0xE0 SHL PUSH1 0x0 MSTORE PUSH1 0x12 PUSH1 0x4 MSTORE PUSH1 0x24 PUSH1 0x0 REVERT JUMPDEST PUSH1 0x0 DUP3 PUSH2 0x41FC JUMPI PUSH2 0x41FC PUSH2 0x41D7 JUMP JUMPDEST POP DIV SWAP1 JUMP JUMPDEST DUP1 DUP3 ADD DUP1 DUP3 GT ISZERO PUSH2 0x4198 JUMPI PUSH2 0x4198 PUSH2 0x416F JUMP JUMPDEST PUSH1 0x20 DUP1 DUP3 MSTORE PUSH1 0x13 SWAP1 DUP3 ADD MSTORE PUSH19 0x496E73756666696369656E7420737570706C79 PUSH1 0x68 SHL PUSH1 0x40 DUP3 ADD MSTORE PUSH1 0x60 ADD SWAP1 JUMP JUMPDEST PUSH1 0x0 PUSH1 0x20 DUP3 DUP5 SUB SLT ISZERO PUSH2 0x4253 JUMPI PUSH1 0x0 DUP1 REVERT JUMPDEST DUP2 MLOAD PUSH2 0x3AAF DUP2 PUSH2 0x3C35 JUMP JUMPDEST PUSH4 0x4E487B71 PUSH1 0xE0 SHL PUSH1 0x0 MSTORE PUSH1 0x32 PUSH1 0x4 MSTORE PUSH1 0x24 PUSH1 0x0 REVERT JUMPDEST DUP6 DUP2 MSTORE PUSH1 0xA0 PUSH1 0x20 DUP3 ADD MSTORE PUSH1 0x0 PUSH2 0x428D PUSH1 0xA0 DUP4 ADD DUP8 PUSH2 0x3FE8 JUMP JUMPDEST DUP3 DUP2 SUB PUSH1 0x40 DUP5 ADD MSTORE PUSH2 0x429F DUP2 DUP8 PUSH2 0x3FE8 JUMP JUMPDEST PUSH1 0x1 PUSH1 0x1 PUSH1 0xA0 SHL SUB SWAP6 SWAP1 SWAP6 AND PUSH1 0x60 DUP5 ADD MSTORE POP POP PUSH1 0x80 ADD MSTORE SWAP4 SWAP3 POP POP POP JUMP JUMPDEST PUSH1 0x1 DUP2 DUP2 SHR SWAP1 DUP3 AND DUP1 PUSH2 0x42D1 JUMPI PUSH1 0x7F DUP3 AND SWAP2 POP JUMPDEST PUSH1 0x20 DUP3 LT DUP2 SUB PUSH2 0x42F1 JUMPI PUSH4 0x4E487B71 PUSH1 0xE0 SHL PUSH1 0x0 MSTORE PUSH1 0x22 PUSH1 0x4 MSTORE PUSH1 0x24 PUSH1 0x0 REVERT JUMPDEST POP SWAP2 SWAP1 POP JUMP JUMPDEST PUSH1 0x1F DUP3 GT ISZERO PUSH2 0x134D JUMPI PUSH1 0x0 DUP2 PUSH1 0x0 MSTORE PUSH1 0x20 PUSH1 0x0 KECCAK256 PUSH1 0x1F DUP6 ADD PUSH1 0x5 SHR DUP2 ADD PUSH1 0x20 DUP7 LT ISZERO PUSH2 0x4320 JUMPI POP DUP1 JUMPDEST PUSH1 0x1F DUP6 ADD PUSH1 0x5 SHR DUP3 ADD SWAP2 POP JUMPDEST DUP2 DUP2 LT ISZERO PUSH2 0x433F JUMPI DUP3 DUP2 SSTORE PUSH1 0x1 ADD PUSH2 0x432C JUMP JUMPDEST POP POP POP POP POP POP JUMP JUMPDEST DUP2 MLOAD PUSH8 0xFFFFFFFFFFFFFFFF DUP2 GT ISZERO PUSH2 0x4361 JUMPI PUSH2 0x4361 PUSH2 0x3B0D JUMP JUMPDEST PUSH2 0x4375 DUP2 PUSH2 0x436F DUP5 SLOAD PUSH2 0x42BD JUMP JUMPDEST DUP5 PUSH2 0x42F7 JUMP JUMPDEST PUSH1 0x20 DUP1 PUSH1 0x1F DUP4 GT PUSH1 0x1 DUP2 EQ PUSH2 0x43AA JUMPI PUSH1 0x0 DUP5 ISZERO PUSH2 0x4392 JUMPI POP DUP6 DUP4 ADD MLOAD JUMPDEST PUSH1 0x0 NOT PUSH1 0x3 DUP7 SWAP1 SHL SHR NOT AND PUSH1 0x1 DUP6 SWAP1 SHL OR DUP6 SSTORE PUSH2 0x433F JUMP JUMPDEST PUSH1 0x0 DUP6 DUP2 MSTORE PUSH1 0x20 DUP2 KECCAK256 PUSH1 0x1F NOT DUP7 AND SWAP2 JUMPDEST DUP3 DUP2 LT ISZERO PUSH2 0x43D9 JUMPI DUP9 DUP7 ADD MLOAD DUP3 SSTORE SWAP5 DUP5 ADD SWAP5 PUSH1 0x1 SWAP1 SWAP2 ADD SWAP1 DUP5 ADD PUSH2 0x43BA JUMP JUMPDEST POP DUP6 DUP3 LT ISZERO PUSH2 0x43F7 JUMPI DUP8 DUP6 ADD MLOAD PUSH1 0x0 NOT PUSH1 0x3 DUP9 SWAP1 SHL PUSH1 0xF8 AND SHR NOT AND DUP2 SSTORE JUMPDEST POP POP POP POP POP PUSH1 0x1 SWAP1 DUP2 SHL ADD SWAP1 SSTORE POP JUMP JUMPDEST PUSH2 0xFFFF DUP3 DUP2 AND DUP3 DUP3 AND SUB SWAP1 DUP1 DUP3 GT ISZERO PUSH2 0x41B9 JUMPI PUSH2 0x41B9 PUSH2 0x416F JUMP JUMPDEST PUSH1 0x0 DUP3 PUSH2 0x4431 JUMPI PUSH2 0x4431 PUSH2 0x41D7 JUMP JUMPDEST POP MOD SWAP1 JUMP JUMPDEST PUSH1 0x0 PUSH1 0x20 DUP3 DUP5 SUB SLT ISZERO PUSH2 0x4448 JUMPI PUSH1 0x0 DUP1 REVERT JUMPDEST POP MLOAD SWAP2 SWAP1 POP JUMP JUMPDEST PUSH1 0x0 PUSH1 0x1 DUP3 ADD PUSH2 0x4461 JUMPI PUSH2 0x4461 PUSH2 0x416F JUMP JUMPDEST POP PUSH1 0x1 ADD SWAP1 JUMP JUMPDEST PUSH1 0x0 DUP2 SLOAD DUP1 DUP5 MSTORE PUSH1 0x20 DUP1 DUP6 ADD SWAP5 POP DUP4 PUSH1 0x0 MSTORE PUSH1 0x20 PUSH1 0x0 KECCAK256 PUSH1 0x0 JUMPDEST DUP4 DUP2 LT ISZERO PUSH2 0x4019 JUMPI DUP2 SLOAD DUP8 MSTORE SWAP6 DUP3 ADD SWAP6 PUSH1 0x1 SWAP2 DUP3 ADD SWAP2 ADD PUSH2 0x4482 JUMP JUMPDEST DUP5 DUP2 MSTORE PUSH1 0x80 PUSH1 0x20 DUP3 ADD MSTORE PUSH1 0x0 PUSH2 0x44B7 PUSH1 0x80 DUP4 ADD DUP7 PUSH2 0x4468 JUMP JUMPDEST DUP3 DUP2 SUB PUSH1 0x40 DUP5 ADD MSTORE PUSH2 0x44C9 DUP2 DUP7 PUSH2 0x4468 JUMP JUMPDEST SWAP2 POP POP DUP3 PUSH1 0x60 DUP4 ADD MSTORE SWAP6 SWAP5 POP POP POP POP POP JUMP INVALID 0xD2 SWAP10 SWAP4 0xD7 CODESIZE SWAP11 0xAF 0xEB BYTE 0xE0 0xEE 0xBF 0xCC 0xE 0x2B PUSH24 0x7C314426C46ED802D5116187380125D5A264697066735822 SLT KECCAK256 0xD9 0xC7 EXTCODEHASH PUSH20 0x8FA6DDCAFA6BC0F7A06B8C35DDE451B10CCF098 EXP PUSH0 ADDRESS SWAP9 DUP2 BALANCE PUSH14 0x8464736F6C63430008180033D6EB 0xCC PUSH5 0xC739277B11 PUSH29 0xE359E436534B234B76E914C80AD276ABF5B56207893CF60B7F6A315EC6 DUP11 PUSH11 0xC240E69DCA53652B38627F PUSH17 0x9A2CAA217D9E18AF4D7A62A8F2D96126C6 0xD0 0xAD PUSH4 0xADABAEF7 0xBF TLOAD DELEGATECALL PUSH32 0x163FB0C218A473D28F62312D197BCFD6EBCC64C739277B117CE359E436534B23 0x4B PUSH23 0xE914C80AD276ABF5B56207893BD6EBCC64C739277B117C 0xE3 MSIZE 0xE4 CALLDATASIZE MSTORE8 0x4B 0x23 0x4B PUSH23 0xE914C80AD276ABF5B56207893AF60B7F6A315EC68A6AC2 BLOCKHASH 0xE6 SWAP14 0xCA MSTORE8 PUSH6 0x2B38627F709A 0x2C 0xAA 0x21 PUSH30 0x9E18AF4D7A63D6EBCC64C739277B117CE359E436534B234B76E914C80AD2 PUSH23 0xABF5B562078939F60B7F6A315EC68A6AC240E69DCA5365 0x2B CODESIZE PUSH3 0x7F709A 0x2C 0xAA 0x21 PUSH30 0x9E18AF4D7A61A8F2D96126C6D0AD63ADABAEF7BF5CF47F163FB0C218A473 0xD2 DUP16 PUSH3 0x312D19 PUSH28 0xD1A8F2D96126C6D0AD63ADABAEF7BF5CF47F163FB0C218A473D28F62 BALANCE 0x2D NOT PUSH28 0xD0F60B7F6A315EC68A6AC240E69DCA53652B38627F709A2CAA217D9E XOR 0xAF 0x4D PUSH27 0x60A8F2D96126C6D0AD63ADABAEF7BF5CF47F163FB0C218A473D28F PUSH3 0x312D19 PUSH28 0xD2000000000000000000000000000000000000000000000000000000 "},"methodIdentifiers":{"AUTO_WATERING_SYSTEM_ID()":"14d3a9c0","BASIC_SEED_SINGLE_ID()":"e630d241","ENERGY_BOOSTER_ID()":"1f36c907","FERTILIZER_SPREADER_ID()":"d13e3353","GOLDEN_HARVESTER_BUNDLE_ID()":"b0a79a99","GOLDEN_HARVESTER_SINGLE_ID()":"d6eacb65","HARVESTER_ID()":"e68b02cc","HYBRID_SEED_SINGLE_ID()":"8719c20a","MAX_BONUS_BP()":"4bf8b2c6","MIN_BONUS_BP()":"3603f8d1","PREMIUM_SEED_SINGLE_ID()":"b07e9a8b","STARTER_BUNDLE_ID()":"f3274a1f","WATERING_CAN_ID()":"a8ad4513","acceptedPaymentTokens(address)":"484bb244","addBundle((uint256,string,uint256[],uint256[],uint256,address,bool,uint256,uint256))":"edc0c038","addItem((uint256,string,uint8,uint256,address,uint256,uint256,uint16,uint16,bool,uint256,uint256))":"60e3ab0b","addPaymentToken(address)":"4a7dc8e0","applyFertilizer(uint256)":"860ecd8c","autoWaterCrops()":"8673fb8b","autoWaterPlotsForUser(address)":"e6f26df2","bundles(uint256)":"cf19384b","buyBundle(uint256,uint256,address)":"edf2fe73","buyItem(uint256,uint256,address)":"13c066f8","buyItemWithGameRT(uint256,uint256)":"38ee59b9","claimDailyReward()":"83f8b7e2","claimQuestReward(uint256)":"75b9ea1d","claimRiseTokens()":"ce882f36","claimedQuests(address,uint256)":"e203fffc","dailyRewards(uint256)":"b203dc60","deactivateBundle(uint256)":"66c3b5fa","deactivateItem(uint256)":"f9e38f9c","farmLevel(address)":"35a23e7b","getUserInventory(address,uint256[])":"851044ec","getUserPlots(address,uint256[])":"75651e77","harvest(uint256)":"ddc63262","harvestWithGoldenHarvester(uint256)":"073e57d2","hasAutoWatering(address)":"e1f7d38a","items(uint256)":"bfb231d2","lastClaimedDay(address)":"29e6d681","multiHarvestWithGoldenHarvester()":"ced031d6","owner()":"8da5cb5b","pause()":"8456cb59","paused()":"5c975abb","plantSeed(uint256,uint256)":"4f87e864","playerLevel(address)":"14c84f3a","questRewards(uint256)":"0f13dda4","removePaymentToken(address)":"a5125421","renounceOwnership()":"715018a6","riceTokens(address)":"0da0d7a5","riseToken()":"9d633e77","setItemMaxSupply(uint256,uint256)":"c7f70346","setQuestReward(uint256,uint256)":"53abfc85","setRiseToken(address)":"a4d3f557","totalHarvests(address)":"5a48d79d","totalXP(address)":"fee99c72","transferOwnership(address)":"f2fde38b","unpause()":"3f4ba83a","updateBundle((uint256,string,uint256[],uint256[],uint256,address,bool,uint256,uint256))":"54cb5399","updateItem((uint256,string,uint8,uint256,address,uint256,uint256,uint16,uint16,bool,uint256,uint256))":"451420cb","updatePlotsForUser(address)":"9b7eb3d0","upgradeFarm(uint256)":"79e07242","useTool(uint256,uint256)":"2a1bbd1f","userBundleSeeds(address,uint256)":"d7a8ac0b","userItemBalances(address,uint256)":"07bd03ba","userPlots(address,uint256)":"4c321a89","userSingleSeeds(address,uint256)":"77f8c837","userStreaks(address)":"d291d1f2","waterCrop(uint256)":"e9da722f","withdrawETH()":"e086e5ec","withdrawToken(address)":"89476069"}}}}}