{
  "_format": "hh-sol-artifact-1",
  "contractName": "RiseFarming",
  "sourceName": "contracts/RiseFarming.sol",
  "abi": [
    {
      "inputs": [],
      "stateMutability": "nonpayable",
      "type": "constructor"
    },
    {
      "inputs": [],
      "name": "EnforcedPause",
      "type": "error"
    },
    {
      "inputs": [],
      "name": "ExpectedPause",
      "type": "error"
    },
    {
      "inputs": [
        {
          "internalType": "address",
          "name": "owner",
          "type": "address"
        }
      ],
      "name": "OwnableInvalidOwner",
      "type": "error"
    },
    {
      "inputs": [
        {
          "internalType": "address",
          "name": "account",
          "type": "address"
        }
      ],
      "name": "OwnableUnauthorizedAccount",
      "type": "error"
    },
    {
      "inputs": [],
      "name": "ReentrancyGuardReentrantCall",
      "type": "error"
    },
    {
      "anonymous": false,
      "inputs": [
        {
          "indexed": true,
          "internalType": "address",
          "name": "user",
          "type": "address"
        },
        {
          "indexed": false,
          "internalType": "uint256",
          "name": "bundleId",
          "type": "uint256"
        },
        {
          "indexed": false,
          "internalType": "uint256[]",
          "name": "itemIds",
          "type": "uint256[]"
        },
        {
          "indexed": false,
          "internalType": "uint256[]",
          "name": "amounts",
          "type": "uint256[]"
        },
        {
          "indexed": false,
          "internalType": "uint256",
          "name": "price",
          "type": "uint256"
        }
      ],
      "name": "BundlePurchased",
      "type": "event"
    },
    {
      "anonymous": false,
      "inputs": [
        {
          "indexed": true,
          "internalType": "address",
          "name": "user",
          "type": "address"
        },
        {
          "indexed": false,
          "internalType": "uint256",
          "name": "day",
          "type": "uint256"
        },
        {
          "indexed": false,
          "internalType": "uint256",
          "name": "reward",
          "type": "uint256"
        }
      ],
      "name": "DailyRewardClaimed",
      "type": "event"
    },
    {
      "anonymous": false,
      "inputs": [
        {
          "indexed": true,
          "internalType": "address",
          "name": "user",
          "type": "address"
        },
        {
          "indexed": false,
          "internalType": "uint256",
          "name": "upgradeId",
          "type": "uint256"
        }
      ],
      "name": "FarmUpgraded",
      "type": "event"
    },
    {
      "anonymous": false,
      "inputs": [
        {
          "indexed": true,
          "internalType": "address",
          "name": "user",
          "type": "address"
        },
        {
          "indexed": false,
          "internalType": "uint256",
          "name": "plotId",
          "type": "uint256"
        },
        {
          "indexed": false,
          "internalType": "uint256",
          "name": "reward",
          "type": "uint256"
        }
      ],
      "name": "Harvested",
      "type": "event"
    },
    {
      "anonymous": false,
      "inputs": [
        {
          "indexed": true,
          "internalType": "address",
          "name": "user",
          "type": "address"
        },
        {
          "indexed": false,
          "internalType": "uint256",
          "name": "bundleId",
          "type": "uint256"
        },
        {
          "indexed": false,
          "internalType": "uint256[]",
          "name": "itemIds",
          "type": "uint256[]"
        },
        {
          "indexed": false,
          "internalType": "uint256[]",
          "name": "amounts",
          "type": "uint256[]"
        },
        {
          "indexed": false,
          "internalType": "address",
          "name": "paymentToken",
          "type": "address"
        },
        {
          "indexed": false,
          "internalType": "uint256",
          "name": "price",
          "type": "uint256"
        }
      ],
      "name": "ItemPurchased",
      "type": "event"
    },
    {
      "anonymous": false,
      "inputs": [
        {
          "indexed": true,
          "internalType": "address",
          "name": "user",
          "type": "address"
        },
        {
          "indexed": false,
          "internalType": "uint256",
          "name": "itemId",
          "type": "uint256"
        },
        {
          "indexed": false,
          "internalType": "uint256",
          "name": "amount",
          "type": "uint256"
        },
        {
          "indexed": false,
          "internalType": "uint256",
          "name": "totalRT",
          "type": "uint256"
        }
      ],
      "name": "ItemPurchasedWithRT",
      "type": "event"
    },
    {
      "anonymous": false,
      "inputs": [
        {
          "indexed": true,
          "internalType": "address",
          "name": "previousOwner",
          "type": "address"
        },
        {
          "indexed": true,
          "internalType": "address",
          "name": "newOwner",
          "type": "address"
        }
      ],
      "name": "OwnershipTransferred",
      "type": "event"
    },
    {
      "anonymous": false,
      "inputs": [
        {
          "indexed": false,
          "internalType": "address",
          "name": "account",
          "type": "address"
        }
      ],
      "name": "Paused",
      "type": "event"
    },
    {
      "anonymous": false,
      "inputs": [
        {
          "indexed": false,
          "internalType": "address",
          "name": "token",
          "type": "address"
        }
      ],
      "name": "PaymentTokenAdded",
      "type": "event"
    },
    {
      "anonymous": false,
      "inputs": [
        {
          "indexed": false,
          "internalType": "address",
          "name": "token",
          "type": "address"
        }
      ],
      "name": "PaymentTokenRemoved",
      "type": "event"
    },
    {
      "anonymous": false,
      "inputs": [
        {
          "indexed": true,
          "internalType": "address",
          "name": "user",
          "type": "address"
        },
        {
          "indexed": false,
          "internalType": "uint256",
          "name": "plotId",
          "type": "uint256"
        }
      ],
      "name": "PlotAutoWatered",
      "type": "event"
    },
    {
      "anonymous": false,
      "inputs": [
        {
          "indexed": true,
          "internalType": "address",
          "name": "user",
          "type": "address"
        },
        {
          "indexed": false,
          "internalType": "uint256",
          "name": "plotId",
          "type": "uint256"
        }
      ],
      "name": "PlotReady",
      "type": "event"
    },
    {
      "anonymous": false,
      "inputs": [
        {
          "indexed": true,
          "internalType": "address",
          "name": "user",
          "type": "address"
        },
        {
          "indexed": false,
          "internalType": "uint256",
          "name": "questId",
          "type": "uint256"
        },
        {
          "indexed": false,
          "internalType": "uint256",
          "name": "reward",
          "type": "uint256"
        }
      ],
      "name": "QuestRewardClaimed",
      "type": "event"
    },
    {
      "anonymous": false,
      "inputs": [
        {
          "indexed": true,
          "internalType": "address",
          "name": "user",
          "type": "address"
        },
        {
          "indexed": false,
          "internalType": "uint256",
          "name": "amount",
          "type": "uint256"
        }
      ],
      "name": "RiseClaimed",
      "type": "event"
    },
    {
      "anonymous": false,
      "inputs": [
        {
          "indexed": true,
          "internalType": "address",
          "name": "user",
          "type": "address"
        },
        {
          "indexed": false,
          "internalType": "uint256",
          "name": "plotId",
          "type": "uint256"
        },
        {
          "indexed": false,
          "internalType": "uint256",
          "name": "seedId",
          "type": "uint256"
        }
      ],
      "name": "SeedPlanted",
      "type": "event"
    },
    {
      "anonymous": false,
      "inputs": [
        {
          "indexed": true,
          "internalType": "address",
          "name": "user",
          "type": "address"
        },
        {
          "indexed": false,
          "internalType": "uint256",
          "name": "toolId",
          "type": "uint256"
        }
      ],
      "name": "ToolBurned",
      "type": "event"
    },
    {
      "anonymous": false,
      "inputs": [
        {
          "indexed": true,
          "internalType": "address",
          "name": "user",
          "type": "address"
        },
        {
          "indexed": false,
          "internalType": "uint256",
          "name": "toolId",
          "type": "uint256"
        },
        {
          "indexed": false,
          "internalType": "uint256",
          "name": "usesLeft",
          "type": "uint256"
        }
      ],
      "name": "ToolUseDecremented",
      "type": "event"
    },
    {
      "anonymous": false,
      "inputs": [
        {
          "indexed": true,
          "internalType": "address",
          "name": "user",
          "type": "address"
        },
        {
          "indexed": false,
          "internalType": "uint256",
          "name": "toolId",
          "type": "uint256"
        },
        {
          "indexed": false,
          "internalType": "uint256",
          "name": "plotId",
          "type": "uint256"
        }
      ],
      "name": "ToolUsed",
      "type": "event"
    },
    {
      "anonymous": false,
      "inputs": [
        {
          "indexed": false,
          "internalType": "address",
          "name": "account",
          "type": "address"
        }
      ],
      "name": "Unpaused",
      "type": "event"
    },
    {
      "inputs": [],
      "name": "AUTO_WATERING_SYSTEM_ID",
      "outputs": [
        {
          "internalType": "uint256",
          "name": "",
          "type": "uint256"
        }
      ],
      "stateMutability": "view",
      "type": "function"
    },
    {
      "inputs": [],
      "name": "BASIC_SEED_SINGLE_ID",
      "outputs": [
        {
          "internalType": "uint256",
          "name": "",
          "type": "uint256"
        }
      ],
      "stateMutability": "view",
      "type": "function"
    },
    {
      "inputs": [],
      "name": "ENERGY_BOOSTER_ID",
      "outputs": [
        {
          "internalType": "uint256",
          "name": "",
          "type": "uint256"
        }
      ],
      "stateMutability": "view",
      "type": "function"
    },
    {
      "inputs": [],
      "name": "FERTILIZER_SPREADER_ID",
      "outputs": [
        {
          "internalType": "uint256",
          "name": "",
          "type": "uint256"
        }
      ],
      "stateMutability": "view",
      "type": "function"
    },
    {
      "inputs": [],
      "name": "GOLDEN_HARVESTER_BUNDLE_ID",
      "outputs": [
        {
          "internalType": "uint256",
          "name": "",
          "type": "uint256"
        }
      ],
      "stateMutability": "view",
      "type": "function"
    },
    {
      "inputs": [],
      "name": "GOLDEN_HARVESTER_SINGLE_ID",
      "outputs": [
        {
          "internalType": "uint256",
          "name": "",
          "type": "uint256"
        }
      ],
      "stateMutability": "view",
      "type": "function"
    },
    {
      "inputs": [],
      "name": "HARVESTER_ID",
      "outputs": [
        {
          "internalType": "uint256",
          "name": "",
          "type": "uint256"
        }
      ],
      "stateMutability": "view",
      "type": "function"
    },
    {
      "inputs": [],
      "name": "HYBRID_SEED_SINGLE_ID",
      "outputs": [
        {
          "internalType": "uint256",
          "name": "",
          "type": "uint256"
        }
      ],
      "stateMutability": "view",
      "type": "function"
    },
    {
      "inputs": [],
      "name": "MAX_BONUS_BP",
      "outputs": [
        {
          "internalType": "uint16",
          "name": "",
          "type": "uint16"
        }
      ],
      "stateMutability": "view",
      "type": "function"
    },
    {
      "inputs": [],
      "name": "MIN_BONUS_BP",
      "outputs": [
        {
          "internalType": "uint16",
          "name": "",
          "type": "uint16"
        }
      ],
      "stateMutability": "view",
      "type": "function"
    },
    {
      "inputs": [],
      "name": "PREMIUM_SEED_SINGLE_ID",
      "outputs": [
        {
          "internalType": "uint256",
          "name": "",
          "type": "uint256"
        }
      ],
      "stateMutability": "view",
      "type": "function"
    },
    {
      "inputs": [],
      "name": "STARTER_BUNDLE_ID",
      "outputs": [
        {
          "internalType": "uint256",
          "name": "",
          "type": "uint256"
        }
      ],
      "stateMutability": "view",
      "type": "function"
    },
    {
      "inputs": [],
      "name": "WATERING_CAN_ID",
      "outputs": [
        {
          "internalType": "uint256",
          "name": "",
          "type": "uint256"
        }
      ],
      "stateMutability": "view",
      "type": "function"
    },
    {
      "inputs": [
        {
          "internalType": "address",
          "name": "",
          "type": "address"
        }
      ],
      "name": "acceptedPaymentTokens",
      "outputs": [
        {
          "internalType": "bool",
          "name": "",
          "type": "bool"
        }
      ],
      "stateMutability": "view",
      "type": "function"
    },
    {
      "inputs": [
        {
          "components": [
            {
              "internalType": "uint256",
              "name": "id",
              "type": "uint256"
            },
            {
              "internalType": "string",
              "name": "name",
              "type": "string"
            },
            {
              "internalType": "uint256[]",
              "name": "itemIds",
              "type": "uint256[]"
            },
            {
              "internalType": "uint256[]",
              "name": "itemAmounts",
              "type": "uint256[]"
            },
            {
              "internalType": "uint256",
              "name": "priceETH",
              "type": "uint256"
            },
            {
              "internalType": "address",
              "name": "paymentToken",
              "type": "address"
            },
            {
              "internalType": "bool",
              "name": "active",
              "type": "bool"
            },
            {
              "internalType": "uint256",
              "name": "maxSupply",
              "type": "uint256"
            },
            {
              "internalType": "uint256",
              "name": "supply",
              "type": "uint256"
            }
          ],
          "internalType": "struct RiseFarming.Bundle",
          "name": "bundle",
          "type": "tuple"
        }
      ],
      "name": "addBundle",
      "outputs": [],
      "stateMutability": "nonpayable",
      "type": "function"
    },
    {
      "inputs": [
        {
          "components": [
            {
              "internalType": "uint256",
              "name": "id",
              "type": "uint256"
            },
            {
              "internalType": "string",
              "name": "name",
              "type": "string"
            },
            {
              "internalType": "uint8",
              "name": "itemType",
              "type": "uint8"
            },
            {
              "internalType": "uint256",
              "name": "priceETH",
              "type": "uint256"
            },
            {
              "internalType": "address",
              "name": "paymentToken",
              "type": "address"
            },
            {
              "internalType": "uint256",
              "name": "baseReward",
              "type": "uint256"
            },
            {
              "internalType": "uint256",
              "name": "baseGrowthTime",
              "type": "uint256"
            },
            {
              "internalType": "uint16",
              "name": "growthBonusBP",
              "type": "uint16"
            },
            {
              "internalType": "uint16",
              "name": "yieldBonusBP",
              "type": "uint16"
            },
            {
              "internalType": "bool",
              "name": "active",
              "type": "bool"
            },
            {
              "internalType": "uint256",
              "name": "maxSupply",
              "type": "uint256"
            },
            {
              "internalType": "uint256",
              "name": "supply",
              "type": "uint256"
            }
          ],
          "internalType": "struct RiseFarming.Item",
          "name": "item",
          "type": "tuple"
        }
      ],
      "name": "addItem",
      "outputs": [],
      "stateMutability": "nonpayable",
      "type": "function"
    },
    {
      "inputs": [
        {
          "internalType": "address",
          "name": "token",
          "type": "address"
        }
      ],
      "name": "addPaymentToken",
      "outputs": [],
      "stateMutability": "nonpayable",
      "type": "function"
    },
    {
      "inputs": [
        {
          "internalType": "uint256",
          "name": "plotId",
          "type": "uint256"
        }
      ],
      "name": "applyFertilizer",
      "outputs": [],
      "stateMutability": "nonpayable",
      "type": "function"
    },
    {
      "inputs": [],
      "name": "autoWaterCrops",
      "outputs": [],
      "stateMutability": "nonpayable",
      "type": "function"
    },
    {
      "inputs": [
        {
          "internalType": "address",
          "name": "user",
          "type": "address"
        }
      ],
      "name": "autoWaterPlotsForUser",
      "outputs": [],
      "stateMutability": "nonpayable",
      "type": "function"
    },
    {
      "inputs": [
        {
          "internalType": "uint256",
          "name": "",
          "type": "uint256"
        }
      ],
      "name": "bundles",
      "outputs": [
        {
          "internalType": "uint256",
          "name": "id",
          "type": "uint256"
        },
        {
          "internalType": "string",
          "name": "name",
          "type": "string"
        },
        {
          "internalType": "uint256",
          "name": "priceETH",
          "type": "uint256"
        },
        {
          "internalType": "address",
          "name": "paymentToken",
          "type": "address"
        },
        {
          "internalType": "bool",
          "name": "active",
          "type": "bool"
        },
        {
          "internalType": "uint256",
          "name": "maxSupply",
          "type": "uint256"
        },
        {
          "internalType": "uint256",
          "name": "supply",
          "type": "uint256"
        }
      ],
      "stateMutability": "view",
      "type": "function"
    },
    {
      "inputs": [
        {
          "internalType": "uint256",
          "name": "bundleId",
          "type": "uint256"
        },
        {
          "internalType": "uint256",
          "name": "amount",
          "type": "uint256"
        },
        {
          "internalType": "address",
          "name": "paymentToken",
          "type": "address"
        }
      ],
      "name": "buyBundle",
      "outputs": [],
      "stateMutability": "payable",
      "type": "function"
    },
    {
      "inputs": [
        {
          "internalType": "uint256",
          "name": "itemId",
          "type": "uint256"
        },
        {
          "internalType": "uint256",
          "name": "amount",
          "type": "uint256"
        },
        {
          "internalType": "address",
          "name": "paymentToken",
          "type": "address"
        }
      ],
      "name": "buyItem",
      "outputs": [],
      "stateMutability": "payable",
      "type": "function"
    },
    {
      "inputs": [
        {
          "internalType": "uint256",
          "name": "itemId",
          "type": "uint256"
        },
        {
          "internalType": "uint256",
          "name": "amount",
          "type": "uint256"
        }
      ],
      "name": "buyItemWithGameRT",
      "outputs": [],
      "stateMutability": "nonpayable",
      "type": "function"
    },
    {
      "inputs": [],
      "name": "claimDailyReward",
      "outputs": [],
      "stateMutability": "nonpayable",
      "type": "function"
    },
    {
      "inputs": [
        {
          "internalType": "uint256",
          "name": "questId",
          "type": "uint256"
        }
      ],
      "name": "claimQuestReward",
      "outputs": [],
      "stateMutability": "nonpayable",
      "type": "function"
    },
    {
      "inputs": [],
      "name": "claimRiseTokens",
      "outputs": [],
      "stateMutability": "nonpayable",
      "type": "function"
    },
    {
      "inputs": [
        {
          "internalType": "address",
          "name": "",
          "type": "address"
        },
        {
          "internalType": "uint256",
          "name": "",
          "type": "uint256"
        }
      ],
      "name": "claimedQuests",
      "outputs": [
        {
          "internalType": "bool",
          "name": "",
          "type": "bool"
        }
      ],
      "stateMutability": "view",
      "type": "function"
    },
    {
      "inputs": [
        {
          "internalType": "uint256",
          "name": "",
          "type": "uint256"
        }
      ],
      "name": "dailyRewards",
      "outputs": [
        {
          "internalType": "uint256",
          "name": "",
          "type": "uint256"
        }
      ],
      "stateMutability": "view",
      "type": "function"
    },
    {
      "inputs": [
        {
          "internalType": "uint256",
          "name": "bundleId",
          "type": "uint256"
        }
      ],
      "name": "deactivateBundle",
      "outputs": [],
      "stateMutability": "nonpayable",
      "type": "function"
    },
    {
      "inputs": [
        {
          "internalType": "uint256",
          "name": "itemId",
          "type": "uint256"
        }
      ],
      "name": "deactivateItem",
      "outputs": [],
      "stateMutability": "nonpayable",
      "type": "function"
    },
    {
      "inputs": [
        {
          "internalType": "address",
          "name": "",
          "type": "address"
        }
      ],
      "name": "farmLevel",
      "outputs": [
        {
          "internalType": "uint256",
          "name": "",
          "type": "uint256"
        }
      ],
      "stateMutability": "view",
      "type": "function"
    },
    {
      "inputs": [
        {
          "internalType": "address",
          "name": "user",
          "type": "address"
        },
        {
          "internalType": "uint256[]",
          "name": "itemIds",
          "type": "uint256[]"
        }
      ],
      "name": "getUserInventory",
      "outputs": [
        {
          "internalType": "uint256[]",
          "name": "",
          "type": "uint256[]"
        }
      ],
      "stateMutability": "view",
      "type": "function"
    },
    {
      "inputs": [
        {
          "internalType": "address",
          "name": "user",
          "type": "address"
        },
        {
          "internalType": "uint256[]",
          "name": "plotIds",
          "type": "uint256[]"
        }
      ],
      "name": "getUserPlots",
      "outputs": [
        {
          "components": [
            {
              "internalType": "uint256",
              "name": "seedId",
              "type": "uint256"
            },
            {
              "internalType": "uint256",
              "name": "plantedAt",
              "type": "uint256"
            },
            {
              "internalType": "uint256",
              "name": "readyAt",
              "type": "uint256"
            },
            {
              "internalType": "uint16",
              "name": "growthBonusBP",
              "type": "uint16"
            },
            {
              "internalType": "uint16",
              "name": "yieldBonusBP",
              "type": "uint16"
            },
            {
              "internalType": "bool",
              "name": "growing",
              "type": "bool"
            },
            {
              "internalType": "uint256",
              "name": "harvestedAt",
              "type": "uint256"
            },
            {
              "internalType": "bool",
              "name": "needsFertilizer",
              "type": "bool"
            }
          ],
          "internalType": "struct RiseFarming.Plot[]",
          "name": "",
          "type": "tuple[]"
        }
      ],
      "stateMutability": "view",
      "type": "function"
    },
    {
      "inputs": [
        {
          "internalType": "uint256",
          "name": "plotId",
          "type": "uint256"
        }
      ],
      "name": "harvest",
      "outputs": [],
      "stateMutability": "nonpayable",
      "type": "function"
    },
    {
      "inputs": [
        {
          "internalType": "uint256",
          "name": "plotId",
          "type": "uint256"
        }
      ],
      "name": "harvestWithGoldenHarvester",
      "outputs": [],
      "stateMutability": "nonpayable",
      "type": "function"
    },
    {
      "inputs": [
        {
          "internalType": "address",
          "name": "",
          "type": "address"
        }
      ],
      "name": "hasAutoWatering",
      "outputs": [
        {
          "internalType": "bool",
          "name": "",
          "type": "bool"
        }
      ],
      "stateMutability": "view",
      "type": "function"
    },
    {
      "inputs": [
        {
          "internalType": "uint256",
          "name": "",
          "type": "uint256"
        }
      ],
      "name": "items",
      "outputs": [
        {
          "internalType": "uint256",
          "name": "id",
          "type": "uint256"
        },
        {
          "internalType": "string",
          "name": "name",
          "type": "string"
        },
        {
          "internalType": "uint8",
          "name": "itemType",
          "type": "uint8"
        },
        {
          "internalType": "uint256",
          "name": "priceETH",
          "type": "uint256"
        },
        {
          "internalType": "address",
          "name": "paymentToken",
          "type": "address"
        },
        {
          "internalType": "uint256",
          "name": "baseReward",
          "type": "uint256"
        },
        {
          "internalType": "uint256",
          "name": "baseGrowthTime",
          "type": "uint256"
        },
        {
          "internalType": "uint16",
          "name": "growthBonusBP",
          "type": "uint16"
        },
        {
          "internalType": "uint16",
          "name": "yieldBonusBP",
          "type": "uint16"
        },
        {
          "internalType": "bool",
          "name": "active",
          "type": "bool"
        },
        {
          "internalType": "uint256",
          "name": "maxSupply",
          "type": "uint256"
        },
        {
          "internalType": "uint256",
          "name": "supply",
          "type": "uint256"
        }
      ],
      "stateMutability": "view",
      "type": "function"
    },
    {
      "inputs": [
        {
          "internalType": "address",
          "name": "",
          "type": "address"
        }
      ],
      "name": "lastClaimedDay",
      "outputs": [
        {
          "internalType": "uint256",
          "name": "",
          "type": "uint256"
        }
      ],
      "stateMutability": "view",
      "type": "function"
    },
    {
      "inputs": [],
      "name": "multiHarvestWithGoldenHarvester",
      "outputs": [],
      "stateMutability": "nonpayable",
      "type": "function"
    },
    {
      "inputs": [],
      "name": "owner",
      "outputs": [
        {
          "internalType": "address",
          "name": "",
          "type": "address"
        }
      ],
      "stateMutability": "view",
      "type": "function"
    },
    {
      "inputs": [],
      "name": "pause",
      "outputs": [],
      "stateMutability": "nonpayable",
      "type": "function"
    },
    {
      "inputs": [],
      "name": "paused",
      "outputs": [
        {
          "internalType": "bool",
          "name": "",
          "type": "bool"
        }
      ],
      "stateMutability": "view",
      "type": "function"
    },
    {
      "inputs": [
        {
          "internalType": "uint256",
          "name": "plotId",
          "type": "uint256"
        },
        {
          "internalType": "uint256",
          "name": "seedId",
          "type": "uint256"
        }
      ],
      "name": "plantSeed",
      "outputs": [],
      "stateMutability": "nonpayable",
      "type": "function"
    },
    {
      "inputs": [
        {
          "internalType": "address",
          "name": "",
          "type": "address"
        }
      ],
      "name": "playerLevel",
      "outputs": [
        {
          "internalType": "uint256",
          "name": "",
          "type": "uint256"
        }
      ],
      "stateMutability": "view",
      "type": "function"
    },
    {
      "inputs": [
        {
          "internalType": "uint256",
          "name": "",
          "type": "uint256"
        }
      ],
      "name": "questRewards",
      "outputs": [
        {
          "internalType": "uint256",
          "name": "",
          "type": "uint256"
        }
      ],
      "stateMutability": "view",
      "type": "function"
    },
    {
      "inputs": [
        {
          "internalType": "address",
          "name": "token",
          "type": "address"
        }
      ],
      "name": "removePaymentToken",
      "outputs": [],
      "stateMutability": "nonpayable",
      "type": "function"
    },
    {
      "inputs": [],
      "name": "renounceOwnership",
      "outputs": [],
      "stateMutability": "nonpayable",
      "type": "function"
    },
    {
      "inputs": [
        {
          "internalType": "uint256",
          "name": "plotId",
          "type": "uint256"
        }
      ],
      "name": "revivePlot",
      "outputs": [],
      "stateMutability": "nonpayable",
      "type": "function"
    },
    {
      "inputs": [
        {
          "internalType": "address",
          "name": "",
          "type": "address"
        }
      ],
      "name": "riceTokens",
      "outputs": [
        {
          "internalType": "uint256",
          "name": "",
          "type": "uint256"
        }
      ],
      "stateMutability": "view",
      "type": "function"
    },
    {
      "inputs": [],
      "name": "riseToken",
      "outputs": [
        {
          "internalType": "contract IERC20",
          "name": "",
          "type": "address"
        }
      ],
      "stateMutability": "view",
      "type": "function"
    },
    {
      "inputs": [
        {
          "internalType": "uint256",
          "name": "itemId",
          "type": "uint256"
        },
        {
          "internalType": "uint256",
          "name": "maxSupply",
          "type": "uint256"
        }
      ],
      "name": "setItemMaxSupply",
      "outputs": [],
      "stateMutability": "nonpayable",
      "type": "function"
    },
    {
      "inputs": [
        {
          "internalType": "uint256",
          "name": "questId",
          "type": "uint256"
        },
        {
          "internalType": "uint256",
          "name": "reward",
          "type": "uint256"
        }
      ],
      "name": "setQuestReward",
      "outputs": [],
      "stateMutability": "nonpayable",
      "type": "function"
    },
    {
      "inputs": [
        {
          "internalType": "address",
          "name": "_riseToken",
          "type": "address"
        }
      ],
      "name": "setRiseToken",
      "outputs": [],
      "stateMutability": "nonpayable",
      "type": "function"
    },
    {
      "inputs": [
        {
          "internalType": "address",
          "name": "",
          "type": "address"
        }
      ],
      "name": "totalHarvests",
      "outputs": [
        {
          "internalType": "uint256",
          "name": "",
          "type": "uint256"
        }
      ],
      "stateMutability": "view",
      "type": "function"
    },
    {
      "inputs": [
        {
          "internalType": "address",
          "name": "",
          "type": "address"
        }
      ],
      "name": "totalXP",
      "outputs": [
        {
          "internalType": "uint256",
          "name": "",
          "type": "uint256"
        }
      ],
      "stateMutability": "view",
      "type": "function"
    },
    {
      "inputs": [
        {
          "internalType": "address",
          "name": "newOwner",
          "type": "address"
        }
      ],
      "name": "transferOwnership",
      "outputs": [],
      "stateMutability": "nonpayable",
      "type": "function"
    },
    {
      "inputs": [],
      "name": "unpause",
      "outputs": [],
      "stateMutability": "nonpayable",
      "type": "function"
    },
    {
      "inputs": [
        {
          "components": [
            {
              "internalType": "uint256",
              "name": "id",
              "type": "uint256"
            },
            {
              "internalType": "string",
              "name": "name",
              "type": "string"
            },
            {
              "internalType": "uint256[]",
              "name": "itemIds",
              "type": "uint256[]"
            },
            {
              "internalType": "uint256[]",
              "name": "itemAmounts",
              "type": "uint256[]"
            },
            {
              "internalType": "uint256",
              "name": "priceETH",
              "type": "uint256"
            },
            {
              "internalType": "address",
              "name": "paymentToken",
              "type": "address"
            },
            {
              "internalType": "bool",
              "name": "active",
              "type": "bool"
            },
            {
              "internalType": "uint256",
              "name": "maxSupply",
              "type": "uint256"
            },
            {
              "internalType": "uint256",
              "name": "supply",
              "type": "uint256"
            }
          ],
          "internalType": "struct RiseFarming.Bundle",
          "name": "bundle",
          "type": "tuple"
        }
      ],
      "name": "updateBundle",
      "outputs": [],
      "stateMutability": "nonpayable",
      "type": "function"
    },
    {
      "inputs": [
        {
          "components": [
            {
              "internalType": "uint256",
              "name": "id",
              "type": "uint256"
            },
            {
              "internalType": "string",
              "name": "name",
              "type": "string"
            },
            {
              "internalType": "uint8",
              "name": "itemType",
              "type": "uint8"
            },
            {
              "internalType": "uint256",
              "name": "priceETH",
              "type": "uint256"
            },
            {
              "internalType": "address",
              "name": "paymentToken",
              "type": "address"
            },
            {
              "internalType": "uint256",
              "name": "baseReward",
              "type": "uint256"
            },
            {
              "internalType": "uint256",
              "name": "baseGrowthTime",
              "type": "uint256"
            },
            {
              "internalType": "uint16",
              "name": "growthBonusBP",
              "type": "uint16"
            },
            {
              "internalType": "uint16",
              "name": "yieldBonusBP",
              "type": "uint16"
            },
            {
              "internalType": "bool",
              "name": "active",
              "type": "bool"
            },
            {
              "internalType": "uint256",
              "name": "maxSupply",
              "type": "uint256"
            },
            {
              "internalType": "uint256",
              "name": "supply",
              "type": "uint256"
            }
          ],
          "internalType": "struct RiseFarming.Item",
          "name": "item",
          "type": "tuple"
        }
      ],
      "name": "updateItem",
      "outputs": [],
      "stateMutability": "nonpayable",
      "type": "function"
    },
    {
      "inputs": [
        {
          "internalType": "address",
          "name": "user",
          "type": "address"
        }
      ],
      "name": "updatePlotsForUser",
      "outputs": [],
      "stateMutability": "nonpayable",
      "type": "function"
    },
    {
      "inputs": [
        {
          "internalType": "uint256",
          "name": "upgradeId",
          "type": "uint256"
        }
      ],
      "name": "upgradeFarm",
      "outputs": [],
      "stateMutability": "nonpayable",
      "type": "function"
    },
    {
      "inputs": [
        {
          "internalType": "uint256",
          "name": "toolId",
          "type": "uint256"
        },
        {
          "internalType": "uint256",
          "name": "plotId",
          "type": "uint256"
        }
      ],
      "name": "useTool",
      "outputs": [],
      "stateMutability": "nonpayable",
      "type": "function"
    },
    {
      "inputs": [
        {
          "internalType": "address",
          "name": "",
          "type": "address"
        },
        {
          "internalType": "uint256",
          "name": "",
          "type": "uint256"
        }
      ],
      "name": "userBundleSeeds",
      "outputs": [
        {
          "internalType": "uint256",
          "name": "",
          "type": "uint256"
        }
      ],
      "stateMutability": "view",
      "type": "function"
    },
    {
      "inputs": [
        {
          "internalType": "address",
          "name": "",
          "type": "address"
        },
        {
          "internalType": "uint256",
          "name": "",
          "type": "uint256"
        }
      ],
      "name": "userItemBalances",
      "outputs": [
        {
          "internalType": "uint256",
          "name": "",
          "type": "uint256"
        }
      ],
      "stateMutability": "view",
      "type": "function"
    },
    {
      "inputs": [
        {
          "internalType": "address",
          "name": "",
          "type": "address"
        },
        {
          "internalType": "uint256",
          "name": "",
          "type": "uint256"
        }
      ],
      "name": "userPlots",
      "outputs": [
        {
          "internalType": "uint256",
          "name": "seedId",
          "type": "uint256"
        },
        {
          "internalType": "uint256",
          "name": "plantedAt",
          "type": "uint256"
        },
        {
          "internalType": "uint256",
          "name": "readyAt",
          "type": "uint256"
        },
        {
          "internalType": "uint16",
          "name": "growthBonusBP",
          "type": "uint16"
        },
        {
          "internalType": "uint16",
          "name": "yieldBonusBP",
          "type": "uint16"
        },
        {
          "internalType": "bool",
          "name": "growing",
          "type": "bool"
        },
        {
          "internalType": "uint256",
          "name": "harvestedAt",
          "type": "uint256"
        },
        {
          "internalType": "bool",
          "name": "needsFertilizer",
          "type": "bool"
        }
      ],
      "stateMutability": "view",
      "type": "function"
    },
    {
      "inputs": [
        {
          "internalType": "address",
          "name": "",
          "type": "address"
        },
        {
          "internalType": "uint256",
          "name": "",
          "type": "uint256"
        }
      ],
      "name": "userSingleSeeds",
      "outputs": [
        {
          "internalType": "uint256",
          "name": "",
          "type": "uint256"
        }
      ],
      "stateMutability": "view",
      "type": "function"
    },
    {
      "inputs": [
        {
          "internalType": "address",
          "name": "",
          "type": "address"
        }
      ],
      "name": "userStreaks",
      "outputs": [
        {
          "internalType": "uint256",
          "name": "",
          "type": "uint256"
        }
      ],
      "stateMutability": "view",
      "type": "function"
    },
    {
      "inputs": [
        {
          "internalType": "address",
          "name": "",
          "type": "address"
        },
        {
          "internalType": "uint256",
          "name": "",
          "type": "uint256"
        }
      ],
      "name": "userToolUses",
      "outputs": [
        {
          "internalType": "uint256",
          "name": "",
          "type": "uint256"
        }
      ],
      "stateMutability": "view",
      "type": "function"
    },
    {
      "inputs": [
        {
          "internalType": "uint256",
          "name": "plotId",
          "type": "uint256"
        }
      ],
      "name": "waterCrop",
      "outputs": [],
      "stateMutability": "nonpayable",
      "type": "function"
    },
    {
      "inputs": [],
      "name": "withdrawETH",
      "outputs": [],
      "stateMutability": "nonpayable",
      "type": "function"
    },
    {
      "inputs": [
        {
          "internalType": "address",
          "name": "token",
          "type": "address"
        }
      ],
      "name": "withdrawToken",
      "outputs": [],
      "stateMutability": "nonpayable",
      "type": "function"
    },
    {
      "stateMutability": "payable",
      "type": "receive"
    }
  ],
  "bytecode": "0x60806040523480156200001157600080fd5b5033806200003957604051631e4fbdf760e01b81526000600482015260240160405180910390fd5b620000448162002006565b50600180805560008052601060209081527f6e0956cda88cad152e89927e53611735b61a5c762d1428573c6931b0a5efcb01805460ff19169092179091556040805160e081018252670de0b6b3a76400008152671bc16d674ec80000928101929092526729a2241af62c000090820152673782dace9d9000006060820152674563918244f4000060808201526753444835ec58000060a0820152676124fee993bc000060c0820152620000fc90601190600762002056565b506040805161018081018252600980825282518084018452601881527f426173696320526963652053656564202853696e676c65290000000000000000602082810191909152808401918252600094840185905266016bcc41e90000606085015260808401859052606460a08501526101a460c0850152600f60e0850181905261010085015260016101208501526127106101408501819052610160850152919093526002905280517ff85cc6ffc513dc6cf7d199ef87b7a63cf9defe62251c1c247cd12f1eec7bff2990815591519091907ff85cc6ffc513dc6cf7d199ef87b7a63cf9defe62251c1c247cd12f1eec7bff2a90620001fc9082620021a0565b5060408281015160028301805460ff191660ff9092169190911790556060830151600383015560808301516004830180546001600160a01b0319166001600160a01b0390921691909117905560a0830151600583015560c0830151600683015560e08301516007830180546101008601516101208088015161ffff95861663ffffffff19909416939093176201000095909216949094021760ff60201b19166401000000009115159190910217905561014084015160088401556101609093015160099092019190915580519182018152600d825280518082018252601881527f426173696320526963652053656564202842756e646c65290000000000000000602082810191909152808401919091528151600180825281840184529284019290918281019080368337505050815260408051600180825281830190925260209283019290919080830190803683375050508152660221b262dd8000602080830191909152600060408301819052600160608401526103e86080840181905260a090930192909252600d90915260038152815160008051602062006f098339815191529081559082015160008051602062006fe983398151915290620003c49082620021a0565b5060408201518051620003e2916002840191602090910190620020a4565b506060820151805162000400916003840191602090910190620020a4565b506080820151600482015560a082015160058201805460c08501511515600160a01b026001600160a81b03199091166001600160a01b039093169290921791909117905560e0820151600682015561010090910151600790910155600d6000908152600360205260008051602062006fc98339815191528054600992906200048c576200048c6200226c565b6000918252602080832090910192909255600d8152600390915260008051602062007029833981519152805460059290620004cb57620004cb6200226c565b60009182526020808320909101929092556040805161018081018252600a80825282518084018452601a81527f5072656d69756d20526963652053656564202853696e676c652900000000000081870152828601908152928201849052660221b262dd800060608301526080820184905260c860a083015261016860c0830152601e60e083018190526101008301526001610120830152610fa06101408301819052610160830152909252600290925280517fd3604db978f6137b0d18816b77b2ce810487a3af08a922e0b184963be5f3adfc90815591519091907fd3604db978f6137b0d18816b77b2ce810487a3af08a922e0b184963be5f3adfd90620005d49082620021a0565b5060408281015160028301805460ff191660ff9092169190911790556060830151600383015560808301516004830180546001600160a01b0319166001600160a01b0390921691909117905560a0830151600583015560c0830151600683015560e08301516007830180546101008601516101208088015161ffff95861663ffffffff19909416939093176201000095909216949094021760ff60201b19166401000000009115159190910217905561014084015160088401556101609093015160099092019190915580519182018152600e825280518082018252601a81527f5072656d69756d20526963652053656564202842756e646c652900000000000060208281019190915280840191909152815160018082528184018452928401929091828101908036833750505081526040805160018082528183019092526020928301929091908083019080368337505050815266038d7ea4c68000602080830191909152600060408301819052600160608401526103e86080840181905260a090930192909252600e90915260038152815160008051602062006f898339815191529081559082015160008051602062006f49833981519152906200079c9082620021a0565b5060408201518051620007ba916002840191602090910190620020a4565b5060608201518051620007d8916003840191602090910190620020a4565b506080820151600482015560a082015160058201805460c08501511515600160a01b026001600160a81b03199091166001600160a01b039093169290921791909117905560e0820151600682015561010090910151600790910155600e6000908152600360205260008051602062006f298339815191528054600a92906200086457620008646200226c565b6000918252602080832090910192909255600e8152600390915260008051602062006ec9833981519152805460029290620008a357620008a36200226c565b60009182526020808320909101929092556040805161018081018252600b80825282518084018452601981527f48796272696420526963652053656564202853696e676c6529000000000000008187015282860190815292820184905266038d7ea4c6800060608301526080820184905261019060a083015261012c60c0830152604660e0830181905261010083015260016101208301526107d06101408301819052610160830152909252600290925280517fab9952baf6478d8cfb7253ce86a6c53a7b7549582c76210b1581ae682b7e556f90815591519091907fab9952baf6478d8cfb7253ce86a6c53a7b7549582c76210b1581ae682b7e557090620009ad9082620021a0565b5060408281015160028301805460ff191660ff9092169190911790556060830151600383015560808301516004830180546001600160a01b0319166001600160a01b0390921691909117905560a0830151600583015560c0830151600683015560e08301516007830180546101008601516101208088015161ffff95861663ffffffff19909416939093176201000095909216949094021760ff60201b19166401000000009115159190910217905561014084015160088401556101609093015160099092019190915580519182018152600f825280518082018252601981527f48796272696420526963652053656564202842756e646c6529000000000000006020828101919091528084019190915281516001808252818401845292840192909182810190803683375050508152604080516001808252818301909252602092830192909190808301908036833750505081526604f94ae6af8000602080830191909152600060408301819052600160608401526101f46080840181905260a090930192909252600f909152600381528151600080516020620070098339815191529081559082015160008051602062006fa98339815191529062000b759082620021a0565b506040820151805162000b93916002840191602090910190620020a4565b506060820151805162000bb1916003840191602090910190620020a4565b506080820151600482015560a082015160058201805460c08501511515600160a01b026001600160a81b03199091166001600160a01b039093169290921791909117905560e0820151600682015561010090910151600790910155600f6000908152600360205260008051602062006ee98339815191528054600b929062000c3d5762000c3d6200226c565b6000918252602080832090910192909255600f8152600390915260008051602062006f6983398151915280546002929062000c7c5762000c7c6200226c565b60009182526020808320909101929092556040805161018081018252601180825282518084018452601981527f476f6c64656e20486172766573746572202853696e676c6529000000000000008187015282860190815260019383018490526602d79883d2000060608401526080830185905260a0830185905260c0830185905260e083018590526101008301859052610120830193909352610ea66101408301819052610160830152909252600290925280517fa4e0f4432e44d027a7b3f953940f096bca7a9bd910297cad2ba7c703c2b799d390815591519091907fa4e0f4432e44d027a7b3f953940f096bca7a9bd910297cad2ba7c703c2b799d49062000d879082620021a0565b5060408281015160028301805460ff191660ff9092169190911790556060830151600383015560808301516004830180546001600160a01b0319166001600160a01b0390921691909117905560a0830151600583015560c0830151600683015560e08301516007830180546101008601516101208088015161ffff95861663ffffffff19909416939093176201000095909216949094021760ff60201b191664010000000091151591909102179055610140840151600884015561016090930151600990920191909155805191820181526010825280518082018252601981527f476f6c64656e20486172766573746572202842756e646c6529000000000000006020828101919091528084019190915281516001808252818401845292840192909182810190803683375050508152604080516001808252818301909252602092830192909190808301908036833750505081526605af3107a40000602080830191909152600060408301819052600160608401526107536080840181905260a09093019290925260109091526003815281517f47d4745e02b343689a5e7ac121d2a352b7a15c10328a8759fd7d4cf0999002bb908155908201517f47d4745e02b343689a5e7ac121d2a352b7a15c10328a8759fd7d4cf0999002bc9062000f719082620021a0565b506040820151805162000f8f916002840191602090910190620020a4565b506060820151805162000fad916003840191602090910190620020a4565b506080820151600482015560a082015160058201805460c08501511515600160a01b026001600160a81b03199091166001600160a01b039093169290921791909117905560e08201516006820155610100909101516007909101556010600090815260036020527f47d4745e02b343689a5e7ac121d2a352b7a15c10328a8759fd7d4cf0999002bd8054601192906200104a576200104a6200226c565b60009182526020808320909101929092556010815260039091527f47d4745e02b343689a5e7ac121d2a352b7a15c10328a8759fd7d4cf0999002be8054600292906200109a576200109a6200226c565b60009182526020808320909101929092556040805161018081018252600c80825282518084018452601381527f46657274696c697a657220537072656164657200000000000000000000000000818701528286019081526001938301849052606083018590526080830185905260a0830185905260c08301859052601960e0840152600f6101008401526101208301939093526127106101408301819052610160830152909252600290925280517fbd814762a7e35d5c162a7570d14baa68bd622cabb1ad83d40dd70f8a88aa67c090815591519091907fbd814762a7e35d5c162a7570d14baa68bd622cabb1ad83d40dd70f8a88aa67c1906200119f9082620021a0565b5060408201518160020160006101000a81548160ff021916908360ff1602179055506060820151816003015560808201518160040160006101000a8154816001600160a01b0302191690836001600160a01b0316021790555060a0820151816005015560c0820151816006015560e08201518160070160006101000a81548161ffff021916908361ffff1602179055506101008201518160070160026101000a81548161ffff021916908361ffff1602179055506101208201518160070160046101000a81548160ff02191690831515021790555061014082015181600801556101608201518160090155905050604051806101800160405280600481526020016040518060400160405280600e81526020016d537461727465722042756e646c6560901b8152508152602001600060ff1681526020016000815260200160006001600160a01b031681526020016000815260200160008152602001600061ffff168152602001600061ffff1681526020016001151581526020016103e881526020016103e881525060026000600481526020019081526020016000206000820151816000015560208201518160010190816200135d9190620021a0565b5060408201518160020160006101000a81548160ff021916908360ff1602179055506060820151816003015560808201518160040160006101000a8154816001600160a01b0302191690836001600160a01b0316021790555060a0820151816005015560c0820151816006015560e08201518160070160006101000a81548161ffff021916908361ffff1602179055506101008201518160070160026101000a81548161ffff021916908361ffff1602179055506101208201518160070160046101000a81548160ff02191690831515021790555061014082015181600801556101608201518160090155905050604051806101800160405280600681526020016040518060400160405280601481526020017f4175746f2d5761746572696e672053797374656d0000000000000000000000008152508152602001600160ff1681526020016000815260200160006001600160a01b031681526020016000815260200160008152602001600061ffff168152602001600061ffff1681526020016001151581526020016161a881526020016161a881525060026000600681526020019081526020016000206000820151816000015560208201518160010190816200152a9190620021a0565b5060408201518160020160006101000a81548160ff021916908360ff1602179055506060820151816003015560808201518160040160006101000a8154816001600160a01b0302191690836001600160a01b0316021790555060a0820151816005015560c0820151816006015560e08201518160070160006101000a81548161ffff021916908361ffff1602179055506101008201518160070160026101000a81548161ffff021916908361ffff1602179055506101208201518160070160046101000a81548160ff02191690831515021790555061014082015181600801556101608201518160090155905050604051806101800160405280600581526020016040518060400160405280600c81526020016b2bb0ba32b934b7339021b0b760a11b8152508152602001600160ff16815260200166016911c3f9d000815260200160006001600160a01b031681526020016000815260200160008152602001600061ffff168152602001600061ffff16815260200160011515815260200161c350815260200161c3508152506002600060058152602001908152602001600020600082015181600001556020820151816001019081620016ec9190620021a0565b5060408281015160028301805460ff191660ff9092169190911790556060830151600383015560808301516004830180546001600160a01b0319166001600160a01b0390921691909117905560a0830151600583015560c0830151600683015560e08301516007830180546101008601516101208088015161ffff95861663ffffffff19909416939093176201000095909216949094021760ff60201b19166401000000009115159190910217905561014084015160088401556101609093015160099092019190915580519182018152600d825280518082018252601881527f426173696320526963652053656564202842756e646c65290000000000000000602082810191909152808401919091528151600180825281840184529284019290918281019080368337505050815260408051600180825281830190925260209283019290919080830190803683375050508152660221b262dd8000602080830191909152600060408301819052600160608401526103e86080840181905260a090930192909252600d90915260038152815160008051602062006f098339815191529081559082015160008051602062006fe983398151915290620018b49082620021a0565b5060408201518051620018d2916002840191602090910190620020a4565b5060608201518051620018f0916003840191602090910190620020a4565b506080820151600482015560a082015160058201805460c08501511515600160a01b026001600160a81b03199091166001600160a01b039093169290921791909117905560e0820151600682015561010090910151600790910155600d6000908152600360205260008051602062006fc98339815191528054600992906200197c576200197c6200226c565b6000918252602080832090910192909255600d8152600390915260008051602062007029833981519152805460059290620019bb57620019bb6200226c565b9060005260206000200181905550604051806101200160405280600e81526020016040518060400160405280601a81526020017f5072656d69756d20526963652053656564202842756e646c6529000000000000815250815260200160016001600160401b0381111562001a335762001a33620020f9565b60405190808252806020026020018201604052801562001a5d578160200160208202803683370190505b50815260408051600180825281830190925260209092019190816020016020820280368337505050815266038d7ea4c68000602080830191909152600060408301819052600160608401526103e86080840181905260a090930192909252600e90915260038152815160008051602062006f898339815191529081559082015160008051602062006f498339815191529062001afa9082620021a0565b506040820151805162001b18916002840191602090910190620020a4565b506060820151805162001b36916003840191602090910190620020a4565b506080820151600482015560a082015160058201805460c08501511515600160a01b026001600160a81b03199091166001600160a01b039093169290921791909117905560e0820151600682015561010090910151600790910155600e6000908152600360205260008051602062006f298339815191528054600a929062001bc25762001bc26200226c565b6000918252602080832090910192909255600e8152600390915260008051602062006ec983398151915280546002929062001c015762001c016200226c565b9060005260206000200181905550604051806101200160405280600f81526020016040518060400160405280601981526020017f48796272696420526963652053656564202842756e646c652900000000000000815250815260200160016001600160401b0381111562001c795762001c79620020f9565b60405190808252806020026020018201604052801562001ca3578160200160208202803683370190505b5081526040805160018082528183019092526020909201919081602001602082028036833750505081526604f94ae6af8000602080830191909152600060408301819052600160608401526101f46080840181905260a090930192909252600f909152600381528151600080516020620070098339815191529081559082015160008051602062006fa98339815191529062001d409082620021a0565b506040820151805162001d5e916002840191602090910190620020a4565b506060820151805162001d7c916003840191602090910190620020a4565b506080820151600482015560a082015160058201805460c08501511515600160a01b026001600160a81b03199091166001600160a01b039093169290921791909117905560e0820151600682015561010090910151600790910155600f6000908152600360205260008051602062006ee98339815191528054600b929062001e085762001e086200226c565b6000918252602080832090910192909255600f8152600390915260008051602062006f6983398151915280546002929062001e475762001e476200226c565b60009182526020808320909101929092556040805161018081018252600880825282518084018452600e81526d22b732b933bc902137b7b9ba32b960911b818701528286019081526002938301849052606083018590526080830185905260a0830185905260c0830185905260e0830185905261010083018590526001610120840152611f4061014084018190526101608401529352925281517f3a5ea591190eeb3f8fcdced843c78df04ec0dfd42f5510375207515664fa0a7590815590517f3a5ea591190eeb3f8fcdced843c78df04ec0dfd42f5510375207515664fa0a769062001f359082620021a0565b50604082015160028201805460ff90921660ff199092169190911790556060820151600382015560808201516004820180546001600160a01b039092166001600160a01b031990921691909117905560a0820151600582015560c0820151600682015560e082015160078201805461010085015161012086015115156401000000000260ff60201b1961ffff928316620100000263ffffffff199094169290951691909117919091179290921691909117905561014082015160088201556101609091015160099091015562002282565b600080546001600160a01b038381166001600160a01b0319831681178455604051919092169283917f8be0079c531659141344cd1fd0a4f28419497f9722a3daafe3b4186f6b6457e09190a35050565b826007810192821562002092579160200282015b828111156200209257825182906001600160401b03169055916020019190600101906200206a565b50620020a0929150620020e2565b5090565b82805482825590600052602060002090810192821562002092579160200282015b8281111562002092578251825591602001919060010190620020c5565b5b80821115620020a05760008155600101620020e3565b634e487b7160e01b600052604160045260246000fd5b600181811c908216806200212457607f821691505b6020821081036200214557634e487b7160e01b600052602260045260246000fd5b50919050565b601f8211156200219b576000816000526020600020601f850160051c81016020861015620021765750805b601f850160051c820191505b81811015620021975782815560010162002182565b5050505b505050565b81516001600160401b03811115620021bc57620021bc620020f9565b620021d481620021cd84546200210f565b846200214b565b602080601f8311600181146200220c5760008415620021f35750858301515b600019600386901b1c1916600185901b17855562002197565b600085815260208120601f198616915b828110156200223d578886015182559484019460019091019084016200221c565b50858210156200225c5787850151600019600388901b60f8161c191681555b5050505050600190811b01905550565b634e487b7160e01b600052603260045260246000fd5b614c3780620022926000396000f3fe60806040526004361061041f5760003560e01c80638719c20a1161021e578063d291d1f211610123578063e68b02cc116100ab578063edf2fe731161007a578063edf2fe7314610dc2578063f2fde38b14610dd5578063f3274a1f14610df5578063f9e38f9c14610e0a578063fee99c7214610e2a57600080fd5b8063e68b02cc14610d4d578063e6f26df214610d62578063e9da722f14610d82578063edc0c03814610da257600080fd5b8063ddc63262116100f2578063ddc6326214610c98578063e086e5ec14610cb8578063e1f7d38a14610ccd578063e203fffc14610cfd578063e630d24114610d3857600080fd5b8063d291d1f214610be6578063d4ac469f14610c13578063d6eacb6514610c4b578063d7a8ac0b14610c6057600080fd5b8063b0a79a99116101a6578063cd4d1a1811610175578063cd4d1a1814610b54578063ce882f3614610b74578063ced031d614610b89578063cf19384b14610b9e578063d13e335314610bd157600080fd5b8063b0a79a9914610ac7578063b203dc6014610adc578063bfb231d214610afc578063c7f7034614610b3457600080fd5b80639d633e77116101ed5780639d633e7714610a3d578063a4d3f55714610a5d578063a512542114610a7d578063a8ad451314610a9d578063b07e9a8b14610ab257600080fd5b80638719c20a146109b657806389476069146109cb5780638da5cb5b146109eb5780639b7eb3d014610a1d57600080fd5b80634c321a891161032457806375651e77116102ac57806383f8b7e21161027b57806383f8b7e21461092a5780638456cb591461093f578063851044ec14610954578063860ecd8c146109815780638673fb8b146109a157600080fd5b806375651e771461088557806375b9ea1d146108b257806377f8c837146108d257806379e072421461090a57600080fd5b80635a48d79d116102f35780635a48d79d146107e45780635c975abb1461081157806360e3ab0b1461083057806366c3b5fa14610850578063715018a61461087057600080fd5b80634c321a89146106c85780634f87e8641461078457806353abfc85146107a457806354cb5399146107c457600080fd5b80632a1bbd1f116103a75780633f4ba83a116103765780633f4ba83a1461061e578063451420cb14610633578063484bb244146106535780634a7dc8e0146106935780634bf8b2c6146106b357600080fd5b80632a1bbd1f1461058957806335a23e7b146105a95780633603f8d1146105d657806338ee59b9146105fe57600080fd5b806313c066f8116103ee57806313c066f8146104f257806314c84f3a1461050557806314d3a9c0146105325780631f36c9071461054757806329e6d6811461055c57600080fd5b8063073e57d21461042b57806307bd03ba1461044d5780630da0d7a5146104985780630f13dda4146104c557600080fd5b3661042657005b600080fd5b34801561043757600080fd5b5061044b610446366004614124565b610e57565b005b34801561045957600080fd5b50610485610468366004614159565b600460209081526000928352604080842090915290825290205481565b6040519081526020015b60405180910390f35b3480156104a457600080fd5b506104856104b3366004614183565b600c6020526000908152604090205481565b3480156104d157600080fd5b506104856104e0366004614124565b600f6020526000908152604090205481565b61044b6105003660046141a5565b611196565b34801561051157600080fd5b50610485610520366004614183565b60086020526000908152604090205481565b34801561053e57600080fd5b50610485600681565b34801561055357600080fd5b50610485600881565b34801561056857600080fd5b50610485610577366004614183565b60076020526000908152604090205481565b34801561059557600080fd5b5061044b6105a43660046141da565b611513565b3480156105b557600080fd5b506104856105c4366004614183565b600a6020526000908152604090205481565b3480156105e257600080fd5b506105eb600081565b60405161ffff909116815260200161048f565b34801561060a57600080fd5b5061044b6106193660046141da565b611646565b34801561062a57600080fd5b5061044b611840565b34801561063f57600080fd5b5061044b61064e36600461433d565b611852565b34801561065f57600080fd5b5061068361066e366004614183565b60106020526000908152604090205460ff1681565b604051901515815260200161048f565b34801561069f57600080fd5b5061044b6106ae366004614183565b6119aa565b3480156106bf57600080fd5b506105eb604681565b3480156106d457600080fd5b506107406106e3366004614159565b6005602081815260009384526040808520909152918352912080546001820154600283015460038401546004850154949095015492949193909261ffff8084169362010000810490911692600160201b90910460ff908116921688565b6040805198895260208901979097529587019490945261ffff928316606087015291166080850152151560a084015260c0830152151560e08201526101000161048f565b34801561079057600080fd5b5061044b61079f3660046141da565b611a0d565b3480156107b057600080fd5b5061044b6107bf3660046141da565b611ef0565b3480156107d057600080fd5b5061044b6107df3660046144c8565b611f0a565b3480156107f057600080fd5b506104856107ff366004614183565b600b6020526000908152604090205481565b34801561081d57600080fd5b50600054600160a01b900460ff16610683565b34801561083c57600080fd5b5061044b61084b36600461433d565b61202c565b34801561085c57600080fd5b5061044b61086b366004614124565b612034565b34801561087c57600080fd5b5061044b61205a565b34801561089157600080fd5b506108a56108a03660046145cb565b61206c565b60405161048f9190614651565b3480156108be57600080fd5b5061044b6108cd366004614124565b6121e9565b3480156108de57600080fd5b506104856108ed366004614159565b601a60209081526000928352604080842090915290825290205481565b34801561091657600080fd5b5061044b610925366004614124565b612343565b34801561093657600080fd5b5061044b61249b565b34801561094b57600080fd5b5061044b6125f2565b34801561096057600080fd5b5061097461096f3660046145cb565b612602565b60405161048f919061472a565b34801561098d57600080fd5b5061044b61099c366004614124565b6126bc565b3480156109ad57600080fd5b5061044b6128cd565b3480156109c257600080fd5b50610485600b81565b3480156109d757600080fd5b5061044b6109e6366004614183565b612b1e565b3480156109f757600080fd5b506000546001600160a01b03165b6040516001600160a01b03909116815260200161048f565b348015610a2957600080fd5b5061044b610a38366004614183565b612c41565b348015610a4957600080fd5b50601854610a05906001600160a01b031681565b348015610a6957600080fd5b5061044b610a78366004614183565b612ce1565b348015610a8957600080fd5b5061044b610a98366004614183565b612d0b565b348015610aa957600080fd5b50610485600581565b348015610abe57600080fd5b50610485600a81565b348015610ad357600080fd5b50610485601281565b348015610ae857600080fd5b50610485610af7366004614124565b612d64565b348015610b0857600080fd5b50610b1c610b17366004614124565b612d7b565b60405161048f9c9b9a99989796959493929190614783565b348015610b4057600080fd5b5061044b610b4f3660046141da565b612e7c565b348015610b6057600080fd5b5061044b610b6f366004614124565b612ef3565b348015610b8057600080fd5b5061044b613063565b348015610b9557600080fd5b5061044b6131cc565b348015610baa57600080fd5b50610bbe610bb9366004614124565b613536565b60405161048f9796959493929190614800565b348015610bdd57600080fd5b50610485600c81565b348015610bf257600080fd5b50610485610c01366004614183565b60066020526000908152604090205481565b348015610c1f57600080fd5b50610485610c2e366004614159565b601960209081526000928352604080842090915290825290205481565b348015610c5757600080fd5b50610485601181565b348015610c6c57600080fd5b50610485610c7b366004614159565b601b60209081526000928352604080842090915290825290205481565b348015610ca457600080fd5b5061044b610cb3366004614124565b61360a565b348015610cc457600080fd5b5061044b61389d565b348015610cd957600080fd5b50610683610ce8366004614183565b600d6020526000908152604090205460ff1681565b348015610d0957600080fd5b50610683610d18366004614159565b600e60209081526000928352604080842090915290825290205460ff1681565b348015610d4457600080fd5b50610485600981565b348015610d5957600080fd5b50610485600781565b348015610d6e57600080fd5b5061044b610d7d366004614183565b61392f565b348015610d8e57600080fd5b5061044b610d9d366004614124565b6139ce565b348015610dae57600080fd5b5061044b610dbd3660046144c8565b613a9c565b61044b610dd03660046141a5565b613aa4565b348015610de157600080fd5b5061044b610df0366004614183565b613ece565b348015610e0157600080fd5b50610485600481565b348015610e1657600080fd5b5061044b610e25366004614124565b613f09565b348015610e3657600080fd5b50610485610e45366004614183565b60096020526000908152604090205481565b610e5f613f30565b610e67613f5b565b33600090815260046020908152604080832060118452909152902054610ed45760405162461bcd60e51b815260206004820152601e60248201527f4e65656420476f6c64656e20486172766573746572202853696e676c6529000060448201526064015b60405180910390fd5b33600090815260056020908152604080832084845290915290206003810154600160201b900460ff16610f195760405162461bcd60e51b8152600401610ecb9061484c565b8060020154421015610f595760405162461bcd60e51b81526020600482015260096024820152684e6f7420726561647960b81b6044820152606401610ecb565b33600090815260196020908152604080832060118452909152902054610fba5760405162461bcd60e51b8152602060048201526016602482015275139bc81a185c9d995cdd195c881d5cd95cc81b19599d60521b6044820152606401610ecb565b336000908152601960209081526040808320601184529091528120805460019290610fe690849061488b565b90915550503360009081526019602090815260408083206011845290915281205490036110755733600090815260046020908152604080832060118452909152812080546001929061103990849061488b565b90915550506040516011815233907f67fee10f0e1435ad6c8f94181c2652853b5a45f1098c096c13b98bb742f56c049060200160405180910390a25b8054600090815260026020526040812060038301549091906103e8906110a59062010000900461ffff16826148a4565b61ffff1683600501546110b891906148c6565b6110c291906148f3565b9050600060646110d38360146148c6565b6110dd91906148f3565b905060006110eb8284614907565b336000908152600c602052604081208054929350839290919061110f908490614907565b909155505060038501805464ff0000000019169055604080518781526020810183905233917f81ca9b2c230070eaa84787556b1aaf18bf1e2f07ea5d3dae4819db77a1a5b224910160405180910390a2336000908152600b6020526040812080546001929061117f908490614907565b909155505060018055506111939350505050565b50565b61119e613f30565b6111a6613f5b565b60008381526002602052604090206007810154600160201b900460ff166111ff5760405162461bcd60e51b815260206004820152600d60248201526c4974656d20696e61637469766560981b6044820152606401610ecb565b82816009015410156112235760405162461bcd60e51b8152600401610ecb9061491a565b600083116112685760405162461bcd60e51b81526020600482015260126024820152710416d6f756e74206d757374206265203e20360741b6044820152606401610ecb565b60006001600160a01b03831615611280576000611290565b83826003015461129091906148c6565b90506001600160a01b0383166112e857803410156112e35760405162461bcd60e51b815260206004820152601060248201526f092dce6eaccccd2c6d2cadce8408aa8960831b6044820152606401610ecb565b611361565b6040516323b872dd60e01b8152336004820152306024820152604481018290526001600160a01b038416906323b872dd906064016020604051808303816000875af115801561133b573d6000803e3d6000fd5b505050506040513d601f19601f8201168201806040525081019061135f9190614947565b505b83826009016000828254611375919061488b565b9091555050336000908152600460209081526040808320888452909152812080548692906113a4908490614907565b9091555050600282015460ff166000036113e857336000908152601a60209081526040808320888452909152812080548692906113e2908490614907565b90915550505b600282015460ff16600103611432576114028460056148c6565b3360009081526019602090815260408083208984529091528120805490919061142c908490614907565b90915550505b604080516001808252818301909252600091602080830190803683375050604080516001808252818301909252929350600092915060208083019080368337019050509050868260008151811061148b5761148b614964565b60200260200101818152505085816000815181106114ab576114ab614964565b602002602001018181525050336001600160a01b03167f0faa30265942b056f8379458c99d8bce44d758b6c4e762355961a2ec3de64d416000848489886040516114f995949392919061497a565b60405180910390a25050505061150e60018055565b505050565b61151b613f30565b611523613f5b565b3360009081526004602090815260408083208584529091529020546115745760405162461bcd60e51b8152602060048201526007602482015266139bc81d1bdbdb60ca1b6044820152606401610ecb565b60008281526002602052604090206007810154600160201b900460ff1680156115a45750600281015460ff166001145b6115df5760405162461bcd60e51b815260206004820152600c60248201526b125b9d985b1a59081d1bdbdb60a21b6044820152606401610ecb565b336000908152600460209081526040808320868452909152812080546001929061160a90849061488b565b909155505060408051848152602081018490523391600080516020614be2833981519152910160405180910390a25061164260018055565b5050565b61164e613f30565b611656613f5b565b60008281526002602052604090206007810154600160201b900460ff166116af5760405162461bcd60e51b815260206004820152600d60248201526c4974656d20696e61637469766560981b6044820152606401610ecb565b81816009015410156116d35760405162461bcd60e51b8152600401610ecb9061491a565b60038101541561171d5760405162461bcd60e51b81526020600482015260156024820152744e6f7420616e2052542d707269636564206974656d60581b6044820152606401610ecb565b6000611732836802b5e3af16b18800006148c6565b336000908152600c60205260409020549091508111156117845760405162461bcd60e51b815260206004820152600d60248201526c139bdd08195b9bdd59da081495609a1b6044820152606401610ecb565b336000908152600c6020526040812080548392906117a390849061488b565b92505081905550828260090160008282546117be919061488b565b9091555050336000908152600460209081526040808320878452909152812080548592906117ed908490614907565b9091555050604080518581526020810185905290810182905233907f0d60605d69a1fe7571d54b1ffc1cf6018cc3d4ef8398467410ae50018331d3169060600160405180910390a2505061164260018055565b611848613f85565b611850613fb2565b565b61185a613f85565b805160009081526002602052604081205490036118af5760405162461bcd60e51b8152602060048201526013602482015272125d195b48191bd95cc81b9bdd08195e1a5cdd606a1b6044820152606401610ecb565b80516000908152600260209081526040909120825181559082015182919060018201906118dc9082614a4d565b50604082015160028201805460ff90921660ff199092169190911790556060820151600382015560808201516004820180546001600160a01b039092166001600160a01b031990921691909117905560a0820151600582015560c0820151600682015560e08201516007820180546101008501516101208601511515600160201b0264ff000000001961ffff928316620100000263ffffffff199094169290951691909117919091179290921691909117905561014082015160088201556101609091015160099091015550565b6119b2613f85565b6001600160a01b038116600081815260106020908152604091829020805460ff1916600117905590519182527fa317c10673baf4f03b3c1041bd5ddbb537d0333a86fec3607c75f9dbb630f48f91015b60405180910390a150565b611a15613f30565b611a1d613f5b565b3360009081526005602081815260408084208685529091529091209081015460ff1615611a855760405162461bcd60e51b8152602060048201526016602482015275105c1c1b1e4819995c9d1a5b1a5e995c88199a5c9cdd60521b6044820152606401610ecb565b336000908152600460209081526040808320858452909152902054611ad75760405162461bcd60e51b81526020600482015260086024820152674e6f20736565647360c01b6044820152606401610ecb565b60008281526002602052604090206007810154600160201b900460ff168015611b055750600281015460ff16155b611b405760405162461bcd60e51b815260206004820152600c60248201526b125b9d985b1a59081cd9595960a21b6044820152606401610ecb565b6007810154604661ffff9091161115611b975760405162461bcd60e51b815260206004820152601960248201527847726f77746820626f6e7573206f7574206f662072616e676560381b6044820152606401610ecb565b600781015460466201000090910461ffff161115611bf25760405162461bcd60e51b81526020600482015260186024820152775969656c6420626f6e7573206f7574206f662072616e676560401b6044820152606401610ecb565b3360009081526004602090815260408083208684529091528120805460019290611c1d90849061488b565b9091555050336000908152601b6020908152604080832086845290915290205415611c7857336000908152601b602090815260408083208684529091528120805460019290611c6d90849061488b565b90915550611d009050565b336000908152601a6020908152604080832086845290915290205415611cc357336000908152601a602090815260408083208684529091528120805460019290611c6d90849061488b565b60405162461bcd60e51b81526020600482015260126024820152714e6f20736565647320617661696c61626c6560701b6044820152606401610ecb565b60078101546000906103e890611d1a9061ffff1682614b0d565b61ffff168360060154611d2d91906148c6565b611d3791906148f3565b90506040518061010001604052808581526020014281526020018242611d5d9190614907565b81526020018360070160009054906101000a900461ffff1661ffff1681526020018360070160029054906101000a900461ffff1661ffff168152602001600115158152602001600081526020016000151581525060056000336001600160a01b03166001600160a01b03168152602001908152602001600020600087815260200190815260200160002060008201518160000155602082015181600101556040820151816002015560608201518160030160006101000a81548161ffff021916908361ffff16021790555060808201518160030160026101000a81548161ffff021916908361ffff16021790555060a08201518160030160046101000a81548160ff02191690831515021790555060c0820151816004015560e08201518160050160006101000a81548160ff021916908315150217905550905050336001600160a01b03167fbff838f2fb339f78375289b45e530f7c7785d3d2a337193ebc7901faea10ef3a8686604051611edc929190918252602082015260400190565b60405180910390a250505061164260018055565b611ef8613f85565b6000918252600f602052604090912055565b611f12613f85565b80516000908152600360205260408120549003611f695760405162461bcd60e51b8152602060048201526015602482015274109d5b991b1948191bd95cc81b9bdd08195e1a5cdd605a1b6044820152606401610ecb565b8051600090815260036020908152604090912082518155908201518291906001820190611f969082614a4d565b5060408201518051611fb29160028401916020909101906140c4565b5060608201518051611fce9160038401916020909101906140c4565b506080820151600482015560a082015160058201805460c08501511515600160a01b026001600160a81b03199091166001600160a01b039093169290921791909117905560e082015160068201556101009091015160079091015550565b6118af613f85565b61203c613f85565b6000908152600360205260409020600501805460ff60a01b19169055565b612062613f85565b6118506000614007565b606060008267ffffffffffffffff811115612089576120896141fc565b6040519080825280602002602001820160405280156120f857816020015b604080516101008101825260008082526020808301829052928201819052606082018190526080820181905260a0820181905260c0820181905260e082015282526000199092019101816120a75790505b50905060005b838110156121e0576001600160a01b03861660009081526005602052604081209086868481811061213157612131614964565b6020908102929092013583525081810192909252604090810160002081516101008101835281548152600182015493810193909352600281015491830191909152600381015461ffff808216606085015262010000820416608084015260ff600160201b9091048116151560a0840152600482015460c084015260059091015416151560e082015282518390839081106121cd576121cd614964565b60209081029190910101526001016120fe565b50949350505050565b6121f1613f30565b6121f9613f5b565b336000908152600e6020908152604080832084845290915290205460ff161561225c5760405162461bcd60e51b8152602060048201526015602482015274145d595cdd08185b1c9958591e4818db185a5b5959605a1b6044820152606401610ecb565b6000818152600f6020526040902054806122b85760405162461bcd60e51b815260206004820152601a60248201527f496e76616c6964207175657374206f72206e6f207265776172640000000000006044820152606401610ecb565b336000908152600c6020526040812080548392906122d7908490614907565b9091555050336000818152600e60209081526040808320868452825291829020805460ff1916600117905581518581529081018490527f89ddf70f60dee0505eb22a143daf80046698f56a9e1c9421cbd95c486199306f91015b60405180910390a25061119360018055565b61234b613f30565b612353613f5b565b3360009081526004602090815260408083208484529091529020546123a75760405162461bcd60e51b815260206004820152600a6024820152694e6f207570677261646560b01b6044820152606401610ecb565b60008181526002602052604090206007810154600160201b900460ff1680156123d6575060028082015460ff16145b6124145760405162461bcd60e51b815260206004820152600f60248201526e496e76616c6964207570677261646560881b6044820152606401610ecb565b336000908152600460209081526040808320858452909152812080546001929061243f90849061488b565b9091555050336000908152600a60205260408120805460019290612464908490614907565b909155505060405182815233907f64df0f68d7580b0900ece6245824a2cc4c50b47a830e4b867313abc3f3b516c890602001612331565b6124a3613f30565b6124ab613f5b565b336000908152600660205260408120546124c790600790614b28565b336000908152600760205260409020549091506124e79062015180614907565b421161252d5760405162461bcd60e51b8152602060048201526015602482015274416c726561647920636c61696d656420746f64617960581b6044820152606401610ecb565b60006011826007811061254257612542614964565b0154336000908152600c6020526040812080549293508392909190612568908490614907565b909155505033600090815260066020526040812080546001929061258d908490614907565b90915550503360008181526007602052604090204290557f564485e821cf8ba18a499f35679b99b9fba6f9886a625dd2a70b79da8cb5ba066125d0846001614907565b60408051918252602082018590520160405180910390a2505061185060018055565b6125fa613f85565b611850614057565b606060008267ffffffffffffffff81111561261f5761261f6141fc565b604051908082528060200260200182016040528015612648578160200160208202803683370190505b50905060005b838110156121e0576001600160a01b03861660009081526004602052604081209086868481811061268157612681614964565b905060200201358152602001908152602001600020548282815181106126a9576126a9614964565b602090810291909101015260010161264e565b6126c4613f30565b6126cc613f5b565b336000908152600460209081526040808320600c84529091529020546127245760405162461bcd60e51b815260206004820152600d60248201526c2737902332b93a34b634bd32b960991b6044820152606401610ecb565b33600090815260056020908152604080832084845290915290206003810154600160201b900460ff166127695760405162461bcd60e51b8152600401610ecb9061484c565b336000908152600460209081526040808320600c8452909152812080546001929061279590849061488b565b909155505060018101546000906127ac904261488b565b6003830180549192506019916000906127ca90849061ffff166148a4565b92506101000a81548161ffff021916908361ffff160217905550600f8260030160028282829054906101000a900461ffff1661280691906148a4565b82546101009290920a61ffff81810219909316918316021790915583546000908152600260205260408120600386015490935090916103e89161284a911682614b0d565b61ffff16836006015461285d91906148c6565b61286791906148f3565b90508083101561288f5761287b838261488b565b6128859042614907565b6002850155612896565b4260028501555b60408051600c8152602081018790523391600080516020614be2833981519152910160405180910390a25050505061119360018055565b6128d5613f30565b6128dd613f5b565b336000908152600460209081526040808320600684529091529020546129455760405162461bcd60e51b815260206004820152601760248201527f4e6f204175746f2d5761746572696e672053797374656d0000000000000000006044820152606401610ecb565b336000908152601960209081526040808320600684529091529020546129ad5760405162461bcd60e51b815260206004820152601a60248201527f4e6f206175746f2d7761746572696e672075736573206c6566740000000000006044820152606401610ecb565b6000805b6010811015612a205733600090815260056020908152604080832084845290915290206003810154600160201b900460ff1615612a1757604080516006815260208101849052600194503391600080516020614be2833981519152910160405180910390a25b506001016129b1565b508015612b1457336000908152600460209081526040808320600684529091528120805460019290612a5390849061488b565b9091555050336000908152601960209081526040808320600684529091528120805460019290612a8490849061488b565b9091555050336000908152601960209081526040808320600684529091528120549003612b1457336000908152600460209081526040808320600684529091528120805460019290612ad790849061488b565b90915550506040516006815233907f67fee10f0e1435ad6c8f94181c2652853b5a45f1098c096c13b98bb742f56c04906020015b60405180910390a25b5061185060018055565b612b26613f85565b6040516370a0823160e01b81523060048201526000906001600160a01b038316906370a0823190602401602060405180830381865afa158015612b6d573d6000803e3d6000fd5b505050506040513d601f19601f82011682018060405250810190612b919190614b3c565b905060008111612bd05760405162461bcd60e51b815260206004820152600a6024820152694e6f2062616c616e636560b01b6044820152606401610ecb565b60405163a9059cbb60e01b8152336004820152602481018290526001600160a01b0383169063a9059cbb906044016020604051808303816000875af1158015612c1d573d6000803e3d6000fd5b505050506040513d601f19601f8201168201806040525081019061150e9190614947565b60005b6010811015611642576001600160a01b038216600090815260056020908152604080832084845290915290206003810154600160201b900460ff168015612c8f575080600201544210155b15612cd857826001600160a01b03167f11c42d52b352031ab932886e32b045f3fc5055ace50a7365cd2b005979ba950583604051612ccf91815260200190565b60405180910390a25b50600101612c44565b612ce9613f85565b601880546001600160a01b0319166001600160a01b0392909216919091179055565b612d13613f85565b6001600160a01b038116600081815260106020908152604091829020805460ff1916905590519182527f85a3e72f8dd6db3794f93109c3c5f5b79d6112f6979431c45f98b26134b42af29101611a02565b60118160078110612d7457600080fd5b0154905081565b60026020526000908152604090208054600182018054919291612d9d906149c3565b80601f0160208091040260200160405190810160405280929190818152602001828054612dc9906149c3565b8015612e165780601f10612deb57610100808354040283529160200191612e16565b820191906000526020600020905b815481529060010190602001808311612df957829003601f168201915b505050506002830154600384015460048501546005860154600687015460078801546008890154600990990154979860ff968716989597506001600160a01b03909416959294919361ffff8083169462010000840490911693600160201b90930416918c565b612e84613f85565b6000828152600260205260408120549003612ed75760405162461bcd60e51b8152602060048201526013602482015272125d195b48191bd95cc81b9bdd08195e1a5cdd606a1b6044820152606401610ecb565b6000918252600260205260409091206008810182905560090155565b612efb613f30565b612f03613f5b565b3360009081526005602081815260408084208585529091529091209081015460ff16612f715760405162461bcd60e51b815260206004820152601d60248201527f506c6f7420646f6573206e6f74206e6565642066657274696c697a65720000006044820152606401610ecb565b6004810154612f8390621baf80614907565b421015612fc65760405162461bcd60e51b815260206004820152601160248201527021b7b7b63237bbb7103737ba1037bb32b960791b6044820152606401610ecb565b336000908152600460209081526040808320600c845290915290205461301e5760405162461bcd60e51b815260206004820152600d60248201526c2737903332b93a34b634bd32b960991b6044820152606401610ecb565b336000908152600460209081526040808320600c8452909152812080546001929061304a90849061488b565b9091555050600501805460ff1916905561119360018055565b61306b613f5b565b336000908152600c60205260409020546801158e460913d000008110156130d45760405162461bcd60e51b815260206004820152601b60248201527f4d75737420636c61696d206174206c65617374203230205249534500000000006044820152606401610ecb565b336000818152600c602052604080822091909155601854905163a9059cbb60e01b81526004810192909252602482018390526001600160a01b03169063a9059cbb906044016020604051808303816000875af1158015613138573d6000803e3d6000fd5b505050506040513d601f19601f8201168201806040525081019061315c9190614947565b61319a5760405162461bcd60e51b815260206004820152600f60248201526e151c985b9cd9995c8819985a5b1959608a1b6044820152606401610ecb565b60405181815233907f2988752f8fcb52b8c982219deefd82a981754ed258f421467a7133874ba9f29090602001612b0b565b6131d4613f30565b6131dc613f5b565b336000908152600460209081526040808320601284529091529020546132445760405162461bcd60e51b815260206004820152601e60248201527f4e65656420476f6c64656e20486172766573746572202842756e646c652900006044820152606401610ecb565b60008060005b60108110156133a15733600090815260056020908152604080832084845290915290206003810154600160201b900460ff16801561328c575080600201544210155b15613398578054600090815260026020526040812060038301549091906103e8906132c19062010000900461ffff16826148a4565b61ffff1683600501546132d491906148c6565b6132de91906148f3565b9050600060646132ef8360146148c6565b6132f991906148f3565b905060006133078284614907565b90506133138189614907565b60038601805464ff000000001916905597508661332f81614b55565b336000908152600b602052604081208054929a506001935091613353908490614907565b9091555050604080518781526020810183905233917f81ca9b2c230070eaa84787556b1aaf18bf1e2f07ea5d3dae4819db77a1a5b224910160405180910390a2505050505b5060010161324a565b50600081116133e35760405162461bcd60e51b815260206004820152600e60248201526d4e6f20706c6f747320726561647960901b6044820152606401610ecb565b3360009081526019602090815260408083206012845290915290205461344b5760405162461bcd60e51b815260206004820152601d60248201527f4e6f206861727665737465722062756e646c652075736573206c6566740000006044820152606401610ecb565b33600090815260196020908152604080832060128452909152812080546001929061347790849061488b565b9091555050336000908152601960209081526040808320601284529091528120549003613506573360009081526004602090815260408083206012845290915281208054600192906134ca90849061488b565b90915550506040516012815233907f67fee10f0e1435ad6c8f94181c2652853b5a45f1098c096c13b98bb742f56c049060200160405180910390a25b336000908152600c602052604081208054849290613525908490614907565b909155505060018055506118509050565b60036020526000908152604090208054600182018054919291613558906149c3565b80601f0160208091040260200160405190810160405280929190818152602001828054613584906149c3565b80156135d15780601f106135a6576101008083540402835291602001916135d1565b820191906000526020600020905b8154815290600101906020018083116135b457829003601f168201915b50505050600483015460058401546006850154600790950154939491936001600160a01b0382169350600160a01b90910460ff16919087565b613612613f30565b61361a613f5b565b33600090815260056020908152604080832084845290915290206003810154600160201b900460ff1661365f5760405162461bcd60e51b8152600401610ecb9061484c565b806002015442101561369f5760405162461bcd60e51b81526020600482015260096024820152684e6f7420726561647960b81b6044820152606401610ecb565b805460009081526002602081905260409091209081015460ff16156136f35760405162461bcd60e51b815260206004820152600a602482015269139bdd0818481cd9595960b21b6044820152606401610ecb565b6003820154604661ffff909116111561374a5760405162461bcd60e51b815260206004820152601960248201527847726f77746820626f6e7573206f7574206f662072616e676560381b6044820152606401610ecb565b600382015460466201000090910461ffff1611156137a55760405162461bcd60e51b81526020600482015260186024820152775969656c6420626f6e7573206f7574206f662072616e676560401b6044820152606401610ecb565b60038201546000906103e8906137c59062010000900461ffff16826148a4565b61ffff1683600501546137d891906148c6565b6137e291906148f3565b336000908152600c6020526040812080549293508392909190613806908490614907565b909155505060038301805464ff000000001916905542600484015560058301805460ff19166001179055604080518581526020810183905233917f81ca9b2c230070eaa84787556b1aaf18bf1e2f07ea5d3dae4819db77a1a5b224910160405180910390a2336000908152600b6020526040812080546001929061388b908490614907565b90915550506001805550611193915050565b6138a5613f85565b604051600090339047908381818185875af1925050503d80600081146138e7576040519150601f19603f3d011682016040523d82523d6000602084013e6138ec565b606091505b50509050806111935760405162461bcd60e51b815260206004820152600f60248201526e15da5d1a191c985dc819985a5b1959608a1b6044820152606401610ecb565b60005b6010811015611642576001600160a01b038216600090815260056020908152604080832084845290915290206003810154600160201b900460ff16801561397c5750806002015442105b156139c557826001600160a01b03167f3ad3dd486d6804864bd604a17ff5d932e3bf0493d580c0d7e093073bd3440d28836040516139bc91815260200190565b60405180910390a25b50600101613932565b6139d6613f30565b6139de613f5b565b33600090815260046020908152604080832060058452909152902054613a385760405162461bcd60e51b815260206004820152600f60248201526e2737903bb0ba32b934b7339031b0b760891b6044820152606401610ecb565b336000908152600460209081526040808320600584529091528120805460019290613a6490849061488b565b90915550506040805160058152602081018390523391600080516020614be2833981519152910160405180910390a261119360018055565b611f69613f85565b613aac613f30565b613ab4613f5b565b60008381526003602052604090206005810154600160a01b900460ff16613b0f5760405162461bcd60e51b815260206004820152600f60248201526e42756e646c6520696e61637469766560881b6044820152606401610ecb565b8281600701541015613b635760405162461bcd60e51b815260206004820152601a60248201527f496e73756666696369656e742062756e646c6520737570706c790000000000006044820152606401610ecb565b60006001600160a01b03831615613b7b576000613b8b565b838260040154613b8b91906148c6565b90506001600160a01b038316613be35780341015613bde5760405162461bcd60e51b815260206004820152601060248201526f092dce6eaccccd2c6d2cadce8408aa8960831b6044820152606401610ecb565b613c5c565b6040516323b872dd60e01b8152336004820152306024820152604481018290526001600160a01b038416906323b872dd906064016020604051808303816000875af1158015613c36573d6000803e3d6000fd5b505050506040513d601f19601f82011682018060405250810190613c5a9190614947565b505b60005b6002830154811015613dc3576000836002018281548110613c8257613c82614964565b90600052602060002001549050600086856003018481548110613ca757613ca7614964565b9060005260206000200154613cbc91906148c6565b600083815260026020526040902060090154909150811115613cf05760405162461bcd60e51b8152600401610ecb9061491a565b60008281526002602052604081206009018054839290613d1190849061488b565b909155505060008281526002602081905260408220015460ff169003613d6157336000908152601b6020908152604080832085845290915281208054839290613d5b908490614907565b90915550505b6000828152600260208190526040909120015460ff16600103613db957613d898160056148c6565b33600090815260196020908152604080832086845290915281208054909190613db3908490614907565b90915550505b5050600101613c5f565b5083826007016000828254613dd8919061488b565b90915550600090505b6002830154811015613e755784836003018281548110613e0357613e03614964565b9060005260206000200154613e1891906148c6565b33600090815260046020526040812060028601805491929185908110613e4057613e40614964565b906000526020600020015481526020019081526020016000206000828254613e689190614907565b9091555050600101613de1565b50336001600160a01b03167f854931d3a8461ab9d0412c3e03f884c9911fbec9854941d26b4c14d88c6b055086846002018560030185604051613ebb9493929190614ba4565b60405180910390a2505061150e60018055565b613ed6613f85565b6001600160a01b038116613f0057604051631e4fbdf760e01b815260006004820152602401610ecb565b61119381614007565b613f11613f85565b6000908152600260205260409020600701805464ff0000000019169055565b600054600160a01b900460ff16156118505760405163d93c066560e01b815260040160405180910390fd5b600260015403613f7e57604051633ee5aeb560e01b815260040160405180910390fd5b6002600155565b6000546001600160a01b031633146118505760405163118cdaa760e01b8152336004820152602401610ecb565b613fba61409a565b6000805460ff60a01b191690557f5db9ee0a495bf2e6ff9c91a7834c1ba4fdd244a5e8aa4e537bd38aeae4b073aa335b6040516001600160a01b03909116815260200160405180910390a1565b600080546001600160a01b038381166001600160a01b0319831681178455604051919092169283917f8be0079c531659141344cd1fd0a4f28419497f9722a3daafe3b4186f6b6457e09190a35050565b61405f613f30565b6000805460ff60a01b1916600160a01b1790557f62e78cea01bee320cd4e420270b5ea74000d11b0c9f74754ebdbfc544b05a258613fea3390565b600054600160a01b900460ff1661185057604051638dfc202b60e01b815260040160405180910390fd5b8280548282559060005260206000209081019282156140ff579160200282015b828111156140ff5782518255916020019190600101906140e4565b5061410b92915061410f565b5090565b5b8082111561410b5760008155600101614110565b60006020828403121561413657600080fd5b5035919050565b80356001600160a01b038116811461415457600080fd5b919050565b6000806040838503121561416c57600080fd5b6141758361413d565b946020939093013593505050565b60006020828403121561419557600080fd5b61419e8261413d565b9392505050565b6000806000606084860312156141ba57600080fd5b83359250602084013591506141d16040850161413d565b90509250925092565b600080604083850312156141ed57600080fd5b50508035926020909101359150565b634e487b7160e01b600052604160045260246000fd5b604051610180810167ffffffffffffffff81118282101715614236576142366141fc565b60405290565b604051610120810167ffffffffffffffff81118282101715614236576142366141fc565b604051601f8201601f1916810167ffffffffffffffff81118282101715614289576142896141fc565b604052919050565b600082601f8301126142a257600080fd5b813567ffffffffffffffff8111156142bc576142bc6141fc565b6142cf601f8201601f1916602001614260565b8181528460208386010111156142e457600080fd5b816020850160208301376000918101602001919091529392505050565b803560ff8116811461415457600080fd5b803561ffff8116811461415457600080fd5b801515811461119357600080fd5b803561415481614324565b60006020828403121561434f57600080fd5b813567ffffffffffffffff8082111561436757600080fd5b90830190610180828603121561437c57600080fd5b614384614212565b8235815260208301358281111561439a57600080fd5b6143a687828601614291565b6020830152506143b860408401614301565b6040820152606083013560608201526143d36080840161413d565b608082015260a083013560a082015260c083013560c08201526143f860e08401614312565b60e0820152610100915061440d828401614312565b828201526101209150614421828401614332565b91810191909152610140828101359082015261016091820135918101919091529392505050565b600082601f83011261445957600080fd5b8135602067ffffffffffffffff821115614475576144756141fc565b8160051b614484828201614260565b928352848101820192828101908785111561449e57600080fd5b83870192505b848310156144bd578235825291830191908301906144a4565b979650505050505050565b6000602082840312156144da57600080fd5b813567ffffffffffffffff808211156144f257600080fd5b90830190610120828603121561450757600080fd5b61450f61423c565b8235815260208301358281111561452557600080fd5b61453187828601614291565b60208301525060408301358281111561454957600080fd5b61455587828601614448565b60408301525060608301358281111561456d57600080fd5b61457987828601614448565b6060830152506080830135608082015261459560a0840161413d565b60a08201526145a660c08401614332565b60c082015260e083810135908201526101009283013592810192909252509392505050565b6000806000604084860312156145e057600080fd5b6145e98461413d565b9250602084013567ffffffffffffffff8082111561460657600080fd5b818601915086601f83011261461a57600080fd5b81358181111561462957600080fd5b8760208260051b850101111561463e57600080fd5b6020830194508093505050509250925092565b602080825282518282018190526000919060409081850190868401855b828110156146e1578151805185528681015187860152858101518686015260608082015161ffff908116918701919091526080808301519091169086015260a08082015115159086015260c0808201519086015260e090810151151590850152610100909301929085019060010161466e565b5091979650505050505050565b60008151808452602080850194506020840160005b8381101561471f57815187529582019590820190600101614703565b509495945050505050565b60208152600061419e60208301846146ee565b6000815180845260005b8181101561476357602081850181015186830182015201614747565b506000602082860101526020601f19601f83011685010191505092915050565b60006101808e835280602084015261479d8184018f61473d565b60ff9d909d166040840152505060608101999099526001600160a01b0397909716608089015260a088019590955260c087019390935261ffff91821660e08701521661010085015215156101208401526101408301526101609091015292915050565b87815260e06020820152600061481960e083018961473d565b6040830197909752506001600160a01b03949094166060850152911515608084015260a083015260c09091015292915050565b6020808252600f908201526e4e6f7468696e672067726f77696e6760881b604082015260600190565b634e487b7160e01b600052601160045260246000fd5b8181038181111561489e5761489e614875565b92915050565b61ffff8181168382160190808211156148bf576148bf614875565b5092915050565b808202811582820484141761489e5761489e614875565b634e487b7160e01b600052601260045260246000fd5b600082614902576149026148dd565b500490565b8082018082111561489e5761489e614875565b602080825260139082015272496e73756666696369656e7420737570706c7960681b604082015260600190565b60006020828403121561495957600080fd5b815161419e81614324565b634e487b7160e01b600052603260045260246000fd5b85815260a06020820152600061499360a08301876146ee565b82810360408401526149a581876146ee565b6001600160a01b039590951660608401525050608001529392505050565b600181811c908216806149d757607f821691505b6020821081036149f757634e487b7160e01b600052602260045260246000fd5b50919050565b601f82111561150e576000816000526020600020601f850160051c81016020861015614a265750805b601f850160051c820191505b81811015614a4557828155600101614a32565b505050505050565b815167ffffffffffffffff811115614a6757614a676141fc565b614a7b81614a7584546149c3565b846149fd565b602080601f831160018114614ab05760008415614a985750858301515b600019600386901b1c1916600185901b178555614a45565b600085815260208120601f198616915b82811015614adf57888601518255948401946001909101908401614ac0565b5085821015614afd5787850151600019600388901b60f8161c191681555b5050505050600190811b01905550565b61ffff8281168282160390808211156148bf576148bf614875565b600082614b3757614b376148dd565b500690565b600060208284031215614b4e57600080fd5b5051919050565b600060018201614b6757614b67614875565b5060010190565b600081548084526020808501945083600052602060002060005b8381101561471f57815487529582019560019182019101614b88565b848152608060208201526000614bbd6080830186614b6e565b8281036040840152614bcf8186614b6e565b9150508260608301529594505050505056fed29993d7389aafeb1ae0eebfcc0e2b777c314426c46ed802d5116187380125d5a2646970667358221220160288192cd146856b2c591edbd4f9a50729961f1116b97ad8c44151a6b99bc564736f6c63430008180033d6ebcc64c739277b117ce359e436534b234b76e914c80ad276abf5b56207893cf60b7f6a315ec68a6ac240e69dca53652b38627f709a2caa217d9e18af4d7a62a8f2d96126c6d0ad63adabaef7bf5cf47f163fb0c218a473d28f62312d197bcfd6ebcc64c739277b117ce359e436534b234b76e914c80ad276abf5b56207893bd6ebcc64c739277b117ce359e436534b234b76e914c80ad276abf5b56207893af60b7f6a315ec68a6ac240e69dca53652b38627f709a2caa217d9e18af4d7a63d6ebcc64c739277b117ce359e436534b234b76e914c80ad276abf5b562078939f60b7f6a315ec68a6ac240e69dca53652b38627f709a2caa217d9e18af4d7a61a8f2d96126c6d0ad63adabaef7bf5cf47f163fb0c218a473d28f62312d197bd1a8f2d96126c6d0ad63adabaef7bf5cf47f163fb0c218a473d28f62312d197bd0f60b7f6a315ec68a6ac240e69dca53652b38627f709a2caa217d9e18af4d7a60a8f2d96126c6d0ad63adabaef7bf5cf47f163fb0c218a473d28f62312d197bd2",
  "linkReferences": {},
  "deployedLinkReferences": {}
}