{
  "_format": "hh-sol-artifact-1",
  "contractName": "RiseFarming",
  "sourceName": "contracts/RiseFarming.sol",
  "abi": [
    {
      "inputs": [],
      "stateMutability": "nonpayable",
      "type": "constructor"
    },
    {
      "inputs": [],
      "name": "EnforcedPause",
      "type": "error"
    },
    {
      "inputs": [],
      "name": "ExpectedPause",
      "type": "error"
    },
    {
      "inputs": [
        {
          "internalType": "address",
          "name": "owner",
          "type": "address"
        }
      ],
      "name": "OwnableInvalidOwner",
      "type": "error"
    },
    {
      "inputs": [
        {
          "internalType": "address",
          "name": "account",
          "type": "address"
        }
      ],
      "name": "OwnableUnauthorizedAccount",
      "type": "error"
    },
    {
      "inputs": [],
      "name": "ReentrancyGuardReentrantCall",
      "type": "error"
    },
    {
      "anonymous": false,
      "inputs": [
        {
          "indexed": true,
          "internalType": "address",
          "name": "user",
          "type": "address"
        },
        {
          "indexed": false,
          "internalType": "uint256",
          "name": "bundleId",
          "type": "uint256"
        },
        {
          "indexed": false,
          "internalType": "uint256[]",
          "name": "itemIds",
          "type": "uint256[]"
        },
        {
          "indexed": false,
          "internalType": "uint256[]",
          "name": "amounts",
          "type": "uint256[]"
        },
        {
          "indexed": false,
          "internalType": "uint256",
          "name": "price",
          "type": "uint256"
        }
      ],
      "name": "BundlePurchased",
      "type": "event"
    },
    {
      "anonymous": false,
      "inputs": [
        {
          "indexed": true,
          "internalType": "address",
          "name": "user",
          "type": "address"
        },
        {
          "indexed": false,
          "internalType": "uint256",
          "name": "day",
          "type": "uint256"
        },
        {
          "indexed": false,
          "internalType": "uint256",
          "name": "reward",
          "type": "uint256"
        }
      ],
      "name": "DailyRewardClaimed",
      "type": "event"
    },
    {
      "anonymous": false,
      "inputs": [
        {
          "indexed": true,
          "internalType": "address",
          "name": "user",
          "type": "address"
        },
        {
          "indexed": false,
          "internalType": "uint256",
          "name": "upgradeId",
          "type": "uint256"
        }
      ],
      "name": "FarmUpgraded",
      "type": "event"
    },
    {
      "anonymous": false,
      "inputs": [
        {
          "indexed": true,
          "internalType": "address",
          "name": "user",
          "type": "address"
        },
        {
          "indexed": false,
          "internalType": "uint256",
          "name": "plotId",
          "type": "uint256"
        },
        {
          "indexed": false,
          "internalType": "uint256",
          "name": "reward",
          "type": "uint256"
        }
      ],
      "name": "Harvested",
      "type": "event"
    },
    {
      "anonymous": false,
      "inputs": [
        {
          "indexed": true,
          "internalType": "address",
          "name": "user",
          "type": "address"
        },
        {
          "indexed": false,
          "internalType": "uint256",
          "name": "bundleId",
          "type": "uint256"
        },
        {
          "indexed": false,
          "internalType": "uint256[]",
          "name": "itemIds",
          "type": "uint256[]"
        },
        {
          "indexed": false,
          "internalType": "uint256[]",
          "name": "amounts",
          "type": "uint256[]"
        },
        {
          "indexed": false,
          "internalType": "address",
          "name": "paymentToken",
          "type": "address"
        },
        {
          "indexed": false,
          "internalType": "uint256",
          "name": "price",
          "type": "uint256"
        }
      ],
      "name": "ItemPurchased",
      "type": "event"
    },
    {
      "anonymous": false,
      "inputs": [
        {
          "indexed": true,
          "internalType": "address",
          "name": "user",
          "type": "address"
        },
        {
          "indexed": false,
          "internalType": "uint256",
          "name": "itemId",
          "type": "uint256"
        },
        {
          "indexed": false,
          "internalType": "uint256",
          "name": "amount",
          "type": "uint256"
        },
        {
          "indexed": false,
          "internalType": "uint256",
          "name": "totalRT",
          "type": "uint256"
        }
      ],
      "name": "ItemPurchasedWithRT",
      "type": "event"
    },
    {
      "anonymous": false,
      "inputs": [
        {
          "indexed": true,
          "internalType": "address",
          "name": "previousOwner",
          "type": "address"
        },
        {
          "indexed": true,
          "internalType": "address",
          "name": "newOwner",
          "type": "address"
        }
      ],
      "name": "OwnershipTransferred",
      "type": "event"
    },
    {
      "anonymous": false,
      "inputs": [
        {
          "indexed": false,
          "internalType": "address",
          "name": "account",
          "type": "address"
        }
      ],
      "name": "Paused",
      "type": "event"
    },
    {
      "anonymous": false,
      "inputs": [
        {
          "indexed": false,
          "internalType": "address",
          "name": "token",
          "type": "address"
        }
      ],
      "name": "PaymentTokenAdded",
      "type": "event"
    },
    {
      "anonymous": false,
      "inputs": [
        {
          "indexed": false,
          "internalType": "address",
          "name": "token",
          "type": "address"
        }
      ],
      "name": "PaymentTokenRemoved",
      "type": "event"
    },
    {
      "anonymous": false,
      "inputs": [
        {
          "indexed": true,
          "internalType": "address",
          "name": "user",
          "type": "address"
        },
        {
          "indexed": false,
          "internalType": "uint256",
          "name": "plotId",
          "type": "uint256"
        }
      ],
      "name": "PlotAutoWatered",
      "type": "event"
    },
    {
      "anonymous": false,
      "inputs": [
        {
          "indexed": true,
          "internalType": "address",
          "name": "user",
          "type": "address"
        },
        {
          "indexed": false,
          "internalType": "uint256",
          "name": "plotId",
          "type": "uint256"
        }
      ],
      "name": "PlotReady",
      "type": "event"
    },
    {
      "anonymous": false,
      "inputs": [
        {
          "indexed": true,
          "internalType": "address",
          "name": "user",
          "type": "address"
        },
        {
          "indexed": false,
          "internalType": "uint256",
          "name": "questId",
          "type": "uint256"
        },
        {
          "indexed": false,
          "internalType": "uint256",
          "name": "reward",
          "type": "uint256"
        }
      ],
      "name": "QuestRewardClaimed",
      "type": "event"
    },
    {
      "anonymous": false,
      "inputs": [
        {
          "indexed": true,
          "internalType": "address",
          "name": "user",
          "type": "address"
        },
        {
          "indexed": false,
          "internalType": "uint256",
          "name": "amount",
          "type": "uint256"
        }
      ],
      "name": "RiseClaimed",
      "type": "event"
    },
    {
      "anonymous": false,
      "inputs": [
        {
          "indexed": true,
          "internalType": "address",
          "name": "user",
          "type": "address"
        },
        {
          "indexed": false,
          "internalType": "uint256",
          "name": "plotId",
          "type": "uint256"
        },
        {
          "indexed": false,
          "internalType": "uint256",
          "name": "seedId",
          "type": "uint256"
        }
      ],
      "name": "SeedPlanted",
      "type": "event"
    },
    {
      "anonymous": false,
      "inputs": [
        {
          "indexed": true,
          "internalType": "address",
          "name": "user",
          "type": "address"
        },
        {
          "indexed": false,
          "internalType": "uint256",
          "name": "toolId",
          "type": "uint256"
        },
        {
          "indexed": false,
          "internalType": "uint256",
          "name": "plotId",
          "type": "uint256"
        }
      ],
      "name": "ToolUsed",
      "type": "event"
    },
    {
      "anonymous": false,
      "inputs": [
        {
          "indexed": false,
          "internalType": "address",
          "name": "account",
          "type": "address"
        }
      ],
      "name": "Unpaused",
      "type": "event"
    },
    {
      "inputs": [],
      "name": "AUTO_WATERING_SYSTEM_ID",
      "outputs": [
        {
          "internalType": "uint256",
          "name": "",
          "type": "uint256"
        }
      ],
      "stateMutability": "view",
      "type": "function"
    },
    {
      "inputs": [],
      "name": "BASIC_SEED_SINGLE_ID",
      "outputs": [
        {
          "internalType": "uint256",
          "name": "",
          "type": "uint256"
        }
      ],
      "stateMutability": "view",
      "type": "function"
    },
    {
      "inputs": [],
      "name": "ENERGY_BOOSTER_ID",
      "outputs": [
        {
          "internalType": "uint256",
          "name": "",
          "type": "uint256"
        }
      ],
      "stateMutability": "view",
      "type": "function"
    },
    {
      "inputs": [],
      "name": "FERTILIZER_SPREADER_ID",
      "outputs": [
        {
          "internalType": "uint256",
          "name": "",
          "type": "uint256"
        }
      ],
      "stateMutability": "view",
      "type": "function"
    },
    {
      "inputs": [],
      "name": "GOLDEN_HARVESTER_BUNDLE_ID",
      "outputs": [
        {
          "internalType": "uint256",
          "name": "",
          "type": "uint256"
        }
      ],
      "stateMutability": "view",
      "type": "function"
    },
    {
      "inputs": [],
      "name": "GOLDEN_HARVESTER_SINGLE_ID",
      "outputs": [
        {
          "internalType": "uint256",
          "name": "",
          "type": "uint256"
        }
      ],
      "stateMutability": "view",
      "type": "function"
    },
    {
      "inputs": [],
      "name": "HARVESTER_ID",
      "outputs": [
        {
          "internalType": "uint256",
          "name": "",
          "type": "uint256"
        }
      ],
      "stateMutability": "view",
      "type": "function"
    },
    {
      "inputs": [],
      "name": "HYBRID_SEED_SINGLE_ID",
      "outputs": [
        {
          "internalType": "uint256",
          "name": "",
          "type": "uint256"
        }
      ],
      "stateMutability": "view",
      "type": "function"
    },
    {
      "inputs": [],
      "name": "MAX_BONUS_BP",
      "outputs": [
        {
          "internalType": "uint16",
          "name": "",
          "type": "uint16"
        }
      ],
      "stateMutability": "view",
      "type": "function"
    },
    {
      "inputs": [],
      "name": "MIN_BONUS_BP",
      "outputs": [
        {
          "internalType": "uint16",
          "name": "",
          "type": "uint16"
        }
      ],
      "stateMutability": "view",
      "type": "function"
    },
    {
      "inputs": [],
      "name": "PREMIUM_SEED_SINGLE_ID",
      "outputs": [
        {
          "internalType": "uint256",
          "name": "",
          "type": "uint256"
        }
      ],
      "stateMutability": "view",
      "type": "function"
    },
    {
      "inputs": [],
      "name": "STARTER_BUNDLE_ID",
      "outputs": [
        {
          "internalType": "uint256",
          "name": "",
          "type": "uint256"
        }
      ],
      "stateMutability": "view",
      "type": "function"
    },
    {
      "inputs": [],
      "name": "WATERING_CAN_ID",
      "outputs": [
        {
          "internalType": "uint256",
          "name": "",
          "type": "uint256"
        }
      ],
      "stateMutability": "view",
      "type": "function"
    },
    {
      "inputs": [
        {
          "internalType": "address",
          "name": "",
          "type": "address"
        }
      ],
      "name": "acceptedPaymentTokens",
      "outputs": [
        {
          "internalType": "bool",
          "name": "",
          "type": "bool"
        }
      ],
      "stateMutability": "view",
      "type": "function"
    },
    {
      "inputs": [
        {
          "components": [
            {
              "internalType": "uint256",
              "name": "id",
              "type": "uint256"
            },
            {
              "internalType": "string",
              "name": "name",
              "type": "string"
            },
            {
              "internalType": "uint256[]",
              "name": "itemIds",
              "type": "uint256[]"
            },
            {
              "internalType": "uint256[]",
              "name": "itemAmounts",
              "type": "uint256[]"
            },
            {
              "internalType": "uint256",
              "name": "priceETH",
              "type": "uint256"
            },
            {
              "internalType": "address",
              "name": "paymentToken",
              "type": "address"
            },
            {
              "internalType": "bool",
              "name": "active",
              "type": "bool"
            },
            {
              "internalType": "uint256",
              "name": "maxSupply",
              "type": "uint256"
            },
            {
              "internalType": "uint256",
              "name": "supply",
              "type": "uint256"
            }
          ],
          "internalType": "struct RiseFarming.Bundle",
          "name": "bundle",
          "type": "tuple"
        }
      ],
      "name": "addBundle",
      "outputs": [],
      "stateMutability": "nonpayable",
      "type": "function"
    },
    {
      "inputs": [
        {
          "components": [
            {
              "internalType": "uint256",
              "name": "id",
              "type": "uint256"
            },
            {
              "internalType": "string",
              "name": "name",
              "type": "string"
            },
            {
              "internalType": "uint8",
              "name": "itemType",
              "type": "uint8"
            },
            {
              "internalType": "uint256",
              "name": "priceETH",
              "type": "uint256"
            },
            {
              "internalType": "address",
              "name": "paymentToken",
              "type": "address"
            },
            {
              "internalType": "uint256",
              "name": "baseReward",
              "type": "uint256"
            },
            {
              "internalType": "uint256",
              "name": "baseGrowthTime",
              "type": "uint256"
            },
            {
              "internalType": "uint16",
              "name": "growthBonusBP",
              "type": "uint16"
            },
            {
              "internalType": "uint16",
              "name": "yieldBonusBP",
              "type": "uint16"
            },
            {
              "internalType": "bool",
              "name": "active",
              "type": "bool"
            },
            {
              "internalType": "uint256",
              "name": "maxSupply",
              "type": "uint256"
            },
            {
              "internalType": "uint256",
              "name": "supply",
              "type": "uint256"
            }
          ],
          "internalType": "struct RiseFarming.Item",
          "name": "item",
          "type": "tuple"
        }
      ],
      "name": "addItem",
      "outputs": [],
      "stateMutability": "nonpayable",
      "type": "function"
    },
    {
      "inputs": [
        {
          "internalType": "address",
          "name": "token",
          "type": "address"
        }
      ],
      "name": "addPaymentToken",
      "outputs": [],
      "stateMutability": "nonpayable",
      "type": "function"
    },
    {
      "inputs": [
        {
          "internalType": "uint256",
          "name": "plotId",
          "type": "uint256"
        }
      ],
      "name": "applyFertilizer",
      "outputs": [],
      "stateMutability": "nonpayable",
      "type": "function"
    },
    {
      "inputs": [],
      "name": "autoWaterCrops",
      "outputs": [],
      "stateMutability": "nonpayable",
      "type": "function"
    },
    {
      "inputs": [
        {
          "internalType": "address",
          "name": "user",
          "type": "address"
        }
      ],
      "name": "autoWaterPlotsForUser",
      "outputs": [],
      "stateMutability": "nonpayable",
      "type": "function"
    },
    {
      "inputs": [
        {
          "internalType": "uint256",
          "name": "",
          "type": "uint256"
        }
      ],
      "name": "bundles",
      "outputs": [
        {
          "internalType": "uint256",
          "name": "id",
          "type": "uint256"
        },
        {
          "internalType": "string",
          "name": "name",
          "type": "string"
        },
        {
          "internalType": "uint256",
          "name": "priceETH",
          "type": "uint256"
        },
        {
          "internalType": "address",
          "name": "paymentToken",
          "type": "address"
        },
        {
          "internalType": "bool",
          "name": "active",
          "type": "bool"
        },
        {
          "internalType": "uint256",
          "name": "maxSupply",
          "type": "uint256"
        },
        {
          "internalType": "uint256",
          "name": "supply",
          "type": "uint256"
        }
      ],
      "stateMutability": "view",
      "type": "function"
    },
    {
      "inputs": [
        {
          "internalType": "uint256",
          "name": "bundleId",
          "type": "uint256"
        },
        {
          "internalType": "uint256",
          "name": "amount",
          "type": "uint256"
        },
        {
          "internalType": "address",
          "name": "paymentToken",
          "type": "address"
        }
      ],
      "name": "buyBundle",
      "outputs": [],
      "stateMutability": "payable",
      "type": "function"
    },
    {
      "inputs": [
        {
          "internalType": "uint256",
          "name": "itemId",
          "type": "uint256"
        },
        {
          "internalType": "uint256",
          "name": "amount",
          "type": "uint256"
        },
        {
          "internalType": "address",
          "name": "paymentToken",
          "type": "address"
        }
      ],
      "name": "buyItem",
      "outputs": [],
      "stateMutability": "payable",
      "type": "function"
    },
    {
      "inputs": [
        {
          "internalType": "uint256",
          "name": "itemId",
          "type": "uint256"
        },
        {
          "internalType": "uint256",
          "name": "amount",
          "type": "uint256"
        }
      ],
      "name": "buyItemWithGameRT",
      "outputs": [],
      "stateMutability": "nonpayable",
      "type": "function"
    },
    {
      "inputs": [],
      "name": "claimDailyReward",
      "outputs": [],
      "stateMutability": "nonpayable",
      "type": "function"
    },
    {
      "inputs": [
        {
          "internalType": "uint256",
          "name": "questId",
          "type": "uint256"
        }
      ],
      "name": "claimQuestReward",
      "outputs": [],
      "stateMutability": "nonpayable",
      "type": "function"
    },
    {
      "inputs": [],
      "name": "claimRiseTokens",
      "outputs": [],
      "stateMutability": "nonpayable",
      "type": "function"
    },
    {
      "inputs": [
        {
          "internalType": "address",
          "name": "",
          "type": "address"
        },
        {
          "internalType": "uint256",
          "name": "",
          "type": "uint256"
        }
      ],
      "name": "claimedQuests",
      "outputs": [
        {
          "internalType": "bool",
          "name": "",
          "type": "bool"
        }
      ],
      "stateMutability": "view",
      "type": "function"
    },
    {
      "inputs": [
        {
          "internalType": "uint256",
          "name": "",
          "type": "uint256"
        }
      ],
      "name": "dailyRewards",
      "outputs": [
        {
          "internalType": "uint256",
          "name": "",
          "type": "uint256"
        }
      ],
      "stateMutability": "view",
      "type": "function"
    },
    {
      "inputs": [
        {
          "internalType": "uint256",
          "name": "bundleId",
          "type": "uint256"
        }
      ],
      "name": "deactivateBundle",
      "outputs": [],
      "stateMutability": "nonpayable",
      "type": "function"
    },
    {
      "inputs": [
        {
          "internalType": "uint256",
          "name": "itemId",
          "type": "uint256"
        }
      ],
      "name": "deactivateItem",
      "outputs": [],
      "stateMutability": "nonpayable",
      "type": "function"
    },
    {
      "inputs": [
        {
          "internalType": "address",
          "name": "",
          "type": "address"
        }
      ],
      "name": "farmLevel",
      "outputs": [
        {
          "internalType": "uint256",
          "name": "",
          "type": "uint256"
        }
      ],
      "stateMutability": "view",
      "type": "function"
    },
    {
      "inputs": [
        {
          "internalType": "address",
          "name": "user",
          "type": "address"
        },
        {
          "internalType": "uint256[]",
          "name": "itemIds",
          "type": "uint256[]"
        }
      ],
      "name": "getUserInventory",
      "outputs": [
        {
          "internalType": "uint256[]",
          "name": "",
          "type": "uint256[]"
        }
      ],
      "stateMutability": "view",
      "type": "function"
    },
    {
      "inputs": [
        {
          "internalType": "address",
          "name": "user",
          "type": "address"
        },
        {
          "internalType": "uint256[]",
          "name": "plotIds",
          "type": "uint256[]"
        }
      ],
      "name": "getUserPlots",
      "outputs": [
        {
          "components": [
            {
              "internalType": "uint256",
              "name": "seedId",
              "type": "uint256"
            },
            {
              "internalType": "uint256",
              "name": "plantedAt",
              "type": "uint256"
            },
            {
              "internalType": "uint256",
              "name": "readyAt",
              "type": "uint256"
            },
            {
              "internalType": "uint16",
              "name": "growthBonusBP",
              "type": "uint16"
            },
            {
              "internalType": "uint16",
              "name": "yieldBonusBP",
              "type": "uint16"
            },
            {
              "internalType": "bool",
              "name": "growing",
              "type": "bool"
            }
          ],
          "internalType": "struct RiseFarming.Plot[]",
          "name": "",
          "type": "tuple[]"
        }
      ],
      "stateMutability": "view",
      "type": "function"
    },
    {
      "inputs": [
        {
          "internalType": "uint256",
          "name": "plotId",
          "type": "uint256"
        }
      ],
      "name": "harvest",
      "outputs": [],
      "stateMutability": "nonpayable",
      "type": "function"
    },
    {
      "inputs": [
        {
          "internalType": "uint256",
          "name": "plotId",
          "type": "uint256"
        }
      ],
      "name": "harvestWithGoldenHarvester",
      "outputs": [],
      "stateMutability": "nonpayable",
      "type": "function"
    },
    {
      "inputs": [
        {
          "internalType": "address",
          "name": "",
          "type": "address"
        }
      ],
      "name": "hasAutoWatering",
      "outputs": [
        {
          "internalType": "bool",
          "name": "",
          "type": "bool"
        }
      ],
      "stateMutability": "view",
      "type": "function"
    },
    {
      "inputs": [
        {
          "internalType": "uint256",
          "name": "",
          "type": "uint256"
        }
      ],
      "name": "items",
      "outputs": [
        {
          "internalType": "uint256",
          "name": "id",
          "type": "uint256"
        },
        {
          "internalType": "string",
          "name": "name",
          "type": "string"
        },
        {
          "internalType": "uint8",
          "name": "itemType",
          "type": "uint8"
        },
        {
          "internalType": "uint256",
          "name": "priceETH",
          "type": "uint256"
        },
        {
          "internalType": "address",
          "name": "paymentToken",
          "type": "address"
        },
        {
          "internalType": "uint256",
          "name": "baseReward",
          "type": "uint256"
        },
        {
          "internalType": "uint256",
          "name": "baseGrowthTime",
          "type": "uint256"
        },
        {
          "internalType": "uint16",
          "name": "growthBonusBP",
          "type": "uint16"
        },
        {
          "internalType": "uint16",
          "name": "yieldBonusBP",
          "type": "uint16"
        },
        {
          "internalType": "bool",
          "name": "active",
          "type": "bool"
        },
        {
          "internalType": "uint256",
          "name": "maxSupply",
          "type": "uint256"
        },
        {
          "internalType": "uint256",
          "name": "supply",
          "type": "uint256"
        }
      ],
      "stateMutability": "view",
      "type": "function"
    },
    {
      "inputs": [
        {
          "internalType": "address",
          "name": "",
          "type": "address"
        }
      ],
      "name": "lastClaimedDay",
      "outputs": [
        {
          "internalType": "uint256",
          "name": "",
          "type": "uint256"
        }
      ],
      "stateMutability": "view",
      "type": "function"
    },
    {
      "inputs": [],
      "name": "multiHarvestWithGoldenHarvester",
      "outputs": [],
      "stateMutability": "nonpayable",
      "type": "function"
    },
    {
      "inputs": [],
      "name": "owner",
      "outputs": [
        {
          "internalType": "address",
          "name": "",
          "type": "address"
        }
      ],
      "stateMutability": "view",
      "type": "function"
    },
    {
      "inputs": [],
      "name": "pause",
      "outputs": [],
      "stateMutability": "nonpayable",
      "type": "function"
    },
    {
      "inputs": [],
      "name": "paused",
      "outputs": [
        {
          "internalType": "bool",
          "name": "",
          "type": "bool"
        }
      ],
      "stateMutability": "view",
      "type": "function"
    },
    {
      "inputs": [
        {
          "internalType": "uint256",
          "name": "plotId",
          "type": "uint256"
        },
        {
          "internalType": "uint256",
          "name": "seedId",
          "type": "uint256"
        }
      ],
      "name": "plantSeed",
      "outputs": [],
      "stateMutability": "nonpayable",
      "type": "function"
    },
    {
      "inputs": [
        {
          "internalType": "address",
          "name": "",
          "type": "address"
        }
      ],
      "name": "playerLevel",
      "outputs": [
        {
          "internalType": "uint256",
          "name": "",
          "type": "uint256"
        }
      ],
      "stateMutability": "view",
      "type": "function"
    },
    {
      "inputs": [
        {
          "internalType": "uint256",
          "name": "",
          "type": "uint256"
        }
      ],
      "name": "questRewards",
      "outputs": [
        {
          "internalType": "uint256",
          "name": "",
          "type": "uint256"
        }
      ],
      "stateMutability": "view",
      "type": "function"
    },
    {
      "inputs": [
        {
          "internalType": "address",
          "name": "token",
          "type": "address"
        }
      ],
      "name": "removePaymentToken",
      "outputs": [],
      "stateMutability": "nonpayable",
      "type": "function"
    },
    {
      "inputs": [],
      "name": "renounceOwnership",
      "outputs": [],
      "stateMutability": "nonpayable",
      "type": "function"
    },
    {
      "inputs": [
        {
          "internalType": "address",
          "name": "",
          "type": "address"
        }
      ],
      "name": "riceTokens",
      "outputs": [
        {
          "internalType": "uint256",
          "name": "",
          "type": "uint256"
        }
      ],
      "stateMutability": "view",
      "type": "function"
    },
    {
      "inputs": [],
      "name": "riseToken",
      "outputs": [
        {
          "internalType": "contract IERC20",
          "name": "",
          "type": "address"
        }
      ],
      "stateMutability": "view",
      "type": "function"
    },
    {
      "inputs": [
        {
          "internalType": "uint256",
          "name": "itemId",
          "type": "uint256"
        },
        {
          "internalType": "uint256",
          "name": "maxSupply",
          "type": "uint256"
        }
      ],
      "name": "setItemMaxSupply",
      "outputs": [],
      "stateMutability": "nonpayable",
      "type": "function"
    },
    {
      "inputs": [
        {
          "internalType": "uint256",
          "name": "questId",
          "type": "uint256"
        },
        {
          "internalType": "uint256",
          "name": "reward",
          "type": "uint256"
        }
      ],
      "name": "setQuestReward",
      "outputs": [],
      "stateMutability": "nonpayable",
      "type": "function"
    },
    {
      "inputs": [
        {
          "internalType": "address",
          "name": "_riseToken",
          "type": "address"
        }
      ],
      "name": "setRiseToken",
      "outputs": [],
      "stateMutability": "nonpayable",
      "type": "function"
    },
    {
      "inputs": [
        {
          "internalType": "address",
          "name": "",
          "type": "address"
        }
      ],
      "name": "totalHarvests",
      "outputs": [
        {
          "internalType": "uint256",
          "name": "",
          "type": "uint256"
        }
      ],
      "stateMutability": "view",
      "type": "function"
    },
    {
      "inputs": [
        {
          "internalType": "address",
          "name": "",
          "type": "address"
        }
      ],
      "name": "totalXP",
      "outputs": [
        {
          "internalType": "uint256",
          "name": "",
          "type": "uint256"
        }
      ],
      "stateMutability": "view",
      "type": "function"
    },
    {
      "inputs": [
        {
          "internalType": "address",
          "name": "newOwner",
          "type": "address"
        }
      ],
      "name": "transferOwnership",
      "outputs": [],
      "stateMutability": "nonpayable",
      "type": "function"
    },
    {
      "inputs": [],
      "name": "unpause",
      "outputs": [],
      "stateMutability": "nonpayable",
      "type": "function"
    },
    {
      "inputs": [
        {
          "components": [
            {
              "internalType": "uint256",
              "name": "id",
              "type": "uint256"
            },
            {
              "internalType": "string",
              "name": "name",
              "type": "string"
            },
            {
              "internalType": "uint256[]",
              "name": "itemIds",
              "type": "uint256[]"
            },
            {
              "internalType": "uint256[]",
              "name": "itemAmounts",
              "type": "uint256[]"
            },
            {
              "internalType": "uint256",
              "name": "priceETH",
              "type": "uint256"
            },
            {
              "internalType": "address",
              "name": "paymentToken",
              "type": "address"
            },
            {
              "internalType": "bool",
              "name": "active",
              "type": "bool"
            },
            {
              "internalType": "uint256",
              "name": "maxSupply",
              "type": "uint256"
            },
            {
              "internalType": "uint256",
              "name": "supply",
              "type": "uint256"
            }
          ],
          "internalType": "struct RiseFarming.Bundle",
          "name": "bundle",
          "type": "tuple"
        }
      ],
      "name": "updateBundle",
      "outputs": [],
      "stateMutability": "nonpayable",
      "type": "function"
    },
    {
      "inputs": [
        {
          "components": [
            {
              "internalType": "uint256",
              "name": "id",
              "type": "uint256"
            },
            {
              "internalType": "string",
              "name": "name",
              "type": "string"
            },
            {
              "internalType": "uint8",
              "name": "itemType",
              "type": "uint8"
            },
            {
              "internalType": "uint256",
              "name": "priceETH",
              "type": "uint256"
            },
            {
              "internalType": "address",
              "name": "paymentToken",
              "type": "address"
            },
            {
              "internalType": "uint256",
              "name": "baseReward",
              "type": "uint256"
            },
            {
              "internalType": "uint256",
              "name": "baseGrowthTime",
              "type": "uint256"
            },
            {
              "internalType": "uint16",
              "name": "growthBonusBP",
              "type": "uint16"
            },
            {
              "internalType": "uint16",
              "name": "yieldBonusBP",
              "type": "uint16"
            },
            {
              "internalType": "bool",
              "name": "active",
              "type": "bool"
            },
            {
              "internalType": "uint256",
              "name": "maxSupply",
              "type": "uint256"
            },
            {
              "internalType": "uint256",
              "name": "supply",
              "type": "uint256"
            }
          ],
          "internalType": "struct RiseFarming.Item",
          "name": "item",
          "type": "tuple"
        }
      ],
      "name": "updateItem",
      "outputs": [],
      "stateMutability": "nonpayable",
      "type": "function"
    },
    {
      "inputs": [
        {
          "internalType": "address",
          "name": "user",
          "type": "address"
        }
      ],
      "name": "updatePlotsForUser",
      "outputs": [],
      "stateMutability": "nonpayable",
      "type": "function"
    },
    {
      "inputs": [
        {
          "internalType": "uint256",
          "name": "upgradeId",
          "type": "uint256"
        }
      ],
      "name": "upgradeFarm",
      "outputs": [],
      "stateMutability": "nonpayable",
      "type": "function"
    },
    {
      "inputs": [
        {
          "internalType": "uint256",
          "name": "toolId",
          "type": "uint256"
        },
        {
          "internalType": "uint256",
          "name": "plotId",
          "type": "uint256"
        }
      ],
      "name": "useTool",
      "outputs": [],
      "stateMutability": "nonpayable",
      "type": "function"
    },
    {
      "inputs": [
        {
          "internalType": "address",
          "name": "",
          "type": "address"
        },
        {
          "internalType": "uint256",
          "name": "",
          "type": "uint256"
        }
      ],
      "name": "userBundleSeeds",
      "outputs": [
        {
          "internalType": "uint256",
          "name": "",
          "type": "uint256"
        }
      ],
      "stateMutability": "view",
      "type": "function"
    },
    {
      "inputs": [
        {
          "internalType": "address",
          "name": "",
          "type": "address"
        },
        {
          "internalType": "uint256",
          "name": "",
          "type": "uint256"
        }
      ],
      "name": "userItemBalances",
      "outputs": [
        {
          "internalType": "uint256",
          "name": "",
          "type": "uint256"
        }
      ],
      "stateMutability": "view",
      "type": "function"
    },
    {
      "inputs": [
        {
          "internalType": "address",
          "name": "",
          "type": "address"
        },
        {
          "internalType": "uint256",
          "name": "",
          "type": "uint256"
        }
      ],
      "name": "userPlots",
      "outputs": [
        {
          "internalType": "uint256",
          "name": "seedId",
          "type": "uint256"
        },
        {
          "internalType": "uint256",
          "name": "plantedAt",
          "type": "uint256"
        },
        {
          "internalType": "uint256",
          "name": "readyAt",
          "type": "uint256"
        },
        {
          "internalType": "uint16",
          "name": "growthBonusBP",
          "type": "uint16"
        },
        {
          "internalType": "uint16",
          "name": "yieldBonusBP",
          "type": "uint16"
        },
        {
          "internalType": "bool",
          "name": "growing",
          "type": "bool"
        }
      ],
      "stateMutability": "view",
      "type": "function"
    },
    {
      "inputs": [
        {
          "internalType": "address",
          "name": "",
          "type": "address"
        },
        {
          "internalType": "uint256",
          "name": "",
          "type": "uint256"
        }
      ],
      "name": "userSingleSeeds",
      "outputs": [
        {
          "internalType": "uint256",
          "name": "",
          "type": "uint256"
        }
      ],
      "stateMutability": "view",
      "type": "function"
    },
    {
      "inputs": [
        {
          "internalType": "address",
          "name": "",
          "type": "address"
        }
      ],
      "name": "userStreaks",
      "outputs": [
        {
          "internalType": "uint256",
          "name": "",
          "type": "uint256"
        }
      ],
      "stateMutability": "view",
      "type": "function"
    },
    {
      "inputs": [
        {
          "internalType": "uint256",
          "name": "plotId",
          "type": "uint256"
        }
      ],
      "name": "waterCrop",
      "outputs": [],
      "stateMutability": "nonpayable",
      "type": "function"
    },
    {
      "inputs": [],
      "name": "withdrawETH",
      "outputs": [],
      "stateMutability": "nonpayable",
      "type": "function"
    },
    {
      "inputs": [
        {
          "internalType": "address",
          "name": "token",
          "type": "address"
        }
      ],
      "name": "withdrawToken",
      "outputs": [],
      "stateMutability": "nonpayable",
      "type": "function"
    },
    {
      "stateMutability": "payable",
      "type": "receive"
    }
  ],
  "bytecode": "0x60806040523480156200001157600080fd5b5033806200003957604051631e4fbdf760e01b81526000600482015260240160405180910390fd5b620000448162002006565b50600180805560008052601060209081527f6e0956cda88cad152e89927e53611735b61a5c762d1428573c6931b0a5efcb01805460ff19169092179091556040805160e081018252670de0b6b3a76400008152671bc16d674ec80000928101929092526729a2241af62c000090820152673782dace9d9000006060820152674563918244f4000060808201526753444835ec58000060a0820152676124fee993bc000060c0820152620000fc90601190600762002056565b506040805161018081018252600980825282518084018452601881527f426173696320526963652053656564202853696e676c65290000000000000000602082810191909152808401918252600094840185905266016bcc41e90000606085015260808401859052606460a08501526101a460c0850152600f60e0850181905261010085015260016101208501526127106101408501819052610160850152919093526002905280517ff85cc6ffc513dc6cf7d199ef87b7a63cf9defe62251c1c247cd12f1eec7bff2990815591519091907ff85cc6ffc513dc6cf7d199ef87b7a63cf9defe62251c1c247cd12f1eec7bff2a90620001fc9082620021a0565b5060408281015160028301805460ff191660ff9092169190911790556060830151600383015560808301516004830180546001600160a01b0319166001600160a01b0390921691909117905560a0830151600583015560c0830151600683015560e08301516007830180546101008601516101208088015161ffff95861663ffffffff19909416939093176201000095909216949094021760ff60201b19166401000000009115159190910217905561014084015160088401556101609093015160099092019190915580519182018152600d825280518082018252601881527f426173696320526963652053656564202842756e646c65290000000000000000602082810191909152808401919091528151600180825281840184529284019290918281019080368337505050815260408051600180825281830190925260209283019290919080830190803683375050508152660221b262dd8000602080830191909152600060408301819052600160608401526103e86080840181905260a090930192909252600d9091526003815281516000805160206200680383398151915290815590820151600080516020620068e383398151915290620003c49082620021a0565b5060408201518051620003e2916002840191602090910190620020a4565b506060820151805162000400916003840191602090910190620020a4565b506080820151600482015560a082015160058201805460c08501511515600160a01b026001600160a81b03199091166001600160a01b039093169290921791909117905560e0820151600682015561010090910151600790910155600d60009081526003602052600080516020620068c38339815191528054600992906200048c576200048c6200226c565b6000918252602080832090910192909255600d8152600390915260008051602062006923833981519152805460059290620004cb57620004cb6200226c565b60009182526020808320909101929092556040805161018081018252600a80825282518084018452601a81527f5072656d69756d20526963652053656564202853696e676c652900000000000081870152828601908152928201849052660221b262dd800060608301526080820184905260c860a083015261016860c0830152601e60e083018190526101008301526001610120830152610fa06101408301819052610160830152909252600290925280517fd3604db978f6137b0d18816b77b2ce810487a3af08a922e0b184963be5f3adfc90815591519091907fd3604db978f6137b0d18816b77b2ce810487a3af08a922e0b184963be5f3adfd90620005d49082620021a0565b5060408281015160028301805460ff191660ff9092169190911790556060830151600383015560808301516004830180546001600160a01b0319166001600160a01b0390921691909117905560a0830151600583015560c0830151600683015560e08301516007830180546101008601516101208088015161ffff95861663ffffffff19909416939093176201000095909216949094021760ff60201b19166401000000009115159190910217905561014084015160088401556101609093015160099092019190915580519182018152600e825280518082018252601a81527f5072656d69756d20526963652053656564202842756e646c652900000000000060208281019190915280840191909152815160018082528184018452928401929091828101908036833750505081526040805160018082528183019092526020928301929091908083019080368337505050815266038d7ea4c68000602080830191909152600060408301819052600160608401526103e86080840181905260a090930192909252600e909152600381528151600080516020620068838339815191529081559082015160008051602062006843833981519152906200079c9082620021a0565b5060408201518051620007ba916002840191602090910190620020a4565b5060608201518051620007d8916003840191602090910190620020a4565b506080820151600482015560a082015160058201805460c08501511515600160a01b026001600160a81b03199091166001600160a01b039093169290921791909117905560e0820151600682015561010090910151600790910155600e60009081526003602052600080516020620068238339815191528054600a92906200086457620008646200226c565b6000918252602080832090910192909255600e81526003909152600080516020620067c3833981519152805460029290620008a357620008a36200226c565b60009182526020808320909101929092556040805161018081018252600b80825282518084018452601981527f48796272696420526963652053656564202853696e676c6529000000000000008187015282860190815292820184905266038d7ea4c6800060608301526080820184905261019060a083015261012c60c0830152604660e0830181905261010083015260016101208301526107d06101408301819052610160830152909252600290925280517fab9952baf6478d8cfb7253ce86a6c53a7b7549582c76210b1581ae682b7e556f90815591519091907fab9952baf6478d8cfb7253ce86a6c53a7b7549582c76210b1581ae682b7e557090620009ad9082620021a0565b5060408281015160028301805460ff191660ff9092169190911790556060830151600383015560808301516004830180546001600160a01b0319166001600160a01b0390921691909117905560a0830151600583015560c0830151600683015560e08301516007830180546101008601516101208088015161ffff95861663ffffffff19909416939093176201000095909216949094021760ff60201b19166401000000009115159190910217905561014084015160088401556101609093015160099092019190915580519182018152600f825280518082018252601981527f48796272696420526963652053656564202842756e646c6529000000000000006020828101919091528084019190915281516001808252818401845292840192909182810190803683375050508152604080516001808252818301909252602092830192909190808301908036833750505081526604f94ae6af8000602080830191909152600060408301819052600160608401526101f46080840181905260a090930192909252600f9091526003815281516000805160206200690383398151915290815590820151600080516020620068a38339815191529062000b759082620021a0565b506040820151805162000b93916002840191602090910190620020a4565b506060820151805162000bb1916003840191602090910190620020a4565b506080820151600482015560a082015160058201805460c08501511515600160a01b026001600160a81b03199091166001600160a01b039093169290921791909117905560e0820151600682015561010090910151600790910155600f60009081526003602052600080516020620067e38339815191528054600b929062000c3d5762000c3d6200226c565b6000918252602080832090910192909255600f815260039091526000805160206200686383398151915280546002929062000c7c5762000c7c6200226c565b60009182526020808320909101929092556040805161018081018252601180825282518084018452601981527f476f6c64656e20486172766573746572202853696e676c6529000000000000008187015282860190815260019383018490526602d79883d2000060608401526080830185905260a0830185905260c0830185905260e083018590526101008301859052610120830193909352610ea66101408301819052610160830152909252600290925280517fa4e0f4432e44d027a7b3f953940f096bca7a9bd910297cad2ba7c703c2b799d390815591519091907fa4e0f4432e44d027a7b3f953940f096bca7a9bd910297cad2ba7c703c2b799d49062000d879082620021a0565b5060408281015160028301805460ff191660ff9092169190911790556060830151600383015560808301516004830180546001600160a01b0319166001600160a01b0390921691909117905560a0830151600583015560c0830151600683015560e08301516007830180546101008601516101208088015161ffff95861663ffffffff19909416939093176201000095909216949094021760ff60201b191664010000000091151591909102179055610140840151600884015561016090930151600990920191909155805191820181526010825280518082018252601981527f476f6c64656e20486172766573746572202842756e646c6529000000000000006020828101919091528084019190915281516001808252818401845292840192909182810190803683375050508152604080516001808252818301909252602092830192909190808301908036833750505081526605af3107a40000602080830191909152600060408301819052600160608401526107536080840181905260a09093019290925260109091526003815281517f47d4745e02b343689a5e7ac121d2a352b7a15c10328a8759fd7d4cf0999002bb908155908201517f47d4745e02b343689a5e7ac121d2a352b7a15c10328a8759fd7d4cf0999002bc9062000f719082620021a0565b506040820151805162000f8f916002840191602090910190620020a4565b506060820151805162000fad916003840191602090910190620020a4565b506080820151600482015560a082015160058201805460c08501511515600160a01b026001600160a81b03199091166001600160a01b039093169290921791909117905560e08201516006820155610100909101516007909101556010600090815260036020527f47d4745e02b343689a5e7ac121d2a352b7a15c10328a8759fd7d4cf0999002bd8054601192906200104a576200104a6200226c565b60009182526020808320909101929092556010815260039091527f47d4745e02b343689a5e7ac121d2a352b7a15c10328a8759fd7d4cf0999002be8054600292906200109a576200109a6200226c565b60009182526020808320909101929092556040805161018081018252600c80825282518084018452601381527f46657274696c697a657220537072656164657200000000000000000000000000818701528286019081526001938301849052606083018590526080830185905260a0830185905260c08301859052601960e0840152600f6101008401526101208301939093526127106101408301819052610160830152909252600290925280517fbd814762a7e35d5c162a7570d14baa68bd622cabb1ad83d40dd70f8a88aa67c090815591519091907fbd814762a7e35d5c162a7570d14baa68bd622cabb1ad83d40dd70f8a88aa67c1906200119f9082620021a0565b5060408201518160020160006101000a81548160ff021916908360ff1602179055506060820151816003015560808201518160040160006101000a8154816001600160a01b0302191690836001600160a01b0316021790555060a0820151816005015560c0820151816006015560e08201518160070160006101000a81548161ffff021916908361ffff1602179055506101008201518160070160026101000a81548161ffff021916908361ffff1602179055506101208201518160070160046101000a81548160ff02191690831515021790555061014082015181600801556101608201518160090155905050604051806101800160405280600481526020016040518060400160405280600e81526020016d537461727465722042756e646c6560901b8152508152602001600060ff1681526020016000815260200160006001600160a01b031681526020016000815260200160008152602001600061ffff168152602001600061ffff1681526020016001151581526020016103e881526020016103e881525060026000600481526020019081526020016000206000820151816000015560208201518160010190816200135d9190620021a0565b5060408201518160020160006101000a81548160ff021916908360ff1602179055506060820151816003015560808201518160040160006101000a8154816001600160a01b0302191690836001600160a01b0316021790555060a0820151816005015560c0820151816006015560e08201518160070160006101000a81548161ffff021916908361ffff1602179055506101008201518160070160026101000a81548161ffff021916908361ffff1602179055506101208201518160070160046101000a81548160ff02191690831515021790555061014082015181600801556101608201518160090155905050604051806101800160405280600681526020016040518060400160405280601481526020017f4175746f2d5761746572696e672053797374656d0000000000000000000000008152508152602001600160ff1681526020016000815260200160006001600160a01b031681526020016000815260200160008152602001600061ffff168152602001600061ffff1681526020016001151581526020016161a881526020016161a881525060026000600681526020019081526020016000206000820151816000015560208201518160010190816200152a9190620021a0565b5060408201518160020160006101000a81548160ff021916908360ff1602179055506060820151816003015560808201518160040160006101000a8154816001600160a01b0302191690836001600160a01b0316021790555060a0820151816005015560c0820151816006015560e08201518160070160006101000a81548161ffff021916908361ffff1602179055506101008201518160070160026101000a81548161ffff021916908361ffff1602179055506101208201518160070160046101000a81548160ff02191690831515021790555061014082015181600801556101608201518160090155905050604051806101800160405280600581526020016040518060400160405280600c81526020016b2bb0ba32b934b7339021b0b760a11b8152508152602001600160ff16815260200166016911c3f9d000815260200160006001600160a01b031681526020016000815260200160008152602001600061ffff168152602001600061ffff16815260200160011515815260200161c350815260200161c3508152506002600060058152602001908152602001600020600082015181600001556020820151816001019081620016ec9190620021a0565b5060408281015160028301805460ff191660ff9092169190911790556060830151600383015560808301516004830180546001600160a01b0319166001600160a01b0390921691909117905560a0830151600583015560c0830151600683015560e08301516007830180546101008601516101208088015161ffff95861663ffffffff19909416939093176201000095909216949094021760ff60201b19166401000000009115159190910217905561014084015160088401556101609093015160099092019190915580519182018152600d825280518082018252601881527f426173696320526963652053656564202842756e646c65290000000000000000602082810191909152808401919091528151600180825281840184529284019290918281019080368337505050815260408051600180825281830190925260209283019290919080830190803683375050508152660221b262dd8000602080830191909152600060408301819052600160608401526103e86080840181905260a090930192909252600d9091526003815281516000805160206200680383398151915290815590820151600080516020620068e383398151915290620018b49082620021a0565b5060408201518051620018d2916002840191602090910190620020a4565b5060608201518051620018f0916003840191602090910190620020a4565b506080820151600482015560a082015160058201805460c08501511515600160a01b026001600160a81b03199091166001600160a01b039093169290921791909117905560e0820151600682015561010090910151600790910155600d60009081526003602052600080516020620068c38339815191528054600992906200197c576200197c6200226c565b6000918252602080832090910192909255600d8152600390915260008051602062006923833981519152805460059290620019bb57620019bb6200226c565b9060005260206000200181905550604051806101200160405280600e81526020016040518060400160405280601a81526020017f5072656d69756d20526963652053656564202842756e646c6529000000000000815250815260200160016001600160401b0381111562001a335762001a33620020f9565b60405190808252806020026020018201604052801562001a5d578160200160208202803683370190505b50815260408051600180825281830190925260209092019190816020016020820280368337505050815266038d7ea4c68000602080830191909152600060408301819052600160608401526103e86080840181905260a090930192909252600e9091526003815281516000805160206200688383398151915290815590820151600080516020620068438339815191529062001afa9082620021a0565b506040820151805162001b18916002840191602090910190620020a4565b506060820151805162001b36916003840191602090910190620020a4565b506080820151600482015560a082015160058201805460c08501511515600160a01b026001600160a81b03199091166001600160a01b039093169290921791909117905560e0820151600682015561010090910151600790910155600e60009081526003602052600080516020620068238339815191528054600a929062001bc25762001bc26200226c565b6000918252602080832090910192909255600e81526003909152600080516020620067c383398151915280546002929062001c015762001c016200226c565b9060005260206000200181905550604051806101200160405280600f81526020016040518060400160405280601981526020017f48796272696420526963652053656564202842756e646c652900000000000000815250815260200160016001600160401b0381111562001c795762001c79620020f9565b60405190808252806020026020018201604052801562001ca3578160200160208202803683370190505b5081526040805160018082528183019092526020909201919081602001602082028036833750505081526604f94ae6af8000602080830191909152600060408301819052600160608401526101f46080840181905260a090930192909252600f9091526003815281516000805160206200690383398151915290815590820151600080516020620068a38339815191529062001d409082620021a0565b506040820151805162001d5e916002840191602090910190620020a4565b506060820151805162001d7c916003840191602090910190620020a4565b506080820151600482015560a082015160058201805460c08501511515600160a01b026001600160a81b03199091166001600160a01b039093169290921791909117905560e0820151600682015561010090910151600790910155600f60009081526003602052600080516020620067e38339815191528054600b929062001e085762001e086200226c565b6000918252602080832090910192909255600f815260039091526000805160206200686383398151915280546002929062001e475762001e476200226c565b60009182526020808320909101929092556040805161018081018252600880825282518084018452600e81526d22b732b933bc902137b7b9ba32b960911b818701528286019081526002938301849052606083018590526080830185905260a0830185905260c0830185905260e0830185905261010083018590526001610120840152611f4061014084018190526101608401529352925281517f3a5ea591190eeb3f8fcdced843c78df04ec0dfd42f5510375207515664fa0a7590815590517f3a5ea591190eeb3f8fcdced843c78df04ec0dfd42f5510375207515664fa0a769062001f359082620021a0565b50604082015160028201805460ff90921660ff199092169190911790556060820151600382015560808201516004820180546001600160a01b039092166001600160a01b031990921691909117905560a0820151600582015560c0820151600682015560e082015160078201805461010085015161012086015115156401000000000260ff60201b1961ffff928316620100000263ffffffff199094169290951691909117919091179290921691909117905561014082015160088201556101609091015160099091015562002282565b600080546001600160a01b038381166001600160a01b0319831681178455604051919092169283917f8be0079c531659141344cd1fd0a4f28419497f9722a3daafe3b4186f6b6457e09190a35050565b826007810192821562002092579160200282015b828111156200209257825182906001600160401b03169055916020019190600101906200206a565b50620020a0929150620020e2565b5090565b82805482825590600052602060002090810192821562002092579160200282015b8281111562002092578251825591602001919060010190620020c5565b5b80821115620020a05760008155600101620020e3565b634e487b7160e01b600052604160045260246000fd5b600181811c908216806200212457607f821691505b6020821081036200214557634e487b7160e01b600052602260045260246000fd5b50919050565b601f8211156200219b576000816000526020600020601f850160051c81016020861015620021765750805b601f850160051c820191505b81811015620021975782815560010162002182565b5050505b505050565b81516001600160401b03811115620021bc57620021bc620020f9565b620021d481620021cd84546200210f565b846200214b565b602080601f8311600181146200220c5760008415620021f35750858301515b600019600386901b1c1916600185901b17855562002197565b600085815260208120601f198616915b828110156200223d578886015182559484019460019091019084016200221c565b50858210156200225c5787850151600019600388901b60f8161c191681555b5050505050600190811b01905550565b634e487b7160e01b600052603260045260246000fd5b61453180620022926000396000f3fe6080604052600436106104095760003560e01c80638673fb8b11610213578063d13e335311610123578063e68b02cc116100ab578063edf2fe731161007a578063edf2fe7314610d36578063f2fde38b14610d49578063f3274a1f14610d69578063f9e38f9c14610d7e578063fee99c7214610d9e57600080fd5b8063e68b02cc14610cc1578063e6f26df214610cd6578063e9da722f14610cf6578063edc0c03814610d1657600080fd5b8063ddc63262116100f2578063ddc6326214610c0c578063e086e5ec14610c2c578063e1f7d38a14610c41578063e203fffc14610c71578063e630d24114610cac57600080fd5b8063d13e335314610b7d578063d291d1f214610b92578063d6eacb6514610bbf578063d7a8ac0b14610bd457600080fd5b8063a8ad4513116101a6578063bfb231d211610175578063bfb231d214610ac8578063c7f7034614610b00578063ce882f3614610b20578063ced031d614610b35578063cf19384b14610b4a57600080fd5b8063a8ad451314610a69578063b07e9a8b14610a7e578063b0a79a9914610a93578063b203dc6014610aa857600080fd5b80639b7eb3d0116101e25780639b7eb3d0146109e95780639d633e7714610a09578063a4d3f55714610a29578063a512542114610a4957600080fd5b80638673fb8b1461096d5780638719c20a1461098257806389476069146109975780638da5cb5b146109b757600080fd5b80634bf8b2c611610319578063715018a6116102a157806379e072421161027057806379e07242146108d657806383f8b7e2146108f65780638456cb591461090b578063851044ec14610920578063860ecd8c1461094d57600080fd5b8063715018a61461083c57806375651e771461085157806375b9ea1d1461087e57806377f8c8371461089e57600080fd5b806354cb5399116102e857806354cb5399146107905780635a48d79d146107b05780635c975abb146107dd57806360e3ab0b146107fc57806366c3b5fa1461081c57600080fd5b80634bf8b2c61461069d5780634c321a89146106b25780634f87e8641461075057806353abfc851461077057600080fd5b806329e6d6811161039c57806338ee59b91161036b57806338ee59b9146105e85780633f4ba83a14610608578063451420cb1461061d578063484bb2441461063d5780634a7dc8e01461067d57600080fd5b806329e6d681146105465780632a1bbd1f1461057357806335a23e7b146105935780633603f8d1146105c057600080fd5b806313c066f8116103d857806313c066f8146104dc57806314c84f3a146104ef57806314d3a9c01461051c5780631f36c9071461053157600080fd5b8063073e57d21461041557806307bd03ba146104375780630da0d7a5146104825780630f13dda4146104af57600080fd5b3661041057005b600080fd5b34801561042157600080fd5b50610435610430366004613a35565b610dcb565b005b34801561044357600080fd5b5061046f610452366004613a6a565b600460209081526000928352604080842090915290825290205481565b6040519081526020015b60405180910390f35b34801561048e57600080fd5b5061046f61049d366004613a94565b600c6020526000908152604090205481565b3480156104bb57600080fd5b5061046f6104ca366004613a35565b600f6020526000908152604090205481565b6104356104ea366004613ab6565b61101f565b3480156104fb57600080fd5b5061046f61050a366004613a94565b60086020526000908152604090205481565b34801561052857600080fd5b5061046f600681565b34801561053d57600080fd5b5061046f600881565b34801561055257600080fd5b5061046f610561366004613a94565b60076020526000908152604090205481565b34801561057f57600080fd5b5061043561058e366004613aeb565b611352565b34801561059f57600080fd5b5061046f6105ae366004613a94565b600a6020526000908152604090205481565b3480156105cc57600080fd5b506105d5600081565b60405161ffff9091168152602001610479565b3480156105f457600080fd5b50610435610603366004613aeb565b611485565b34801561061457600080fd5b50610435611680565b34801561062957600080fd5b50610435610638366004613c4e565b611692565b34801561064957600080fd5b5061066d610658366004613a94565b60106020526000908152604090205460ff1681565b6040519015158152602001610479565b34801561068957600080fd5b50610435610698366004613a94565b6117ea565b3480156106a957600080fd5b506105d5604681565b3480156106be57600080fd5b5061071a6106cd366004613a6a565b600560209081526000928352604080842090915290825290208054600182015460028301546003909301549192909161ffff8082169162010000810490911690600160201b900460ff1686565b6040805196875260208701959095529385019290925261ffff9081166060850152166080830152151560a082015260c001610479565b34801561075c57600080fd5b5061043561076b366004613aeb565b61184d565b34801561077c57600080fd5b5061043561078b366004613aeb565b611c11565b34801561079c57600080fd5b506104356107ab366004613dd9565b611c2b565b3480156107bc57600080fd5b5061046f6107cb366004613a94565b600b6020526000908152604090205481565b3480156107e957600080fd5b50600054600160a01b900460ff1661066d565b34801561080857600080fd5b50610435610817366004613c4e565b611d4d565b34801561082857600080fd5b50610435610837366004613a35565b611d55565b34801561084857600080fd5b50610435611d7b565b34801561085d57600080fd5b5061087161086c366004613edc565b611d8d565b6040516104799190613f62565b34801561088a57600080fd5b50610435610899366004613a35565b611edf565b3480156108aa57600080fd5b5061046f6108b9366004613a6a565b601960209081526000928352604080842090915290825290205481565b3480156108e257600080fd5b506104356108f1366004613a35565b612039565b34801561090257600080fd5b50610435612191565b34801561091757600080fd5b506104356122e8565b34801561092c57600080fd5b5061094061093b366004613edc565b6122f8565b6040516104799190614024565b34801561095957600080fd5b50610435610968366004613a35565b6123b2565b34801561097957600080fd5b506104356125c3565b34801561098e57600080fd5b5061046f600b81565b3480156109a357600080fd5b506104356109b2366004613a94565b6126f1565b3480156109c357600080fd5b506000546001600160a01b03165b6040516001600160a01b039091168152602001610479565b3480156109f557600080fd5b50610435610a04366004613a94565b612814565b348015610a1557600080fd5b506018546109d1906001600160a01b031681565b348015610a3557600080fd5b50610435610a44366004613a94565b6128b4565b348015610a5557600080fd5b50610435610a64366004613a94565b6128de565b348015610a7557600080fd5b5061046f600581565b348015610a8a57600080fd5b5061046f600a81565b348015610a9f57600080fd5b5061046f601281565b348015610ab457600080fd5b5061046f610ac3366004613a35565b612937565b348015610ad457600080fd5b50610ae8610ae3366004613a35565b61294e565b6040516104799c9b9a9998979695949392919061407d565b348015610b0c57600080fd5b50610435610b1b366004613aeb565b612a4f565b348015610b2c57600080fd5b50610435612ac6565b348015610b4157600080fd5b50610435612c3c565b348015610b5657600080fd5b50610b6a610b65366004613a35565b612eb4565b60405161047997969594939291906140fa565b348015610b8957600080fd5b5061046f600c81565b348015610b9e57600080fd5b5061046f610bad366004613a94565b60066020526000908152604090205481565b348015610bcb57600080fd5b5061046f601181565b348015610be057600080fd5b5061046f610bef366004613a6a565b601a60209081526000928352604080842090915290825290205481565b348015610c1857600080fd5b50610435610c27366004613a35565b612f88565b348015610c3857600080fd5b50610435613206565b348015610c4d57600080fd5b5061066d610c5c366004613a94565b600d6020526000908152604090205460ff1681565b348015610c7d57600080fd5b5061066d610c8c366004613a6a565b600e60209081526000928352604080842090915290825290205460ff1681565b348015610cb857600080fd5b5061046f600981565b348015610ccd57600080fd5b5061046f600781565b348015610ce257600080fd5b50610435610cf1366004613a94565b613298565b348015610d0257600080fd5b50610435610d11366004613a35565b613337565b348015610d2257600080fd5b50610435610d31366004613dd9565b613405565b610435610d44366004613ab6565b61340d565b348015610d5557600080fd5b50610435610d64366004613a94565b6137df565b348015610d7557600080fd5b5061046f600481565b348015610d8a57600080fd5b50610435610d99366004613a35565b61381a565b348015610daa57600080fd5b5061046f610db9366004613a94565b60096020526000908152604090205481565b610dd3613841565b610ddb61386c565b33600090815260046020908152604080832060118452909152902054610e485760405162461bcd60e51b815260206004820152601e60248201527f4e65656420476f6c64656e20486172766573746572202853696e676c6529000060448201526064015b60405180910390fd5b33600090815260056020908152604080832084845290915290206003810154600160201b900460ff16610e8d5760405162461bcd60e51b8152600401610e3f90614146565b8060020154421015610ecd5760405162461bcd60e51b81526020600482015260096024820152684e6f7420726561647960b81b6044820152606401610e3f565b336000908152600460209081526040808320601184529091528120805460019290610ef9908490614185565b90915550508054600090815260026020526040812060038301549091906103e890610f2e9062010000900461ffff168261419e565b61ffff168360050154610f4191906141c0565b610f4b91906141ed565b905060006064610f5c8360146141c0565b610f6691906141ed565b90506000610f748284614201565b336000908152600c6020526040812080549293508392909190610f98908490614201565b909155505060038501805464ff0000000019169055604080518781526020810183905233917f81ca9b2c230070eaa84787556b1aaf18bf1e2f07ea5d3dae4819db77a1a5b224910160405180910390a2336000908152600b60205260408120805460019290611008908490614201565b9091555050600180555061101c9350505050565b50565b611027613841565b61102f61386c565b60008381526002602052604090206007810154600160201b900460ff166110885760405162461bcd60e51b815260206004820152600d60248201526c4974656d20696e61637469766560981b6044820152606401610e3f565b82816009015410156110ac5760405162461bcd60e51b8152600401610e3f90614214565b600083116110f15760405162461bcd60e51b81526020600482015260126024820152710416d6f756e74206d757374206265203e20360741b6044820152606401610e3f565b60006001600160a01b03831615611109576000611119565b83826003015461111991906141c0565b90506001600160a01b038316611171578034101561116c5760405162461bcd60e51b815260206004820152601060248201526f092dce6eaccccd2c6d2cadce8408aa8960831b6044820152606401610e3f565b6111ea565b6040516323b872dd60e01b8152336004820152306024820152604481018290526001600160a01b038416906323b872dd906064016020604051808303816000875af11580156111c4573d6000803e3d6000fd5b505050506040513d601f19601f820116820180604052508101906111e89190614241565b505b838260090160008282546111fe9190614185565b90915550503360009081526004602090815260408083208884529091528120805486929061122d908490614201565b9091555050600282015460ff16600003611271573360009081526019602090815260408083208884529091528120805486929061126b908490614201565b90915550505b60408051600180825281830190925260009160208083019080368337505060408051600180825281830190925292935060009291506020808301908036833701905050905086826000815181106112ca576112ca61425e565b60200260200101818152505085816000815181106112ea576112ea61425e565b602002602001018181525050336001600160a01b03167f0faa30265942b056f8379458c99d8bce44d758b6c4e762355961a2ec3de64d41600084848988604051611338959493929190614274565b60405180910390a25050505061134d60018055565b505050565b61135a613841565b61136261386c565b3360009081526004602090815260408083208584529091529020546113b35760405162461bcd60e51b8152602060048201526007602482015266139bc81d1bdbdb60ca1b6044820152606401610e3f565b60008281526002602052604090206007810154600160201b900460ff1680156113e35750600281015460ff166001145b61141e5760405162461bcd60e51b815260206004820152600c60248201526b125b9d985b1a59081d1bdbdb60a21b6044820152606401610e3f565b3360009081526004602090815260408083208684529091528120805460019290611449908490614185565b9091555050604080518481526020810184905233916000805160206144dc833981519152910160405180910390a25061148160018055565b5050565b61148d613841565b61149561386c565b60008281526002602052604090206007810154600160201b900460ff166114ee5760405162461bcd60e51b815260206004820152600d60248201526c4974656d20696e61637469766560981b6044820152606401610e3f565b81816009015410156115125760405162461bcd60e51b8152600401610e3f90614214565b60038101541561155c5760405162461bcd60e51b81526020600482015260156024820152744e6f7420616e2052542d707269636564206974656d60581b6044820152606401610e3f565b6000611571836802b5e3af16b18800006141c0565b336000908152600c60205260409020549091508111156115c35760405162461bcd60e51b815260206004820152600d60248201526c139bdd08195b9bdd59da081495609a1b6044820152606401610e3f565b336000908152600c6020526040812080548392906115e2908490614185565b92505081905550828260090160008282546115fd9190614185565b90915550503360009081526004602090815260408083208784529091528120805485929061162c908490614201565b9091555050604080518581526020810185905290810182905233907f0d60605d69a1fe7571d54b1ffc1cf6018cc3d4ef8398467410ae50018331d316906060015b60405180910390a2505061148160018055565b611688613896565b6116906138c3565b565b61169a613896565b805160009081526002602052604081205490036116ef5760405162461bcd60e51b8152602060048201526013602482015272125d195b48191bd95cc81b9bdd08195e1a5cdd606a1b6044820152606401610e3f565b805160009081526002602090815260409091208251815590820151829190600182019061171c9082614347565b50604082015160028201805460ff90921660ff199092169190911790556060820151600382015560808201516004820180546001600160a01b039092166001600160a01b031990921691909117905560a0820151600582015560c0820151600682015560e08201516007820180546101008501516101208601511515600160201b0264ff000000001961ffff928316620100000263ffffffff199094169290951691909117919091179290921691909117905561014082015160088201556101609091015160099091015550565b6117f2613896565b6001600160a01b038116600081815260106020908152604091829020805460ff1916600117905590519182527fa317c10673baf4f03b3c1041bd5ddbb537d0333a86fec3607c75f9dbb630f48f91015b60405180910390a150565b611855613841565b61185d61386c565b3360009081526004602090815260408083208484529091529020546118af5760405162461bcd60e51b81526020600482015260086024820152674e6f20736565647360c01b6044820152606401610e3f565b60008181526002602052604090206007810154600160201b900460ff1680156118dd5750600281015460ff16155b6119185760405162461bcd60e51b815260206004820152600c60248201526b125b9d985b1a59081cd9595960a21b6044820152606401610e3f565b6007810154604661ffff909116111561196f5760405162461bcd60e51b815260206004820152601960248201527847726f77746820626f6e7573206f7574206f662072616e676560381b6044820152606401610e3f565b600781015460466201000090910461ffff1611156119ca5760405162461bcd60e51b81526020600482015260186024820152775969656c6420626f6e7573206f7574206f662072616e676560401b6044820152606401610e3f565b33600090815260046020908152604080832085845290915281208054600192906119f5908490614185565b9091555050336000908152601a6020908152604080832085845290915290205415611a5057336000908152601a602090815260408083208584529091528120805460019290611a45908490614185565b90915550611ad89050565b33600090815260196020908152604080832085845290915290205415611a9b573360009081526019602090815260408083208584529091528120805460019290611a45908490614185565b60405162461bcd60e51b81526020600482015260126024820152714e6f20736565647320617661696c61626c6560701b6044820152606401610e3f565b60078101546000906103e890611af29061ffff1682614407565b61ffff168360060154611b0591906141c0565b611b0f91906141ed565b90506040518060c001604052808481526020014281526020018242611b349190614201565b8152600784015461ffff8082166020808501919091526201000092839004821660408086019190915260016060958601819052336000818152600585528381208d825285528390208851815588850151928101929092558783015160028301559587015160039091018054608089015160a09099015192861663ffffffff1990911617979094169094029590951764ff000000001916600160201b93151593909302929092179055825187815290810186905290917fbff838f2fb339f78375289b45e530f7c7785d3d2a337193ebc7901faea10ef3a910161166d565b611c19613896565b6000918252600f602052604090912055565b611c33613896565b80516000908152600360205260408120549003611c8a5760405162461bcd60e51b8152602060048201526015602482015274109d5b991b1948191bd95cc81b9bdd08195e1a5cdd605a1b6044820152606401610e3f565b8051600090815260036020908152604090912082518155908201518291906001820190611cb79082614347565b5060408201518051611cd39160028401916020909101906139d5565b5060608201518051611cef9160038401916020909101906139d5565b506080820151600482015560a082015160058201805460c08501511515600160a01b026001600160a81b03199091166001600160a01b039093169290921791909117905560e082015160068201556101009091015160079091015550565b6116ef613896565b611d5d613896565b6000908152600360205260409020600501805460ff60a01b19169055565b611d83613896565b6116906000613918565b606060008267ffffffffffffffff811115611daa57611daa613b0d565b604051908082528060200260200182016040528015611e0a57816020015b6040805160c08101825260008082526020808301829052928201819052606082018190526080820181905260a08201528252600019909201910181611dc85790505b50905060005b83811015611ed6576001600160a01b038616600090815260056020526040812090868684818110611e4357611e4361425e565b60209081029290920135835250818101929092526040908101600020815160c081018352815481526001820154938101939093526002810154918301919091526003015461ffff8082166060840152620100008204166080830152600160201b900460ff16151560a08201528251839083908110611ec357611ec361425e565b6020908102919091010152600101611e10565b50949350505050565b611ee7613841565b611eef61386c565b336000908152600e6020908152604080832084845290915290205460ff1615611f525760405162461bcd60e51b8152602060048201526015602482015274145d595cdd08185b1c9958591e4818db185a5b5959605a1b6044820152606401610e3f565b6000818152600f602052604090205480611fae5760405162461bcd60e51b815260206004820152601a60248201527f496e76616c6964207175657374206f72206e6f207265776172640000000000006044820152606401610e3f565b336000908152600c602052604081208054839290611fcd908490614201565b9091555050336000818152600e60209081526040808320868452825291829020805460ff1916600117905581518581529081018490527f89ddf70f60dee0505eb22a143daf80046698f56a9e1c9421cbd95c486199306f91015b60405180910390a25061101c60018055565b612041613841565b61204961386c565b33600090815260046020908152604080832084845290915290205461209d5760405162461bcd60e51b815260206004820152600a6024820152694e6f207570677261646560b01b6044820152606401610e3f565b60008181526002602052604090206007810154600160201b900460ff1680156120cc575060028082015460ff16145b61210a5760405162461bcd60e51b815260206004820152600f60248201526e496e76616c6964207570677261646560881b6044820152606401610e3f565b3360009081526004602090815260408083208584529091528120805460019290612135908490614185565b9091555050336000908152600a6020526040812080546001929061215a908490614201565b909155505060405182815233907f64df0f68d7580b0900ece6245824a2cc4c50b47a830e4b867313abc3f3b516c890602001612027565b612199613841565b6121a161386c565b336000908152600660205260408120546121bd90600790614422565b336000908152600760205260409020549091506121dd9062015180614201565b42116122235760405162461bcd60e51b8152602060048201526015602482015274416c726561647920636c61696d656420746f64617960581b6044820152606401610e3f565b6000601182600781106122385761223861425e565b0154336000908152600c602052604081208054929350839290919061225e908490614201565b9091555050336000908152600660205260408120805460019290612283908490614201565b90915550503360008181526007602052604090204290557f564485e821cf8ba18a499f35679b99b9fba6f9886a625dd2a70b79da8cb5ba066122c6846001614201565b60408051918252602082018590520160405180910390a2505061169060018055565b6122f0613896565b611690613968565b606060008267ffffffffffffffff81111561231557612315613b0d565b60405190808252806020026020018201604052801561233e578160200160208202803683370190505b50905060005b83811015611ed6576001600160a01b0386166000908152600460205260408120908686848181106123775761237761425e565b9050602002013581526020019081526020016000205482828151811061239f5761239f61425e565b6020908102919091010152600101612344565b6123ba613841565b6123c261386c565b336000908152600460209081526040808320600c845290915290205461241a5760405162461bcd60e51b815260206004820152600d60248201526c2737902332b93a34b634bd32b960991b6044820152606401610e3f565b33600090815260056020908152604080832084845290915290206003810154600160201b900460ff1661245f5760405162461bcd60e51b8152600401610e3f90614146565b336000908152600460209081526040808320600c8452909152812080546001929061248b908490614185565b909155505060018101546000906124a29042614185565b6003830180549192506019916000906124c090849061ffff1661419e565b92506101000a81548161ffff021916908361ffff160217905550600f8260030160028282829054906101000a900461ffff166124fc919061419e565b82546101009290920a61ffff81810219909316918316021790915583546000908152600260205260408120600386015490935090916103e891612540911682614407565b61ffff16836006015461255391906141c0565b61255d91906141ed565b905080831015612585576125718382614185565b61257b9042614201565b600285015561258c565b4260028501555b60408051600c81526020810187905233916000805160206144dc833981519152910160405180910390a25050505061101c60018055565b6125cb613841565b6125d361386c565b3360009081526004602090815260408083206006845290915290205461263b5760405162461bcd60e51b815260206004820152601760248201527f4e6f204175746f2d5761746572696e672053797374656d0000000000000000006044820152606401610e3f565b6000805b60108110156126ae5733600090815260056020908152604080832084845290915290206003810154600160201b900460ff16156126a5576040805160068152602081018490526001945033916000805160206144dc833981519152910160405180910390a25b5060010161263f565b5080156126e7573360009081526004602090815260408083206006845290915281208054600192906126e1908490614185565b90915550505b5061169060018055565b6126f9613896565b6040516370a0823160e01b81523060048201526000906001600160a01b038316906370a0823190602401602060405180830381865afa158015612740573d6000803e3d6000fd5b505050506040513d601f19601f820116820180604052508101906127649190614436565b9050600081116127a35760405162461bcd60e51b815260206004820152600a6024820152694e6f2062616c616e636560b01b6044820152606401610e3f565b60405163a9059cbb60e01b8152336004820152602481018290526001600160a01b0383169063a9059cbb906044016020604051808303816000875af11580156127f0573d6000803e3d6000fd5b505050506040513d601f19601f8201168201806040525081019061134d9190614241565b60005b6010811015611481576001600160a01b038216600090815260056020908152604080832084845290915290206003810154600160201b900460ff168015612862575080600201544210155b156128ab57826001600160a01b03167f11c42d52b352031ab932886e32b045f3fc5055ace50a7365cd2b005979ba9505836040516128a291815260200190565b60405180910390a25b50600101612817565b6128bc613896565b601880546001600160a01b0319166001600160a01b0392909216919091179055565b6128e6613896565b6001600160a01b038116600081815260106020908152604091829020805460ff1916905590519182527f85a3e72f8dd6db3794f93109c3c5f5b79d6112f6979431c45f98b26134b42af29101611842565b6011816007811061294757600080fd5b0154905081565b60026020526000908152604090208054600182018054919291612970906142bd565b80601f016020809104026020016040519081016040528092919081815260200182805461299c906142bd565b80156129e95780601f106129be576101008083540402835291602001916129e9565b820191906000526020600020905b8154815290600101906020018083116129cc57829003601f168201915b505050506002830154600384015460048501546005860154600687015460078801546008890154600990990154979860ff968716989597506001600160a01b03909416959294919361ffff8083169462010000840490911693600160201b90930416918c565b612a57613896565b6000828152600260205260408120549003612aaa5760405162461bcd60e51b8152602060048201526013602482015272125d195b48191bd95cc81b9bdd08195e1a5cdd606a1b6044820152606401610e3f565b6000918252600260205260409091206008810182905560090155565b612ace61386c565b336000908152600c60205260409020546801158e460913d00000811015612b375760405162461bcd60e51b815260206004820152601b60248201527f4d75737420636c61696d206174206c65617374203230205249534500000000006044820152606401610e3f565b336000818152600c602052604080822091909155601854905163a9059cbb60e01b81526004810192909252602482018390526001600160a01b03169063a9059cbb906044016020604051808303816000875af1158015612b9b573d6000803e3d6000fd5b505050506040513d601f19601f82011682018060405250810190612bbf9190614241565b612bfd5760405162461bcd60e51b815260206004820152600f60248201526e151c985b9cd9995c8819985a5b1959608a1b6044820152606401610e3f565b60405181815233907f2988752f8fcb52b8c982219deefd82a981754ed258f421467a7133874ba9f2909060200160405180910390a25061169060018055565b612c44613841565b612c4c61386c565b33600090815260046020908152604080832060128452909152902054612cb45760405162461bcd60e51b815260206004820152601e60248201527f4e65656420476f6c64656e20486172766573746572202842756e646c652900006044820152606401610e3f565b60008060005b6010811015612e115733600090815260056020908152604080832084845290915290206003810154600160201b900460ff168015612cfc575080600201544210155b15612e08578054600090815260026020526040812060038301549091906103e890612d319062010000900461ffff168261419e565b61ffff168360050154612d4491906141c0565b612d4e91906141ed565b905060006064612d5f8360146141c0565b612d6991906141ed565b90506000612d778284614201565b9050612d838189614201565b60038601805464ff0000000019169055975086612d9f8161444f565b336000908152600b602052604081208054929a506001935091612dc3908490614201565b9091555050604080518781526020810183905233917f81ca9b2c230070eaa84787556b1aaf18bf1e2f07ea5d3dae4819db77a1a5b224910160405180910390a2505050505b50600101612cba565b5060008111612e535760405162461bcd60e51b815260206004820152600e60248201526d4e6f20706c6f747320726561647960901b6044820152606401610e3f565b336000908152600460209081526040808320601284529091528120805460019290612e7f908490614185565b9091555050336000908152600c602052604081208054849290612ea3908490614201565b909155505060018055506116909050565b60036020526000908152604090208054600182018054919291612ed6906142bd565b80601f0160208091040260200160405190810160405280929190818152602001828054612f02906142bd565b8015612f4f5780601f10612f2457610100808354040283529160200191612f4f565b820191906000526020600020905b815481529060010190602001808311612f3257829003601f168201915b50505050600483015460058401546006850154600790950154939491936001600160a01b0382169350600160a01b90910460ff16919087565b612f90613841565b612f9861386c565b33600090815260056020908152604080832084845290915290206003810154600160201b900460ff16612fdd5760405162461bcd60e51b8152600401610e3f90614146565b806002015442101561301d5760405162461bcd60e51b81526020600482015260096024820152684e6f7420726561647960b81b6044820152606401610e3f565b805460009081526002602081905260409091209081015460ff16156130715760405162461bcd60e51b815260206004820152600a602482015269139bdd0818481cd9595960b21b6044820152606401610e3f565b6003820154604661ffff90911611156130c85760405162461bcd60e51b815260206004820152601960248201527847726f77746820626f6e7573206f7574206f662072616e676560381b6044820152606401610e3f565b600382015460466201000090910461ffff1611156131235760405162461bcd60e51b81526020600482015260186024820152775969656c6420626f6e7573206f7574206f662072616e676560401b6044820152606401610e3f565b60038201546000906103e8906131439062010000900461ffff168261419e565b61ffff16836005015461315691906141c0565b61316091906141ed565b336000908152600c6020526040812080549293508392909190613184908490614201565b909155505060038301805464ff0000000019169055604080518581526020810183905233917f81ca9b2c230070eaa84787556b1aaf18bf1e2f07ea5d3dae4819db77a1a5b224910160405180910390a2336000908152600b602052604081208054600192906131f4908490614201565b9091555050600180555061101c915050565b61320e613896565b604051600090339047908381818185875af1925050503d8060008114613250576040519150601f19603f3d011682016040523d82523d6000602084013e613255565b606091505b505090508061101c5760405162461bcd60e51b815260206004820152600f60248201526e15da5d1a191c985dc819985a5b1959608a1b6044820152606401610e3f565b60005b6010811015611481576001600160a01b038216600090815260056020908152604080832084845290915290206003810154600160201b900460ff1680156132e55750806002015442105b1561332e57826001600160a01b03167f3ad3dd486d6804864bd604a17ff5d932e3bf0493d580c0d7e093073bd3440d288360405161332591815260200190565b60405180910390a25b5060010161329b565b61333f613841565b61334761386c565b336000908152600460209081526040808320600584529091529020546133a15760405162461bcd60e51b815260206004820152600f60248201526e2737903bb0ba32b934b7339031b0b760891b6044820152606401610e3f565b3360009081526004602090815260408083206005845290915281208054600192906133cd908490614185565b909155505060408051600581526020810183905233916000805160206144dc833981519152910160405180910390a261101c60018055565b611c8a613896565b613415613841565b61341d61386c565b60008381526003602052604090206005810154600160a01b900460ff166134785760405162461bcd60e51b815260206004820152600f60248201526e42756e646c6520696e61637469766560881b6044820152606401610e3f565b82816007015410156134cc5760405162461bcd60e51b815260206004820152601a60248201527f496e73756666696369656e742062756e646c6520737570706c790000000000006044820152606401610e3f565b60006001600160a01b038316156134e45760006134f4565b8382600401546134f491906141c0565b90506001600160a01b03831661354c57803410156135475760405162461bcd60e51b815260206004820152601060248201526f092dce6eaccccd2c6d2cadce8408aa8960831b6044820152606401610e3f565b6135c5565b6040516323b872dd60e01b8152336004820152306024820152604481018290526001600160a01b038416906323b872dd906064016020604051808303816000875af115801561359f573d6000803e3d6000fd5b505050506040513d601f19601f820116820180604052508101906135c39190614241565b505b60005b60028301548110156136d45760008360020182815481106135eb576135eb61425e565b906000526020600020015490506000868560030184815481106136105761361061425e565b906000526020600020015461362591906141c0565b6000838152600260205260409020600901549091508111156136595760405162461bcd60e51b8152600401610e3f90614214565b6000828152600260205260408120600901805483929061367a908490614185565b909155505060008281526002602081905260408220015460ff1690036136ca57336000908152601a60209081526040808320858452909152812080548392906136c4908490614201565b90915550505b50506001016135c8565b50838260070160008282546136e99190614185565b90915550600090505b600283015481101561378657848360030182815481106137145761371461425e565b906000526020600020015461372991906141c0565b336000908152600460205260408120600286018054919291859081106137515761375161425e565b9060005260206000200154815260200190815260200160002060008282546137799190614201565b90915550506001016136f2565b50336001600160a01b03167f854931d3a8461ab9d0412c3e03f884c9911fbec9854941d26b4c14d88c6b0550868460020185600301856040516137cc949392919061449e565b60405180910390a2505061134d60018055565b6137e7613896565b6001600160a01b03811661381157604051631e4fbdf760e01b815260006004820152602401610e3f565b61101c81613918565b613822613896565b6000908152600260205260409020600701805464ff0000000019169055565b600054600160a01b900460ff16156116905760405163d93c066560e01b815260040160405180910390fd5b60026001540361388f57604051633ee5aeb560e01b815260040160405180910390fd5b6002600155565b6000546001600160a01b031633146116905760405163118cdaa760e01b8152336004820152602401610e3f565b6138cb6139ab565b6000805460ff60a01b191690557f5db9ee0a495bf2e6ff9c91a7834c1ba4fdd244a5e8aa4e537bd38aeae4b073aa335b6040516001600160a01b03909116815260200160405180910390a1565b600080546001600160a01b038381166001600160a01b0319831681178455604051919092169283917f8be0079c531659141344cd1fd0a4f28419497f9722a3daafe3b4186f6b6457e09190a35050565b613970613841565b6000805460ff60a01b1916600160a01b1790557f62e78cea01bee320cd4e420270b5ea74000d11b0c9f74754ebdbfc544b05a2586138fb3390565b600054600160a01b900460ff1661169057604051638dfc202b60e01b815260040160405180910390fd5b828054828255906000526020600020908101928215613a10579160200282015b82811115613a105782518255916020019190600101906139f5565b50613a1c929150613a20565b5090565b5b80821115613a1c5760008155600101613a21565b600060208284031215613a4757600080fd5b5035919050565b80356001600160a01b0381168114613a6557600080fd5b919050565b60008060408385031215613a7d57600080fd5b613a8683613a4e565b946020939093013593505050565b600060208284031215613aa657600080fd5b613aaf82613a4e565b9392505050565b600080600060608486031215613acb57600080fd5b8335925060208401359150613ae260408501613a4e565b90509250925092565b60008060408385031215613afe57600080fd5b50508035926020909101359150565b634e487b7160e01b600052604160045260246000fd5b604051610180810167ffffffffffffffff81118282101715613b4757613b47613b0d565b60405290565b604051610120810167ffffffffffffffff81118282101715613b4757613b47613b0d565b604051601f8201601f1916810167ffffffffffffffff81118282101715613b9a57613b9a613b0d565b604052919050565b600082601f830112613bb357600080fd5b813567ffffffffffffffff811115613bcd57613bcd613b0d565b613be0601f8201601f1916602001613b71565b818152846020838601011115613bf557600080fd5b816020850160208301376000918101602001919091529392505050565b803560ff81168114613a6557600080fd5b803561ffff81168114613a6557600080fd5b801515811461101c57600080fd5b8035613a6581613c35565b600060208284031215613c6057600080fd5b813567ffffffffffffffff80821115613c7857600080fd5b908301906101808286031215613c8d57600080fd5b613c95613b23565b82358152602083013582811115613cab57600080fd5b613cb787828601613ba2565b602083015250613cc960408401613c12565b604082015260608301356060820152613ce460808401613a4e565b608082015260a083013560a082015260c083013560c0820152613d0960e08401613c23565b60e08201526101009150613d1e828401613c23565b828201526101209150613d32828401613c43565b91810191909152610140828101359082015261016091820135918101919091529392505050565b600082601f830112613d6a57600080fd5b8135602067ffffffffffffffff821115613d8657613d86613b0d565b8160051b613d95828201613b71565b9283528481018201928281019087851115613daf57600080fd5b83870192505b84831015613dce57823582529183019190830190613db5565b979650505050505050565b600060208284031215613deb57600080fd5b813567ffffffffffffffff80821115613e0357600080fd5b908301906101208286031215613e1857600080fd5b613e20613b4d565b82358152602083013582811115613e3657600080fd5b613e4287828601613ba2565b602083015250604083013582811115613e5a57600080fd5b613e6687828601613d59565b604083015250606083013582811115613e7e57600080fd5b613e8a87828601613d59565b60608301525060808301356080820152613ea660a08401613a4e565b60a0820152613eb760c08401613c43565b60c082015260e083810135908201526101009283013592810192909252509392505050565b600080600060408486031215613ef157600080fd5b613efa84613a4e565b9250602084013567ffffffffffffffff80821115613f1757600080fd5b818601915086601f830112613f2b57600080fd5b813581811115613f3a57600080fd5b8760208260051b8501011115613f4f57600080fd5b6020830194508093505050509250925092565b602080825282518282018190526000919060409081850190868401855b82811015613fdb578151805185528681015187860152858101518686015260608082015161ffff908116918701919091526080808301519091169086015260a09081015115159085015260c09093019290850190600101613f7f565b5091979650505050505050565b60008151808452602080850194506020840160005b8381101561401957815187529582019590820190600101613ffd565b509495945050505050565b602081526000613aaf6020830184613fe8565b6000815180845260005b8181101561405d57602081850181015186830182015201614041565b506000602082860101526020601f19601f83011685010191505092915050565b60006101808e83528060208401526140978184018f614037565b60ff9d909d166040840152505060608101999099526001600160a01b0397909716608089015260a088019590955260c087019390935261ffff91821660e08701521661010085015215156101208401526101408301526101609091015292915050565b87815260e06020820152600061411360e0830189614037565b6040830197909752506001600160a01b03949094166060850152911515608084015260a083015260c09091015292915050565b6020808252600f908201526e4e6f7468696e672067726f77696e6760881b604082015260600190565b634e487b7160e01b600052601160045260246000fd5b818103818111156141985761419861416f565b92915050565b61ffff8181168382160190808211156141b9576141b961416f565b5092915050565b80820281158282048414176141985761419861416f565b634e487b7160e01b600052601260045260246000fd5b6000826141fc576141fc6141d7565b500490565b808201808211156141985761419861416f565b602080825260139082015272496e73756666696369656e7420737570706c7960681b604082015260600190565b60006020828403121561425357600080fd5b8151613aaf81613c35565b634e487b7160e01b600052603260045260246000fd5b85815260a06020820152600061428d60a0830187613fe8565b828103604084015261429f8187613fe8565b6001600160a01b039590951660608401525050608001529392505050565b600181811c908216806142d157607f821691505b6020821081036142f157634e487b7160e01b600052602260045260246000fd5b50919050565b601f82111561134d576000816000526020600020601f850160051c810160208610156143205750805b601f850160051c820191505b8181101561433f5782815560010161432c565b505050505050565b815167ffffffffffffffff81111561436157614361613b0d565b6143758161436f84546142bd565b846142f7565b602080601f8311600181146143aa57600084156143925750858301515b600019600386901b1c1916600185901b17855561433f565b600085815260208120601f198616915b828110156143d9578886015182559484019460019091019084016143ba565b50858210156143f75787850151600019600388901b60f8161c191681555b5050505050600190811b01905550565b61ffff8281168282160390808211156141b9576141b961416f565b600082614431576144316141d7565b500690565b60006020828403121561444857600080fd5b5051919050565b6000600182016144615761446161416f565b5060010190565b600081548084526020808501945083600052602060002060005b8381101561401957815487529582019560019182019101614482565b8481526080602082015260006144b76080830186614468565b82810360408401526144c98186614468565b9150508260608301529594505050505056fed29993d7389aafeb1ae0eebfcc0e2b777c314426c46ed802d5116187380125d5a2646970667358221220d9c73f7308fa6ddcafa6bc0f7a06b8c35dde451b10ccf0980a5f309881316d8464736f6c63430008180033d6ebcc64c739277b117ce359e436534b234b76e914c80ad276abf5b56207893cf60b7f6a315ec68a6ac240e69dca53652b38627f709a2caa217d9e18af4d7a62a8f2d96126c6d0ad63adabaef7bf5cf47f163fb0c218a473d28f62312d197bcfd6ebcc64c739277b117ce359e436534b234b76e914c80ad276abf5b56207893bd6ebcc64c739277b117ce359e436534b234b76e914c80ad276abf5b56207893af60b7f6a315ec68a6ac240e69dca53652b38627f709a2caa217d9e18af4d7a63d6ebcc64c739277b117ce359e436534b234b76e914c80ad276abf5b562078939f60b7f6a315ec68a6ac240e69dca53652b38627f709a2caa217d9e18af4d7a61a8f2d96126c6d0ad63adabaef7bf5cf47f163fb0c218a473d28f62312d197bd1a8f2d96126c6d0ad63adabaef7bf5cf47f163fb0c218a473d28f62312d197bd0f60b7f6a315ec68a6ac240e69dca53652b38627f709a2caa217d9e18af4d7a60a8f2d96126c6d0ad63adabaef7bf5cf47f163fb0c218a473d28f62312d197bd2",
  "linkReferences": {},
  "deployedLinkReferences": {}
}