{
  "_format": "hh-sol-artifact-1",
  "contractName": "RiseFarming",
  "sourceName": "contracts/RiseFarming.sol",
  "abi": [
    {
      "inputs": [],
      "stateMutability": "nonpayable",
      "type": "constructor"
    },
    {
      "inputs": [],
      "name": "EnforcedPause",
      "type": "error"
    },
    {
      "inputs": [],
      "name": "ExpectedPause",
      "type": "error"
    },
    {
      "inputs": [
        {
          "internalType": "address",
          "name": "owner",
          "type": "address"
        }
      ],
      "name": "OwnableInvalidOwner",
      "type": "error"
    },
    {
      "inputs": [
        {
          "internalType": "address",
          "name": "account",
          "type": "address"
        }
      ],
      "name": "OwnableUnauthorizedAccount",
      "type": "error"
    },
    {
      "inputs": [],
      "name": "ReentrancyGuardReentrantCall",
      "type": "error"
    },
    {
      "anonymous": false,
      "inputs": [
        {
          "indexed": true,
          "internalType": "address",
          "name": "user",
          "type": "address"
        },
        {
          "indexed": false,
          "internalType": "uint256",
          "name": "bundleId",
          "type": "uint256"
        },
        {
          "indexed": false,
          "internalType": "uint256[]",
          "name": "itemIds",
          "type": "uint256[]"
        },
        {
          "indexed": false,
          "internalType": "uint256[]",
          "name": "amounts",
          "type": "uint256[]"
        },
        {
          "indexed": false,
          "internalType": "uint256",
          "name": "price",
          "type": "uint256"
        }
      ],
      "name": "BundlePurchased",
      "type": "event"
    },
    {
      "anonymous": false,
      "inputs": [
        {
          "indexed": true,
          "internalType": "address",
          "name": "user",
          "type": "address"
        },
        {
          "indexed": false,
          "internalType": "uint256",
          "name": "day",
          "type": "uint256"
        },
        {
          "indexed": false,
          "internalType": "uint256",
          "name": "reward",
          "type": "uint256"
        }
      ],
      "name": "DailyRewardClaimed",
      "type": "event"
    },
    {
      "anonymous": false,
      "inputs": [
        {
          "indexed": true,
          "internalType": "address",
          "name": "user",
          "type": "address"
        },
        {
          "indexed": false,
          "internalType": "uint256",
          "name": "upgradeId",
          "type": "uint256"
        }
      ],
      "name": "FarmUpgraded",
      "type": "event"
    },
    {
      "anonymous": false,
      "inputs": [
        {
          "indexed": true,
          "internalType": "address",
          "name": "user",
          "type": "address"
        },
        {
          "indexed": false,
          "internalType": "uint256",
          "name": "plotId",
          "type": "uint256"
        },
        {
          "indexed": false,
          "internalType": "uint256",
          "name": "reward",
          "type": "uint256"
        }
      ],
      "name": "Harvested",
      "type": "event"
    },
    {
      "anonymous": false,
      "inputs": [
        {
          "indexed": true,
          "internalType": "address",
          "name": "user",
          "type": "address"
        },
        {
          "indexed": false,
          "internalType": "uint256",
          "name": "bundleId",
          "type": "uint256"
        },
        {
          "indexed": false,
          "internalType": "uint256[]",
          "name": "itemIds",
          "type": "uint256[]"
        },
        {
          "indexed": false,
          "internalType": "uint256[]",
          "name": "amounts",
          "type": "uint256[]"
        },
        {
          "indexed": false,
          "internalType": "address",
          "name": "paymentToken",
          "type": "address"
        },
        {
          "indexed": false,
          "internalType": "uint256",
          "name": "price",
          "type": "uint256"
        }
      ],
      "name": "ItemPurchased",
      "type": "event"
    },
    {
      "anonymous": false,
      "inputs": [
        {
          "indexed": true,
          "internalType": "address",
          "name": "user",
          "type": "address"
        },
        {
          "indexed": false,
          "internalType": "uint256",
          "name": "itemId",
          "type": "uint256"
        },
        {
          "indexed": false,
          "internalType": "uint256",
          "name": "amount",
          "type": "uint256"
        },
        {
          "indexed": false,
          "internalType": "uint256",
          "name": "totalRT",
          "type": "uint256"
        }
      ],
      "name": "ItemPurchasedWithRT",
      "type": "event"
    },
    {
      "anonymous": false,
      "inputs": [
        {
          "indexed": true,
          "internalType": "address",
          "name": "previousOwner",
          "type": "address"
        },
        {
          "indexed": true,
          "internalType": "address",
          "name": "newOwner",
          "type": "address"
        }
      ],
      "name": "OwnershipTransferred",
      "type": "event"
    },
    {
      "anonymous": false,
      "inputs": [
        {
          "indexed": false,
          "internalType": "address",
          "name": "account",
          "type": "address"
        }
      ],
      "name": "Paused",
      "type": "event"
    },
    {
      "anonymous": false,
      "inputs": [
        {
          "indexed": false,
          "internalType": "address",
          "name": "token",
          "type": "address"
        }
      ],
      "name": "PaymentTokenAdded",
      "type": "event"
    },
    {
      "anonymous": false,
      "inputs": [
        {
          "indexed": false,
          "internalType": "address",
          "name": "token",
          "type": "address"
        }
      ],
      "name": "PaymentTokenRemoved",
      "type": "event"
    },
    {
      "anonymous": false,
      "inputs": [
        {
          "indexed": true,
          "internalType": "address",
          "name": "user",
          "type": "address"
        },
        {
          "indexed": false,
          "internalType": "uint256",
          "name": "plotId",
          "type": "uint256"
        }
      ],
      "name": "PlotAutoWatered",
      "type": "event"
    },
    {
      "anonymous": false,
      "inputs": [
        {
          "indexed": true,
          "internalType": "address",
          "name": "user",
          "type": "address"
        },
        {
          "indexed": false,
          "internalType": "uint256",
          "name": "plotId",
          "type": "uint256"
        }
      ],
      "name": "PlotReady",
      "type": "event"
    },
    {
      "anonymous": false,
      "inputs": [
        {
          "indexed": true,
          "internalType": "address",
          "name": "user",
          "type": "address"
        },
        {
          "indexed": false,
          "internalType": "uint256",
          "name": "questId",
          "type": "uint256"
        },
        {
          "indexed": false,
          "internalType": "uint256",
          "name": "reward",
          "type": "uint256"
        }
      ],
      "name": "QuestRewardClaimed",
      "type": "event"
    },
    {
      "anonymous": false,
      "inputs": [
        {
          "indexed": true,
          "internalType": "address",
          "name": "user",
          "type": "address"
        },
        {
          "indexed": false,
          "internalType": "uint256",
          "name": "amount",
          "type": "uint256"
        }
      ],
      "name": "RiseClaimed",
      "type": "event"
    },
    {
      "anonymous": false,
      "inputs": [
        {
          "indexed": true,
          "internalType": "address",
          "name": "user",
          "type": "address"
        },
        {
          "indexed": false,
          "internalType": "uint256",
          "name": "plotId",
          "type": "uint256"
        },
        {
          "indexed": false,
          "internalType": "uint256",
          "name": "seedId",
          "type": "uint256"
        }
      ],
      "name": "SeedPlanted",
      "type": "event"
    },
    {
      "anonymous": false,
      "inputs": [
        {
          "indexed": true,
          "internalType": "address",
          "name": "user",
          "type": "address"
        },
        {
          "indexed": false,
          "internalType": "uint256",
          "name": "toolId",
          "type": "uint256"
        }
      ],
      "name": "ToolBurned",
      "type": "event"
    },
    {
      "anonymous": false,
      "inputs": [
        {
          "indexed": true,
          "internalType": "address",
          "name": "user",
          "type": "address"
        },
        {
          "indexed": false,
          "internalType": "uint256",
          "name": "toolId",
          "type": "uint256"
        },
        {
          "indexed": false,
          "internalType": "uint256",
          "name": "usesLeft",
          "type": "uint256"
        }
      ],
      "name": "ToolUseDecremented",
      "type": "event"
    },
    {
      "anonymous": false,
      "inputs": [
        {
          "indexed": true,
          "internalType": "address",
          "name": "user",
          "type": "address"
        },
        {
          "indexed": false,
          "internalType": "uint256",
          "name": "toolId",
          "type": "uint256"
        },
        {
          "indexed": false,
          "internalType": "uint256",
          "name": "plotId",
          "type": "uint256"
        }
      ],
      "name": "ToolUsed",
      "type": "event"
    },
    {
      "anonymous": false,
      "inputs": [
        {
          "indexed": false,
          "internalType": "address",
          "name": "account",
          "type": "address"
        }
      ],
      "name": "Unpaused",
      "type": "event"
    },
    {
      "inputs": [],
      "name": "AUTO_WATERING_SYSTEM_ID",
      "outputs": [
        {
          "internalType": "uint256",
          "name": "",
          "type": "uint256"
        }
      ],
      "stateMutability": "view",
      "type": "function"
    },
    {
      "inputs": [],
      "name": "BASIC_SEED_SINGLE_ID",
      "outputs": [
        {
          "internalType": "uint256",
          "name": "",
          "type": "uint256"
        }
      ],
      "stateMutability": "view",
      "type": "function"
    },
    {
      "inputs": [],
      "name": "ENERGY_BOOSTER_ID",
      "outputs": [
        {
          "internalType": "uint256",
          "name": "",
          "type": "uint256"
        }
      ],
      "stateMutability": "view",
      "type": "function"
    },
    {
      "inputs": [],
      "name": "FERTILIZER_SPREADER_ID",
      "outputs": [
        {
          "internalType": "uint256",
          "name": "",
          "type": "uint256"
        }
      ],
      "stateMutability": "view",
      "type": "function"
    },
    {
      "inputs": [],
      "name": "GOLDEN_HARVESTER_BUNDLE_ID",
      "outputs": [
        {
          "internalType": "uint256",
          "name": "",
          "type": "uint256"
        }
      ],
      "stateMutability": "view",
      "type": "function"
    },
    {
      "inputs": [],
      "name": "GOLDEN_HARVESTER_SINGLE_ID",
      "outputs": [
        {
          "internalType": "uint256",
          "name": "",
          "type": "uint256"
        }
      ],
      "stateMutability": "view",
      "type": "function"
    },
    {
      "inputs": [],
      "name": "HARVESTER_ID",
      "outputs": [
        {
          "internalType": "uint256",
          "name": "",
          "type": "uint256"
        }
      ],
      "stateMutability": "view",
      "type": "function"
    },
    {
      "inputs": [],
      "name": "HYBRID_SEED_SINGLE_ID",
      "outputs": [
        {
          "internalType": "uint256",
          "name": "",
          "type": "uint256"
        }
      ],
      "stateMutability": "view",
      "type": "function"
    },
    {
      "inputs": [],
      "name": "MAX_BONUS_BP",
      "outputs": [
        {
          "internalType": "uint16",
          "name": "",
          "type": "uint16"
        }
      ],
      "stateMutability": "view",
      "type": "function"
    },
    {
      "inputs": [],
      "name": "MIN_BONUS_BP",
      "outputs": [
        {
          "internalType": "uint16",
          "name": "",
          "type": "uint16"
        }
      ],
      "stateMutability": "view",
      "type": "function"
    },
    {
      "inputs": [],
      "name": "PREMIUM_SEED_SINGLE_ID",
      "outputs": [
        {
          "internalType": "uint256",
          "name": "",
          "type": "uint256"
        }
      ],
      "stateMutability": "view",
      "type": "function"
    },
    {
      "inputs": [],
      "name": "STARTER_BUNDLE_ID",
      "outputs": [
        {
          "internalType": "uint256",
          "name": "",
          "type": "uint256"
        }
      ],
      "stateMutability": "view",
      "type": "function"
    },
    {
      "inputs": [],
      "name": "WATERING_CAN_ID",
      "outputs": [
        {
          "internalType": "uint256",
          "name": "",
          "type": "uint256"
        }
      ],
      "stateMutability": "view",
      "type": "function"
    },
    {
      "inputs": [
        {
          "internalType": "address",
          "name": "",
          "type": "address"
        }
      ],
      "name": "acceptedPaymentTokens",
      "outputs": [
        {
          "internalType": "bool",
          "name": "",
          "type": "bool"
        }
      ],
      "stateMutability": "view",
      "type": "function"
    },
    {
      "inputs": [
        {
          "components": [
            {
              "internalType": "uint256",
              "name": "id",
              "type": "uint256"
            },
            {
              "internalType": "string",
              "name": "name",
              "type": "string"
            },
            {
              "internalType": "uint256[]",
              "name": "itemIds",
              "type": "uint256[]"
            },
            {
              "internalType": "uint256[]",
              "name": "itemAmounts",
              "type": "uint256[]"
            },
            {
              "internalType": "uint256",
              "name": "priceETH",
              "type": "uint256"
            },
            {
              "internalType": "address",
              "name": "paymentToken",
              "type": "address"
            },
            {
              "internalType": "bool",
              "name": "active",
              "type": "bool"
            },
            {
              "internalType": "uint256",
              "name": "maxSupply",
              "type": "uint256"
            },
            {
              "internalType": "uint256",
              "name": "supply",
              "type": "uint256"
            }
          ],
          "internalType": "struct RiseFarming.Bundle",
          "name": "bundle",
          "type": "tuple"
        }
      ],
      "name": "addBundle",
      "outputs": [],
      "stateMutability": "nonpayable",
      "type": "function"
    },
    {
      "inputs": [
        {
          "components": [
            {
              "internalType": "uint256",
              "name": "id",
              "type": "uint256"
            },
            {
              "internalType": "string",
              "name": "name",
              "type": "string"
            },
            {
              "internalType": "uint8",
              "name": "itemType",
              "type": "uint8"
            },
            {
              "internalType": "uint256",
              "name": "priceETH",
              "type": "uint256"
            },
            {
              "internalType": "address",
              "name": "paymentToken",
              "type": "address"
            },
            {
              "internalType": "uint256",
              "name": "baseReward",
              "type": "uint256"
            },
            {
              "internalType": "uint256",
              "name": "baseGrowthTime",
              "type": "uint256"
            },
            {
              "internalType": "uint16",
              "name": "growthBonusBP",
              "type": "uint16"
            },
            {
              "internalType": "uint16",
              "name": "yieldBonusBP",
              "type": "uint16"
            },
            {
              "internalType": "bool",
              "name": "active",
              "type": "bool"
            },
            {
              "internalType": "uint256",
              "name": "maxSupply",
              "type": "uint256"
            },
            {
              "internalType": "uint256",
              "name": "supply",
              "type": "uint256"
            }
          ],
          "internalType": "struct RiseFarming.Item",
          "name": "item",
          "type": "tuple"
        }
      ],
      "name": "addItem",
      "outputs": [],
      "stateMutability": "nonpayable",
      "type": "function"
    },
    {
      "inputs": [
        {
          "internalType": "address",
          "name": "token",
          "type": "address"
        }
      ],
      "name": "addPaymentToken",
      "outputs": [],
      "stateMutability": "nonpayable",
      "type": "function"
    },
    {
      "inputs": [
        {
          "internalType": "uint256",
          "name": "plotId",
          "type": "uint256"
        }
      ],
      "name": "applyFertilizer",
      "outputs": [],
      "stateMutability": "nonpayable",
      "type": "function"
    },
    {
      "inputs": [],
      "name": "autoWaterCrops",
      "outputs": [],
      "stateMutability": "nonpayable",
      "type": "function"
    },
    {
      "inputs": [
        {
          "internalType": "address",
          "name": "user",
          "type": "address"
        }
      ],
      "name": "autoWaterPlotsForUser",
      "outputs": [],
      "stateMutability": "nonpayable",
      "type": "function"
    },
    {
      "inputs": [
        {
          "internalType": "uint256",
          "name": "",
          "type": "uint256"
        }
      ],
      "name": "bundles",
      "outputs": [
        {
          "internalType": "uint256",
          "name": "id",
          "type": "uint256"
        },
        {
          "internalType": "string",
          "name": "name",
          "type": "string"
        },
        {
          "internalType": "uint256",
          "name": "priceETH",
          "type": "uint256"
        },
        {
          "internalType": "address",
          "name": "paymentToken",
          "type": "address"
        },
        {
          "internalType": "bool",
          "name": "active",
          "type": "bool"
        },
        {
          "internalType": "uint256",
          "name": "maxSupply",
          "type": "uint256"
        },
        {
          "internalType": "uint256",
          "name": "supply",
          "type": "uint256"
        }
      ],
      "stateMutability": "view",
      "type": "function"
    },
    {
      "inputs": [
        {
          "internalType": "uint256",
          "name": "bundleId",
          "type": "uint256"
        },
        {
          "internalType": "uint256",
          "name": "amount",
          "type": "uint256"
        },
        {
          "internalType": "address",
          "name": "paymentToken",
          "type": "address"
        }
      ],
      "name": "buyBundle",
      "outputs": [],
      "stateMutability": "payable",
      "type": "function"
    },
    {
      "inputs": [
        {
          "internalType": "uint256",
          "name": "itemId",
          "type": "uint256"
        },
        {
          "internalType": "uint256",
          "name": "amount",
          "type": "uint256"
        },
        {
          "internalType": "address",
          "name": "paymentToken",
          "type": "address"
        }
      ],
      "name": "buyItem",
      "outputs": [],
      "stateMutability": "payable",
      "type": "function"
    },
    {
      "inputs": [
        {
          "internalType": "uint256",
          "name": "itemId",
          "type": "uint256"
        },
        {
          "internalType": "uint256",
          "name": "amount",
          "type": "uint256"
        }
      ],
      "name": "buyItemWithGameRT",
      "outputs": [],
      "stateMutability": "nonpayable",
      "type": "function"
    },
    {
      "inputs": [],
      "name": "claimDailyReward",
      "outputs": [],
      "stateMutability": "nonpayable",
      "type": "function"
    },
    {
      "inputs": [
        {
          "internalType": "uint256",
          "name": "questId",
          "type": "uint256"
        }
      ],
      "name": "claimQuestReward",
      "outputs": [],
      "stateMutability": "nonpayable",
      "type": "function"
    },
    {
      "inputs": [],
      "name": "claimRiseTokens",
      "outputs": [],
      "stateMutability": "nonpayable",
      "type": "function"
    },
    {
      "inputs": [
        {
          "internalType": "address",
          "name": "",
          "type": "address"
        },
        {
          "internalType": "uint256",
          "name": "",
          "type": "uint256"
        }
      ],
      "name": "claimedQuests",
      "outputs": [
        {
          "internalType": "bool",
          "name": "",
          "type": "bool"
        }
      ],
      "stateMutability": "view",
      "type": "function"
    },
    {
      "inputs": [],
      "name": "dailyRewardPaused",
      "outputs": [
        {
          "internalType": "bool",
          "name": "",
          "type": "bool"
        }
      ],
      "stateMutability": "view",
      "type": "function"
    },
    {
      "inputs": [
        {
          "internalType": "uint256",
          "name": "",
          "type": "uint256"
        }
      ],
      "name": "dailyRewards",
      "outputs": [
        {
          "internalType": "uint256",
          "name": "",
          "type": "uint256"
        }
      ],
      "stateMutability": "view",
      "type": "function"
    },
    {
      "inputs": [
        {
          "internalType": "uint256",
          "name": "bundleId",
          "type": "uint256"
        }
      ],
      "name": "deactivateBundle",
      "outputs": [],
      "stateMutability": "nonpayable",
      "type": "function"
    },
    {
      "inputs": [
        {
          "internalType": "uint256",
          "name": "itemId",
          "type": "uint256"
        }
      ],
      "name": "deactivateItem",
      "outputs": [],
      "stateMutability": "nonpayable",
      "type": "function"
    },
    {
      "inputs": [
        {
          "internalType": "address",
          "name": "",
          "type": "address"
        }
      ],
      "name": "farmLevel",
      "outputs": [
        {
          "internalType": "uint256",
          "name": "",
          "type": "uint256"
        }
      ],
      "stateMutability": "view",
      "type": "function"
    },
    {
      "inputs": [
        {
          "internalType": "address",
          "name": "user",
          "type": "address"
        },
        {
          "internalType": "uint256[]",
          "name": "itemIds",
          "type": "uint256[]"
        }
      ],
      "name": "getUserInventory",
      "outputs": [
        {
          "internalType": "uint256[]",
          "name": "",
          "type": "uint256[]"
        }
      ],
      "stateMutability": "view",
      "type": "function"
    },
    {
      "inputs": [
        {
          "internalType": "address",
          "name": "user",
          "type": "address"
        },
        {
          "internalType": "uint256[]",
          "name": "plotIds",
          "type": "uint256[]"
        }
      ],
      "name": "getUserPlots",
      "outputs": [
        {
          "components": [
            {
              "internalType": "uint256",
              "name": "seedId",
              "type": "uint256"
            },
            {
              "internalType": "uint256",
              "name": "plantedAt",
              "type": "uint256"
            },
            {
              "internalType": "uint256",
              "name": "readyAt",
              "type": "uint256"
            },
            {
              "internalType": "uint16",
              "name": "growthBonusBP",
              "type": "uint16"
            },
            {
              "internalType": "uint16",
              "name": "yieldBonusBP",
              "type": "uint16"
            },
            {
              "internalType": "bool",
              "name": "growing",
              "type": "bool"
            },
            {
              "internalType": "uint256",
              "name": "harvestedAt",
              "type": "uint256"
            },
            {
              "internalType": "bool",
              "name": "needsFertilizer",
              "type": "bool"
            }
          ],
          "internalType": "struct RiseFarming.Plot[]",
          "name": "",
          "type": "tuple[]"
        }
      ],
      "stateMutability": "view",
      "type": "function"
    },
    {
      "inputs": [
        {
          "internalType": "uint256",
          "name": "plotId",
          "type": "uint256"
        }
      ],
      "name": "harvestWithGoldenHarvester",
      "outputs": [],
      "stateMutability": "nonpayable",
      "type": "function"
    },
    {
      "inputs": [
        {
          "internalType": "address",
          "name": "",
          "type": "address"
        }
      ],
      "name": "hasAutoWatering",
      "outputs": [
        {
          "internalType": "bool",
          "name": "",
          "type": "bool"
        }
      ],
      "stateMutability": "view",
      "type": "function"
    },
    {
      "inputs": [
        {
          "internalType": "uint256",
          "name": "",
          "type": "uint256"
        }
      ],
      "name": "items",
      "outputs": [
        {
          "internalType": "uint256",
          "name": "id",
          "type": "uint256"
        },
        {
          "internalType": "string",
          "name": "name",
          "type": "string"
        },
        {
          "internalType": "uint8",
          "name": "itemType",
          "type": "uint8"
        },
        {
          "internalType": "uint256",
          "name": "priceETH",
          "type": "uint256"
        },
        {
          "internalType": "address",
          "name": "paymentToken",
          "type": "address"
        },
        {
          "internalType": "uint256",
          "name": "baseReward",
          "type": "uint256"
        },
        {
          "internalType": "uint256",
          "name": "baseGrowthTime",
          "type": "uint256"
        },
        {
          "internalType": "uint16",
          "name": "growthBonusBP",
          "type": "uint16"
        },
        {
          "internalType": "uint16",
          "name": "yieldBonusBP",
          "type": "uint16"
        },
        {
          "internalType": "bool",
          "name": "active",
          "type": "bool"
        },
        {
          "internalType": "uint256",
          "name": "maxSupply",
          "type": "uint256"
        },
        {
          "internalType": "uint256",
          "name": "supply",
          "type": "uint256"
        }
      ],
      "stateMutability": "view",
      "type": "function"
    },
    {
      "inputs": [
        {
          "internalType": "address",
          "name": "",
          "type": "address"
        }
      ],
      "name": "lastClaimedDay",
      "outputs": [
        {
          "internalType": "uint256",
          "name": "",
          "type": "uint256"
        }
      ],
      "stateMutability": "view",
      "type": "function"
    },
    {
      "inputs": [],
      "name": "multiHarvestWithGoldenHarvester",
      "outputs": [],
      "stateMutability": "nonpayable",
      "type": "function"
    },
    {
      "inputs": [],
      "name": "owner",
      "outputs": [
        {
          "internalType": "address",
          "name": "",
          "type": "address"
        }
      ],
      "stateMutability": "view",
      "type": "function"
    },
    {
      "inputs": [],
      "name": "pause",
      "outputs": [],
      "stateMutability": "nonpayable",
      "type": "function"
    },
    {
      "inputs": [],
      "name": "paused",
      "outputs": [
        {
          "internalType": "bool",
          "name": "",
          "type": "bool"
        }
      ],
      "stateMutability": "view",
      "type": "function"
    },
    {
      "inputs": [
        {
          "internalType": "uint256",
          "name": "plotId",
          "type": "uint256"
        },
        {
          "internalType": "uint256",
          "name": "seedId",
          "type": "uint256"
        }
      ],
      "name": "plantSeed",
      "outputs": [],
      "stateMutability": "nonpayable",
      "type": "function"
    },
    {
      "inputs": [
        {
          "internalType": "address",
          "name": "",
          "type": "address"
        }
      ],
      "name": "playerLevel",
      "outputs": [
        {
          "internalType": "uint256",
          "name": "",
          "type": "uint256"
        }
      ],
      "stateMutability": "view",
      "type": "function"
    },
    {
      "inputs": [
        {
          "internalType": "uint256",
          "name": "",
          "type": "uint256"
        }
      ],
      "name": "questRewards",
      "outputs": [
        {
          "internalType": "uint256",
          "name": "",
          "type": "uint256"
        }
      ],
      "stateMutability": "view",
      "type": "function"
    },
    {
      "inputs": [
        {
          "internalType": "address",
          "name": "token",
          "type": "address"
        }
      ],
      "name": "removePaymentToken",
      "outputs": [],
      "stateMutability": "nonpayable",
      "type": "function"
    },
    {
      "inputs": [],
      "name": "renounceOwnership",
      "outputs": [],
      "stateMutability": "nonpayable",
      "type": "function"
    },
    {
      "inputs": [
        {
          "internalType": "uint256",
          "name": "plotId",
          "type": "uint256"
        }
      ],
      "name": "revivePlot",
      "outputs": [],
      "stateMutability": "nonpayable",
      "type": "function"
    },
    {
      "inputs": [
        {
          "internalType": "address",
          "name": "",
          "type": "address"
        }
      ],
      "name": "riceTokens",
      "outputs": [
        {
          "internalType": "uint256",
          "name": "",
          "type": "uint256"
        }
      ],
      "stateMutability": "view",
      "type": "function"
    },
    {
      "inputs": [],
      "name": "riseToken",
      "outputs": [
        {
          "internalType": "contract IERC20",
          "name": "",
          "type": "address"
        }
      ],
      "stateMutability": "view",
      "type": "function"
    },
    {
      "inputs": [
        {
          "internalType": "bool",
          "name": "paused",
          "type": "bool"
        }
      ],
      "name": "setDailyRewardPaused",
      "outputs": [],
      "stateMutability": "nonpayable",
      "type": "function"
    },
    {
      "inputs": [
        {
          "internalType": "uint256",
          "name": "itemId",
          "type": "uint256"
        },
        {
          "internalType": "uint256",
          "name": "maxSupply",
          "type": "uint256"
        }
      ],
      "name": "setItemMaxSupply",
      "outputs": [],
      "stateMutability": "nonpayable",
      "type": "function"
    },
    {
      "inputs": [
        {
          "internalType": "uint256",
          "name": "questId",
          "type": "uint256"
        },
        {
          "internalType": "uint256",
          "name": "reward",
          "type": "uint256"
        }
      ],
      "name": "setQuestReward",
      "outputs": [],
      "stateMutability": "nonpayable",
      "type": "function"
    },
    {
      "inputs": [
        {
          "internalType": "address",
          "name": "_riseToken",
          "type": "address"
        }
      ],
      "name": "setRiseToken",
      "outputs": [],
      "stateMutability": "nonpayable",
      "type": "function"
    },
    {
      "inputs": [
        {
          "internalType": "address",
          "name": "",
          "type": "address"
        }
      ],
      "name": "totalHarvests",
      "outputs": [
        {
          "internalType": "uint256",
          "name": "",
          "type": "uint256"
        }
      ],
      "stateMutability": "view",
      "type": "function"
    },
    {
      "inputs": [
        {
          "internalType": "address",
          "name": "",
          "type": "address"
        }
      ],
      "name": "totalXP",
      "outputs": [
        {
          "internalType": "uint256",
          "name": "",
          "type": "uint256"
        }
      ],
      "stateMutability": "view",
      "type": "function"
    },
    {
      "inputs": [
        {
          "internalType": "address",
          "name": "newOwner",
          "type": "address"
        }
      ],
      "name": "transferOwnership",
      "outputs": [],
      "stateMutability": "nonpayable",
      "type": "function"
    },
    {
      "inputs": [],
      "name": "unpause",
      "outputs": [],
      "stateMutability": "nonpayable",
      "type": "function"
    },
    {
      "inputs": [
        {
          "components": [
            {
              "internalType": "uint256",
              "name": "id",
              "type": "uint256"
            },
            {
              "internalType": "string",
              "name": "name",
              "type": "string"
            },
            {
              "internalType": "uint256[]",
              "name": "itemIds",
              "type": "uint256[]"
            },
            {
              "internalType": "uint256[]",
              "name": "itemAmounts",
              "type": "uint256[]"
            },
            {
              "internalType": "uint256",
              "name": "priceETH",
              "type": "uint256"
            },
            {
              "internalType": "address",
              "name": "paymentToken",
              "type": "address"
            },
            {
              "internalType": "bool",
              "name": "active",
              "type": "bool"
            },
            {
              "internalType": "uint256",
              "name": "maxSupply",
              "type": "uint256"
            },
            {
              "internalType": "uint256",
              "name": "supply",
              "type": "uint256"
            }
          ],
          "internalType": "struct RiseFarming.Bundle",
          "name": "bundle",
          "type": "tuple"
        }
      ],
      "name": "updateBundle",
      "outputs": [],
      "stateMutability": "nonpayable",
      "type": "function"
    },
    {
      "inputs": [
        {
          "components": [
            {
              "internalType": "uint256",
              "name": "id",
              "type": "uint256"
            },
            {
              "internalType": "string",
              "name": "name",
              "type": "string"
            },
            {
              "internalType": "uint8",
              "name": "itemType",
              "type": "uint8"
            },
            {
              "internalType": "uint256",
              "name": "priceETH",
              "type": "uint256"
            },
            {
              "internalType": "address",
              "name": "paymentToken",
              "type": "address"
            },
            {
              "internalType": "uint256",
              "name": "baseReward",
              "type": "uint256"
            },
            {
              "internalType": "uint256",
              "name": "baseGrowthTime",
              "type": "uint256"
            },
            {
              "internalType": "uint16",
              "name": "growthBonusBP",
              "type": "uint16"
            },
            {
              "internalType": "uint16",
              "name": "yieldBonusBP",
              "type": "uint16"
            },
            {
              "internalType": "bool",
              "name": "active",
              "type": "bool"
            },
            {
              "internalType": "uint256",
              "name": "maxSupply",
              "type": "uint256"
            },
            {
              "internalType": "uint256",
              "name": "supply",
              "type": "uint256"
            }
          ],
          "internalType": "struct RiseFarming.Item",
          "name": "item",
          "type": "tuple"
        }
      ],
      "name": "updateItem",
      "outputs": [],
      "stateMutability": "nonpayable",
      "type": "function"
    },
    {
      "inputs": [
        {
          "internalType": "address",
          "name": "user",
          "type": "address"
        }
      ],
      "name": "updatePlotsForUser",
      "outputs": [],
      "stateMutability": "nonpayable",
      "type": "function"
    },
    {
      "inputs": [
        {
          "internalType": "uint256",
          "name": "upgradeId",
          "type": "uint256"
        }
      ],
      "name": "upgradeFarm",
      "outputs": [],
      "stateMutability": "nonpayable",
      "type": "function"
    },
    {
      "inputs": [
        {
          "internalType": "uint256",
          "name": "toolId",
          "type": "uint256"
        },
        {
          "internalType": "uint256",
          "name": "plotId",
          "type": "uint256"
        }
      ],
      "name": "useTool",
      "outputs": [],
      "stateMutability": "nonpayable",
      "type": "function"
    },
    {
      "inputs": [
        {
          "internalType": "address",
          "name": "",
          "type": "address"
        },
        {
          "internalType": "uint256",
          "name": "",
          "type": "uint256"
        }
      ],
      "name": "userBundleSeeds",
      "outputs": [
        {
          "internalType": "uint256",
          "name": "",
          "type": "uint256"
        }
      ],
      "stateMutability": "view",
      "type": "function"
    },
    {
      "inputs": [
        {
          "internalType": "address",
          "name": "",
          "type": "address"
        },
        {
          "internalType": "uint256",
          "name": "",
          "type": "uint256"
        }
      ],
      "name": "userItemBalances",
      "outputs": [
        {
          "internalType": "uint256",
          "name": "",
          "type": "uint256"
        }
      ],
      "stateMutability": "view",
      "type": "function"
    },
    {
      "inputs": [
        {
          "internalType": "address",
          "name": "",
          "type": "address"
        },
        {
          "internalType": "uint256",
          "name": "",
          "type": "uint256"
        }
      ],
      "name": "userPlots",
      "outputs": [
        {
          "internalType": "uint256",
          "name": "seedId",
          "type": "uint256"
        },
        {
          "internalType": "uint256",
          "name": "plantedAt",
          "type": "uint256"
        },
        {
          "internalType": "uint256",
          "name": "readyAt",
          "type": "uint256"
        },
        {
          "internalType": "uint16",
          "name": "growthBonusBP",
          "type": "uint16"
        },
        {
          "internalType": "uint16",
          "name": "yieldBonusBP",
          "type": "uint16"
        },
        {
          "internalType": "bool",
          "name": "growing",
          "type": "bool"
        },
        {
          "internalType": "uint256",
          "name": "harvestedAt",
          "type": "uint256"
        },
        {
          "internalType": "bool",
          "name": "needsFertilizer",
          "type": "bool"
        }
      ],
      "stateMutability": "view",
      "type": "function"
    },
    {
      "inputs": [
        {
          "internalType": "address",
          "name": "",
          "type": "address"
        },
        {
          "internalType": "uint256",
          "name": "",
          "type": "uint256"
        }
      ],
      "name": "userSingleSeeds",
      "outputs": [
        {
          "internalType": "uint256",
          "name": "",
          "type": "uint256"
        }
      ],
      "stateMutability": "view",
      "type": "function"
    },
    {
      "inputs": [
        {
          "internalType": "address",
          "name": "",
          "type": "address"
        }
      ],
      "name": "userStreaks",
      "outputs": [
        {
          "internalType": "uint256",
          "name": "",
          "type": "uint256"
        }
      ],
      "stateMutability": "view",
      "type": "function"
    },
    {
      "inputs": [
        {
          "internalType": "address",
          "name": "",
          "type": "address"
        },
        {
          "internalType": "uint256",
          "name": "",
          "type": "uint256"
        }
      ],
      "name": "userToolUses",
      "outputs": [
        {
          "internalType": "uint256",
          "name": "",
          "type": "uint256"
        }
      ],
      "stateMutability": "view",
      "type": "function"
    },
    {
      "inputs": [
        {
          "internalType": "uint256",
          "name": "plotId",
          "type": "uint256"
        }
      ],
      "name": "waterCrop",
      "outputs": [],
      "stateMutability": "nonpayable",
      "type": "function"
    },
    {
      "inputs": [],
      "name": "withdrawETH",
      "outputs": [],
      "stateMutability": "nonpayable",
      "type": "function"
    },
    {
      "inputs": [
        {
          "internalType": "address",
          "name": "token",
          "type": "address"
        }
      ],
      "name": "withdrawToken",
      "outputs": [],
      "stateMutability": "nonpayable",
      "type": "function"
    },
    {
      "stateMutability": "payable",
      "type": "receive"
    }
  ],
  "bytecode": "0x6080604052601c805460ff191690553480156200001b57600080fd5b5033806200004357604051631e4fbdf760e01b81526000600482015260240160405180910390fd5b6200004e8162002095565b50600180805560008052601060209081527f6e0956cda88cad152e89927e53611735b61a5c762d1428573c6931b0a5efcb01805460ff1916831790556040805160e0810182529283526002918301919091526003908201526004606082015260056080820152600660a0820152600760c08201819052620000d291601191620020e5565b506040805161018081018252600980825282518084018452601881527f426173696320526963652053656564202853696e676c65290000000000000000602082810191909152808401918252600094840185905266016bcc41e90000606085015260808401859052600f60a08501526101a460c085015260e08401859052610100840185905260016101208501526127106101408501819052610160850152919093526002905280517ff85cc6ffc513dc6cf7d199ef87b7a63cf9defe62251c1c247cd12f1eec7bff2990815591519091907ff85cc6ffc513dc6cf7d199ef87b7a63cf9defe62251c1c247cd12f1eec7bff2a90620001d2908262002229565b5060408281015160028301805460ff191660ff9092169190911790556060830151600383015560808301516004830180546001600160a01b0319166001600160a01b0390921691909117905560a0830151600583015560c0830151600683015560e08301516007830180546101008601516101208088015161ffff95861663ffffffff19909416939093176201000095909216949094021760ff60201b19166401000000009115159190910217905561014084015160088401556101609093015160099092019190915580519182018152600d825280518082018252601881527f426173696320526963652053656564202842756e646c65290000000000000000602082810191909152808401919091528151600180825281840184529284019290918281019080368337505050815260408051600180825281830190925260209283019290919080830190803683375050508152660221b262dd8000602080830191909152600060408301819052600160608401526103e86080840181905260a090930192909252600d90915260038152815160008051602062006e398339815191529081559082015160008051602062006f19833981519152906200039a908262002229565b5060408201518051620003b89160028401916020909101906200212d565b5060608201518051620003d69160038401916020909101906200212d565b506080820151600482015560a082015160058201805460c08501511515600160a01b026001600160a81b03199091166001600160a01b039093169290921791909117905560e0820151600682015561010090910151600790910155600d6000908152600360205260008051602062006ef9833981519152805460099290620004625762000462620022f5565b6000918252602080832090910192909255600d8152600390915260008051602062006f59833981519152805460059290620004a157620004a1620022f5565b6000918252602080832091909101929092557ff85cc6ffc513dc6cf7d199ef87b7a63cf9defe62251c1c247cd12f1eec7bff30805463ffffffff1916620f000f1790556040805161018081018252600a80825282518084018452601a81527f5072656d69756d20526963652053656564202853696e676c652900000000000081870152828601908152928201849052660221b262dd8000606083015260808201849052603260a083015261016860c083015260e0820184905261010082018490526001610120830152610fa06101408301819052610160830152909252600290925280517fd3604db978f6137b0d18816b77b2ce810487a3af08a922e0b184963be5f3adfc90815591519091907fd3604db978f6137b0d18816b77b2ce810487a3af08a922e0b184963be5f3adfd90620005dc908262002229565b5060408281015160028301805460ff191660ff9092169190911790556060830151600383015560808301516004830180546001600160a01b0319166001600160a01b0390921691909117905560a0830151600583015560c0830151600683015560e08301516007830180546101008601516101208088015161ffff95861663ffffffff19909416939093176201000095909216949094021760ff60201b19166401000000009115159190910217905561014084015160088401556101609093015160099092019190915580519182018152600e825280518082018252601a81527f5072656d69756d20526963652053656564202842756e646c652900000000000060208281019190915280840191909152815160018082528184018452928401929091828101908036833750505081526040805160018082528183019092526020928301929091908083019080368337505050815266038d7ea4c68000602080830191909152600060408301819052600160608401526103e86080840181905260a090930192909252600e90915260038152815160008051602062006eb98339815191529081559082015160008051602062006e7983398151915290620007a4908262002229565b5060408201518051620007c29160028401916020909101906200212d565b5060608201518051620007e09160038401916020909101906200212d565b506080820151600482015560a082015160058201805460c08501511515600160a01b026001600160a81b03199091166001600160a01b039093169290921791909117905560e0820151600682015561010090910151600790910155600e6000908152600360205260008051602062006e598339815191528054600a92906200086c576200086c620022f5565b6000918252602080832090910192909255600e8152600390915260008051602062006df9833981519152805460029290620008ab57620008ab620022f5565b6000918252602080832091909101929092557fd3604db978f6137b0d18816b77b2ce810487a3af08a922e0b184963be5f3ae03805463ffffffff1916621e001e1790556040805161018081018252600b80825282518084018452601981527f48796272696420526963652053656564202853696e676c6529000000000000008187015282860190815292820184905266038d7ea4c68000606083015260808201849052604660a083015261012c60c083015260e08201849052610100820184905260016101208301526107d06101408301819052610160830152909252600290925280517fab9952baf6478d8cfb7253ce86a6c53a7b7549582c76210b1581ae682b7e556f90815591519091907fab9952baf6478d8cfb7253ce86a6c53a7b7549582c76210b1581ae682b7e557090620009e6908262002229565b5060408281015160028301805460ff191660ff9092169190911790556060830151600383015560808301516004830180546001600160a01b0319166001600160a01b0390921691909117905560a0830151600583015560c0830151600683015560e08301516007830180546101008601516101208088015161ffff95861663ffffffff19909416939093176201000095909216949094021760ff60201b19166401000000009115159190910217905561014084015160088401556101609093015160099092019190915580519182018152600f825280518082018252601981527f48796272696420526963652053656564202842756e646c6529000000000000006020828101919091528084019190915281516001808252818401845292840192909182810190803683375050508152604080516001808252818301909252602092830192909190808301908036833750505081526604f94ae6af8000602080830191909152600060408301819052600160608401526101f46080840181905260a090930192909252600f90915260038152815160008051602062006f398339815191529081559082015160008051602062006ed98339815191529062000bae908262002229565b506040820151805162000bcc9160028401916020909101906200212d565b506060820151805162000bea9160038401916020909101906200212d565b506080820151600482015560a082015160058201805460c08501511515600160a01b026001600160a81b03199091166001600160a01b039093169290921791909117905560e0820151600682015561010090910151600790910155600f6000908152600360205260008051602062006e198339815191528054600b929062000c765762000c76620022f5565b6000918252602080832090910192909255600f8152600390915260008051602062006e9983398151915280546002929062000cb55762000cb5620022f5565b60009182526020808320919091019290925560557fab9952baf6478d8cfb7253ce86a6c53a7b7549582c76210b1581ae682b7e5574557fab9952baf6478d8cfb7253ce86a6c53a7b7549582c76210b1581ae682b7e5576805463ffffffff1916624600461790556040805161018081018252601180825282518084018452601981527f476f6c64656e20486172766573746572202853696e676c6529000000000000008187015282860190815260019383018490526602d79883d2000060608401526080830185905260a0830185905260c0830185905260e083018590526101008301859052610120830193909352610ea66101408301819052610160830152909252600290925280517fa4e0f4432e44d027a7b3f953940f096bca7a9bd910297cad2ba7c703c2b799d390815591519091907fa4e0f4432e44d027a7b3f953940f096bca7a9bd910297cad2ba7c703c2b799d49062000e16908262002229565b5060408281015160028301805460ff191660ff9092169190911790556060830151600383015560808301516004830180546001600160a01b0319166001600160a01b0390921691909117905560a0830151600583015560c0830151600683015560e08301516007830180546101008601516101208088015161ffff95861663ffffffff19909416939093176201000095909216949094021760ff60201b191664010000000091151591909102179055610140840151600884015561016090930151600990920191909155805191820181526010825280518082018252601981527f476f6c64656e20486172766573746572202842756e646c6529000000000000006020828101919091528084019190915281516001808252818401845292840192909182810190803683375050508152604080516001808252818301909252602092830192909190808301908036833750505081526605af3107a40000602080830191909152600060408301819052600160608401526107536080840181905260a09093019290925260109091526003815281517f47d4745e02b343689a5e7ac121d2a352b7a15c10328a8759fd7d4cf0999002bb908155908201517f47d4745e02b343689a5e7ac121d2a352b7a15c10328a8759fd7d4cf0999002bc9062001000908262002229565b50604082015180516200101e9160028401916020909101906200212d565b50606082015180516200103c9160038401916020909101906200212d565b506080820151600482015560a082015160058201805460c08501511515600160a01b026001600160a81b03199091166001600160a01b039093169290921791909117905560e08201516006820155610100909101516007909101556010600090815260036020527f47d4745e02b343689a5e7ac121d2a352b7a15c10328a8759fd7d4cf0999002bd805460119290620010d957620010d9620022f5565b60009182526020808320909101929092556010815260039091527f47d4745e02b343689a5e7ac121d2a352b7a15c10328a8759fd7d4cf0999002be805460029290620011295762001129620022f5565b60009182526020808320909101929092556040805161018081018252600c80825282518084018452601381527f46657274696c697a657220537072656164657200000000000000000000000000818701528286019081526001938301849052606083018590526080830185905260a0830185905260c08301859052601960e0840152600f6101008401526101208301939093526127106101408301819052610160830152909252600290925280517fbd814762a7e35d5c162a7570d14baa68bd622cabb1ad83d40dd70f8a88aa67c090815591519091907fbd814762a7e35d5c162a7570d14baa68bd622cabb1ad83d40dd70f8a88aa67c1906200122e908262002229565b5060408201518160020160006101000a81548160ff021916908360ff1602179055506060820151816003015560808201518160040160006101000a8154816001600160a01b0302191690836001600160a01b0316021790555060a0820151816005015560c0820151816006015560e08201518160070160006101000a81548161ffff021916908361ffff1602179055506101008201518160070160026101000a81548161ffff021916908361ffff1602179055506101208201518160070160046101000a81548160ff02191690831515021790555061014082015181600801556101608201518160090155905050604051806101800160405280600481526020016040518060400160405280600e81526020016d537461727465722042756e646c6560901b8152508152602001600060ff1681526020016000815260200160006001600160a01b031681526020016000815260200160008152602001600061ffff168152602001600061ffff1681526020016001151581526020016103e881526020016103e88152506002600060048152602001908152602001600020600082015181600001556020820151816001019081620013ec919062002229565b5060408201518160020160006101000a81548160ff021916908360ff1602179055506060820151816003015560808201518160040160006101000a8154816001600160a01b0302191690836001600160a01b0316021790555060a0820151816005015560c0820151816006015560e08201518160070160006101000a81548161ffff021916908361ffff1602179055506101008201518160070160026101000a81548161ffff021916908361ffff1602179055506101208201518160070160046101000a81548160ff02191690831515021790555061014082015181600801556101608201518160090155905050604051806101800160405280600681526020016040518060400160405280601481526020017f4175746f2d5761746572696e672053797374656d0000000000000000000000008152508152602001600160ff1681526020016000815260200160006001600160a01b031681526020016000815260200160008152602001600061ffff168152602001600061ffff1681526020016001151581526020016161a881526020016161a88152506002600060068152602001908152602001600020600082015181600001556020820151816001019081620015b9919062002229565b5060408201518160020160006101000a81548160ff021916908360ff1602179055506060820151816003015560808201518160040160006101000a8154816001600160a01b0302191690836001600160a01b0316021790555060a0820151816005015560c0820151816006015560e08201518160070160006101000a81548161ffff021916908361ffff1602179055506101008201518160070160026101000a81548161ffff021916908361ffff1602179055506101208201518160070160046101000a81548160ff02191690831515021790555061014082015181600801556101608201518160090155905050604051806101800160405280600581526020016040518060400160405280600c81526020016b2bb0ba32b934b7339021b0b760a11b8152508152602001600160ff16815260200166016911c3f9d000815260200160006001600160a01b031681526020016000815260200160008152602001600061ffff168152602001600061ffff16815260200160011515815260200161c350815260200161c35081525060026000600581526020019081526020016000206000820151816000015560208201518160010190816200177b919062002229565b5060408281015160028301805460ff191660ff9092169190911790556060830151600383015560808301516004830180546001600160a01b0319166001600160a01b0390921691909117905560a0830151600583015560c0830151600683015560e08301516007830180546101008601516101208088015161ffff95861663ffffffff19909416939093176201000095909216949094021760ff60201b19166401000000009115159190910217905561014084015160088401556101609093015160099092019190915580519182018152600d825280518082018252601881527f426173696320526963652053656564202842756e646c65290000000000000000602082810191909152808401919091528151600180825281840184529284019290918281019080368337505050815260408051600180825281830190925260209283019290919080830190803683375050508152660221b262dd8000602080830191909152600060408301819052600160608401526103e86080840181905260a090930192909252600d90915260038152815160008051602062006e398339815191529081559082015160008051602062006f198339815191529062001943908262002229565b5060408201518051620019619160028401916020909101906200212d565b50606082015180516200197f9160038401916020909101906200212d565b506080820151600482015560a082015160058201805460c08501511515600160a01b026001600160a81b03199091166001600160a01b039093169290921791909117905560e0820151600682015561010090910151600790910155600d6000908152600360205260008051602062006ef983398151915280546009929062001a0b5762001a0b620022f5565b6000918252602080832090910192909255600d8152600390915260008051602062006f5983398151915280546005929062001a4a5762001a4a620022f5565b9060005260206000200181905550604051806101200160405280600e81526020016040518060400160405280601a81526020017f5072656d69756d20526963652053656564202842756e646c6529000000000000815250815260200160016001600160401b0381111562001ac25762001ac262002182565b60405190808252806020026020018201604052801562001aec578160200160208202803683370190505b50815260408051600180825281830190925260209092019190816020016020820280368337505050815266038d7ea4c68000602080830191909152600060408301819052600160608401526103e86080840181905260a090930192909252600e90915260038152815160008051602062006eb98339815191529081559082015160008051602062006e798339815191529062001b89908262002229565b506040820151805162001ba79160028401916020909101906200212d565b506060820151805162001bc59160038401916020909101906200212d565b506080820151600482015560a082015160058201805460c08501511515600160a01b026001600160a81b03199091166001600160a01b039093169290921791909117905560e0820151600682015561010090910151600790910155600e6000908152600360205260008051602062006e598339815191528054600a929062001c515762001c51620022f5565b6000918252602080832090910192909255600e8152600390915260008051602062006df983398151915280546002929062001c905762001c90620022f5565b9060005260206000200181905550604051806101200160405280600f81526020016040518060400160405280601981526020017f48796272696420526963652053656564202842756e646c652900000000000000815250815260200160016001600160401b0381111562001d085762001d0862002182565b60405190808252806020026020018201604052801562001d32578160200160208202803683370190505b5081526040805160018082528183019092526020909201919081602001602082028036833750505081526604f94ae6af8000602080830191909152600060408301819052600160608401526101f46080840181905260a090930192909252600f90915260038152815160008051602062006f398339815191529081559082015160008051602062006ed98339815191529062001dcf908262002229565b506040820151805162001ded9160028401916020909101906200212d565b506060820151805162001e0b9160038401916020909101906200212d565b506080820151600482015560a082015160058201805460c08501511515600160a01b026001600160a81b03199091166001600160a01b039093169290921791909117905560e0820151600682015561010090910151600790910155600f6000908152600360205260008051602062006e198339815191528054600b929062001e975762001e97620022f5565b6000918252602080832090910192909255600f8152600390915260008051602062006e9983398151915280546002929062001ed65762001ed6620022f5565b60009182526020808320909101929092556040805161018081018252600880825282518084018452600e81526d22b732b933bc902137b7b9ba32b960911b818701528286019081526002938301849052606083018590526080830185905260a0830185905260c0830185905260e0830185905261010083018590526001610120840152611f4061014084018190526101608401529352925281517f3a5ea591190eeb3f8fcdced843c78df04ec0dfd42f5510375207515664fa0a7590815590517f3a5ea591190eeb3f8fcdced843c78df04ec0dfd42f5510375207515664fa0a769062001fc4908262002229565b50604082015160028201805460ff90921660ff199092169190911790556060820151600382015560808201516004820180546001600160a01b039092166001600160a01b031990921691909117905560a0820151600582015560c0820151600682015560e082015160078201805461010085015161012086015115156401000000000260ff60201b1961ffff928316620100000263ffffffff19909416929095169190911791909117929092169190911790556101408201516008820155610160909101516009909101556200230b565b600080546001600160a01b038381166001600160a01b0319831681178455604051919092169283917f8be0079c531659141344cd1fd0a4f28419497f9722a3daafe3b4186f6b6457e09190a35050565b82600781019282156200211b579160200282015b828111156200211b578251829060ff16905591602001919060010190620020f9565b50620021299291506200216b565b5090565b8280548282559060005260206000209081019282156200211b579160200282015b828111156200211b5782518255916020019190600101906200214e565b5b808211156200212957600081556001016200216c565b634e487b7160e01b600052604160045260246000fd5b600181811c90821680620021ad57607f821691505b602082108103620021ce57634e487b7160e01b600052602260045260246000fd5b50919050565b601f82111562002224576000816000526020600020601f850160051c81016020861015620021ff5750805b601f850160051c820191505b8181101562002220578281556001016200220b565b5050505b505050565b81516001600160401b0381111562002245576200224562002182565b6200225d8162002256845462002198565b84620021d4565b602080601f8311600181146200229557600084156200227c5750858301515b600019600386901b1c1916600185901b17855562002220565b600085815260208120601f198616915b82811015620022c657888601518255948401946001909101908401620022a5565b5085821015620022e55787850151600019600388901b60f8161c191681555b5050505050600190811b01905550565b634e487b7160e01b600052603260045260246000fd5b614ade806200231b6000396000f3fe60806040526004361061042a5760003560e01c8063860ecd8c11610229578063cf19384b1161012e578063e630d241116100b6578063edf2fe731161007a578063edf2fe7314610de7578063f2fde38b14610dfa578063f3274a1f14610e1a578063f9e38f9c14610e2f578063fee99c7214610e4f57600080fd5b8063e630d24114610d5d578063e68b02cc14610d72578063e6f26df214610d87578063e9da722f14610da7578063edc0c03814610dc757600080fd5b8063d6eacb65116100fd578063d6eacb6514610c90578063d7a8ac0b14610ca5578063e086e5ec14610cdd578063e1f7d38a14610cf2578063e203fffc14610d2257600080fd5b8063cf19384b14610be3578063d13e335314610c16578063d291d1f214610c2b578063d4ac469f14610c5857600080fd5b8063a8ad4513116101b1578063bfb231d211610180578063bfb231d214610b41578063c7f7034614610b79578063cd4d1a1814610b99578063ce882f3614610bb9578063ced031d614610bce57600080fd5b8063a8ad451314610ae2578063b07e9a8b14610af7578063b0a79a9914610b0c578063b203dc6014610b2157600080fd5b80638da5cb5b116101f85780638da5cb5b14610a305780639b7eb3d014610a625780639d633e7714610a82578063a4d3f55714610aa2578063a512542114610ac257600080fd5b8063860ecd8c146109c65780638673fb8b146109e65780638719c20a146109fb5780638947606914610a1057600080fd5b80634a7dc8e01161032f57806366c3b5fa116102b757806377f8c8371161028657806377f8c8371461091757806379e072421461094f57806383f8b7e21461096f5780638456cb5914610984578063851044ec1461099957600080fd5b806366c3b5fa14610895578063715018a6146108b557806375651e77146108ca57806375b9ea1d146108f757600080fd5b806353abfc85116102fe57806353abfc85146107e957806354cb5399146108095780635a48d79d146108295780635c975abb1461085657806360e3ab0b1461087557600080fd5b80634a7dc8e0146106d85780634bf8b2c6146106f85780634c321a891461070d5780634f87e864146107c957600080fd5b806329e6d681116103b25780633603f8d1116103815780633603f8d11461062b57806338ee59b9146106535780633f4ba83a14610673578063451420cb14610688578063484bb244146106a857600080fd5b806329e6d681146105915780632a1bbd1f146105be5780632c9c78de146105de57806335a23e7b146105fe57600080fd5b806313c066f8116103f957806313c066f8146104fd57806314c84f3a1461051057806314d3a9c01461053d5780631f36c907146105525780632395216d1461056757600080fd5b8063073e57d21461043657806307bd03ba146104585780630da0d7a5146104a35780630f13dda4146104d057600080fd5b3661043157005b600080fd5b34801561044257600080fd5b50610456610451366004613fd7565b610e7c565b005b34801561046457600080fd5b5061049061047336600461400c565b600460209081526000928352604080842090915290825290205481565b6040519081526020015b60405180910390f35b3480156104af57600080fd5b506104906104be366004614036565b600c6020526000908152604090205481565b3480156104dc57600080fd5b506104906104eb366004613fd7565b600f6020526000908152604090205481565b61045661050b366004614058565b6111f2565b34801561051c57600080fd5b5061049061052b366004614036565b60086020526000908152604090205481565b34801561054957600080fd5b50610490600681565b34801561055e57600080fd5b50610490600881565b34801561057357600080fd5b50601c546105819060ff1681565b604051901515815260200161049a565b34801561059d57600080fd5b506104906105ac366004614036565b60076020526000908152604090205481565b3480156105ca57600080fd5b506104566105d936600461408d565b61156f565b3480156105ea57600080fd5b506104566105f93660046140c8565b6116a2565b34801561060a57600080fd5b50610490610619366004614036565b600a6020526000908152604090205481565b34801561063757600080fd5b50610640600081565b60405161ffff909116815260200161049a565b34801561065f57600080fd5b5061045661066e36600461408d565b6116bd565b34801561067f57600080fd5b506104566118b7565b34801561069457600080fd5b506104566106a336600461420d565b6118c9565b3480156106b457600080fd5b506105816106c3366004614036565b60106020526000908152604090205460ff1681565b3480156106e457600080fd5b506104566106f3366004614036565b611a21565b34801561070457600080fd5b50610640604681565b34801561071957600080fd5b5061078561072836600461400c565b6005602081815260009384526040808520909152918352912080546001820154600283015460038401546004850154949095015492949193909261ffff8084169362010000810490911692600160201b90910460ff908116921688565b6040805198895260208901979097529587019490945261ffff928316606087015291166080850152151560a084015260c0830152151560e08201526101000161049a565b3480156107d557600080fd5b506104566107e436600461408d565b611a84565b3480156107f557600080fd5b5061045661080436600461408d565b611f8d565b34801561081557600080fd5b50610456610824366004614398565b611fa7565b34801561083557600080fd5b50610490610844366004614036565b600b6020526000908152604090205481565b34801561086257600080fd5b50600054600160a01b900460ff16610581565b34801561088157600080fd5b5061045661089036600461420d565b6120c9565b3480156108a157600080fd5b506104566108b0366004613fd7565b6120d1565b3480156108c157600080fd5b506104566120f7565b3480156108d657600080fd5b506108ea6108e536600461449b565b612109565b60405161049a9190614521565b34801561090357600080fd5b50610456610912366004613fd7565b612286565b34801561092357600080fd5b5061049061093236600461400c565b601a60209081526000928352604080842090915290825290205481565b34801561095b57600080fd5b5061045661096a366004613fd7565b6123e0565b34801561097b57600080fd5b50610456612538565b34801561099057600080fd5b506104566126db565b3480156109a557600080fd5b506109b96109b436600461449b565b6126eb565b60405161049a91906145fa565b3480156109d257600080fd5b506104566109e1366004613fd7565b6127a5565b3480156109f257600080fd5b506104566129d8565b348015610a0757600080fd5b50610490600b81565b348015610a1c57600080fd5b50610456610a2b366004614036565b612c29565b348015610a3c57600080fd5b506000546001600160a01b03165b6040516001600160a01b03909116815260200161049a565b348015610a6e57600080fd5b50610456610a7d366004614036565b612d4c565b348015610a8e57600080fd5b50601854610a4a906001600160a01b031681565b348015610aae57600080fd5b50610456610abd366004614036565b612dec565b348015610ace57600080fd5b50610456610add366004614036565b612e16565b348015610aee57600080fd5b50610490600581565b348015610b0357600080fd5b50610490600a81565b348015610b1857600080fd5b50610490601281565b348015610b2d57600080fd5b50610490610b3c366004613fd7565b612e6f565b348015610b4d57600080fd5b50610b61610b5c366004613fd7565b612e86565b60405161049a9c9b9a99989796959493929190614653565b348015610b8557600080fd5b50610456610b9436600461408d565b612f87565b348015610ba557600080fd5b50610456610bb4366004613fd7565b612ffe565b348015610bc557600080fd5b50610456613194565b348015610bda57600080fd5b506104566132fd565b348015610bef57600080fd5b50610c03610bfe366004613fd7565b61367c565b60405161049a97969594939291906146d0565b348015610c2257600080fd5b50610490600c81565b348015610c3757600080fd5b50610490610c46366004614036565b60066020526000908152604090205481565b348015610c6457600080fd5b50610490610c7336600461400c565b601960209081526000928352604080842090915290825290205481565b348015610c9c57600080fd5b50610490601181565b348015610cb157600080fd5b50610490610cc036600461400c565b601b60209081526000928352604080842090915290825290205481565b348015610ce957600080fd5b50610456613750565b348015610cfe57600080fd5b50610581610d0d366004614036565b600d6020526000908152604090205460ff1681565b348015610d2e57600080fd5b50610581610d3d36600461400c565b600e60209081526000928352604080842090915290825290205460ff1681565b348015610d6957600080fd5b50610490600981565b348015610d7e57600080fd5b50610490600781565b348015610d9357600080fd5b50610456610da2366004614036565b6137e2565b348015610db357600080fd5b50610456610dc2366004613fd7565b613881565b348015610dd357600080fd5b50610456610de2366004614398565b61394f565b610456610df5366004614058565b613957565b348015610e0657600080fd5b50610456610e15366004614036565b613d81565b348015610e2657600080fd5b50610490600481565b348015610e3b57600080fd5b50610456610e4a366004613fd7565b613dbc565b348015610e5b57600080fd5b50610490610e6a366004614036565b60096020526000908152604090205481565b610e84613de3565b610e8c613e0e565b33600090815260046020908152604080832060118452909152902054610ef95760405162461bcd60e51b815260206004820152601e60248201527f4e65656420476f6c64656e20486172766573746572202853696e676c6529000060448201526064015b60405180910390fd5b33600090815260056020908152604080832084845290915290206003810154600160201b900460ff16610f605760405162461bcd60e51b815260206004820152600f60248201526e4e6f7468696e672067726f77696e6760881b6044820152606401610ef0565b8060020154421015610fa05760405162461bcd60e51b81526020600482015260096024820152684e6f7420726561647960b81b6044820152606401610ef0565b336000908152601960209081526040808320601184529091529020546110015760405162461bcd60e51b8152602060048201526016602482015275139bc81a185c9d995cdd195c881d5cd95cc81b19599d60521b6044820152606401610ef0565b33600090815260196020908152604080832060118452909152812080546001929061102d908490614732565b90915550503360009081526019602090815260408083206011845290915281205490036110bc57336000908152600460209081526040808320601184529091528120805460019290611080908490614732565b90915550506040516011815233907f67fee10f0e1435ad6c8f94181c2652853b5a45f1098c096c13b98bb742f56c049060200160405180910390a25b8054600090815260026020526040812060038301549091906103e8906110ec9062010000900461ffff168261474b565b61ffff1683600501546110ff919061476d565b611109919061479a565b90506000606461111a83601461476d565b611124919061479a565b9050600061113282846147ae565b336000908152600c60205260408120805492935083929091906111569084906147ae565b909155505060038501805464ff000000001916905542600486015560058501805460ff19166001179055604080518781526020810183905233917f81ca9b2c230070eaa84787556b1aaf18bf1e2f07ea5d3dae4819db77a1a5b224910160405180910390a2336000908152600b602052604081208054600192906111db9084906147ae565b909155505060018055506111ef9350505050565b50565b6111fa613de3565b611202613e0e565b60008381526002602052604090206007810154600160201b900460ff1661125b5760405162461bcd60e51b815260206004820152600d60248201526c4974656d20696e61637469766560981b6044820152606401610ef0565b828160090154101561127f5760405162461bcd60e51b8152600401610ef0906147c1565b600083116112c45760405162461bcd60e51b81526020600482015260126024820152710416d6f756e74206d757374206265203e20360741b6044820152606401610ef0565b60006001600160a01b038316156112dc5760006112ec565b8382600301546112ec919061476d565b90506001600160a01b038316611344578034101561133f5760405162461bcd60e51b815260206004820152601060248201526f092dce6eaccccd2c6d2cadce8408aa8960831b6044820152606401610ef0565b6113bd565b6040516323b872dd60e01b8152336004820152306024820152604481018290526001600160a01b038416906323b872dd906064016020604051808303816000875af1158015611397573d6000803e3d6000fd5b505050506040513d601f19601f820116820180604052508101906113bb91906147ee565b505b838260090160008282546113d19190614732565b9091555050336000908152600460209081526040808320888452909152812080548692906114009084906147ae565b9091555050600282015460ff1660000361144457336000908152601a602090815260408083208884529091528120805486929061143e9084906147ae565b90915550505b600282015460ff1660010361148e5761145e84600561476d565b336000908152601960209081526040808320898452909152812080549091906114889084906147ae565b90915550505b60408051600180825281830190925260009160208083019080368337505060408051600180825281830190925292935060009291506020808301908036833701905050905086826000815181106114e7576114e761480b565b60200260200101818152505085816000815181106115075761150761480b565b602002602001018181525050336001600160a01b03167f0faa30265942b056f8379458c99d8bce44d758b6c4e762355961a2ec3de64d41600084848988604051611555959493929190614821565b60405180910390a25050505061156a60018055565b505050565b611577613de3565b61157f613e0e565b3360009081526004602090815260408083208584529091529020546115d05760405162461bcd60e51b8152602060048201526007602482015266139bc81d1bdbdb60ca1b6044820152606401610ef0565b60008281526002602052604090206007810154600160201b900460ff1680156116005750600281015460ff166001145b61163b5760405162461bcd60e51b815260206004820152600c60248201526b125b9d985b1a59081d1bdbdb60a21b6044820152606401610ef0565b3360009081526004602090815260408083208684529091528120805460019290611666908490614732565b909155505060408051848152602081018490523391600080516020614a89833981519152910160405180910390a25061169e60018055565b5050565b6116aa613e38565b601c805460ff1916911515919091179055565b6116c5613de3565b6116cd613e0e565b60008281526002602052604090206007810154600160201b900460ff166117265760405162461bcd60e51b815260206004820152600d60248201526c4974656d20696e61637469766560981b6044820152606401610ef0565b818160090154101561174a5760405162461bcd60e51b8152600401610ef0906147c1565b6003810154156117945760405162461bcd60e51b81526020600482015260156024820152744e6f7420616e2052542d707269636564206974656d60581b6044820152606401610ef0565b60006117a9836802b5e3af16b188000061476d565b336000908152600c60205260409020549091508111156117fb5760405162461bcd60e51b815260206004820152600d60248201526c139bdd08195b9bdd59da081495609a1b6044820152606401610ef0565b336000908152600c60205260408120805483929061181a908490614732565b92505081905550828260090160008282546118359190614732565b9091555050336000908152600460209081526040808320878452909152812080548592906118649084906147ae565b9091555050604080518581526020810185905290810182905233907f0d60605d69a1fe7571d54b1ffc1cf6018cc3d4ef8398467410ae50018331d3169060600160405180910390a2505061169e60018055565b6118bf613e38565b6118c7613e65565b565b6118d1613e38565b805160009081526002602052604081205490036119265760405162461bcd60e51b8152602060048201526013602482015272125d195b48191bd95cc81b9bdd08195e1a5cdd606a1b6044820152606401610ef0565b805160009081526002602090815260409091208251815590820151829190600182019061195390826148f4565b50604082015160028201805460ff90921660ff199092169190911790556060820151600382015560808201516004820180546001600160a01b039092166001600160a01b031990921691909117905560a0820151600582015560c0820151600682015560e08201516007820180546101008501516101208601511515600160201b0264ff000000001961ffff928316620100000263ffffffff199094169290951691909117919091179290921691909117905561014082015160088201556101609091015160099091015550565b611a29613e38565b6001600160a01b038116600081815260106020908152604091829020805460ff1916600117905590519182527fa317c10673baf4f03b3c1041bd5ddbb537d0333a86fec3607c75f9dbb630f48f91015b60405180910390a150565b611a8c613de3565b611a94613e0e565b3360009081526005602081815260408084208685529091529091209081015460ff1615611afc5760405162461bcd60e51b8152602060048201526016602482015275105c1c1b1e4819995c9d1a5b1a5e995c88199a5c9cdd60521b6044820152606401610ef0565b336000908152600460209081526040808320858452909152902054611b4e5760405162461bcd60e51b81526020600482015260086024820152674e6f20736565647360c01b6044820152606401610ef0565b60008281526002602052604090206007810154600160201b900460ff168015611b7c5750600281015460ff16155b611bb75760405162461bcd60e51b815260206004820152600c60248201526b125b9d985b1a59081cd9595960a21b6044820152606401610ef0565b6007810154604661ffff9091161115611c125760405162461bcd60e51b815260206004820152601960248201527f47726f77746820626f6e7573206f7574206f662072616e6765000000000000006044820152606401610ef0565b600781015460466201000090910461ffff161115611c725760405162461bcd60e51b815260206004820152601860248201527f5969656c6420626f6e7573206f7574206f662072616e676500000000000000006044820152606401610ef0565b3360009081526004602090815260408083208684529091528120805460019290611c9d908490614732565b9091555050336000908152601b60209081526040808320868452909152812054819015611d3057336000908152601b602090815260408083208884529091528120805460019290611cef908490614732565b90915550506009859003611d095750610190905080611dca565b84600a03611d1c575060c8905080611dca565b84600b03611d2b575060d69050805b611dca565b336000908152601a6020908152604080832088845290915290205415611d8d57336000908152601a602090815260408083208884529091528120805460019290611d7b908490614732565b9091555060009250829150611dca9050565b60405162461bcd60e51b81526020600482015260126024820152714e6f20736565647320617661696c61626c6560701b6044820152606401610ef0565b60006103e8611dd984826149b4565b61ffff168560060154611dec919061476d565b611df6919061479a565b90506040518061010001604052808781526020014281526020018242611e1c91906147ae565b81526020018461ffff1681526020018361ffff168152602001600115158152602001600081526020016000151581525060056000336001600160a01b03166001600160a01b03168152602001908152602001600020600089815260200190815260200160002060008201518160000155602082015181600101556040820151816002015560608201518160030160006101000a81548161ffff021916908361ffff16021790555060808201518160030160026101000a81548161ffff021916908361ffff16021790555060a08201518160030160046101000a81548160ff02191690831515021790555060c0820151816004015560e08201518160050160006101000a81548160ff021916908315150217905550905050336001600160a01b03167fbff838f2fb339f78375289b45e530f7c7785d3d2a337193ebc7901faea10ef3a8888604051611f77929190918252602082015260400190565b60405180910390a2505050505061169e60018055565b611f95613e38565b6000918252600f602052604090912055565b611faf613e38565b805160009081526003602052604081205490036120065760405162461bcd60e51b8152602060048201526015602482015274109d5b991b1948191bd95cc81b9bdd08195e1a5cdd605a1b6044820152606401610ef0565b805160009081526003602090815260409091208251815590820151829190600182019061203390826148f4565b506040820151805161204f916002840191602090910190613f77565b506060820151805161206b916003840191602090910190613f77565b506080820151600482015560a082015160058201805460c08501511515600160a01b026001600160a81b03199091166001600160a01b039093169290921791909117905560e082015160068201556101009091015160079091015550565b611926613e38565b6120d9613e38565b6000908152600360205260409020600501805460ff60a01b19169055565b6120ff613e38565b6118c76000613eba565b606060008267ffffffffffffffff811115612126576121266140e5565b60405190808252806020026020018201604052801561219557816020015b604080516101008101825260008082526020808301829052928201819052606082018190526080820181905260a0820181905260c0820181905260e082015282526000199092019101816121445790505b50905060005b8381101561227d576001600160a01b0386166000908152600560205260408120908686848181106121ce576121ce61480b565b6020908102929092013583525081810192909252604090810160002081516101008101835281548152600182015493810193909352600281015491830191909152600381015461ffff808216606085015262010000820416608084015260ff600160201b9091048116151560a0840152600482015460c084015260059091015416151560e0820152825183908390811061226a5761226a61480b565b602090810291909101015260010161219b565b50949350505050565b61228e613de3565b612296613e0e565b336000908152600e6020908152604080832084845290915290205460ff16156122f95760405162461bcd60e51b8152602060048201526015602482015274145d595cdd08185b1c9958591e4818db185a5b5959605a1b6044820152606401610ef0565b6000818152600f6020526040902054806123555760405162461bcd60e51b815260206004820152601a60248201527f496e76616c6964207175657374206f72206e6f207265776172640000000000006044820152606401610ef0565b336000908152600c6020526040812080548392906123749084906147ae565b9091555050336000818152600e60209081526040808320868452825291829020805460ff1916600117905581518581529081018490527f89ddf70f60dee0505eb22a143daf80046698f56a9e1c9421cbd95c486199306f91015b60405180910390a2506111ef60018055565b6123e8613de3565b6123f0613e0e565b3360009081526004602090815260408083208484529091529020546124445760405162461bcd60e51b815260206004820152600a6024820152694e6f207570677261646560b01b6044820152606401610ef0565b60008181526002602052604090206007810154600160201b900460ff168015612473575060028082015460ff16145b6124b15760405162461bcd60e51b815260206004820152600f60248201526e496e76616c6964207570677261646560881b6044820152606401610ef0565b33600090815260046020908152604080832085845290915281208054600192906124dc908490614732565b9091555050336000908152600a602052604081208054600192906125019084906147ae565b909155505060405182815233907f64df0f68d7580b0900ece6245824a2cc4c50b47a830e4b867313abc3f3b516c8906020016123ce565b612540613de3565b612548613e0e565b601c5460ff16156125945760405162461bcd60e51b815260206004820152601660248201527511185a5b1e481c995dd85c99081a5cc81c185d5cd95960521b6044820152606401610ef0565b336000908152600660205260408120546125b0906007906149cf565b336000908152600760205260409020549091506125d090620151806147ae565b42116126165760405162461bcd60e51b8152602060048201526015602482015274416c726561647920636c61696d656420746f64617960581b6044820152606401610ef0565b60006011826007811061262b5761262b61480b565b0154336000908152600c60205260408120805492935083929091906126519084906147ae565b90915550503360009081526006602052604081208054600192906126769084906147ae565b90915550503360008181526007602052604090204290557f564485e821cf8ba18a499f35679b99b9fba6f9886a625dd2a70b79da8cb5ba066126b98460016147ae565b60408051918252602082018590520160405180910390a250506118c760018055565b6126e3613e38565b6118c7613f0a565b606060008267ffffffffffffffff811115612708576127086140e5565b604051908082528060200260200182016040528015612731578160200160208202803683370190505b50905060005b8381101561227d576001600160a01b03861660009081526004602052604081209086868481811061276a5761276a61480b565b905060200201358152602001908152602001600020548282815181106127925761279261480b565b6020908102919091010152600101612737565b6127ad613de3565b6127b5613e0e565b336000908152600460209081526040808320600c845290915290205461280d5760405162461bcd60e51b815260206004820152600d60248201526c2737902332b93a34b634bd32b960991b6044820152606401610ef0565b33600090815260056020908152604080832084845290915290206003810154600160201b900460ff166128745760405162461bcd60e51b815260206004820152600f60248201526e4e6f7468696e672067726f77696e6760881b6044820152606401610ef0565b336000908152600460209081526040808320600c845290915281208054600192906128a0908490614732565b909155505060018101546000906128b79042614732565b6003830180549192506019916000906128d590849061ffff1661474b565b92506101000a81548161ffff021916908361ffff160217905550600f8260030160028282829054906101000a900461ffff16612911919061474b565b82546101009290920a61ffff81810219909316918316021790915583546000908152600260205260408120600386015490935090916103e8916129559116826149b4565b61ffff168360060154612968919061476d565b612972919061479a565b90508083101561299a576129868382614732565b61299090426147ae565b60028501556129a1565b4260028501555b60408051600c8152602081018790523391600080516020614a89833981519152910160405180910390a2505050506111ef60018055565b6129e0613de3565b6129e8613e0e565b33600090815260046020908152604080832060068452909152902054612a505760405162461bcd60e51b815260206004820152601760248201527f4e6f204175746f2d5761746572696e672053797374656d0000000000000000006044820152606401610ef0565b33600090815260196020908152604080832060068452909152902054612ab85760405162461bcd60e51b815260206004820152601a60248201527f4e6f206175746f2d7761746572696e672075736573206c6566740000000000006044820152606401610ef0565b6000805b6010811015612b2b5733600090815260056020908152604080832084845290915290206003810154600160201b900460ff1615612b2257604080516006815260208101849052600194503391600080516020614a89833981519152910160405180910390a25b50600101612abc565b508015612c1f57336000908152600460209081526040808320600684529091528120805460019290612b5e908490614732565b9091555050336000908152601960209081526040808320600684529091528120805460019290612b8f908490614732565b9091555050336000908152601960209081526040808320600684529091528120549003612c1f57336000908152600460209081526040808320600684529091528120805460019290612be2908490614732565b90915550506040516006815233907f67fee10f0e1435ad6c8f94181c2652853b5a45f1098c096c13b98bb742f56c04906020015b60405180910390a25b506118c760018055565b612c31613e38565b6040516370a0823160e01b81523060048201526000906001600160a01b038316906370a0823190602401602060405180830381865afa158015612c78573d6000803e3d6000fd5b505050506040513d601f19601f82011682018060405250810190612c9c91906149e3565b905060008111612cdb5760405162461bcd60e51b815260206004820152600a6024820152694e6f2062616c616e636560b01b6044820152606401610ef0565b60405163a9059cbb60e01b8152336004820152602481018290526001600160a01b0383169063a9059cbb906044016020604051808303816000875af1158015612d28573d6000803e3d6000fd5b505050506040513d601f19601f8201168201806040525081019061156a91906147ee565b60005b601081101561169e576001600160a01b038216600090815260056020908152604080832084845290915290206003810154600160201b900460ff168015612d9a575080600201544210155b15612de357826001600160a01b03167f11c42d52b352031ab932886e32b045f3fc5055ace50a7365cd2b005979ba950583604051612dda91815260200190565b60405180910390a25b50600101612d4f565b612df4613e38565b601880546001600160a01b0319166001600160a01b0392909216919091179055565b612e1e613e38565b6001600160a01b038116600081815260106020908152604091829020805460ff1916905590519182527f85a3e72f8dd6db3794f93109c3c5f5b79d6112f6979431c45f98b26134b42af29101611a79565b60118160078110612e7f57600080fd5b0154905081565b60026020526000908152604090208054600182018054919291612ea89061486a565b80601f0160208091040260200160405190810160405280929190818152602001828054612ed49061486a565b8015612f215780601f10612ef657610100808354040283529160200191612f21565b820191906000526020600020905b815481529060010190602001808311612f0457829003601f168201915b505050506002830154600384015460048501546005860154600687015460078801546008890154600990990154979860ff968716989597506001600160a01b03909416959294919361ffff8083169462010000840490911693600160201b90930416918c565b612f8f613e38565b6000828152600260205260408120549003612fe25760405162461bcd60e51b8152602060048201526013602482015272125d195b48191bd95cc81b9bdd08195e1a5cdd606a1b6044820152606401610ef0565b6000918252600260205260409091206008810182905560090155565b613006613de3565b61300e613e0e565b3360009081526005602081815260408084208585529091529091209081015460ff1661307c5760405162461bcd60e51b815260206004820152601d60248201527f506c6f7420646f6573206e6f74206e6565642066657274696c697a65720000006044820152606401610ef0565b600481015461308c9060786147ae565b4210156130cf5760405162461bcd60e51b815260206004820152601160248201527021b7b7b63237bbb7103737ba1037bb32b960791b6044820152606401610ef0565b336000908152600460209081526040808320600c84529091529020546131275760405162461bcd60e51b815260206004820152600d60248201526c2737903332b93a34b634bd32b960991b6044820152606401610ef0565b336000908152600460209081526040808320600c84529091528120805460019290613153908490614732565b90915550506000808255600182018190556002820181905560038201805464ffffffffff191690556004820155600501805460ff191690556111ef60018055565b61319c613e0e565b336000908152600c60205260409020546801158e460913d000008110156132055760405162461bcd60e51b815260206004820152601b60248201527f4d75737420636c61696d206174206c65617374203230205249534500000000006044820152606401610ef0565b336000818152600c602052604080822091909155601854905163a9059cbb60e01b81526004810192909252602482018390526001600160a01b03169063a9059cbb906044016020604051808303816000875af1158015613269573d6000803e3d6000fd5b505050506040513d601f19601f8201168201806040525081019061328d91906147ee565b6132cb5760405162461bcd60e51b815260206004820152600f60248201526e151c985b9cd9995c8819985a5b1959608a1b6044820152606401610ef0565b60405181815233907f2988752f8fcb52b8c982219deefd82a981754ed258f421467a7133874ba9f29090602001612c16565b613305613de3565b61330d613e0e565b336000908152600460209081526040808320601284529091529020546133755760405162461bcd60e51b815260206004820152601e60248201527f4e65656420476f6c64656e20486172766573746572202842756e646c652900006044820152606401610ef0565b60008060005b60108110156134e75733600090815260056020908152604080832084845290915290206003810154600160201b900460ff1680156133bd575080600201544210155b156134de578054600090815260026020526040812060038301549091906103e8906133f29062010000900461ffff168261474b565b61ffff168360050154613405919061476d565b61340f919061479a565b90506000606461342083601461476d565b61342a919061479a565b9050600061343882846147ae565b905061344481896147ae565b60038601805464ff000000001916905542600487015560058601805460ff19166001179055975086613475816149fc565b336000908152600b602052604081208054929a5060019350916134999084906147ae565b9091555050604080518781526020810183905233917f81ca9b2c230070eaa84787556b1aaf18bf1e2f07ea5d3dae4819db77a1a5b224910160405180910390a2505050505b5060010161337b565b50600081116135295760405162461bcd60e51b815260206004820152600e60248201526d4e6f20706c6f747320726561647960901b6044820152606401610ef0565b336000908152601960209081526040808320601284529091529020546135915760405162461bcd60e51b815260206004820152601d60248201527f4e6f206861727665737465722062756e646c652075736573206c6566740000006044820152606401610ef0565b3360009081526019602090815260408083206012845290915281208054600192906135bd908490614732565b909155505033600090815260196020908152604080832060128452909152812054900361364c57336000908152600460209081526040808320601284529091528120805460019290613610908490614732565b90915550506040516012815233907f67fee10f0e1435ad6c8f94181c2652853b5a45f1098c096c13b98bb742f56c049060200160405180910390a25b336000908152600c60205260408120805484929061366b9084906147ae565b909155505060018055506118c79050565b6003602052600090815260409020805460018201805491929161369e9061486a565b80601f01602080910402602001604051908101604052809291908181526020018280546136ca9061486a565b80156137175780601f106136ec57610100808354040283529160200191613717565b820191906000526020600020905b8154815290600101906020018083116136fa57829003601f168201915b50505050600483015460058401546006850154600790950154939491936001600160a01b0382169350600160a01b90910460ff16919087565b613758613e38565b604051600090339047908381818185875af1925050503d806000811461379a576040519150601f19603f3d011682016040523d82523d6000602084013e61379f565b606091505b50509050806111ef5760405162461bcd60e51b815260206004820152600f60248201526e15da5d1a191c985dc819985a5b1959608a1b6044820152606401610ef0565b60005b601081101561169e576001600160a01b038216600090815260056020908152604080832084845290915290206003810154600160201b900460ff16801561382f5750806002015442105b1561387857826001600160a01b03167f3ad3dd486d6804864bd604a17ff5d932e3bf0493d580c0d7e093073bd3440d288360405161386f91815260200190565b60405180910390a25b506001016137e5565b613889613de3565b613891613e0e565b336000908152600460209081526040808320600584529091529020546138eb5760405162461bcd60e51b815260206004820152600f60248201526e2737903bb0ba32b934b7339031b0b760891b6044820152606401610ef0565b336000908152600460209081526040808320600584529091528120805460019290613917908490614732565b90915550506040805160058152602081018390523391600080516020614a89833981519152910160405180910390a26111ef60018055565b612006613e38565b61395f613de3565b613967613e0e565b60008381526003602052604090206005810154600160a01b900460ff166139c25760405162461bcd60e51b815260206004820152600f60248201526e42756e646c6520696e61637469766560881b6044820152606401610ef0565b8281600701541015613a165760405162461bcd60e51b815260206004820152601a60248201527f496e73756666696369656e742062756e646c6520737570706c790000000000006044820152606401610ef0565b60006001600160a01b03831615613a2e576000613a3e565b838260040154613a3e919061476d565b90506001600160a01b038316613a965780341015613a915760405162461bcd60e51b815260206004820152601060248201526f092dce6eaccccd2c6d2cadce8408aa8960831b6044820152606401610ef0565b613b0f565b6040516323b872dd60e01b8152336004820152306024820152604481018290526001600160a01b038416906323b872dd906064016020604051808303816000875af1158015613ae9573d6000803e3d6000fd5b505050506040513d601f19601f82011682018060405250810190613b0d91906147ee565b505b60005b6002830154811015613c76576000836002018281548110613b3557613b3561480b565b90600052602060002001549050600086856003018481548110613b5a57613b5a61480b565b9060005260206000200154613b6f919061476d565b600083815260026020526040902060090154909150811115613ba35760405162461bcd60e51b8152600401610ef0906147c1565b60008281526002602052604081206009018054839290613bc4908490614732565b909155505060008281526002602081905260408220015460ff169003613c1457336000908152601b6020908152604080832085845290915281208054839290613c0e9084906147ae565b90915550505b6000828152600260208190526040909120015460ff16600103613c6c57613c3c81600561476d565b33600090815260196020908152604080832086845290915281208054909190613c669084906147ae565b90915550505b5050600101613b12565b5083826007016000828254613c8b9190614732565b90915550600090505b6002830154811015613d285784836003018281548110613cb657613cb661480b565b9060005260206000200154613ccb919061476d565b33600090815260046020526040812060028601805491929185908110613cf357613cf361480b565b906000526020600020015481526020019081526020016000206000828254613d1b91906147ae565b9091555050600101613c94565b50336001600160a01b03167f854931d3a8461ab9d0412c3e03f884c9911fbec9854941d26b4c14d88c6b055086846002018560030185604051613d6e9493929190614a4b565b60405180910390a2505061156a60018055565b613d89613e38565b6001600160a01b038116613db357604051631e4fbdf760e01b815260006004820152602401610ef0565b6111ef81613eba565b613dc4613e38565b6000908152600260205260409020600701805464ff0000000019169055565b600054600160a01b900460ff16156118c75760405163d93c066560e01b815260040160405180910390fd5b600260015403613e3157604051633ee5aeb560e01b815260040160405180910390fd5b6002600155565b6000546001600160a01b031633146118c75760405163118cdaa760e01b8152336004820152602401610ef0565b613e6d613f4d565b6000805460ff60a01b191690557f5db9ee0a495bf2e6ff9c91a7834c1ba4fdd244a5e8aa4e537bd38aeae4b073aa335b6040516001600160a01b03909116815260200160405180910390a1565b600080546001600160a01b038381166001600160a01b0319831681178455604051919092169283917f8be0079c531659141344cd1fd0a4f28419497f9722a3daafe3b4186f6b6457e09190a35050565b613f12613de3565b6000805460ff60a01b1916600160a01b1790557f62e78cea01bee320cd4e420270b5ea74000d11b0c9f74754ebdbfc544b05a258613e9d3390565b600054600160a01b900460ff166118c757604051638dfc202b60e01b815260040160405180910390fd5b828054828255906000526020600020908101928215613fb2579160200282015b82811115613fb2578251825591602001919060010190613f97565b50613fbe929150613fc2565b5090565b5b80821115613fbe5760008155600101613fc3565b600060208284031215613fe957600080fd5b5035919050565b80356001600160a01b038116811461400757600080fd5b919050565b6000806040838503121561401f57600080fd5b61402883613ff0565b946020939093013593505050565b60006020828403121561404857600080fd5b61405182613ff0565b9392505050565b60008060006060848603121561406d57600080fd5b833592506020840135915061408460408501613ff0565b90509250925092565b600080604083850312156140a057600080fd5b50508035926020909101359150565b80151581146111ef57600080fd5b8035614007816140af565b6000602082840312156140da57600080fd5b8135614051816140af565b634e487b7160e01b600052604160045260246000fd5b604051610180810167ffffffffffffffff8111828210171561411f5761411f6140e5565b60405290565b604051610120810167ffffffffffffffff8111828210171561411f5761411f6140e5565b604051601f8201601f1916810167ffffffffffffffff81118282101715614172576141726140e5565b604052919050565b600082601f83011261418b57600080fd5b813567ffffffffffffffff8111156141a5576141a56140e5565b6141b8601f8201601f1916602001614149565b8181528460208386010111156141cd57600080fd5b816020850160208301376000918101602001919091529392505050565b803560ff8116811461400757600080fd5b803561ffff8116811461400757600080fd5b60006020828403121561421f57600080fd5b813567ffffffffffffffff8082111561423757600080fd5b90830190610180828603121561424c57600080fd5b6142546140fb565b8235815260208301358281111561426a57600080fd5b6142768782860161417a565b602083015250614288604084016141ea565b6040820152606083013560608201526142a360808401613ff0565b608082015260a083013560a082015260c083013560c08201526142c860e084016141fb565b60e082015261010091506142dd8284016141fb565b8282015261012091506142f18284016140bd565b91810191909152610140828101359082015261016091820135918101919091529392505050565b600082601f83011261432957600080fd5b8135602067ffffffffffffffff821115614345576143456140e5565b8160051b614354828201614149565b928352848101820192828101908785111561436e57600080fd5b83870192505b8483101561438d57823582529183019190830190614374565b979650505050505050565b6000602082840312156143aa57600080fd5b813567ffffffffffffffff808211156143c257600080fd5b9083019061012082860312156143d757600080fd5b6143df614125565b823581526020830135828111156143f557600080fd5b6144018782860161417a565b60208301525060408301358281111561441957600080fd5b61442587828601614318565b60408301525060608301358281111561443d57600080fd5b61444987828601614318565b6060830152506080830135608082015261446560a08401613ff0565b60a082015261447660c084016140bd565b60c082015260e083810135908201526101009283013592810192909252509392505050565b6000806000604084860312156144b057600080fd5b6144b984613ff0565b9250602084013567ffffffffffffffff808211156144d657600080fd5b818601915086601f8301126144ea57600080fd5b8135818111156144f957600080fd5b8760208260051b850101111561450e57600080fd5b6020830194508093505050509250925092565b602080825282518282018190526000919060409081850190868401855b828110156145b1578151805185528681015187860152858101518686015260608082015161ffff908116918701919091526080808301519091169086015260a08082015115159086015260c0808201519086015260e090810151151590850152610100909301929085019060010161453e565b5091979650505050505050565b60008151808452602080850194506020840160005b838110156145ef578151875295820195908201906001016145d3565b509495945050505050565b60208152600061405160208301846145be565b6000815180845260005b8181101561463357602081850181015186830182015201614617565b506000602082860101526020601f19601f83011685010191505092915050565b60006101808e835280602084015261466d8184018f61460d565b60ff9d909d166040840152505060608101999099526001600160a01b0397909716608089015260a088019590955260c087019390935261ffff91821660e08701521661010085015215156101208401526101408301526101609091015292915050565b87815260e0602082015260006146e960e083018961460d565b6040830197909752506001600160a01b03949094166060850152911515608084015260a083015260c09091015292915050565b634e487b7160e01b600052601160045260246000fd5b818103818111156147455761474561471c565b92915050565b61ffff8181168382160190808211156147665761476661471c565b5092915050565b80820281158282048414176147455761474561471c565b634e487b7160e01b600052601260045260246000fd5b6000826147a9576147a9614784565b500490565b808201808211156147455761474561471c565b602080825260139082015272496e73756666696369656e7420737570706c7960681b604082015260600190565b60006020828403121561480057600080fd5b8151614051816140af565b634e487b7160e01b600052603260045260246000fd5b85815260a06020820152600061483a60a08301876145be565b828103604084015261484c81876145be565b6001600160a01b039590951660608401525050608001529392505050565b600181811c9082168061487e57607f821691505b60208210810361489e57634e487b7160e01b600052602260045260246000fd5b50919050565b601f82111561156a576000816000526020600020601f850160051c810160208610156148cd5750805b601f850160051c820191505b818110156148ec578281556001016148d9565b505050505050565b815167ffffffffffffffff81111561490e5761490e6140e5565b6149228161491c845461486a565b846148a4565b602080601f831160018114614957576000841561493f5750858301515b600019600386901b1c1916600185901b1785556148ec565b600085815260208120601f198616915b8281101561498657888601518255948401946001909101908401614967565b50858210156149a45787850151600019600388901b60f8161c191681555b5050505050600190811b01905550565b61ffff8281168282160390808211156147665761476661471c565b6000826149de576149de614784565b500690565b6000602082840312156149f557600080fd5b5051919050565b600060018201614a0e57614a0e61471c565b5060010190565b600081548084526020808501945083600052602060002060005b838110156145ef57815487529582019560019182019101614a2f565b848152608060208201526000614a646080830186614a15565b8281036040840152614a768186614a15565b9150508260608301529594505050505056fed29993d7389aafeb1ae0eebfcc0e2b777c314426c46ed802d5116187380125d5a2646970667358221220fdda9eb9964e2c72712d23bc0f5e111e788da803ba2f4dc5a3bbf0e3baf0fb9464736f6c63430008180033d6ebcc64c739277b117ce359e436534b234b76e914c80ad276abf5b56207893cf60b7f6a315ec68a6ac240e69dca53652b38627f709a2caa217d9e18af4d7a62a8f2d96126c6d0ad63adabaef7bf5cf47f163fb0c218a473d28f62312d197bcfd6ebcc64c739277b117ce359e436534b234b76e914c80ad276abf5b56207893bd6ebcc64c739277b117ce359e436534b234b76e914c80ad276abf5b56207893af60b7f6a315ec68a6ac240e69dca53652b38627f709a2caa217d9e18af4d7a63d6ebcc64c739277b117ce359e436534b234b76e914c80ad276abf5b562078939f60b7f6a315ec68a6ac240e69dca53652b38627f709a2caa217d9e18af4d7a61a8f2d96126c6d0ad63adabaef7bf5cf47f163fb0c218a473d28f62312d197bd1a8f2d96126c6d0ad63adabaef7bf5cf47f163fb0c218a473d28f62312d197bd0f60b7f6a315ec68a6ac240e69dca53652b38627f709a2caa217d9e18af4d7a60a8f2d96126c6d0ad63adabaef7bf5cf47f163fb0c218a473d28f62312d197bd2",
  "linkReferences": {},
  "deployedLinkReferences": {}
}